:100000000C943D100C9412FD0C94E7FC0C94BCFC79
:100010000C9491FC0C9466FC0C943BFC0C9410FC2E
:100020000C94E5FB0C946E100C946E100C946E10F6
:100030000C946E100C946E100C946E100C9497E847
:100040000C946E100C9456C40C94F6C10C94796DFB
:100050000C946E100C946E100C946E100D94B232C1
:100060000C946E100C949AFE0C945AFE0C946E1024
:100070000C946E100C946E100C946E100C946E1008
:100080000C9444790C94BC780C9434780C946E10D5
:100090000C946E100C946E100C946E100C946E10E8
:1000A0000C946E100C946E100C9416750C94AC7726
:1000B0000C947B740C946E100C946E100C9403775B
:1000C0000C945A760C94B1750C946E100C946E10BE
:1000D0000C946E100C946E100C9424FE0C94E4FDA1
:1000E0000C946E100A3DEF15EF15EF15EF15EF1597
:1000F000F73CEF15EF15EF15EF151A39EF15EF1562
:10010000EF15EF152C3DEF15243DEF15EF15EF150D
:10011000EF15EF15EF15EF15EF15EF15EF15EF15BF
:10012000EF15EF15EF15EF15EF15EF15EF15EF15AF
:10013000EF15EF15EF15EF15EF15EF15EF15133D53
:10014000EF15EF15EF153B3D1C3D0F2FD12EA42EC3
:10015000092E5F2EDA2D4A1F952DF0491246E849E7
:10016000764A1F471246424AEF4A1246D84A12467A
:10017000BA461246B74A12461F4B1246F64A264B5B
:100180001246DF490649EB48E848BD481246124688
:100190005547124612461246124612463D4723471D
:1001A000A3498D495F49124612461246BD45124683
:1001B000D64912461246BD4912461246794A12469F
:1001C000304912462B4612461246F949124612464B
:1001D000F549925290524E52E250CD50E74ED24ED7
:1001E0000C4E674C624CA74CD34A5D4C6754465446
:1001F00025541F54FE53F153C453A0549A5494549D
:100200007354C5546D54410391022304A7022B0477
:10021000B5038502C3011C696969BB691C6A9463E3
:1002200094638E6A9463EE6A496BA46B94639463DF
:100230009463946394639463946394639463F46B9E
:1002400094639463946394639463946394639463F6
:100250009463386C8B6C9463946394639463946339
:10026000946394639463F26C4B68946394639463B3
:10027000B2689463946394639463946394639463A3
:1002800094639463E2639463946394639463E2631A
:10029000AACB80CB95CBAFCBB4CBC9CBCECBEDCB60
:1002A00010CC15CC1ACC5FCB7BCB07CF07CF35CF8B
:1002B00046CF4BCF2BCFF0D15CCFEBD14FD254D226
:1002C00020D230CF49D750D707D76ED776D792D71D
:1002D0009AD7BBD7E8D7F0D7F8D726D742D79FDE33
:1002E00028DB85DBFCDEE0DB1BDF3FDC12DDBEDE76
:1002F000DDDE23DECBDA80DE61FD5FFD5DFD5BFDD3
:1003000059FD63FD65FDCAFDC2FDB6FDA8FD97FD63
:10031000D6FD80FDEF0141027F03C501CB025D04E4
:100320002303ED017D037B02D3010903E1013703C0
:10033000DD02E7023B032D046903B7036B033F03B0
:10034000B7023504CD02BB01C901D90201032F0256
:10035000F7012104E102CD0219023D0429040C94A5
:10036000386C0C9406490C94B2680C94F1A60C9469
:10037000F26C0C94E9F90D949D150C945FFD0C94AE
:1003800063FD0C94AFCB0D94BB400D94900C0C947A
:10039000F8D70D94A3150C942C3D0C94264B0C947B
:1003A000D9960C9440AA0D946B080C947E9A0C94E8
:1003B000BD480C9461FD0C94F2580C94A1AD0C94C2
:1003C000C2FD0D94440E0C947AFB0C945D4C0C947D
:1003D000558D0C94A42E0C941C690D9488090D94D1
:1003E0007E060C94BC8C0D9421190D9412190D9459
:1003F000BB150C94952D0C94E2630C9497FD0C9412
:100400001F4B0C94109C0C9492D70C9469690D941A
:10041000C1160C94A0710C94092E0C942BEF0C9423
:10042000A0540C94D24E0C9412DD0C9469F20C94EE
:10043000E2500D94CD150C94D34A0C9410CC0C942E
:1004400009960C94B27D0C94949F0C941C3D0C94D2
:10045000689D0C94B5550C94F64A0D94F3180D94C0
:10046000B5150D94D1190C94E0DB0C9419900C94F3
:100470001C6A0C9449D70C94199A0C94624C0D94F4
:10048000ED170D9443070C94679D0C94C4530C9482
:10049000AE990C94D0EF0C94F4A00C94424A0C94B6
:1004A0003CA20C9412460C94E9A20C94F49C0C947B
:1004B000299B0C94764A0D940D170C9497EE0C948E
:1004C000C8F30C944BCF0C9483F10C94E0610C9422
:1004D000EDCB0C940E980C94BD450D94B51A0C946C
:1004E000A9970C941F540D9471170C941ACC0C946A
:1004F000A74C0C942B580D94410A0C94F1530C9476
:10050000CBDA0D943C180C944DA50D9495480C94A1
:1005100015FB0C947DB20C945EA30C943E970C9446
:1005200055470D941C470C946ED70C947BCB0C94C0
:10053000B4890C94EE6A0C94BDA50C94FF6F0C94D6
:10054000D84A0D9457180C941F470C948D6F0D9436
:100550008A460D94564F0C94838F0C9423470C9429
:10056000D12E0D941F180C94DE980C9420D20D946B
:1005700091150D94791A0C9454D20C94689B0C9498
:10058000C5540C942A9D0C9430490C947AAC0C946C
:1005900007CF0C94787E0D94FC0A0D9482150C9470
:1005A00090520C942B460C948D9E0C9473540C9486
:1005B000E8480D94A9150C9459FD0D94D50C0C9494
:1005C0005BAF0D94C7150C9407B10D94BB170D9438
:1005D000670D0C94CD500D94721F0C94508B0C949D
:1005E0009AD70C945FCB0C94487C0C94D57C0C94DB
:1005F000B0FA0C94B3890C94FDF20C9468FB0C9443
:10060000B8A00D94AF150C94DDDE0C94E8490C9461
:10061000BD880D94640F0C941C6F0C9468F20C94BC
:10062000B5890C9425540C94127C0C9426D70C9408
:100630009B590C94959F0C948DF50C9423DE0C948F
:1006400049990D9466200D94F3080C94D6490C94A6
:10065000D4F00C94F5F40D94F3160C941A390C9410
:10066000F98E0C94F0490C94A3490C94D38D0D94FD
:10067000B20E0C94AAF70D94AB0D0C94F5490D94A1
:100680008B150D94DE470D94DB160C940A3D0C94EB
:10069000BD8C0D943F170C941BDF0C94C5A50C94D6
:1006A00000700C948E9E0C94243D0C946D540C940C
:1006B000E8540C9465700C9467540C94669D0C94EB
:1006C000995B0C94E6560D9431190D9450190C94C5
:1006D000AACB0D94B3050D9487150D9407180C94AF
:1006E000BA460C9450D70C9473920C94DDB30C94CE
:1006F000F0D70C944A8A0C9480FA0D94F6090D9464
:10070000D7070C94674C0C9465FD0C9495CB0C9416
:1007100007D70C9446CF0C94F9490C94BD490C941E
:100720005F2E0C94496B0C941D9E0C943D470C94C9
:10073000DA2D0D9457170C94EBD10C946E960C9403
:10074000FE530C9494540C94A9AE0C949EF80C9403
:100750005CCF0C94EF150D94431A0D94E3180C9490
:10076000EEAA0C9489900C94EB480D94F0440D94EF
:1007700083150C9430CF0C944FD20C948E6A0C9449
:10078000DF490C947D600C9480FD0C949EAB0D941D
:1007900095190C94E8D70C94133D0C9462590C9461
:1007A000BBD70C9448A00C9476D70C945DFD0C94A8
:1007B0002C8E0C9479980C94F0D10D94EB1A0C9427
:1007C000B4CB0C94FCDE0C9488F40C94EF4A0C949B
:1007D000A8FD0C94C9CB0D94071A0C9485DB0C94DE
:1007E00081880C944E520C948D490C948B6C0D9412
:1007F00089170C94829C0D9402190C94D5F00C94DA
:10080000BB690C943B3D0D94D5170C943DA20C9400
:1008100028DB0C943FDC0C942BCF0C949BA60C94FF
:10082000775A0C94F73C0D94A3170C949BA40C944A
:100830000C4E0C9492520C94E74E0C9415CC0C94E4
:100840009A540D94C1150D94D2450D9474180C94BE
:10085000CECB0D947D150D945D450D943E0E0C94FC
:1008600080CB0D9440190C9435CF0D9497150C94B2
:10087000F46B0C94D6FD0C94B6FD0D94D3150C942A
:10088000794A0C94B74A0C94BEDE0C94D5F60C94BD
:1008900094630C945F490C949FDE0D945F190C9443
:1008A00080DE0C94E99A0C9405720C940F2F0C9432
:1008B00042D70D9425170C949E9B0D94AD0B0C9470
:1008C0003C940C948EFB0C9401580C9446540C945C
:1008D0004A1F0C94A46B0C94CAFD0C944B680C94A6
:1008E0005BFD0C9459A30C94EAF95370656564752B
:1008F000696E6F00537065656475696E6F20323084
:1009000031392E30382D736572005370656564750A
:10091000696E6F2063737830323031392E380020A1
:10092000202020000A5061676520686173206E6F87
:1009300074206265656E20696D706C656D656E749E
:10094000656420796574000A506167652068617389
:10095000206E6F74206265656E20696D706C656DC8
:10096000656E74656420796574000A50616765205E
:10097000686173206E6F74206265656E20696D70AA
:100980006C656D656E746564207965740020000A7D
:100990005645204D6170000A5067203120436F6E2C
:1009A000666967000A49676E6974696F6E204D61F8
:1009B00070000A5067203220436F6E666967000A34
:1009C000414652204D6170000A5067203320436F2A
:1009D0006E666967000A5067203420436F6E66694F
:1009E00067000A426F6F7374204D6170000A56569B
:1009F00054204D6170000A506720313020436F6EE3
:100A0000666967000A326E64204675656C204D6128
:100A100070000A574D49204D6170000A5072676D91
:100A200020494F000A3D3D3D436F6D6D616E64206E
:100A300048656C703D3D3D0A0A416C6C20636F6DEA
:100A40006D616E6473206172652073696E676C6599
:100A50002063686172616374657220616E642061F5
:100A6000726520636F6E636174656E617465642086
:100A70007769746820746865697220706172616D4D
:100A80006574657273200A776974686F7574207372
:100A900070616365732E53796E7461783A20203CDF
:100AA000636F6D6D616E643E2B3C706172616D654C
:100AB000746572313E2B3C706172616D6574657254
:100AC000323E2B3C706172616D657465724E3E0AF8
:100AD0000A3D3D3D4C697374206F6620436F6D6D18
:100AE000616E64733D3D3D0A0A41202D20446973C7
:100AF000706C617973203331206279746573206F73
:100B0000662063757272656E7453746174757320B8
:100B100076616C75657320696E2062696E617279A9
:100B200020286C6976652064617461290A42202D51
:100B3000204275726E2063757272656E74206D61ED
:100B40007020616E6420636F6E66696750616765CF
:100B50002076616C75657320746F20656570726FA7
:100B60006D0A43202D205465737420434F4D20702F
:100B70006F72742E2020557365642062792054753D
:100B80006E657273747564696F20746F2073656528
:100B9000207768657468657220616E204543552032
:100BA0006973206F6E206120676976656E207365BA
:100BB0007269616C200A20202020706F72742E20D0
:100BC00052657475726E7320612062696E6172790C
:100BD000206E756D6265722E0A4E202D205072694E
:100BE0006E74206E6577206C696E652E0A50202D1C
:100BF000205365742063757272656E74207061672E
:100C0000652E202053796E7461783A2020502B3C59
:100C1000706167654E756D6265723E0A52202D20C7
:100C200053616D65206173204120636F6D6D616E4E
:100C3000640A53202D20446973706C6179207369B4
:100C4000676E6174757265206E756D6265720A51AA
:100C5000202D2053616D65206173205320636F6DDB
:100C60006D616E640A56202D20446973706C617941
:100C7000206D6170206F7220636F6E6669675061CE
:100C800067652076616C75657320696E2062696E98
:100C90006172790A57202D20536574206F6E65208C
:100CA0006279746520696E206D6170206F722063B7
:100CB0006F6E666967506167652E202045787065A4
:100CC0006374732062696E61727920706172616D04
:100CD00065746572732E200A2020202053796E746B
:100CE00061783A2020572B3C6F66667365743E2B03
:100CF0003C6E6577627974653E0A74202D205365D9
:100D0000742063616C6962726174696F6E207661D0
:100D10006C7565732E20204578706563747320624E
:100D2000696E61727920706172616D65746572734C
:100D30002E20205461626C6520696E64657820699C
:100D4000732065697468657220302C200A20202089
:100D500020312C206F7220322E202053796E746146
:100D6000783A2020742B3C74626C655F6964783E2D
:100D70002B3C6E657756616C7565313E2B3C6E651C
:100D80007756616C7565323E2B3C6E657756616CAB
:100D900075654E3E0A5A202D20446973706C617946
:100DA0002063616C6962726174696F6E2076616C38
:100DB0007565730A54202D20446973706C617973D2
:100DC0002032353620746F6F7468206C6F67206531
:100DD0006E747269657320696E2062696E617279E2
:100DE0000A72202D20446973706C6179732032354A
:100DF0003620746F6F7468206C6F6720656E747234
:100E00006965730A55202D205072657061726520E6
:100E1000666F72206669726D7761726520757064A5
:100E20006174652E20546865206E6578742062793F
:100E300074652072656365697665642077696C6C9A
:100E400020636175736520746865204172647569FB
:100E50006E6F20746F2072657365742E0A3F202DAB
:100E600020446973706C61797320746869732068B9
:100E7000656C702070616765002C20005755450037
:100E80004F3200496E6C65742074656D7000436F5D
:100E90006F6C616E7400526573657420636F6E745D
:100EA000726F6C2069732063757272656E746C79F1
:100EB0002064697361626C65642E00436F6D6D73AD
:100EC0002068616C7465642E204E657874206279A8
:100ED00074652077696C6C20726573657420746822
:100EE000652041726475696E6F2E0053706565648C
:100EF00075696E6F20323032302E30380073706575
:100F0000656475696E6F20323032303038003030B1
:100F100031000A5061676520686173206E6F74202C
:100F20006265656E20696D706C656D656E74656473
:100F3000207965740000000000963007772C610E60
:100F4000EEBA51099919C46D078FF46A7035A5631B
:100F5000E9A395649E3288DB0EA4B8DC791EE9D53E
:100F6000E088D9D2972B4CB609BD7CB17E072DB84D
:100F7000E7911DBF906410B71DF220B06A4871B9A7
:100F8000F3DE41BE847DD4DA1AEBE4DD6D51B5D4D5
:100F9000F4C785D38356986C13C0A86B647AF96242
:100FA000FDECC9658A4F5C0114D96C0663633D0F83
:100FB000FAF50D088DC8206E3B5E10694CE4416067
:100FC000D5727167A2D1E4033C47D4044BFD850D73
:100FD000D26BB50AA5FAA8B5356C98B242D6C9BB92
:100FE000DB40F9BCACE36CD832755CDF45CF0DD685
:100FF000DC593DD1ABAC30D9263A00DE518051D717
:10100000C81661D0BFB5F4B42123C4B3569995BABC
:10101000CF0FA5BDB89EB802280888055FB2D90CCD
:10102000C624E90BB1877C6F2F114C6858AB1D614A
:10103000C13D2D66B69041DC760671DB01BC20D245
:10104000982A10D5EF8985B1711FB5B606A5E4BF02
:101050009F33D4B8E8A2C9077834F9000F8EA809E5
:101060009618980EE1BB0D6A7F2D3D6D08976C6454
:1010700091015C63E6F4516B6B62616C1CD8306566
:10108000854E0062F2ED95066C7BA5011BC1F4084C
:101090008257C40FF5C6D9B06550E9B712EAB8BE99
:1010A0008B7C88B9FCDF1DDD62492DDA15F37CD31A
:1010B0008C654CD4FB5861B24DCE51B53A7400BC2E
:1010C000A3E230BBD441A5DF4AD795D83D6DC4D14A
:1010D000A4FBF4D6D36AE96943FCD96E3446886729
:1010E000ADD0B860DA732D0444E51D03335F4C0ABC
:1010F000AAC97C0DDD3C710550AA41022710100BD6
:10110000BE86200CC925B56857B3856F2009D46603
:10111000B99FE461CE0EF9DE5E98C9D9292298D034
:10112000B0B4A8D7C7173DB359810DB42E3B5CBDF1
:10113000B7AD6CBAC02083B8EDB6B3BF9A0CE2B6B7
:10114000039AD2B1743947D5EAAF77D29D1526DB21
:10115000048316DC73120B63E3843B64943E6A6D74
:101160000DA85A6A7A0BCF0EE49DFF099327AE00B3
:101170000AB19E077D44930FF0D2A3088768F2015D
:101180001EFEC206695D5762F7CB67658071366CDB
:1011900019E7066B6E761BD4FEE02BD3895A7ADAF8
:1011A00010CC4ADD676FDFB9F9F9EFBE8E43BEB7E9
:1011B00017D58EB060E8A3D6D67E93D1A1C4C2D88D
:1011C0003852F2DF4FF167BBD16757BCA6DD06B5D9
:1011D0003F4B36B248DA2B0DD84C1B0AAFF64A0308
:1011E00036607A0441C3EF60DF55DF67A8EF8E6E8B
:1011F0003179BE69468CB361CB1A8366BCA0D26FCD
:101200002536E2685295770CCC03470BBBB9160222
:10121000222F260555BE3BBAC5280BBDB2925AB443
:101220002B046AB35CA7FFD7C231CFD0B58B9ED950
:101230002C1DAEDE5BB0C2649B26F263EC9CA36AFD
:10124000750A936D02A906099C3F360EEB85670768
:101250007213570005824ABF95147AB8E2AE2BB1DB
:101260007B381BB60C9B8ED2920DBED5E5B7EFDC5A
:101270007C21DFDB0BD4D2D38642E2D4F1F8B3DD9C
:10128000686E83DA1FCD16BE815B26B9F6E177B0B2
:101290006F7747B718E65A0888706A0FFFCA3B068F
:1012A000665C0B0111FF9E658F69AE62F8D3FF6B20
:1012B0006145CF6C1678E20AA0EED20DD7548304B4
:1012C0004EC2B30339612667A7F71660D04D476950
:1012D00049DB776E3E4A6AD1AEDC5AD6D9660BDF5F
:1012E00040F03BD83753AEBCA9C59EBBDE7FCFB222
:1012F00047E9FFB5301CF2BDBD8AC2BACA3093B30C
:1013000053A6A3B4240536D0BA9306D7CD2957DE09
:1013100054BF67D9232E7A66B3B84A61C4021B68EA
:101320005D942B6F2A37BE0BB4A18E0CC31BDF0557
:101330005A8DEF022D0000000041311B19826236E8
:1013400032C3532D2B04C56C6445F4777D86A75AB0
:1013500056C796414F088AD9C849BBC2D18AE8EF1F
:10136000FACBD9F4E30C4FB5AC4D7EAEB58E2D83E0
:101370009ECF1C98875112C24A1023D953D370F4C0
:10138000789241EF6155D7AE2E14E6B537D7B598B0
:101390001C9684830559981B8218A9009BDBFA2DA3
:1013A000B09ACB36A95D5D77E61C6C6CFFDF3F41E0
:1013B000D49E0E5ACDA2248495E3159F8C2046B26C
:1013C000A76177A9BEA6E1E8F1E7D0F3E82483DEC0
:1013D000C365B2C5DAAAAE5D5DEB9F464428CC6B0F
:1013E0006F69FD7076AE6B3139EF5A2A202C0907F0
:1013F0000B6D381C12F33646DFB2075DC6715470B0
:10140000ED30656BF4F7F32ABBB6C231A275911CBF
:101410008934A00790FBBC9F17BA8D840E79DEA992
:101420002538EFB23CFF79F373BE48E86A7D1BC5EF
:10143000413C2ADE58054F79F0447E62E9872D4F02
:10144000C2C61C54DB018A159440BB0E8D83E82371
:10145000A6C2D938BF0DC5A0384CF4BB218FA796C2
:101460000ACE968D130900CC5C4831D7458B62FAC1
:101470006ECA53E177545DBBBA156CA0A3D63F8DFD
:1014800088970E96915098D7DE11A9CCC7D2FAE171
:10149000EC93CBFAF55CD762721DE6796BDEB5543E
:1014A000409F844F5958120E161923150FDA7038C1
:1014B000249B41233DA76BFD65E65AE67C2509CBBD
:1014C000576438D04EA3AE9101E29F8A1821CCA771
:1014D0003360FDBC2AAFE124ADEED03FB42D8312C2
:1014E0009F6CB20986AB2448C9EA1553D029467EC1
:1014F000FB687765E2F6793F2FB7482436741B09FD
:101500001D352A1204F2BC534BB38D485270DE6570
:101510007931EF7E60FEF3E6E7BFC2FDFE7C91D03D
:10152000D53DA0CBCCFA368A83BB07919A7854BCC0
:10153000B13965A7A84B98833B0AA99822C9FAB587
:101540000988CBAE104F5DEF5F0E6CF446CD3FD9EE
:101550006D8C0EC27443125AF3022341EAC1706CBF
:10156000C1804177D847D7369706E62D8EC5B5009E
:10157000A584841BBC1A8A41715BBB5A6898E877C2
:1015800043D9D96C5A1E4F2D155F7E360C9C2D1BEE
:1015900027DD1C003E120098B9533183A09062AE43
:1015A0008BD153B59216C5F4DD57F4EFC494A7C29E
:1015B000EFD596D9F6E9BC07AEA88D1CB76BDE3126
:1015C0009C2AEF2A85ED796BCAAC4870D36F1B5DFE
:1015D000F82E2A46E1E136DE66A007C57F6354E8AF
:1015E000542265F34DE5F3B202A4C2A91B679184AE
:1015F0003026A09F29B8AEC5E4F99FDEFD3ACCF3B2
:10160000D67BFDE8CFBC6BA980FD5AB2993E099FFD
:10161000B27F3884ABB0241C2CF115073532462A32
:101620001E73773107B4E17048F5D06B51368346AD
:101630007A77B25D634ED7FACB0FE6E1D2CCB5CC68
:10164000F98D84D7E04A1296AF0B238DB6C870A0EF
:101650009D8941BB84465D2303076C381AC43F153E
:1016600031850E0E2842984F6703A9547EC0FA793F
:101670005581CB624C1FC538815EF423989DA70E1F
:10168000B3DC9615AA1B0054E55A314FFC996262EF
:10169000D7D85379CE174FE149567EFA50952DD7BA
:1016A0007BD41CCC62138A8D2D52BB963491E8BB3F
:1016B0001FD0D9A006ECF37E5EADC265476E91489F
:1016C0006C2FA05375E836123AA90709236A5424EF
:1016D000082B653F11E479A796A548BC8F661B913E
:1016E000A4272A8ABDE0BCCBF2A18DD0EB62DEFD3F
:1016F000C023EFE6D9BDE1BC14FCD0A70D3F838A1F
:10170000267EB2913FB924D070F815CB693B46E6EE
:10171000427A77FD5BB56B65DCF45A7EC5370953B9
:10172000EE763848F7B1AE09B8F09F12A133CC3F3E
:101730008A72FD249300000000376AC2016ED484CF
:101740000359BE4602DCA80907EBC2CB06B27C8D6A
:101750000485164F05B851130E8F3BD10FD68597D0
:101760000DE1EF550C64F91A095393D8080A2D9E20
:101770000A3D475C0B70A3261C47C9E41D1E77A2D7
:101780001F291D601EAC0B2F1B9B61ED1AC2DFAB26
:1017900018F5B56919C8F23512FF98F713A626B1E6
:1017A00011914C7310145A3C152330FE147A8EB8E4
:1017B000164DE47A17E0464D38D72C8F398E92C9F2
:1017C0003BB9F80B3A3CEE443F0B84863E523AC09C
:1017D0003C6550023D58175E366F7D9C3736C3DA44
:1017E0003501A9183484BF5731B3D59530EA6BD38E
:1017F00032DD01113390E56B24A78FA925FE31EF6F
:1018000027C95B2D264C4D62237B27A0222299E617
:101810002015F3242128B4782A1FDEBA2B4660FC59
:1018200029710A3E28F41C712DC376B32C9AC8F591
:101830002EADA2372FC08D9A70F7E75871AE591EA2
:10184000739933DC721C2593772B4F517672F11705
:1018500074459BD57578DC897E4FB64B7F16080D95
:101860007D2162CF7CA4748079931E4278CAA00443
:101870007AFDCAC67BB02EBC6C87447E6DDEFA381A
:101880006FE990FA6E6C86B56B5BEC776A02523149
:10189000683538F369087FAF623F156D6366AB2B1F
:1018A0006151C1E960D4D7A665E3BD6464BA03227F
:1018B000668D69E06720CBD74817A115494E1F53A5
:1018C0004B7975914AFC63DE4FCB091C4E92B75A97
:1018D0004CA5DD984D989AC446AFF00647F64E40A9
:1018E00045C12482444432CD4173580F402AE64911
:1018F000421D8C8B435068F154670233553EBC75D2
:101900005709D6B7568CC0F853BBAA3A52E2147C9A
:1019100050D57EBE51E839E25ADF53205B86ED6632
:1019200059B187A4583491EB5D03FB295C5A456F8C
:101930005E6D2FAD5F801B35E1B771F7E0EECFB183
:10194000E2D9A573E35CB33CE66BD9FEE73267B836
:10195000E5050D7AE4384A26EF0F20E4EE569EA204
:10196000EC61F460EDE4E22FE8D388EDE98A36AB70
:10197000EBBD5C69EAF0B813FDC7D2D1FC9E6C9751
:10198000FEA90655FF2C101AFA1B7AD8FB42C49EFA
:10199000F975AE5CF848E900F37F83C2F2263D8416
:1019A000F0115746F1944109F4A32BCBF5FA958D2C
:1019B000F7CDFF4FF6605D78D95737BAD80E89FC5E
:1019C000DA39E33EDBBCF571DE8B9FB3DFD221F564
:1019D000DDE54B37DCD80C6BD7EF66A9D6B6D8EF70
:1019E000D481B22DD504A462D033CEA0D16A70E6E2
:1019F000D35D1A24D210FE5EC527949CC47E2ADAD9
:101A0000C6494018C7CC5657C2FB3C95C3A282D3E7
:101A1000C195E811C0A8AF4DCB9FC58FCAC67BC981
:101A2000C8F1110BC9740744CC436D86CD1AD3C0DD
:101A3000CF2DB902CE4096AF9177FC6D902E422B00
:101A4000921928E9939C3EA696AB546497F2EA2239
:101A500095C580E094F8C7BC9FCFAD7E9E961338A5
:101A60009CA179FA9D246FB598130577994ABB31EB
:101A70009B7DD1F39A3035898D075F4B8C5EE10DEC
:101A80008E698BCF8FEC9D808ADBF7428B82490475
:101A900089B523C68888649A83BF0E5882E6B01E33
:101AA00080D1DADC8154CC938463A651853A18172F
:101AB000870D72D586A0D0E2A997BA20A8CE046679
:101AC000AAF96EA4AB7C78EBAE4B1229AF12AC6FC7
:101AD000AD25C6ADAC1881F1A72FEB33A6765575B1
:101AE000A4413FB7A5C429F8A0F3433AA1AAFD7CBD
:101AF000A39D97BEA2D073C4B5E71906B4BEA74094
:101B0000B689CD82B70CDBCDB23BB10FB3620F49C2
:101B1000B155658BB06822D7BB5F4815BA06F6533E
:101B2000B8319C91B9B48ADEBC83E01CBDDA5E5A40
:101B3000BFED3498BE000000006567BCB88BC809D3
:101B4000AAEEAFB5125797628F32F0DE37DC5F6BCB
:101B500025B938D79DEF28B4C58A4F087D64E0BD0C
:101B60006F018701D7B8BFD64ADDD86AF23377DF75
:101B7000E0561063589F571950FA30A5E8149F108B
:101B8000FA71F8AC42C8C07BDFADA7C767430872E3
:101B900075266FCECD707FAD951518112DFBB7A4AE
:101BA0003F9ED0188727E8CF1A428F73A2AC20C679
:101BB000B0C9477A083EAF32A05BC88E18B5673B04
:101BC0000AD00087B26938502F0C5FEC97E2F059C9
:101BD000858797E53DD1878665B4E03ADD5A4F8F1A
:101BE000CF3F2833778610E4EAE37758520DD8EDDB
:101BF0004068BF51F8A1F82BF0C49F97482A3022C3
:101C00005A4F579EE2F66F497F9308F5C77DA7406C
:101C1000D518C0FC6D4ED09F352BB7238DC51896B7
:101C20009FA07F2A271947FDBA7C204102928FF49A
:101C300010F7E848A83D58149B583FA823B6901DBC
:101C400031D3F7A1896ACF76140FA8CAACE1077F18
:101C5000BE8460C306D270A05EB7171CE659B8A94F
:101C6000F43CDF154C85E7C2D1E0807E690E2FCBB6
:101C70007B6B4877C3A20F0DCBC768B17329C7042C
:101C8000614CA0B8D9F5986F4490FFD3FC7E5066A4
:101C9000EE1B37DA564D27B90E284005B6C6EFB011
:101CA000A4A3880C1C1AB0DB817FD767399178D246
:101CB0002BF41F6E9303F7263B66909A83883F2F81
:101CC00091ED589329546044B43107F80CDFA84DC6
:101CD0001EBACFF1A6ECDF92FE89B82E4667179B9D
:101CE00054027027ECBB48F071DE2F4CC93080F9EC
:101CF000DB55E745639CA03F6BF9C783D317683674
:101D0000C1720F8A79CB375DE4AE50E15C40FF547D
:101D10004E2598E8F673888BAE16EF3716F840829A
:101D2000049D273EBC241FE92141785599AFD7E097
:101D30008BCAB05C333BB659ED5ED1E555B07E50F1
:101D400047D519ECFF6C213B62094687DAE7E93297
:101D5000C8828E8E70D49EED28B1F951905F56E402
:101D6000823A31583A83098FA7E66E331F08C1863D
:101D70000D6DA63AB5A4E140BDC186FC052F2949E9
:101D8000174A4EF5AFF376223296119E8A78BE2B13
:101D9000981DD997204BC9F4782EAE48C0C001FDDC
:101DA000D2A566416A1C5E96F779392A4F97969FAD
:101DB0005DF2F123E505196B4D607ED7F58ED1629A
:101DC000E7EBB6DE5F528E09C237E9B57AD9460035
:101DD00068BC21BCD0EA31DF888F56633061F9D608
:101DE00022049E6A9ABDA6BD07D8C101BF366EB453
:101DF000AD530908159A4E721DFF29CEA511867B99
:101E0000B774E1C70FCDD91092A8BEAC2A461119FC
:101E1000382376A5807566C6D810017A60FEAECFED
:101E2000729BC973CA22F1A457479618EFA939AD1E
:101E3000FDCC5E114506EE4D766389F1CE8D2644CC
:101E4000DCE841F86451792FF9341E9341DAB12668
:101E500053BFD69AEBE9C6F9B38CA1450B620EF0DD
:101E60001907694CA1BE519B3CDB362784359992FA
:101E70009650FE2E2E99B95426FCDEE89E12715D16
:101E80008C7716E134CE2E36A9AB498A1145E63F50
:101E900003208183BB7691E0E313F65C5BFD59E997
:101EA00049983E55F12106826C44613ED4AACE8BFE
:101EB000C6CFA9377E38417FD65D26C36EB38976FB
:101EC0007CD6EECAC46FD61D590AB1A1E1E41E1436
:101ED000F38179A84BD769CB13B20E77AB5CA1C263
:101EE000B939C67E0180FEA99CE59915240B36A060
:101EF000366E511C8EA7166686C271DA3E2CDE6FD6
:101F00002C49B9D394F081040995E6B8B17B490D09
:101F1000A31E2EB11B483ED2432D596EFBC3F6DBE8
:101F2000E9A69167511FA9B0CC7ACE0C749461B91F
:101F300066F10605DE0A5061676520686173206EF0
:101F40006F74206265656E20696D706C656D656E7D
:101F50007465642079657400000020002300260069
:101F600029002C002F0032000001000003010601AF
:101F7000090100002100240027002A002D00300064
:101F8000330001010000040107010A0100002200E2
:101F9000250028002B002E00310034000201000033
:101FA000050108010B0105050505070508080808D6
:101FB000020202020A0A08080404040401010101E1
:101FC00001010101030303030303030304070707DC
:101FD0000C0C0C0C0C0C0C0C020202020606060681
:101FE000060606060B0B0B0B0B0B0B0B010210204E
:101FF000200808102040102040800201020108043F
:1020000002010102040810204080804020100804D2
:10201000020180040201804020100804020108042B
:10202000020101020408102040800102040810206F
:10203000408000000A0B02090C0D0E080703040182
:102040000000000000000000000000000000000090
:10205000000000000000000000000000000012115D
:102060001000000000000000000000000000000060
:102070000000000000000000A90211241FBECFEFE5
:10208000D1E2DEBFCDBF00E00CBF12E0A0E0B2E0C5
:10209000EEEBF2EA02E00BBF02C007900D92A43A09
:1020A000B107D9F724E1A4EAB2E001C01D92A6333A
:1020B000B207E1F710E1CDE3D0E100E006C02197DF
:1020C0000109802FFE010F943A51CC33D10780E0F3
:1020D0000807A9F70F94FC320D945D510C94000091
:1020E0008F929F92AF92BF92CF92DF92EF92FF9228
:1020F0000F931F93CF93DF93EDE0EE2EEEE0FE2ED5
:1021000000E010E0C3E2D1E0CE010F94E650F70109
:1021100061917F01861729F0CE010F94EE500F5F79
:102120001F4F2196C33AF1E0DF0799F00F311105F7
:102130005CF381E08093AF09DF91CF911F910F9104
:10214000FF90EF90DF90CF90BF90AF909F908F90D7
:1021500008950F3111056CF71092AF0981E090E0FE
:102160000F94E65060918D0E861709F453C081E0FC
:1021700090E00F94EE50C2E0D0E001E010E082E089
:1021800090E00F94E65060918E0E681729F082E07F
:1021900090E00F94EE508E0163E0E62EF12C2FC0FC
:1021A0003595279535952795359527953595279517
:1021B000319521953109215F3F4F220F331FE09167
:1021C0008F0EF091900EE20FF31FCF70DD2720816C
:1021D0003181C20FD31F6881861729F0C7010F9480
:1021E000EE500F5F1F4F8FEFE81AF80AE3E0EE168C
:1021F000E1E0FE06A1F00F3111050CF09ACFE701E6
:102200002397C7010F94E6509E01D7FFC9CF215FE6
:102210003F4FC6CFC1E0D0E000E010E0B0CF0F31BB
:1022200011050CF086CFE12CF12CC3E0D1E0C09079
:10223000910ED090920E74E6A72EB12CCE010F9481
:10224000E650282FF601EE0DFF1D80819181B5012A
:102250000F945C4F822F90E09B01332782179307E6
:10226000B1F0CE010F94EE500F5F1F4F2196C33196
:1022700081E0D807A9F0F2E0EF0EF11C0F31110553
:1022800009F457CFC090910ED090920ED7CF2196DF
:10229000C331E1E0DE0721F082E0E80EF11CCECF91
:1022A0000F31110509F445CFE12CF12C03E111E0C8
:1022B00015C0EB01D595C795C8010F94E650C81716
:1022C00021F06C2FC8010F94EE500F5F1F4FE2E01A
:1022D000EE0EF11C0332F1E01F0769F0E091930E5E
:1022E000F091940EEE0DFF1D6081718177FFE1CFBB
:1022F0006F5F7F4FDECF1092AF0983EA91E00F94BA
:10230000E6506091FB0D861709F451C083EA91E015
:102310000F94EE5012E000E0C1E0D0E084EA91E0DA
:102320000F94E6506091FC0D681731F084EA91E05B
:102330000F94EE50C12FD02F05EA11E030C09595D3
:102340008795959587959595879595958795919579
:10235000819591090F96880F991FE091FD0DF091DD
:10236000FE0DE80FF91F2F7033270190F081E02D4B
:10237000E20FF31FF080C8010F94E650F81629F021
:102380006F2DC8010F94EE5021960F5F1F4F053A35
:1023900082E0180789F0CF31D1050CF0CACE980140
:1023A000255A3140C90137FFCACF0F96C8CF11E077
:1023B00000E0C0E0D0E0B2CFCF31D1050CF0B9CE13
:1023C000E12CF12C05EA12E0A090FF0DB090000E78
:1023D00084E6882E912CF501EE0DFF1D8081918100
:1023E000B4010F945C4FD62EC8010F94E650D81656
:1023F000B9F06D2DC8010F94EE5021960F5F1F4F5D
:10240000053BF2E01F07B1F0E2E0EE0EF11CCF3128
:10241000D10509F48ECEA090FF0DB090000EDBCF59
:102420000F5F1F4F053B82E0180721F0F2E0EF0E2F
:10243000F11CD1CFCF31D10509F47BCEC12CD12CE9
:10244000F5EBEF2EF2E0FF2E1CC08B0115950795E2
:10245000C7010F94E650081729F0602FC7010F94A9
:10246000EE502196EFEFEE1AFE0AF5ECEF16F2E0D1
:10247000FF06A1F082E0C80ED11CCF31D10509F4CE
:1024800058CEE091010EF091020EEC0DFD1D608121
:10249000718177FFDACF6F5F7F4FD7CF6F9709F4E6
:1024A00048CE1092AF097BE7E72E7DE0F72EC5EC12
:1024B000D2E000E010E0CE010F94E650F701619108
:1024C0007F01861729F0CE010F94EE500F5F1F4F4A
:1024D0002196C534F3E0DF0721F00F3111055CF3DD
:1024E00028CE0F3111050CF024CE1092AF0985E4EF
:1024F00093E00F94E6506091690D861709F455C07A
:1025000085E493E00F94EE50C2E0D0E001E010E0EB
:1025100086E493E00F94E65060916A0D681729F005
:1025200086E493E00F94EE508E0157E4E52E53E0DD
:10253000F52E2FC0359527953595279535952795F7
:1025400035952795319521953109215F3F4F220F10
:10255000331FE0916B0DF0916C0DE20FF31FCF7004
:10256000DD2720813181C20FD31F6881861729F0B2
:10257000C7010F94EE500F5F1F4F8FEFE81AF80A54
:10258000E7E4EE16E4E0FE06A9F00F3111050CF0C9
:10259000D0CDE701C754D340C7010F94E6509E0148
:1025A000D7FFC8CF215F3F4FC5CFC1E0D0E000E0EB
:1025B00010E0AECF0F3111050CF0BBCDE12CF12CAA
:1025C000C7E4D4E0C0906D0DD0906E0D64E6A62EE9
:1025D000B12CCE010F94E650282FF601EE0DFF1D11
:1025E00080819181B5010F945C4F822F90E09B0117
:1025F000332782179307B1F0CE010F94EE500F5F8F
:102600001F4F2196C73584E0D807A9F0F2E0EF0EFE
:10261000F11C0F31110509F48CCDC0906D0DD090D7
:102620006E0DD7CF2196C735F4E0DF0721F0E2E049
:10263000EE0EF11CCECF0F31110509F47ACDE12C4D
:10264000F12C07E514E015C0EB01D595C795C8013D
:102650000F94E650C81721F06C2FC8010F94EE506C
:102660000F5F1F4FE2E0EE0EF11C0736F4E01F078C
:1026700069F0E0916F0DF091700DEE0DFF1D60811E
:10268000718177FFE1CF6F5F7F4FDECF1092AF098F
:1026900009EEE02E0CE0F02EC7E6D4E000E010E0FA
:1026A000CE010F94E650F70161917F01861729F062
:1026B000CE010F94EE500F5F1F4F2196C73EF4E0FE
:1026C000DF0721F00F3111055CF333CD0F31110518
:1026D0000CF02FCD1092AF0987E00E949ADA80911A
:1026E000AF09811129CD88E00E949ADA8091AF0963
:1026F000811122CD1BEAE12E1BE0F12ECEEAD6E0BD
:1027000000E010E0CE010F94E650F70161917F01E7
:10271000861729F0CE010F94EE500F5F1F4F2196C0
:10272000CE36F7E0DF0721F00F3111055CF301CD64
:102730000F3111050CF0FDCC1092AF09DBEEED2E40
:10274000DAE0FD2ECEE6D7E000E010E0CE010F94F7
:10275000E650F70161917F01861729F0CE010F94B1
:10276000EE500F5F1F4F2196CE32F8E0DF0721F0C9
:102770000F3111055CF3DDCC0F3111050CF0D9CC14
:102780001092AF09C091D90A8EE298E00F94E650FA
:10279000C81729F06C2F8EE298E00F94EE50C0918C
:1027A000DA0A8FE298E00F94E650C81729F06C2FF0
:1027B0008FE298E00F94EE50C0E3EC2EC8E0FC2EC0
:1027C00002E010E02FC03595279535952795359572
:1027D000279535952795319521953109215F3F4FF3
:1027E000220F331FE091DB0AF091DC0AE20FF31FA6
:1027F000CF70DD2720813181C20FD31F68818617FA
:1028000029F0C7010F94EE500F5F1F4F8FEFE81AAA
:10281000F80AE0E3EE16E9E0FE0681F00F3111055B
:102820000CF087CCE701C053D840C7010F94E650A5
:102830009E01D7FFC8CF215F3F4FC5CF0F31110594
:102840000CF077CCE12CF12CC0E3D9E0C090DD0A8C
:10285000D090DE0AB4E6AB2EB12CCE010F94E65038
:10286000282FF601EE0DFF1D80819181B5010F9497
:102870005C4F822F90E09B01332782179307B1F0C2
:10288000CE010F94EE500F5F1F4F2196C13489E0A7
:10289000D807A9F0F2E0EF0EF11C0F31110509F491
:1028A00048CCC090DD0AD090DE0AD7CF2196C13443
:1028B000E9E0DE0721F082E0E80EF11CCECF0F3117
:1028C000110509F436CCE12CF12C01E419E015C016
:1028D000EB01D595C795C8010F94E650C81721F0B4
:1028E0006C2FC8010F94EE500F5F1F4FE2E0EE0E09
:1028F000F11C0135F9E01F0769F0E091DF0AF09162
:10290000E00AEE0DFF1D6081718177FFE1CF6F5FFF
:102910007F4FDECF1092AF0981E599E00F94E6502A
:102920006091C70A861709F453C081E599E00F94B6
:10293000EE50C2E0D0E001E010E082E599E00F94B3
:10294000E6506091C80A681729F082E599E00F9473
:10295000EE508E0163E5E62E69E0F62E2DC035952A
:1029600027953595279535952795319521953109E9
:10297000295F3F4F220F331FE091C90AF091CA0A25
:10298000E20FF31FC770DD2720813181C20FD31FF3
:102990006881861729F0C7010F94EE500F5F1F4F13
:1029A0008FEFE81AF80AE3E9EE16E9E0FE06A9F06F
:1029B0000F3111050CF0BDCBE701C355D940C7015C
:1029C0000F94E6509E01D7FFCACF295F3F4FC7CF74
:1029D000C1E0D0E000E010E0B0CF0F3111050CF005
:1029E000A8CBE12CF12CC3E9D9E0C090CB0AD09060
:1029F000CC0A74E6A72EB12CCE010F94E650282FF6
:102A0000F601EE0DFF1D80819181B5010F945C4FA1
:102A1000822F90E09B01332782179307B1F0CE01FC
:102A20000F94EE500F5F1F4F2196CB3989E0D807E6
:102A3000A9F0F2E0EF0EF11C0F31110509F479CB8A
:102A4000C090CB0AD090CC0AD7CF2196CB3989E061
:102A5000D80721F0F2E0EF0EF11CCECF0F311105B7
:102A600009F467CBE12CF12CCBE9D9E019C07595BD
:102A7000679590E09B0133278217930729F0CE01D9
:102A80000F94EE500F5F1F4F2196C33AF9E0DF0716
:102A9000B9F0E2E0EE0EF11C0F31110509F449CB5B
:102AA000CE010F94E650E091CD0AF091CE0AEE0DE2
:102AB000FF1D6081718177FFDACF6F5F7F4FD7CFC6
:102AC0000F31110509F435CB1092AF0987E4E82ED8
:102AD0008AE0F82EC4EAD9E000E010E0CE010F94BD
:102AE000E650F70161917F01861729F0CE010F941E
:102AF000EE500F5F1F4F2196C432FAE0DF0721F03E
:102B00000F3111055CF315CB0F3111050CF011CB12
:102B10001092AF0911CB2F923F924F925F926F921A
:102B20007F928F929F92AF92BF92CF92DF92EF925D
:102B3000FF920F931F93CF93DF93CDB7DEB7C054AF
:102B4000D1090FB6F894DEBF0FBECDBF8091FA0455
:102B50009091FB0401969093FB048093FA0480917A
:102B6000DC0980932F098091FD0E8111C9C38091EA
:102B700094098111F4C3809195098111DBC380917F
:102B8000DC0983FF57C18091A9132091AA1390E01B
:102B9000805C9F4F821B91098F739927892B11F4B9
:102BA0000C94B6250E948E458091AB0B80FF17C018
:102BB0008091FA049091FB048F719927019709F491
:102BC00048C1809155102091561090E0805C9F4F35
:102BD000821B91098F73992781970CF03AC10F944A
:102BE0009B166093FC047093FD048093FE04909305
:102BF000FF0400913E0A10913F0A2091400A309153
:102C0000410A6B017C01C01AD10AE20AF30A009161
:102C10001C0210911D0220911E0230911F02C0164D
:102C2000D106E206F30670F000913E0A10913F0AC9
:102C30002091400A3091410A60177107820793077B
:102C400008F02BC1E091EA0EF091EB0E1995AC0162
:102C500060E070E040937B0F50937C0F60937D0F9A
:102C600070937E0F9093790F8093780F9C01369527
:102C7000279536952795ABE7B4E10F940F519695BC
:102C8000879580937A0F9091B204E091B004F0910F
:102C9000B1048081892B808381E080931E10809114
:102CA000310E8370813009F4C3C1813010F40C946B
:102CB0008325823011F40C94E724833009F064C337
:102CC0008091780F9091790F892B11F40C94092839
:102CD0008091770F882311F40C9409288091E40FD8
:102CE0009091E50FA091E60FB091E70F0297A10533
:102CF000B10510F40C9409288091F5089091F6081C
:102D00004091AA045091AB046091AC047091AD0461
:102D1000A0E0B0E084179507A607B70711F40C945C
:102D200057408091A4049091A504A091A604B0916D
:102D3000A704892B8A2B8B2B11F40C94902880915B
:102D4000A8049091A904892B11F40C9490288091E7
:102D5000F5089091F608A0E0B0E0481759076A0717
:102D60007B0710F00C9490288091830F80932805A6
:102D70008091240590912505A0912605B091270505
:102D80008093200590932105A0932205B0932305FD
:102D90000F949B1660932405709325058093260558
:102DA000909327052091A8043091A90440E050E0B9
:102DB0006091A4047091A5048091A6049091A70449
:102DC0000F94704F29A33AA34BA35CA36DA37EA3DA
:102DD0008FA398A7A9A1BAA1B093800FA0937F0F4A
:102DE00040913B0E20913C0E30913D0E241B310949
:102DF00047FD33950F944A518B019C01EAE03695CB
:102E0000279517950795EA95D1F7842F440F990BCD
:102E1000AA0BBB0B800F911FA21FB31F8093830FC0
:102E20009093840FA093850FB093860F0E947A73BE
:102E30000C94F7288091A9132091AA1390E0805C4C
:102E40009F4F821B91098F73992781970CF09BCE1E
:102E5000ABCE809155102091561090E0805C9F4F32
:102E6000821B91098F739927892B09F4B8CE809121
:102E7000B402882311F40C942A3F8091B30290E0AD
:102E8000FC01E154F109E333F10508F0A8CE8827ED
:102E9000EE58FF4F8F4F0D943A511092790F1092C8
:102EA000780F1092C80F1092C70F1092920F1092C5
:102EB000940F10923E0A10923F0A1092400A10920C
:102EC000410A1092750910927609109277091092B2
:102ED00078091092770F809112108F7E80931210D4
:102EE0001092D70F1092E40F1092E50F1092E60F98
:102EF0001092E70F1092E20E1092DD0E1092DC0E8F
:102F00001092AA041092AB041092AC041092AD047B
:102F10001092A9041092A8041092910F1092900F91
:102F200010922A05109229051092F6081092F508C1
:102F30001092E7021092E6028091A208882361F0C5
:102F40008091B204E091B004F091B1049081809539
:102F50008923808310921E100E942E6E8091C60FCE
:102F6000807E8093C60F80912210811106C08091CF
:102F70002310882311F40C94E93380918304E091A9
:102F80008404F091850490818095892380838091C9
:102F90008004E0918104F0918204908180958923DE
:102FA000808380916F008B7F80936F0010928013DD
:102FB000109281131092821310928313E0916E137A
:102FC000F0916F1380819181A281B38180938413EA
:102FD00090938513A0938613B093871310927C135C
:102FE00010927D1310927E1310927F131092ED0FAA
:102FF0001092EC0F80916F008D7F80936F00809115
:103000008604E0918704F09188049081809589235B
:1030100080838091BA0D80FF42CE60E08091E80805
:103020000F9409168091310E8370813009F03DCEE6
:103030008091780F9091790F892B11F40C94522183
:103040008091770F882311F40C9452218091E40F22
:103050009091E50FA091E60FB091E70F0297A105BF
:10306000B10510F40C9452214091E40F5091E50FFA
:103070006091E60F7091E70F8091AA049091AB04E4
:10308000A091AC04B091AD04481759076A077B07BB
:1030900011F40C9459374091E40F5091E50F609171
:1030A000E60F7091E70F0196A11DB11D84179507DA
:1030B000A607B70711F40C9459378091A404909196
:1030C000A504A091A604B091A704892B8A2B8B2B71
:1030D00041F08091A8049091A904892B11F00C94DF
:1030E000963F8091830F80932805809124059091CD
:1030F0002505A0912605B091270580932005909382
:103100002105A0932205B09323050F949B1660938D
:1031100024057093250580932605909327058091BB
:103120001F050F947C1680911F050F947C169C013F
:10313000235031092B3F334010F00C94E3381092A8
:103140001E052091A308222311F40C94B03DE091B8
:10315000C00DF0E0A0E0B1E0AE1BBF0B00917F0F0F
:103160001091800F9C010F944A516B017C019F01CB
:10317000D8010F944A51AB01BC014C0D5D1D6E1D71
:103180007F1D452F562F672F772767FD7A95CA0138
:103190005093800F40937F0F40913B0E20913C0E47
:1031A00030913D0E241B310947FD3395DC010F940E
:1031B0004A518B019C01EAE03695279517950795B2
:1031C000EA95D1F7842F440F990BAA0BBB0B800F04
:1031D000911FA21FB31FB7FF02C00C94493F8093F9
:1031E000830F9093840FA093850FB093860F8091E7
:1031F000E40F9091E50FA091E60FB091E70F809357
:10320000AA049093AB04A093AC04B093AD041092C5
:10321000A4041092A5041092A6041092A704109280
:10322000E2021092E3021092E4021092E502109280
:10323000A9041092A80480912F0983FF2CC18091CA
:10324000DC09877F8093DC0981E00E947072109115
:10325000E1021093E0028091190D87FD02C00C94E9
:10326000FD278091ED080F94D91521E0892B11F4E9
:103270000C9406282093E102121741F08091780FF8
:103280009091790F9093E20F8093E10F8091190D47
:1032900086FD02C00C94A627222311F40C94DF357E
:1032A0008091280DF4E68F9FC00111242091E10F39
:1032B0003091E20F2817390710F00C9484282091E0
:1032C0001C0D44E6249F900111244091780F5091E9
:1032D000790F2417350710F00C94842830918C0F47
:1032E00020910B0B321710F40C94842881E080930A
:1032F000DE0F8091C40F81608093C40F0C94C427AB
:103300002091AB133091AC13231710F00C94E527E8
:10331000832F90E0821B9109019781970CF427CCB1
:103320006091FE0E70E08091FF0E40E390E00F94FC
:103330002D141DCC2091AB133091AC13231710F03A
:103340000C94F527832F90E0821B910901978197B8
:103350000CF415CC8091FF0E0E94BCBF10CC2091C4
:10336000AB133091AC13231710F00C94ED27832F7F
:1033700090E0821B9109019781970CF4FCCB80911E
:10338000FF0E0E94E5C0F7CB8091830F8093280544
:103390008091240590912505A0912605B0912705DF
:1033A0008093200590932105A0932205B0932305D7
:1033B0000F949B1660932405709325058093260532
:1033C0009093270580911F050F947C1680911F050F
:1033D0000F947C16DC0103978B3F934008F090C755
:1033E00010921E058091A308882309F492C740918A
:1033F000C00D50E080E091E0841B950BE0917F0FC1
:10340000F091800F9D01DC010F944A516B017C010A
:103410009A01DF010F944A51DC01CB018C0D9D1DF7
:10342000AE1DBF1D492F5A2F6B2F772767FD7A9549
:10343000DA015093800F40937F0F40913B0E209113
:103440003C0E30913D0E241B310947FD33950F94FE
:103450004A518B019C015AE036952795179507959F
:103460005A95D1F7842F440F990BAA0BBB0B800FF1
:10347000911FA21FB31F8093830F9093840FA0937B
:10348000850FB093860FB7FF02C00C945231809124
:103490002F0983FDD4CE80912F0982FF02C00C94A6
:1034A000F52380912F0984FF02C00C94882380911A
:1034B0002F0981FD47C780912F0980FF25C080918A
:1034C000DC098E7F8093DC098091F60C86FF02C0B8
:1034D0000C9473318091800B80FF16C06091870B34
:1034E00060FF12C080913410882311F40C94DB2704
:1034F0008091EB080F94D91561E0892B09F060E009
:103500008091EB080F94091680915D0D87708450AF
:10351000823010F40C945C338091320E877041F04D
:10352000813011F40C94B633823011F40C941D34B4
:103530006091830F7091840F70931910609318102D
:103540004091780F5091790F8DE89EE00E9463E3DF
:103550008093930F8093920F809112108B7F8093B2
:1035600012109091650B892F8695869586958770A8
:1035700091F0892F8873883011F40C94ED338031E9
:1035800011F40C94E634883111F40C945C318032DF
:1035900011F40C94A5389090770F9DA6992009F40A
:1035A000BDC62091780F3091790F2115310509F4AE
:1035B000B5C64091E40F5091E50F6091E60F709110
:1035C000E70F8091860D90E0A0E0B0E04817590722
:1035D0006A077B0728F081E08093E7028093E60288
:1035E00080911010909111108217930710F00C9495
:1035F000BF248091C60F81FD02C00C94E0278D7F0F
:1036000081608093C60F8091BA0D80FF04C08091C5
:10361000E8080F9413240E94E4B69093AB0F8093B4
:10362000AA0F8091270E807711F40C94F930803125
:1036300011F40C948B388091320E8770823011F423
:103640000C94392860911C1070911D104091780FD6
:103650005091790F8BEF9DE00E9463E38852082F11
:10366000880F110B2091330E21FF0EC06091BD0F0A
:1036700070E08AE697E00E94D6E688978093B60FBE
:10368000080F111D87FD1A95F02E2091800B20FF49
:1036900046C027FF44C080913410811140C09091F2
:1036A0008C0F8091810B9817D0F18091820B90E064
:1036B0002091780F3091790F2817390780F1809188
:1036C000830F9091840FA091850FB091860FB7FF63
:1036D00002C00C94E83CB595A795979587954091C5
:1036E000830B50E060E070E084179507A607B707EA
:1036F000B4F060919B0F70919C0FAB01485D5F4FE0
:103700002091850B30E0421753076CF0BC018AE032
:1037100097E00E94D6E698ED900FF92EF80E609192
:103720009B0F70919C0F8AEC97E00E94D6E62F2D9C
:10373000FF0C330B5901A81AB10887FDB39428ED8B
:10374000A2162FEFB20614F40C949B2A11EF1A0D57
:103750006091970F7091980F685D7F4F8AEB97E0AB
:103760000E94D6E6180F8091690E982F937011F47D
:103770000C94952A2091D70F30E0869586958695F2
:1037800090E02817390714F40C94952A6091970F4C
:103790007091980F685D7F4F8AEA97E00E94D6E6A5
:1037A000E82F8093B90F4091780F5091790F9A01CB
:1037B000ADECBCEC0F940F51969587959695879537
:1037C0009695879562E370E0681B790B6E0F711D0B
:1037D0006536710514F40C943A3464E670E0809117
:1037E000690E82FF02C00C94D13380916A0E34E6D8
:1037F000839FC00111244817590710F40C947E2AA6
:103800008091C40F877F8093C40F80918E0DB4E6A2
:103810008B9FC00111248417950768F48091C40F11
:1038200088608093C40F8091100E83FF02C00C94B7
:10383000BF3310918F0D8091360B837071F08091A2
:103840001510982F9D7F913019F49091400B191B02
:103850008250823010F40C9418348091190D86FD3A
:1038600002C00C94BE2F8091E102882311F40C94C5
:1038700067338091E10F9091E20F6091280DE4E6AB
:103880006E9F900111248217930758F4E0911A0D4E
:1038900074E6E79FF0011124E417F50710F40C9487
:1038A000A9391092DD0F2091C40F2D7F2093C40FF2
:1038B0002091250D23FF10C0A4E66A9F90011124DA
:1038C0002817390748F42091260D821B9109841787
:1038D000950710F40C94493A8091C50F8D7F809321
:1038E000C50F8091470B837011F00C94BC2990E0B8
:1038F0008091320E83FF02C00C94DA2A191B80914A
:10390000C60FB82FB270B9A781FD10917E0D10932C
:10391000A90FE091AA0FF091AB0F8090830F9090C8
:10392000840FA090850FB090860F2091920F009188
:103930001A0510911B05E11532E0F30710F40C9401
:10394000D62AE11544E0F40710F40C945645A5E09E
:10395000EA2E50E2259F90011124ABE7B4E10F94C9
:103960000F516C01D694C794F090100E8F2D807C6F
:10397000803811F40C94BB31803411F40C940A3467
:1039800024E6822E912C8091270E682F6470362EAB
:1039900082FD02C00C949E2AA090E90CAFA68A2D4D
:1039A0008C70883011F40C94233783E9A82EB12C45
:1039B0008091530E8078282E9F010E2C02C0220F7A
:1039C000331F0A94E2F73695279536952795ABE78E
:1039D000B4E10F940F51FC01F695E7952801012EF3
:1039E000000C660877089601D8010F944A519B0194
:1039F000AC01B7E05695479537952795BA95D1F71D
:103A00008F2D829586958695837011F40C9453457D
:103A1000D4010F94FC509B01AC0177E0569547957B
:103A2000379527957A95D1F7332011F40C94CC3340
:103A30008090E90C8FA6882D8C70883011F40C943E
:103A40005037DF010F94FC50DC01CB0104C0B69568
:103A5000A79597958795EA94D2F70097A105B105A8
:103A600011F40C9403310091180510911905012EE1
:103A7000000C220B330B48015901880E991EAA1E17
:103A8000BB1EF5FE14C0A091AC0FB091AD0FA456B3
:103A9000B109A30192010F94FC5024E630E040E00C
:103AA00050E00F94A34F820E931EA41EB51ED501A5
:103AB000C4018114910421E0A206B10420F08FEF2B
:103AC0009FEFA0E0B0E08C011093C80F0093C70FE8
:103AD000F09015108F2D8D7F813009F044C09091AA
:103AE0003C0B2091780F3091790F44E6949F201978
:103AF0003109112454E6E52EE29EA001E39E500D0B
:103B0000112420913D0B30E0291B3109E29EB001C8
:103B1000E39E700D1124CA010F948F4FD0903F0B7C
:103B2000A0913E0BB0E0AD19B10924E630E0261BB0
:103B3000370B30E00F944A5124E630E040E050E08B
:103B40000F94A34FBA01A9014D0D511D611D711DA7
:103B5000E49EC001E59E900D1124080F191F1093DB
:103B6000C80F0093C70F8EEF8F0D823010F40C94A6
:103B700013338091E50E882311F40C94042A80916C
:103B8000050590910605039710F40C94042A2090E3
:103B9000780F3090790F60ED261667E0360610F04A
:103BA0000C94042A8091E30E9091E40E8091800D94
:103BB000887F803211F40C94393781110C94DC34F5
:103BC0008091E30E9091E40E019711F40C94F83E6D
:103BD0008091E30E9091E40EA091380AB091390AD9
:103BE000E091380AF091390A029711F40C94523A94
:103BF00020E432E44FE050E00F9407516FA778AB18
:103C000089AB9AABA0910505B0910605AA0FBB1F21
:103C1000AA0FBB1FAF59BE4ECD90DD90ED90FC902A
:103C2000A0910505B0910605AA0FBB1FAA0FBB1FE7
:103C3000A35ABE4E8D909D90AD90BC90A09105056D
:103C4000B0910605AA0FBB1FAA0FBB1FAF59BE4EEE
:103C50004D905D906D907C90DF0120E432E44FE068
:103C600050E00F940751A70196010F94A34F6901EB
:103C70007A016FA578A989A99AA9A50194010F9441
:103C8000A34FD701C601821B930BA40BB50BBC013C
:103C9000CD013AE0660F771F881F991F3A95D1F73B
:103CA00073016201CC0CDD1CEE1CFF1CC40CD51C86
:103CB000E61CF71CA7019601220F331F441F551F56
:103CC0000F94A34F220D331D40E050E060EA70EBEB
:103CD00088E290E00F94704F29833A834B835C8392
:103CE0006D837E838F83988789819A8190936213F5
:103CF00080936113809161139091621392958295E4
:103D00008F7089279F7089279093ED098093EC0924
:103D10006091EC097091ED0980E098E00F948F4F6D
:103D20007093C9026093C8022091611330916213AD
:103D300040E050E060E070E088E090E00F94704F69
:103D40002093190930931A0940931B0950931C09B9
:103D5000A091350E2091430A3091440A4091450AC2
:103D60005091460AB0E00F94FC5024E630E040E069
:103D700050E00F94A34FCA01B901E090310EE2FC6C
:103D800004C0660F771F881F991F2091161030E01E
:103D900040E050E00F94A34F49015A0129A5F0904B
:103DA000F30A21110C94452FF2FE02C00C94492F06
:103DB000C801A0E0B0E088169906AA06BB0628F460
:103DC00084019092C80F8092C70F1093CA0F00937E
:103DD000C90F1093CC0F0093CB0F1093CE0F00930D
:103DE000CD0F1093D00F0093CF0F1093D20F0093ED
:103DF000D10F1093D40F0093D30F1093D60F0093CD
:103E0000D50F91013695279536952795ABE7B4E107
:103E10000F940F51BC01769567958AEF97E00E9449
:103E2000D6E67C0190932B1080932A106091EC09C8
:103E30007091ED098091C70F9091C80F0F945C4F5E
:103E4000AB01BC019A01C090EB04D090EC04CE0C05
:103E5000DF1C0091020210910302C416D50610F473
:103E6000C00ED11EC41AD50A0C151D0528F4C01A9F
:103E7000D10A0C151D05D8F38091310EE82FE2957B
:103E8000EF708E2F90E0FC013197E830F10510F4CF
:103E90000C948F2D612C712C812C912C212C312C88
:103EA0008091C60F81FD02C00C94832DA090880DD7
:103EB00064E6A69E50011124B092A60FA092A50F11
:103EC0006091A80F70E08AE198E00E94D6E68093A6
:103ED000A70F843699F08C011127B501BB0C880B14
:103EE000990B24E630E040E050E00F94704F029FC1
:103EF0005001039FB00C129FB00C11248091820DD1
:103F0000082F10E0A50194E6899F400D511D112452
:103F10002091870D2C71422EA4E08091310E582EF5
:103F200052948FE058222A1711F40C94F029B0E132
:103F30002B1711F40C94F029E1E06091430A709181
:103F4000440A8091450A9091460A9A0140E050E067
:103F5000621773078407950778F42E2FEE0F330B43
:103F6000440B550B0F94A34F6CE960035001619F04
:103F7000B00C1124A20EB31EB092A60FA092A50FF2
:103F80002091190930911A0940911B0950911C097F
:103F90000091040210910502E091A90F0E2E000C71
:103FA000FF0B7801EE1AFF0A0E151F0524F4EE240C
:103FB000FF24EE1AFF0AF092F604E092F504D50110
:103FC0000F9407519B01AC01AFE05695479537958B
:103FD0002795AA95D1F729A73AA74BA75CA7E21A7C
:103FE000F30AF7FE02C00C940F33F092D902E0926C
:103FF000D80234E0531611F40C940436351510F041
:104000000C94073166E0561611F40C940F315616D5
:1040100010F40C94893678E0571251C08091E7046F
:104020009091E8048E1B9F0B0817190714F40C9449
:104030006E399093F4048093F30449A55AA5841B28
:10404000950B97FF02C00C94AE409093D7028093DB
:10405000D6028091E1049091E2048E1B9F0B081719
:10406000190714F40C94DB389093F2048093F10454
:1040700069A57AA5861B970B97FF02C00C940E3F8B
:104080009093D5028093D4028091DF049091E00454
:104090008E1B9F0B0817190714F40C94DF389093AC
:1040A000F0048093EF04A9A5BAA58A1B9B0B97FF88
:1040B00002C0800F911F9093D3028093D20280910F
:1040C000330E86FF02C00C944B31E091E80EF09164
:1040D000E90E19958C0180910202909103028017DC
:1040E00091072CF4081B190B80179107DCF3F09152
:1040F0003210EF2FEE7FE09332102091780F309145
:10410000790F8091910DB4E68B9FC0011124821725
:10411000930710F40C94D9309091C40F9B7F909327
:10412000C40F8091EF0C87FF21C08091210D90E09A
:10413000AC01440F551FBA01550F880B990B6FA79F
:1041400078AB89AB9AAB8091830F9091840FA0914B
:10415000850FB091860F4FA558A969A97AA948176C
:1041600059076A077B0714F40C94AA3D8091C40F89
:104170008F7E8093C40F8091C30F8F7D8093C30F78
:104180008F2F8A7F809332108091720B86708630D9
:1041900011F40C94B6428091DE0F811106C080911B
:1041A000E30F882311F40C94DE2A8091F30D909193
:1041B0007A0F891710F00C94F3308091270E83FF4B
:1041C00002C00C940638E091E90CEFA74FA5429588
:1041D000469546954370413011F40C94EF4010F42D
:1041E0000C94DE3B423011F40C94E8401092E7024C
:1041F0001092E6021DA68091870D87FD02C00C94E7
:10420000E92B8091C60F81FD02C00C94E92B8091AF
:10421000A10E882311F40C94E92B8091A50F9091A5
:10422000A60F9C01220F331F820F931F9093080546
:10423000809307058091780F9091790F8A3F9105BF
:1042400010F40C94CB398DA481100C94F22B809136
:10425000121080FD0DC08091E208813049F48091F8
:10426000EF080F9413248091121081608093121034
:10427000C05CDF4F0FB6F894DEBF0FBECDBFDF913D
:10428000CF911F910F91FF90EF90DF90CF90BF9053
:10429000AF909F908F907F906F905F904F903F90E6
:1042A0002F9008958091830F809328058091240595
:1042B00090912505A0912605B091270580932005B2
:1042C00090932105A0932205B09323050F949B168C
:1042D0006093240570932505809326059093270508
:1042E00080911F050F947C1680911F050F947C16FA
:1042F000DC019C01235031092B3F334008F470C886
:1043000080911E058F5F80931E058091A308811107
:104310006EC8B093800FA0937F0F8FC8809112104A
:1043200080FFA6CF8091E208813009F0A1CF60E044
:104330008091EF080F940916809112108E7F809360
:10434000121096CF8091DC098D7F8093DC098091DB
:10435000AF040F947C168091AF040F947C164091AB
:10436000BC0D50E000E011E0D801A41BB50BE091BA
:10437000990FF0919A0F9C010F944A516B017C01A7
:104380009A01DF010F944A51DC01CB018C0D9D1D78
:10439000AE1DBF1D692F7A2F8B2F992787FD9A9508
:1043A00070939A0F6093990F8AEF96E00E94D6E679
:1043B00088979093980F8093970F809198040F940B
:1043C0007C16809198040F947C164091BD0D50E0AE
:1043D000D801A41BB50BE0919D0FF0919E0F9C019D
:1043E0000F944A516B017C019A01DF010F944A51ED
:1043F000DC01CB018C0D9D1DAE1DBF1D692F7A2FD9
:104400008B2F992787FD9A9570939E0F60939D0F30
:104410008AE696E00E94D6E6889790939C0F809358
:104420009B0F8091E90C86958695837009F4BCC535
:10443000809196040F947C16809196040F947C16BC
:104440004091BE0D50E0D801A41BB50BE091A10F27
:10445000F091A20F9C010F944A516B017C019A01CB
:10446000DF010F944A51DC01CB018C0D9D1DAE1D67
:10447000BF1D692F7A2F8B2F992787FD9A957093EF
:10448000A20F6093A10F8AED95E00E94D6E680937B
:10449000950F8091E9080F947C168091E9080F949C
:1044A0007C164091BE0D50E0A0E0B1E0A41BB50B1E
:1044B000E091A30FF091A40F9C010F944A516B015E
:1044C0007C019A01DF010F944A51DC01CB018C0D74
:1044D0009D1DAE1DBF1D692F7A2F8B2F992787FD3C
:1044E0009A957093A40F6093A30F8AED95E00E94B4
:1044F000D6E68093960F809195040F947C16809158
:1045000095040F947C1625EF30E0DC010F944A519E
:10451000DC01CB01FAE0B695A79597958795FA95BA
:10452000D1F72091D60D022E000C330B7901E80E45
:10453000F91E1091A80FF7FE02C00C943D351733F9
:1045400010F00C946D3157E4E516F10414F40C945A
:104550006D318091780F9091790F892B11F00C9427
:104560006D318091D80F80930D051092A208909123
:10457000B204E091B004F091B1048081892B808372
:1045800080915D0D87708450823010F40C941B4133
:104590009701FF0C440B550B1091A80FE091BF0D34
:1045A000F0E0A0E0B1E0AE1BBF0B0F9407516B0130
:1045B0007C01212F30E0DF010F940F51DC01CB0192
:1045C0008C0D9D1DAE1DBF1D9093A80F2091360B25
:1045D000822F837011F40C944235E0917804F091AD
:1045E0007904908180917704892390913B0B96FF09
:1045F00002C00C94E433882309F423C68091370B5E
:1046000090E087974091970F5091980F481759075E
:104610000CF417C690918C0F8091390B891708F014
:1046200010C69091950F80913A0B981708F009C623
:104630008091380B90E0A0E0B0E04091830F509162
:10464000840F6091850F7091860F481759076A078C
:104650007B070CF0F6C5A0913C0BE0913D0B6091FF
:10466000420B84E6689FB00111248091430B1092A5
:1046700015104091780F5091790F94E6A99FD001C1
:104680001124A417B50708F0CEC5A4E6EA9FF001EF
:1046900011244E175F0708F0C6C591E090931510DE
:1046A0009091121092609093121020917D04E091ED
:1046B0007E04F0917F049081922B90839091360B31
:1046C0009370923009F0D8C52091780F3091790F0E
:1046D0006217730708F0D0C5B4E68B9FC0011124A0
:1046E0002817390708F0C8C5809115108E5F809390
:1046F00015108091121082608093121090917A04AC
:10470000E0917B04F0917C048081892B8083B4C587
:104710008091DC098F7E8093DC098091E90C84FD17
:1047200040C280916F008D7F80936F0010921410B3
:104730001092131080913E048F5F80933E0480910D
:10474000E90C85FD02C00C941730E091780FF091D0
:10475000790F309711F40C9417308091800D887F79
:10476000883411F40C94533F8091EF0C982F937080
:10477000923010F40C947A3E923011F40C94EA3B8F
:1047800080912910882311F40C949B3E843610F4F8
:104790000C94303080913A10843610F40C94303000
:1047A0008091EF0C90918304E0918404F091850452
:1047B00084FF02C00C9487428081892B8083809182
:1047C000EF0C90918004E0918104F091820484FFC9
:1047D00002C00C94BA3E8081892B808380916F0047
:1047E0008B7F80936F000C9430308091DC098B7F3D
:1047F0008093DC090F943F1DE9E4CE2EEAE0DE2E23
:10480000F5EB8F2EF2E09F2EA9E7AA2EAAE0BA2E92
:1048100000E010E066246394712C5524539485E4E1
:10482000E82E82E0F82E19C0C301002E01C0880FC7
:104830000A94EAF7809590913B10892380933B106E
:104840000F5F1F4FF2E08F0E911C22E0A20EB11CF1
:104850000830110511F40C94511AD6018D916D0197
:10486000882311F31F964C9150E04237510510F008
:104870000C94E53EE6E2F2E003C0EE16FF0689F195
:10488000219130E042175307C1F7FA01E050F14F90
:10489000218130E0322F22279081292B4650510967
:1048A0004230510510F428523109F50160817181BF
:1048B000D801A756B54F9C91492F4770C1F4621794
:1048C0007307D9F0929596959695937011F00C9484
:1048D000CD3C813810F40C949438F401118210828C
:1048E000A3CFFA01E050F14F208130E0D7CF413023
:1048F00009F04AC16217730729F392959695969528
:10490000937031F0F6014789423710F40C94FD346E
:10491000D60117962C919FEF920F9E3FD0F4F40191
:104920004081518130E04217530710F40C949838BD
:10493000813810F40C949E3B862D002E01C0880F08
:104940000A94EAF7482E80913B10842980933B100B
:1049500077CF813888F791E0332433949301002E88
:1049600001C0220F0A94EAF7422E6091470A2623DB
:10497000622F69270F9409163110E5CFAECF8091D1
:10498000C60F8E7F82608093C60F1092D70F8091E2
:10499000BA0D80FF05C060E08091E8080F94091609
:1049A0008091530E81FF02C00C940B1B8091610D0E
:1049B00080FD02C00C947F3890913A04E0913B0452
:1049C000F0913C048081892B80830C940B1B809197
:1049D000780F9091790F892B09F468C34091E40F07
:1049E0005091E50F6091E60F7091E70F8091AA0456
:1049F0009091AB04A091AC04B091AD044817590755
:104A00006A077B0711F40C94F3364091E40F509140
:104A1000E50F6091E60F7091E70F0196A11DB11DA2
:104A200084179507A607B70711F40C94F336809105
:104A3000830F809328058091240590912505A091EE
:104A40002605B09127058093200590932105A0931A
:104A50002205B09323050F949B1660932405709351
:104A600025058093260590932705A091A404B09175
:104A7000A504B093800FA0937F0F40913B0E20912F
:104A80003C0E30913D0E241B310947FD33950F94A8
:104A90004A518B019C01FAE03695279517950795A9
:104AA000FA95D1F7842F440F990BAA0BBB0B800FFB
:104AB000911FA21FB31F8093830F9093840FA09325
:104AC000850FB093860F8091E40F9091E50FA09130
:104AD000E60FB091E70F8093AA049093AB04A093E4
:104AE000AC04B093AD048FEF93E0A0E0B0E080930E
:104AF000A4049093A504A093A604B093A7040E94D5
:104B00007A730C94471A8091830F809328058091C3
:104B1000240590912505A0912605B0912705809345
:104B2000200590932105A0932205B09323050F94AF
:104B30009B1660932405709325058093260590931A
:104B4000270580911F050F947C1680911F050F94F7
:104B50007C16DC0103978B3F934010F40C94F01902
:104B600080911E058F5F80931E05CFCB80919609A3
:104B7000882311F40C94D4158091E802843511F047
:104B80000C94D4150C94D215423011F40C9460336B
:104B9000433011F00C94BD3C261737070CF0ADCE16
:104BA00091CE8091870D80FD02C00C947D3D809157
:104BB0003E048770813011F40C94CE428091830FB3
:104BC0009091840FA091850FB091860F8436910546
:104BD000A105B10514F40C94123F8091330E81FFAE
:104BE00002C00C94D53C10921410109213108091B6
:104BF000E80F9091E90F892B11F40C94123F8091EA
:104C00003E048F70813011F40C9435438FB7F894C3
:104C100080902D1490902E14A0902F14B0903014EA
:104C200089A69AA6ABA6BCA68FBF80917813909157
:104C30007913A0917A13B0917B13B501A401481B9D
:104C4000590B6A0B7B0BE0917613F09177138081FF
:104C500090E0A0E0B0E0481759076A077B0710F41E
:104C60000C94F440E0917213F09173132081318120
:104C7000E0917413F091751340815181440F551FD9
:104C800081E197E2841B950B6C01E12CF12CA0E1F2
:104C9000B7E20F940F51A70196010F94704F49018D
:104CA0005A01E0916E13F0916F132081318142819E
:104CB0005381A0E1B7E20F94FC50A70196010F9435
:104CC000704F821A930AA40AB50A4090801350903C
:104CD00081136090821370908313480C591C6A1CD6
:104CE0007B1C4092801350928113609282137092C9
:104CF0008313C0906813D0906913C114D10411F4C8
:104D00000C941F4120918C1330918D1340918E1380
:104D100050918F132FA738AB49AB5AAB1FA508A9E9
:104D200039A82AA8E12CF12CCBAADFAAEBAEFCAE65
:104D30002253310941095109A0E1B7E20F94FC5017
:104D4000A70196010F94704F57FF02C00C944D4479
:104D5000241535054605570514F40C947A45409101
:104D600088135091891360918A1370918B134FA708
:104D700058AB69AB7AAB22E330E040E050E06FA57E
:104D800078A989A99AA9261B370B480B590BA0E1D2
:104D9000B7E20F94FC50A70196010F94704F57FF94
:104DA00002C00C94B844CC24DD247601C21AD30A84
:104DB000E40AF50A4C145D046E047F0414F00C94AC
:104DC0007645C0928013D0928113E0928213F092C4
:104DD000831380917C1390917D13A0917E13B091E9
:104DE0007F13A5019401281B390B4A0B5B0BA09183
:104DF0006A13B0916B130F94FC502B013C01A091EE
:104E00006613B0916713A50194010F94FC5021968D
:104E10006CAF7DAF8EAF9FAF21972BA93FA94BAD54
:104E20005CADC701B6010F941E5121962CAD3DAD6E
:104E30004EAD5FAD2197260F371F481F591FCA017E
:104E4000B901640D751D861D971D2AE030E040E014
:104E500050E00F94704F29013A0168E8460E63E173
:104E6000561E611C711CA4E6B0E0212F302F432D8B
:104E7000522D0F94FC50641575058605970574F442
:104E8000C818D908EA08FB08C0928013D092811391
:104E9000E0928213F09283132B013C01A4E6B0E070
:104EA0002FA538A949A95AA90F94FC5046165706B0
:104EB0006806790674F4C818D908EA08FB08C09295
:104EC0008013D0928113E0928213F09283132B010E
:104ED0003C01E0917013F09171135182408289A5D9
:104EE0009AA5ABA5BCA58093781390937913A09352
:104EF0007A13B0937B1380927C1390927D13A092CF
:104F00007E13B0927F132091EC0F3091ED0F21159D
:104F1000310511F40C94FC40A091F002B091F10223
:104F20000F940F5120E137E240E050E00F94A34F7F
:104F300020939F093093A0094093A1095093A2099F
:104F400080916F00826080936F00F4CB1092DE0F2F
:104F50008091C40F8E7F8093C40F8091250D83FFB5
:104F600011C0222379F08091280D54E6859FC0015D
:104F700011242091780F3091790F8217930710F444
:104F80000C9472391092E30F8091050590910605FB
:104F90008038910510F40C944B1A8091C30F8064F3
:104FA0008093C30F0C944B1A1092A20F1092A10F72
:104FB0001092950F6ECA661F6627661F0C94801AA2
:104FC00081608093C60F0C940B1B8FE390E0821BD3
:104FD0009109830F911D0C948D198FE390E0821B32
:104FE0009109830F911D0C94BC198FE390E0821BF3
:104FF0009109830F911D0C94A7198091ED080F94CE
:10500000D91521E0892B11F40C943A1920E00C9465
:105010003A198091830F80932805809124059091FF
:105020002505A0912605B091270580932005909332
:105030002105A0932205B09323050F949B1660933E
:10504000240570932505809326059093270580916C
:105050001F050F947C1680911F050F947C16DC01B0
:105060009C01235031092B3F334008F049C90C946F
:10507000F0192091830F3091840F4091850F50914A
:10508000860FA4E6B0E00F94FC502091870F30917A
:10509000880F032E000C440B550B0F94704FB90171
:1050A00030931D1020931C100C94261B8091830FAD
:1050B000809328058091240590912505A0912605CF
:1050C000B09127058093200590932105A093220598
:1050D000B09323050F949B166093240570932505C8
:1050E000809326059093270580911F050F947C16C9
:1050F00080911F050F947C16DC0103978B3F934032
:1051000010F40C94F019FCC81092DE0F2091C40F1B
:105110002E7F2093C40F2091250D23FD2ACF32CF5F
:105120008091830F80932805809124059091250517
:10513000A0912605B0912705809320059093210525
:10514000A0932205B09323050F949B16609324052A
:1051500070932505809326059093270580911F0560
:105160000F947C1680911F050F947C16DC019C0126
:10517000235031092B3F334010F40C94C33E8091EF
:105180001E058F5F80931E058091A30881110C94EA
:10519000213AB093800FA0937F0F40913B0E209156
:1051A0003C0E30913D0E241B310947FD33950F9481
:1051B0004A518B019C015AE0369527951795079522
:1051C0005A95D1F7842F440F990BAA0BBB0B800F74
:1051D000911FA21FB31FB7FF02C00C94DE40809343
:1051E000830F9093840FA093850FB093860F8091C7
:1051F000F5089091F608A0E0B0E08093AA0490939F
:10520000AB04A093AC04B093AD041092A40410922C
:10521000A5041092A6041092A7041092A90410925B
:10522000A8040C94471A2370223059F464177507A8
:1052300040F4A4E68A9FC00111244817590708F4D6
:1052400053CA10921510809112108D7F8093121006
:1052500080917D04E0917E04F0917F04908180959F
:105260008923808380917A04E0917B04F0917C040F
:1052700090818095892380830E949B83F894C090BD
:105280000809D0900909E0900A09F0900B094091B3
:1052900004095091050960910609709107097894F5
:1052A0008091730E8370813011F40C94CC3190E0B6
:1052B000029714F40C94CC3180918D04843011F059
:1052C0000C944234C416D506E606F70610F40C9486
:1052D000D5388091890490918A04A0918B04B09173
:1052E0008C04F090760E00912D1010912E109C01E0
:1052F000AD0156954795379527955695479537951E
:105300002795A091740EB091750E0F94FC509B01DF
:10531000AC0160E074EA83E996ED0F94A34F442753
:105320005527EF2DF0E0A0E0B1E0AE1BBF0B0F94CE
:1053300007516B017C019F01D8010F940F51DC01D3
:10534000CB018C0D9D1DAE1DBF1D892F9A2FAB2F3C
:10535000BB27A7FDBA95893EE3E09E0708F48C01C0
:1053600010928D041092890410928A0410928B047A
:1053700010928C040C94543460917A0F70E08AE39C
:1053800097E00E94D6E69093C7028093C602609190
:105390007A0F70E08AE297E00E94D6E68091470B90
:1053A0008370813011F00C94771C2091C50230E09D
:1053B0008091480B82958695877090E082179307BD
:1053C00014F00C94771C8091211081110C94771C9F
:1053D0008091C5020F949B1690915F0B0C94781CE2
:1053E000252D30E02230310514F40C949C1F3595A6
:1053F0002795E22FBA01629FA001639F500D729F13
:10540000500D11240C949D1FF8948091420A88231A
:1054100009F4D9C540913E0A50913F0A6091400A73
:105420007091410A80913A0A90913B0AA0913C0AFE
:10543000B0913D0A84179507A607B70708F0C3C5C2
:105440008091900F9091910F181619060CF0B1C52C
:105450008091900F9091910F4F970CF4B4C580916B
:105460003E0A90913F0AA091400AB091410AC09033
:105470003A0AD0903B0AE0903C0AF0903D0A209115
:10548000380A3091390A78948C199D09AE09BF0900
:10549000880F991FAA1FBB1F880F991FAA1FBB1F28
:1054A000BC01CD01660F771F881F991F660F771FFC
:1054B000881F991F40E050E00F94A34F3093621370
:1054C000209361138091611390916213929582955C
:1054D0008F7089279F7089279093ED098093EC093D
:1054E0002090780F3090790F8091C60F827089A735
:1054F0000091C70F1091C80F0C94881E90918C0FCB
:1055000080916B0E981710F00C94001C8AE997E0BC
:105510000E94D6E68F509091690E9370913011F4ED
:105520000C94AF42923009F4182F4091780F5091AB
:10553000790F0C94001C19EC0C94A81B8091530E4D
:105540008078282E11F00C9470339F010E2C02C02D
:10555000220F331F0A94E2F7369527953695279543
:10556000ABE7B4E10F940F51FC01F695E7952801E4
:10557000012E000C660877089601D8010F944A5155
:105580009B01AC0167E056954795379527956A953D
:10559000D1F78F2D829586958695837011F40C94A2
:1055A000211DA3E9AA2EB12C0C94081DB7E0EB2E07
:1055B0000C94A91C10917D0D0C947F1C1092DB02A1
:1055C000A090E702ADA68091E602882311F40C9426
:1055D000FB208091C30F85FF02C00C94FB208091BB
:1055E000C70F9091C80F20911805309119058217A7
:1055F0009307A8F00C151D0514F00C946938D6011A
:10560000A01BB10B2091EC093091ED096C01E12C4C
:10561000F12C0F944A51A70196010E94677B80915B
:10562000F904882309F43FC02091C90F3091CA0FB3
:10563000809118059091190528173907A0F18091DC
:10564000E5049091E604A801481B590B57FF02C0DE
:105650000C94B63B281A390A37FE02C00C94AE3BB4
:10566000421553057CF080911E0490911F0403970E
:10567000D1F48091020290910302280E391E421546
:1056800053058CF4D101A41BB50B8091EC099091CA
:10569000ED096901E12CF12C9C010F944A51A701FD
:1056A00096010E94E07A8091F804882309F442C0B0
:1056B0002091CB0F3091CC0F809118059091190556
:1056C00028173907B8F18091E9049091EA04A801FC
:1056D000481B590B57FF02C00C94D63BB401681B02
:1056E000790BCB0177FF02C00C94CE3B48175907CA
:1056F00084F060910E0470910F0463307105D1F451
:105700006091020270910302860F971F4817590794
:105710008CF4DC01A41BB50B8091EC099091ED0990
:105720006901E12CF12C9C010F944A51A7019601CB
:105730000E94597A8091F704882311F40C94FB207D
:105740002091CD0F3091CE0F8091180590911905C1
:105750002817390710F40C94FB208091E3049091F2
:10576000E404081B190B17FF02C00C94C63BD301BD
:10577000A81BB90BCD01B7FF02C00C94BE3B0817A4
:105780001907A4F04091FE035091FF0343305105E7
:1057900011F00C94FB204091020250910302840FFF
:1057A000951F0817190714F00C94FB20DC01A01BAF
:1057B000B10B8091EC099091ED096901E12CF12C7C
:1057C0009C010F944A51A70196010E94D2790C9432
:1057D000FB2010920805109207058DA4882011F473
:1057E0000C942721E091E80EF091E90E19958C01B7
:1057F0002091040230910502281739072CF4021B6E
:10580000130B20173107DCF36091D8027091D90295
:105810000617170714F40C9456354091A5035091C0
:10582000A6034330510511F40C944B358091A50328
:105830009091A603039711F40C94B63D4091E704B0
:105840005091E8049801241B350B37FF02C00C94DB
:105850003A3E8091D6029091D702841B950B97FF18
:1058600002C00C94323E409100024230B0F0281742
:10587000390714F00C94B838821B930B0F949001E5
:10588000611571058105910531F02091DB0221FD43
:1058900002C00C943D3C409100026091E104709183
:1058A000E2049801261B370B37FF02C00C94523ECE
:1058B0008091D4029091D502861B970B97FF02C06E
:1058C0000C944A3E433020F12817390784F0609148
:1058D00073037091740363307105D1F46091040215
:1058E00070910502860F971F281739078CF4821BC9
:1058F000930B0F949001611571058105910531F0AD
:105900002091DB0222FD02C00C945941409100021B
:105910006091DF047091E0049801261B370B37FF7C
:1059200002C00C94623E8091D2029091D302861BF9
:10593000970B97FF02C00C945A3E443020F1281771
:10594000390784F060915A0370915B0363307105ED
:10595000D1F46091040270910502860F971F2817F9
:1059600039078CF4821B930B0F949001611571051C
:105970008105910531F02091DB0223FD02C00C94DA
:10598000FB41409100022091DD043091DE04021BB6
:10599000130B17FF02C00C94723E8091D0029091BD
:1059A000D102821B930B97FF02C00C946A3E4530D4
:1059B00010F40C94272108171907A4F02091410333
:1059C000309142032330310511F00C9427212091AE
:1059D000040230910502820F931F0817190714F073
:1059E0000C942721801B910B0F9490016115710578
:1059F0008105910511F40C9427212091DB0224FFED
:105A000002C00C9427210091A50F1091A60F2091A0
:105A1000070530910805020F131F20E030E0409188
:105A20004103509142034330510511F40C940A4450
:105A30004091B9045091BA04E091BB04F091BC04C8
:105A4000F0934503E0934403509347034093460388
:105A500000933D0310933E0320933F033093400394
:105A60006D3F4FEF740743E08407910510F00C94ED
:105A7000AC43DC01CB01B695A79597958795B69574
:105A8000A79597958795BC01F8948091A400909173
:105A9000A500680F791F70934D0360934C038091AC
:105AA0005503811114C040914C0350914D03D9010D
:105AB000C801B695A79597958795B695A79597959B
:105AC0008795840F951F90934F0380934E03809189
:105AD0004C0390914D039093AD008093AC0081E016
