:100000000C9460100C943FDD0C9414DD0C94E9DC2E
:100010000C94BEDC0C9493DC0C9468DC0C943DDCFA
:100020000C9412DC0C9491100C9491100C9491107F
:100030000C9491100C9491100C9491100C94F7F373
:100040000C9491100D94D03C0D94973A0C9463C28B
:100050000C9491100C9491100C9491100D941066C6
:100060000C9491100C94C7DE0C9487DE0C949110C4
:100070000C9491100C9491100C9491100C9491107C
:100080000C945D6C0C94D46B0C944B6B0C94911091
:100090000C9491100C9491100C9491100C9491105C
:1000A0000C9491100C9491100C941A680C94C26AE0
:1000B0000C9470670C9491100C9491100C94186A25
:1000C0000C946E690C94C4680C9491100C9491106B
:1000D0000C9491100C9491100C9451DE0C9411DE40
:1000E0000C9491105F452F1F2F1F2F1F2F1F2F1FA5
:1000F0004C452F1F2F1F2F1F2F1F45412F1F2F1F15
:100100002F1F2F1F3D452F1F35452F1F2F1F2F1F1F
:100110002F1F2F1F2F1F2F1F2F1F2F1F2F1F2F1F6F
:100120002F1F2F1F2F1F2F1F2F1F2F1F2F1F2F1F5F
:100130002F1F2F1F2F1F2F1F2F1F2F1F2F1F244534
:100140002F1F2F1F2F1F68452D4574342B34F33379
:100150003B339E33FE320A2CA5328E53A84E865373
:100160008353994FA84E9E539753A84E3D4FA84E88
:10017000FE53A84EDD53A84ED653A84E0A5503553C
:10018000A84E36559451765173514951A84EA84EF8
:10019000CF4FA84EA84EA84EA84EA84EB74F9D4F81
:1001A00032521C52EE51A84EA84EA84E544EA84EA4
:1001B0006552A84EA84E4C52A84EA84E1D54A84EAB
:1001C000BF51A84EC14EA84EA84E6E52A84EA84E82
:1001D0009353655C635C255CBF5A955A1459FF586C
:1001E0003B58FB57F557E057F953DA576F5696606F
:1001F00012608E5F885F045FFE5E915E1A5E145E21
:10020000075E785D266120619C60CF013503CF03D6
:10021000F101D901D902630423031C9625970F939A
:10022000DF960794B8941E92AD95C4924C93969124
:100230001191A490F38F5E8F128F758E6D8EA28DAB
:10024000B7974BC003C165C1D6B7D6B77FBFD6B786
:1002500079BDD3BD2DBED6B7D6B7D6B7D6B7D6B72C
:10026000D6B7D6B7D6B7D6B77CBED6B7D6B7D6B779
:10027000D6B7D6B7D6B7D6B7D6B7D6B7BFBE11BFE3
:10028000D6B7D6B7D6B7D6B7D6B7D6B7D6B7D6B706
:100290009EC0D8C1D6B7D6B7D6B7E0BFD6B7D6B707
:1002A000D6B7D6B7D6B7D6B7D6B7D6B7D6B724B897
:1002B000D6B7D6B7D6B7D6B724B88EDD8CDD8ADDF3
:1002C00088DD86DD90DD92DDF7DDEFDDE3DDD5DD78
:1002D000C4DD03DEADDD3B04F9034902B30357027D
:1002E000E3039D03FD030B02FB01D9038303BD015F
:1002F000C902D703E503DD037F04C302F1028304CF
:100300005303C103610351023B03C701A702CB039F
:10031000CB0383026D02D101C903530225032103DC
:10032000390211020503C3016D038D044B02BD02A6
:10033000DF01BD039F03BF017103ED01FD01510307
:1003400033040D048B038B04AB0319025F04950384
:10035000DF03A902AB027D03130445040504CB01AE
:100360003303DF03BB01FF0255020C94AFD90C9499
:1003700032520C9494730D94A2390D94A0140D94E0
:10038000E72D0C94109C0D94B8220C9422780D94B7
:10039000D71D0C94BF510D9496390C94255C0D9487
:1003A000E37E0D9403220C94749E0C944C450C94A3
:1003B000BD8B0D9407790C9486DD0C94FE8C0D9406
:1003C000BB2D0C9494510C94ABDA0C9457AA0C945A
:1003D00018620C9435CC0C94F5860D94272E0C9451
:1003E000FFC30D9422800C9424B80C9473D70C9402
:1003F000A28D0C9411910D94D3120D942F2E0C9468
:10040000E6760C946B630C946F560C9490DD0C9410
:100410007FBF0C94FF580D94A4110C943D4F0C9485
:100420001A5E0D9419220C94C4DD0C942B890C9443
:100430004BC00D9460390C9407940C94DFC90C9454
:100440005C720C9448D90C9496600C945F450C94A3
:10045000ABD50C94F1D70C94B4990C94C3720C9452
:100460005F700C94FFB10C94DA850C94B2D70C94A5
:10047000468A0D9414220C94189B0C94AA890C940F
:100480008FC30C9450620C94DCA20C94936F0C9468
:1004900043D60D944B0D0D94832D0C942D450C9447
:1004A000E3DD0D948C1E0D9479270D9452390D9433
:1004B0001D0E0C94DF960C946FC90C9495CA0C9485
:1004C00096910C9435450C9428730C944AD80C944E
:1004D000ACAE0C948CA90C9418CA0D94FE210C940B
:1004E000FE530C94ACB40C9449C80C9407C40C94FF
:1004F000619F0C94045F0C94635C0C9474340C94B2
:1005000019C30C948BA90D94ED210C94D5DD0C949A
:100510001C960C94A5DB0C94C4AA0C9445C90C94AD
:1005200088B30C94A5E60C94B74F0C94BF5A0C9466
:1005300011BF0C9498D20C94CF620C94C4700C949C
:10054000A5A80C94075E0C94F38F0C941CAC0D942E
:10055000DC1D0D9472390D9478390C94F9EC0C94DF
:100560008CDD0C94ADE70C94DA570C9412600C946B
:1005700030D30C94ABAE0C94CF4F0D949F2D0C94B4
:10058000885F0C94A84E0D94251E0C94938C0C94AB
:1005900086AD0D949E0B0C94119C0C9413D50C9469
:1005A00030C50C940A550C9422F10C9404E90C9477
:1005B0004C520D949A780C9426610C945AD10C9458
:1005C000AACC0C9441B00C943B580C94FE730C9440
:1005D00088DD0C9414B10C9427990C94E39E0C9430
:1005E0004DC60D943A1E0C943BAE0C94785D0C9461
:1005F000CAD30C9480EB0C94D8C10C94C4920D9483
:10060000A8390C94288C0C94B8940D942A220C943C
:10061000A4830C9403550C947CBE0C946E520C94E1
:10062000EA630C94544E0C949C600C94CDA00C94F2
:10063000919A0C94F3330C94DBD60C940F930C9496
:100640009DCB0D9474270D9461740D94BD220C9470
:1006500065C10C949E530C948AC30C9483530C94E0
:1006600023840C94F86F0D949C390D94AE800C94F7
:10067000EE510C949EC00D94A81E0C947BC70C9454
:100680001C520C94DC9A0C941E920C94A1F10C94C4
:10069000E0BF0C9418C30C947CD40C940EB30C944F
:1006A0008EDD0D94372E0D945E1E0C94F28B0C94FF
:1006B000C88C0C94C14E0C94FE320C943B330C94B9
:1006C00059860D94871E0C9489B20C9473510C9426
:1006D0002DBE0C9482D60C94289D0D94DC210D9493
:1006E0003E840D94062E0C945D8C0C94A6610C94A3
:1006F00023D40C948E530C9474870D947E390C94EF
:100700006D8E0C949E330D94CC0A0C9424450C945D
:10071000D3BD0C941D540D94562D0C94E0570C949D
:10072000DD530C9463A10C9494AF0D946C390C942C
:100730009D4F0C940A2C0C9486530D94F00E0D943E
:10074000DF2D0C944C930C940F9C0C94994F0C94AB
:10075000F1D20C942B340D945C390C94D6B70C94D4
:10076000A4900C94F7710D9402140C9425C70C946A
:1007700093DB0C94955A0C9436550D94C32D0C9420
:100780001BE50D94821E0C9410880C94FB570C945E
:100790002B710D94D7210D94B3210C9492B10D942B
:1007A000697F0C9439EE0C941AC30C9415DA0D94ED
:1007B000F11D0D94DB100C94FAE30D940B1E0D94B7
:1007C00057390C946A740D9464130D94F61D0C94AF
:1007D000878B0C94A5A40C94145E0C9425970C9410
:1007E00045410D9471580C941AD70C9451620C9495
:1007F000B0D80D94740C0C9440A60D94C70F0C94B3
:1008000090710C945E8F0C94BFBE0D9490390C9433
:1008100076510C94759E0C94BF840D94752D0C9498
:1008200092DD0C94EFDD0D9484390C943AAE0C9467
:10083000AD950C9443A00C9486640C9497530C943F
:10084000128F0C94758E0C94DBDA0C9493AF0C948D
:10085000A6A80C94D6530C942F1F0C9494750C944A
:100860003D450C94FE5E0D94522E0C94BCAC0C9441
:1008700003DE0C9439AB0D9435120C9404B00C9437
:10088000F9530C9468450C9449510D948A390D9490
:100890002F580C94FFA70C9479BD0C9414DA0C9487
:1008A00014CB0C942C6F0C94829C0C948E5F0C9443
:1008B00065520C94655C0C94F5570C9408830D9468
:1008C00066390C94ADDD0D94147F0C9414590C947E
:1008D000B7970C948F880C94915E0C94BADB0C94AF
:1008E000EBE90C943E850C94BA9F0C9440DB0C947D
:1008F000F7DD0C94A5320C9493530C94C9E50D9438
:10090000201E0C94D2A10D943F1E0C948ADD0C94F1
:1009100020610C9403C10D9458390D947C2D5370B3
:1009200065656475696E6F00537065656475696EA1
:100930006F20323031392E30382D7365720053708C
:1009400065656475696E6F20637378303230313954
:100950002E380020202020000A5061676520686141
:1009600073206E6F74206265656E20696D706C65B2
:100970006D656E74656420796574000A5061676501
:1009800020686173206E6F74206265656E20696DEA
:10099000706C656D656E74656420796574000A50CD
:1009A00061676520686173206E6F74206265656E93
:1009B00020696D706C656D656E7465642079657411
:1009C0000020000A5645204D6170000A5067203112
:1009D00020436F6E666967000A49676E6974696FC4
:1009E0006E204D6170000A5067203220436F6E66A2
:1009F0006967000A414652204D6170000A50672025
:100A00003320436F6E666967000A506720342043C5
:100A10006F6E666967000A426F6F7374204D617074
:100A2000000A565654204D6170000A50672031303C
:100A300020436F6E666967000A326E6420467565F2
:100A40006C204D6170000A574D49204D6170000ABD
:100A50005072676D20494F000A326E642049676EFC
:100A60006974696F6E204D6170000A3D3D3D436FB2
:100A70006D6D616E642048656C703D3D3D0A0A41B4
:100A80006C6C20636F6D6D616E64732061726520A4
:100A900073696E676C652063686172616374657207
:100AA00020616E642061726520636F6E636174659E
:100AB0006E61746564207769746820746865697212
:100AC00020706172616D6574657273200A77697454
:100AD000686F7574207370616365732E53796E74DB
:100AE00061783A20203C636F6D6D616E643E2B3CF3
:100AF000706172616D65746572313E2B3C7061721C
:100B0000616D65746572323E2B3C706172616D651A
:100B10007465724E3E0A0A3D3D3D4C697374206F08
:100B20006620436F6D6D616E64733D3D3D0A0A4101
:100B3000202D20446973706C6179732033312062F9
:100B400079746573206F662063757272656E745375
:100B500074617475732076616C75657320696E209D
:100B600062696E61727920286C69766520646174AF
:100B700061290A42202D204275726E2063757272BF
:100B8000656E74206D617020616E6420636F6E66A7
:100B90006967506167652076616C75657320746F55
:100BA00020656570726F6D0A43202D205465737443
:100BB00020434F4D20706F72742E20205573656452
:100BC0002062792054756E657273747564696F2044
:100BD000746F20736565207768657468657220613D
:100BE0006E20454355206973206F6E206120676930
:100BF00076656E2073657269616C200A2020202062
:100C0000706F72742E2052657475726E732061203D
:100C100062696E617279206E756D6265722E0A4E20
:100C2000202D205072696E74206E6577206C696E7D
:100C3000652E0A50202D20536574206375727265ED
:100C40006E7420706167652E202053796E74617810
:100C50003A2020502B3C706167654E756D6265725D
:100C60003E0A52202D2053616D6520617320412082
:100C7000636F6D6D616E640A53202D20446973703B
:100C80006C6179207369676E6174757265206E7529
:100C90006D6265720A51202D2053616D652061736C
:100CA000205320636F6D6D616E640A56202D2044C1
:100CB0006973706C6179206D6170206F7220636F51
:100CC0006E666967506167652076616C7565732033
:100CD000696E2062696E6172790A57202D20536512
:100CE00074206F6E65206279746520696E206D6175
:100CF00070206F7220636F6E666967506167652E42
:100D00002020457870656374732062696E61727922
:100D100020706172616D65746572732E200A2020E7
:100D2000202053796E7461783A2020572B3C6F66EF
:100D3000667365743E2B3C6E6577627974653E0A16
:100D400074202D205365742063616C696272617434
:100D5000696F6E2076616C7565732E202045787002
:100D6000656374732062696E61727920706172616B
:100D70006D65746572732E20205461626C65206904
:100D80006E646578206973206569746865722030C7
:100D90002C200A20202020312C206F7220322E207F
:100DA0002053796E7461783A2020742B3C74626C05
:100DB000655F6964783E2B3C6E657756616C75653E
:100DC000313E2B3C6E657756616C7565323E2B3C2F
:100DD0006E657756616C75654E3E0A5A202D20442B
:100DE0006973706C61792063616C696272617469A6
:100DF0006F6E2076616C7565730A54202D204469EE
:100E000073706C6179732032353620746F6F74683B
:100E1000206C6F6720656E747269657320696E203F
:100E200062696E6172790A72202D20446973706C58
:100E30006179732032353620746F6F7468206C6F5F
:100E40006720656E74726965730A55202D20507293
:100E5000657061726520666F72206669726D776178
:100E60007265207570646174652E20546865206E0B
:100E7000657874206279746520726563656976654A
:100E8000642077696C6C2063617573652074686594
:100E90002041726475696E6F20746F20726573658E
:100EA000742E0A3F202D20446973706C6179732081
:100EB000746869732068656C702070616765002CC8
:100EC0002000575545004F3200496E6C6574207400
:100ED000656D7000436F6F6C616E74005265736571
:100EE0007420636F6E74726F6C2069732063757207
:100EF00072656E746C792064697361626C65642ECE
:100F000000436F6D6D732068616C7465642E204EB4
:100F100065787420627974652077696C6C207265DD
:100F2000736574207468652041726475696E6F2EF4
:100F300000537065656475696E6F20323032302EF3
:100F4000313200737065656475696E6F20323032BE
:100F50003031320030303100000000009630077729
:100F60002C610EEEBA51099919C46D078FF46A709D
:100F700035A563E9A395649E3288DB0EA4B8DC79BD
:100F80001EE9D5E088D9D2972B4CB609BD7CB17E3D
:100F9000072DB8E7911DBF906410B71DF220B06A0D
:100FA0004871B9F3DE41BE847DD4DA1AEBE4DD6D1D
:100FB00051B5D4F4C785D38356986C13C0A86B641D
:100FC0007AF962FDECC9658A4F5C0114D96C06633D
:100FD000633D0FFAF50D088DC8206E3B5E10694C1D
:100FE000E44160D5727167A2D1E4033C47D4044B5D
:100FF000FD850DD26BB50AA5FAA8B5356C98B2423D
:10100000D6C9BBDB40F9BCACE36CD832755CDF45BC
:10101000CF0DD6DC593DD1ABAC30D9263A00DE51EC
:101020008051D7C81661D0BFB5F4B42123C4B356DC
:101030009995BACF0FA5BDB89EB802280888055F5C
:10104000B2D90CC624E90BB1877C6F2F114C6858BC
:10105000AB1D61C13D2D66B69041DC760671DB01AA
:10106000BC20D2982A10D5EF8985B1711FB5B6067C
:10107000A5E4BF9F33D4B8E8A2C9077834F9000FBC
:101080008EA8099618980EE1BB0D6A7F2D3D6D085C
:10109000976C6491015C63E6F4516B6B62616C1C4C
:1010A000D83065854E0062F2ED95066C7BA5011B7C
:1010B000C1F4088257C40FF5C6D9B06550E9B7121C
:1010C000EAB8BE8B7C88B9FCDF1DDD62492DDA15DC
:1010D000F37CD38C654CD4FB5861B24DCE51B53AFC
:1010E0007400BCA3E230BBD441A5DF4AD795D83DFC
:1010F0006DC4D1A4FBF4D6D36AE96943FCD96E343C
:10110000468867ADD0B860DA732D0444E51D03331B
:101110005F4C0AAAC97C0DDD3C710550AA4102272B
:1011200010100BBE86200CC925B56857B3856F20FB
:1011300009D466B99FE461CE0EF9DE5E98C9D9295B
:101140002298D0B0B4A8D7C7173DB359810DB42E9B
:101150003B5CBDB7AD6CBAC02083B8EDB6B3BF9AE7
:101160000CE2B6039AD2B1743947D5EAAF77D29D73
:101170001526DB048316DC73120B63E3843B649453
:101180003E6A6D0DA85A6A7A0BCF0EE49DFF099353
:1011900027AE000AB19E077D44930FF0D2A30887C3
:1011A00068F2011EFEC206695D5762F7CB67658073
:1011B00071366C19E7066B6E761BD4FEE02BD38973
:1011C0005A7ADA10CC4ADD676FDFB9F9F9EFBE8ED3
:1011D00043BEB717D58EB060E8A3D6D67E93D1A113
:1011E000C4C2D83852F2DF4FF167BBD16757BCA6F3
:1011F000DD06B53F4B36B248DA2B0DD84C1B0AAF93
:10120000F64A0336607A0441C3EF60DF55DF67A812
:10121000EF8E6E3179BE69468CB361CB1A8366BCA2
:10122000A0D26F2536E2685295770CCC03470BBBF2
:10123000B91602222F260555BE3BBAC5280BBDB2F2
:10124000925AB42B046AB35CA7FFD7C231CFD0B592
:101250008B9ED92C1DAEDE5BB0C2649B26F263EC84
:101260009CA36A750A936D02A906099C3F360EEB92
:101270008567077213570005824ABF95147AB8E252
:10128000AE2BB17B381BB60C9B8ED2920DBED5E532
:10129000B7EFDC7C21DFDB0BD4D2D38642E2D4F182
:1012A000F8B3DD686E83DA1FCD16BE815B26B9F612
:1012B000E177B06F7747B718E65A0888706A0FFF72
:1012C000CA3B06665C0B0111FF9E658F69AE62F832
:1012D000D3FF6B6145CF6C1678E20AA0EED20DD732
:1012E0005483044EC2B30339612667A7F71660D052
:1012F0004D476949DB776E3E4A6AD1AEDC5AD6D992
:10130000660BDF40F03BD83753AEBCA9C59EBBDEB1
:101310007FCFB247E9FFB5301CF2BDBD8AC2BACA61
:101320003093B353A6A3B4240536D0BA9306D7CDD1
:101330002957DE54BF67D9232E7A66B3B84A61C4F1
:10134000021B685D942B6F2A37BE0BB4A18E0CC3B1
:101350001BDF055A8DEF022D0000000041311B19E3
:1013600082623632C3532D2B04C56C6445F4777DFD
:1013700086A75A56C796414F088AD9C849BBC2D1D9
:101380008AE8EFFACBD9F4E30C4FB5AC4D7EAEB59D
:101390008E2D839ECF1C98875112C24A1023D95399
:1013A000D370F4789241EF6155D7AE2E14E6B5377D
:1013B000D7B5981C9684830559981B8218A9009B61
:1013C000DBFA2DB09ACB36A95D5D77E61C6C6CFF1D
:1013D000DF3F41D49E0E5ACDA2248495E3159F8C05
:1013E0002046B2A76177A9BEA6E1E8F1E7D0F3E80D
:1013F0002483DEC365B2C5DAAAAE5D5DEB9F4644C9
:1014000028CC6B6F69FD7076AE6B3139EF5A2A20AC
:101410002C09070B6D381C12F33646DFB2075DC688
:10142000715470ED30656BF4F7F32ABBB6C231A28C
:1014300075911C8934A00790FBBC9F17BA8D840E50
:1014400079DEA92538EFB23CFF79F373BE48E86A2C
:101450007D1BC5413C2ADE58054F79F0447E62E988
:10146000872D4FC2C61C54DB018A159440BB0E8DDC
:1014700083E823A6C2D938BF0DC5A0384CF4BB21E0
:101480008FA7960ACE968D130900CC5C4831D745BC
:101490008B62FA6ECA53E177545DBBBA156CA0A398
:1014A000D63F8D88970E96915098D7DE11A9CCC75C
:1014B000D2FAE1EC93CBFAF55CD762721DE6796B58
:1014C000DEB554409F844F5958120E161923150F3C
:1014D000DA7038249B41233DA76BFD65E65AE67C14
:1014E0002509CB576438D04EA3AE9101E29F8A18EC
:1014F00021CCA73360FDBC2AAFE124ADEED03FB4D0
:101500002D83129F6CB20986AB2448C9EA1553D0CB
:1015100029467EFB687765E2F6793F2FB748243687
:10152000741B091D352A1204F2BC534BB38D48526B
:1015300070DE657931EF7E60FEF3E6E7BFC2FDFE47
:101540007C91D0D53DA0CBCCFA368A83BB07919A4B
:101550007854BCB13965A7A84B98833B0AA9982257
:10156000C9FAB50988CBAE104F5DEF5F0E6CF4463B
:10157000CD3FD96D8C0EC27443125AF3022341EA57
:10158000C1706CC1804177D847D7369706E62D8E5B
:10159000C5B500A584841BBC1A8A41715BBB5A681F
:1015A00098E87743D9D96C5A1E4F2D155F7E360CBB
:1015B0009C2D1B27DD1C003E120098B9533183A0DF
:1015C0009062AE8BD153B59216C5F4DD57F4EFC4DB
:1015D00094A7C2EFD596D9F6E9BC07AEA88D1CB783
:1015E0006BDE319C2AEF2A85ED796BCAAC4870D34B
:1015F0006F1B5DF82E2A46E1E136DE66A007C57F47
:101600006354E8542265F34DE5F3B202A4C2A91B6A
:101610006791843026A09F29B8AEC5E4F99FDEFD0E
:101620003ACCF3D67BFDE8CFBC6BA980FD5AB299CA
:101630003E099FB27F3884ABB0241C2CF1150735CE
:1016400032462A1E73773107B4E17048F5D06B51EA
:101650003683467A77B25D634ED7FACB0FE6E1D296
:10166000CCB5CCF98D84D7E04A1296AF0B238DB65A
:10167000C870A09D8941BB84465D2303076C381A5E
:10168000C43F1531850E0E2842984F6703A9547E3A
:10169000C0FA795581CB624C1FC538815EF423981E
:1016A0009DA70EB3DC9615AA1B0054E55A314FFCDA
:1016B000996262D7D85379CE174FE149567EFA50D6
:1016C000952DD77BD41CCC62138A8D2D52BB9634BA
:1016D00091E8BB1FD0D9A006ECF37E5EADC2654792
:1016E0006E91486C2FA05375E836123AA90709236A
:1016F0006A5424082B653F11E479A796A548BC8F4E
:10170000661B91A4272A8ABDE0BCCBF2A18DD0EB49
:1017100062DEFDC023EFE6D9BDE1BC14FCD0A70D0D
:101720003F838A267EB2913FB924D070F815CB69E9
:101730003B46E6427A77FD5BB56B65DCF45A7EC5C5
:10174000370953EE763848F7B1AE09B8F09F12A1C9
:1017500033CC3F8A72FD249300000000376AC20137
:101760006ED4840359BE4602DCA80907EBC2CB063F
:10177000B27C8D0485164F05B851130E8F3BD10FE7
:10178000D685970DE1EF550C64F91A095393D808E3
:101790000A2D9E0A3D475C0B70A3261C47C9E41D19
:1017A0001E77A21F291D601EAC0B2F1B9B61ED1A1B
:1017B000C2DFAB18F5B56919C8F23512FF98F713F7
:1017C000A626B111914C7310145A3C152330FE1407
:1017D0007A8EB8164DE47A17E0464D38D72C8F39FB
:1017E0008E92C93BB9F80B3A3CEE443F0B84863EDF
:1017F000523AC03C6550023D58175E366F7D9C37AB
:1018000036C3DA3501A9183484BF5731B3D59530C2
:10181000EA6BD332DD01113390E56B24A78FA92544
:10182000FE31EF27C95B2D264C4D62237B27A0227A
:101830002299E62015F3242128B4782A1FDEBA2B3A
:101840004660FC29710A3E28F41C712DC376B32C26
:101850009AC8F52EADA2372FC08D9A70F7E7587150
:10186000AE591E739933DC721C2593772B4F51763A
:1018700072F11774459BD57578DC897E4FB64B7F26
:1018800016080D7D2162CF7CA4748079931E427866
:10189000CAA0047AFDCAC67BB02EBC6C87447E6D9C
:1018A000DEFA386FE990FA6E6C86B56B5BEC776A9E
:1018B000025231683538F369087FAF623F156D63B6
:1018C00066AB2B6151C1E960D4D7A665E3BD646402
:1018D000BA0322668D69E06720CBD74817A1154966
:1018E0004E1F534B7975914AFC63DE4FCB091C4E5A
:1018F00092B75A4CA5DD984D989AC446AFF006476A
:10190000F64E4045C12482444432CD4173580F40C5
:101910002AE649421D8C8B435068F15467023355C7
:101920003EBC755709D6B7568CC0F853BBAA3A527D
:10193000E2147C50D57EBE51E839E25ADF53205B79
:1019400086ED6659B187A4583491EB5D03FB295CA1
:101950005A456F5E6D2FAD5F801B35E1B771F7E0C3
:10196000EECFB1E2D9A573E35CB33CE66BD9FEE7F9
:101970003267B8E5050D7AE4384A26EF0F20E4EE29
:10198000569EA2EC61F460EDE4E22FE8D388EDE925
:101990008A36ABEBBD5C69EAF0B813FDC7D2D1FC67
:1019A0009E6C97FEA90655FF2C101AFA1B7AD8FBDD
:1019B00042C49EF975AE5CF848E900F37F83C2F239
:1019C000263D84F0115746F1944109F4A32BCBF541
:1019D000FA958DF7CDFF4FF6605D78D95737BAD8B5
:1019E0000E89FCDA39E33EDBBCF571DE8B9FB3DF99
:1019F000D221F5DDE54B37DCD80C6BD7EF66A9D6E5
:101A0000B6D8EFD481B22DD504A462D033CEA0D104
:101A10006A70E6D35D1A24D210FE5EC527949CC47A
:101A20007E2ADAC6494018C7CC5657C2FB3C95C33C
:101A3000A282D3C195E811C0A8AF4DCB9FC58FCA74
:101A4000C67BC9C8F1110BC9740744CC436D86CD60
:101A50001AD3C0CF2DB902CE4096AF9177FC6D90CE
:101A60002E422B921928E9939C3EA696AB5464977C
:101A7000F2EA2295C580E094F8C7BC9FCFAD7E9E68
:101A80009613389CA179FA9D246FB5981305779920
:101A90004ABB319B7DD1F39A3035898D075F4B8CE2
:101AA0005EE10D8E698BCF8FEC9D808ADBF7428BD8
:101AB00082490489B523C68888649A83BF0E5882F8
:101AC000E6B01E80D1DADC8154CC938463A65185C4
:101AD0003A1817870D72D586A0D0E2A997BA20A828
:101AE000CE0466AAF96EA4AB7C78EBAE4B1229AF9C
:101AF00012AC6FAD25C6ADAC1881F1A72FEB33A6A4
:101B0000765575A4413FB7A5C429F8A0F3433AA17F
:101B1000AAFD7CA39D97BEA2D073C4B5E71906B4F5
:101B2000BEA740B689CD82B70CDBCDB23BB10FB3B7
:101B3000620F49B155658BB06822D7BB5F4815BAB3
:101B400006F653B8319C91B9B48ADEBC83E01CBD63
:101B5000DA5E5ABFED3498BE000000006567BCB87D
:101B60008BC809AAEEAFB5125797628F32F0DE37F5
:101B7000DC5F6B25B938D79DEF28B4C58A4F087D47
:101B800064E0BD6F018701D7B8BFD64ADDD86AF2DD
:101B90003377DFE0561063589F571950FA30A5E8A5
:101BA000149F10FA71F8AC42C8C07BDFADA7C767BD
:101BB00043087275266FCECD707FAD951518112D27
:101BC000FBB7A43F9ED0188727E8CF1A428F73A295
:101BD000AC20C6B0C9477A083EAF32A05BC88E18A9
:101BE000B5673B0AD00087B26938502F0C5FEC977D
:101BF000E2F059858797E53DD1878665B4E03ADD07
:101C00005A4F8FCF3F2833778610E4EAE377585254
:101C10000DD8ED4068BF51F8A1F82BF0C49F97484C
:101C20002A30225A4F579EE2F66F497F9308F5C734
:101C30007DA740D518C0FC6D4ED09F352BB7238DA6
:101C4000C518969FA07F2A271947FDBA7C2041021C
:101C5000928FF410F7E848A83D58149B583FA823EA
:101C6000B6901D31D3F7A1896ACF76140FA8CAACFC
:101C7000E1077FBE8460C306D270A05EB7171CE682
:101C800059B8A9F43CDF154C85E7C2D1E0807E69E4
:101C90000E2FCB7B6B4877C3A20F0DCBC768B173F8
:101CA00029C704614CA0B8D9F5986F4490FFD3FCC4
:101CB0007E5066EE1B37DA564D27B90E284005B622
:101CC000C6EFB0A4A3880C1C1AB0DB817FD767399C
:101CD0009178D22BF41F6E9303F7263B66909A837C
:101CE000883F2F91ED589329546044B43107F80C84
:101CF000DFA84D1EBACFF1A6ECDF92FE89B82E46C2
:101D000067179B54027027ECBB48F071DE2F4CC95B
:101D10003080F9DB55E745639CA03F6BF9C783D35F
:101D2000176836C1720F8A79CB375DE4AE50E15C3B
:101D300040FF544E2598E8F673888BAE16EF3716A1
:101D4000F84082049D273EBC241FE9214178559923
:101D5000AFD7E08BCAB05C333BB659ED5ED1E555E9
:101D6000B07E5047D519ECFF6C213B62094687DAFB
:101D7000E7E932C8828E8E70D49EED28B1F9519079
:101D80005F56E4823A31583A83098FA7E66E331FD3
:101D900008C1860D6DA63AB5A4E140BDC186FC051B
:101DA0002F2949174A4EF5AFF376223296119E8AB3
:101DB00078BE2B981DD997204BC9F4782EAE48C019
:101DC000C001FDD2A566416A1C5E96F779392A4F9B
:101DD00097969F5DF2F123E505196B4D607ED7F56F
:101DE0008ED162E7EBB6DE5F528E09C237E9B57A73
:101DF000D9460068BC21BCD0EA31DF888F566330F9
:101E000061F9D622049E6A9ABDA6BD07D8C101BF5A
:101E1000366EB4AD530908159A4E721DFF29CEA532
:101E200011867BB774E1C70FCDD91092A8BEAC2A3A
:101E3000461119382376A5807566C6D810017A60D8
:101E4000FEAECF729BC973CA22F1A457479618EF12
:101E5000A939ADFDCC5E114506EE4D766389F1CE14
:101E60008D2644DCE841F86451792FF9341E934102
:101E7000DAB12653BFD69AEBE9C6F9B38CA1450B6C
:101E8000620EF01907694CA1BE519B3CDB362784DA
:101E90003599929650FE2E2E99B95426FCDEE89E76
:101EA00012715D8C7716E134CE2E36A9AB498A11BA
:101EB00045E63F03208183BB7691E0E313F65C5B4C
:101EC000FD59E949983E55F12106826C44613ED4A2
:101ED000AACE8BC6CFA9377E38417FD65D26C36E8A
:101EE000B389767CD6EECAC46FD61D590AB1A1E17A
:101EF000E41E14F38179A84BD769CB13B20E77ABEC
:101F00005CA1C2B939C67E0180FEA99CE599152461
:101F10000B36A0366E511C8EA7166686C271DA3E4D
:101F20002CDE6F2C49B9D394F081040995E6B8B141
:101F30007B490DA31E2EB11B483ED2432D596EFB8B
:101F4000C3F6DBE9A69167511FA9B0CC7ACE0C7419
:101F50009461B966F10605DE0A5061676520686123
:101F600073206E6F74206265656E20696D706C659C
:101F70006D656E74656420796574000A50616765EB
:101F800020686173206E6F74206265656E20696DD4
:101F9000706C656D656E7465642079657400000011
:101FA00020002300260029002C002F003200000111
:101FB00000000301060109010000210024002700A0
:101FC0002A002D0030003300010100000401070148
:101FD0000A0100002200250028002B002E003100FD
:101FE000340002010000050108010B01050505058B
:101FF000070508080808020202020A0A0808040481
:1020000004040101010101010101030303030303AE
:102010000303040707070C0C0C0C0C0C0C0C02023D
:10202000020206060606060606060B0B0B0B0B0B3A
:102030000B0B0102102020080810204010204080C7
:10204000020102010804020101020408102040807C
:10205000804020100804020180040201804020100A
:102060000804020108040201010204081020408053
:10207000010204081020408000000A0B02090C0D28
:102080000E0807030401000000000000000000002B
:102090000000000000000000000000000000000040
:1020A00000000000121110000000000000000000FD
:1020B00000000000000000000000000000006F03AE
:1020C00011241FBECFEFD1E2DEBFCDBF00E00CBFB9
:1020D00012E0A0E0B2E0EEE8FCE003E00BBF02C0DB
:1020E00007900D92A03BB107D9F724E1A0EBB2E035
:1020F00001C01D92A137B207E1F710E1C0E6D0E1BF
:1021000000E006C021970109802FFE010F9422866E
:10211000CF35D10780E00807A9F70F945A660D94D0
:1021200045860C9400006F927F928F929F92AF929F
:10213000BF92CF92DF92EF92FF920F931F93CF93B4
:10214000DF931F921F92CDB7DEB700E010E083E26D
:1021500091E00F94CE856091880EA9E8CA2EAEE07A
:10216000DA2E861731F083E291E00F94D68501E0F4
:1021700010E084E2E82EFF24F3940F3111050CF0F7
:102180007DC0C7010F94CE85F60161916F0186175E
:1021900029F0C7010F94D6850F5F1F4FFFEFEF1A8D
:1021A000FF0A23EAE21621E0F20609F47BC00F31B0
:1021B00011050CF063C0C7010F94CE85F601608154
:1021C000861729F0C7010F94D6850F5F1F4F57015F
:1021D000FFEFAF1ABF0A0F3111050CF04FC0C50158
:1021E0000F94CE85F6016181861729F0C5010F9401
:1021F000D6850F5F1F4F3701F2E06F0E711C0F3154
:102200001105E4F5C3010F94CE85F60162818617AE
:1022100029F0C3010F94D6850F5F1F4F4701F3E0EC
:102220008F0E911C0F3111054CF5C4010F94CE8512
:10223000F6016381861729F0C4010F94D6850F5FDC
:102240001F4F5701F4E0AF0EB11C0F311105B4F46C
:10225000C5010F94CE85F6016481F5E0CF0ED11C47
:10226000861729F0C5010F94D6850F5F1F4F25E013
:10227000E20EF11C0F3111050CF483CF91E0909325
:10228000AF0A0F900F90DF91CF911F910F91FF90A8
:10229000EF90DF90CF90BF90AF909F908F907F9006
:1022A0006F9008950F3111054CF71092AF0A81E03D
:1022B00090E00F94CE856091080F861709F4CEC088
:1022C00081E090E00F94D685F2E0FF2E712C01E0C2
:1022D00010E082E090E00F94CE856091090F6817BE
:1022E00031F082E090E00F94D6850F2D172D63E03A
:1022F000C62ED12CA0C035952795359527953595B7
:10230000279535952795EE27FF27E21BF30B3F9680
:10231000EE0FFF1F40910A0F50910B0FE40FF51FB6
:102320009FE0E922FF240190F081E02DEE0DFF1DDA
:102330006081861729F0C6010F94D6850F5F1F4F65
:102340003601EFEF6E1A7E0AF3E06F16F1E07F06BA
:1023500009F48AC00F3111050CF090CF22E0C21AA7
:10236000D108C3010F94CE85B601D7FC71C0759515
:102370006795759567957595679575956795EE273A
:10238000FF27E61BF70B3F96EE0FFF1FA0910A0FEA
:10239000B0910B0FEA0FFB1F9FE0C922DD240190D3
:1023A000F081E02DEC0DFD1D6081861729F0C30141
:1023B0000F94D6850F5F1F4F4301EFEF8E1A9E0AD1
:1023C0000F3111050CF05ACF5301F2E0AF1AB108EA
:1023D000C4010F94CE859501B7FC3DC03595279576
:1023E000359527953595279535952795EE27FF2720
:1023F000E21BF30B3F96EE0FFF1FE0900A0FF090E9
:102400000B0FEE0DFF1D2FE0A222BB240190F081E7
:10241000E02DEA0DFB1D6081861729F0C4010F94A1
:10242000D6850F5F1F4F630182E0C80ED11C0F31AC
:1024300011050CF023CF760183E0E81AF108C601FC
:102440000F94CE859701F7FE56CF215F3F4F53CFB4
:10245000615F7F4F8CCF215F3F4FC0CFFF24F3944C
:10246000712C00E010E035CF0F3111050CF006CFD4
:10247000A12CB12C73E0E72EFF24F39480900C0F75
:1024800090900D0FE4E66E2E712CC7010F94CE854F
:10249000382FF401EA0DFB1D80819181B3010F9467
:1024A0004484832F90E0AB01552784179507C9F02A
:1024B000C7010F94D6850F5F1F4F8FEFE81AF80AF8
:1024C00093E1E91691E0F906C1F022E0A20EB11CF9
:1024D0000F31110509F4D2CE80900C0F90900D0FA2
:1024E000D4CF9FEFE91AF90AE3E1EE16E1E0FE0628
:1024F00021F082E0A80EB11CC8CF0F31110509F4FC
:10250000BDCE612C712C03E111E064C06C01D59447
:10251000C794C8010F94CE85C81621F06C2DC80150
:102520000F94D6850F5F1F4FE2E06E0E711CE09195
:102530000E0FF0910F0FE60DF71D6081718177FD91
:1025400033C16B01D594C794C8010F94CE85C816CA
:1025500021F06C2DC8010F94D68558018FEFA81A71
:10256000B80AE0910E0FF0910F0FE60DF71DA28152
:10257000B381B7FD1CC16D01D594C794C5010F94FB
:10258000CE85C81621F06C2DC5010F94D685780133
:1025900092E0E90EF11CE0910E0FF0910F0FE60DA5
:1025A000F71D2481358137FDFCC06901D594C7949E
:1025B000C7010F94CE85C81621F06C2DC7010F946A
:1025C000D6850D5F1F4FE6E06E0E711C0332F1E001
:1025D0001F0761F0E0910E0FF0910F0FE60DF71D50
:1025E0008081918197FF92CF019690CF1092AF0A90
:1025F00083EA91E00F94CE856091760E861709F4F8
:10260000CBC083EA91E00F94D68512E0712CEE24C2
:10261000E394F12C84EA91E00F94CE856091770EDB
:10262000861731F084EA91E00F94D685E12EF72CDD
:1026300005EA11E0A5C0959587959595879595959F
:10264000879595958795EE27FF27E81BF90B3F9611
:10265000EE0FFF1FC090780ED090790EEC0DFD1D8F
:102660004F7055270190F081E02DE40FF51F608039
:10267000C8010F94CE85681639F0662DC8010F94F5
:10268000D6858FEFE81AF80A48019FEF891A990A50
:10269000E5EA8E16E2E09E0609F48BC02FE1E21611
:1026A000F1040CF0EBCD045A1140C80117FD70C0C5
:1026B0009595879595958795959587959595879502
:1026C000EE27FF27E81BF90B3F96EE0FFF1F6091E7
:1026D000780E7091790EE60FF71F0F701127019099
:1026E000F081E02DE00FF11F0081C4010F94CE8531
:1026F000081739F0602FC4010F94D6859FEFE91AAF
:10270000F90A84010F5F1F4FEFE1EE16F1040CF0A0
:10271000B5CD9401245A3140D90137FD3BC0B59560
:10272000A795B595A795B595A795B595A795EE27C6
:10273000FF27EA1BFB0B3F96EE0FFF1FA090780EC2
:10274000B090790EEA0DFB1D2F7033270190F081B8
:10275000E02DE20FF31FB080C8010F94CE85B816AC
:1027600039F06B2DC8010F94D685FFEFEF1AFF0AE1
:1027700084010E5F1F4F2FE1E216F1040CF07ECDB5
:10278000A801455A5140CA0157FF55CF0F9653CF64
:102790000F968ECF1F96C3CF11E0712CE12CF12C38
:1027A00039CF2F5F3F4F01CF6F5F7F4FCACE11965A
:1027B000E2CEFFE1EF16F1040CF060CDC12CD12C7C
:1027C00005EA12E0A0907A0EB0907B0EB4E68B2E54
:1027D000912CF501EC0DFD1D80819181B4010F94C8
:1027E0004484762EC8010F94CE857816D1F0672DDB
:1027F000C8010F94D6859FEFE91AF90A0F5F1F4FA2
:10280000053BE2E01E07B9F022E0C20ED11C8FE1C9
:10281000E816F10409F432CDA0907A0EB0907B0E48
:10282000D8CF0F5F1F4F053B22E0120721F0F2E0E7
:10283000CF0ED11CCECFFFE1EF16F10409F41ECD6F
:10284000C12CD12C05EB12E0E0917C0EF0917D0EB5
:10285000EC0DFD1D4081518157FD55C15A01B594C4
:10286000A794C8010F94CE85A81639F06A2DC80127
:102870000F94D6858FEFE81AF80A0F5F1F4F053CBB
:1028800092E0190709F49BC0F2E0CF0ED11C2FE1B2
:10289000E216F10409F4F2CCE0917C0EF0917D0E89
:1028A000EC0DFD1D8081918197FD30C15C01B594D7
:1028B000A794C8010F94CE85A81639F06A2DC801D7
:1028C0000F94D6858FEFE81AF80A58019FEFA91ADE
:1028D000B90AD6011296EFE1EE16F10409F4CECC56
:1028E00060917C0E70917D0EFB01EA0FFB1F208131
:1028F000318137FD0DC1490195948794C5010F942D
:10290000CE85881639F0682DC5010F94D685FFEF66
:10291000EF1AFF0A580122E0A20EB11CC60104966C
:10292000EFE1EE16F10409F4A9CC60907C0E7090F2
:102930007D0EF301E80FF91F4081518157FDEBC077
:102940004A0195948794C5010F94CE85881639F075
:10295000682DC5010F94D685FFEFEF1AFF0A5801C5
:1029600023E0A20EB11CD6011696EFE1EE16F1049B
:1029700009F484CC80907C0E90907D0EF401EA0FD7
:10298000FB1F6081718177FDC9C04B0195948794CD
:10299000C5010F94CE85881639F0682DC5010F94B6
:1029A000D685FFEFEF1AFF0A0C5F1F4F28E0C20E1B
:1029B000D11C8FE1E816F10409F046CF5FCCEFE1BE
:1029C000EE16F10409F45ACC1092AF0A00E010E0C0
:1029D00085EC92E00F94CE856091F60D57EFC52EF1
:1029E0005DE0D52E861731F085EC92E00F94D68508
:1029F00001E010E056ECE52E52E0F52E0F31110506
:102A00000CF03CCCC7010F94CE85F60161916F01AB
:102A1000861729F0C7010F94D6850F5F1F4FFFEF70
:102A2000EF1AFF0A25E4E21623E0F20609F479C062
:102A30000F3111050CF022CCC7010F94CE85F601A1
:102A40006081861729F0C7010F94D6850F5F1F4F4D
:102A50003701FFEF6F1A7F0A0F3111050CF00ECC12
:102A6000C3010F94CE85F6016181861729F0C30159
:102A70000F94D6850F5F1F4F5701F2E0AF0EB11CC8
:102A80000F3111050CF0FACBC5010F94CE85F6017C
:102A90006281861729F0C5010F94D6850F5F1F4FFD
:102AA0004701F3E08F0E911C0F3111050CF0E6CBBE
:102AB000C4010F94CE85F6016381861729F0C40105
:102AC0000F94D6850F5F1F4F3701F4E06F0E711C16
:102AD0000F3111050CF0D2CBC3010F94CE85F60156
:102AE0006481F5E0CF0ED11C861729F0C3010F9445
:102AF000D6850F5F1F4F25E0E20EF11C0F31110547
:102B00000CF480CFBBCB4F5F5F4FA8CE0196CECEEB
:102B10002F5F3F4FF0CE4F5F5F4F12CF6F5F7F4F02
:102B200034CF0F3111050CF0A9CB1092AF0A85E418
:102B300093E00F94CE856091E40D861709F4CEC022
:102B400085E493E00F94D68512E0D12CEE24E39433
:102B5000F12C86E493E00F94CE856091E50D861705
:102B600031F086E493E00F94D685E12EFD2C07E446
:102B700013E0A1C03595279535952795359527956F
:102B800035952795EE27FF27E21BF30B3F96EE0FB7
:102B9000FF1F4091E60D5091E70DE40FF51F2FE068
:102BA000C222DD240190F081E02DEC0DFD1D60813D
:102BB000861731F0C8010F94D6858FEFE81AF80A0E
:102BC00048019FEF891A990AE7E48E16E4E09E0611
:102BD00009F489C09FE1E916F1040CF04FCB0654CB
:102BE0001340C4010F94CE85D80117FD72C0B5956E
:102BF000A795B595A795B595A795B595A795EE27F2
:102C0000FF27EA1BFB0B3F96EE0FFF1F6091E60DBF
:102C10007091E70DE60FF71F0F7011270190F081FB
:102C2000E02DE00FF11F6081861731F0C4010F9491
:102C3000D6858FEFE81AF80A54019FEFA91AB90A4E
:102C4000EFE1EE16F1040CF019CB840106541340A9
:102C5000C5010F94CE85980117FD3DC03595279588
:102C6000359527953595279535952795EE27FF2797
:102C7000E21BF30B3F96EE0FFF1F6090E60D709086
:102C8000E70DE60DF71D0F7011270190F081E02D83
:102C9000E00FF11F6081861731F0C5010F94D685D2
:102CA000FFEFEF1AFF0A84010E5F1F4F2FE1E216BC
:102CB000F1040CF0E3CA6801E7E4CE1AE3E0DE0AAF
:102CC000C8010F94CE859601D7FE54CF215F3F4FA8
:102CD00051CF1F968CCF215F3F4FC0CF11E0D12C39
:102CE000E12CF12C36CF8FE1E816F1040CF0C6CAC6
:102CF000C12CD12C07E414E0A090E80DB090E90DB0
:102D000034E6832E912CC8010F94CE85382FF5011F
:102D1000EC0DFD1D80819181B4010F944484832FBB
:102D200090E0AB01552784179507C9F0C8010F94AF
:102D3000D6859FEFE91AF90A0F5F1F4F0735E4E0C8
:102D40001E07B9F022E0C20ED11C8FE1E816F10493
:102D500009F494CAA090E80DB090E90DD4CF0F5FAC
:102D60001F4F073594E0190721F082E0C80ED11CEF
:102D7000CACFFFE1EF16F10409F480CAE12CF12C6F
:102D800007E514E064C06C01D594C794C8010F94A2
:102D9000CE85C81621F06C2DC8010F94D6850F5F23
:102DA0001F4FF2E0EF0EF11CE091EA0DF091EB0DF8
:102DB000EE0DFF1DA081B181B7FD00C16D01D5945D
:102DC000C794C8010F94CE85C81621F06C2DC80198
:102DD0000F94D68538019FEF691A790AE091EA0DC0
:102DE000F091EB0DEE0DFF1D6281738177FDE8C060
:102DF0006B01D594C794C3010F94CE85C81621F0FA
:102E00006C2DC3010F94D6855801E2E0AE0EB11CC3
:102E1000E091EA0DF091EB0DEE0DFF1D248135815F
:102E200037FDC9C06901D594C794C5010F94CE85FB
:102E3000C81621F06C2DC5010F94D6850D5F1F4F6C
:102E4000F6E0EF0EF11C073624E0120761F0E09186
:102E5000EA0DF091EB0DEE0DFF1D8081918197FF42
:102E600092CF019690CF1092AF0A812C912C87E6D9
:102E700094E00F94CE856091640D15E6C12E1DE09F
:102E8000D12E861739F087E694E00F94D6858824F2
:102E90008394912C08E614E09FE1891691040CF0CC
:102EA000EDC9C8010F94CE85F60161916F018617B7
:102EB00031F0C8010F94D685FFEF8F1A9F0A0F5F7C
:102EC0001F4F073E24E0120709F47DC02FE1821650
:102ED00091040CF0D3C9C8010F94CE85F60160812E
:102EE000861731F0C8010F94D685FFEF8F1A9F0A1D
:102EF00078012FEFE21AF20A8FE1881691040CF0A4
:102F0000BDC9C7010F94CE85F6016181861731F0E6
:102F1000C7010F94D685FFEF8F1A9F0A380122E070
:102F2000620E711C8FE1881691040CF0A7C9C301D1
:102F30000F94CE85F6016281861731F0C3010F949C
:102F4000D685FFEF8F1A9F0A580123E0A20EB11C0D
:102F50008FE1881691040CF091C9C5010F94CE85BC
:102F6000F6016381861731F0C5010F94D685FFEF16
:102F70008F1A9F0A780124E0E20EF11C8FE1881677
:102F800091040CF07BC9C7010F94CE85F6016481D2
:102F9000F5E0CF0ED11C861731F0C7010F94D6850E
:102FA0002FEF821A920A0B5F1F4F8FE18816910450
:102FB0000CF477CF63C92F5F3F4F34CF1196FECE0D
:102FC0006F5F7F4F15CF8FE1881691040CF056C9C3
:102FD0001092AF0A87E00F94910A5091AF0A5111F5
:102FE00050C988E00F94910A7091AF0A711149C9D4
:102FF000812C912C8EEA96E00F94CE856091260C60
:10300000B7E2CB2EBCE0DB2E861739F08EEA96E0D5
:103010000F94D68588248394912C0FEA16E09FE1C3
:10302000891691040CF02AC9C8010F94CE85F601C7
:1030300061916F01861731F0C8010F94D685FFEFBB
:103040008F1A9F0A0F5F1F4F0E3627E0120709F4F1
:103050005FC09FE1891691040CF010C9C8010F945C
:10306000CE85F6016081861731F0C8010F94D685B0
:10307000FFEF8F1A9F0A38012FEF621A720A8FE151
:10308000881691040CF0FAC8C3010F94CE85F6019E
:103090006181861731F0C3010F94D685FFEF8F1A37
:1030A0009F0A580122E0A20EB11C8FE188169104FC
:1030B0000CF0E4C8C5010F94CE85F6016281861735
:1030C00031F0C5010F94D685FFEF8F1A9F0A780162
:1030D00023E0E20EF11C8FE1881691040CF0CEC8BB
:1030E000C7010F94CE85F6016381F4E0CF0ED11CA9
:1030F000861731F0C7010F94D6852FEF821A920AF6
:103100000C5F1F4F8FE1881691040CF48DCFB6C869
:103110008FE1881691040CF0B1C81092AF0A812C8F
:10312000912C8EE697E00F94CE856091660BA7E612
:10313000CA2EABE0DA2E861739F08EE697E00F94B0
:10314000D68588248394912C0FE617E02FE1821610
:1031500091040CF093C8C8010F94CE85F6016191DB
:103160006F01861731F0C8010F94D685FFEF8F1AD3
:103170009F0A0F5F1F4F0E3228E0120709F45FC04D
:103180009FE1891691040CF079C8C8010F94CE858F
:10319000F6016081861731F0C8010F94D685FFEFE4
:1031A0008F1A9F0A38012FEF621A720A8FE1881670
:1031B00091040CF063C8C3010F94CE85F6016181C0
:1031C000861731F0C3010F94D685FFEF8F1A9F0A3F
:1031D000580122E0A20EB11C8FE1881691040CF078
:1031E0004DC8C5010F94CE85F6016281861731F076
:1031F000C5010F94D685FFEF8F1A9F0A780123E04F
:10320000E20EF11C8FE1881691040CF037C8C7015B
:103210000F94CE85F6016381F4E0CF0ED11C8617A2
:1032200031F0C7010F94D6852FEF821A920A0C5FF6
:103230001F4F8FE1881691040CF48DCF1FC88FE1CA
:10324000881691040CF01AC81092AF0A6091540BC2
:103250001A830983CE0101960E944AC26091550BE0
:103260004FE258E05A834983CE0101960E944AC238
:1032700000E318E0F2E0EF2EF12CA4C0B595A7957D
:10328000B595A795B595A795B595A795EE27FF2771
:10329000EA1BFB0B3F96EE0FFF1F6091560B7091E0
:1032A000570BE60FF71F2FE0822299240190F0813F
:1032B000E02DE80DF91D6081861731F0C8010F94EB
:1032C000D6858FEFE81AF80A68019FEFC91AD90A64
:1032D000E0E3CE16E9E0DE0609F486C0EFE1EE1683
:1032E000F10414F00C943E110F521840C6010F94D3
:1032F000CE85980117FD73C035952795359527958F
:103300003595279535952795EE27FF27E21BF30B7B
:103310003F96EE0FFF1F6090560B7090570BE60D17
:10332000F71D0F7011270190F081E02DE00FF11FC4
:103330006081861731F0C6010F94D6852FEFE21A0F
:10334000F20A56018FEFA81AB80A9FE1E916F104B4
:1033500014F00C943E1186010F521840C5010F94D1
:10336000CE85D80117FD3EC0B595A795B595A79513
:10337000B595A795B595A795EE27FF27EA1BFB0BFB
:103380003F96EE0FFF1F4091560B5091570BE40FE5
:10339000F51F0F7011270190F081E02DE00FF11F54
:1033A0006081861731F0C5010F94D685EFEFEE1AD4
:1033B000FE0A86010E5F1F4FFFE1EF16F10414F0C5
:1033C0000C943E114801F0E38F1AF8E09F0AC801FF
:1033D0000F94CE85D40197FE51CF1F964FCF215F1A
:1033E0003F4F8ACF1F96C0CF9FE1E916F10414F03A
:1033F0000C943E11C12CD12C00E319E06090580BC5
:103400007090590BE4E68E2E912CC8010F94CE8556
:10341000382FF301EC0DFD1D80819181B4010F94D3
:103420004484832F90E09B01332782179307D1F0C8
:10343000C8010F94D6858FEFE81AF80A0F5F1F4F67
:10344000013499E01907C1F0F2E0CF0ED11C2FE151
:10345000E216F10411F40C943E116090580B709038
:10346000590BD3CF0F5F1F4F0134F9E01F0721F035
:10347000E2E0CE0ED11CC9CFEFE1EE16F10411F45B
:103480000C943E11612C712C01E419E064C06C01B4
:10349000D594C794C8010F94CE85C81621F06C2D21
:1034A000C8010F94D6850F5F1F4FF2E06F0E711C9D
:1034B000E0915A0BF0915B0BE60DF71D6081718175
:1034C00077FD33C16B01D594C794C8010F94CE85A5
:1034D000C81621F06C2DC8010F94D68558018FEFC6
:1034E000A81AB80AE0915A0BF0915B0BE60DF71D94
:1034F000A281B381B7FD1CC16D01D594C794C501EC
:103500000F94CE85C81621F06C2DC5010F94D68579
:10351000780192E0E90EF11CE0915A0BF0915B0BFF
:10352000E60DF71D4481558157FDFCC06A01D59415
:10353000C794C7010F94CE85C81621F06C2DC70122
:103540000F94D6850D5F1F4FE6E06E0E711C01359E
:10355000F9E01F0761F0E0915A0BF0915B0BE60D6B
:10356000F71D8081918197FF92CF019690CF1092A5
:10357000AF0A81E599E00F94CE856091420B8617E2
:1035800009F4CBC081E599E00F94D68512E0712C47
:10359000EE24E394F12C82E599E00F94CE856091BE
:1035A000430B681731F082E599E00F94D685E12E40
:1035B000F72C03E519E09EC035952795359527959D
:1035C00035952795EE27FF27E21BF30B3796EE0F75
:1035D000FF1FC090440BD090450BEC0DFD1D27E064
:1035E000822299240190F081E02DE80DF91D60817F
:1035F000861731F0C8010F94D6858FEFE81AF80AC4
:1036000038019FEF691A790AE3E96E16E9E07E0650
:1036100009F490C08FE1E816F10414F00C943E1107
:1036200002551940C3010F94CE85D80117FD70C013
:10363000B595A795B595A795B595A795EE27FF27BD
:10364000EA1BFB0B3796EE0FFF1F6091440B709146
:10365000450BE60FF71F077011270190F081E02D51
:10366000E00FF11F6081861731F0C3010F94D685FA
:103670008FEFE81AF80A53019FEFA91AB90AEFE190
:10368000EE16F10414F00C943E118301025519401A
:10369000C5010F94CE85980117FD3CC0359527953F
:1036A0003595279535952795EE27FF27E21BF30BD8
:1036B0003796EE0FFF1F4091440B5091450BE40FDE
:1036C000F51F077011270190F081E02DE00FF11F29
:1036D0006081861731F0C5010F94D685FFEFEF1A90
:1036E000FF0A83010E5F1F4F2FE1E216F10414F071
:1036F0000C943E11480193E5891A99E0990AC80192
:103700000F94CE85940197FE57CF295F3F4F54CF3A
:1037100017968ECF295F3F4FC1CF11E0712CE12C5E
:10372000F12C39CF4F5F5F4F01CF6F5F7F4FCACE14
:103730001196E2CE2FE1E216F10414F00C943E1142
:10374000C12CD12C03E919E06090460B7090470B17
:1037500034E6832E912CC8010F94CE85382FF301C7
:10376000EC0DFD1D80819181B4010F944484832F61
:1037700090E0DB01BB278A179B07D1F0C8010F94AB
:10378000D6859FEFE91AF90A0F5F1F4F0B39E9E061
:103790001E07C1F022E0C20ED11C8FE1E816F10431
:1037A00011F40C943E116090460B7090470BD3CFF0
:1037B0000F5F1F4F0B3989E0180721F022E0C20E7E
:1037C000D11CC9CFFFE1EF16F10411F40C943E11A6
:1037D000A12CB12C0BE919E01DC07595679590E0FF
:1037E0009B0133278217930731F0C8010F94D685C8
:1037F0008FEFE81AF80A0F5F1F4F033A99E0190795
:10380000C9F0F2E0AF0EB11C2FE1E216F10411F4A1
:103810000C943E11C8010F94CE85E091480BF091B5
:10382000490BEA0DFB1D6081718177FFD6CF6F5F79
:103830007F4FD3CFEFE1EE16F10411F40C943E115B
:103840001092AF0A00E010E084EA99E00F94CE8570
:103850006091C20AA3EC8A2EAAE09A2E861731F054
:1038600084EA99E00F94D68501E010E0E5EAEE2EB7
:10387000E9E0FE2E0F31110514F00C943E11C70142
:103880000F94CE85F40161914F01861729F0C7018D
:103890000F94D6850F5F1F4FFFEFEF1AFF0A24E248
:1038A000E2162AE0F20609F471C00F31110514F096
:1038B0000C943E11C7010F94CE85F40160818617E8
:1038C00029F0C7010F94D6850F5F1F4F3701FFEF17
:1038D0006F1A7F0A0F31110514F00C943E11C301C9
:1038E0000F94CE85F4016181861729F0C3010F94EE
:1038F000D6850F5F1F4F6701F2E0CF0ED11C0F314D
:10390000110514F00C943E11C6010F94CE85F401FC
:103910006281861729F0C6010F94D6850F5F1F4F6D
:103920005701F3E0AF0EB11C0F31110514F00C94E8
:103930003E11C5010F94CE85F4016381861729F0ED
:10394000C5010F94D6850F5F1F4F3701F4E06F0E4E
:10395000711C0F31110514F00C943E11C3010F942A
:10396000CE85F4016481F5E08F0E911C861729F055
:10397000C3010F94D6850F5F1F4F25E0E20EF11CA7
:103980000F3111050CF47BCF0C943E110F31110552
:1039900014F00C943E111092AF0A84E29AE00F9456
:1039A000CE856091B00A861709F4CEC084E29AE011
:1039B0000F94D68512E0B12CEE24E394F12C85E22D
:1039C0009AE00F94CE856091B10A681731F085E2D4
:1039D0009AE00F94D685E12EFB2C06E21AE0A8C0EF
:1039E00095958795959587959595879595958795BF
:1039F000EE27FF27E81BF90B3F96EE0FFF1F6091A4
:103A0000B20A7091B30AE60FF71F4F705527019065
:103A1000F081E02DE40FF51F9080C8010F94CE8552
:103A2000981639F0692DC8010F94D685EFEFEE1A7C
:103A3000FE0A4801FFEF8F1A9F0A26E282162BE04A
:103A4000920609F486C09FE1E916F10414F00C9483
:103A50003E1105521A40C80117FD72C09595879511
:103A6000959587959595879595958795EE27FF2749
:103A7000E81BF90B3F96EE0FFF1FA091B20AB09121
:103A8000B30AEA0FFB1F0F7011270190F081E02DA0
:103A9000E00FF11FD080C4010F94CE85D81639F005
:103AA0006D2DC4010F94D6859FEFE91AF90A8401A0
:103AB0000F5F1F4FEFE1EE16F10414F00C943E116E
:103AC000940125523A40C90137FD3CC09595879530
:103AD000959587959595879595958795EE27FF27D9
:103AE000E81BF90B3F96EE0FFF1FC090B20AD09073
:103AF000B30AEC0DFD1D2F7033270190F081E02DEE
:103B0000E20FF31F7080C8010F94CE85781639F04C
:103B1000672DC8010F94D685FFEFEF1AFF0A8401C5
:103B20000E5F1F4F2FE1E216F10414F00C943E11CA
:103B3000A80146525A40CA0157FF52CF0F9650CFA4
:103B40000F968CCF0F96C2CF11E0B12CE12CF12C47
:103B500036CF8FE1E816F10414F00C943E11C12C1D
:103B6000D12C06E21BE0A090B40AB090B50AE4E6BE
:103B70008E2E912CF501EC0DFD1D80819181B401FB
:103B80000F944484762EC8010F94CE857816D9F010
:103B9000672DC8010F94D685FFEFEF1AFF0A0F5F5C
:103BA0001F4F06332BE01207C1F092E0C90ED11C63
:103BB000EFE1EE16F10411F40C943E11A090B40A5A
:103BC000B090B50AD7CF0F5F1F4F0633EBE01E074B
:103BD00021F092E0C90ED11CCDCF8FE1E816F1049F
:103BE00011F40C943E11C12CD12C06E31BE0E091A2
:103BF000B60AF091B70AEC0DFD1D4081518157FDC9
:103C0000C0C05A01B594A794C8010F94CE85A816D8
:103C100039F06A2DC8010F94D685EFEFEE1AFE0A2F
:103C20000F5F1F4F0634FBE01F0709F4A0C082E0BE
:103C3000C80ED11C9FE1E916F10411F40C943E1159
:103C4000E091B60AF091B70AEC0DFD1D608171811B
:103C500077FD9AC05B01B594A794C8010F94CE85F7
:103C6000A81639F06A2DC8010F94D685FFEFEF1A18
:103C7000FF0A58012FEFA21AB20AD6011296EFE1FD
:103C8000EE16F10411F40C943E112091B60A309115
:103C9000B70AF901EA0FFB1F8081918197FD77C078
:103CA0004C0195948794C5010F94CE85881639F000
:103CB000682DC5010F94D685FFEFEF1AFF0A580152
:103CC00022E0A20EB11CD6011496EFE1EE16F1042B
:103CD00011F40C943E116090B60A7090B70AF3018B
:103CE000EA0FFB1F4081518157FD53C04A01959453
:103CF0008794C5010F94CE85881639F0682DC501CB
:103D00000F94D685FFEFEF1AFF0A580123E0A20EA9
:103D1000B11CC6010696EFE1EE16F10411F40C9405
:103D20003E118090B60A9090B70AF401E80FF91F8F
:103D30006081718177FD30C04B0195948794C501F6
:103D40000F94CE85881639F0682DC5010F94D6855D
:103D5000FFEFEF1AFF0A0C5F1F4F28E0C20ED11CC5
:103D60008FE1E816F10409F042CF0C943E112FE1E7
:103D7000E216F10411F40C943E111092AF0A0C9467
:103D800041114F5F5F4F3DCF6F5F7F4F63CF019614
:103D900087CF4F5F5F4FAACF6F5F7F4FCDCF2F92FF
:103DA0003F924F925F926F927F928F929F92AF92CB
:103DB000BF92CF92DF92EF92FF920F931F93CF9318
:103DC000DF93CDB7DEB7C054D1090FB6F894DEBF8C
:103DD0000FBECDBF80910705909108050196909385
:103DE0000805809307052090520A2092DC08309045
:103DF0001E0F3110BDC44090A40A4110E8C4709059
:103E0000A50A7110CFC48091E413A090E51390E04F
:103E1000805C9F4F8A1991098F739927892B09F428
:103E20009CC40E94264EC090260CC0FE18C0409133
:103E30000705509108054F7155274130510509F488
:103E4000CCC380917C10D0907D1090E0805C9F4F1F
:103E50008D1991098F73992781970CF0BEC30F9428
:103E6000713A6093090570930A0580930B0590934E
:103E70000C0520900C0A30900D0A40900E0A5090CC
:103E80000F0A6B017C01C218D308E408F5084090C2
:103E90000A0250900B0260900C0270900D02C41444
:103EA000D504E604F70470F0E0900C0AF0900D0AD7
:103EB00000910E0A10910F0A6E157F058007910779
:103EC00008F0ACC0E0919409F09195091995AC0106
:103ED00060E070E040939F0F5093A00F6093A10F9C
:103EE0007093A20F90939D0F80939C0F9C01369529
:103EF000279536952795ABE7B4E10F94F78596950E
:103F0000879580939E0F2091BF04E091BD04F091AE
:103F1000BE048081822B808331E030934410409135
:103F2000AC0E4370413009F444C1413008F4DDC7A0
:103F3000423009F476C3433009F05EC4A0919C0F6F
:103F4000B0919D0FAB2B11F00C941A30A090A70FDD
:103F5000A092350520903105309032054090330510
:103F60005090340520922D0530922E0540922F0559
:103F7000509230050F94713A609331057093320579
:103F8000809333059093340580912C050F94513A1A
:103F900080912C050F94513A8C01035011090B3F6D
:103FA000134010F40C94163010912B051F5F1093E2
:103FB0002B0590909B08992011F40C94D440E0912B
:103FC0003B0EF0E0A0E0B1E0AE1BBF0B8090A30F72
:103FD0009090A40F9C010F9432861B012C019F012D
:103FE000D4010F943286620D731D841D951D472FD9
:103FF000582F692F772767FD7A95CA015093A40F30
:104000004093A30FB090B60E2091B70E3091B80E2A
:104010002B193109B7FC3395DC0151C410929D0F67
:1040200010929C0F1092EE0F1092ED0F1092B60F9F
:104030001092B80F10920C0A10920D0A10920E0AEC
:1040400010920F0A1092D4081092D5081092D60838
:104050001092D70810929B0F309138103F7E30930A
:1040600038101092FD0F10920A1010920B1010923F
:104070000C1010920D1010928B091092860910925C
:10408000850910929E0410929F041092A004109231
:10409000A10410929D0410929C041092B50F1092EE
:1040A000B40F10923705109236051092A2081092A4
:1040B000A1081092EF021092EE02B0909A08BB2075
:1040C00061F04091BF04E091BD04F091BE04D08046
:1040D00040954D214083109244100E94DC7910914C
:1040E000EC0F107E1093EC0FF0904810F11006C00A
:1040F00050914910552311F40C94E42F60918C04D5
:10410000E0918D04F0918E04708160956723608347
:1041100030908904E0918A04F0918B04608030949F
:1041200036203082A0916F00AB7FA0936F00109279
:10413000BB131092BC131092BD131092BE13E091EA
:10414000A913F091AA130081118122813381009378
:10415000BF131093C0132093C1133093C213109256
:10416000B7131092B8131092B9131092BA13109299
:10417000131010921210B0916F00BD7FB0936F00BA
:1041800050908F04E0919004F091910490815094AC
:1041900059225082F091350EF0FFC1CE60E080913F
:1041A000D7090F94DE394091AC0E4370413009F0CD
:1041B000BCCEA0919C0FB0919D0FAB2B11F40C9431
:1041C000E82F30919B0F332311F40C94E82F2091AA
:1041D0000A1030910B1040910C1050910D102230AC
:1041E00031054105510510F40C94E82FC0900A10D8
:1041F000D0900B10E0900C10F0900D1080919E0468
:1042000090919F04A091A004B091A104C816D90672
:10421000EA06FB0611F40C94FB3F40900A10509004
:104220000B1060900C1070900D100196A11DB11D27
:1042300084159505A605B70511F40C94FB3FE09095
:104240009804F090990400919A0410919B04EF282F
:10425000E02AE12A41F0E0919C04F0919D04EF2BCB
:1042600011F00C94A647D090A70FD092350520915D
:10427000310530913205409133055091340520933A
:104280002D0530932E0540932F05509330050F9444
:10429000713A6093310570933205809333059093A2
:1042A000340580912C050F94513A80912C050F9480
:1042B000513ADC011397AB3FB34010F00C94094125
:1042C00010922B05F0909B08FF2011F40C9461468E
:1042D000E0913B0EF0E0A0E0B1E0AE1BBF0B6090C0
:1042E000A30F7090A40F9C010F9432864B015C01C8
:1042F0009F01D3010F943286AB01BC01480D591DBB
:104300006A1D7B1D452F562F672F772767FD7A95EE
:10431000CA015093A40F4093A30F3090B60E209182
:10432000B70E3091B80E2319310937FC3395DC01F3
:104330000F9432868B019C01AAE03695279517953C
:104340000795AA95D1F7232C330C33084408550858
:10435000200E311E421E531E57FE02C00C944547CC
:104360002092A70F3092A80F4092A90F5092AA0F47
:10437000C0900A10D0900B10E0900C10F0900D102F
:10438000C0929E04D0929F04E092A004F092A104F7
:10439000109298041092990410929A0410929B041F
:1043A0001092EA021092EB021092EC021092ED02CF
:1043B00010929D0410929C047090DC0873FEA3C2BE
:1043C0001091520A177F1093520A81E00E940565EE
:1043D000B0901411B092E902E090A00D9090940D6D
:1043E000E3FE02C00C94852A96FE02C00C94852A36
:1043F000109204104091EA0F4E7F4093EA0FE3FEC3
:1044000011C0BB2079F0D090A30D04E6D09E3001FE
:10441000112420919C0F30919D0F6216730610F4A9
:104420000C94BB4110920910409112055091130554
:104430004038510508F467C21091E90F10641093D9
:10444000E90F7090DC0872FE62C25091520A5B7FE5
:104450005093520A0F94C660B1ECAB2EB2E0BB2E63
:1044600012ECE12E1AE0F12E04EFC02E0AE0D02E5D
:1044700000E010E088248394912C772473941BC06F
:10448000C401002E01C0880F0A94EAF7809590912C
:1044900062108923809362100F5F1F4FF2E0AF0E0E
:1044A000B11C2FEFE21AF20A32E0C30ED11C083021
:1044B000110509F42CC28091A20490E0002E02C0E4
:1044C000969587950A94E2F780FFDACFF701828903
:1044D00090E08537910510F00C94DF46209126027C
:1044E000E7E2F2E030E08217930711F40C947B2AA4
:1044F000DF012D9130E08217930711F40C947B2A91
:10450000218130E08217930711F40C947B2A1196D5
:104510002C9130E08217930709F4EDC7238130E036
:104520008217930709F4E7C7248130E082179307C5
:1045300009F4E1C7258130E08217930709F4DBC74E
:10454000268130E08217930709F4D5C7278130E030
:104550008217930709F4CFC7208530E082179307AD
:1045600009F4C9C721853A9630E08217930709F408
:10457000C2C732E0E534F30709F0BACFFC01EF5DC2
:10458000F04F208130E00697029710F4285231094D
:10459000F60120803180F801EC5EF44F6081762FC7
:1045A000777009F061C72216330609F464C7629573
:1045B00066956695637039F0D7015A968C91853768
:1045C00010F40C941745F7018281813810F40C9493
:1045D000D040F5011182108253CF80917C10E09081
:1045E0007D1090E0805C9F4F8E1991098F73992701
:1045F000892B09F434CCF090C002FF2011F40C9404
:104600003D478091BF0290E0FC01E154F109E333A2
:10461000F10508F024CC8827EE58FF4F8F4F0D94FA
:104620002286E0919C0FF0919D0FEF2B11F40C94DA
:104630006732E0900A10F0900B1000910C1010916E
:104640000D1080919E0490919F04A091A004B091C0
:10465000A104E816F9060A071B0711F40C94B43FED
:1046600060900A1070900B1080900C1090900D10BC
:104670000196A11DB11D86159705A805B90511F470
:104680000C94B43F3090A70F30923505209131053E
:1046900030913205409133055091340520932D051A
:1046A00030932E0540932F05509330050F94713AA7
:1046B00060933105709332058093330590933405F0
:1046C000A0919804B0919904B093A40FA093A30F64
:1046D0005090B60E2091B70E3091B80E25193109C1
:1046E00057FC33950F9432864B015C017AE0B69407
:1046F000A794979487947A95D1F7452D550C550B2F
:10470000660B770B480D591D6A1D7B1D4093A70F43
:104710005093A80F6093A90F7093AA0F20900A10CE
:1047200030900B1040900C1050900D1020929E0471
:1047300030929F044092A0045092A1046FEF73E066
:1047400080E090E0609398047093990480939A04B9
:1047500090939B040E94EB65D2C0B090A60ABB2048
:1047600009F461CB0091F002043509F05CCB59CB20
:104770002091E6133091E713231710F00C94CC2FFF
:10478000832F90E0821B9109019741970CF433CB62
:1047900060911F0F70E08091200F40E390E00F9434
:1047A0006E3829CB8090E6139090E713891410F0AF
:1047B0000C94D42F892D90E0881991090197419785
:1047C0000CF421CB8091200F0F9457081CCB5090F4
:1047D000E6136090E713561410F00C94DC2F862D2E
:1047E00090E085199109019741970CF408CB8091CD
:1047F000200F0F94800903CB7090A70F709235059E
:104800008090310590903205A0903305B09034052A
:1048100080922D0590922E05A0922F05B092300522
:104820000F94713A6093310570933205809333058C
:104830009093340580912C050F94513A80912C056A
:104840000F94513ADC0103978B3F934008F079C3F2
:1048500010922B05F0919B08FF2309F47BC3409134
:104860003B0E50E080E091E0841B950BE091A30F9C
:10487000F091A40F9D01DC010F9432862B013C01C5
:104880009A01DF010F9432867B018C01E40CF51C48
:10489000061D171D772717FD7A95612F502F4F2D75
:1048A000DA015093A40F4093A30FB090B60E20915D
:1048B000B70E3091B80E2B193109B7FC33950F9410
:1048C00032868B019C015AE03695279517950795FE
:1048D0005A95D1F7AB2CBB0CBB08CC08DD08A00E59
:1048E000B11EC21ED31EA092A70FB092A80FC092F5
:1048F000A90FD092AA0FD7FE02C00C947C397090F9
:10490000DC0873FC5DCD7090DC0872FC9ECD90904D
:10491000DC0894FC42C53090DC0831FC4DC310919A
:10492000DC0810FF25C03091520A3E7F3093520AB6
:10493000D090710DD6FE02C00C949339F090FB0B11
:10494000F0FE16C06091020C60FF12C080905B10F8
:10495000882011F40C94C22F8091DA090F94AE399B
:1049600061E0892B09F060E08091DA090F94DE396B
:104970007091D80D77707450723010F40C94CE3B57
:104980006091AD0E677041F0613011F40C94133CEE
:10499000623011F40C94E13C6091A70F7091A80F64
:1049A00070933F1060933E1040919C0F50919D0F6B
:1049B00088E09FE00E94C5F98093B70F8093B60FFF
:1049C0000091A20E007709F4EEC2003111F40C94AC
:1049D0001C3C2091AD0E2770223011F40C94253927
:1049E000609142107091431040919C0F50919D0F27
:1049F00086E79EE00E94C5F988520F94245C80935C
:104A0000CE0F8093CD0F809138108B7F809338101C
:104A10009091E00B592F569556955695577091F0F9
:104A2000492F4873483011F40C94563C403111F42E
:104A30000C94773D483111F40C944239403211F412
:104A40000C94B23DE091EB0FEB7FE093EB0FB09154
:104A5000200C1B2F169516951695177091F03B2F6D
:104A60003873383011F40C94343C303111F40C9418
:104A70008B3D383111F40C945F39303211F40C94C1
:104A8000C53DD0909B0FD9A6DD2009F468C2A09047
:104A90009C0FB0909D0FA114B10409F460C2E09086
:104AA0000A10F0900B1000910C1010910D108091D5
:104AB000010E90E0A0E0B0E0E816F9060A071B0737
:104AC00028F0B1E0B093EF02B093EE0240903610C0
:104AD000509037104A145B0408F064C50091EC0F45
:104AE00001FD02C00C94C72F0D7F01600093EC0FF5
:104AF0009090350E90FE04C08091D7090F94036307
:104B00000E942CFF2C019093D10F8093D00F8090A6
:104B1000A70F9090A80FA090A90FB090AA0F609136
:104B2000B60F0091270510912805811532E09307F3
:104B300010F40C94CB2D8115944010F40C940C4E71
:104B4000A5E0EA2E20E2629F90011124ABE7B4E1D8
:104B50000F94F7856C01D694C794F0908B0E7F2D3F
:104B6000707C703811F40C949739703411F40C94F3
:104B7000D33C24E6822E912C8091A20E482F4470C3
:104B8000242E82FFD2C73090640DF32DFC70F830D4
:104B900011F40C94F63183E9A82EB12C6091CE0E5D
:104BA00060786BA792010E2C02C0220F331F0A946B
:104BB000E2F73695279536952795ABE7B4E10F9444
:104BC000F785FC01F695E7952801012E000C660893
:104BD00077089601D8010F9432869B01AC01B7E0AB
:104BE0005695479537952795BA95D1F71F2D12956C
:104BF00016951695137091F0D4010F94E4859B01DE
:104C0000AC0177E056954795379527957A95D1F77A
:104C1000222011F40C942D3C3090640D032D0C7067
:104C2000083011F40C94E031DF010F94E485DC01CD
:104C3000CB0104C0B695A79597958795EA94D2F7CE
:104C40000097A105B10511F40C94FC3800912505DD
:104C500010912605012E000C220B330B480159013F
:104C6000880E991EAA1EBB1EF5FE14C0A091D20F7D
:104C7000B091D30FA456B109A30192010F94E4851A
:104C800024E630E040E050E00F948B84820E931EC7
:104C9000A41EB51ED501C40181149104E1E0AE0645
:104CA000B10408F08AC78C011093EE0F0093ED0F4A
:104CB000F0903B102F2D2D7F213009F043C05090F4
:104CC000B70B80909C0F90909D0F74E6579E8018B4
:104CD0009108112454E6452E489CC001499C900D32
:104CE00011242091B80B30E025193109429EB00102
:104CF000439E700D11240F947784E090BA0BA0911D
:104D0000B90BB0E0AE19B10924E630E0261B370B31
:104D100030E00F94328624E630E040E050E00F941B
:104D20008B84BA01A9014E0D511D611D711D449E58
:104D30001001459E300C1124020D131D1093EE0F2F
:104D40000093ED0F4EEF4F0D423010F40C94EA3A01
:104D500050918F09552309F44AC4209112053091CE
:104D600013052330310508F442C420909C0F309085
:104D70009D0F50ED251657E0350608F038C4809198
:104D80008C0990918D09F091FB0DF87FF03211F4B0
:104D90000C94E43FF1110C94A83DA0918C09B091C2
:104DA0008D09119711F40C94F14660918C09709162
:104DB0008D09A091060AB091070AE091060AF091C8
:104DC000070A6230710511F40C94C34220E432E406
:104DD0004FE050E00F94EF856BA77CA78DA79EA7AF
:104DE000A0911205B0911305AA0FBB1FAA0FBB1FFC
:104DF000A756BE4ECD90DD90ED90FC90A09112058F
:104E0000B0911305AA0FBB1FAA0FBB1FAB56BE4E16
:104E10008D909D90AD90BC90A0911205B09113051E
:104E2000AA0FBB1FAA0FBB1FA756BE4E4D905D9089
:104E30006D907C90DF0120E432E44FE050E00F946D
:104E4000EF85A70196010F948B8469017A016BA508
:104E50007CA58DA59EA5A50194010F948B84D701F7
:104E6000C601821B930BA40BB50BBC01CD01EAE07C
:104E7000660F771F881F991FEA95D1F7A30192014A
:104E8000220F331F441F551F240D351D461D571D6E
:104E9000220F331F441F551F0F948B84220D331D87
:104EA00040E050E060EA70EB88E290E00F945884B4
:104EB00029833A834B835C836D837E838F839887BA
:104EC00089819A8190939A138093991340919913B1
:104ED00050919A13529542954F7045275F70452720
:104EE0005093BC094093BB09CCC3B091A70FB093BA
:104EF0003505C0903105D0903205E0903305F09033
:104F00003405C0922D05D0922E05E0922F05F09227
:104F100030050F94713A6093310570933205809398
:104F200033059093340580912C050F94513A80916C
:104F30002C050F94513ADC0103978B3F934008F402
:104F400087CC90912B059F5F90932B05F0919B0848
:104F5000F11185CCB093A40FA093A30FA6CCF09031
:104F60003810F0FE06C0A091CF09A13011F40C94C6
:104F7000D431C05CDF4F0FB6F894DEBF0FBECDBF9B
:104F8000DF91CF911F910F91FF90EF90DF90CF9025
:104F9000BF90AF909F908F907F906F905F904F9059
:104FA0003F902F9008956091A70F7091A80F709374
:104FB00043106093421018CD8091520A8D7F8093E8
:104FC000520A8091BC040F94513A8091BC040F9412
:104FD000513A4091370E50E000E011E0D801A41B97
:104FE000B50BA090BD0FB090BE0F9C010F94328600
:104FF0002B013C019A01D5010F943286DC01CB01D3
:10500000840D951DA61DB71D692F7A2F8B2F99270B
:1050100087FD9A957093BE0F6093BD0F82EF96E067
:105020000F94984188979093BC0F8093BB0F809109
:10503000AD040F94513A8091AD040F94513A4091D0
:10504000380E50E0D801A41BB50B2090C10F309052
:10505000C20F9C010F9432866B017C019A01D10131
:105060000F943286DC01CB018C0D9D1DAE1DBF1D42
:10507000692F7A2F8B2F992787FD9A957093C20FEE
:105080006093C10F82E696E00F94984188979093C1
:10509000C00F8093BF0F2091640D26952695237035
:1050A00009F469C78091AB040F94513A8091AB0425
:1050B0000F94513A4091390E50E0D801A41BB50B22
:1050C0006090C50F7090C60F9C010F9432864B0103
:1050D0005C019A01D3010F943286DC01CB01880D6B
:1050E000991DAA1DBB1D692F7A2F8B2F992787FD2C
:1050F0009A957093C60F6093C50F82ED95E00F945B
:1051000098418093B90F8091D8090F94513A8091BA
:10511000D8090F94513A4091390E50E0A0E0B1E027
:10512000A41BB50BE091C70FF091C80F9C010F9421
:1051300032866B017C019A01DF010F943286DC011B
:10514000CB018C0D9D1DAE1DBF1D692F7A2F8B2F9E
:10515000992787FD9A957093C80F6093C70F82EDCA
:1051600095E00F9498418093BA0F8091AA040F9410
:10517000513A8091AA040F94513A25EF30E0DC01B6
:105180000F943286DC01CB01FAE0B695A79597958E
:105190008795FA95D1F72091510E022E000C330B12
:1051A0007901E80EF91E1091CC0FF7FE02C00C94A5
:1051B000083E173310F00C94863957E4E516F104D5
:1051C00014F40C948639A0919C0FB0919D0FAB2BD9
:1051D00011F00C9486395090FE0F50921A051092DF
:1051E0009A089090BF04E091BD04F091BE04B08194
:1051F000B929B083F091D80DF770F450F23010F463
:105200000C94B7499701FF0C440B550B1091CC0F30
:10521000E0913A0EF0E0A0E0B1E0AE1BBF0B0F94BE
:10522000EF855B016C01212F30E0DF010F94F785E2
:10523000DC01CB018A0D9B1DAC1DBD1D9093CC0FD5
:105240003091B10B932F937011F40C940D3EE091BB
:105250008104F0918204B080D0908004DB205091D2
:10526000B60B56FF02C00C943635DD2011F40C94B9
:105270003A358091B20B90E08797E090BB0FF090A9
:10528000BC0FE816F90614F40C943A351091B00FDF
:10529000F090B40BF11610F00C943A357090B90FF1
:1052A0007091B50B771610F00C943A358091B30BD2
:1052B00090E0A0E0B0E04090A70F5090A80F609061
:1052C000A90F7090AA0F481659066A067B0614F0BB
:1052D0000C943A353090B70B6091B80B8091BD0BB0
:1052E00004E6809F600111242090BE0B10923B10B9
:1052F00060909C0F70909D0F24E6329E4001112417
:105300008614970410F00C940F4CA4E66A9F500189
:1053100011246A147B0410F00C940F4C51E050934C
:105320003B1010913810126010933810B090860422
:10533000E0918704F0918804E080EB28E08270918E
:10534000B10B7370723011F00C94553540909C0F76
:1053500050909D0FC414D50410F00C94553564E69C
:10536000269EC00111244816590610F00C9455359C
:1053700000913B100E5F00933B102091381022608B
:1053800020933810D0908304E0918404F091850438
:10539000F080FD28F0820C9455350091520A0F7E62
:1053A0000093520AB090640DB4FC0CC410916F00CD
:1053B0001D7F10936F0010923A1010923910709167
:1053C00047047F5F709347049090640D95FC02C082
:1053D0000C943238E0919C0FF0919D0F309711F4AE
:1053E0000C9432386091FB0D687F683411F40C9492
:1053F000634780916A0D282F2370223010F40C949B
:105400005748223011F40C94B94440904C04509009
:105410004D0460904E0470904F04B0914F10B093C3
:105420006110409248045092490460924A0470927C
:105430004B04BB2311F40C948248B43610F00C9446
:105440009A49E0916F00E460E0936F0050914F1033
:10545000543610F410920A1110916110143610F0A5
:105460000C9453380C945138713009F098C32216BB
:10547000330609F49CC8629566956695637011F0D1
:105480000C94343BF7018285BFEFB80FBE3FE0F4C8
:10549000D5012D913C9190E02817390710F40C9418
:1054A000C2408281813810F40C94CF43382D002EF5
:1054B00001C0330F0A94EAF7432E40916210442949
:1054C000409362100C944C22F7018281813870F76E
:1054D00061E0332433949401002E01C0220F0A941A
:1054E000EAF7422E5090C20A252162270F94DE3936
:1054F0003110E3CF6EC8FC01EF5DF04F218130E049
:10550000322F2227408024293EC88091DC0997FE53
:1055100040C60F94AE39A1E0892B09F440C6A09390
:105520001411BA1641F040909C0F50909D0F50926C
:105530000810409207105091940D507411F40C947F
:10554000B23EAA2311F40C94A93EF090A30D64E698
:10555000F69E300111248090071090900810861458
:10556000970408F0E3C73090970D84E6389E100149
:105570001124A0909C0FB0909D0F2A143B0408F0BA
:10558000D5C75090B00FB091860B5B1608F4CEC70C
:10559000F1E0F09304103091EA0F31603093EA0F9C
:1055A0000C9414221091EC0F1E7F12601093EC0FDC
:1055B0001092FD0F7090350E70FE05C060E0809176
:1055C000D7090F94DE392090CE0E21FC99CAC090E5
:1055D000DC0DC0FC02C00C94B64050904304E09136
:1055E0004404F091450430813529308389CAF89408
:1055F000B091100ABB23B1F0A0900C0AB0900D0A34
:10560000C0900E0AD0900F0A0091080A1091090A62
:1056100020910A0A30910B0A0A151B052C053D053D
:1056200008F4FAC6789420909C0F30909D0F910159
:1056300040E050E060EA70EB88E290E00F9458841C
:1056400029873A874B875C876D877E878F87988B02
:10565000C984DA84D0929A13C092991380909913D6
:1056600090909A13929482945FE0852289249522E7
:1056700089249092BC098092BB090091ED0F109192
:10568000EE0F6091BB097091BC0980E098E00F9427
:1056900077847093D2026093D10220919913309154
:1056A0009A1340E050E060E070E088E090E00F94F2
:1056B00058842093AB093093AC094093AD095093C3
:1056C000AE09A091B00E2091110A3091120A4091BA
:1056D000130A5091140AB0E00F94E48524E630E0F8
:1056E00040E050E00F948B84CA01B9017090AC0E79
:1056F00072FC04C0660F771F881F991F20913C1011
:1057000030E040E050E00F948B8449015A01309121
:10571000EC0FF0906E0B31FD70C1F2FC70C1C8014E
:10572000A0E0B0E088169906AA06BB0628F484011A
:105730009092EE0F8092ED0F1093F00F0093EF0F09
:105740001093F20F0093F10F1093F40F0093F30FE7
:105750001093F60F0093F50F1093F80F0093F70FC7
:105760001093FA0F0093F90F1093FC0F0093FB0FA7
:1057700091013695279536952795ABE7B4E10F94BF
:10578000F785BC017695679582EF97E00F94984175
:105790004C0190935110809350106091BB0970910F
:1057A000BC098091ED0F9091EE0F0F944484AB01F2
:1057B000BC01DA01E091F804F091F904E80DF91D5B
:1057C000A0900202B0900302E417F50710F4EA0D6E
:1057D000FB1D3F01641A750A21967FAE6EAE2197BC
:1057E000A614B70450F493012A193B09A216B30674
:1057F000D8F321963FAF2EAF21971091AC0E712FA9
:1058000072957F70872F90E0FC013197E830F105A9
:1058100008F485C1612C712CC12CD12CE12CF12C08
:105820005091EC0F51FF70C13091030E14E6319F7F
:1058300050011124B092CA0FA092C90F6091CC0FF1
:1058400070E082E198E00F9498418093CB0F84360A
:1058500099F08C011127B501BB0C880B990B24E63C
:1058600030E040E050E00F945884029F5001039FC5
:10587000B00C129FB00C11247091FD0D872E912C4D
:10588000A50164E6769F400D511D11249091020EF2
:105890009C71943009F423C1903109F420C121E0B6
:1058A0006091110A7091120A8091130A9091140A62
:1058B0001A01412C512C621573058405950588F455
:1058C000022E000C330B440B550B0F948B848CE988
:1058D000182FB40116035001179FB00C1124A20E0B
:1058E000B31EB092CA0FA092C90FB501BB0C880BB2
:1058F000990B41E00F94CE5B5C0120910402309142
:1059000005024091CD0F042E000C550BC901841BDC
:10591000950B2817390724F488279927841B950BA2
:1059200090930305809302058A199B0997FF02C093
:105930000C94303B9093E2028093E102A091AC0E74
:10594000A295AF70A43011F40C94B73E08F429C4AA
:10595000A63009F42CC410F40C94523FA83009F07E
:1059600058C48091F4049091F504841B950B28177A
:10597000390714F40C949941909301058093000524
:105980008A199B0997FF02C00C942E499093E0025C
:105990008093DF02E091EE04F091EF04E41BF50B3D
:1059A0002E173F0714F40C940541F093FF04E09385
:1059B000FE04EA19FB09F7FF02C00C940747F093B5
:1059C000DE02E093DD020091EC041091ED04041B73
:1059D000150B2017310714F40C9401411093FD04AA
:1059E0000093FC040A191B0917FF02C0020F131FC2
:1059F0001093DC020093DB020CC4F2FE9DCE872DD7
:105A000082958F7090E005970CF096CEC09025059A
:105A1000D0902605C016D10608F08ECE0C191D09AF
:105A20001093EE0F0093ED0FA0912305B091240584
:105A30009D0140E050E02BAB3CAB4DAB5EAB980121
:105A40000F94F78524E6422E512C612C712CA30172
:105A500092010F948B842BA73CA74DA75EA7F3FC64
:105A600002C00C947A420BA51CA518AB0FA710938B
:105A7000EE0F0093ED0F82169306A406B50610F004
:105A80000C94E14998AA8FA69092EE0F8092ED0FA8
:105A9000CA01B9016C0D7D1D811D911D9B01AC01D9
:105AA000281939094A095B09A0912105B0912205FD
:105AB0000F94E4852BA93CA94DA95EA90F948B8472
:105AC0002C0D3D1D3093F20F2093F10F9092F00FAB
:105AD0008092EF0F3093F40F2093F30F49CE809113
