:100000000C94CA0F0C946AD10C943FD10C9414D167
:100010000C94E9D00C94BED00C9493D00C9468D07E
:100020000C943DD00C94FB0F0C94FB0F0C94FB0F25
:100030000C94FB0F0C94FB0F0C94FB0F0C94EAEF49
:100040000C94FB0F0D94850A0D94240A0C944D69B1
:100050000C94FB0F0C94FB0F0C94FB0F0C9499FC6D
:100060000C94FB0F0C94F2D20C94B2D20C94FB0FB4
:100070000C94FB0F0C94FB0F0C94FB0F0C94FB0FD8
:100080000C94C94E0C94F44D0C94404D0C94FB0F01
:100090000C94FB0F0C94FB0F0C94FB0F0C94FB0FB8
:1000A0000C94FB0F0C94FB0F0C94164A0C94AC4C64
:1000B0000C947B490C94FB0F0C94FB0F0C94034C99
:1000C0000C945A4B0C94B14A0C94FB0F0C94FB0FFC
:1000D0000C94FB0F0C94FB0F0C947CD20C943CD230
:1000E0000C94FB0FD116CC184919C319BE1B341C34
:1000F0002F1E6D1EA61E4E145616DE034C024C0219
:100100004C024C024C02DC034C024C024C024C02EE
:10011000D2034C024C024C024C026E034C021202FF
:100120004C024C024C024C024C024C024C024C025F
:100130004C024C024C024C024C024C024C024C024F
:100140004C024C024C024C024C024C024C024C023F
:100150004C024C02AE024C024C024C02C401EC03B5
:100160007A0252027C03C003FA0340036202F001E8
:10017000D8280A22D028B029CA230A222929C92826
:100180000A22B2280A2266230A22AF280A22A828B5
:100190000A22802879280A22702836261B266D28F4
:1001A00042280A220A22AB260A220A220A220A220C
:1001B0000A229526F423F229DC29B3290A220A22ED
:1001C0000A228C260A22AB210A220A220D2A0A229E
:1001D0000A2272290A225E260A2223220A220A22DF
:1001E000E0280A220A22DD28DE2AD92ACF2AC52AB7
:1001F000BB2A3F2AB32AAB2AA12A972A8D2A7E2A14
:10020000742A6A2A3F2A602A562A4C2AAC33AA3317
:100210006C330E32E4316F305A308F2F4F2F4A2F0C
:10022000F02DEC4209434C4390436542A742843C85
:100230000742428E618EBE8E198F388F978FB68F90
:1002400089909791C48DE58D49A296A2E8A246A314
:100250009B9E9B9EA6A39B9E03A45DA4ACA49B9E79
:100260009B9E9B9E9B9E9B9E9B9E9B9E9B9E9B9EC6
:10027000FBA49B9E9B9E9B9E9B9E9B9E9B9E9B9E50
:100280009B9E9B9E3EA590A59B9E9B9E9B9E9B9E00
:100290009B9E9B9E9B9E9B9EB5A516A69B9E9B9EF2
:1002A0009B9E7BA69B9E9B9E9B9E9B9E9B9E9B9E9E
:1002B0009B9E9B9E9B9EEC9EC2BB8BBC01C097C02D
:1002C0006ABD1BBEFEBE93BF1FBDDEC3CFC258C3F7
:1002D000DCC049C1FAC18CC22CBBB9D1B7D1B5D1F0
:1002E000B3D1B1D1BBD1BDD122D21AD20ED200D25C
:1002F000EFD12ED2D8D106E806E81CE82DE832E886
:1003000018E543E573E5FCE701E80BE8CBECD2EC3C
:10031000EEEC0AED12ED2EED36ED55ED75EDC4EC7B
:10032000A5EC5BFB5FFB63FB69FB6FFB5AFB75FB9B
:100330007BFB81FB87FB8DFB93FB99FB9FFB5AFBB0
:10034000A5FBABFB55FB2402B603EE03C2019002F2
:10035000C8019C03DE02F6035E02A8030C9416C6D5
:100360000C947BFB0C94CC180C94CE650C94602AF6
:100370000C9481FB0C94ABFB0C94EC9E0C94E02849
:100380000C94D92A0D94EE070D94CC140C94209A59
:100390000D9408080C9476470C94562A0C944C63E0
:1003A0000C9403A40C9473E50C946B820C946FFB77
:1003B0000C948BBA0C94AC330C94DEC30C94A5EC67
:1003C0000C9443E50C946F300C9460950C94BE8EA5
:1003D0000C9404480C9497A70C94978F0C945BFB97
:1003E0000D9403200C9469FB0C943DAD0C940742D2
:1003F0000C946C330C948C980C94198F0C945A3088
:100400000C94B0800C94388F0C94B8810C94CE4727
:100410000C9455ED0C947F9B0C943DC70C94B764E1
:100420000C9436ED0D94AD140C9417480C948CC2BA
:100430000C94BBD10C9442280C943AB20C9463FBFC
:100440000C94AC9C0C94E6CF0D94B6070C943EA58E
:100450000C94CEB20C94C9280C94D1160C948F72C3
:100460000C9493AD0C9496A20C9497910C946DCF30
:100470000C942DE80C947EBA0C9424480C94E58DD1
:100480000C94CDC60C9487FB0C941BBE0C948FAFC0
:100490000C94D0280C945EAE0D94830C0C94B9D1BE
:1004A0000C9495260D9425210C9442CE0C945FACAF
:1004B0000C9488E40C9423220C9497C00D949C0710
:1004C0000C94E2750D949B110C945BA70C94CFC215
:1004D0000C947E790C94F2660C944F2F0C945E5819
:1004E0000C9422D20C9411480C943A990C94945B7D
:1004F0000C94E4310D94E1210C94B68F0C94E8A295
:100500000C94DEA80C94C4EC0C94428E0C94D2CFC4
:100510000C94FEBE0C9427660C94C95D0C94567224
:100520000D94F3070C941FBD0C94DD280C94C52A80
:100530000C94D8D10C94FBA40C949FFB0C94972A98
:100540000C94B57E0C94EFD10C94AB210C946D7D82
:100550000C948B980C94C0CF0C94B5A50D94871473
:100560000C94B7D10C9456B40C94E8590C9434B153
:100570000C94449D0C94C48D0C94D2EC0C94802863
:100580000C94B1610C941CE80C94E4510C947BA67F
:100590000C9490430C943F9C0C948C260C94DCC0DF
:1005A0000C9446620C9470280C9477470C940BE8DA
:1005B0000C94341C0C9490A50C9475FB0D942C0891
:1005C0000C940E320C94AB260C94AA330C9436592E
:1005D0000C9489900C9472290C948F2F0C9401E840
:1005E0000C9494E30C946ABD0C948BBC0C942CBBBF
:1005F0000C94A8280C94B7810C9473B30C94618E5E
:100600000C94EFAB0C9400D20C94AF280C94AB2A52
:100610000C945E260C9456160C942C490C94A61E31
:100620000C946D280C94FE470C94BE1B0C946A2A03
:100630000C94F4230C94ECC50C9467AC0C94DC295A
:100640000C945FFB0C94DFA80C9493BF0C9441CEE8
:100650000C9418E50C945DA40C944E140C948DDD50
:100660000C94B32A0C944A2F0C94EC420C94D25C58
:100670000C94C8530C94C0520C94BDD10C940D2A08
:100680000D9458200C94B49A0C9471BA0C9466236F
:100690000C94A4B10C94FCA90C94DE2A0C94FCE7F5
:1006A0000C9416A60C94C85D0C94B1800C9455FB68
:1006B0000C94A7CE0C9499680C94F02D0C943DCF1B
:1006C0000C94B8640C941B260C9449190C944C2A75
:1006D0000C940AED0C9458C30C94A5FB0D94B5141E
:1006E0000C942EED0C940ED20C94B1D10C94AAB0B3
:1006F0000C944C430C94FAC10D94E9200C94408066
:100700000C94ACA40C94B0610C9449C10C94B02925
:100710000C9406E80C9450650C94E0A80C940943E2
:100720000C9412ED0C94BB2A0C9432E80C949A476A
:100730000C948DFB0C94B5D10D940D080C94DE77C0
:100740000C9401C00C942ED20C9436260C9446A323
:100750000D94A1070C94A6A30C94CE780C94F147A9
:100760000C94B3290C940A220C9499FB0D94BB07AA
:100770000C9429290C9479280C94EBA60C948D2ABE
:100780000D9482210C947E2A0C94CF2A0C94A847B5
:100790000C9449A20C949B9E0C9485470C948CA9B4
:1007A0000C9475ED0D94470C0C943DAB0C94B22851
:1007B0000C94742A0C94F2290D9490140D94A414A2
:1007C0000C945AFB0C94CBEC0C94D8280C9493FB0F
:1007D0000C946D1E0C94C2BB0D94C4140D94D907D7
:1007E0000C94A12A0C942F1E0C941F9A0D9450085F
:1007F0000C948A7F0D9494200C943F2A0C94843C92
:100800000C9401AA0C9470470C9465420C94C31983
:100810000C948B7F0D94B2350C94B3D10C94BD47DE
:100820000C94DE470C94EEEC0C94CA230C941AD270
:100830000C94BC760C94A7420A50616765206861ED
:1008400073206E6F74206265656E20696D706C65D3
:100850006D656E74656420796574005370656564B8
:1008600075696E6F00537065656475696E6F2032CF
:100870003031392E30382D736572005370656564E0
:1008800075696E6F2063737830323031392E3800DD
:100890000A3D3D3D436F6D6D616E642048656C702F
:1008A0003D3D3D0A0A416C6C20636F6D6D616E6465
:1008B00073206172652073696E676C65206368617F
:1008C00072616374657220616E6420617265206379
:1008D0006F6E636174656E617465642077697468B6
:1008E00020746865697220706172616D65746572EB
:1008F00073200A776974686F75742073706163651B
:10090000732E53796E7461783A20203C636F6D6D5D
:10091000616E643E2B3C706172616D65746572310D
:100920003E2B3C706172616D65746572323E2B3C8A
:10093000706172616D657465724E3E0A0A3D3D3D9F
:100940004C697374206F6620436F6D6D616E6473C4
:100950003D3D3D0A0A41202D20446973706C617948
:1009600073203331206279746573206F662063755C
:100970007272656E745374617475732076616C75F0
:10098000657320696E2062696E61727920286C69D6
:1009900076652064617461290A42202D20427572B7
:1009A0006E2063757272656E74206D617020616E69
:1009B0006420636F6E666967506167652076616C5D
:1009C00075657320746F20656570726F6D0A4320C2
:1009D0002D205465737420434F4D20706F72742E18
:1009E0002020557365642062792054756E6572739A
:1009F000747564696F20746F20736565207768650E
:100A00007468657220616E20454355206973206FBC
:100A10006E206120676976656E2073657269616C0E
:100A2000200A20202020706F72742E205265747569
:100A3000726E7320612062696E617279206E756DCD
:100A40006265722E0A4E202D205072696E74206EDF
:100A50006577206C696E652E0A50202D20536574D1
:100A60002063757272656E7420706167652E202038
:100A700053796E7461783A2020502B3C7061676521
:100A80004E756D6265723E0A52202D2053616D6570
:100A9000206173204120636F6D6D616E640A532085
:100AA0002D20446973706C6179207369676E61747D
:100AB000757265206E756D6265720A51202D205326
:100AC000616D65206173205320636F6D6D616E648D
:100AD0000A56202D20446973706C6179206D617015
:100AE000206F7220636F6E6669675061676520765C
:100AF000616C75657320696E2062696E6172790A36
:100B000057202D20536574206F6E652062797465BF
:100B100020696E206D6170206F7220636F6E666950
:100B200067506167652E2020457870656374732077
:100B300062696E61727920706172616D657465724F
:100B4000732E200A2020202053796E7461783A2079
:100B500020572B3C6F66667365743E2B3C6E657741
:100B6000627974653E0A74202D2053657420636198
:100B70006C6962726174696F6E2076616C75657301
:100B80002E2020457870656374732062696E6172EF
:100B90007920706172616D65746572732E202054C6
:100BA00061626C6520696E6465782069732065698F
:100BB0007468657220302C200A20202020312C20DF
:100BC0006F7220322E202053796E7461783A202083
:100BD000742B3C74626C655F6964783E2B3C6E6577
:100BE0007756616C7565313E2B3C6E657756616C4E
:100BF0007565323E2B3C6E657756616C75654E3E71
:100C00000A5A202D20446973706C61792063616CED
:100C10006962726174696F6E2076616C7565730AC2
:100C200054202D20446973706C61797320323536FD
:100C300020746F6F7468206C6F6720656E747269C2
:100C4000657320696E2062696E6172790A72202D67
:100C500020446973706C6179732032353620746F6B
:100C60006F7468206C6F6720656E74726965730AB3
:100C700055202D205072657061726520666F72205C
:100C80006669726D77617265207570646174652E36
:100C900020546865206E65787420627974652072CE
:100CA000656365697665642077696C6C206361753E
:100CB0007365207468652041726475696E6F207475
:100CC0006F2072657365742E0A3F202D204469736E
:100CD000706C61797320746869732068656C70202A
:100CE00070616765002C2000575545004F32004960
:100CF0006E6C65742074656D7000436F6F6C616E0F
:100D00007400526573657420636F6E74726F6C202B
:100D100069732063757272656E746C79206469738F
:100D200061626C65642E00436F6D6D732068616C49
:100D30007465642E204E657874206279746520771E
:100D4000696C6C20726573657420746865204172EB
:100D50006475696E6F2E00537065656475696E6F9A
:100D600020323032302E3032007370656564756920
:100D70006E6F20323032303032003030310020207F
:100D80002020000A5061676520686173206E6F74CF
:100D9000206265656E20696D706C656D656E746549
:100DA0006420796574000A5061676520686173206A
:100DB0006E6F74206265656E20696D706C656D651F
:100DC0006E746564207965740020000A5645204DD4
:100DD0006170000A5067203120436F6E66696700BA
:100DE0000A49676E6974696F6E204D6170000A5020
:100DF00067203220436F6E666967000A41465220C1
:100E00004D6170000A5067203320436F6E6669673A
:100E1000000A5067203420436F6E666967000A42FB
:100E20006F6F7374204D6170000A565654204D61E7
:100E300070000A506720313020436F6E666967008A
:100E40000A326E64204675656C204D6170000000AA
:100E50000000963007772C610EEEBA51099919C43B
:100E60006D078FF46A7035A563E9A395649E328897
:100E7000DB0EA4B8DC791EE9D5E088D9D2972B4CDB
:100E8000B609BD7CB17E072DB8E7911DBF906410F7
:100E9000B71DF220B06A4871B9F3DE41BE847DD43B
:100EA000DA1AEBE4DD6D51B5D4F4C785D3835698D7
:100EB0006C13C0A86B647AF962FDECC9658A4F5C5B
:100EC0000114D96C0663633D0FFAF50D088DC82037
:100ED0006E3B5E10694CE44160D5727167A2D1E44B
:100EE000033C47D4044BFD850DD26BB50AA5FAA887
:100EF000B5356C98B242D6C9BBDB40F9BCACE36CEB
:100F0000D832755CDF45CF0DD6DC593DD1ABAC3066
:100F1000D9263A00DE518051D7C81661D0BFB5F44A
:100F2000B42123C4B3569995BACF0FA5BDB89EB8C6
:100F300002280888055FB2D90CC624E90BB1877C6A
:100F40006F2F114C6858AB1D61C13D2D66B69041A5
:100F5000DC760671DB01BC20D2982A10D5EF89859A
:100F6000B1711FB5B606A5E4BF9F33D4B8E8A2C9D6
:100F7000077834F9000F8EA8099618980EE1BB0D7A
:100F80006A7F2D3D6D08976C6491015C63E6F451B6
:100F90006B6B62616C1CD83065854E0062F2ED951A
:100FA000066C7BA5011BC1F4088257C40FF5C6D996
:100FB000B06550E9B712EAB8BE8B7C88B9FCDF1D7A
:100FC000DD62492DDA15F37CD38C654CD4FB586176
:100FD000B24DCE51B53A7400BCA3E230BBD441A5AA
:100FE000DF4AD795D83D6DC4D1A4FBF4D6D36AE9C6
:100FF0006943FCD96E34468867ADD0B860DA732D8A
:101000000444E51D03335F4C0AAAC97C0DDD3C7125
:101010000550AA41022710100BBE86200CC925B529
:101020006857B3856F2009D466B99FE461CE0EF985
:10103000DE5E98C9D9292298D0B0B4A8D7C7173D89
:10104000B359810DB42E3B5CBDB7AD6CBAC02083E3
:10105000B8EDB6B3BF9A0CE2B6039AD2B174394771
:10106000D5EAAF77D29D1526DB048316DC73120B0D
:1010700063E3843B64943E6A6D0DA85A6A7A0BCF91
:101080000EE49DFF099327AE000AB19E077D4493AD
:101090000FF0D2A3088768F2011EFEC206695D57F1
:1010A00062F7CB67658071366C19E7066B6E761B4D
:1010B000D4FEE02BD3895A7ADA10CC4ADD676FDF91
:1010C000B9F9F9EFBE8E43BEB717D58EB060E8A36D
:1010D000D6D67E93D1A1C4C2D83852F2DF4FF16781
:1010E000BBD16757BCA6DD06B53F4B36B248DA2BFD
:1010F0000DD84C1B0AAFF64A0336607A0441C3EFA1
:1011000060DF55DF67A8EF8E6E3179BE69468CB31C
:1011100061CB1A8366BCA0D26F2536E26852957700
:101120000CCC03470BBBB91602222F260555BE3B3C
:10113000BAC5280BBDB2925AB42B046AB35CA7FFA0
:10114000D7C231CFD0B58B9ED92C1DAEDE5BB0C2DD
:10115000649B26F263EC9CA36A750A936D02A90650
:10116000099C3F360EEB8567077213570005824ACC
:10117000BF95147AB8E2AE2BB17B381BB60C9B8EB0
:10118000D2920DBED5E5B7EFDC7C21DFDB0BD4D2EC
:10119000D38642E2D4F1F8B3DD686E83DA1FCD1650
:1011A000BE815B26B9F6E177B06F7747B718E65A8C
:1011B0000888706A0FFFCA3B06665C0B0111FF9E30
:1011C000658F69AE62F8D3FF6B6145CF6C1678E22C
:1011D0000AA0EED20DD75483044EC2B30339612660
:1011E00067A7F71660D04D476949DB776E3E4A6ABC
:1011F000D1AEDC5AD6D9660BDF40F03BD83753AEC0
:10120000BCA9C59EBBDE7FCFB247E9FFB5301CF25B
:10121000BDBD8AC2BACA3093B353A6A3B42405365F
:10122000D0BA9306D7CD2957DE54BF67D9232E7A7B
:1012300066B3B84A61C4021B685D942B6F2A37BE3F
:101240000BB4A18E0CC31BDF055A8DEF022D0000DD
:10125000000041311B1982623632C3532D2B04C565
:101260006C6445F4777D86A75A56C796414F088A25
:10127000D9C849BBC2D18AE8EFFACBD9F4E30C4F05
:10128000B5AC4D7EAEB58E2D839ECF1C9887511286
:10129000C24A1023D953D370F4789241EF6155D7E5
:1012A000AE2E14E6B537D7B5981C968483055998A9
:1012B0001B8218A9009BDBFA2DB09ACB36A95D5D85
:1012C00077E61C6C6CFFDF3F41D49E0E5ACDA22402
:1012D0008495E3159F8C2046B2A76177A9BEA6E14D
:1012E000E8F1E7D0F3E82483DEC365B2C5DAAAAE3D
:1012F0005D5DEB9F464428CC6B6F69FD7076AE6BED
:101300003139EF5A2A202C09070B6D381C12F3369D
:1013100046DFB2075DC6715470ED30656BF4F7F3CC
:101320002ABBB6C231A275911C8934A00790FBBCC0
:101330009F17BA8D840E79DEA92538EFB23CFF796C
:10134000F373BE48E86A7D1BC5413C2ADE58054F51
:1013500079F0447E62E9872D4FC2C61C54DB018AB6
:10136000159440BB0E8D83E823A6C2D938BF0DC5A6
:10137000A0384CF4BB218FA7960ACE968D13090096
:10138000CC5C4831D7458B62FA6ECA53E177545D25
:10139000BBBA156CA0A3D63F8D88970E9691509836
:1013A000D7DE11A9CCC7D2FAE1EC93CBFAF55CD722
:1013B00062721DE6796BDEB554409F844F59581216
:1013C0000E161923150FDA7038249B41233DA76BA5
:1013D000FD65E65AE67C2509CB576438D04EA3AEAE
:1013E0009101E29F8A1821CCA73360FDBC2AAFE1AE
:1013F00024ADEED03FB42D83129F6CB20986AB248E
:1014000048C9EA1553D029467EFB687765E2F6792C
:101410003F2FB7482436741B091D352A1204F2BC2D
:10142000534BB38D485270DE657931EF7E60FEF329
:10143000E6E7BFC2FDFE7C91D0D53DA0CBCCFA360D
:101440008A83BB07919A7854BCB13965A7A84B9899
:10145000833B0AA99822C9FAB50988CBAE104F5D23
:10146000EF5F0E6CF446CD3FD96D8C0EC274431203
:101470005AF3022341EAC1706CC1804177D847D743
:10148000369706E62D8EC5B500A584841BBC1A8A46
:1014900041715BBB5A6898E87743D9D96C5A1E4FA3
:1014A0002D155F7E360C9C2D1B27DD1C003E120087
:1014B00098B9533183A09062AE8BD153B59216C5C3
:1014C000F4DD57F4EFC494A7C2EFD596D9F6E9BC82
:1014D00007AEA88D1CB76BDE319C2AEF2A85ED790B
:1014E0006BCAAC4870D36F1B5DF82E2A46E1E1361B
:1014F000DE66A007C57F6354E8542265F34DE5F32B
:10150000B202A4C2A91B6791843026A09F29B8AE5D
:10151000C5E4F99FDEFD3ACCF3D67BFDE8CFBC6B8A
:10152000A980FD5AB2993E099FB27F3884ABB0249E
:101530001C2CF115073532462A1E73773107B4E1AA
:101540007048F5D06B513683467A77B25D634ED7DB
:10155000FACB0FE6E1D2CCB5CCF98D84D7E04A12B4
:1015600096AF0B238DB6C870A09D8941BB84465DA4
:101570002303076C381AC43F1531850E0E28429894
:101580004F6703A9547EC0FA795581CB624C1FC5C1
:1015900038815EF423989DA70EB3DC9615AA1B0034
:1015A00054E55A314FFC996262D7D85379CE174F20
:1015B000E149567EFA50952DD77BD41CCC62138A14
:1015C0008D2D52BB963491E8BB1FD0D9A006ECF309
:1015D0007E5EADC265476E91486C2FA05375E836AC
:1015E000123AA90709236A5424082B653F11E479AC
:1015F000A796A548BC8F661B91A4272A8ABDE0BC8C
:10160000CBF2A18DD0EB62DEFDC023EFE6D9BDE1C8
:10161000BC14FCD0A70D3F838A267EB2913FB9242B
:10162000D070F815CB693B46E6427A77FD5BB56B27
:1016300065DCF45A7EC5370953EE763848F7B1AE0B
:1016400009B8F09F12A133CC3F8A72FD24930000A9
:101650000000376AC2016ED4840359BE4602DCA87A
:101660000907EBC2CB06B27C8D0485164F05B85135
:10167000130E8F3BD10FD685970DE1EF550C64F912
:101680001A095393D8080A2D9E0A3D475C0B70A394
:10169000261C47C9E41D1E77A21F291D601EAC0B26
:1016A0002F1B9B61ED1AC2DFAB18F5B56919C8F2A3
:1016B0003512FF98F713A626B111914C7310145AE6
:1016C0003C152330FE147A8EB8164DE47A17E046A6
:1016D0004D38D72C8F398E92C93BB9F80B3A3CEE76
:1016E000443F0B84863E523AC03C6550023D581739
:1016F0005E366F7D9C3736C3DA3501A9183484BF56
:101700005731B3D59530EA6BD332DD01113390E513
:101710006B24A78FA925FE31EF27C95B2D264C4DE1
:1017200062237B27A0222299E62015F3242128B4E6
:10173000782A1FDEBA2B4660FC29710A3E28F41C69
:10174000712DC376B32C9AC8F52EADA2372FC08D5C
:101750009A70F7E75871AE591E739933DC721C25E5
:1017600093772B4F517672F11774459BD57578DCC2
:10177000897E4FB64B7F16080D7D2162CF7CA47405
:101780008079931E4278CAA0047AFDCAC67BB02E27
:10179000BC6C87447E6DDEFA386FE990FA6E6C8619
:1017A000B56B5BEC776A025231683538F369087FB4
:1017B000AF623F156D6366AB2B6151C1E960D4D751
:1017C000A665E3BD6464BA0322668D69E06720CB39
:1017D000D74817A115494E1F534B7975914AFC63A1
:1017E000DE4FCB091C4E92B75A4CA5DD984D989A06
:1017F000C446AFF00647F64E4045C1248244443209
:10180000CD4173580F402AE649421D8C8B435068E6
:10181000F154670233553EBC755709D6B7568CC094
:10182000F853BBAA3A52E2147C50D57EBE51E83937
:10183000E25ADF53205B86ED6659B187A458349194
:10184000EB5D03FB295C5A456F5E6D2FAD5F801B1E
:1018500035E1B771F7E0EECFB1E2D9A573E35CB340
:101860003CE66BD9FEE73267B8E5050D7AE4384A05
:1018700026EF0F20E4EE569EA2EC61F460EDE4E268
:101880002FE8D388EDE98A36ABEBBD5C69EAF0B8A6
:1018900013FDC7D2D1FC9E6C97FEA90655FF2C10F4
:1018A0001AFA1B7AD8FB42C49EF975AE5CF848E977
:1018B00000F37F83C2F2263D84F0115746F1944134
:1018C00009F4A32BCBF5FA958DF7CDFF4FF6605DAC
:1018D00078D95737BAD80E89FCDA39E33EDBBCF544
:1018E00071DE8B9FB3DFD221F5DDE54B37DCD80C01
:1018F0006BD7EF66A9D6B6D8EFD481B22DD504A4A4
:1019000062D033CEA0D16A70E6D35D1A24D210FE25
:101910005EC527949CC47E2ADAC6494018C7CC56B7
:1019200057C2FB3C95C3A282D3C195E811C0A8AFB2
:101930004DCB9FC58FCAC67BC9C8F1110BC97407AF
:1019400044CC436D86CD1AD3C0CF2DB902CE40967C
:10195000AF9177FC6D902E422B921928E9939C3E13
:10196000A696AB546497F2EA2295C580E094F8C736
:10197000BC9FCFAD7E9E9613389CA179FA9D246FB3
:10198000B598130577994ABB319B7DD1F39A3035D1
:10199000898D075F4B8C5EE10D8E698BCF8FEC9D3F
:1019A000808ADBF7428B82490489B523C688886424
:1019B0009A83BF0E5882E6B01E80D1DADC8154CC07
:1019C000938463A651853A1817870D72D586A0D0E7
:1019D000E2A997BA20A8CE0466AAF96EA4AB7C78D7
:1019E000EBAE4B1229AF12AC6FAD25C6ADAC188172
:1019F000F1A72FEB33A6765575A4413FB7A5C429AF
:101A0000F8A0F3433AA1AAFD7CA39D97BEA2D07390
:101A1000C4B5E71906B4BEA740B689CD82B70CDBC2
:101A2000CDB23BB10FB3620F49B155658BB068229F
:101A3000D7BB5F4815BA06F653B8319C91B9B48A42
:101A4000DEBC83E01CBDDA5E5ABFED3498BE0000F8
:101A500000006567BCB88BC809AAEEAFB5125797EE
:101A6000628F32F0DE37DC5F6B25B938D79DEF2807
:101A7000B4C58A4F087D64E0BD6F018701D7B8BF48
:101A8000D64ADDD86AF23377DFE0561063589F57A5
:101A90001950FA30A5E8149F10FA71F8AC42C8C08A
:101AA0007BDFADA7C76743087275266FCECD707F09
:101AB000AD951518112DFBB7A43F9ED0188727E8C8
:101AC000CF1A428F73A2AC20C6B0C9477A083EAF86
:101AD00032A05BC88E18B5673B0AD00087B2693860
:101AE000502F0C5FEC97E2F059858797E53DD18741
:101AF0008665B4E03ADD5A4F8FCF3F2833778610A2
:101B0000E4EAE37758520DD8ED4068BF51F8A1F8E8
:101B10002BF0C49F97482A30225A4F579EE2F66F07
:101B2000497F9308F5C77DA740D518C0FC6D4ED0FE
:101B30009F352BB7238DC518969FA07F2A2719475D
:101B4000FDBA7C204102928FF410F7E848A83D5876
:101B5000149B583FA823B6901D31D3F7A1896ACFB3
:101B600076140FA8CAACE1077FBE8460C306D270AA
:101B7000A05EB7171CE659B8A9F43CDF154C85E701
:101B8000C2D1E0807E690E2FCB7B6B4877C3A20F5A
:101B90000DCBC768B17329C704614CA0B8D9F598BB
:101BA0006F4490FFD3FC7E5066EE1B37DA564D270C
:101BB000B90E284005B6C6EFB0A4A3880C1C1AB015
:101BC000DB817FD767399178D22BF41F6E9303F7AF
:101BD000263B66909A83883F2F91ED589329546055
:101BE00044B43107F80CDFA84D1EBACFF1A6ECDFE4
:101BF00092FE89B82E4667179B54027027ECBB48AB
:101C0000F071DE2F4CC93080F9DB55E745639CA0AD
:101C10003F6BF9C783D3176836C1720F8A79CB3708
:101C20005DE4AE50E15C40FF544E2598E8F67388C1
:101C30008BAE16EF3716F84082049D273EBC241F5A
:101C4000E92141785599AFD7E08BCAB05C333BB6F8
:101C500059ED5ED1E555B07E5047D519ECFF6C21AA
:101C60003B62094687DAE7E932C8828E8E70D49EDD
:101C7000ED28B1F951905F56E4823A31583A830920
:101C80008FA7E66E331F08C1860D6DA63AB5A4E195
:101C900040BDC186FC052F2949174A4EF5AFF376A2
:101CA000223296119E8A78BE2B981DD997204BC957
:101CB000F4782EAE48C0C001FDD2A566416A1C5E14
:101CC00096F779392A4F97969F5DF2F123E505192A
:101CD0006B4D607ED7F58ED162E7EBB6DE5F528E3C
:101CE00009C237E9B57AD9460068BC21BCD0EA31CF
:101CF000DF888F56633061F9D622049E6A9ABDA6AA
:101D0000BD07D8C101BF366EB4AD530908159A4E50
:101D1000721DFF29CEA511867BB774E1C70FCDD9FF
:101D20001092A8BEAC2A461119382376A580756694
:101D3000C6D810017A60FEAECF729BC973CA22F179
:101D4000A457479618EFA939ADFDCC5E114506EEB4
:101D50004D766389F1CE8D2644DCE841F8645179F3
:101D60002FF9341E9341DAB12653BFD69AEBE9C658
:101D7000F9B38CA1450B620EF01907694CA1BE5155
:101D80009B3CDB3627843599929650FE2E2E99B9CE
:101D90005426FCDEE89E12715D8C7716E134CE2E5F
:101DA00036A9AB498A1145E63F03208183BB769172
:101DB000E0E313F65C5BFD59E949983E55F12106D5
:101DC000826C44613ED4AACE8BC6CFA9377E3841FF
:101DD0007FD65D26C36EB389767CD6EECAC46FD635
:101DE0001D590AB1A1E1E41E14F38179A84BD7690A
:101DF000CB13B20E77AB5CA1C2B939C67E0180FEAF
:101E0000A99CE59915240B36A0366E511C8EA71699
:101E10006686C271DA3E2CDE6F2C49B9D394F0810C
:101E2000040995E6B8B17B490DA31E2EB11B483EAF
:101E3000D2432D596EFBC3F6DBE9A69167511FA96A
:101E4000B0CC7ACE0C749461B966F10605DE000060
:101E50002100240027002A002D003000330001015A
:101E60000000040107010A010000220025002800EB
:101E70002B002E0031003400020100000501080192
:101E80000B010505050507050808080802020202FE
:101E90000A0A080804040404010101010101010106
:101EA0000303030303030303040707070C0C0C0CD1
:101EB0000C0C0C0C020202020606060606060606BA
:101EC0000B0B0B0B0B0B0B0B010210202008081047
:101ED000204010204080020102010804020101029A
:101EE0000408102040808040201008040201800473
:101EF00002018040201008040201080402010102CE
:101F000004081020408001020408102040800000D6
:101F10000A0B02090C0D0E08070304010000000063
:101F200000000000000000000000000000000000B1
:101F3000000000000000000000001211100000006E
:101F40000000000000000000000000000000000091
:101F5000000000000A5061676520686173206E6FA1
:101F600074206265656E20696D706C656D656E7458
:101F70006564207965740000002000230026002994
:101F8000002C002F003200000100000301060109AF
:101F900001000A0411241FBECFEFD1E2DEBFCDBF86
:101FA00000E00CBF12E0A0E0B2E0E4E0F5E702E000
:101FB0000BBF02C007900D92A638B107D9F726E1F2
:101FC000A6E8B2E001C01D92A83AB207E1F71FE00F
:101FD000CAECDFE000E006C021970109802FFE0176
:101FE0000F94643AC93CD10780E00807A9F70F9421
:101FF0004C0B0D94803A0C9400008F929F92AF92FC
:10200000BF92CF92DF92EF92FF920F931F93CF93E5
:10201000DF9348EBE42E4EE0F42E00E010E0C3E244
:10202000D1E0CE010F94103AF70161917F0186173C
:1020300029F0CE010F94183A0F5F1F4F2196C33A33
:10204000F1E0DF0799F00F3111055CF381E0809337
:10205000630DDF91CF911F910F91FF90EF90DF9073
:10206000CF90BF90AF909F908F9008950F31110542
:102070006CF71092630D81E090E00F94103A60913C
:102080004009861709F453C081E090E00F94183A94
:10209000C2E0D0E001E010E082E090E00F94103A5E
:1020A00060914109861729F082E090E00F94183A78
:1020B0008E0123E0E22EF12C2FC035952795359522
:1020C0002795359527953595279531952195310992
:1020D000215F3F4F220F331FE0914209F0914309E6
:1020E000E20FF31FCF70DD2720813181C20FD31F94
:1020F0006881861729F0C7010F94183A0F5F1F4FA8
:102100008FEFE81AF80AE3E0EE16E1E0FE06A1F030
:102110000F3111050CF09ACFE7012397C7010F94F7
:10212000103A9E01D7FFC9CF215F3F4FC6CFC1E014
:10213000D0E000E010E0B0CF0F3111050CF086CFF9
:10214000E12CF12CC3E0D1E0C0904409D0904509C6
:1021500034E6A32EB12CCE010F94103A282FF601AD
:10216000EE0DFF1D80819181B5010F948638822F7D
:1021700090E09B01332782179307B1F0CE010F94B3
:10218000183A0F5F1F4F2196C33181E0D807A9F09D
:10219000F2E0EF0EF11C0F31110509F457CFC0909A
:1021A0004409D0904509D7CF2196C331E1E0DE073D
:1021B00021F082E0E80EF11CCECF0F31110509F4B9
:1021C00045CFE12CF12C03E111E015C0EB01D595D1
:1021D000C795C8010F94103AC81721F06C2FC80199
:1021E0000F94183A0F5F1F4FE2E0EE0EF11C03321E
:1021F000F1E01F0769F0E0914609F0914709EE0D03
:10220000FF1D6081718177FFE1CF6F5F7F4FDECF70
:102210001092630D83EA91E00F94103A6091C20925
:10222000861709F451C083EA91E00F94183A12E03E
:1022300000E0C1E0D0E084EA91E00F94103A6091B0
:10224000C309861731F084EA91E00F94183AC12F40
:10225000D02F05EA11E030C0959587959595879523
:1022600095958795959587959195819591090F9667
:10227000880F991FE091C409F091C509E80FF91F73
:102280002F7033270190F081E02DE20FF31FF080D3
:10229000C8010F94103AF81629F06F2DC8010F9459
:1022A000183A21960F5F1F4F053A82E0180789F010
:1022B000CF31D1050CF0CACE9801255A3140C90161
:1022C00037FFCACF0F96C8CF11E000E0C0E0D0E0E2
:1022D000B2CFCF31D1050CF0B9CEE12CF12C05EA0B
:1022E00012E0A090C609B090C709F4E68F2E912C99
:1022F000F501EE0DFF1D80819181B4010F948638A8
:10230000D62EC8010F94103AD816B9F06D2DC80119
:102310000F94183A21960F5F1F4F053BF2E01F07FD
:10232000B1F0E2E0EE0EF11CCF31D10509F48ECE12
:10233000A090C609B090C709DBCF0F5F1F4F053BC8
:1023400082E0180721F0F2E0EF0EF11CD1CFCF317F
:10235000D10509F47BCEC12CD12C65EBE62E62E0D1
:10236000F62E1CC08B0115950795C7010F94103AE6
:10237000081729F0602FC7010F94183A2196EFEF44
:10238000EE1AFE0AF5ECEF16F2E0FF06A1F082E08D
:10239000C80ED11CCF31D10509F458CEE091C8093F
:1023A000F091C909EC0DFD1D6081718177FFDACFD5
:1023B0006F5F7F4FD7CF6F9709F448CE1092630DB0
:1023C00049E3E42E4FE0F42EC5ECD2E000E010E04B
:1023D000CE010F94103AF70161917F01861729F021
:1023E000CE010F94183A0F5F1F4F2196C534F3E0CA
:1023F000DF0721F00F3111055CF328CE0F311105F5
:102400000CF024CE1092630D85E493E00F94103A03
:1024100060919802861709F455C085E493E00F9403
:10242000183AC2E0D0E001E010E086E493E00F94B7
:10243000103A60919902681729F086E493E00F94AE
:10244000183A8E0127E4E22E23E0F22E2FC03595B4
:102450002795359527953595279535952795319568
:1024600021953109215F3F4F220F331FE0919A02DE
:10247000F0919B02E20FF31FCF70DD2720813181A5
:10248000C20FD31F6881861729F0C7010F94183A2D
:102490000F5F1F4F8FEFE81AF80AE7E4EE16E4E04B
:1024A000FE06A9F00F3111050CF0D0CDE701C7549D
:1024B000D340C7010F94103A9E01D7FFC8CF215FC8
:1024C0003F4FC5CFC1E0D0E000E010E0AECF0F310C
:1024D00011050CF0BBCDE12CF12CC7E4D4E0C09089
:1024E0009C02D0909D0234E6A32EB12CCE010F9415
:1024F000103A282FF601EE0DFF1D80819181B50164
:102500000F948638822F90E09B0133278217930720
:10251000B1F0CE010F94183A0F5F1F4F2196C735C7
:1025200084E0D807A9F0F2E0EF0EF11C0F3111059D
:1025300009F48CCDC0909C02D0909D02D7CF2196FB
:10254000C735F4E0DF0721F0E2E0EE0EF11CCECF5C
:102550000F31110509F47ACDE12CF12C07E514E0D7
:1025600015C0EB01D595C795C8010F94103AC8174F
:1025700021F06C2FC8010F94183A0F5F1F4FE2E053
:10258000EE0EF11C0736F4E01F0769F0E0919E02A1
:10259000F0919F02EE0DFF1D6081718177FFE1CF09
:1025A0006F5F7F4FDECF1092630DF8E2EF2EFEE0FB
:1025B000FF2EC7E6D4E000E010E0CE010F94103A01
:1025C000F70161917F01861729F0CE010F94183A27
:1025D0000F5F1F4F2196C73EF4E0DF0721F00F3158
:1025E00011055CF333CD0F3111050CF02FCD109296
:1025F000630D87E00E94948D8091630D811129CD38
:1026000088E00E94948D8091630D811122CDEFEDC1
:10261000EE2EEFE0FE2ECEEAD6E000E010E0CE0196
:102620000F94103AF70161917F01861729F0CE01CE
:102630000F94183A0F5F1F4F2196CE36F7E0DF0751
:1026400021F00F3111055CF301CD0F3111050CF0B4
:10265000FDCC1092630D76E6E72E7DE0F72ECEE6F8
:10266000D7E000E010E0CE010F94103AF70161913D
:102670007F01861729F0CE010F94183A0F5F1F4F84
:102680002196CE32F8E0DF0721F00F3111055CF31F
:10269000DDCC0F3111050CF0D9CC1092630DC09137
:1026A00086028EE298E00F94103AC81729F06C2F3A
:1026B0008EE298E00F94183AC09187028FE298E07A
:1026C0000F94103AC81729F06C2F8FE298E00F94FE
:1026D000183A60E3E62E68E0F62E02E010E02FC024
:1026E00035952795359527953595279535952795D2
:1026F000319521953109215F3F4F220F331FE09122
:102700008802F0918902E20FF31FCF70DD2720814C
:102710003181C20FD31F6881861729F0C7010F943A
:10272000183A0F5F1F4F8FEFE81AF80AE0E3EE1632
:10273000E9E0FE0681F00F3111050CF087CCE701CE
:10274000C053D840C7010F94103A9E01D7FFC8CF9D
:10275000215F3F4FC5CF0F3111050CF077CCE12C35
:10276000F12CC0E3D9E0C0908A02D0908B0254E6ED
:10277000A52EB12CCE010F94103A282FF601EE0DA4
:10278000FF1D80819181B5010F948638822F90E0E2
:102790009B01332782179307B1F0CE010F94183AAB
:1027A0000F5F1F4F2196C13489E0D807A9F0F2E0EE
:1027B000EF0EF11C0F31110509F448CCC0908A02CC
:1027C000D0908B02D7CF2196C134E9E0DE0721F00B
:1027D00082E0E80EF11CCECF0F31110509F436CCA2
:1027E000E12CF12C01E419E015C0EB01D595C7955A
:1027F000C8010F94103AC81721F06C2FC8010F942C
:10280000183A0F5F1F4FE2E0EE0EF11C0135F9E0C0
:102810001F0769F0E0918C02F0918D02EE0DFF1D13
:102820006081718177FFE1CF6F5F7F4FDECF1092C4
:10283000630D0FCC4F925F926F927F928F929F9217
:10284000AF92BF92CF92DF92EF92FF920F931F93BE
:10285000CF93DF931F92CDB7DEB790E0FC013197A5
:10286000EB30F105A8F060E070E0CB010F90DF9154
:10287000CF911F910F91FF90EF90DF90CF90BF907D
:10288000AF909F908F907F906F905F904F90089542
:102890008827EE58FF4F8F4F0D94643A86E69DE0EF
:1028A00083709927892B11F40C94442144244A9471
:1028B000542C320140EC50E026E63DE004C04115C6
:1028C000510509F4E4C1FF24E72CD62CC52C2F5F59
:1028D0003F4FF9013197E081D301C2019927AA271F
:1028E000BB278E27FC01EE0FFF1FEE0FFF1FE25BE1
:1028F000F14F85919591A591B49126013701482614
:1029000059266A267B2641505109F901E370FF27B9
:10291000EF2BA9F64031510510F40C947221D90126
:102920008A0100511109CD90DD90ED90FC90139734
:10293000C301B2016C257D258E259F256B017C018D
:10294000DD24EE24FF24E3E0DE0EE11CF11CF601A1
:10295000EE0FFF1FEE0FFF1FE25BF14F859095908A
:10296000A590B490C72ED12CE12CF12CE2E0DE0E24
:10297000E11CF11CF601EE0FFF1FEE0FFF1FE25BE3
:10298000F14F4590559065907490C82ED12CE12C54
:10299000F12CEFEFDE1AEE0AFE0AF601EE0FFF1F32
:1029A000EE0FFF1FE25BF14FC590D590E590F490DC
:1029B000692F772788279927FB01EE0FFF1FEE0F5E
:1029C000FF1FE25BF14F659175918591949184248D
:1029D0009524A624B724C824D924EA24FB24C62697
:1029E000D726E826F92614968D909D90AD90BC9040
:1029F00017978C249D24AE24BF2475016401DD2427
:102A0000EE24FF2483E0D80EE11CF11CF601EE0F4A
:102A1000FF1FEE0FFF1FE25BF14FC590D590E590D1
:102A2000F490492C512C612C712CE2E05E0E611C5B
:102A3000711CF201EE0FFF1FEE0FFF1FE25BF14F63
:102A400065917591859194914A2C512C612C712C32
:102A5000EFEF5E1A6E0A7E0AF201EE0FFF1FEE0F15
:102A6000FF1FE25BF14F45905590659074908B2C61
:102A70009924AA24BB24F401EE0FFF1FEE0FFF1FC1
:102A8000E25BF14F85909590A590B490C626D7262D
:102A9000E826F9264C245D246E247F2448245924FA
:102AA0006A247B241896CD90DD90ED90FC901B97C6
:102AB000C424D524E624F724460157019924AA24E6
:102AC000BB2483E0980EA11CB11CF401EE0FFF1F84
:102AD000EE0FFF1FE25BF14F85909590A590B490AB
:102AE0004D2C512C612C712CE2E05E0E611C711C8E
:102AF000F201EE0FFF1FEE0FFF1FE25BF14F65913A
:102B00007591859194914E2C512C612C712CEFEF85
:102B10005E1A6E0A7E0AF201EE0FFF1FEE0FFF1F14
:102B2000E25BF14F4590559065907490CF2CDD2479
:102B3000EE24FF24F601EE0FFF1FEE0FFF1FE25BF6
:102B4000F14FC590D590E590F49086269726A8265B
:102B5000B926482459246A247B244C245D246E24FD
:102B60007F241C968D909D90AD90BC901F978424DF
:102B70009524A624B72475016401DD24EE24FF24E6
:102B800083E0D80EE11CF11CF601EE0FFF1FEE0FE3
:102B9000FF1FE25BF14F6591759185919491C92C6E
:102BA000D12CE12CF12CE2E0DE0EE11CF11CF6014F
:102BB000EE0FFF1FEE0FFF1FE25BF14F45905590A8
:102BC00065907490CA2CD12CE12CF12CEFEFDE1A19
:102BD000EE0AFE0AF601EE0FFF1FEE0FFF1FE25B8B
:102BE000F14FC590D590E590F4908B2C9924AA24B0
:102BF000BB24F401EE0FFF1FEE0FFF1FE25BF14F4E
:102C000085909590A590B4904626572668267926FB
:102C1000C424D524E624F724260137014824592466
:102C20006A247B2450960031110508F07ACEDA012F
:102C3000AF70BB27FA017097E07F70962E0F3F1F91
:102C4000109729F1A9014A0F5B1FBB24A72C962CD2
:102C5000852CD901ED919D01CE2ED12CE12CF12CAA
:102C6000D701C6018425FC01EE0FFF1FEE0FFF1FE9
:102C7000E25BF14F85919591A591B49124013501C5
:102C8000482659266A267B2642175307F1F6C301C8
:102C9000B2016095709580959095609399137093AB
:102CA0009A1380939B1390939C13E0CDE09188023C
:102CB000F0918902068CF78DE02DE081E9838E0189
:102CC0000F5F1F4FC80183709927E095892B11F47E
:102CD0000C94ED20B4E0EB9FF0011124E25BF14F86
:102CE00085919591A591B49180959095A0958093AB
:102CF000991390939A13A0939B13B0939C134CE356
:102D0000C42E42E0D42EEE24E394F12C6EE3862E02
:102D1000912C74E6A72EB12C26C0A0E1EA16A1E002
:102D2000FA0610F40C94A220E0918C02F0918D022E
:102D3000EC0DFD1D6081718177FF02C00C9435217F
:102D4000759567956983C8010E94EC8ABFEFEB1AFD
:102D5000FB0AE2E0CE1AD10820E2E21621E0F206F8
:102D600011F40C94671E8FEFE816F10409F0A8F631
:102D7000C701929582958F7089279F708927880F48
:102D8000991FE0918802F0918902E81BF90B068CEB
:102D9000F78DE02DC7018F709927E80FF91F60812B
:102DA000D1CF88EB9EE083709927892B11F40C9486
:102DB0004E2144244A94542C320140E850E028EB40
:102DC0003EE004C04115510509F461CFFF24E72C12
:102DD000D62CC52C2F5F3F4FF9013197E081D301ED
:102DE000C2019927AA27BB278E27FC01EE0FFF1FE0
:102DF000EE0FFF1FE25BF14F85919591A591B49184
:102E000026013701482659266A267B26415051095A
:102E1000F901E370FF27EF2BA9F64031510510F4BB
:102E20000C947521D9018A0100511109CD90DD90D2
:102E3000ED90FC901397C301B2016C257D258E2582
:102E40009F256B017C01DD24EE24FF24E3E0DE0EF0
:102E5000E11CF11CF601EE0FFF1FEE0FFF1FE25BFE
:102E6000F14F85909590A590B490C72ED12CE12C70
:102E7000F12CE2E0DE0EE11CF11CF601EE0FFF1F6B
:102E8000EE0FFF1FE25BF14F4590559065907490F7
:102E9000C82ED12CE12CF12CEFEFDE1AEE0AFE0A3F
:102EA000F601EE0FFF1FEE0FFF1FE25BF14FC59023
:102EB000D590E590F490692F772788279927FB0113
:102EC000EE0FFF1FEE0FFF1FE25BF14F6591759153
:102ED0008591949184249524A624B724C824D924C8
:102EE000EA24FB24C626D726E826F92614968D90D8
:102EF0009D90AD90BC9017978C249D24AE24BF2448
:102F000075016401DD24EE24FF2483E0D80EE11C6A
:102F1000F11CF601EE0FFF1FEE0FFF1FE25BF14FFA
:102F2000C590D590E590F490492C512C612C712CD2
:102F3000E2E05E0E611C711CF201EE0FFF1FEE0F4E
:102F4000FF1FE25BF14F65917591859194914A2C39
:102F5000512C612C712CEFEF5E1A6E0A7E0AF20181
:102F6000EE0FFF1FEE0FFF1FE25BF14F45905590F4
:102F7000659074908B2C9924AA24BB24F401EE0F45
:102F8000FF1FEE0FFF1FE25BF14F85909590A5901C
:102F9000B490C626D726E826F9264C245D246E2454
:102FA0007F24482459246A247B241896CD90DD90F0
:102FB000ED90FC901B97C424D524E624F724460109
:102FC00057019924AA24BB2483E0980EA11CB11CAC
:102FD000F401EE0FFF1FEE0FFF1FE25BF14F859034
:102FE0009590A590B4904D2C512C612C712CE2E061
:102FF0005E0E611C711CF201EE0FFF1FEE0FFF1F32
:10300000E25BF14F65917591859194914E2C512C15
:10301000612C712CEFEF5E1A6E0A7E0AF201EE0F40
:10302000FF1FEE0FFF1FE25BF14F4590559065903B
:103030007490CF2CDD24EE24FF24F601EE0FFF1F49
:10304000EE0FFF1FE25BF14FC590D590E590F49035
:1030500086269726A826B926482459246A247B2444
:103060004C245D246E247F241C968D909D90AD9001
:10307000BC901F9784249524A624B724750164016D
:10308000DD24EE24FF2483E0D80EE11CF11CF601C0
:10309000EE0FFF1FEE0FFF1FE25BF14F6591759181
:1030A00085919491C92CD12CE12CF12CE2E0DE0E1B
:1030B000E11CF11CF601EE0FFF1FEE0FFF1FE25B9C
:1030C000F14F4590559065907490CA2CD12CE12C0D
:1030D000F12CEFEFDE1AEE0AFE0AF601EE0FFF1FEB
:1030E000EE0FFF1FE25BF14FC590D590E590F49095
:1030F0008B2C9924AA24BB24F401EE0FFF1FEE0FA2
:10310000FF1FE25BF14F85909590A590B490462605
:10311000572668267926C424D524E624F7242601D8
:103120003701482459246A247B2450960031110524
:1031300008F07ACEDA01AF70BB27FA017097E07F12
:1031400070962E0F3F1F109709F4A1CDA9014A0FC9
:103150005B1FBB24A72C962C852CD901ED919D01DA
:10316000CE2ED12CE12CF12CD701C6018425FC01F7
:10317000EE0FFF1FEE0FFF1FE25BF14F8591959160
:10318000A591B49124013501482659266A267B264B
:1031900042175307F1F67BCDE0914209F0914309C4
:1031A000068CF78DE02DE081E9838E010F5F1F4FC4
:1031B000C80183709927E095892B11F40C94DE20C7
:1031C00024E0E29FF0011124E25BF14F859195919B
:1031D000A591B49180959095A09580939913909323
:1031E0009A13A0939B13B0939C13B2E0CB2EBEEF27
:1031F000DB2EEE24E394F12C9EE3892E912C24E621
:10320000A22EB12C28C0B0E1EB16B1E0FB0610F401
:103210000C94B220E0914609F0914709C4018C1941
:103220009D09E80FF91F6081718177FF02C00C943E
:103230003C21759567956983C8010E94EC8AEFEF80
:10324000EE1AFE0A22E0C20ED11CA0E2EA16A1E0AC
:10325000FA0609F43CC5AFEFEA16F10409F098F656
:10326000C701929582958F7089279F708927880F53
:10327000991FE0914209F0914309E81BF90B068C74
:10328000F78DE02DC7018F709927E80FF91F608136
:10329000D2CFE091C409F091C509068CF78DE02DDD
:1032A000E081E9838E010F5F1F4FC801837099276A
:1032B000E095892B11F40C940A21B4E0EB9FF00106
:1032C0001124E25BF14F85919591A591B491809580
:1032D0009095A0958093991390939A13A0939B1324
:1032E000B0939C13BCE3CB2EB2E0DB2EEE24E39430
:1032F000F12C9EE3892E912C24E6A22EB12C25C020
:10330000A0E1EA16A1E0FA0610F40C94BF20E091C7
:10331000C809F091C909EC0DFD1D6081718177FF2D
:1033200002C00C944021759567956983C8010E947D
:10333000EC8ABFEFEB1AFB0AE2E0CE1AD10820E2DA
:10334000E21621E0F20609F4C2C48FEFE816F10498
:1033500009F0B0F6C701929582958F7089279F700A
:103360008927880F991FE091C409F091C509E81BCE
:10337000F90B068CF78DE02DC7018F709927E80FA8
:10338000F91F6081D2CF89E39FE083709927892B51
:1033900011F40C94582144244A94542C320140E8EE
:1033A00050E029E33FE004C04115510509F46FCC1A
:1033B000FF24E72CD62CC52C2F5F3F4FF901319706
:1033C000E081D301C2019927AA27BB278E27FC01E0
:1033D000EE0FFF1FEE0FFF1FE25BF14F85919591FE
:1033E000A591B49126013701482659266A267B26E5
:1033F00041505109F901E370FF27EF2BA9F6403145
:10340000510510F40C947821D9018A010051110959
:10341000CD90DD90ED90FC901397C301B2016C2527
:103420007D258E259F256B017C01DD24EE24FF2464
:10343000E3E0DE0EE11CF11CF601EE0FFF1FEE0FC4
:10344000FF1FE25BF14F85909590A590B490C72E39
:10345000D12CE12CF12CE2E0DE0EE11CF11CF60196
:10346000EE0FFF1FEE0FFF1FE25BF14F45905590EF
:1034700065907490C82ED12CE12CF12CEFEFDE1A60
:10348000EE0AFE0AF601EE0FFF1FEE0FFF1FE25BD2
:10349000F14FC590D590E590F490692F7727882754
:1034A0009927FB01EE0FFF1FEE0FFF1FE25BF14FAD
:1034B000659175918591949184249524A624B724CF
:1034C000C824D924EA24FB24C626D726E826F926D0
:1034D00014968D909D90AD90BC9017978C249D2450
:1034E000AE24BF2475016401DD24EE24FF2483E0B3
:1034F000D80EE11CF11CF601EE0FFF1FEE0FFF1FAF
:10350000E25BF14FC590D590E590F490492C512C99
:10351000612C712CE2E05E0E611C711CF201EE0F59
:10352000FF1FEE0FFF1FE25BF14F659175918591D3
:1035300094914A2C512C612C712CEFEF5E1A6E0A7B
:103540007E0AF201EE0FFF1FEE0FFF1FE25BF14F4D
:1035500045905590659074908B2C9924AA24BB2497
:10356000F401EE0FFF1FEE0FFF1FE25BF14F85909E
:103570009590A590B490C626D726E826F9264C2427
:103580005D246E247F24482459246A247B241896C1
:10359000CD90DD90ED90FC901B97C424D524E624BB
:1035A000F724460157019924AA24BB2483E0980EEE
:1035B000A11CB11CF401EE0FFF1FEE0FFF1FE25B19
:1035C000F14F85909590A590B4904D2C512C612C85
:1035D000712CE2E05E0E611C711CF201EE0FFF1F08
:1035E000EE0FFF1FE25BF14F65917591859194910C
:1035F0004E2C512C612C712CEFEF5E1A6E0A7E0A54
:10360000F201EE0FFF1FEE0FFF1FE25BF14F45903F
:10361000559065907490CF2CDD24EE24FF24F601A4
:10362000EE0FFF1FEE0FFF1FE25BF14FC590D5902D
:10363000E590F49086269726A826B9264824592492
:103640006A247B244C245D246E247F241C968D9058
:103650009D90AD90BC901F9784249524A624B724F8
:1036600075016401DD24EE24FF2483E0D80EE11C03
:10367000F11CF601EE0FFF1FEE0FFF1FE25BF14F93
:103680006591759185919491C92CD12CE12CF12CE7
:10369000E2E0DE0EE11CF11CF601EE0FFF1FEE0F63
:1036A000FF1FE25BF14F4590559065907490CA2CD6
:1036B000D12CE12CF12CEFEFDE1AEE0AFE0AF60116
:1036C000EE0FFF1FEE0FFF1FE25BF14FC590D5908D
:1036D000E590F4908B2C9924AA24BB24F401EE0FDE
:1036E000FF1FEE0FFF1FE25BF14F85909590A590B5
:1036F000B4904626572668267926C424D524E62485
:10370000F72426013701482459246A247B24509643
:103710000031110508F07ACEDA01AF70BB27FA014B
:103720007097E07F70962E0F3F1F109709F4AFCA75
:10373000A9014A0F5B1FBB24A72C962C852CD9010D
:10374000ED919D01CE2ED12CE12CF12CD701C6019B
:103750008425FC01EE0FFF1FEE0FFF1FE25BF14F10
:1037600085919591A591B49124013501482659265A
:103770006A267B2642175307F1F689CAE0919A021E
:10378000F0919B02068CF78DE02DE081E9838E019C
:103790000F5F1F4FC80183709927E095892B09F4AB
:1037A0002BC5B4E0EB9FF0011124E25BF14F859152
:1037B0009591A591B49180959095A095809399133A
:1037C00090939A13A0939B13B0939C136CE3C62E13
:1037D00062E0D62EEE24E394F12CEEE38E2E912CB3
:1037E000F4E6AF2EB12C22C0A0E1EA16A1E0FA0661
:1037F00008F4D5C4E0919E02F0919F02EC0DFD1DEE
:103800006081718177FD35C5759567956983C801BC
:103810000E94EC8ABFEFEB1AFB0AE2E0CE1AD10855
:1038200020E2E21621E0F20609F451C28FEFE81619
:10383000F10409F0C8F6C701929582958F70892727
:103840009F708927880F991FE0919A02F0919B023F
:10385000E81BF90B068CF78DE02DC7018F709927B7
:10386000E80FF91F6081D2CF88E29EE0837099272C
:1038700044244A94542C3201892B09F423C540E88E
:1038800050E028E23EE004C04115510509F4FFC9AB
:10389000FF24E72CD62CC52C2F5F3F4FF901319721
:1038A000E081D301C2019927AA27BB278E27FC01FB
:1038B000EE0FFF1FEE0FFF1FE25BF14F8591959119
:1038C000A591B49126013701482659266A267B2600
:1038D00041505109F901E370FF27EF2BA9F6403160
:1038E000510508F407C5D9018A0100511109CD908D
:1038F000DD90ED90FC901397C301B2016C257D25FE
:103900008E259F256B017C01DD24EE24FF24E3E05E
:10391000DE0EE11CF11CF601EE0FFF1FEE0FFF1F84
:10392000E25BF14F85909590A590B490C72ED12C75
:10393000E12CF12CE2E0DE0EE11CF11CF601EE0FB1
:10394000FF1FEE0FFF1FE25BF14F45905590659012
:103950007490C82ED12CE12CF12CEFEFDE1AEE0A78
:10396000FE0AF601EE0FFF1FEE0FFF1FE25BF14FA5
:10397000C590D590E590F490692F772788279927EF
:10398000FB01EE0FFF1FEE0FFF1FE25BF14F659192
:1039900075918591949184249524A624B724C824F4
:1039A000D924EA24FB24C626D726E826F92614962D
:1039B0008D909D90AD90BC9017978C249D24AE2443
:1039C000BF2475016401DD24EE24FF2483E0D80EBA
:1039D000E11CF11CF601EE0FFF1FEE0FFF1FE25B73
:1039E000F14FC590D590E590F490492C512C612C65
:1039F000712CE2E05E0E611C711CF201EE0FFF1FE4
:103A0000EE0FFF1FE25BF14F6591759185919491E7
:103A10004A2C512C612C712CEFEF5E1A6E0A7E0A33
:103A2000F201EE0FFF1FEE0FFF1FE25BF14F45901B
:103A30005590659074908B2C9924AA24BB24F40192
:103A4000EE0FFF1FEE0FFF1FE25BF14F8590959089
:103A5000A590B490C626D726E826F9264C245D24E6
:103A60006E247F24482459246A247B241896CD9000
:103A7000DD90ED90FC901B97C424D524E624F72418
:103A8000460157019924AA24BB2483E0980EA11C67
:103A9000B11CF401EE0FFF1FEE0FFF1FE25BF14FB1
:103AA00085909590A590B4904D2C512C612C712C43
:103AB000E2E05E0E611C711CF201EE0FFF1FEE0FC3
:103AC000FF1FE25BF14F65917591859194914E2CAA
:103AD000512C612C712CEFEF5E1A6E0A7E0AF201F6
:103AE000EE0FFF1FEE0FFF1FE25BF14F4590559069
:103AF00065907490CF2CDD24EE24FF24F601EE0FA8
:103B0000FF1FEE0FFF1FE25BF14FC590D590E590D0
:103B1000F49086269726A826B926482459246A2494
:103B20007B244C245D246E247F241C968D909D90D4
:103B3000AD90BC901F9784249524A624B7247501CA
:103B40006401DD24EE24FF2483E0D80EE11CF11C87
:103B5000F601EE0FFF1FEE0FFF1FE25BF14F6591C5
:103B6000759185919491C92CD12CE12CF12CE2E036
:103B7000DE0EE11CF11CF601EE0FFF1FEE0FFF1F22
:103B8000E25BF14F4590559065907490CA2CD12C12
:103B9000E12CF12CEFEFDE1AEE0AFE0AF601EE0F31
:103BA000FF1FEE0FFF1FE25BF14FC590D590E59030
:103BB000F4908B2C9924AA24BB24F401EE0FFF1F50
:103BC000EE0FFF1FE25BF14F85909590A590B490AA
:103BD0004626572668267926C424D524E624F724C9
:103BE00026013701482459246A247B245096003149
:103BF000110508F07ACEDA01AF70BB27FA01709791
:103C0000E07F70962E0F3F1F109711F40C9447160B
:103C1000A9014A0F5B1FBB24A72C962C852CD90128
:103C2000ED919D01CE2ED12CE12CF12CD701C601B6
:103C30008425FC01EE0FFF1FEE0FFF1FE25BF14F2B
:103C400085919591A591B491240135014826592675
:103C50006A267B2642175307F1F60C94471660E05C
:103C600070E087E00F948907E82F89838E010F5F4A
:103C70001F4FC80183709927E095892B09F4D9C299
:103C8000B4E0EB9FF0011124E25BF14F8591959137
:103C9000A591B49180959095A09580939913909358
:103CA0009A13A0939B13B0939C13EE24E394F12CEE
:103CB000B70187E00F9489078983C8010E94EC8AC5
:103CC000AFEFEA1AFA0AB0EFEB16F10489F7609544
:103CD0007095809590950C94361460E070E088E0C3
:103CE0000F948907E82F89838E010F5F1F4FC8014A
:103CF00083709927E095892B09F4A9C224E0E29FFB
:103D0000F0011124E25BF14F85919591A591B49159
:103D100080959095A0958093991390939A13A09372
:103D20009B13B0939C13EE24E394F12CB70188E02D
:103D30000F9489078983C8010E94EC8AAFEFEA1AC1
:103D4000FA0AB0ECEB16F10489F7C1CF8FED9FE0D2
:103D500083709927892B09F4BAC244244A94542CBD
:103D6000320140EC50E02FED3FE005C04115510518
:103D700011F40C944716FF24E72CD62CC52C2F5F8A
:103D80003F4FF9013197E081D301C2019927AA275A
:103D9000BB278E27FC01EE0FFF1FEE0FFF1FE25B1C
:103DA000F14F85919591A591B4912601370148264F
:103DB00059266A267B2641505109F901E370FF27F5
:103DC000EF2BA1F64031510508F48AC2D9018A01CE
:103DD00000511109CD90DD90ED90FC901397C30137
:103DE000B2016C257D258E259F256B017C01DD248C
:103DF000EE24FF24E3E0DE0EE11CF11CF601EE0FE1
:103E0000FF1FEE0FFF1FE25BF14F85909590A5908D
:103E1000B490C72ED12CE12CF12CE2E0DE0EE11C97
:103E2000F11CF601EE0FFF1FEE0FFF1FE25BF14FDB
:103E30004590559065907490C82ED12CE12CF12CB2
:103E4000EFEFDE1AEE0AFE0AF601EE0FFF1FEE0F8D
:103E5000FF1FE25BF14FC590D590E590F490692F7C
:103E6000772788279927FB01EE0FFF1FEE0FFF1F13
:103E7000E25BF14F6591759185919491842495242D
:103E8000A624B724C824D924EA24FB24C626D7268E
:103E9000E826F92614968D909D90AD90BC901797CA
:103EA0008C249D24AE24BF2475016401DD24EE24FE
:103EB000FF2483E0D80EE11CF11CF601EE0FFF1F7A
:103EC000EE0FFF1FE25BF14FC590D590E590F490A7
:103ED000492C512C612C712CE2E05E0E611C711C8E
:103EE000F201EE0FFF1FEE0FFF1FE25BF14F659136
:103EF0007591859194914A2C512C612C712CEFEF86
:103F00005E1A6E0A7E0AF201EE0FFF1FEE0FFF1F10
:103F1000E25BF14F45905590659074908B2C9924FD
:103F2000AA24BB24F401EE0FFF1FEE0FFF1FE25B7C
:103F3000F14F85909590A590B490C626D726E82697
:103F4000F9264C245D246E247F24482459246A24B5
:103F50007B241896CD90DD90ED90FC901B97C424A7
:103F6000D524E624F724460157019924AA24BB242A
:103F700083E0980EA11CB11CF401EE0FFF1FEE0FA1
:103F8000FF1FE25BF14F85909590A590B4904D2C6A
:103F9000512C612C712CE2E05E0E611C711CF2014F
:103FA000EE0FFF1FEE0FFF1FE25BF14F6591759162
:103FB000859194914E2C512C612C712CEFEF5E1A4F
:103FC0006E0A7E0AF201EE0FFF1FEE0FFF1FE25B8B
:103FD000F14F4590559065907490CF2CDD24EE24E0
:103FE000FF24F601EE0FFF1FEE0FFF1FE25BF14F04
:103FF000C590D590E590F49086269726A826B926F8
:10400000482459246A247B244C245D246E247F2474
:104010001C968D909D90AD90BC901F978424952404
:10402000A624B72475016401DD24EE24FF2483E077
:10403000D80EE11CF11CF601EE0FFF1FEE0FFF1F63
:10404000E25BF14F6591759185919491C92CD12CCA
:10405000E12CF12CE2E0DE0EE11CF11CF601EE0F8A
:10406000FF1FEE0FFF1FE25BF14F459055906590EB
:104070007490CA2CD12CE12CF12CEFEFDE1AEE0A51
:10408000FE0AF601EE0FFF1FEE0FFF1FE25BF14F7E
:10409000C590D590E590F4908B2C9924AA24BB244C
:1040A000F401EE0FFF1FEE0FFF1FE25BF14F859053
:1040B0009590A590B4904626572668267926C42464
:1040C000D524E624F72426013701482459246A24FC
:1040D0007B2450960031110508F07ACEDA01AF70DA
:1040E000BB27FA017097E07F70962E0F3F1F109745
:1040F00011F40C944716A9014A0F5B1FBB24A72C8F
:10410000962C852CD901ED919D01CE2ED12CE12C40
:10411000F12CD701C6018425FC01EE0FFF1FEE0F25
:10412000FF1FE25BF14F85919591A591B491240118
:104130003501482659266A267B2624173507F1F6CD
:104140000C944716E0918A02F0918B02C4018C19FD
:104150009D09E80FF91F80819181B5010F94863880
:104160000C94A216E0914409F0914509EC0DFD1D57
:1041700080819181B5010F9486380C941B19E091D0
:10418000C609F091C709C4018C199D09E80FF91FF0
:1041900080819181B5010F9486380C949519E09136
:1041A0009C02F0919D02C4018C199D09E80FF91F32
:1041B00080819181B5010F94863828CB84E0E89FF7
:1041C000F0011124E25BF14F85919591A591B49195
:1041D00080959095A0950C94ED1824E0E29FF00155
:1041E0001124E25BF14F85919591A591B491809551
:1041F0009095A0950C94771624E0E29FF00111248D
:10420000E25BF14F85919591A591B4918095909540
:10421000A095D4CA24E0E29FF0011124E25BF14FA3
:1042200085919591A591B49180959095A0950C94C8
:104230006A1924E0E29FF0011124E25BF14F8591BD
:104240009591A591B49180959095A09526CD84E007
:10425000E89FF0011124E25BF14F85919591A591C2
:10426000B49180959095A09556CD6F5F7F4F0C943B
:10427000A0166F5F7F4FC8CA6F5F7F4F0C941919EC
:104280006F5F7F4F0C94931940EC50E026E63DE0C1
:1042900044244A94542C32010C948F1428EB3EE0B1
:1042A00044244A94542C320140E850E00C941217F4
:1042B00029E33FE040E850E044244A94542C320182
:1042C0000C94041A28E23EE040E850E00CCB2FEDBD
:1042D0003FE044244A94542C320140EC50E076CD27
:1042E000DA0105CFDA010C942016DA010C94A31838
:1042F000DA011BCADA0188CC2F923F924F925F926B
:104300006F927F928F929F92AF92BF92CF92DF92E5
:10431000EF92FF920F931F93CF93DF93CDB7DEB74A
:10432000A3970FB6F894DEBF0FBECDBF2091A010AB
:10433000222309F4B3C1E0919F108E2F90E0FC017D
:10434000FF97EC33F10508F065C08827E854FF4F6C
:104350008F4F0D94643A1092F5129091E6149230BA
:1043600009F4E1C4933011F40C94532B8EEE890FB1
:10437000843010F00C94FA2A87E1891B0E9495D1B1
:104380004091E31450E06091E0147091E114909139
:10439000E614923011F40C94F72A933011F40C9433
:1043A000592B8EEE890F843010F00C94FD2A87E192
:1043B000891B0E94BFD19091E514923011F40C94A6
:1043C000F42A933011F40C94562B8EEE890F84301E
:1043D00010F00C94002B87E1891B0E9495D140912D
:1043E000E21450E06091DE147091DF149091E514B6
:1043F000923011F40C945C2B933011F40C94A32B99
:104400008EEE890F843010F00C945F2B87E1891BAE
:104410000E94BFD1A3960FB6F894DEBF0FBECDBFEA
:10442000DF91CF911F910F91FF90EF90DF90CF9090
:10443000BF90AF909F908F907F906F905F904F90C4
:104440003F902F9008958091E3132091E41390E022
:10445000805C9F4F821B91098F739927892B99F359
:104460000E94438B833010F00C94292B90E0880F2E
:10447000991FFC01E45CFD4F80809180FC01EA5CA7
:10448000FD4F208131813BA32AA3FC01E05DFD4F5C
:1044900040805180FC01E65DFD4FA080B180FC01B1
:1044A000EC5DFD4F60807180809173158D3011F44B
:1044B0000C94F12A809173148D3011F40C94F12A2C
:1044C00080916F148D3011F40C94F12A8091901129
:1044D0008D3011F40C94F12A809170148D3011F408
:1044E0000C94F12A809177148D3011F40C94F12AF8
:1044F000809176148D3011F40C94F12A809172140D
:104500008D3011F40C94F12A8DE00E94EC8960E06A
:104510008DE00E94E1FB22242394C12CD12CFF24A6
:10452000F39400E010E031E0A316B10409F436C1C1
:104530008091E3132091E41390E0805C9F4F821BF5
:1045400091098F73992702979CF39091E3138091BF
:10455000E413981711F40C94ED2AE091E413F0E0C1
:10456000E653FC4E258D9091E4139F5F9F739093CB
:10457000E41330E09091E3138091E413981711F461
:104580000C94E92AE091E413F0E0E653FC4E958D9B
:104590008091E4138F5F8F738093E413892F90E0F1
:1045A000982F8827B201822B932B0F948638605264
:1045B0007109CB01880F991F880F991F860F971FCC
:1045C00069E070E00F948638FF2009F40AC14AA11F
:1045D0005BA1640F751F6F3F710511F00CF037C7B9
:1045E00077FF52C7312C7801F594E794F401EE0D72
:1045F000FF1D3082E60CF71CC7010F94103A83159B
:1046000021F0632DC7010F94183A211023C7FFEF43
:10461000CF1ADF0AF12C0F5F1F4F011524E012079C
:1046200009F081CF80E3882E83E0982E93E3A92EB2
:1046300097E0B92E21E3C22E25E0D22E0FEF1DE028
:10464000C8010F94103AF40161914F01861719F0D7
:10465000C8010F94183A7801F2E0FF1AC7010F94CD
:10466000103AF60161916F01861719F0C7010F9496
:10467000183A7801F4E0FF1AC7010F94103AF501D7
:1046800061915F01861719F0C7010F94183A0F5F07
:104690001F4F0F3FFFE01F0799F6BCCE9091E31329
:1046A0008091E413981711F40C94A62BE091E41375
:1046B000F0E0E653FC4E858D9091E4139F5F9F736D
:1046C0009093E413E82FE0939F1037CE81E080931E
:1046D000F5121092F412809195128F7B80939512AF
:1046E0001092650D1092640D1092D6101092EB147A
:1046F0001092EC141092ED141092EE149091E614B6
:10470000923009F444C5933009F4DCC78EEE890F6A
:10471000843008F07AC787E1891B0E9495D1909177
:10472000E614923009F46FC7933009F4D1C78EEEC6
:10473000890F843008F06FC787E1891B41E050E0A2
:1047400068E874EE0E94BFD19091E514923009F4AC
:1047500060C7933009F4BAC78EEE890F843008F031
:1047600056C787E1891B0E9495D19091E51492303C
:1047700009F4AAC7933009F4E4C78EEE890F843098
:1047800008F08BC787E1891B41E050E064E973EED4
:104790000E94BFD181E00E9423883CCE8091E31328
:1047A0002091E41390E0805C9F4F821B91098F73EE
:1047B0009927892B99F39091E3138091E41398172B
:1047C00009F46DC7E091E413F0E0E653FC4E658D0B
:1047D0008091E4138F5F8F738093E41370E0F11086
:1047E000F6CEFF24F39417CF81E08093A010809140
:1047F000E3132091E41390E0805C9F4F821B9109AA
:104800008F73992702970CF405CE0E94438B0E9468
:10481000438B8091AA1280E00E9423887C018091C2
:10482000AA120E94238800E710E00E191F09081B36
:10483000190B80919A120E942388081B190B8091F2
:1048400099120E942388081B190B80919C120E94C8
:104850002388081B190B80919B120E942388081B38
:10486000190B80914E120E942388081B190B80910E
:104870004D120E942388081B190B80917D122AE09B
:104880008202700111248F2D0E942388081B190BAE
:104890008E2D0E942388081B190B8091E8120E941C
:1048A0002388081B190B809198120E942388081BEB
:1048B000190B80918A120E942388081B190B809182
:1048C0008A120E942388081B190B83E60E94238802
:1048D000081B190B83E60E942388081B190BE09024
:1048E0005F123AE0E39E700111248F2D0E9423880D
:1048F000081B190B8E2D0E942388081B190B809111
:104900005712909158127C01EE0CFF1C880F991FD2
:10491000880F991F880F991FE80EF91E8F2D0E948E
:104920002388081B190B8E2D0E942388081B190B46
:1049300080916F12909170127C01EE0CFF1C880F19
:10494000991F880F991F880F991FE80EF91E8F2D48
:104950000E942388081B190B8E2D0E942388081B98
:10496000190B80916B1290916C127C01EE0CFF1C64
:10497000880F991F880F991F880F991FE80EF91E3D
:104980008F2D0E942388081B190B8E2D0E942388CF
:10499000081B190BE09060124AE0E49E700111249C
:1049A0008F2D0E942388081B190B8E2D0E942388AF
:1049B000081B190B80E00E942388081B190B8091AB
:1049C0007C120E942388081B190B80E00E94238818
:1049D000081B190B809169120E942388081B190B70
:1049E00080E00E942388081B190B80916A120E94A4
:1049F0002388081B190B83E60E942388081B190BC8
:104A000083E60E942388081B190BE09082125AE06B
:104A1000E59E700111248F2D0E942388081B190B1D
:104A20008E2D0E942388081B190B8F2D0E9423882E
:104A3000081B190B8E2D0E942388081B190BE09070
:104A400085128AE0E89E700111248F2D0E94238830
:104A5000081B190B8E2D0E942388081B190BE09050
:104A600083129AE0E99E700111248F2D0E94238801
:104A7000081B190B8E2D0E942388081B190B83E637
:104A80000E942388081B190B83E60E942388081BB9
:104A9000190B83E60E942388081B190B83E60E94EA
:104AA0002388081B190B83E60E942388081B190B17
:104AB00083E60E942388081B190B80917E12909137
:104AC0007F127C01EE0CFF1C880F991F880F991F25
:104AD000880F991FE80EF91E8F2D0E942388081B4E
:104AE000190B8E2D0E942388081B190BE09066126B
:104AF000EAE0EE9E700111248F2D0E942388081B8E
:104B0000190B8E2D0E942388081B190BE090681248
:104B1000FAE0EF9E700111248F2D0E942388081B5C
:104B2000190B8E2D0E942388081B190B83E60E9407
:104B30002388081B190B83E60E942388081B190B86
:104B400083E60E942388081B190B83E60E942388B2
:104B5000081B190BE09062122AE0E29E70011124FA
:104B60008F2D0E942388081B190B8E2D0E942388ED
:104B7000081B190BE09063123AE0E39E70011124C8
:104B80008F2D0E942388081B190B8E2D0E942388CD
:104B9000081B190B8091791290917A127C01EE0C0E
:104BA000FF1C880F991F880F991F880F991FE80E07
:104BB000F91E8F2D0E942388081B190B8E2D0E9431
:104BC0002388081B190B83E60E942388081B190BF6
:104BD00083E60E942388081B190B2091EA1230916A
:104BE000EB12C901880F991F48E0249F800D112402
:104BF0000E942388081B190B83E60E942388081B48
:104C0000190B83E60E942388081B190B83E60E9478
:104C10002388081B190B101611060CF04CC0E12C50
:104C2000F12C83E60E9423885FEFE51AF50A0E1542
:104C30001F05B9F740C080910B0C882309F400C50B
:104C4000222309F4D4C58091E3132091E41390E06A
:104C5000805C9F4F821B91098F739927892B99F351
:104C600060E080910A0C0E94E1FBD4CB81E080934C
:104C7000A0108091E3132091E41390E0805C9F4F9B
:104C8000821B91098F73992706970CF4C3CB0E945E
:104C9000438B0E94438B0E94438B0E94438B0E9454
:104CA000438B0E94438B8091F41281119AC58091AD
:104CB000F51281114EC51092A010ACCB81E080930B
:104CC000A0108091E3132091E41390E0805C9F4F4B
:104CD000821B91098F73992706970CF49BCB0E9436
:104CE000438B0E94438B803331F70E94438B182FF4
:104CF0000E94438B082F0E94438BD82E0E94438B27
:104D0000982F8827BC016D29F02EE12C40E3C701C4
:104D1000812B0E94C4F8CFCF1092F4129091E61428
:104D2000923009F01FCB80E029CB81E08093A01066
:104D30008091E3132091E41390E0805C9F4F821BED
:104D400091098F739927892B09F464CB0E94438BB7
:104D50008093420FB0CF8AEF9CE00E94338AE0E359
:104D6000EE2EE3E0FE2E412C512C3201FAE08F2E84
:104D7000912CA12CB12C19A2A30192018E010F5DDF
:104D80001F4FCA01B901A50194010F94CD38605D90
:104D9000F80162938F01211531054105510589F70D
:104DA000309751F001900020E9F73197BF01601B67
:104DB000710BC8010E94178962E070E082E892E0FE
:104DC0000E941789F70121917F0130E040E050E017
:104DD00019A28E010F5D1F4FCA01B901A5019401EF
:104DE0000F94CD38605DF80162938F012115310574
:104DF0004105510589F7309751F001900020E9F7FE
:104E00003197BF01601B710BC8010E94178962E0D6
:104E100070E08FE792E00E941789FFEF4F1A5F0A58
:104E20006F0A7F0A411422E052066104710409F0FE
:104E3000A2CF8FEE9CE00E94338A61E3E62E65E00C
:104E4000F62E412C512C32017AE0872E912CA12C88
:104E5000B12C19A2A30192018E010F5D1F4FCA014F
:104E6000B901A50194010F94CD38605DF8016293FA
:104E70008F01211531054105510589F7309751F012
:104E800001900020E9F73197BF01601B710BC80149
:104E90000E94178962E070E082E892E00E94178920
:104EA000F70121917F0130E040E050E019A28E012E
:104EB0000F5D1F4FCA01B901A50194010F94CD38B0
:104EC000605DF80162938F0121153105410551059F
:104ED00089F7309751F001900020E9F73197BF0131
:104EE000601B710BC8010E94178962E070E08FE7B8
:104EF00092E00E941789FFEF4F1A5F0A6F0A7F0A3C
:104F0000411422E052066104710409F0A2CF8CEE34
:104F10009CE00E94338A43E3E42E47E0F42E412CC8
:104F2000512C32015AE0852E912CA12CB12C19A2C2
:104F3000A30192018E010F5D1F4FCA01B901A501A6
:104F400094010F94CD38605DF80162938F012115B3
:104F500031054105510589F7309751F00190002046
:104F6000E9F73197BF01601B710BC8010E941789D7
:104F700062E070E082E892E00E941789F7012191D7
:104F80007F0130E040E050E019A28E010F5D1F4F1D
:104F9000CA01B901A50194010F94CD38605DF801F3
:104FA00062938F01211531054105510589F730972D
:104FB00051F001900020E9F73197BF01601B710BA0
:104FC000C8010E94178962E070E08FE792E00E94BA
:104FD0001789FFEF4F1A5F0A6F0A7F0A411422E018
:104FE00052066104710409F0A2CF88EE9CE00E9491
:104FF000338A88E5E82E8FE0F82E9CEBC92E9EE0E0
:10500000D92E22E6A22E2FE0B22E3AE0432E512CCA
:10501000612C712CF70121917F0130E040E050E0DC
:1050200019A28E010F5D1F4FCA01B901A3019201A0
:105030000F94CD38605DF80162938F012115310521
:105040004105510589F7309751F001900020E9F7AB
:105050003197BF01601B710BC8010E94178965EE73
:105060007CE08AEC93E10E9424F8F60181916F01C3
:105070000E94F6FAAE14BF0469F68AEC93E10E942E
:105080006DCFC8C981E08093A01080910802882369
:1050900009F4C3C28091E3132091E41390E0805C93
:1050A0009F4F821B91098F73992703970CF4B2C904
:1050B0000E94438B182F0E94438B982F88279C01B6
:1050C000212B89011093D5100093D4100E94438B9B
:1050D000682FC8010E9491ECEECD0E94D0E49AC9DD
:1050E00067E57DE08AEC93E10E9424F81092AA1211
:1050F00091C969E67DE08AEC93E10E9424F88AC9AF
:1051000081E08093A0108091E3132091E41390E05C
:10511000805C9F4F821B91098F739927892B09F41B
:1051200079C90E94438B90ED980F9A3008F0A3C282
:10513000909309028EEF890F823008F4AAC295304D
:1051400009F4A7C29B3009F4A4C210920802B3CD9F
:1051500062E070E08FE792E00E9417895BC90E94CD
:10516000982D58C981E08093F4121092F512809125
:1051700095128F7B809395121092650D1092640D9D
:105180001092D6109091E614923009F0BCCA80E0DB
:10519000C4CA6AE77DE08AEC93E10E9424F83AC928
:1051A00041E364E670E080E090E00E94C4F832C918
:1051B00080E998E00E94338A2DC90E941EDD2AC929
:1051C00011E01093A0108091D310882309F482C2BB
:1051D0000091CF101091D010E090D110F090D2102B
:1051E0008091E3132091E41390E0805C9F4F821B39
:1051F00091098F739927892B09F4E5C10E151F05B5
:1052000018F5C090D410D090D5100E94438B682F11
:10521000C601800F911F0E9491EC0F5F1F4F1093EA
:10522000D0100093CF108091E3132091E41390E00D
:10523000805C9F4F821B91098F739927892B09F4FA
:10524000C2C10E151F0508F31092A0101092D310C2
:10525000E1C881E08093A0108091E3132091E413D2
:1052600090E0805C9F4F821B91098F739927029772
:105270000CF4D0C80E94438BF82E0E94438B2091DF
:105280004D1230914E12232B09F015CD1F2D00E049
:10529000082B0A3082E0180709F418C40CF4D0C2B5
:1052A000053023E0120709F4FAC20CF4AEC208304C
:1052B000F3E01F0709F4E0C30CF4CFC30A3043E066
:1052C000140709F4E4C30B30134009F0F4CC8091C7
:1052D000BC1281FFF0CC60919811809196110E94D0
:1052E000E1FBE9CC81E08093A0108091E313209151
:1052F000E41390E0805C9F4F821B91098F73992784
:1053000006970CF487C80E94438B0E94438BD82ECB
:105310000E94438BF82E0E94438B982F88278C0184
:105320000F291093D5100093D4100E94438BC82EE0
:105330000E94438B982F88277C01EC281E141F04A1
:105340000CF0B9CCE00EF11EB8018D2D0F94890739
:105350000E9423880F5F1F4FE016F106A9F7ABCC20
:105360000E94FD0F57C881E08093A0108091E31345
:105370002091E41390E0805C9F4F821B91098F7312
:10538000992702970CF446C80E94438B0E94438BD6
:105390000E941A14162F072FF82E892F0E94238897
:1053A0008F2D0E942388802F0E942388812F0E94A6
:1053B00023881092A0102EC88091AB129091AC124D
:1053C000A091AD12B091AE120E9423888091AB12D1
:1053D0009091AC12A091AD12B091AE12892F0E94A3
:1053E000238818C881E08093A0108091E313209156
:1053F000E41390E0805C9F4F821B91098F73992783
:1054000002970CF407C80E94438B0E94438B0E94B2
:10541000948D1092A0100C940A228091A416909161
:10542000A516009709F4E0C19E012F5F3F4FF901D7
:10543000E81BF90BCF01F093B212E093B1120E9476
:1054400023888091B2120E9423880C940A2233246C
:105450003A94C9C8C60162E370E00F9486387C01B3
:105460008DE00E94EC89E114F10449F0EBE1FFE1E9
:10547000849190E0FC013197E231F10538F060E071
:105480008DE00E94E1FBC3C8362EADC88827EC50E2
:10549000FF4F8F4F0D94643A809120018860809374
:1054A0002001F0922D01E0922C01B1C880912001E1
:1054B000806280932001F0922B01E0922A01A7C81C
:1054C00080912001806880932001F0922901E09270
:1054D00028019DC88091A00088608093A000F09270
:1054E000AD00E092AC0093C88091A00080628093F0
:1054F000A000F092AB00E092AA0089C88091A000C1
:1055000080688093A0008091A0008F7B8093A00092
:10551000F092A900E092A8007AC88091900088607B
:1055200080939000F0929D00E0929C0070C8809162
:105530009000806280939000F0929B00E0929A002D
:1055400066C880919000806880939000F0929900E6
:10555000E09298005CC88091B00080628093B000B7
:10556000E092B40054C88091B00080688093B0008D
:10557000E092B3004CC880918000886080938000E6
:10558000F0928D00E0928C0042C880918000806291
:1055900080938000F0928B00E0928A0038C880915E
:1055A0008000806880938000F0928900E0928800FB
:1055B0002EC884B5806284BDE8BC29C884B58068E3
:1055C00084BDE7BC24C80E151F0510F40C940A22F4
:1055D0003BCE80E09FEF0C94D2222FEF30E00C9472
:1055E000BA22212C0C948D2280E00C94ED2180E0D5
:1055F0000C94D9218FEF0C94BE218FEF0C94D921FC
:105600008FEF0C94ED2180E099C88FEF86C88FEF63
:10561000AAC880E0A8C88FEF91C88091E3132091B9
:10562000E41390E0805C9F4F821B91098F73992750
:10563000029714F40C940A220E94438B8C0142CDF1
:1056400021110C940A2282E09DE00E94338A0C947E
:105650000A2266246A9469E0762EAA24A394B12CC7
:1056600044244394512C1BA21AA2F3E38F2EF7E09B
:105670009F2E0C9454229FE9980F963008F0BCC0DE
:1056800099EA980F909309028EEF890F823008F003
:1056900059CD81E0809308020ECB8FEF75C86FEF74
:1056A0007FEF0C94E42281E00C94BE2181E00C9405
:1056B000ED2181E00C94D92180E00C9408228FEF39
:1056C0000C94082281E029C880E05EC881E04BC8C4
:1056D00081E034C88091E3132091E41390E0805C72
:1056E0009F4F821B91098F739927079714F40C948D
:1056F0000A220E94438B0E94438B809309020E94DE
:10570000438B082F0E94438B982F8827802B9093E0
:10571000D5108093D4100E94438B082F0E94438B96
:10572000982F88277C01E02AF092D210E092D110C5
:105730001093D3101092D0101092CF1000E010E010
:105740004FCD81E021C881E00C940822EFEF0C944A
:1057500063238091951286FF3BC00FE710E0C12CB8
:10576000D12C760109C08091D6108F5F8093D6101E
:105770000150110909F496C1E091D610F0E0EE0F46
:10578000FF1FEE0FFF1FEC52F64F80819181A28127
:10579000B381C80ED91EEA1EFB1E8F2D0E942388DE
:1057A0008E2D0E9423888D2D0E9423888C2D0E948F
:1057B0002388E091D610F0E0E151FB4E80810E94F9
:1057C00023888091D6108F3771F61092D610D0CFE3
:1057D0000BE712E080E00E94238801501109D1F705
:1057E0006ACA0E941EDD67CA88EA96E11DCE87E27A
:1057F0009DE00E94338A27CA9FEB980F963008F4E9
:1058000049C080930902982F95CC013043E01407DA
:1058100009F483C10CF478C1023093E0190709F44C
:1058200068C10430134009F046CA8091BC1281FF60
:1058300042CA60910C02809197110E94E1FB3BCA21
:105840000230E2E01E0709F4DBC00CF471C0053041
:1058500052E0150709F458C00CF43FC00730E2E0ED
:105860001E0741F10830124009F025CA8091BC1290
:1058700081FF21CA9091A411E091A211F091A3118E
:105880008081909589238083809195128B7F80936E
:10589000951211CA99EC980F90930902F5CE809158
:1058A000BC1281FF08CA60919811809197110E94E3
:1058B000E1FB01CA8091BC1281FFFDC99091A41146
:1058C000E091A211F091A3118081892B80838091B6
:1058D0009512846080939512EEC90430124009F04D
:1058E000EAC98091BC1281FFE6C990919E11E091B6
:1058F0009C11F0919D118081892B8083809195125C
:10590000826080939512D7C98091BC1281FFD3C960
:1059100090919E11E0919C11F0919D118081909544
:1059200089238083809195128D7F80939512C3C9BE
:10593000013021E0120709F48AC0013032E0130778
:1059400009F472C00115114009F0B5C98091BC126B
:105950008D7F8093BC1260919811809195110E9467
:10596000E1FB60919811809197110E94E1FB609199
:105970009811809194110E94E1FB6091981180919F
:1059800096110E94E1FB90919B11E0919911F09189
:105990009A118081909589238083809195128E7FC2
:1059A0008093951290919E11E0919C11F0919D1120
:1059B0008081909589238083809195128D7F80933B
:1059C00095129091A411E091A211F091A311808100
:1059D000909589238083809195128B7F8093951277
:1059E0009091A811E091A611F091A7118081909556
:1059F0008923808380919512877F809395125BC95C
:105A00008091BC1281FF57C990919B11E09199112F
:105A1000F0919A11808190958923808380919512CD
:105A20008E7F8093951247C98091BC1281FF43C934
:105A300090919B11E0919911F0919A118081892B9D
:105A400080838091951281608093951234C98091F2
:105A5000BC1282608093BC122EC90730134009F03B
:105A60002AC98091BC1281FF26C960910C028091E5
:105A700094110E94E1FB1FC98091BC1281FF1BC9D8
:105A800060919811809194110E94E1FB14C980915A
:105A9000BC1281FF10C960910C02809196110E9486
:105AA000E1FB09C9809195128F7B8093951210922A
:105AB000650D1092640D1092D6101092EB14109296
:105AC000EC141092ED141092EE14F5C88091BC12F3
:105AD00081FFF1C89091A811E091A611F091A71152
