:100000000C942B100C946BDA0C9440DA0C9415DAE7
:100010000C94EAD90C94BFD90C9494D90C9469D956
:100020000C943ED90C945C100C945C100C945C10F5
:100030000C945C100C945C100C945C100D94200ECD
:100040000C945C100D9411070D94B0060C9405737C
:100050000C945C100C945C100C945C100D94B332F6
:100060000C945C100C94F3DB0C94B3DB0C945C10DC
:100070000C945C100C945C100C945C100C945C1050
:100080000C9436580C94AE570C9426570C945C1074
:100090000C945C100C945C100C945C100C945C1030
:1000A0000C945C100C945C100C9408540C949E56A8
:1000B0000C946D530C945C100C945C100C94F555DE
:1000C0000C944C550C94A3540C945C100C945C1040
:1000D0000C945C100C945C100C947DDB0C943DDB58
:1000E0000C945C1032172D19AA19241A1F1C951C88
:1000F000901ECE1E071FAF14B7164D04770377036B
:100100007703770377034D03770377037703770349
:10011000E3027703770377037703C9037703410487
:1001200077037703770377037703770377037703FF
:1001300077037703770377037703770377037703EF
:1001400077037703770377037703770377037703DF
:10015000770377037F03770377037703DF032B04AA
:1001600099028B027503E101E5036B04A302CB0343
:1001700093275F228B278827F8235F22A2279B27BC
:100180005F229C235F22FD275F22DC275F22D52789
:100190005F2261285A285F228A28302613261026DB
:1001A000E5255F225F2254245F225F225F225F22C7
:1001B0005F223C2422240327ED26C4265F225F22EF
:1001C0005F220B225F2236275F225F221D275F22DC
:1001D0005F221C285F2295265F2278225F225F2201
:1001E0003F275F225F2298274A2945293B29312949
:1001F0002729AB281F2917290D290329F928EA28BF
:10020000E028D628AB28CC28C228B828FF2F1831E0
:10021000EA2F3E2E292EB32C4F2B7F2A3E2A452B28
:100220000331A6410E415241ED40AC4070408D3942
:100230002540EAACEFAC0DAD22AD27AD3CAD41ADF4
:1002400060AD84ADD0ACD5AC34C6FDC678CB82CA27
:10025000C7CA51C834C9C9C937CA91C7B2CDBFCC02
:1002600044CD0ECC12CF3BCE7FCE9EC5BADAB8DAE3
:10027000B6DAB4DAB2DABCDABEDA23DB1BDB0FDBC8
:1002800001DBF0DA2FDBD9DA80DF80DFEADFFBDFAA
:1002900074DFA3DF8EE200E089E2BEE2D9DF1EE771
:1002A00025E741E75DE765E781E789E7A8E7C8E774
:1002B00017E7F8E6EAF937FA89FAE7FADDF5DDF546
:1002C0004DFBDDF5AAFB04FC5EFCDDF5DDF5DDF59F
:1002D000DDF5DDF5DDF5DDF5DDF5DDF5ADFCDDF5B7
:1002E000DDF5DDF5DDF5DDF5DDF5DDF5DDF5DDF57E
:1002F000F0FC42FDDDF5DDF5DDF5DDF5DDF5DDF5E7
:10030000DDF5DDF5A7FD09FEDDF5DDF5DDF56EFEBC
:10031000DDF5DDF5DDF5DDF5DDF5DDF5DDF5DDF54D
:10032000DDF52BF692FFB1FFED01290237029D02A8
:1003300075049302570414FF35FF81037303F5011D
:10034000F70255034F047D02E7034103B701690338
:100350000904C103A7024F04C303A303FF030C94C2
:1003600018A20C94B32C0C94004F0C94A9B00D94CB
:10037000A1310C94E6C40D94A6170C9458860C94E5
:1003800089C10C9495470C94B2DA0C9422AD0C946C
:10039000BA4C0C9439B00C9410C40C9430260C94C4
:1003A000C8E70C9482AF0D94FD6C0C948A280C94D1
:1003B0006ED80C946E480C94DA4D0C94104E0C943C
:1003C000ADFC0D94A2570D949E1F0D943B230C94ED
:1003D000A3DF0D94EF180C9451C80D940E000C94EB
:1003E0003C480C94534F0C9441E70D947D310C9490
:1003F000EA2F0C947FCE0C94A4C00D94A33D0C94D2
:10040000241A0C941BDB0C941EC20C945DE70C9414
:10041000E0280D949B190C9437FA0C9478220C94D4
:1004200003270C94C5B90C94AA190C94C0470C94DA
:100430001F490C94FD270C94AF140C9435FF0C94B9
:1004400058AF0C944E4A0C9488270C9436270C9481
:100450004A290D9469000C9461960C949E4D0C945D
:1004600034C60C947C710C940DAD0C94045B0D940B
:1004700088000D945F270C94951C0C94915E0C944D
:10048000BA5B0C948EE20C9465E70C9442D70C9402
:1004900044CD0C945F220C94CC280C94F5BF0C94A2
:1004A0001C280C9425E70C9470400C9403ED0C94DC
:1004B0000ECC0C94C1D80C944C4E0C948AC10C9464
:1004C000325D0C945A280C9482470C941F290C948A
:1004D000E55D0C94BA480C94FBDF0C9489710C9484
:1004E000A0480C9442FD0C94F3C30D94BD220C94CF
:1004F00003310C94EFAC0C94824E0D948F310C941C
:100500001D270C94EAF90C942F950C9412CF0D949E
:10051000101A0C943F270D9455580C949EC50C94BA
:1005200031290C9461280D94D9010C94E7D80C94CE
:100530003CAD0D9425580C94D9DA0D94E7000C9439
:10054000C7C40C94452B0D94CA480C94CE1E0D9430
:10055000B9310C9442890C9413260C9452410C949A
:100560001EE70C9495260D94C5400C949C230C9486
:100570000FDB0C94ED400C945C470C94DBC30D94A2
:10058000761C0C94FA4E0C948C710C94F5C40C945B
:1005900014FF0C946F470C9423DB0C94E7FA0D9432
:1005A0005F240C9432170C94A7FD0C94B94A0C9458
:1005B00014C50C94F2470C9448C40C94C7CA0C940C
:1005C00003290C941F1C0D9408430D9426270C94AA
:1005D0006A6F0C94292E0C9417290C9492FF0C949A
:1005E00062960C94B3ED0D94C12C0C942E4B0D948B
:1005F00083310C94A6470C9443D70C94D5270C94C4
:10060000E9C20C94F8E60C94EA280C94FF2F0C94A1
:10061000B2CD0C9488480C94F0FC0C94BFCC0C9494
:1006200024480C94F84A0C943C240C9478CB0C94F9
:10063000D3D80C94B2890C94055B0C9434C90D94F6
:10064000A83E0C94ED260C9484490C947F2A0C94BB
:10065000BCDA0C9480DF0C94684F0C9491C70C9416
:100660009E840C94315D0C9425400C945EFC0C949B
:100670000D290D944C1B0C94D9D70C94D6280C94AE
:1006800041AD0D949B310C9445290C9489E20C9456
:100690002A5C0C94EE500D944C1D0D94D54B0C948B
:1006A000B7160D946D1E0C94DDF50D9489310C94E4
:1006B0004DFB0D9424220C942BC40C94294F0C94C4
:1006C00084AD0C9498270C949B270D94E9240C94EA
:1006D0004F2B0D94A7310C9474DF0C9449660C9445
:1006E00089FA0C945E700D9479310D94F6570D943F
:1006F00044430C9456480C94124C0C942BF60D94D5
:10070000CC4B0D9475310C94AEA20C9418310C9412
:1007100027AD0C946B950C94E5250C9481E70D9412
:10072000EE180C9409D80C943B290C94B8280C941E
:10073000A6850D94B9200C94A2270C94A6410C9484
:10074000D5AC0C94D8470D94C5310C94BE4E0C9486
:1007500082CA0C94B7C40C948FEE0C94A9C30C9469
:10076000AB280C940A480C94EE7C0C943BCE0C9471
:10077000F0DA0C9424500C9460AD0C9454240C9436
:10078000EB8A0D94B3310D94BF310C94DC270C949B
:10079000844C0D94FA4B0D94EE560C943E2A0C9416
:1007A000FDC60C9400E00C9405C50C94F64C0C941A
:1007B000F8230C942C4D0C9401DB0C9419A20D948D
:1007C000114C0C94EADF0D940B1A0D945F570D94A5
:1007D00095310C942FDB0C94BEE20D949B2D0C9460
:1007E000A8BA0C94A8E70D9425220C94C1C30C94CC
:1007F00024C50D94A21D0C94B4DA0C9404880D94B5
:100800006F310C9417E70C9497EF0C94AC400C9458
:10081000D9DF0D94AD310C94D0AC0C940B220C9418
:10082000071F0D94103E0C9489E70C9437CA0D9461
:1008300094230C94D6C40C942E950C9493270C946A
:1008400009FE0C948B270C946EFE0D94ED180C94FD
:10085000555E0C942D190D94094C0C94468A0C94F9
:10086000C9C90C94BADA0C94C2280C942B5C0D9470
:10087000FE1B0C94A04B0D94F03F0C9404FC0C94C4
:100880008D390D94F24B0C94BEDA0C94014F0C94FC
:1008900027290D947F250C94C4260D94E94B0D94C3
:1008A00074310C94B1FF0C940E410C94AAFB0D947E
:1008B000E7020C94F6BF0C943E2E0C9422240C9468
:1008C000901E0C94E9490C94359C0C94EAAC0C9461
:1008D0003E4F0C9489500D9431570C9410260C9473
:1008E000B6DA0C94B8DA0C9455EC0D9406010D941C
:1008F0006E1C0C94F9280C94684D0A5061676520B1
:10090000686173206E6F74206265656E20696D701A
:100910006C656D656E7465642079657400537065EF
:10092000656475696E6F00537065656475696E6F97
:1009300020323031392E30382D7365720053706596
:10094000656475696E6F2063737830323031392E8B
:10095000380020202020000A5061676520686173FC
:10096000206E6F74206265656E20696D706C656DB8
:10097000656E74656420796574000A50616765204E
:10098000686173206E6F74206265656E20696D709A
:100990006C656D656E746564207965740020000A6D
:1009A0005645204D6170000A5067203120436F6E1C
:1009B000666967000A49676E6974696F6E204D61E8
:1009C00070000A5067203220436F6E666967000A24
:1009D000414652204D6170000A5067203320436F1A
:1009E0006E666967000A5067203420436F6E66693F
:1009F00067000A426F6F7374204D6170000A56568B
:100A000054204D6170000A506720313020436F6ED2
:100A1000666967000A326E64204675656C204D6118
:100A200070000A3D3D3D436F6D6D616E6420486509
:100A30006C703D3D3D0A0A416C6C20636F6D6D61C9
:100A40006E6473206172652073696E676C652063E4
:100A5000686172616374657220616E6420617265A1
:100A600020636F6E636174656E617465642077697D
:100A7000746820746865697220706172616D657454
:100A8000657273200A776974686F7574207370617A
:100A90006365732E53796E7461783A20203C636FDE
:100AA0006D6D616E643E2B3C706172616D65746545
:100AB00072313E2B3C706172616D65746572323EBD
:100AC0002B3C706172616D657465724E3E0A0A3D21
:100AD0003D3D4C697374206F6620436F6D6D616E90
:100AE00064733D3D3D0A0A41202D20446973706CBA
:100AF000617973203331206279746573206F6620C9
:100B000063757272656E7453746174757320766167
:100B10006C75657320696E2062696E617279202838
:100B20006C6976652064617461290A42202D204237
:100B300075726E2063757272656E74206D617020BF
:100B4000616E6420636F6E666967506167652076C9
:100B5000616C75657320746F20656570726F6D0AC6
:100B600043202D205465737420434F4D20706F72C5
:100B7000742E2020557365642062792054756E654B
:100B80007273747564696F20746F20736565207764
:100B900068657468657220616E20454355206973ED
:100BA000206F6E206120676976656E2073657269BB
:100BB000616C200A20202020706F72742E205265F4
:100BC0007475726E7320612062696E617279206E35
:100BD000756D6265722E0A4E202D205072696E74FA
:100BE000206E6577206C696E652E0A50202D20538B
:100BF00065742063757272656E7420706167652E0E
:100C0000202053796E7461783A2020502B3C70611B
:100C100067654E756D6265723E0A52202D205361E4
:100C20006D65206173204120636F6D6D616E640A94
:100C300053202D20446973706C6179207369676E4D
:100C40006174757265206E756D6265720A51202D32
:100C50002053616D65206173205320636F6D6D615A
:100C60006E640A56202D20446973706C6179206D82
:100C70006170206F7220636F6E666967506167658F
:100C80002076616C75657320696E2062696E617291
:100C9000790A57202D20536574206F6E6520627984
:100CA000746520696E206D6170206F7220636F6EB5
:100CB000666967506167652E2020457870656374AA
:100CC000732062696E61727920706172616D657402
:100CD0006572732E200A2020202053796E7461786B
:100CE0003A2020572B3C6F66667365743E2B3C6E32
:100CF0006577627974653E0A74202D2053657420EF
:100D000063616C6962726174696F6E2076616C7583
:100D100065732E2020457870656374732062696E58
:100D200061727920706172616D65746572732E20D5
:100D3000205461626C6520696E6465782069732057
:100D400065697468657220302C200A2020202031CB
:100D50002C206F7220322E202053796E7461783AE5
:100D60002020742B3C74626C655F6964783E2B3C78
:100D70006E657756616C7565313E2B3C6E657756B6
:100D8000616C7565323E2B3C6E657756616C75659E
:100D90004E3E0A5A202D20446973706C617920639D
:100DA000616C6962726174696F6E2076616C7565E1
:100DB000730A54202D20446973706C61797320325A
:100DC000353620746F6F7468206C6F6720656E74A1
:100DD0007269657320696E2062696E6172790A7248
:100DE000202D20446973706C617973203235362070
:100DF000746F6F7468206C6F6720656E74726965BC
:100E0000730A55202D205072657061726520666FDF
:100E100072206669726D77617265207570646174A5
:100E2000652E20546865206E65787420627974653B
:100E30002072656365697665642077696C6C2063F0
:100E400061757365207468652041726475696E6FA1
:100E500020746F2072657365742E0A3F202D204424
:100E60006973706C61797320746869732068656C4C
:100E7000702070616765002C2000575545004F3287
:100E800000496E6C65742074656D7000436F6F6C03
:100E9000616E7400526573657420636F6E74726F57
:100EA0006C2069732063757272656E746C7920644E
:100EB000697361626C65642E00436F6D6D732068A9
:100EC000616C7465642E204E657874206279746557
:100ED0002077696C6C207265736574207468652076
:100EE00041726475696E6F2E005370656564756933
:100EF0006E6F20323032302E30350073706565648D
:100F000075696E6F2032303230303500303031004C
:100F100000000000963007772C610EEEBA51099957
:100F200019C46D078FF46A7035A563E9A395649EB3
:100F30003288DB0EA4B8DC791EE9D5E088D9D297D7
:100F40002B4CB609BD7CB17E072DB8E7911DBF9033
:100F50006410B71DF220B06A4871B9F3DE41BE8457
:100F60007DD4DA1AEBE4DD6D51B5D4F4C785D383B3
:100F700056986C13C0A86B647AF962FDECC9658A57
:100F80004F5C0114D96C0663633D0FFAF50D088DB3
:100F9000C8206E3B5E10694CE44160D5727167A257
:100FA000D1E4033C47D4044BFD850DD26BB50AA5B3
:100FB000FAA8B5356C98B242D6C9BBDB40F9BCACD7
:100FC000E36CD832755CDF45CF0DD6DC593DD1AB33
:100FD000AC30D9263A00DE518051D7C81661D0BF57
:100FE000B5F4B42123C4B3569995BACF0FA5BDB8B3
:100FF0009EB802280888055FB2D90CC624E90BB157
:10100000877C6F2F114C6858AB1D61C13D2D66B6B2
:101010009041DC760671DB01BC20D2982A10D5EF16
:101020008985B1711FB5B606A5E4BF9F33D4B8E872
:10103000A2C9077834F9000F8EA8099618980EE116
:10104000BB0D6A7F2D3D6D08976C6491015C63E672
:10105000F4516B6B62616C1CD83065854E0062F296
:10106000ED95066C7BA5011BC1F4088257C40FF5F2
:10107000C6D9B06550E9B712EAB8BE8B7C88B9FC16
:10108000DF1DDD62492DDA15F37CD38C654CD4FB72
:101090005861B24DCE51B53A7400BCA3E230BBD416
:1010A00041A5DF4AD795D83D6DC4D1A4FBF4D6D372
:1010B0006AE96943FCD96E34468867ADD0B860DA16
:1010C000732D0444E51D03335F4C0AAAC97C0DDD72
:1010D0003C710550AA41022710100BBE86200CC996
:1010E00025B56857B3856F2009D466B99FE461CEF2
:1010F0000EF9DE5E98C9D9292298D0B0B4A8D7C716
:10110000173DB359810DB42E3B5CBDB7AD6CBAC071
:101110002083B8EDB6B3BF9A0CE2B6039AD2B1748D
:101120003947D5EAAF77D29D1526DB048316DC73E9
:10113000120B63E3843B64943E6A6D0DA85A6A7A8D
:101140000BCF0EE49DFF099327AE000AB19E077DE9
:1011500044930FF0D2A3088768F2011EFEC206690D
:101160005D5762F7CB67658071366C19E7066B6E69
:10117000761BD4FEE02BD3895A7ADA10CC4ADD678D
:101180006FDFB9F9F9EFBE8E43BEB717D58EB060E9
:10119000E8A3D6D67E93D1A1C4C2D83852F2DF4F8D
:1011A000F167BBD16757BCA6DD06B53F4B36B248E9
:1011B000DA2B0DD84C1B0AAFF64A0336607A04418D
:1011C000C3EF60DF55DF67A8EF8E6E3179BE6946E9
:1011D0008CB361CB1A8366BCA0D26F2536E268520D
:1011E00095770CCC03470BBBB91602222F26055569
:1011F000BE3BBAC5280BBDB2925AB42B046AB35C8D
:10120000A7FFD7C231CFD0B58B9ED92C1DAEDE5BE8
:10121000B0C2649B26F263EC9CA36A750A936D02CC
:10122000A906099C3F360EEB856707721357000528
:10123000824ABF95147AB8E2AE2BB17B381BB60C4C
:101240009B8ED2920DBED5E5B7EFDC7C21DFDB0BA8
:10125000D4D2D38642E2D4F1F8B3DD686E83DA1FCC
:10126000CD16BE815B26B9F6E177B06F7747B71828
:10127000E65A0888706A0FFFCA3B06665C0B0111CC
:10128000FF9E658F69AE62F8D3FF6B6145CF6C1628
:1012900078E20AA0EED20DD75483044EC2B30339CC
:1012A000612667A7F71660D04D476949DB776E3E28
:1012B0004A6AD1AEDC5AD6D9660BDF40F03BD8374C
:1012C00053AEBCA9C59EBBDE7FCFB247E9FFB530A8
:1012D0001CF2BDBD8AC2BACA3093B353A6A3B424CC
:1012E0000536D0BA9306D7CD2957DE54BF67D92328
:1012F0002E7A66B3B84A61C4021B685D942B6F2ACC
:1013000037BE0BB4A18E0CC31BDF055A8DEF022D27
:101310000000000041311B1982623632C3532D2B6D
:1013200004C56C6445F4777D86A75A56C796414F2D
:10133000088AD9C849BBC2D18AE8EFFACBD9F4E30D
:101340000C4FB5AC4D7EAEB58E2D839ECF1C9887CD
:101350005112C24A1023D953D370F4789241EF61ED
:1013600055D7AE2E14E6B537D7B5981C96848305AD
:1013700059981B8218A9009BDBFA2DB09ACB36A98D
:101380005D5D77E61C6C6CFFDF3F41D49E0E5ACD4D
:10139000A2248495E3159F8C2046B2A76177A9BE4D
:1013A000A6E1E8F1E7D0F3E82483DEC365B2C5DA4D
:1013B000AAAE5D5DEB9F464428CC6B6F69FD7076ED
:1013C000AE6B3139EF5A2A202C09070B6D381C12ED
:1013D000F33646DFB2075DC6715470ED30656BF4CD
:1013E000F7F32ABBB6C231A275911C8934A00790CD
:1013F000FBBC9F17BA8D840E79DEA92538EFB23C6D
:10140000FF79F373BE48E86A7D1BC5413C2ADE586C
:10141000054F79F0447E62E9872D4FC2C61C54DB2C
:10142000018A159440BB0E8D83E823A6C2D938BF2C
:101430000DC5A0384CF4BB218FA7960ACE968D130C
:101440000900CC5C4831D7458B62FA6ECA53E1770C
:10145000545DBBBA156CA0A3D63F8D88970E9691AC
:101460005098D7DE11A9CCC7D2FAE1EC93CBFAF5AC
:101470005CD762721DE6796BDEB554409F844F598C
:1014800058120E161923150FDA7038249B41233D8C
:10149000A76BFD65E65AE67C2509CB576438D04E2C
:1014A000A3AE9101E29F8A1821CCA73360FDBC2A2C
:1014B000AFE124ADEED03FB42D83129F6CB209860C
:1014C000AB2448C9EA1553D029467EFB687765E20C
:1014D000F6793F2FB7482436741B091D352A1204AC
:1014E000F2BC534BB38D485270DE657931EF7E60AC
:1014F000FEF3E6E7BFC2FDFE7C91D0D53DA0CBCC8C
:10150000FA368A83BB07919A7854BCB13965A7A88B
:101510004B98833B0AA99822C9FAB50988CBAE102B
:101520004F5DEF5F0E6CF446CD3FD96D8C0EC274EB
:1015300043125AF3022341EAC1706CC1804177D84B
:1015400047D7369706E62D8EC5B500A584841BBC0B
:101550001A8A41715BBB5A6898E87743D9D96C5AAB
:101560001E4F2D155F7E360C9C2D1B27DD1C003E6B
:10157000120098B9533183A09062AE8BD153B592CB
:1015800016C5F4DD57F4EFC494A7C2EFD596D9F68B
:10159000E9BC07AEA88D1CB76BDE319C2AEF2A850B
:1015A000ED796BCAAC4870D36F1B5DF82E2A46E10B
:1015B000E136DE66A007C57F6354E8542265F34D2B
:1015C000E5F3B202A4C2A91B6791843026A09F292B
:1015D000B8AEC5E4F99FDEFD3ACCF3D67BFDE8CF8B
:1015E000BC6BA980FD5AB2993E099FB27F3884AB8B
:1015F000B0241C2CF115073532462A1E73773107AB
:10160000B4E17048F5D06B513683467A77B25D63AA
:101610004ED7FACB0FE6E1D2CCB5CCF98D84D7E02A
:101620004A1296AF0B238DB6C870A09D8941BB842A
:10163000465D2303076C381AC43F1531850E0E280A
:1016400042984F6703A9547EC0FA795581CB624C0A
:101650001FC538815EF423989DA70EB3DC9615AAAA
:101660001B0054E55A314FFC996262D7D85379CEAA
:10167000174FE149567EFA50952DD77BD41CCC628A
:10168000138A8D2D52BB963491E8BB1FD0D9A0068A
:10169000ECF37E5EADC265476E91486C2FA053752A
:1016A000E836123AA90709236A5424082B653F112A
:1016B000E479A796A548BC8F661B91A4272A8ABD0A
:1016C000E0BCCBF2A18DD0EB62DEFDC023EFE6D90A
:1016D000BDE1BC14FCD0A70D3F838A267EB2913FAA
:1016E000B924D070F815CB693B46E6427A77FD5BAA
:1016F000B56B65DCF45A7EC5370953EE763848F78A
:10170000B1AE09B8F09F12A133CC3F8A72FD249389
:1017100000000000376AC2016ED4840359BE46023D
:10172000DCA80907EBC2CB06B27C8D0485164F05F9
:10173000B851130E8F3BD10FD685970DE1EF550CA5
:1017400064F91A095393D8080A2D9E0A3D475C0B89
:1017500070A3261C47C9E41D1E77A21F291D601E09
:10176000AC0B2F1B9B61ED1AC2DFAB18F5B56919E5
:10177000C8F23512FF98F713A626B111914C7310D9
:10178000145A3C152330FE147A8EB8164DE47A179D
:10179000E0464D38D72C8F398E92C93BB9F80B3AB9
:1017A0003CEE443F0B84863E523AC03C6550023DBD
:1017B00058175E366F7D9C3736C3DA3501A9183469
:1017C00084BF5731B3D59530EA6BD332DD01113385
:1017D00090E56B24A78FA925FE31EF27C95B2D2645
:1017E0004C4D62237B27A0222299E62015F3242169
:1017F00028B4782A1FDEBA2B4660FC29710A3E28DD
:10180000F41C712DC376B32C9AC8F52EADA2372FD8
:10181000C08D9A70F7E75871AE591E739933DC7218
:101820001C2593772B4F517672F11774459BD57514
:1018300078DC897E4FB64B7F16080D7D2162CF7C08
:10184000A4748079931E4278CAA0047AFDCAC67B2C
:10185000B02EBC6C87447E6DDEFA386FE990FA6E6C
:101860006C86B56B5BEC776A025231683538F36988
:10187000087FAF623F156D6366AB2B6151C1E960B4
:10188000D4D7A665E3BD6464BA0322668D69E067B8
:1018900020CBD74817A115494E1F534B7975914A54
:1018A000FC63DE4FCB091C4E92B75A4CA5DD984D18
:1018B000989AC446AFF00647F64E4045C12482448C
:1018C0004432CD4173580F402AE649421D8C8B4368
:1018D0005068F154670233553EBC755709D6B75668
:1018E0008CC0F853BBAA3A52E2147C50D57EBE514C
:1018F000E839E25ADF53205B86ED6659B187A45878
:101900003491EB5D03FB295C5A456F5E6D2FAD5F33
:10191000801B35E1B771F7E0EECFB1E2D9A573E3F3
:101920005CB33CE66BD9FEE73267B8E5050D7AE4B7
:10193000384A26EF0F20E4EE569EA2EC61F460EDEB
:10194000E4E22FE8D388EDE98A36ABEBBD5C69EAC7
:10195000F0B813FDC7D2D1FC9E6C97FEA90655FFC7
:101960002C101AFA1B7AD8FB42C49EF975AE5CF8AB
:1019700048E900F37F83C2F2263D84F0115746F117
:10198000944109F4A32BCBF5FA958DF7CDFF4FF6D3
:10199000605D78D95737BAD80E89FCDA39E33EDB77
:1019A000BCF571DE8B9FB3DFD221F5DDE54B37DC73
:1019B000D80C6BD7EF66A9D6B6D8EFD481B22DD5A7
:1019C00004A462D033CEA0D16A70E6D35D1A24D2CB
:1019D00010FE5EC527949CC47E2ADAC6494018C70B
:1019E000CC5657C2FB3C95C3A282D3C195E811C027
:1019F000A8AF4DCB9FC58FCAC67BC9C8F1110BC913
:101A0000740744CC436D86CD1AD3C0CF2DB902CE16
:101A10004096AF9177FC6D902E422B921928E99356
:101A20009C3EA696AB546497F2EA2295C580E0945A
:101A3000F8C7BC9FCFAD7E9E9613389CA179FA9DC6
:101A4000246FB598130577994ABB319B7DD1F39AE2
:101A50003035898D075F4B8C5EE10D8E698BCF8FA2
:101A6000EC9D808ADBF7428B82490489B523C688C6
:101A700088649A83BF0E5882E6B01E80D1DADC817A
:101A800054CC938463A651853A1817870D72D58676
:101A9000A0D0E2A997BA20A8CE0466AAF96EA4AB9A
:101AA0007C78EBAE4B1229AF12AC6FAD25C6ADAC56
:101AB0001881F1A72FEB33A6765575A4413FB7A542
:101AC000C429F8A0F3433AA1AAFD7CA39D97BEA226
:101AD000D073C4B5E71906B4BEA740B689CD82B7A6
:101AE0000CDBCDB23BB10FB3620F49B155658BB082
:101AF0006822D7BB5F4815BA06F653B8319C91B936
:101B0000B48ADEBC83E01CBDDA5E5ABFED3498BEF9
:101B1000000000006567BCB88BC809AAEEAFB5121B
:101B20005797628F32F0DE37DC5F6B25B938D79D6F
:101B3000EF28B4C58A4F087D64E0BD6F018701D7E7
:101B4000B8BFD64ADDD86AF23377DFE05610635863
:101B50009F571950FA30A5E8149F10FA71F8AC425B
:101B6000C8C07BDFADA7C76743087275266FCECDAF
:101B7000707FAD951518112DFBB7A43F9ED0188727
:101B800027E8CF1A428F73A2AC20C6B0C9477A08A3
:101B90003EAF32A05BC88E18B5673B0AD00087B253
:101BA0006938502F0C5FEC97E2F059858797E53D37
:101BB000D1878665B4E03ADD5A4F8FCF3F2833771F
:101BC0008610E4EAE37758520DD8ED4068BF51F82B
:101BD000A1F82BF0C49F97482A30225A4F579EE213
:101BE000F66F497F9308F5C77DA740D518C0FC6DF7
:101BF0004ED09F352BB7238DC518969FA07F2A27DF
:101C00001947FDBA7C204102928FF410F7E848A8EA
:101C10003D58149B583FA823B6901D31D3F7A18996
:101C20006ACF76140FA8CAACE1077FBE8460C306F2
:101C3000D270A05EB7171CE659B8A9F43CDF154C6A
:101C400085E7C2D1E0807E690E2FCB7B6B4877C3DE
:101C5000A20F0DCBC768B17329C704614CA0B8D9D6
:101C6000F5986F4490FFD3FC7E5066EE1B37DA5632
:101C70004D27B90E284005B6C6EFB0A4A3880C1CAA
:101C80001AB0DB817FD767399178D22BF41F6E931E
:101C900003F7263B66909A83883F2F91ED5893294E
:101CA000546044B43107F80CDFA84D1EBACFF1A63A
:101CB000ECDF92FE89B82E4667179B54027027EC22
:101CC000BB48F071DE2F4CC93080F9DB55E7456326
:101CD0009CA03F6BF9C783D3176836C1720F8A790E
:101CE000CB375DE4AE50E15C40FF544E2598E8F6FA
:101CF00073888BAE16EF3716F84082049D273EBCE2
:101D0000241FE92141785599AFD7E08BCAB05C33E5
:101D10003BB659ED5ED1E555B07E5047D519ECFF85
:101D20006C213B62094687DAE7E932C8828E8E7001
:101D3000D49EED28B1F951905F56E4823A31583A79
:101D400083098FA7E66E331F08C1860D6DA63AB5CD
:101D5000A4E140BDC186FC052F2949174A4EF5AFC5
:101D6000F376223296119E8A78BE2B981DD9972041
:101D70004BC9F4782EAE48C0C001FDD2A566416AB9
:101D80001C5E96F779392A4F97969F5DF2F123E50D
:101D900005196B4D607ED7F58ED162E7EBB6DE5F3D
:101DA000528E09C237E9B57AD9460068BC21BCD049
:101DB000EA31DF888F56633061F9D622049E6A9A31
:101DC000BDA6BD07D8C101BF366EB4AD5309081515
:101DD0009A4E721DFF29CEA511867BB774E1C70FFD
:101DE000CDD91092A8BEAC2A461119382376A58009
:101DF0007566C6D810017A60FEAECF729BC973CAF1
:101E000022F1A457479618EFA939ADFDCC5E1145D4
:101E100006EE4D766389F1CE8D2644DCE841F86408
:101E200051792FF9341E9341DAB12653BFD69AEB7C
:101E3000E9C6F9B38CA1450B620EF01907694CA1F4
:101E4000BE519B3CDB3627843599929650FE2E2E50
:101E500099B95426FCDEE89E12715D8C7716E13448
:101E6000CE2E36A9AB498A1145E63F03208183BBBC
:101E70007691E0E313F65C5BFD59E949983E55F134
:101E80002106826C44613ED4AACE8BC6CFA9377E90
:101E900038417FD65D26C36EB389767CD6EECAC440
:101EA0006FD61D590AB1A1E1E41E14F38179A84B44
:101EB000D769CB13B20E77AB5CA1C2B939C67E012C
:101EC00080FEA99CE59915240B36A0366E511C8E18
:101ED000A7166686C271DA3E2CDE6F2C49B9D39400
:101EE000F081040995E6B8B17B490DA31E2EB11B04
:101EF000483ED2432D596EFBC3F6DBE9A6916751EC
:101F00001FA9B0CC7ACE0C749461B966F10605DED7
:101F100000002100240027002A002D00300033009B
:101F200001010000040107010A0100002200250050
:101F300028002B002E0031003400020100000501B2
:101F400008010B0105050505070508080808020238
:101F500002020A0A08080404040401010101010143
:101F600001010303030303030303040707070C0C26
:101F70000C0C0C0C0C0C02020202060606060606ED
:101F800006060B0B0B0B0B0B0B0B01021020200892
:101F900008102040102040800201020108040201C4
:101FA0000102040810204080804020100804020133
:101FB000800402018040201008040201080402018C
:101FC0000102040810204080010204081020408013
:101FD00000000A0B02090C0D0E08070304010000A3
:101FE00000000000000000000000000000000000F1
:101FF00000000000000000000000000012111000AE
:1020000000000000000000000000000000000000D0
:102010000000000000000A506167652068617320BD
:102020006E6F74206265656E20696D706C656D659C
:102030006E7465642079657400000020002300261A
:102040000029002C002F00320000010000030106CF
:1020500001090100D30111241FBECFEFD1E2DEBF81
:10206000CDBF00E00CBF12E0A0E0B2E0EAE9F3EE81
:1020700002E00BBF02C007900D92A838B107D9F754
:1020800027E1A8E8B2E001C01D92A630B207E1F74F
:1020900010E1CBE2D0E100E006C021970109802FDA
:1020A000FE010F94AF71CA32D10780E00807A9F78B
:1020B0000F9410420D94CB710C9400008F929F925C
:1020C000AF92BF92CF92DF92EF92FF920F931F9346
:1020D000CF93DF934CECE42E4EE0F42E00E010E0C2
:1020E000C3E2D1E0CE010F945B71F70161917F01F2
:1020F000861729F0CE010F9463710F5F1F4F219651
:10210000C33AF1E0DF0799F00F3111055CF381E08C
:102110008093770DDF91CF911F910F91FF90EF90FA
:10212000DF90CF90BF90AF909F908F9008950F3128
:1021300011056CF71092770D81E090E00F945B71C0
:1021400060913F09861709F453C081E090E00F9435
:102150006371C2E0D0E001E010E082E090E00F9413
:102160005B7160914009861729F082E090E00F943E
:1021700063718E0123E0E22EF12C2FC03595279557
:102180003595279535952795359527953195219541
:102190003109215F3F4F220F331FE0914109F09138
:1021A0004209E20FF31FCF70DD2720813181C20F7A
:1021B000D31F6881861729F0C7010F9463710F5FE1
:1021C0001F4F8FEFE81AF80AE3E0EE16E1E0FE0693
:1021D000A1F00F3111050CF09ACFE7012397C70149
:1021E0000F945B719E01D7FFC9CF215F3F4FC6CFD0
:1021F000C1E0D0E000E010E0B0CF0F3111050CF0ED
:1022000086CFE12CF12CC3E0D1E0C0904309D090FF
:10221000440934E6A32EB12CCE010F945B71282F14
:10222000F601EE0DFF1D80819181B5010F94D16FF4
:10223000822F90E09B01332782179307B1F0CE01E4
:102240000F9463710F5F1F4F2196C33181E0D80750
:10225000A9F0F2E0EF0EF11C0F31110509F457CF90
:10226000C0904309D0904409D7CF2196C331E1E013
:10227000DE0721F082E0E80EF11CCECF0F31110510
:1022800009F445CFE12CF12C03E111E015C0EB017D
:10229000D595C795C8010F945B71C81721F06C2FB5
:1022A000C8010F9463710F5F1F4FE2E0EE0EF11C47
:1022B0000332F1E01F0769F0E0914509F09146090A
:1022C000EE0DFF1D6081718177FFE1CF6F5F7F4F62
:1022D000DECF1092770D83EA91E00F945B716091ED
:1022E000C109861709F451C083EA91E00F94637124
:1022F00012E000E0C1E0D0E084EA91E00F945B716D
:102300006091C209861731F084EA91E00F946371FD
:10231000C12FD02F05EA11E030C09595879595958E
:10232000879595958795959587959195819591092F
:102330000F96880F991FE091C309F091C409E80F27
:10234000F91F2F7033270190F081E02DE20FF31F6A
:10235000F080C8010F945B71F81629F06F2DC80149
:102360000F94637121960F5F1F4F053A82E01807A3
:1023700089F0CF31D1050CF0CACE9801255A3140F1
:10238000C90137FFCACF0F96C8CF11E000E0C0E007
:10239000D0E0B2CFCF31D1050CF0B9CEE12CF12C89
:1023A00005EA12E0A090C509B090C609F4E68F2EA8
:1023B000912CF501EE0DFF1D80819181B4010F94E8
:1023C000D16FD62EC8010F945B71D816B9F06D2D60
:1023D000C8010F94637121960F5F1F4F053BF2E018
:1023E0001F07B1F0E2E0EE0EF11CCF31D10509F488
:1023F0008ECEA090C509B090C609DBCF0F5F1F4FEE
:10240000053B82E0180721F0F2E0EF0EF11CD1CF7E
:10241000CF31D10509F47BCEC12CD12C65EBE62E52
:1024200062E0F62E1CC08B0115950795C7010F942D
:102430005B71081729F0602FC7010F946371219613
:10244000EFEFEE1AFE0AF5ECEF16F2E0FF06A1F050
:1024500082E0C80ED11CCF31D10509F458CEE091ED
:10246000C709F091C809EC0DFD1D6081718177FFEE
:10247000DACF6F5F7F4FD7CF6F9709F448CE1092B6
:10248000770D4DE4E42E4FE0F42EC5ECD2E000E0F1
:1024900010E0CE010F945B71F70161917F01861707
:1024A00029F0CE010F9463710F5F1F4F2196C53441
:1024B000F3E0DF0721F00F3111055CF328CE0F3177
:1024C00011050CF024CE1092770D85E493E00F9463
:1024D0005B7160919A02861709F455C085E493E018
:1024E0000F946371C2E0D0E001E010E086E493E075
:1024F0000F945B7160919B02681729F086E493E06A
:102500000F9463718E0127E4E22E23E0F22E2FC098
:1025100035952795359527953595279535952795A3
:10252000319521953109215F3F4F220F331FE091F3
:102530009C02F0919D02E20FF31FCF70DD272081F6
:102540003181C20FD31F6881861729F0C7010F940C
:1025500063710F5F1F4F8FEFE81AF80AE7E4EE167A
:10256000E4E0FE06A9F00F3111050CF0D0CDE70133
:10257000C754D340C7010F945B719E01D7FFC8CFEA
:10258000215F3F4FC5CFC1E0D0E000E010E0AECF0B
:102590000F3111050CF0BBCDE12CF12CC7E4D4E0D8
:1025A000C0909E02D0909F0234E6A32EB12CCE01A3
:1025B0000F945B71282FF601EE0DFF1D8081918134
:1025C000B5010F94D16F822F90E09B0133278217C2
:1025D0009307B1F0CE010F9463710F5F1F4F2196E7
:1025E000C73584E0D807A9F0F2E0EF0EF11C0F31F7
:1025F000110509F48CCDC0909E02D0909F02D7CFD8
:102600002196C735F4E0DF0721F0E2E0EE0EF11C81
:10261000CECF0F31110509F47ACDE12CF12C07E56D
:1026200014E015C0EB01D595C795C8010F945B71F7
:10263000C81721F06C2FC8010F9463710F5F1F4FF3
:10264000E2E0EE0EF11C0736F4E01F0769F0E091BE
:10265000A002F091A102EE0DFF1D6081718177FF54
:10266000E1CF6F5F7F4FDECF1092770DFCE3EF2E4F
:10267000FEE0FF2EC7E6D4E000E010E0CE010F94AC
:102680005B71F70161917F01861729F0CE010F94EC
:1026900063710F5F1F4F2196C73EF4E0DF0721F003
:1026A0000F3111055CF333CD0F3111050CF02FCD37
:1026B0001092770D87E00E94E4FE8091770D8111E2
:1026C00029CD88E00E94E4FE8091770D811122CD12
:1026D000E3EFEE2EEFE0FE2ECEEAD6E000E010E0D3
:1026E000CE010F945B71F70161917F01861729F08C
:1026F000CE010F9463710F5F1F4F2196CE36F7E026
:10270000DF0721F00F3111055CF301CD0F31110509
:102710000CF0FDCC1092770D7AE7E72E7DE0F72ED6
:10272000CEE6D7E000E010E0CE010F945B71F70138
:1027300061917F01861729F0CE010F9463710F5FBD
:102740001F4F2196CE32F8E0DF0721F00F3111053F
:102750005CF3DDCC0F3111050CF0D9CC1092770D64
:10276000C09188028EE298E00F945B71C81729F03F
:102770006C2F8EE298E00F946371C09189028FE212
:1027800098E00F945B71C81729F06C2F8FE298E0E6
:102790000F94637160E3E62E68E0F62E02E010E02D
:1027A0002FC03595279535952795359527953595DE
:1027B0002795319521953109215F3F4F220F331F16
:1027C000E0918A02F0918B02E20FF31FCF70DD27B8
:1027D00020813181C20FD31F6881861729F0C7017C
:1027E0000F9463710F5F1F4F8FEFE81AF80AE0E351
:1027F000EE16E9E0FE0681F00F3111050CF087CCF2
:10280000E701C053D840C7010F945B719E01D7FF09
:10281000C8CF215F3F4FC5CF0F3111050CF077CCEA
:10282000E12CF12CC0E3D9E0C0908C02D0908D0255
:1028300054E6A52EB12CCE010F945B71282FF60122
:10284000EE0DFF1D80819181B5010F94D16F822F14
:1028500090E09B01332782179307B1F0CE010F94CC
:1028600063710F5F1F4F2196C13489E0D807A9F02B
:10287000F2E0EF0EF11C0F31110509F448CCC090C5
:102880008C02D0908D02D7CF2196C134E9E0DE07CB
:1028900021F082E0E80EF11CCECF0F31110509F4D2
:1028A00036CCE12CF12C01E419E015C0EB01D595F3
:1028B000C795C8010F945B71C81721F06C2FC80130
:1028C0000F9463710F5F1F4FE2E0EE0EF11C0135B4
:1028D000F9E01F0769F0E0918E02F0918F02EE0D92
:1028E000FF1D6081718177FFE1CF6F5F7F4FDECF8A
:1028F0001092770D0FCC4F925F926F927F928F92D2
:102900009F92AF92BF92CF92DF92EF92FF920F937E
:102910001F93CF93DF931F92CDB7DEB790E0FC01FA
:102920003197EB30F105A8F060E070E0CB010F903B
:10293000DF91CF911F910F91FF90EF90DF90CF909B
:10294000BF90AF909F908F907F906F905F904F90CF
:1029500008958827EE58FF4F8F4F0D94AF718AE787
:102960009DE083709927892B11F40C94A5214424B0
:102970004A94542C320140EC50E02AE73DE004C078
:102980004115510509F4E4C1FF24E72CD62CC52CD0
:102990002F5F3F4FF9013197E081D301C2019927A1
:1029A000AA27BB278E27FC01EE0FFF1FEE0FFF1F8C
:1029B000E05FF04F85919591A591B4912601370183
:1029C000482659266A267B2641505109F901E370B1
:1029D000FF27EF2BA9F64031510510F40C94D321B9
:1029E000D9018A0100511109CD90DD90ED90FC9044
:1029F0001397C301B2016C257D258E259F256B01A0
:102A00007C01DD24EE24FF24E3E0DE0EE11CF11C5A
:102A1000F601EE0FFF1FEE0FFF1FE05FF04F8590F6
:102A20009590A590B490C72ED12CE12CF12CE2E02A
:102A3000DE0EE11CF11CF601EE0FFF1FEE0FFF1F73
:102A4000E05FF04F4590559065907490C82ED12C62
:102A5000E12CF12CEFEFDE1AEE0AFE0AF601EE0F82
:102A6000FF1FEE0FFF1FE05FF04FC590D590E59080
:102A7000F490692F772788279927FB01EE0FFF1F16
:102A8000EE0FFF1FE05FF04F659175918591949176
:102A900084249524A624B724C824D924EA24FB241A
:102AA000C626D726E826F92614968D909D90AD90DF
:102AB000BC9017978C249D24AE24BF24750164011B
:102AC000DD24EE24FF2483E0D80EE11CF11CF60186
:102AD000EE0FFF1FEE0FFF1FE05FF04FC590D59088
:102AE000E590F490492C512C612C712CE2E05E0EA3
:102AF000611C711CF201EE0FFF1FEE0FFF1FE05F64
:102B0000F04F65917591859194914A2C512C612CCF
:102B1000712CEFEF5E1A6E0A7E0AF201EE0FFF1FB4
:102B2000EE0FFF1FE05FF04F459055906590749059
:102B30008B2C9924AA24BB24F401EE0FFF1FEE0F67
:102B4000FF1FE05FF04F85909590A590B490C6264A
:102B5000D726E826F9264C245D246E247F244824B9
:102B600059246A247B241896CD90DD90ED90FC903A
:102B70001B97C424D524E624F72446015701992441
:102B8000AA24BB2483E0980EA11CB11CF401EE0F13
:102B9000FF1FEE0FFF1FE05FF04F85909590A5900F
:102BA000B4904D2C512C612C712CE2E05E0E611C16
:102BB000711CF201EE0FFF1FEE0FFF1FE05FF04FE1
:102BC00065917591859194914E2C512C612C712CAD
:102BD000EFEF5E1A6E0A7E0AF201EE0FFF1FEE0F94
:102BE000FF1FE05FF04F4590559065907490CF2C9B
:102BF000DD24EE24FF24F601EE0FFF1FEE0FFF1F72
:102C0000E05FF04FC590D590E590F490862697262A
:102C1000A826B926482459246A247B244C245D2400
:102C20006E247F241C968D909D90AD90BC901F9734
:102C300084249524A624B72475016401DD24EE24A0
:102C4000FF2483E0D80EE11CF11CF601EE0FFF1FFC
:102C5000EE0FFF1FE05FF04F6591759185919491A4
:102C6000C92CD12CE12CF12CE2E0DE0EE11CF11C90
:102C7000F601EE0FFF1FEE0FFF1FE05FF04F4590D4
:102C8000559065907490CA2CD12CE12CF12CEFEF6B
:102C9000DE1AEE0AFE0AF601EE0FFF1FEE0FFF1F0F
:102CA000E05FF04FC590D590E590F4908B2C99247F
:102CB000AA24BB24F401EE0FFF1FEE0FFF1FE05FFD
:102CC000F04F85909590A590B4904626572668269B
:102CD0007926C424D524E624F72426013701482484
:102CE00059246A247B2450960031110508F07ACECD
:102CF000DA01AF70BB27FA017097E07F70962E0F54
:102D00003F1F109729F1A9014A0F5B1FBB24A72C75
:102D1000962C852CD901ED919D01CE2ED12CE12C44
:102D2000F12CD701C6018425FC01EE0FFF1FEE0F29
:102D3000FF1FE05FF04F85919591A591B49124011B
:102D40003501482659266A267B2642175307F1F695
:102D5000C301B2016095709580959095609396142B
:102D6000709397148093981490939914E0CDE09108
:102D70008A02F0918B02068CF78DE02DE081E983C9
:102D80008E010F5F1F4FC80183709927E095892B33
:102D900011F40C944E21B4E0EB9FF0011124E05F9C
:102DA000F04F85919591A591B49180959095A095BE
:102DB0008093961490939714A0939814B0939914B9
:102DC0004CE3C42E42E0D42EEE24E394F12C6EE3C7
:102DD000862E912C74E6A72EB12C26C0A0E1EA160F
:102DE000A1E0FA0610F40C940321E0918E02F09118
:102DF0008F02EC0DFD1D6081718177FF02C00C9484
:102E00009621759567956983C8010E94E9D3BFEF44
:102E1000EB1AFB0AE2E0CE1AD10820E2E21621E02A
:102E2000F20611F40C94C81E8FEFE816F10409F0B5
:102E3000A8F6C701929582958F7089279F70892780
:102E4000880F991FE0918A02F0918B02E81BF90B21
:102E5000068CF78DE02DC7018F709927E80FF91FB9
:102E60006081D1CF8CEC9EE083709927892B11F47F
:102E70000C94AF2144244A94542C320140E850E091
:102E80002CEC3EE004C04115510509F461CFFF244C
:102E9000E72CD62CC52C2F5F3F4FF9013197E081ED
:102EA000D301C2019927AA27BB278E27FC01EE0F69
:102EB000FF1FEE0FFF1FE05FF04F85919591A591E9
:102EC000B49126013701482659266A267B264150AF
:102ED0005109F901E370FF27EF2BA9F640315105A5
:102EE00010F40C94D621D9018A0100511109CD901A
:102EF000DD90ED90FC901397C301B2016C257D2508
:102F00008E259F256B017C01DD24EE24FF24E3E068
:102F1000DE0EE11CF11CF601EE0FFF1FEE0FFF1F8E
:102F2000E05FF04F85909590A590B490C72ED12C7E
:102F3000E12CF12CE2E0DE0EE11CF11CF601EE0FBB
:102F4000FF1FEE0FFF1FE05FF04F4590559065901B
:102F50007490C82ED12CE12CF12CEFEFDE1AEE0A82
:102F6000FE0AF601EE0FFF1FEE0FFF1FE05FF04FAE
:102F7000C590D590E590F490692F772788279927F9
:102F8000FB01EE0FFF1FEE0FFF1FE05FF04F65919B
:102F900075918591949184249524A624B724C824FE
:102FA000D924EA24FB24C626D726E826F926149637
:102FB0008D909D90AD90BC9017978C249D24AE244D
:102FC000BF2475016401DD24EE24FF2483E0D80EC4
:102FD000E11CF11CF601EE0FFF1FEE0FFF1FE05F7B
:102FE000F04FC590D590E590F490492C512C612C70
:102FF000712CE2E05E0E611C711CF201EE0FFF1FEE
:10300000EE0FFF1FE05FF04F6591759185919491F0
:103010004A2C512C612C712CEFEF5E1A6E0A7E0A3D
:10302000F201EE0FFF1FEE0FFF1FE05FF04F459024
:103030005590659074908B2C9924AA24BB24F4019C
:10304000EE0FFF1FEE0FFF1FE05FF04F8590959092
:10305000A590B490C626D726E826F9264C245D24F0
:103060006E247F24482459246A247B241896CD900A
:10307000DD90ED90FC901B97C424D524E624F72422
:10308000460157019924AA24BB2483E0980EA11C71
:10309000B11CF401EE0FFF1FEE0FFF1FE05FF04FBA
:1030A00085909590A590B4904D2C512C612C712C4D
:1030B000E2E05E0E611C711CF201EE0FFF1FEE0FCD
:1030C000FF1FE05FF04F65917591859194914E2CB3
:1030D000512C612C712CEFEF5E1A6E0A7E0AF20100
:1030E000EE0FFF1FEE0FFF1FE05FF04F4590559072
:1030F00065907490CF2CDD24EE24FF24F601EE0FB2
:10310000FF1FEE0FFF1FE05FF04FC590D590E590D9
:10311000F49086269726A826B926482459246A249E
:103120007B244C245D246E247F241C968D909D90DE
:10313000AD90BC901F9784249524A624B7247501D4
:103140006401DD24EE24FF2483E0D80EE11CF11C91
:10315000F601EE0FFF1FEE0FFF1FE05FF04F6591CE
:10316000759185919491C92CD12CE12CF12CE2E040
:10317000DE0EE11CF11CF601EE0FFF1FEE0FFF1F2C
:10318000E05FF04F4590559065907490CA2CD12C1B
:10319000E12CF12CEFEFDE1AEE0AFE0AF601EE0F3B
:1031A000FF1FEE0FFF1FE05FF04FC590D590E59039
:1031B000F4908B2C9924AA24BB24F401EE0FFF1F5A
:1031C000EE0FFF1FE05FF04F85909590A590B490B3
:1031D0004626572668267926C424D524E624F724D3
:1031E00026013701482459246A247B245096003153
:1031F000110508F07ACEDA01AF70BB27FA0170979B
:10320000E07F70962E0F3F1F109709F4A1CDA90102
:103210004A0F5B1FBB24A72C962C852CD901ED915E
:103220009D01CE2ED12CE12CF12CD701C601842595
:10323000FC01EE0FFF1FEE0FFF1FE05FF04F8591C7
:103240009591A591B49124013501482659266A2605
:103250007B2642175307F1F67BCDE0914109F091AF
:103260004209068CF78DE02DE081E9838E010F5F26
:103270001F4FC80183709927E095892B11F40C9496
:103280003F2124E0E29FF0011124E05FF04F85919F
:103290009591A591B49180959095A0958093961461
:1032A00090939714A0939814B0939914B2E0CB2EF6
:1032B000BEEFDB2EEE24E394F12C9EE3892E912CBD
:1032C00024E6A22EB12C28C0B0E1EB16B1E0FB063B
:1032D00010F40C941321E0914509F0914609C401C2
:1032E0008C199D09E80FF91F6081718177FF02C079
:1032F0000C949D21759567956983C8010E94E9D357
:10330000EFEFEE1AFE0A22E0C20ED11CA0E2EA168E
:10331000A1E0FA0609F43CC5AFEFEA16F10409F0A2
:1033200098F6C701929582958F7089279F7089279B
:10333000880F991FE0914109F0914209E81BF90BB0
:10334000068CF78DE02DC7018F709927E80FF91FC4
:103350006081D2CFE091C309F091C409068CF78D4A
:10336000E02DE081E9838E010F5F1F4FC80183705C
:103370009927E095892B11F40C946B21B4E0EB9F15
:10338000F0011124E05FF04F85919591A591B491E2
:1033900080959095A0958093961490939714A09300
:1033A0009814B0939914BCE3CB2EB2E0DB2EEE243C
:1033B000E394F12C9EE3892E912C24E6A22EB12CCD
:1033C00025C0A0E1EA16A1E0FA0610F40C94202131
:1033D000E091C709F091C809EC0DFD1D6081718174
:1033E00077FF02C00C94A121759567956983C80188
:1033F0000E94E9D3BFEFEB1AFB0AE2E0CE1AD10834
:1034000020E2E21621E0F20609F4C2C48FEFE816CA
:10341000F10409F0B0F6C701929582958F70892763
:103420009F708927880F991FE091C309F091C40903
:10343000E81BF90B068CF78DE02DC7018F709927DB
:10344000E80FF91F6081D2CF8DE49FE08370992748
:10345000892B11F40C94B92144244A94542C320140
:1034600040E850E02DE43FE004C04115510509F467
:103470006FCCFF24E72CD62CC52C2F5F3F4FF901D2
:103480003197E081D301C2019927AA27BB278E2754
:10349000FC01EE0FFF1FEE0FFF1FE05FF04F859165
:1034A0009591A591B49126013701482659266A269F
:1034B0007B2641505109F901E370FF27EF2BA9F654
:1034C0004031510510F40C94D921D9018A010051E1
:1034D0001109CD90DD90ED90FC901397C301B201DE
:1034E0006C257D258E259F256B017C01DD24EE2436
:1034F000FF24E3E0DE0EE11CF11CF601EE0FFF1FDE
:10350000EE0FFF1FE05FF04F85909590A590B4906F
:10351000C72ED12CE12CF12CE2E0DE0EE11CF11CD7
:10352000F601EE0FFF1FEE0FFF1FE05FF04F45901B
:10353000559065907490C82ED12CE12CF12CEFEFB2
:10354000DE1AEE0AFE0AF601EE0FFF1FEE0FFF1F56
:10355000E05FF04FC590D590E590F490692F772704
:1035600088279927FB01EE0FFF1FEE0FFF1FE05F7B
:10357000F04F659175918591949184249524A624AA
:10358000B724C824D924EA24FB24C626D726E82653
:10359000F92614968D909D90AD90BC9017978C2431
:1035A0009D24AE24BF2475016401DD24EE24FF2494
:1035B00083E0D80EE11CF11CF601EE0FFF1FEE0FA9
:1035C000FF1FE05FF04FC590D590E590F490492C37
:1035D000512C612C712CE2E05E0E611C711CF20119
:1035E000EE0FFF1FEE0FFF1FE05FF04F659175912B
:1035F000859194914A2C512C612C712CEFEF5E1A1D
:103600006E0A7E0AF201EE0FFF1FEE0FFF1FE05F52
:10361000F04F45905590659074908B2C9924AA2476
:10362000BB24F401EE0FFF1FEE0FFF1FE05FF04F12
:1036300085909590A590B490C626D726E826F926C1
:103640004C245D246E247F24482459246A247B243E
:103650001896CD90DD90ED90FC901B97C424D52456
:10366000E624F724460157019924AA24BB2483E0C9
:10367000980EA11CB11CF401EE0FFF1FEE0FFF1FEF
:10368000E05FF04F85909590A590B4904D2C512C13
:10369000612C712CE2E05E0E611C711CF201EE0FD8
:1036A000FF1FEE0FFF1FE05FF04F65917591859151
:1036B00094914E2C512C612C712CEFEF5E1A6E0AF6
:1036C0007E0AF201EE0FFF1FEE0FFF1FE05FF04FCB
:1036D0004590559065907490CF2CDD24EE24FF2406
:1036E000F601EE0FFF1FEE0FFF1FE05FF04FC590DA
:1036F000D590E590F49086269726A826B9264824EA
:1037000059246A247B244C245D246E247F241C9637
:103710008D909D90AD90BC901F9784249524A624F5
:10372000B72475016401DD24EE24FF2483E0D80E64
:10373000E11CF11CF601EE0FFF1FEE0FFF1FE05F13
:10374000F04F6591759185919491C92CD12CE12C04
:10375000F12CE2E0DE0EE11CF11CF601EE0FFF1F82
:10376000EE0FFF1FE05FF04F45905590659074900D
:10377000CA2CD12CE12CF12CEFEFDE1AEE0AFE0A56
:10378000F601EE0FFF1FEE0FFF1FE05FF04FC59039
:10379000D590E590F4908B2C9924AA24BB24F401B5
:1037A000EE0FFF1FEE0FFF1FE05FF04F859095902B
:1037B000A590B4904626572668267926C424D52499
:1037C000E624F72426013701482459246A247B245F
:1037D00050960031110508F07ACEDA01AF70BB27A0
:1037E000FA017097E07F70962E0F3F1F109709F433
:1037F000AFCAA9014A0F5B1FBB24A72C962C852CAE
:10380000D901ED919D01CE2ED12CE12CF12CD701C7
:10381000C6018425FC01EE0FFF1FEE0FFF1FE05FC6
:10382000F04F85919591A591B491240135014826D9
:1038300059266A267B2642175307F1F689CAE0917A
:103840009C02F0919D02068CF78DE02DE081E983CA
:103850008E010F5F1F4FC80183709927E095892B58
:1038600009F42BC5B4E0EB9FF0011124E05FF04FA9
:1038700085919591A591B49180959095A09580930F
:10388000961490939714A0939814B09399146CE3A2
:10389000C62E62E0D62EEE24E394F12CEEE38E2EBB
:1038A000912CF4E6AF2EB12C22C0A0E1EA16A1E0E3
:1038B000FA0608F4D5C4E091A002F091A102EC0D43
:1038C000FD1D6081718177FD35C5759567956983AB
:1038D000C8010E94E9D3BFEFEB1AFB0AE2E0CE1A5F
:1038E000D10820E2E21621E0F20609F451C28FEF7E
:1038F000E816F10409F0C8F6C701929582958F7019
:1039000089279F708927880F991FE0919C02F09169
:103910009D02E81BF90B068CF78DE02DC7018F7017
:103920009927E80FF91F6081D2CF8CE39EE0837066
:10393000992744244A94542C3201892B09F423C535
:1039400040E850E02CE33EE004C04115510509F485
:10395000FFC9FF24E72CD62CC52C2F5F3F4FF90160
:103960003197E081D301C2019927AA27BB278E276F
:10397000FC01EE0FFF1FEE0FFF1FE05FF04F859180
:103980009591A591B49126013701482659266A26BA
:103990007B2641505109F901E370FF27EF2BA9F66F
:1039A0004031510508F407C5D9018A0100511109B8
:1039B000CD90DD90ED90FC901397C301B2016C2582
:1039C0007D258E259F256B017C01DD24EE24FF24BF
:1039D000E3E0DE0EE11CF11CF601EE0FFF1FEE0F1F
:1039E000FF1FE05FF04F85909590A590B490C72E93
:1039F000D12CE12CF12CE2E0DE0EE11CF11CF601F1
:103A0000EE0FFF1FEE0FFF1FE05FF04F4590559048
:103A100065907490C82ED12CE12CF12CEFEFDE1ABA
:103A2000EE0AFE0AF601EE0FFF1FEE0FFF1FE05F2A
:103A3000F04FC590D590E590F490692F77278827AF
:103A40009927FB01EE0FFF1FEE0FFF1FE05FF04F06
:103A5000659175918591949184249524A624B72429
:103A6000C824D924EA24FB24C626D726E826F9262A
:103A700014968D909D90AD90BC9017978C249D24AA
:103A8000AE24BF2475016401DD24EE24FF2483E00D
:103A9000D80EE11CF11CF601EE0FFF1FEE0FFF1F09
:103AA000E05FF04FC590D590E590F490492C512CF3
:103AB000612C712CE2E05E0E611C711CF201EE0FB4
:103AC000FF1FEE0FFF1FE05FF04F6591759185912D
:103AD00094914A2C512C612C712CEFEF5E1A6E0AD6
:103AE0007E0AF201EE0FFF1FEE0FFF1FE05FF04FA7
:103AF00045905590659074908B2C9924AA24BB24F2
:103B0000F401EE0FFF1FEE0FFF1FE05FF04F8590F7
:103B10009590A590B490C626D726E826F9264C2481
:103B20005D246E247F24482459246A247B2418961B
:103B3000CD90DD90ED90FC901B97C424D524E62415
:103B4000F724460157019924AA24BB2483E0980E48
:103B5000A11CB11CF401EE0FFF1FEE0FFF1FE05F71
:103B6000F04F85909590A590B4904D2C512C612CE0
:103B7000712CE2E05E0E611C711CF201EE0FFF1F62
:103B8000EE0FFF1FE05FF04F659175918591949165
:103B90004E2C512C612C712CEFEF5E1A6E0A7E0AAE
:103BA000F201EE0FFF1FEE0FFF1FE05FF04F459099
:103BB000559065907490CF2CDD24EE24FF24F601FF
:103BC000EE0FFF1FEE0FFF1FE05FF04FC590D59087
:103BD000E590F49086269726A826B92648245924ED
:103BE0006A247B244C245D246E247F241C968D90B3
:103BF0009D90AD90BC901F9784249524A624B72453
:103C000075016401DD24EE24FF2483E0D80EE11C5D
:103C1000F11CF601EE0FFF1FEE0FFF1FE05FF04FEC
:103C20006591759185919491C92CD12CE12CF12C41
:103C3000E2E0DE0EE11CF11CF601EE0FFF1FEE0FBD
:103C4000FF1FE05FF04F4590559065907490CA2C2F
:103C5000D12CE12CF12CEFEFDE1AEE0AFE0AF60170
:103C6000EE0FFF1FEE0FFF1FE05FF04FC590D590E6
:103C7000E590F4908B2C9924AA24BB24F401EE0F38
:103C8000FF1FEE0FFF1FE05FF04F85909590A5900E
:103C9000B4904626572668267926C424D524E624DF
:103CA000F72426013701482459246A247B2450969E
:103CB0000031110508F07ACEDA01AF70BB27FA01A6
:103CC0007097E07F70962E0F3F1F109711F40C94A1
:103CD000A816A9014A0F5B1FBB24A72C962C852C84
:103CE000D901ED919D01CE2ED12CE12CF12CD701E3
:103CF000C6018425FC01EE0FFF1FEE0FFF1FE05FE2
:103D0000F04F85919591A591B491240135014826F4
:103D100059266A267B2642175307F1F60C94A816FB
:103D200060E070E087E00E94BDACE82F89838E01DF
:103D30000F5F1F4FC80183709927E095892B09F405
:103D4000D9C2B4E0EB9FF0011124E05FF04F859100
:103D50009591A591B49180959095A0958093961496
:103D600090939714A0939814B0939914EE24E3942D
:103D7000F12CB70187E00E94BDAC8983C8010E9485
:103D8000E9D3AFEFEA1AFA0AB0EFEB16F10489F7BC
:103D900060957095809590950C94971460E070E014
:103DA00088E00E94BDACE82F89838E010F5F1F4F12
:103DB000C80183709927E095892B09F4A9C224E0F2
:103DC000E29FF0011124E05FF04F85919591A5915C
:103DD000B49180959095A0958093961490939714A4
:103DE000A0939814B0939914EE24E394F12CB701A6
:103DF00088E00E94BDAC8983C8010E94E9D3AFEF7F
:103E0000EA1AFA0AB0ECEB16F10489F7C1CF83EF96
:103E10009FE083709927892B09F4BAC244244A94FD
:103E2000542C320140EC50E023EF3FE005C0411537
:103E3000510511F40C94A816FF24E72CD62CC52CA0
:103E40002F5F3F4FF9013197E081D301C2019927DC
:103E5000AA27BB278E27FC01EE0FFF1FEE0FFF1FC7
:103E6000E05FF04F85919591A591B49126013701BE
:103E7000482659266A267B2641505109F901E370EC
:103E8000FF27EF2BA1F64031510508F48AC2D90172
:103E90008A0100511109CD90DD90ED90FC901397AF
:103EA000C301B2016C257D258E259F256B017C0108
:103EB000DD24EE24FF24E3E0DE0EE11CF11CF6011C
:103EC000EE0FFF1FEE0FFF1FE05FF04F8590959004
:103ED000A590B490C72ED12CE12CF12CE2E0DE0E9F
:103EE000E11CF11CF601EE0FFF1FEE0FFF1FE05F5C
:103EF000F04F4590559065907490C82ED12CE12CD0
:103F0000F12CEFEFDE1AEE0AFE0AF601EE0FFF1FAC
:103F1000EE0FFF1FE05FF04FC590D590E590F49055
:103F2000692F772788279927FB01EE0FFF1FEE0FD8
:103F3000FF1FE05FF04F6591759185919491842406
:103F40009524A624B724C824D924EA24FB24C62611
:103F5000D726E826F92614968D909D90AD90BC90BA
:103F600017978C249D24AE24BF2475016401DD24A1
:103F7000EE24FF2483E0D80EE11CF11CF601EE0FC5
:103F8000FF1FEE0FFF1FE05FF04FC590D590E5904B
:103F9000F490492C512C612C712CE2E05E0E611CD6
:103FA000711CF201EE0FFF1FEE0FFF1FE05FF04FDD
:103FB00065917591859194914A2C512C612C712CAD
:103FC000EFEF5E1A6E0A7E0AF201EE0FFF1FEE0F90
:103FD000FF1FE05FF04F45905590659074908B2CDB
:103FE0009924AA24BB24F401EE0FFF1FEE0FFF1F3C
:103FF000E05FF04F85909590A590B490C626D726A7
:10400000E826F9264C245D246E247F244824592474
:104010006A247B241896CD90DD90ED90FC901B9740
:10402000C424D524E624F724460157019924AA2460
:10403000BB2483E0980EA11CB11CF401EE0FFF1FFE
:10404000EE0FFF1FE05FF04F85909590A590B49024
:104050004D2C512C612C712CE2E05E0E611C711C08
:10406000F201EE0FFF1FEE0FFF1FE05FF04F6591B3
:104070007591859194914E2C512C612C712CEFEF00
:104080005E1A6E0A7E0AF201EE0FFF1FEE0FFF1F8F
:10409000E05FF04F4590559065907490CF2CDD24F3
:1040A000EE24FF24F601EE0FFF1FEE0FFF1FE05F6F
:1040B000F04FC590D590E590F49086269726A826D7
:1040C000B926482459246A247B244C245D246E2478
:1040D0007F241C968D909D90AD90BC901F9784245A
:1040E0009524A624B72475016401DD24EE24FF2461
:1040F00083E0D80EE11CF11CF601EE0FFF1FEE0F5E
:10410000FF1FE05FF04F6591759185919491C92CE7
:10411000D12CE12CF12CE2E0DE0EE11CF11CF601C9
:10412000EE0FFF1FEE0FFF1FE05FF04F4590559021
:1041300065907490CA2CD12CE12CF12CEFEFDE1A93
:10414000EE0AFE0AF601EE0FFF1FEE0FFF1FE05F03
:10415000F04FC590D590E590F4908B2C9924AA242B
:10416000BB24F401EE0FFF1FEE0FFF1FE05FF04FC7
:1041700085909590A590B490462657266826792676
:10418000C424D524E624F7242601370148245924E1
:104190006A247B2450960031110508F07ACEDA01AA
:1041A000AF70BB27FA017097E07F70962E0F3F1F0C
:1041B000109711F40C94A816A9014A0F5B1FBB2499
:1041C000A72C962C852CD901ED919D01CE2ED12CBA
:1041D000E12CF12CD701C6018425FC01EE0FFF1F55
:1041E000EE0FFF1FE05FF04F85919591A591B4917F
:1041F00024013501482659266A267B2624173507CF
:10420000F1F60C94A816E0918C02F0918D02C40195
:104210008C199D09E80FF91F80819181B5010F94D8
:10422000D16F0C940317E0914309F0914409EC0D10
:10423000FD1D80819181B5010F94D16F0C947C1983
:10424000E091C509F091C609C4018C199D09E80FD8
:10425000F91F80819181B5010F94D16F0C94F619EB
:10426000E0919E02F0919F02C4018C199D09E80F14
:10427000F91F80819181B5010F94D16F28CB84E023
:10428000E89FF0011124E05FF04F85919591A59191
:10429000B49180959095A0950C944E1924E0E29FDE
:1042A000F0011124E05FF04F85919591A591B491B3
:1042B00080959095A0950C94D81624E0E29FF0018B
:1042C0001124E05FF04F85919591A591B49180956F
:1042D0009095A095D4CA24E0E29FF0011124E05FFC
:1042E000F04F85919591A591B49180959095A09569
:1042F0000C94CB1924E0E29FF0011124E05FF04F11
:1043000085919591A591B49180959095A09526CD94
:1043100084E0E89FF0011124E05FF04F85919591D2
:10432000A591B49180959095A09556CD6F5F7F4FE4
:104330000C9401176F5F7F4FC8CA6F5F7F4F0C945B
:104340007A196F5F7F4F0C94F41940EC50E02AE724
:104350003DE044244A94542C32010C94F0142CEC8B
:104360003EE044244A94542C320140E850E00C943E
:1043700073172DE43FE040E850E044244A94542C65
:1043800032010C94651A2CE33EE040E850E00CCB7F
:1043900023EF3FE044244A94542C320140EC50E097
:1043A00076CDDA0105CFDA010C948116DA010C948E
:1043B0000419DA011BCADA0188CC2F923F924F927E
:1043C0005F926F927F928F929F92AF92BF92CF92A5
:1043D000DF92EF92FF920F931F93CF93DF93CDB7AE
:1043E000DEB7A5970FB6F894DEBF0FBECDBF8091A4
:1043F000B410882309F49BC18091B31090E0FC01B4
:10440000FF97EC33F10508F05AC08827E854FF4FB6
:104410008F4F0D94AF711092EB139091391392302E
:1044200009F42BC5933009F482C78EEE890F8430CE
:1044300008F07FC787E1891B0E9496DA4091361306
:1044400050E060913313709134139091391392308E
:1044500009F46BC7933009F466C78EEE890F843078
:1044600008F05FC787E1891B0E94C0DA909138137A
:10447000923009F454C7933009F44FC78EEE890F78
:10448000843008F048C787E1891B0E9496DA409182
:10449000351350E0609131137091321390913813BD
:1044A000923009F436C7933009F4E6C78EEE890FCF
:1044B000843008F02CC787E1891B0E94C0DAA596DA
:1044C0000FB6F894DEBF0FBECDBFDF91CF911F9125
:1044D0000F91FF90EF90DF90CF90BF90AF909F90A3
:1044E0008F907F906F905F904F903F902F900895A6
:1044F0008091E0142091E11490E0805C9F4F821B3A
:1045000091098F739927892B99F30E9440D48330A6
:1045100008F0E6C690E0880F991FFC01E35CFD4FB0
:1045200080809180FC01E95CFD4FA081B181BBA33B
:10453000AAA3FC01EF5CFD4F40805180FC01E55DCA
:10454000FD4FA080B180FC01EB5DFD4F608071806C
:104550008091C1168D3009F4C1C680917A168D30D4
:1045600009F4BCC6809176168D3009F4B7C68091E7
:10457000AA118D3009F4B2C6809177168D3009F4F6
:10458000ADC680917E168D3009F4A8C680917D1647
:104590008D3009F4A3C6809179168D3009F49EC63A
:1045A0008DE00E94E9D260E08DE00F94FB3122247F
:1045B0002394C12CD12CFF24F39400E010E0B1E04F
:1045C000AB16B10409F418C18091E0142091E114F4
:1045D00090E0805C9F4F821B91098F73992702970F
:1045E0009CF39091E0148091E114981709F45FC650
:1045F000E091E114F0E0E953FB4E258D9091E11438
:104600009F5F9F739093E11430E09091E01480914C
:10461000E114981709F448C6E091E114F0E0E95379
:10462000FB4E858D9091E1149F5F9F739093E114F1
:1046300090E0982F8827B201822B932B0F94D16F93
:1046400060527109CB01880F991F880F991F860F3F
:10465000971F69E070E00F94D16FFF2009F4EFC05D
:10466000EAA1FBA16E0F7F1F6F3F710511F00CF0E7
:104670005AC577FF75C5312C7801F594E794F4019C
:10468000EE0DFF1D3082E60CF71CC7010F945B7125
:10469000831521F0632DC7010F946371211046C566
:1046A000FFEFCF1ADF0AF12C0F5F1F4F011524E037
:1046B000120709F084CF47E2842E43E0942E5AE299
:1046C000A52E57E0B52E68E2C62E65E0D62E0FEF78
:1046D0001DE0C8010F945B71D4016D914D018617E7
:1046E00019F0C8010F9463717801B2E0FB1AC70199
:1046F0000F945B71F60161916F01861719F0C70184
:104700000F9463717801F4E0FF1AC7010F945B7195
:10471000D5016D915D01861719F0C7010F94637182
:104720000F5F1F4F0F3FBFE01B0799F6C8CE0E94D7
:1047300040D48093B31062CE81E08093EB1310924B
:10474000EC1380918C138F7B80938C131092790DD6
:104750001092780D1092F01090913913923009F464
:1047600069C4933009F4B6C58EEE890F843008F021
:10477000B3C587E1891B0E9496DA90913913923074
:1047800009F4A6C5933009F4A1C58EEE890F8430D3
:1047900008F09AC587E1891B41E050E06EE570E7BB
:1047A0000E94C0DA90913813923009F48BC593308F
:1047B00009F486C58EEE890F843008F07FC587E145
:1047C000891B0E9496DA90913813923009F474C5CF
:1047D000933009F447C68EEE890F843008F06AC51D
:1047E00087E1891B41E050E06AE67FE60E94C0DA7B
:1047F00081E00E942FD163CE8091E0142091E114DA
:1048000090E0805C9F4F821B91098F739927892BC1
:1048100099F39091E0148091E114981709F4E5C59B
:10482000E091E114F0E0E953FB4E658D8091E114D5
:104830008F5F8F738093E11470E0F11011CFFF242C
:10484000F39432CF81E08093B4108091E0142091F2
:10485000E11490E0805C9F4F821B91098F73992730
:1048600002970CF42CCE0E9440D40E9440D40E94A7
:104870003DEA1092B41023CE81E08093B410809171
:10488000E0142091E11490E0805C9F4F821B91091D
:104890008F739927892B09F412CE0E9440D48093FC
:1048A000560F1092B4100BCE8CE89EE00E9430D3CD
:1048B000F7E2CF2EF3E0DF2E812C912C54019E01E4
:1048C0002F5D3F4F7901AAE04A2E512C612C712CAB
:1048D00019A2A50194018701CA01B901A30192019E
:1048E0000F941870605DD8016E938D01211531050C
:1048F0004105510589F7109759F0FD0101900020FD
:10490000E9F73197BF016A1B7B0BCD010E9423D2CF
:1049100062E070E085E892E00E9423D2F6012191E6
:104920006F0130E040E050E019A28701CA01B901EF
:10493000A30192010F941870605DD8016E938D01F0
:10494000211531054105510589F7109759F0FD01F1
:1049500001900020E9F73197BF016A1B7B0BCD0165
:104960000E9423D262E070E082E892E00E9423D2AB
:10497000BFEF8B1A9B0AAB0ABB0A8114E2E09E06CA
:10498000A104B10409F0A4CF81E89EE00E9430D3D5
:1049900078E2C72E75E0D72E812C912C5401EAE0E5
:1049A0004E2E512C612C712C19A2A5019401870166
:1049B000CA01B901A30192010F941870605DD8017A
:1049C0006E938D01211531054105510589F7109729
:1049D00059F0FD0101900020E9F73197BF016A1BF2
:1049E0007B0BCD010E9423D262E070E085E892E06B
:1049F0000E9423D2F60121916F0130E040E050E0A7
:104A000019A28701CA01B901A30192010F9418707C
:104A1000605DD8016E938D01211531054105510569
:104A200089F7109759F0FD0101900020E9F73197BF
:104A3000BF016A1B7B0BCD010E9423D262E070E0B4
:104A400082E892E00E9423D2BFEF8B1A9B0AAB0A46
:104A5000BB0A8114E2E09E06A104B10409F0A4CFD0
:104A60008EE79EE00E9430D35AE2C52E57E0D52E45
:104A7000812C912C54016AE0462E512C612C712C12
:104A800019A2A50194018701CA01B901A3019201EC
:104A90000F941870605DD8016E938D01211531055A
:104AA0004105510589F7109759F0FD01019000204B
:104AB000E9F73197BF016A1B7B0BCD010E9423D21E
:104AC00062E070E085E892E00E9423D2F601219135
:104AD0006F0130E040E050E019A28701CA01B9013E
:104AE000A30192010F941870605DD8016E938D013F
:104AF000211531054105510589F7109759F0FD0140
:104B000001900020E9F73197BF016A1B7B0BCD01B3
:104B10000E9423D262E070E082E892E00E9423D2F9
:104B2000BFEF8B1A9B0AAB0ABB0A8114E2E09E0618
:104B3000A104B10409F0A4CF8AE79EE00E9430D31B
:104B40000CE61FE020EDC22E2EE0D22E36E7A32E7B
:104B50003FE0B32E4AE0442E512C612C712CD80139
:104B60002D918D0130E040E050E019A24701CA01CB
:104B7000B901A30192010F941870605DF401629372
:104B80004F01211531054105510589F7309751F045
:104B900001900020E9F73197BF0168197909C40134
:104BA0000E9423D267E77EE087EC94E10E94A2D6C0
:104BB000D6018D916D010F941031A016B10679F6D2
:104BC00087EC94E10E946ED87ACC81E08093B41097
:104BD00080911D02882309F40BC48091E014209178
:104BE000E11490E0805C9F4F821B91098F7399279D
:104BF00003970CF464CC0E9440D4182F0E9440D438
:104C0000982F8827FC01E12B8F011093E910009366
:104C1000E8100E9440D4682FC8010E94E4E641CE0B
:104C20000E942CDF4CCC80910A0C882309F48DC3A0
:104C30008091B410882309F4EDC38091E014209191
:104C4000E11490E0805C9F4F821B91098F7399273C
:104C5000892B99F360E08091090C0F94FB312FCCE4
:104C600081E08093B4108091E0142091E11490E0F1
:104C7000805C9F4F821B91098F73992706970CF4D4
:104C80001ECC0E9440D40E9440D40E9440D40E9476
:104C900040D40E9440D40E9440D48091EB138111F3
:104CA000C7C38091EC13882309F4FBCD80918C134A
:104CB00086FFB5C30FE710E0C12CD12C760109C0E7
:104CC0008091F0108F5F8093F0100150110909F46A
:104CD000B2C3E091F010F0E0EE0FFF1FEE0FFF1FE8
:104CE000ED52F64F80819181A281B381C80ED91E09
:104CF000EA1EFB1E8F2D0E942FD18E2D0E942FD1D8
:104D00008D2D0E942FD18C2D0E942FD1E091F0107B
:104D1000F0E0E353FE4E80810E942FD18091F0108D
:104D20008F3771F61092F010D0CF81E08093B410DD
:104D30008091E0142091E11490E0805C9F4F821BF1
:104D400091098F73992706970CF4B9CB0E9440D430
:104D50000E9440D4803309F0A4CD0E9440D4182F83
:104D60000E9440D4082F0E9440D4D82E0E9440D4E4
:104D7000982F8827BC016D29F02EE12C40E3C70154
:104D8000812B0F94BD2E8DCD81E08093B410809146
:104D9000E0142091E11490E0805C9F4F821B910908
:104DA0008F73992702970CF48ACB0E9440D40E94FB
:104DB00040D40E947B14162F072FF82E892F0E94B3
:104DC0002FD18F2D0E942FD1802F0E942FD1812F84
:104DD0000E942FD11092B41072CB8091A2139091A7
:104DE000A313A091A413B091A5130E942FD1809179
:104DF000A2139091A313A091A413B091A513892F8E
:104E00000E942FD15CCB81E08093B4108091E0149C
:104E10002091E11490E0805C9F4F821B91098F7379
:104E2000992702970CF44BCB0E9440D40E9440D4A7
:104E30000E94E4FE1092B41042CB80910217909130
:104E40000317009709F40BC39E012F5F3F4FA90181
:104E5000481B590BCA015093A9134093A8130E94F1
:104E60002FD18091A9130E942FD129CB1092EC133E
:104E700090913913923009F0D5CA80E0DDCA11E073
:104E80001093B4108091E710882309F478C2009140
:104E9000E3101091E410E090E510F090E61080919E
:104EA000E0142091E11490E0805C9F4F821B9109F7
:104EB0008F739927892B09F4F2C10E151F0518F578
:104EC000C090E810D090E9100E9440D4682FC6012D
:104ED000800F911F0E94E4E60F5F1F4F1093E410B4
:104EE0000093E3108091E0142091E11490E0805C45
:104EF0009F4F821B91098F739927892B09F4CFC18A
:104F00000E151F0508F31092B4101092E710D7CABF
:104F10000E945E10D4CA41E368E670E080E090E051
:104F20000F94BD2ECCCA82E29AE00E9430D3C7CA49
:104F30000E944EACC4CA6CE07FE087EC94E10E9412
:104F4000A2D6BDCA81E08093B4108091E014209174
:104F5000E11490E0805C9F4F821B91098F73992729
:104F600002970CF4ACCA0E9440D4F82E0E9440D4A0
:104F70001F2D00E09801282BC90121503240283113
:104F800041E0340708F4D7C12F5F3E4F223031058E
:104F900008F4D1C19C0139592730310508F08FCA76
:104FA0000F949B071092B4108ACA62E070E082E806
:104FB00092E00E9423D283CAC0903F091091400919
:104FC00000914109F0904209509143095CA38091FE
:104FD00044098DA3E0904509B090460990911E02C6
:104FE000492F50E0FA013197EB30F10508F489C1FF
:104FF00087E599E00E9430D362CA81E08093EC1388
:105000001092EB1380918C138F7B80938C131092F2
:10501000790D1092780D1092F0101092C911109223
:10502000CA111092CB111092CC1190913913923079
:1050300009F097CB80E09FCB81E08093B410809102
:10504000E0142091E11490E0805C9F4F821B910955
:105050008F73992706970CF432CA0E9440D40E949D
:1050600040D4D82E0E9440D4F82E0E9440D4982FCD
:1050700088278C010F291093E9100093E8100E94F3
:1050800040D4F82E0E9440D4982F88278F291816D4
:1050900019060CF006CC7C01E00EF11EB8018D2D36
:1050A0000E94BDAC0E942FD10F5F1F4FE016F1068A
:1050B000A9F7F7CB6BEF7EE087EC94E10E94A2D6D4
:1050C000FEC981E08093B4108091E0142091E11436
:1050D00090E0805C9F4F821B91098F739927892BE9
:1050E00009F4EDC90E9440D490ED980F9A3008F071
:1050F00035C190931E02892F9EEF980F923008F4CD
:105100003AC1853009F437C18B3009F434C11092AB
:105110001D02C7CB69EE7EE087EC94E10E94A2D627
:105120001092A113CCC933243A94A6CAC60162E3F3
:1051300070E00F94D16F7C018DE00E94E9D2E11400
:10514000F10449F0EDEDFFE1849190E0FC0131972D
:10515000E231F10538F060E08DE00F94FB31A0CA38
:10516000362E8ACA8827EC50FF4F8F4F0D94AF71AF
:1051700080912001886080932001F0922D01E092BF
:105180002C018ECA80912001806280932001F092D0
:105190002B01E0922A0184CA8091200180688093CB
:1051A0002001F0922901E09228017ACA8091A000A2
:1051B00088608093A000F092AD00E092AC0070CACD
:1051C0008091A00080628093A000F092AB00E092FA
:1051D000AA0066CA8091A00080688093A000809198
:1051E000A0008F7B8093A000F092A900E092A8001D
:1051F00057CA80919000886080939000F0929D0043
:10520000E0929C004DCA8091900080628093900053
:10521000F0929B00E0929A0043CA809190008068CF
:1052200080939000F0929900E092980039CA8091A2
:10523000B00080628093B000E092B40031CA8091E7
:10524000B00080688093B000E092B30029CA8091DA
:105250008000886080938000F0928D00E0928C0046
:105260001FCA80918000806280938000F0928B0042
:10527000E0928A0015CA8091800080688093800047
:10528000F0928900E09288000BCA84B5806284BDE8
:10529000E8BC06CA84B5806884BDE7BC01CA0E15A7
:1052A0001F0508F40CC92FCE80E09FEFC4C92FEF73
:1052B00030E0ABC98FEF96CA80E094CA8FEF81CA05
:1052C00081E07FCA80E07DCA8FEF66CA81E064CA50
:1052D00080E062CA81E04FCA8FEF4DCA212C69C9B4
:1052E00066246A94A9E07A2EAA24A394B12C4424BB
:1052F0004394512C1BA21AA20AE2802E07E0902EA2
:1053000027C98827EA5FFE4F8F4F0D94AF718FEF4B
:10531000D4C880E0D2C88FEFB8C881E0B6C880E0BA
:10532000B4C88FEFA1C881E09FC880E09DC881E02C
:1053300083C88FEF81C82091441330914513232BEC
:1053400009F0AFCA0F949B07ACCA8091B4108111C9
:10535000B6C884E99EE00E9430D3B1C89FE9980F97
:10536000963008F081C0875580931E029EEF980FFB
:10537000923008F0C9CE81E080931D0292CA8091DC
:10538000E0142091E11490E0805C9F4F821B910912
:105390008F73992707970CF492C80E9440D40E94FB
:1053A00040D480931E020E9440D4082F0E9440D413
:1053B000982F8827802B9093E9108093E8100E9403
:1053C00040D4082F0E9440D4982F88277C01E02ADF
:1053D000F092E610E092E5101093E7101092E410BE
:1053E0001092E31000E010E05ACD6FEF7FEF35C967
:1053F0008091E0142091E11490E0805C9F4F821B2B
:1054000091098F73992702970CF459C80E9440D4D0
:105410008C01FBCB89EB9EE00E9430D30ECC0BE7D6
:1054200012E080E00E942FD101501109D1F739CA52
:105430000E944EAC36CA80918C138F7B80938C1364
:105440001092790D1092780D1092F0101092C911EF
:105450001092CA111092CB111092CC1122CA86E080
:1054600097E1F2CC81E0BEC99FEB980F963008F42B
:1054700012C180931E0240CE81E01FC886E09AE0F0
:105480000E9430D3A3EFCA2EAFE0DA2E9E012F5D2B
:105490003F4F7901BAE08B2E912CA12CB12CD60173
:1054A0002D916D0130E040E050E019A28701CA0162
:1054B000B901A50194010F941870605DF801629321
:1054C0008F01211531054105510589F7309751F0BC
:1054D00001900020E9F73197BF01601B710BC801F3
:1054E0000E9423D262E070E082E892E00E9423D220
:1054F000F3EBCF16F0E1DF0691F60C945F2280907B
:10550000280D8091290D20912A0D90912B0D40910D
:105510002E0D30912F0D882311F40C945F22912CC5
:10552000A42EB32E222E392E90E0880F991FA501AC
:10553000480F591F5BA34AA3CE0181967C010AE064
:10554000402E512C612C712CD5011C91B2E0AB0E78
:10555000B11C143608F489C0212F30E040E050E03F
:1055600019A28701CA01B901A30192010F94187011
:10557000605DF80162938F012115310541055105E8
:1055800089F7309751F001900020E9F73197BF017A
:10559000601B710BC8010E9423D261E070E086E8B5
:1055A00092E00E9423D281149104C1F1C12CD12C2C
:1055B000D101ED91FC91EC0DFD1D1081143608F424
:1055C00044C0212F30E040E050E019A28701CA0119
:1055D000B901A30192010F941870605DF801629304
:1055E0008F01211531054105510589F7309751F09B
:1055F00001900020E9F73197BF01601B710BC801D2
:105600000E9423D261E070E086E892E00E9423D2FB
:10561000FFEFCF1ADF0AC814D90451F660E070E03A
:1056200084E892E00E9423D262E070E082E892E097
:105630000E9423D2F2E02F0E311C2AA13BA1A21618
:10564000B30609F081CF0C945F2261E070E086E838
:1056500092E00E9423D21A3008F0B3CF61E070E0EC
:1056600086E892E00E9423D2ACCF61E070E086E849
:1056700092E00E9423D21A3008F06ECF61E070E011
:1056800086E892E00E9423D267CF8AE799E00E94E1
:1056900030D30C945F22875380931E0267CEC09054
:1056A000C6021091C7020091C802F090C902E091B1
:1056B000CA02ECA3F091CB02FDA3E090CC02B09023
:1056C000CD0229E72AA380911D02882309F425C170
:1056D0009AE0492E512C612C712C5AA1852F90E013
:1056E0008156964F0E9430D362E070E082E892E0EB
:1056F0000E9423D2D12C112309F47FC08E2C9B2C25
:10570000A02EBF2C212E312C220C331C280C391C2E
:10571000D4011C91B2E08B0E911C143608F4F3C036
:10572000212F30E040E050E019A28E010F5D1F4FA5
:10573000CA01B901A30192010F941870605DF801CC
:1057400062938F01211531054105510589F7309785
:1057500051F001900020E9F73197BF01601B710BF8
:10576000C8010E9423D280E20E942FD1C114D1042B
:10577000B9F1E12CF12CD501ED91FC91EE0DFF1D5D
:105780001081143608F4AAC0212F30E040E050E028
:1057900019A28E010F5D1F4FCA01B901A301920129
:1057A0000F941870605DF80162938F012115310527
:1057B0004105510589F7309751F001900020E9F734
:1057C0003197BF01601B710BC8010E9423D280E298
:1057D0000E942FD1FFEFEF1AFF0AEC14FD0459F6D7
:1057E00062E070E082E892E00E9423D2F2E0AF0E25
:1057F000B11C8214930409F08BCF02E519E008C0B4
:1058000087EC94E10E9409D80F5F1F4F892B21F08C
:10581000F80164916111F4CFC114D104F1F10CA12C
:105820001DA17601EE0CFF1CE00EF11ED8018D913A
:105830009D918D0164E670E00F94D16FD62EB3E692
:10584000B61708F055C02D2D30E040E050E019A209
:10585000CE0181966C01CA01B901A30192010F9496
:105860001870605DD6016E936D01211531054105FB
:10587000510589F7109759F0FD0101900020E9F7D3
:105880003197BF016A1B7B0BCD010E9423D280E2BE
:105890000E942FD1E016F10649F662E070E082E83E
:1058A00092E00E9423D2FAA1F93711F00C945F2202
:1058B000C09015031091160300911703F090180380
:1058C000B0911903BCA3E0911A03EDA3E0901B0370
:1058D000B0901C03F4E8FAA35F2F00CF80E20E948F
:1058E0002FD11A3008F050CF80E20E942FD14CCF38
:1058F00080E20E942FD1E9E0ED1508F4A4CF80E208
:105900000E942FD1A0CF80E20E942FD11A3008F040
:1059100007CF80E20E942FD103CFE92FF0E0EE0FF6
:10592000FF1FE659FD4F80819181892B11F40C9462
:105930005F2280E090E010E0FC01E453F14F8081B1
:105940000E942FD11F5F812F90E0E0911E02F0E0B6
:10595000EE0FFF1FE659FD4F20813181821793071B
:1059600058F30C945F228AEF99E00E9430D30CE345
:105970001EE0D8018D918D010F941031BEE00B34E3
:105980001B07B9F7E2E0BE2EFE01B1967F01FAE0F7
:105990004F2E512C612C712C9B2CF2E09F1609F498
:1059A000E9C281E59EE06C015C0126E0A20EB11C1B
:1059B000D6012D916D0130E040E050E019A2870141
:1059C000CA01B901A30192010F941870605DF8013A
:1059D00062938F01211531054105510589F73097F3
:1059E00051F001900020E9F73197BF01601B710B66
:1059F000C8010E9423D280E20E94A9D1AC14BD0448
:105A0000B9F662E070E082E892E00E9423D29A94B4
:105A10009110C3CF62E0962E7AE0472E512C612C74
:105A2000712CF2E09F1609F4A2C280E69EE06C01A0
:105A30005C0129E0A20EB11CD6012D916D0130E070
:105A400040E050E019A28701CA01B901A301920107
:105A50000F941870605DF80162938F012115310574
:105A60004105510589F7309751F001900020E9F781
:105A70003197BF01601B710BC8010E9423D280E2E5
:105A80000E94A9D1AC14BD04B9F662E070E082E8CE
:105A900092E00E9423D29A949110C3CF49E6C42E7B
:105AA0004EE0D42E5AE0852E912CA12CB12CD6019B
:105AB0002D916D0130E040E050E019A28701CA014C
:105AC000B901A50194010F941870605DF80162930B
:105AD0008F01211531054105510589F7309751F0A6
