:100000000C9421100D94D7280D94AC280D948128C0
:100010000D9456280D942B280D9400280D94D52767
:100020000D94AA270C9452100C9452100C94521058
:100030000C9452100C9452100C9452100D94141BEA
:100040000C9452100C949A3F0C94903D0C944AB727
:100050000C9452100C9452100C9452100D94344283
:100060000C9452100D946A2A0D942A2A0C94521062
:100070000C9452100C9452100C9452100C94521078
:100080000D947B180D94F3170D946B170C9452106C
:100090000C9452100C9452100C9452100C94521058
:1000A0000C9452100C9452100D943B140D94E316C2
:1000B0000D9491130C9452100C9452100D94391607
:1000C0000D948F150D94E5140C9452100C9452104D
:1000D0000C9452100C9452100D94F3290D94B329E2
:1000E0000C9452100D94C8050C94826B0C94A0577C
:1000F0000C94EA540C94CD7B0C9416430C949FED15
:100100000C948C430C943B760D947D340C946BECE6
:100110000C941D430C946E430C944A7B0C94DCF6B7
:100120000C9462430C944A540C944A430C944448F3
:100130000C943FA80C9444430C9490440C94FF9866
:100140000C9443650D949C600C94AA180C94147A3A
:100150000D94AD340C940FA70C94366D0C94A5B08F
:100160000C94E4F60C949CDF0D945C340C94DB430B
:100170000C94D0450C9455530C9457F50D94DA20FB
:100180000C94E7430C94E4430D9461340C94504375
:100190000D9491290C94B8440C9426DF0C94CB4414
:1001A0000C9420440C944EF30C940A430C94774323
:1001B0000D9407210C9482570C941D440C94BAF3AF
:1001C0000D94AD210C94C4440C942B440D94C1485F
:1001D0000D94CB600C94E2F60D94A1340C941B4D5D
:1001E0000C9406EE0C94031C0C94FC430D94062115
:1001F0000C94655F0C94C1440C9416820C94D9F055
:100200000C94F4440C943D440C94A4810C943A73E3
:100210000C94B3570C9480E40C94E0440C9404CBFD
:100220000C9456430C9444E30C947BAD0D949E05C2
:100230000C94F9F50C94DD870D946B340C94358394
:100240000C9456440C944C690C9475580C94C21E32
:100250000C940B1F0C9402440D9446290C94EB1B38
:100260000C94AE430C94936A0C9447480D945E0230
:100270000C9407480C94D86C0C9489770C94D4EFA8
:100280000C94D1EC0C94E7440D94825F0C94FB4FDA
:100290000C94C9430C9454DE0C9413430C94CF1863
:1002A0000C94DE1E0C946AED0C94D3470C94BD4361
:1002B0000C9423430C9466CA0C948E7D0C94A36D0D
:1002C0000C94BC7A0D94F9740C9433620C94AFE0E6
:1002D0000C94FEA80D943D5E0D94355E0C94654320
:1002E0000C94D1A50C943BEF0D94C1060C943543AE
:1002F0000C94A3A80C94D2F60C9465A00D949929A3
:100300000D94CD5D0C94BB440C9404470C941144A3
:100310000C9435E10D9463220C9470620C94635834
:100320000C9425200C9406780C94CB730C94D54334
:100330000C9459A90C942E620C947B800D94773404
:100340000C94811B0C94B3A00C94E0F60C94CF6138
:100350000C945E180C9428F40C94E3AD0C94F943BF
:100360000C943E200C949FEE0C94FE540C94E1717E
:100370000C94318B0C9440540C940D430C94BACAD9
:100380000C94911F0C94DE7A0C947D430C94016EB6
:100390000C9483430C9462E00C9429AF0C9479F292
:1003A0000C94B7B40C94D1440C94ECF60C94BA6948
:1003B0000C94CE500D9427290C947F790C94891EAF
:1003C0000C94C71B0C946D7C0C943D580C94C3F595
:1003D0000C944FE90C9447430C94961B0C94CBE679
:1003E0000C94A9A90C94F3890C947A430C94DC62C4
:1003F0000C940C190C944F480C94D4F60C94CA47E6
:100400000C94FF430C942E440C94F3430C948DF500
:100410000D94235E0C947B1B0C945C430C9450E86D
:100420000C946BAB0C94D3130C941F6A0C94606EF9
:100430000C948E180C94BE440C948F430C9444443A
:100440000C94D3740C9436AD0C94EDA90C94F8AEC6
:100450000C940A1C0C94521F0C949F750C94BAE3D4
:100460000C9438850D9477290D948F340C94744333
:100470000C9491700D944C600C94A2A60C94E6F62A
:100480000C9479B50D9466290C94701B0C943D481E
:100490000C94EC4C0D9465340C94D7570C94534346
:1004A0000C9414740C94C3430C9493630C945F5396
:1004B0000C944B530C9441430C94FD440C94E41B5A
:1004C0000C9458180C945F430D94A7340C9467DC7B
:1004D0000D942F290C9451E70C9426430C94D29937
:1004E0000C9429430C9414440C9469480C942D6288
:1004F0000D944F220D94E7020C9436EC0D94953434
:100500000C9408440D94DA050D9404060C9461DFF4
:100510000C947FE30C948D440C940C480C94991328
:100520000D942C5E0C94CE1B0C94F8660D945749D8
:100530000C9471640C94B2440D9427050C941043F0
:100540000D94455E0C94B6920C9438430C94F71BB2
:100550000C94DB460C94F0F60C94499B0C94F454E8
:100560000C9420430C9488770C94F04F0C94B21E9A
:100570000C94F0430C94B5440C945B200D946E4D98
:100580000C94EEF60C94D7460C947E880D94573458
:100590000C9438A60C949FEB0D9425290C94C04321
:1005A0000C94DF680C9440AA0D9429290C948B5864
:1005B0000C949D580C9428B20C946B430C94B1434A
:1005C0000C94D6F60C9453E50D94AE040C94DEF620
:1005D0000C94E1430C948C9C0C9417440C94716221
:1005E0000C9479180C9464180C94B11B0C94E8F6D4
:1005F0000C94AD530C949B530C9452E60C94A9F1BB
:100600000D9419610C9450580C94AA8F0C944D437E
:100610000C94D1B20C9404510C9480AC0C946C47A3
:100620000C94977F0C94FA440D94CF4C0C94DE43B9
:100630000D94FB020C9473180C94C5570C94E1B103
:100640000C94D6180D942D290C9471780C940F9657
:100650000C940A800D949C040C944EEA0D94F520A1
:100660000C9415200C9489430C9491530C941AAE5D
:100670000C9410480C9487CA0D945D340D940F5E51
:100680000D9409600C94B4430C9431860C94CF43C0
:100690000C94FA780C94D7440C9486430D948934C6
:1006A0000C94D2430C948A440C94E47E0C947847C6
:1006B0000C94CC430C94CCE50C945C840C9466AE06
:1006C0000C94A0750C94AB430C942F430C940E44E3
:1006D0000C94C9E80C9470450C94E1180D94494CA5
:1006E0000C9471430D9483340C948F470C9470E1F7
:1006F0000C94A61E0C9405440C94A8430C94F05F33
:100700000D94A5290D9423290C9418B40C94A1DE02
:100710000D9485290C943E430C9417970C9436B392
:100720000C94DAF60C94EE440C94DA440C9440F1F8
:100730000C94A5810C9468430C9451560C947494B9
:100740000C94D4EE0C9452EB0C94BA430C94636C5E
:100750000C94EA450C943C630D94CD030D94555EC6
:100760000C941A440C9409800C94006F0C947858E3
:100770000C94EB440C94E0F20C941FCA0C94F144DA
:100780000C94C8E90C94FB1E0C9464A70C94834849
:100790000C94781B0C949C1B0C94DD440C949E755B
:1007A0000C9471E20C94EAF60C9422C60C940B445F
:1007B0000D94DF030C9410F20C9474AB0C94D5518F
:1007C0000C94791E0D94AA490C9409F00C94594389
:1007D0000D94DB5F0D9471340D94B8030C940D5897
:1007E0000C94ABE10C94AACB0C94C9A70C9437D40D
:1007F0000C94CAE70C94E3440C94F7440C9470F006
:100800000C94361F0D94FC4D0C9471180D942B29EB
:100810000C9412470C94A3180C94C6890C94EA43C8
:100820000C9467440C9454CB0C9454750C94CDE404
:100830000D949B340C94391C0C945B860C943251AF
:100840000C94A6830C94DA470C9455DD0C94FF6746
:100850000C9433E40C94156B0C94B7DC0C94D843D3
:100860000C9419430C94987F0C9432430C94B9AFB8
:100870000C94ED6B0C94CE440C94FEAB0C94924310
:100880000C94F6430C943B430C9490DD0C94BEE224
:100890000C94C7EA0C942C430C94ED430C942B5805
:1008A0000C94DF7A0C9425620C9468460C94804377
:1008B0000C94BB7A0C94B7430D9413220C942644E9
:1008C0000C94D8F60C94C6430C94D4440D945A431B
:1008D0000C94F0600C9473470C941BDD0C94E55061
:1008E0000C9429610C94C3180C944EB10C943B6485
:1008F0000C9499480D94DB4D0C94CC860C94B7184D
:100900000000800020012001800020018000F00014
:100910008001C000C0002001C000800020010A50FA
:1009200061676520686173206E6F74206265656E13
:1009300020696D706C656D656E7465642079657491
:10094000000A326E642049676E6974696F6E204DCB
:100950006170000A326E64204675656C204D6170CE
:10096000000A50616765203920436667000A5472A7
:10097000696D2031205461626C65000A565654201E
:100980004D6170000A426F6F7374204D6170000AF0
:100990005067203620436F6E666967000A414652F1
:1009A000204D6170000A5067203420436667000ABA
:1009B00049676E6974696F6E204D6170000A5067F7
:1009C000203220436667000A5645204D6170000AB8
:1009D0003D3D3D436F6D6D616E642048656C703DBB
:1009E0003D3D0A0A416C6C20636F6D6D616E6473EE
:1009F000206172652073696E676C6520636861723F
:100A0000616374657220616E642061726520636F3A
:100A10006E636174656E61746564207769746820C3
:100A2000746865697220706172616D657465727356
:100A3000200A776974686F757420737061636573D9
:100A40002E53796E7461783A20203C636F6D6D612E
:100A50006E643E2B3C706172616D65746572313EEF
:100A60002B3C706172616D65746572323E2B3C7017
:100A70006172616D657465724E3E0A0A3D3D3D4C82
:100A8000697374206F6620436F6D6D616E64733D92
:100A90003D3D0A0A41202D20446973706C617973D1
:100AA000203331206279746573206F66206375721C
:100AB00072656E745374617475732076616C7565BC
:100AC0007320696E2062696E61727920286C697684
:100AD000652064617461290A42202D204275726E7E
:100AE0002063757272656E74206D617020616E6432
:100AF00020636F6E666967506167652076616C750B
:100B0000657320746F20656570726F6D0A43202DC8
:100B1000205465737420434F4D20706F72742E20E3
:100B200020557365642062792054756E6572737404
:100B30007564696F20746F207365652077686574CC
:100B400068657220616E20454355206973206F6E81
:100B5000206120676976656E2073657269616C201B
:100B60000A20202020706F72742E205265747572D6
:100B70006E7320612062696E617279206E756D629C
:100B800065722E0A4E202D205072696E74206E659B
:100B900077206C696E652E0A50202D2053657420D5
:100BA00063757272656E7420706167652E202053C4
:100BB000796E7461783A2020502B3C706167654EE5
:100BC000756D6265723E0A52202D2053616D65205D
:100BD0006173204120636F6D6D616E640A53202D37
:100BE00020446973706C6179207369676E617475F4
:100BF0007265206E756D6265720A51202D205361F9
:100C00006D65206173205320636F6D6D616E640AA2
:100C100056202D20446973706C6179206D617020BD
:100C20006F7220636F6E66696750616765207661D9
:100C30006C75657320696E2062696E6172790A57FE
:100C4000202D20536574206F6E65206279746520B5
:100C5000696E206D6170206F7220636F6E666967C8
:100C6000506167652E20204578706563747320623B
:100C7000696E61727920706172616D6574657273FD
:100C80002E200A2020202053796E7461783A20208B
:100C9000572B3C6F66667365743E2B3C6E657762BE
:100CA0007974653E0A74202D205365742063616C4D
:100CB0006962726174696F6E2076616C7565732EFE
:100CC0002020457870656374732062696E61727963
:100CD00020706172616D65746572732E202054619D
:100CE000626C6520696E646578206973206569743B
:100CF00068657220302C200A20202020312C206FA3
:100D00007220322E202053796E7461783A2020743C
:100D10002B3C74626C655F6964783E2B3C6E657732
:100D200056616C7565313E2B3C6E657756616C750E
:100D300065323E2B3C6E657756616C75654E3E0A9A
:100D40005A202D20446973706C61792063616C694D
:100D500062726174696F6E2076616C7565730A5496
:100D6000202D20446973706C6179732032353620F0
:100D7000746F6F7468206C6F6720656E747269653C
:100D80007320696E2062696E6172790A72202D206B
:100D9000446973706C6179732032353620746F6FDB
:100DA0007468206C6F6720656E74726965730A558C
:100DB000202D205072657061726520666F7220660A
:100DC00069726D77617265207570646174652E203B
:100DD000546865206E657874206279746520726548
:100DE0006365697665642077696C6C2063617573EF
:100DF00065207468652041726475696E6F20746F38
:100E00002072657365742E0A3F202D20446973702B
:100E10006C61797320746869732068656C702070E8
:100E2000616765002C2000575545004F3200496E20
:100E30006C65742074656D7000436F6F6C616E74C7
:100E400000526573657420636F6E74726F6C2069F5
:100E5000732063757272656E746C79206469736156
:100E6000626C65642E00436F6D6D732068616C74F5
:100E700065642E204E6578742062797465207769E8
:100E80006C6C2072657365742074686520417264AF
:100E900075696E6F2E00537065656475696E6F209D
:100EA000323032312E303800737065656475696E8A
:100EB0006F203230323130380030303100200020A5
:100EC00000200020002020202000040E11191B20EB
:100ED000292B2D2F31333537393B3D3F4143454792
:100EE0004B4D4F515557595D6166BE5370656564F2
:100EF00075696E6F00537065656475696E6F203239
:100F00003031392E30382D73657200537065656449
:100F100075696E6F2063737830323031392E380046
:100F2000000020002300260029002C002F003200A2
:100F30000001000003010601090100002100240056
:100F400027002A002D0030003300010100000401B9
:100F500007010A0100000000963007772C610EEEB1
:100F6000BA51099919C46D078FF46A7035A563E900
:100F7000A395649E3288DB0EA4B8DC791EE9D5E027
:100F800088D9D2972B4CB609BD7CB17E072DB8E726
:100F9000911DBF906410B71DF220B06A4871B9F37B
:100FA000DE41BE847DD4DA1AEBE4DD6D51B5D4F4B4
:100FB000C785D38356986C13C0A86B647AF962FD19
:100FC000ECC9658A4F5C0114D96C0663633D0FFA66
:100FD000F50D088DC8206E3B5E10694CE44160D56C
:100FE000727167A2D1E4033C47D4044BFD850DD256
:100FF0006BB50AA5FAA8B5356C98B242D6C9BBDB69
:1010000040F9BCACE36CD832755CDF45CF0DD6DC63
:10101000593DD1ABAC30D9263A00DE518051D7C80A
:101020001661D0BFB5F4B42123C4B3569995BACF95
:101030000FA5BDB89EB802280888055FB2D90CC6B6
:1010400024E90BB1877C6F2F114C6858AB1D61C12F
:101050003D2D66B69041DC760671DB01BC20D2984E
:101060002A10D5EF8985B1711FB5B606A5E4BF9FDB
:1010700033D4B8E8A2C9077834F9000F8EA80996CE
:1010800018980EE1BB0D6A7F2D3D6D08976C649139
:10109000015C63E6F4516B6B62616C1CD830658552
:1010A0004E0062F2ED95066C7BA5011BC1F408822F
:1010B00057C40FF5C6D9B06550E9B712EAB8BE8B70
:1010C0007C88B9FCDF1DDD62492DDA15F37CD38CF9
:1010D000654CD4FB5861B24DCE51B53A7400BCA3F7
:1010E000E230BBD441A5DF4AD795D83D6DC4D1A429
:1010F000FBF4D6D36AE96943FCD96E34468867AD00
:10110000D0B860DA732D0444E51D03335F4C0AAA9E
:10111000C97C0DDD3C710550AA41022710100BBEA1
:1011200086200CC925B56857B3856F2009D466B9E8
:101130009FE461CE0EF9DE5E98C9D9292298D0B01D
:10114000B4A8D7C7173DB359810DB42E3B5CBDB7CA
:10115000AD6CBAC02083B8EDB6B3BF9A0CE2B6034B
:101160009AD2B1743947D5EAAF77D29D1526DB0400
:101170008316DC73120B63E3843B64943E6A6D0D4B
:10118000A85A6A7A0BCF0EE49DFF099327AE000A96
:10119000B19E077D44930FF0D2A3088768F2011E29
:1011A000FEC206695D5762F7CB67658071366C19C0
:1011B000E7066B6E761BD4FEE02BD3895A7ADA10E1
:1011C000CC4ADD676FDFB9F9F9EFBE8E43BEB717C2
:1011D000D58EB060E8A3D6D67E93D1A1C4C2D8384C
:1011E00052F2DF4FF167BBD16757BCA6DD06B53FB2
:1011F0004B36B248DA2B0DD84C1B0AAFF64A0336F1
:10120000607A0441C3EF60DF55DF67A8EF8E6E316F
:1012100079BE69468CB361CB1A8366BCA0D26F25B8
:1012200036E2685295770CCC03470BBBB916022205
:101230002F260555BE3BBAC5280BBDB2925AB42B1A
:10124000046AB35CA7FFD7C231CFD0B58B9ED92C2F
:101250001DAEDE5BB0C2649B26F263EC9CA36A7594
:101260000A936D02A906099C3F360EEB856707724B
:1012700013570005824ABF95147AB8E2AE2BB17BB2
:10128000381BB60C9B8ED2920DBED5E5B7EFDC7C39
:1012900021DFDB0BD4D2D38642E2D4F1F8B3DD6890
:1012A0006E83DA1FCD16BE815B26B9F6E177B06F8B
:1012B0007747B718E65A0888706A0FFFCA3B066678
:1012C0005C0B0111FF9E658F69AE62F8D3FF6B6105
:1012D00045CF6C1678E20AA0EED20DD75483044EA7
:1012E000C2B30339612667A7F71660D04D47694935
:1012F000DB776E3E4A6AD1AEDC5AD6D9660BDF4048
:10130000F03BD83753AEBCA9C59EBBDE7FCFB247FA
:10131000E9FFB5301CF2BDBD8AC2BACA3093B353DF
:10132000A6A3B4240536D0BA9306D7CD2957DE54E8
:10133000BF67D9232E7A66B3B84A61C4021B685DC1
:10134000942B6F2A37BE0BB4A18E0CC31BDF055A3A
:101350008DEF022D0000000041311B1982623632F0
:10136000C3532D2B04C56C6445F4777D86A75A566C
:10137000C796414F088AD9C849BBC2D18AE8EFFA5B
:10138000CBD9F4E30C4FB5AC4D7EAEB58E2D839E1C
:10139000CF1C98875112C24A1023D953D370F478C6
:1013A0009241EF6155D7AE2E14E6B537D7B5981CEC
:1013B0009684830559981B8218A9009BDBFA2DB0EF
:1013C0009ACB36A95D5D77E61C6C6CFFDF3F41D49C
:1013D0009E0E5ACDA2248495E3159F8C2046B2A779
:1013E0006177A9BEA6E1E8F1E7D0F3E82483DEC384
:1013F00065B2C5DAAAAE5D5DEB9F464428CC6B6F43
:1014000069FD7076AE6B3139EF5A2A202C09070B33
:101410006D381C12F33646DFB2075DC6715470EDAD
:1014200030656BF4F7F32ABBB6C231A275911C8903
:1014300034A00790FBBC9F17BA8D840E79DEA925D6
:1014400038EFB23CFF79F373BE48E86A7D1BC541B3
:101450003C2ADE58054F79F0447E62E9872D4FC261
:10146000C61C54DB018A159440BB0E8D83E823A66D
:10147000C2D938BF0DC5A0384CF4BB218FA7960A3E
:10148000CE968D130900CC5C4831D7458B62FA6E3D
:10149000CA53E177545DBBBA156CA0A3D63F8D88C3
:1014A000970E96915098D7DE11A9CCC7D2FAE1ECED
:1014B00093CBFAF55CD762721DE6796BDEB55440CA
:1014C0009F844F5958120E161923150FDA703824BD
:1014D0009B41233DA76BFD65E65AE67C2509CB576A
:1014E0006438D04EA3AE9101E29F8A1821CCA73375
:1014F00060FDBC2AAFE124ADEED03FB42D83129F36
:101500006CB20986AB2448C9EA1553D029467EFB44
:10151000687765E2F6793F2FB7482436741B091DBA
:10152000352A1204F2BC534BB38D485270DE6579F4
:1015300031EF7E60FEF3E6E7BFC2FDFE7C91D0D5C1
:101540003DA0CBCCFA368A83BB07919A7854BCB1C4
:101550003965A7A84B98833B0AA99822C9FAB5090F
:1015600088CBAE104F5DEF5F0E6CF446CD3FD96D6A
:101570008C0EC27443125AF3022341EAC1706CC14B
:10158000804177D847D7369706E62D8EC5B500A59A
:1015900084841BBC1A8A41715BBB5A6898E8774304
:1015A000D9D96C5A1E4F2D155F7E360C9C2D1B27EA
:1015B000DD1C003E120098B9533183A09062AE8BBF
:1015C000D153B59216C5F4DD57F4EFC494A7C2EF1A
:1015D000D596D9F6E9BC07AEA88D1CB76BDE319C59
:1015E0002AEF2A85ED796BCAAC4870D36F1B5DF882
:1015F0002E2A46E1E136DE66A007C57F6354E85433
:101600002265F34DE5F3B202A4C2A91B67918430B1
:1016100026A09F29B8AEC5E4F99FDEFD3ACCF3D6EB
:101620007BFDE8CFBC6BA980FD5AB2993E099FB201
:101630007F3884ABB0241C2CF115073532462A1EA6
:1016400073773107B4E17048F5D06B513683467A31
:1016500077B25D634ED7FACB0FE6E1D2CCB5CCF9C9
:101660008D84D7E04A1296AF0B238DB6C870A09D2B
:101670008941BB84465D2303076C381AC43F15318A
:10168000850E0E2842984F6703A9547EC0FA7955FB
:1016900081CB624C1FC538815EF423989DA70EB3A1
:1016A000DC9615AA1B0054E55A314FFC996262D7AB
:1016B000D85379CE174FE149567EFA50952DD77BF6
:1016C000D41CCC62138A8D2D52BB963491E8BB1F7B
:1016D000D0D9A006ECF37E5EADC265476E91486C32
:1016E0002FA05375E836123AA90709236A54240833
:1016F0002B653F11E479A796A548BC8F661B91A482
:10170000272A8ABDE0BCCBF2A18DD0EB62DEFDC002
:1017100023EFE6D9BDE1BC14FCD0A70D3F838A2698
:101720007EB2913FB924D070F815CB693B46E642B2
:101730007A77FD5BB56B65DCF45A7EC5370953EEED
:10174000763848F7B1AE09B8F09F12A133CC3F8A82
:1017500072FD249300000000376AC2016ED4840336
:1017600059BE4602DCA80907EBC2CB06B27C8D0449
:1017700085164F05B851130E8F3BD10FD685970DA7
:10178000E1EF550C64F91A095393D8080A2D9E0A03
:101790003D475C0B70A3261C47C9E41D1E77A21FA2
:1017A000291D601EAC0B2F1B9B61ED1AC2DFAB180D
:1017B000F5B56919C8F23512FF98F713A626B111CD
:1017C000914C7310145A3C152330FE147A8EB816BF
:1017D0004DE47A17E0464D38D72C8F398E92C93BAD
:1017E000B9F80B3A3CEE443F0B84863E523AC03C7B
:1017F0006550023D58175E366F7D9C3736C3DA352B
:1018000001A9183484BF5731B3D59530EA6BD33270
:10181000DD01113390E56B24A78FA925FE31EF2759
:10182000C95B2D264C4D62237B27A0222299E620FE
:1018300015F3242128B4782A1FDEBA2B4660FC2930
:10184000710A3E28F41C712DC376B32C9AC8F52E6C
:10185000ADA2372FC08D9A70F7E75871AE591E733D
:101860009933DC721C2593772B4F517672F11774E4
:10187000459BD57578DC897E4FB64B7F16080D7D6C
:101880002162CF7CA4748079931E4278CAA0047A26
:10189000FDCAC67BB02EBC6C87447E6DDEFA386F05
:1018A000E990FA6E6C86B56B5BEC776A0252316830
:1018B0003538F369087FAF623F156D6366AB2B6106
:1018C00051C1E960D4D7A665E3BD6464BA0322665A
:1018D0008D69E06720CBD74817A115494E1F534BA0
:1018E0007975914AFC63DE4FCB091C4E92B75A4C76
:1018F000A5DD984D989AC446AFF00647F64E404590
:10190000C12482444432CD4173580F402AE64942F3
:101910001D8C8B435068F154670233553EBC75579C
:1019200009D6B7568CC0F853BBAA3A52E2147C5081
:10193000D57EBE51E839E25ADF53205B86ED665909
:10194000B187A4583491EB5D03FB295C5A456F5E67
:101950006D2FAD5F801B35E1B771F7E0EECFB1E2DF
:10196000D9A573E35CB33CE66BD9FEE73267B8E513
:10197000050D7AE4384A26EF0F20E4EE569EA2ECDD
:1019800061F460EDE4E22FE8D388EDE98A36ABEB51
:10199000BD5C69EAF0B813FDC7D2D1FC9E6C97FE1E
:1019A000A90655FF2C101AFA1B7AD8FB42C49EF9DF
:1019B00075AE5CF848E900F37F83C2F2263D84F0FF
:1019C000115746F1944109F4A32BCBF5FA958DF705
:1019D000CDFF4FF6605D78D95737BAD80E89FCDA5B
:1019E00039E33EDBBCF571DE8B9FB3DFD221F5DD41
:1019F000E54B37DCD80C6BD7EF66A9D6B6D8EFD459
:101A000081B22DD504A462D033CEA0D16A70E6D3C2
:101A10005D1A24D210FE5EC527949CC47E2ADAC6C5
:101A2000494018C7CC5657C2FB3C95C3A282D3C1CC
:101A300095E811C0A8AF4DCB9FC58FCAC67BC9C85A
:101A4000F1110BC9740744CC436D86CD1AD3C0CFB6
:101A50002DB902CE4096AF9177FC6D902E422B921D
:101A60001928E9939C3EA696AB546497F2EA229516
:101A7000C580E094F8C7BC9FCFAD7E9E9613389C7E
:101A8000A179FA9D246FB598130577994ABB319BCC
:101A90007DD1F39A3035898D075F4B8C5EE10D8ED9
:101AA000698BCF8FEC9D808ADBF7428B824904895A
:101AB000B523C68888649A83BF0E5882E6B01E801C
:101AC000D1DADC8154CC938463A651853A18178708
:101AD0000D72D586A0D0E2A997BA20A8CE0466AA36
:101AE000F96EA4AB7C78EBAE4B1229AF12AC6FADA4
:101AF00025C6ADAC1881F1A72FEB33A6765575A49A
:101B0000413FB7A5C429F8A0F3433AA1AAFD7CA39D
:101B10009D97BEA2D073C4B5E71906B4BEA740B660
:101B200089CD82B70CDBCDB23BB10FB3620F49B1A7
:101B300055658BB06822D7BB5F4815BA06F653B817
:101B4000319C91B9B48ADEBC83E01CBDDA5E5ABF19
:101B5000ED3498BE000000006567BCB88BC809AAC8
:101B6000EEAFB5125797628F32F0DE37DC5F6B2530
:101B7000B938D79DEF28B4C58A4F087D64E0BD6FA2
:101B8000018701D7B8BFD64ADDD86AF23377DFE0E4
:101B9000561063589F571950FA30A5E8149F10FA51
:101BA00071F8AC42C8C07BDFADA7C7674308727548
:101BB000266FCECD707FAD951518112DFBB7A43FC4
:101BC0009ED0188727E8CF1A428F73A2AC20C6B0E8
:101BD000C9477A083EAF32A05BC88E18B5673B0A8A
:101BE000D00087B26938502F0C5FEC97E2F059852E
:101BF0008797E53DD1878665B4E03ADD5A4F8FCFB0
:101C00003F2833778610E4EAE37758520DD8ED4049
:101C100068BF51F8A1F82BF0C49F97482A30225A88
:101C20004F579EE2F66F497F9308F5C77DA740D5D1
:101C300018C0FC6D4ED09F352BB7238DC518969FCD
:101C4000A07F2A271947FDBA7C204102928FF41009
:101C5000F7E848A83D58149B583FA823B6901D317B
:101C6000D3F7A1896ACF76140FA8CAACE1077FBE6B
:101C70008460C306D270A05EB7171CE659B8A9F4F9
:101C80003CDF154C85E7C2D1E0807E690E2FCB7B0F
:101C90006B4877C3A20F0DCBC768B17329C7046126
:101CA0004CA0B8D9F5986F4490FFD3FC7E5066EEF7
:101CB0001B37DA564D27B90E284005B6C6EFB0A43B
:101CC000A3880C1C1AB0DB817FD767399178D22B9F
:101CD000F41F6E9303F7263B66909A83883F2F91FB
:101CE000ED589329546044B43107F80CDFA84D1E19
:101CF000BACFF1A6ECDF92FE89B82E4667179B5447
:101D0000027027ECBB48F071DE2F4CC93080F9DB44
:101D100055E745639CA03F6BF9C783D3176836C16D
:101D2000720F8A79CB375DE4AE50E15C40FF544ED0
:101D30002598E8F673888BAE16EF3716F8408204C4
:101D40009D273EBC241FE92141785599AFD7E08BF0
:101D5000CAB05C333BB659ED5ED1E555B07E504715
:101D6000D519ECFF6C213B62094687DAE7E932C8F6
:101D7000828E8E70D49EED28B1F951905F56E48228
:101D80003A31583A83098FA7E66E331F08C1860D92
:101D90006DA63AB5A4E140BDC186FC052F294917BF
:101DA0004A4EF5AFF376223296119E8A78BE2B9872
:101DB0001DD997204BC9F4782EAE48C0C001FDD282
:101DC000A566416A1C5E96F779392A4F97969F5D02
:101DD000F2F123E505196B4D607ED7F58ED162E7F0
:101DE000EBB6DE5F528E09C237E9B57AD946006894
:101DF000BC21BCD0EA31DF888F56633061F9D6222E
:101E0000049E6A9ABDA6BD07D8C101BF366EB4ADA7
:101E1000530908159A4E721DFF29CEA511867BB76E
:101E200074E1C70FCDD91092A8BEAC2A461119385B
:101E30002376A5807566C6D810017A60FEAECF7293
:101E40009BC973CA22F1A457479618EFA939ADFD73
:101E5000CC5E114506EE4D766389F1CE8D2644DCCD
:101E6000E841F86451792FF9341E9341DAB12653D1
:101E7000BFD69AEBE9C6F9B38CA1450B620EF019F7
:101E800007694CA1BE519B3CDB362784359992965D
:101E900050FE2E2E99B95426FCDEE89E12715D8C00
:101EA0007716E134CE2E36A9AB498A1145E63F03B9
:101EB000208183BB7691E0E313F65C5BFD59E94931
:101EC000983E55F12106826C44613ED4AACE8BC661
:101ED000CFA9377E38417FD65D26C36EB389767C25
:101EE000D6EECAC46FD61D590AB1A1E1E41E14F39F
:101EF0008179A84BD769CB13B20E77AB5CA1C2B97D
:101F000039C67E0180FEA99CE59915240B36A036C2
:101F10006E511C8EA7166686C271DA3E2CDE6F2CBF
:101F200049B9D394F081040995E6B8B17B490DA372
:101F30001E2EB11B483ED2432D596EFBC3F6DBE982
:101F4000A69167511FA9B0CC7ACE0C749461B96682
:101F5000F10605DE00002200250028002B002E00DF
:101F60003100340002010000050108010B010505E4
:101F70000505070508080808020202020A0A0808FF
:101F8000040404040101010101010101030303032D
:101F900003030303040707070C0C0C0C0C0C0C0CBC
:101FA0000202020206060606060606060B0B0B0BCD
:101FB0000B0B0B0B010210202008081020401020F2
:101FC00040800201020108040201010204081020FD
:101FD00040808040201008040201800402018040FB
:101FE0002010080402010804020101020408102064
:101FF0004080010204081020408000000A0B020902
:102000000C0D0E0807030401000000000000000092
:1020100000000000000000000000000000000000C0
:10202000000000000000121110000000000000007D
:1020300000000000000000000000000000000000A0
:10204000620111241FBECFEFD1E2DEBFCDBF00E0A1
:102050000CBF13E0A0E0B2E0EAEBF2EF02E00BBF4E
:1020600002C007900D92A832B107D9F720E2A8E28A
:10207000B3E001C01D92A43BB207E1F710E1C1E259
:10208000D0E100E006C021970109802FFE010F94E6
:102090003F79C032D10780E00807A9F70F947E424C
:1020A0000D945B790C940000EF92FF920F931F93B5
:1020B000CF93DF938091901F80E00F94B3348C0115
:1020C0008091901F0F94B334C2E7D0E0C01BD10BB6
:1020D000C81BD90B8091801F0F94B334C81BD90B38
:1020E00080917F1F0F94B334C81BD90B8091821F3E
:1020F0000F94B334C81BD90B8091811F0F94B33454
:10210000C81BD90B80912F1F0F94B334C81BD90B58
:1021100080912E1F0F94B334C81BD90B80915F1F81
:102120001AE08102700111248F2D0F94B334C81B63
:10213000D90B8E2D0F94B334C81BD90B8091CE1FB1
:102140000F94B334C81BD90B80917E1F0F94B33406
:10215000C81BD90B80916F1F0F94B334C81BD90BC8
:1021600080916F1F0F94B334C81BD90B83E60F9473
:10217000B334C81BD90B83E60F94B334C81BD90BF7
:10218000E090411FE19E700111248F2D0F94B33414
:10219000C81BD90B8E2D0F94B334C81BD90B40919B
:1021A000391F50913A1F7A01EE0CFF1CEE0CFF1CF8
:1021B000E40EF51EEE0CFF1C8F2D0F94B334C81BDC
:1021C000D90B8E2D0F94B334C81BD90B2091511FFE
:1021D0003091521F7901EE0CFF1CEE0CFF1CE20E39
:1021E000F31EEE0CFF1C8F2D0F94B334C81BD90BBC
:1021F0008E2D0F94B334C81BD90BA0914D1FB091F5
:102200004E1F7D01EE0CFF1CEE0CFF1CEA0EFB1EA8
:10221000EE0CFF1C8F2D0F94B334C81BD90B8E2DE1
:102220000F94B334C81BD90BF090421FF19E70017C
:1022300011248F2D0F94B334C81BD90B8E2D0F94FE
:10224000B334C81BD90B80E00F94B334C81BD90B2F
:1022500080915E1F0F94B334C81BD90B80E00F949C
:10226000B334C81BD90B80914B1F0F94B334C81BD8
:10227000D90B80E00F94B334C81BD90B80914C1F4D
:102280000F94B334C81BD90B83E60F94B334C81B27
:10229000D90B83E60F94B334C81BD90B3091661F5A
:1022A000319F700111248F2D0F94B334C81BD90BAB
:1022B0008E2D0F94B334C81BD90B8F2D0F94B334CC
:1022C000C81BD90B8E2D0F94B334C81BD90B50915A
:1022D000691F519F700111248F2D0F94B334C81BB7
:1022E000D90B8E2D0F94B334C81BD90B6091671F87
:1022F000619F700111248F2D0F94B334C81BD90B2B
:102300008E2D0F94B334C81BD90B83E60F94B334CE
:10231000C81BD90B83E60F94B334C81BD90B83E6D3
:102320000F94B334C81BD90B83E60F94B334C81B86
:10233000D90B83E60F94B334C81BD90B83E60F94F3
:10234000B334C81BD90B8091621F9091631F7C012D
:10235000EE0CFF1CEE0CFF1CE80EF91EEE0CFF1C31
:102360008F2D0F94B334C81BD90B8E2D0F94B3341B
:10237000C81BD90B7091481F719F700111248F2DBC
:102380000F94B334C81BD90B8E2D0F94B334C81BD4
:10239000D90B90914A1F919F700111248F2D0F949A
:1023A000B334C81BD90B8E2D0F94B334C81BD90B73
:1023B00083E60F94B334C81BD90B83E60F94B33470
:1023C000C81BD90B83E60F94B334C81BD90B83E623
:1023D0000F94B334C81BD90BB091441FB19F700147
:1023E00011248F2D0F94B334C81BD90B8E2D0F944D
:1023F000B334C81BD90BE091451FE19F7001112434
:102400008F2D0F94B334C81BD90B8E2D0F94B3347A
:10241000C81BD90B40915B1F50915C1F7A01EE0CD9
:10242000FF1CEE0CFF1CE40EF51EEE0CFF1C8F2DA6
:102430000F94B334C81BD90B8E2D0F94B334C81B23
:10244000D90B83E60F94B334C81BD90B83E60F94E2
:10245000B334C81BD90BE090D01FF090D11FC70137
:10246000880F991F880F991F8E0D9F1D880F0F943D
:10247000B334C81BD90B83E60F94B334C81BD90BF4
:1024800083E60F94B334C81BD90B83E60F94B3349F
:10249000C81BD90BF091601FF102700111248F2D20
:1024A0000F94B334C81BD90B8E2D0F94B334C81BB3
:1024B000D90B0091611F010280011124812F0F941B
:1024C000B334C81BD90B802F0F94B334C81BD90B5E
:1024D0001C161D060CF057C010E000E0DE01A770CE
:1024E000BB27109799F1A130B10541F1A230B10598
:1024F00001F1A330B105C1F0A430B10581F0A530E0
:10250000B10541F0169709F045C083E60F94B33446
:102510000F5F1F4F83E60F94B3340F5F1F4F83E6A7
:102520000F94B3340F5F1F4F83E60F94B3340F5FE4
:102530001F4F83E60F94B3340F5F1F4F83E60F9452
:10254000B3340F5F1F4FC017D107E9F083E60F9434
:10255000B33483E60F94B33483E60F94B33483E645
:102560000F94B33483E60F94B33483E60F94B334FB
:1025700083E60F94B33483E60F94B334085F1F4FA0
:10258000C017D10719F7DF91CF911F910F91FF90DD
:10259000EF90089583E60F94B33401E010E0B5CFD7
:1025A0000F931F9320917B1F26FD43C00091DC1FDA
:1025B000002309F441C041113CC0E091310DF0917C
:1025C000320DEE0FFF1FEE0FFF1FEA5CF54F608329
:1025D0007183828393830091310D1091320D0F37F7
:1025E000110509F4A1C08091310D9091320D019631
:1025F0009093320D8093310D6091310D7091320DB9
:10260000F091F1034091310D5091320DF417150600
:1026100019F010F060587F4F1091F103611B7109A0
:102620006F37710508F078C090917B1F9F7B909366
:102630007B1F1F910F9108958091DD1F8823C9F39F
:10264000E091310DF091320DE25AFC4F1082E09191
:102650002605F0912705108190912505192309F091
:1026600051C0E0912305F09124055081609122052D
:10267000562349F0E091310DF091320DE25AFC4FB2
:10268000708172607083442349F0E091310DF091C4
:10269000320DE25AFC4F408144604083A0912D1FCF
:1026A000AA2349F0E091310DF091320DE25AFC4F2E
:1026B000B081B860B0830F940E4220915A033091DC
:1026C0005B0340915C0350915D03E091310DF0910B
:1026D000320D621B730B840B950BEE0FFF1FEE0F79
:1026E000FF1FEA5CF54F60837183828393830F94AD
:1026F0000E4260935A0370935B0380935C03909344
:102700005D0369CFE091310DF091320DE25AFC4F3B
:10271000308131603083A5CF30917B1F306430939E
:102720007B1F1F910F9108951092320D1092310D61
:1027300063CF1092E00381E08093E003209138059D
:102740002330E1F0223081F0213029F4E09134058A
:10275000F091350519956091DD1F662321F0709188
:10276000E003711115C00895E0912305F09124054F
:10277000308190912205392349F3EDCFE091230573
:10278000F09124054081509122054523F9F6E3CFCD
:102790006091E5037091E6038091E7039091E8036F
:1027A00041E00C94D0121092E003809139058330FF
:1027B00099F18230A1F08130D9F4E0913605F091A1
:1027C000370519957091DC1F772321F0A091E00364
:1027D000A11117C0B091DD1FB11113C00895E09190
:1027E0002605F0912705208190912505292329F3BD
:1027F0005091DC1F552371F36091E003662351F380
:1028000008956091E1037091E2038091E303909158
:10281000E40340E00C94D012E0912605F0912705E6
:10282000308140912505342341F6E2CF833023E007
:10283000920709F4C9C258F1813123E0920709F4E3
:1028400017C308F060C08A3023E0920709F41CC364
:1028500008F0F9C0863023E0920709F4B9C308F400
:1028600031C2883023E0920709F475C108F437C3F8
:102870005091A21F51FF06C060911B0774E06727AB
:1028800060931B07A0911B07A2FFDDC108958C3048
:1028900022E0920709F4A8C2D8F4853022E092071A
:1028A00009F4B2C208F0E3C0813022E0920709F4D3
:1028B0003BC208F41CC2833022E0920709F43BC1FA
:1028C00008F49CC35091A21F51FFE0CF0C949FEEDF
:1028D000833122E0920709F4DDC208F47CC087311D
:1028E00022E0920709F423C308F0FFC0853122E0FB
:1028F000920709F43CC108F426C37091A21F71FF2E
:10290000C5CF0C9407EC883123E0920709F488C204
:1029100008F47FC0833029E9920709F490C208F0D7
:10292000C0C0813029E9920709F431C108F027C3FA
:102930008115994909F09DC38091060A9091070A73
:10294000A091080AB091090A892B8A2B8B2B09F4D4
:102950009DCF2091020A3091030A4091040A5091C0
:10296000050A232B242B252B09F490CF4091060A2E
:102970005091070A6091080A7091090A8091020A31
:102980009091030AA091040AB091050A8417950753
:10299000A607B70708F07ACF2091060A3091070AF8
:1029A0004091080A5091090A6091020A7091030A45
:1029B0008091040A9091050A261B370B480B590B8E
:1029C00060E077E883E993E00F94C9783093AE0D27
:1029D0002093AD0DF4C08F3022E0920709F4E4C1DA
:1029E00008F442C1813122E0920709F401C108F4E0
:1029F00070C27091A21F71FF06C0A0911C0790E2E7
:102A0000A927A0931C07B0911C07B5FD3FCF0C94DC
:102A1000F5F4843123E0920709F4BAC108F415C132
:102A2000863123E0920709F480C008F470C2309127
:102A3000A21F31FF2BCF0E941BDD40911B074F7758
:102A400040931B0708958D3023E0920709F49AC143
:102A500008F41FC18F3023E0920709F4B9C008F4CD
:102A6000D9C29091A21F91FF11CF0C9424E288301B
:102A700022E0920709F45EC108F448C18A3022E0DE
:102A8000920709F44CC008F46AC29091A21F91FF0A
:102A9000FDCE0E9457F5A0911C07A77FA0931C07AD
:102AA0000895853029E9920709F4AEC008F4F8C109
:102AB0008630994909F0DAC22091E81F3091E91F68
:102AC0002115310509F4E2CEA0E1B7E20F941479A3
:102AD00020912E1F30912F1F50E040E00F94C978B5
:102AE0003093BB0D2093BA0D6AC0813023E092076A
:102AF00009F4A3C008F0F9C18831924009F0B3C2CB
:102B0000F091A21FF1FF05C080911C0780588093AF
:102B10001C0720911C0727FDB9CE0C9494F4B091AA
:102B2000A21FB1FFB3CE0C9436EC5091A21F51FFFF
:102B3000ADCE0C9408DE6091A21F61FF06C07091BB
:102B40001C0791E0792770931C07A0911C07A0FD3A
:102B50009DCE0C94F9F5B091A21FB1FF97CE0E94C3
:102B600061DFE0911B07EB7FE0931B070895A091C5
:102B7000A21FA1FF06C0B0911C0790E4B927B09333
:102B80001C07E0911C07E6FD81CE0C94C4F4209153
:102B9000E81F3091E91F2115310509F477CEA0E136
:102BA000B7E20F94147920912E1F30912F1F50E01F
:102BB00040E00F94C9783093B10D2093B00D81E0BF
:102BC0000F943502A091CA1FA860A093CA1F089550
:102BD000F091A21FF1FF06C080911B0720E1822720
:102BE00080931B0730911B0734FD50CE0C9444E3B7
:102BF000E091A21FE1FF4ACE0E94F5F4F0911C077C
:102C0000FF7DF0931C0708952091E81F3091E91F84
:102C10002115310509F43ACEA0E1B7E20F941479F9
:102C200020912E1F30912F1F50E040E00F94C97863
:102C30003093B90D2093B80DC2CF5091A21F51FF10
:102C400025CE0C9480E40C9461DF823123E092075E
:102C500009F4AEC18331934009F00CC26091A21F08
:102C600061FF14CE0C9415E08D3022E0920709F438
:102C700048C18E30924009F0F7C13091A21F31FF58
:102C800005CE0E9426F540911C074F7E40931C07FD
:102C900008958B3023E0920709F468C08C3093408C
:102CA00009F0E5C13091A21F31FF06C040911B071A
:102CB00058E0452740931B0760911B0763FDE6CD55
:102CC0000C9455DD843023E0920709F491C18530DE
:102CD000934009F0CDC18091A21F81FFD7CD0E9402
:102CE00070E120911B072D7F20931B07089581150C
:102CF00021E0920709F49AC18130914009F0B2C1F4
:102D00008091A21F82608093A21F0895863022E0E6
:102D10009207E1F08730924009F0A7C1E091A21F2D
:102D2000E1FFB4CD0C946AEDB091A21FB1FFAECD1E
:102D30000C94D4EFE091A21FE1FFA8CD0E948DF585
:102D4000F0911C07FB7FF0931C070895F091A21FE0
:102D5000F1FF06C080911C0722E0822780931C07A8
:102D600030911C0731FD92CD0C94C3F57091A21FD8
:102D700071FF8CCD0E9455DDA0911B07A77FA0930A
:102D80001B0708954091A21F41FF80CD0C9433E4AE
:102D90006091A21F61FF7ACD0E9426DF70911B0710
:102DA0007F7B70931B0708958091A21F81FF06C04F
:102DB00020911C0730E1232720931C0740911C071A
:102DC00044FD64CD0C9426F55091A21F51FF06C01E
:102DD00070911B0721E0722770931B0740911B071E
:102DE00040FD54CD0C947FE3B091A21FB1FF06C00B
:102DF000E0911C0798E0E927E0931C07F0911C077D
:102E0000F3FD44CD0C9457F58091A21F81FF3ECD78
:102E10000E94C3F520911C072D7F20931C07089565
:102E2000B091A21FB1FF05C0E0911B07E058E093ED
:102E30001B0790911B0797FD29CD0C941BDD20915A
:102E4000E81F3091E91F2115310509F41FCDA0E1DC
:102E5000B7E20F94147920912E1F30912F1F50E06C
:102E600040E00F94C9783093B50D2093B40DA7CEF0
:102E7000F091A21FF1FF0ACD0E9435E130911B07AE
:102E80003F7D30931B0708955091A21F51FFFECC48
:102E90000C9454DEA091A21FA1FFF8CC0C943AED43
:102EA0002091E81F3091E91F2115310509F4EECC7E
:102EB000A0E1B7E20F94147920912E1F30912F1FBB
:102EC00050E040E00F94C9783093B70D2093B60DD1
:102ED00076CE6091A21F61FFD9CC0C946FEE409129
:102EE000A21F41FFD3CC0C9462E03091A21F31FFAE
:102EF000CDCC0E947FE340911B074E7F40931B0780
:102F000008955091A21F51FFC1CC0C94A4EF909151
:102F1000A21F91FF06C0F0911B0780E4F827F093F1
:102F20001B0720911B0726FDB1CC0C9426DF609176
:102F3000A21F61FFABCC0E9494F470911C077F77B5
:102F400070931C0708955091A21F51FF9FCC0E94BF
:102F5000C4F460911C076F7B60931C070895409137
:102F6000A21F41FF06C050911C0764E056275093F2
:102F70001C0770911C0772FD89CC0C948DF5209173
:102F8000E81F3091E91F2115310509F47FCCA0E13C
:102F9000B7E20F94147920912E1F30912F1F50E02B
:102FA00040E00F94C9783093B30D2093B20D07CE53
:102FB0007091A21F71FF06C0A0911B07B0E2AB2762
:102FC000A0931B07E0911B07E5FD60CC0C9435E155
:102FD0009091A21F91FF06C0F0911B0782E0F82795
:102FE000F0931B0720911B0721FD50CC0C9470E13E
:102FF0003091A21F31FF4ACC0C9471E23091A21F94
:1030000031FF44CC0E94F9F540911C074E7F40935C
:103010001C070895B091A21FB1FF38CC0E9444E371
:10302000E0911B07EF7EE0931B0708952091A21FFC
:103030002D7F2093A21F0E947FE30E9470E10E94D7
:1030400061DF0E9455DD0E9444E30E94F9F50E9471
:10305000C3F50E948DF50E9457F510921C0710923F
:103060001B070895089508950895089508950895F3
:10307000089508950895982FAB018F3010F00F94A4
:103080005679E82FF0E08827E75BF74E8F4F0D94D5
:103090003F797118731879188E18A318AA185E183A
:1030A000B718C318CF18D618E1180C195818641897
:1030B0006038710538F481EF98E07EC060387105A2
:1030C00008F4EEC080E008956F3F710509F008F440
:1030D000EAC06031E1E07E0708F04FC1EBE5F6E0C1
:1030E000A6C0892F08956038710560F786E49DE0D9
:1030F00063C06F3F710509F008F4E2C0ECE0FAE04C
:10310000603121E0720708F492C0603281E07807F4
:10311000C8F68FE1861BACE0BAE067C06F3F71056F
:1031200009F008F4FEC0EEE1FAE06031A1E07A07B0
:1031300008F47DC06032B1E07B0720F68FE1861B8A
:10314000AEE1BAE052C06038710508F0BBCF84EB45
:103150009DE132C06F3F710509F008F4EFC06031A6
:10316000E1E07E0708F0F7C0E7ECF6E060C060340D
:10317000710508F488C06834710508F010C1405426
:10318000ECE8F9E054C06432710508F4B3C06A3267
:10319000710508F0FCC04452E5EEFCE048C0603C1C
:1031A000710508F08FCF8CEE9DE006C0603C710584
:1031B00008F088CF8DE69EE1480F591FFA01808103
:1031C00008956F3F710509F008F441C0EDE6F6E09F
:1031D0006031A1E07A0758F16032B1E07B0708F076
:1031E00071CF8FE1861BADE6B6E090E0880F991FA6
:1031F0001696ED91FC911797E80FF91F8081918148
:10320000F9E0AC38BF07E1F2AF5CB840C9F297FD16
:1032100001969595879508956034710508F45DC011
:103220006834710508F0A1C04054EBEAF9E050E0C1
:10323000440F551F84819581480F591FFA018081E1
:10324000918164E670E00F948278862F0895E62FCE
:10325000EF70529542954F7045275F7045272FE0DC
:10326000241BADE6B6E030E0220F331F12968D919D
:103270009C91280F391FD9018D919C91E80FF92F4E
:10328000F11D80810895E62FE77056954795569574
:1032900047955695479527E0241BACE8B9E0E3CF66
:1032A00087E290E289CFE62FEF70529542954F70FA
:1032B00045275F7045272FE0241BABE5B6E0D3CF51
:1032C000E62FEF70529542954F7045275F70452766
:1032D0002FE0241BACE0BAE0C6CFE62FE77056958E
:1032E0004795569547955695479527E0241BABEA99
:1032F000B9E0B9CF9B01ABEABAEA0F94147996957D
:103300008795969587959C01220F331F280F391FAB
:10331000220F331FE42FE21B25E0281BA5EEBCE0A3
:10332000A2CFE62FEF70529542954F7045275F7000
:1033300045272FE0241BAEE1BAE095CFE62FEF70D2
:10334000529542954F7045275F7045272FE0241B0B
:10335000A7ECB6E088CF6032F1E07F0708F0B2CE8C
:103360008FE1861BA7ECB6E040CF6035710540F5D4
:103370008FE4861BABEAB9E038CF6032F1E07F071B
:1033800008F0A0CE8FE1861BABE5B6E02ECF603310
:10339000710540F58FE2861BA5EEBCE026CF6035B7
:1033A000710578F58FE4861B90E0880F991F409196
:1033B000920950919309840F951FDC018C91089517
:1033C0006039710580F5E62FE77040555109569533
:1033D0004795569547955695479527E0241BABEBA7
:1033E000B8E041CF6435710528F5CB01C09766E0A0
:1033F00070E00F948278E82F25E0261BA3EDBCE057
:1034000032CF60397105E8F4E62FE7704055510975
:1034100056954795569547955695479527E0241B11
:10342000AFECB8E020CF6839710590F44059EBEB70
:10343000F8E0FDCE6A35710598F44455E3EDFCE003
:10344000F6CE68397105A0F44059EFECF8E0EFCE04
:10345000603A710590F58FE9861BABEBB8E0C5CEFD
:1034600060367105D8F58FE5861BA3EDBCE0BDCEB7
:10347000603A7105A0F0603E710508F046C0E62F85
:10348000E770CB01805A9109969587959695879517
:103490009695879527E0281BA1E1BDE0E4CE8FE952
:1034A000861B90E0880F991F2091D5083091D6088F
:1034B000820F931FFC0180810895603B710588F5A0
:1034C000E62FE370CB01805A9109969587959695E2
:1034D000879523E0281BADE9BCE0C5CE64387105B3
:1034E00038F06A38710540F54458E1ECFCE09FCEB5
:1034F000CB018056910966E070E00F94B578E82F13
:1035000025E0261BA1ECBCE0AECE683E710580F044
:10351000603F710508F0D6CD8FEE861BA1E1BDE0BE
:1035200064CE643B710580F4405BEDE9FCE07FCE46
:10353000405EE1E1FDE07BCE6039710570F48FE81B
:10354000861BA1ECBCE051CE683B710508F0BACDFA
:1035500087EB861BADE9BCE048CE643B710568F49F
:10356000CB018059910966E070E00F94B578E82F9F
:1035700025E0261BAFEABCE076CE6A3B710520F45D
:10358000445BEFEAFCE053CE603C710528F48FEB1E
:10359000861BAFEABCE029CE643E710568F4CB011E
:1035A000805C910966E070E00F94B578E82F25E023
:1035B000261BA5EBB6E057CE6A3E710520F4445EAB
:1035C000E5EBF6E034CE603F710528F48FEE861B04
:1035D000A5EBB6E00ACE6431F1E07F0768F4CB01D9
:1035E000805F910966E070E00F94B578E82F25E0E0
:1035F000261BA3EAB6E037CE6A3121E0720720F439
:103600004451E3EAF6E013CE603281E0780728F413
:103610008FE1861BA3EAB6E0E8CD6434A1E07A0727
:1036200068F4CB018052914066E070E00F94B57869
:10363000E82F25E0261BA1E9B6E015CE6A34B1E0FB
:103640007B0720F44454E1E9F6E0F1CD6035E1E098
:103650007E0728F48FE4861BA1E9B6E0C6CD643767
:10366000F1E07F0768F4CB018055914066E070E09F
:103670000F94B578E82F25E0261BAFE7B6E0F3CD31
:103680006A3721E0720720F44457EFE7F6E0CFCD28
:10369000603881E0780708F015CD8FE7861BAFE72B
:1036A000B6E0A3CDCF93DF93EB018F3010F00F94F2
:1036B0005679E82FF0E08827EF59F44E8F4F0D949C
:1036C0003F79781B961B9C1BB11BC71BCE1BE41BB1
:1036D000EB1BF71B031C701B0A1C391C7B1B811B7B
:1036E000603C710528F48DE69EE1C80FD91F488320
:1036F000DF91CF91089560387105D0F781EF98E0A0
:10370000F4CF6F3F710509F008F4F6C0EBE5F6E081
:10371000603181E0780708F4B7C0603291E0790742
:1037200038F78FE1861BEBE5F6E088C0603871055D
:10373000F8F686E49DE0D9CF6F3F710509F008F4F3
:10374000E8C0ECE0FAE0603191E0790708F49CC051
:103750006032A1E07A0760F68FE1861BECE0FAE0C8
:103760006DC06F3F710509F008F411C1EEE1FAE098
:10377000603191E0790708F487C06032A1E07A07F0
:1037800008F0B6CF8FE1861BEEE1FAE057C0603853
:10379000710508F0ADCF84EB9DE1A7CF6F3F7105B8
:1037A00009F008F4E7C0E7ECF6E0603191E0790752
:1037B00008F46AC06032A1E07A0708F099CF8FE17F
:1037C000861BE7ECF6E03AC06038710508F090CF50
:1037D00087E290E28ACF6034710508F480C06834D3
:1037E000710508F0E1C0C054ECE8F9E04DC0643266
:1037F000710508F4A8C06A32710508F0E8C0C45227
:10380000E5EEFCE041C0603C710508F071CF8CEE44
:103810009DE06BCF6F3F710509F008F444C0EDE601
:10382000F6E0603181E0780778F1603291E0790765
:1038300008F05ECF8FE1861BEDE6F6E0042E000C6B
:10384000550B99E0EC38F90731F0A8E0EF3CFA07A6
:1038500011F0440F551F90E0880F991F2681378182
:10386000820F931FEC0159834883118ADF91CF9116
:1038700008956034710508F459C06834710508F082
:103880009EC0C054EBEAF9E0D0E0CC0FDD1F84818C
:103890009581C80FD91F84E64802A00111245983DD
:1038A0004883118AE3CFA62FAF70D295C295CF700F
:1038B000CD27DF70CD272FE02C1BEDE6F6E030E0C2
:1038C000220F331F82819381280F391FE9018881DC
:1038D0009981A80FB92FB11D4C93118AC7CFA62F7C
:1038E000A770D695C795D695C795D695C79527E065
:1038F0002C1BECE8F9E0E3CFA62FAF70D295C29570
:10390000CF70CD27DF70CD272FE02C1BEBE5F6E045
:10391000D6CFA62FAF70D295C295CF70CD27DF70CE
:10392000CD272FE02C1BECE0FAE0C9CFA62FA77023
:10393000D695C795D695C795D695C79527E02C1BE4
:10394000EBEAF9E0BCCF9B01ABEABAEA0F94147939
:1039500096958795969587959C01220F331F280F82
:10396000391F220F331FAC2FA21B25E0281BE5EEC9
:10397000FCE0A5CFA62FAF70D295C295CF70CD2712
:10398000DF70CD272FE02C1BE7ECF6E098CFA62FB9
:10399000AF70D295C295CF70CD27DF70CD272FE0C5
:1039A0002C1BEEE1FAE08BCF60357105C0F48FE49B
:1039B000861B042E000C550BECE8F9E04CCF60356B
:1039C0007105F8F48FE4861BEBEAF9E037CF60333A
:1039D000710548F58FE2861BE5EEFCE02FCF6039DC
:1039E000710580F5A62FA770C055D109D695C7954A
:1039F000D695C795D695C79527E02C1BEFECF8E038
:103A00005ECF6039710528F5A62FA770C055D10982
:103A1000D695C795D695C795D695C79527E02C1B03
:103A2000EBEBF8E04CCF64357105D0F4CB01C097D7
:103A300066E070E00F948278A82F25E0261BE3ED66
:103A4000FCE03DCF6839710590F4C059EFECF8E027
:103A50001BCF6839710510F5C059EBEBF8E014CFB6
:103A60006A35710518F5C455E3EDFCE00DCF603AF9
:103A7000710520F1603E710508F050C0A62FA770B7
:103A8000CB01805A9109969587959695879596953D
:103A9000879527E0281BE1E1FDE011CF603A710531
:103AA000A8F48FE9861BEBEBF8E0C8CE6036710511
:103AB000F0F48FE5861BE3EDFCE0C0CE8FE9861BBA
:103AC000042E000C550BEFECF8E0C5CE603B710501
:103AD00088F5A62FA370CB01805A910996958795FA
:103AE0009695879523E0281BEDE9FCE0E8CE643845
:103AF000710538F06A38710540F5C458E1ECFCE016
:103B0000C3CECB018056910966E070E00F94B57882
:103B1000A82F25E0261BE1ECFCE0D1CE683E710524
:103B200080F0603F710508F0E3CD8FEE861BE1E188
:103B3000FDE084CE643B710580F4C05BEDE9FCE000
:103B4000A3CEC05EE1E1FDE09FCE6039710570F467
:103B50008FE8861BE1ECFCE071CE683B710508F054
:103B6000C7CD87EB861BEDE9FCE068CE643B7105B1
:103B700068F4CB018059910966E070E00F94B57844
:103B8000A82F25E0261BEFEAFCE099CE6A3B7105E1
:103B900020F4C45BEFEAFCE077CE603C710528F4CA
:103BA0008FEB861BEFEAFCE049CE643E710568F4BA
:103BB000CB01805C910966E070E00F94B578A82F86
:103BC00025E0261BE5EBF6E07ACE6A3E710520F48F
:103BD000C45EE5EBF6E058CE603F710528F48FEE49
:103BE000861BE5EBF6E02ACE6431A1E07A0768F4A3
:103BF000CB01805F910966E070E00F94B578A82F43
:103C000025E0261BE3EAF6E05ACE6A31B1E07B07F5
:103C100020F4C451E3EAF6E037CE603281E0780761
:103C200028F48FE1861BE3EAF6E008CE6434A1E0D5
:103C30007A0768F4CB018052914066E070E00F94FF
:103C4000B578A82F25E0261BE1E9F6E038CE6A34E6
:103C5000B1E07B0720F4C454E1E9F6E015CE60350D
:103C600081E0780728F48FE4861BE1E9F6E0E6CDF1
:103C70006437A1E07A0768F4CB018055914066E093
:103C800070E00F94B578A82F25E0261BEFE7F6E04B
:103C900016CE6A37B1E07B0720F4C457EFE7F6E0B1
:103CA000F3CD603881E0780708F022CD8FE7861BDE
:103CB000EFE7F6E0C3CDCF93DF93EC016F3010F068
:103CC0000F945679E62FF0E08827E659F14E8F4F92
:103CD0000D943F79A61EB21EC21EDE1EFB1E0B1FD8
:103CE000361F521F911F152025203E205B20791E74
:103CF000891E4038510508F002C321EF38E03983AE
:103D000028831A821B8243E050E05D834C833DE0B0
:103D1000BCC04F3F510509F008F47BC2403121E09F
:103D2000520708F44EC3403281E0580708F0A9C397
:103D30008BE596E0998388831A82BFE1B41BBB832D
:103D4000E2E0F0E0FD83EC838EE081C0E2E2F2E0AD
:103D5000DE015DE001900D925A95E1F7CE01DF9111
:103D6000CF9108954038510508F0D2C266E47DE055
:103D7000798368831A821B82A3E0B0E0BD83AC83A1
:103D800031E083C04F3F510509F008F456C240317D
:103D900021E0520708F421C3403281E0580708F0BF
:103DA00079C32CE03AE0398328831A827FE1741BBF
:103DB0007B8382E090E09D838C8349C04F3F510517
:103DC00009F008F4D5C1403121E0520708F4E1C2FE
:103DD000403281E0580708F066C38EE19AE099838B
:103DE00088831A829FE1941B9B83E2E0F0E0FD83CD
:103DF000EC8383E02CC04038510508F077C244EBD7
:103E00005DE1598348831A821B8223E030E03D83C1
:103E10002C8334E03AC04F3F510509F008F4BCC18F
:103E2000403121E0520708F4C0C2403281E0580717
:103E300008F042C387EC96E0998388831A82BFE139
:103E4000B41BBB83E2E0F0E0FD83EC8385E08E836E
:103E500018861F8280E291E09A878987E1E0F0E08E
:103E6000FC87EB87CE01DF91CF9108954038510553
:103E700008F021C2A7E2B0E2B983A8831A821B82AC
:103E800023E030E03D832C8336E03E8318861F829A
:103E900020E830E03A8729871C861B86CE01DF9117
:103EA000CF9108954034510508F48AC14834510532
:103EB00008F44DC24035510508F4CCC240395105D3
:103EC00008F441C34839510508F469C3403A510523
:103ED00008F496C3403E510508F4C1C3483E51055D
:103EE00008F41BC4403F510508F045C4A1E1BDE002
:103EF000B983A8831A82FFEEF41BFB8342E050E0F3
:103F00005D834C8377E07E8340EA50E058874F839F
:103F100020E530E03A87298781E090E09C878B8715
:103F20001DCF4432510508F49CC14A32510508F4B2
:103F300060C24033510508F472C24435510508F49B
:103F4000C4C24A35510508F437C34036510508F458
:103F500065C34438510508F49AC34A38510508F43A
:103F6000C4C34039510508F4F9C3443B510508F472
:103F700023C44A3B510508F407C4403C510508F4EA
:103F8000CEC4443E510508F4B4C44A3E510508F479
:103F900016C5403F510508F401C5443181E058077A
:103FA00008F4E6C44A3121E0520708F4C9C440329B
:103FB00081E0580708F45EC4443421E0520708F455
:103FC00043C44A3481E0580708F426C4403521E050
:103FD000520708F410C4443781E0580708F473C44A
:103FE0004A3721E0520708F456C4403881E05807A8
:103FF00008F0F8C3EFE7F6E0F983E8831A82BFE739
:10400000B41BBB8342E050E05D834C83F8E0FE8349
:1040100080E591E098878F8340E350E05A87498795
:1040200061E070E07C876B8799CE403C510508F0D9
:1040300054C12CEE3DE0398328831A821B8263E051
:1040400070E07D836C8379E00FC0403C510508F03F
:104050003BC14DE65EE1598348831A821B8283E0AF
:1040600090E09D838C837AE07E8318861F82A0EC8B
:10407000B0E0BA87A9871C861B8670CE4F3F5105DA
:1040800009F008F4B2C0403121E0520708F46CC1D5
:10409000403281E0580708F0EBC12DE636E0398365
:1040A00028831A82BFE1B41BBB8362E070E07D838A
:1040B0006C838BE0CCCE40345105D8F148345105A7
:1040C00008F42FC14035510508F4B6C140395105F7
:1040D00008F418C24839510508F44BC2403A51055A
:1040E00008F480C2403B510508F4A5C2443B510589
:1040F00008F4E3C2483B510508F027C36DE97CE0B2
:10410000798368831A8277EB741B7B83A2E0B0E02B
:10411000BD83AC833CE03E83A0EAB0E0B887AF83C8
:10412000E8E1F0E0FA87E98781E090E09C878B87FF
:1041300015CEABEAB9E0B983A883942F97709A8320
:10414000569547955695479556954795E7E0E41B54
:10415000EB831D821C825CE05E8318861F8240E533
:1041600050E05A87498761E070E07C876B87F6CD25
:10417000AEE1BAE0B983A883B42FBF70BA83529579
:1041800042954F7045275F704527FFE0F41BFB8386
:104190001D821C8283E05BCEA7ECB6E0B983A883C6
:1041A000F42FFF70FA83529542954F7045275F7048
:1041B00045275FE0541B5B831D821C8285E047CE50
:1041C000ECE8F9E0F983E883F42FF770FA83569569
:1041D0004795569547955695479557E0752F741B0B
:1041E0007B831D821C825E83B8CFEDE6F6E0F98307
:1041F000E883F42FFF70FA83529542954F7045275C
:104200005F7045273FE0341B3B831D821C828BE09F
:104210001ECE2BE536E039832883342F3F703A8356
:10422000529542954F7045275F7045279FE0941B3C
:104230009B831D821C828EE00ACEECE0FAE0F983BB
:10424000E883342F3F703A83529542954F7045274B
:104250005F7045279FE0941B9B831D821C8282E038
:10426000F6CD25EE3CE0398328839A01ABEABAEA21
:104270000F941479BC017695679576956795CB0177
:10428000880F991F860F971F880F991F481B590B7E
:104290004A8335E0361B3B831D821C82B8E0BE8317
:1042A00018861F82E0E3F0E0FA87E98761E070E0BA
:1042B0007C876B8753CDEFE2F2E0DE013DE00190B9
:1042C0000D923A95E1F74ACDECE3F2E0DE015DE0D4
:1042D00001900D925A95E1F741CDE9E4F2E0DE015B
:1042E0009DE001900D929A95E1F738CDE6E5F2E078
:1042F000DE017DE001900D927A95E1F72FCDE3E6A6
:10430000F2E0DE018DE001900D928A95E1F726CD75
:10431000E0E7F2E0DE014DE001900D924A95E1F711
:104320001DCD6BEA79E07983688340544A831B8210
:1043300041E050E05D834C837CE07E8318861F82E1
:1043400080E590E09A8789875C874B8707CD2CE8CA
:1043500039E03983288340544A831B8241E050E08E
:104360005D834C8377E0E9CFADE6B6E0B983A883FF
:104370004A831B8241E050E05D834C83FBE0FE8377
:1043800018861F82A0E2B1E0BA87A9875C874B87B5
:10439000E5CC6EE17AE0798368834A831B8241E051
:1043A00050E05D834C83F3E0EACF67EC76E07983FD
:1043B00068834A831B8241E050E05D834C83F5E0D3
:1043C000DECF6BE576E0798368834A831B8241E028
:1043D00050E05D834C83FEE0D2CF8CE09AE099837D
:1043E00088834A831B8241E050E05D834C83F2E086
:1043F000C6CF65EE7CE07983688344524A831B8292
:1044000041E050E05D834C8398E09E8318861F82D4
:10441000A0E3B0E0BA87A9875C874B879FCCE5EE25
:10442000FCE0F983E8831A827FE2741B7B8382E0DD
:1044300090E09D838C8332CF8BEA99E099838883C7
:104440001A823FE4341B3B8322E030E03D832C831F
:104450005CE082CE6CE879E0798368831A82BFE4FD
:10446000B41BBB83A2E0B0E0BD83AC8357E074CE45
:10447000EDE7F2E0DE018DE001900D928A95E1F723
:104480006DCCEAE8F2E0DE017DE001900D927A95D4
:10449000E1F764CCE7E9F2E0DE015DE001900D9226
:1044A0005A95E1F75BCCE4EAF2E0DE013DE00190F1
:1044B0000D923A95E1F752CCE1EBF2E0DE019DE09E
:1044C00001900D929A95E1F749CC63ED7CE07983F8
:1044D0006883CA01C09766E070E00F9482788A838F
:1044E000F5E0F61BFB831D821C8258E05E83A0E38F
:1044F000B0E0B887AF83BA87A98721E030E03C8776
:104500002B872CCCEBEBF8E0F983E883B42FB77062
:10451000BA834055510956954795569547955695F6
:104520004795F7E0F41BFB831D821C827CE07E83B1
:1045300080E590E098878F839A878987E1E0F0E0B3
:10454000FC87EB870BCC2FEC38E039832883342FA2
:1045500037703A834055510956954795569547957A
:104560005695479577E0972F941B9B831D821C825D
:10457000DECF6BEB78E07983688340594A831B82F6
:10458000A1E0B0E0BD83AC839CE09E8340E550E0B9
:1045900058874F835A874987BC87AB87DFCBAFECFF
:1045A000B8E0B983A88340594A831B82A1E0B0E0F8
:1045B000BD83AC8397E0E9CFE3EDFCE0F983E883CA
:1045C00044554A831B8281E090E09D838C83B8E050
:1045D000BE8340E350E058874F835A8749879C87C2
:1045E0008B87BCCB2BEB38E0398328831A825FE9B9
:1045F000541B5B8342E050E05D834C837CE097CFAB
:10460000EFECF8E0F983E8831A827FE9741B7B837F
:1046100062E070E07D836C8377E089CFA3EDBCE03E
:10462000B983A8831A823FE5341B3B8322E030E044
:104630003D832C835ACF6DE97CE079836883942F86
:1046400093709A839A01205A3109369527953695A9
:104650002795F3E0F21BFB831D821C825BCDA1E159
:10466000BDE0B983A883942F97709A83CA01805ABA
:104670009109969587959695879596958795B7E034
:104680005B2F581B5B831D821C82BE833DCC81EC5B
:104690009CE099838883CA018056910966E070E0A6
:1046A0000F94B5788A8375E0761B7B831D821C820C
:1046B00098E09E8380E690E0ADCCEDE9FCE0F983E4
:1046C000E883405B4A831B8281E090E09D838C837A
:1046D000BCE0BE8320EA30E038872F8348E150E019
:1046E0005A8749879C878B8739CB61EC7CE079833B
:1046F000688344584A831B82A1E0B0E0BD83AC8349
:1047000058E05E8320E630E038872F83E0E3F0E076
:10471000FA87E987BC87AB8721CB21E13DE039836C
:104720002883405E4A831B8281E090E09D838C83D6
:1047300037E03E83E0EAF0E0F887EF8360E570E081
:104740007A8769879C878B8709CBEEEBF2E0DE01E5
:104750005DE001900D925A95E1F700CB81EC9CE071
:10476000998388831A82FFE8F41BFB8342E050E0C0
:104770005D834C839DCFEBECF2E0DE015DE00190C8
:104780000D925A95E1F7EACA8FEA9CE099838883F3
:10479000445B4A831B8261E070E07D836C8398E018
:1047A0009E8320E930E038872F83A0E3B0E0BA870A
:1047B000A9877C876B87D2CAEFEAFCE0F983E8839C
:1047C000CA018059910966E070E00F94B5788A8338
:1047D00035E0361B3B831D821C82B8E0BE8380E936
:1047E00090E018CCE8EDF2E0DE013DE001900D92A2
:1047F0003A95E1F7B3CA21E936E0398328831A8272
:104800003FE4341B3B8342E050E05D834C83B8E0DF
:10481000BE8380E291E0FECB61E976E07983688334
:1048200044544A831B82A1E0B0E0BD83AC83F8E02E
:10483000FE83E0E2F1E0F887EF8380E390E09A877F
:104840008987BC87AB878ACA21E936E03983288308
:10485000CA018052914066E070E00F94B5788A8377
:1048600055E0561B5B831D821C8278E07E8380E2CC
:1048700091E0D0CB63EA76E0798368831A829FE186
:10488000941B9B8342E050E05D834C8338E03E8381
:1048900080EF90E0BFCB2FE736E039832883445781
:1048A0004A831B8261E070E07D836C8358E05E8305
:1048B000A0E5B1E0B887AF83E0E3F0E0FA87E987ED
:1048C0007C876B874BCA8FE796E099838883CA0100
:1048D0008055914066E070E00F94B5788A8375E06A
:1048E000761B7B831D821C8298E09E8380E591E08D
:1048F00091CBA5EBB6E0B983A883CA01805C91098E
:1049000066E070E00F94B5788A83B5E0B61BBB8390
:104910001D821C82F8E0FE8380EC90E07BCBEFEA06
:10492000FCE0F983E8831A825FEB541B5B8342E06F
:1049300050E05D834C8378E07E8380E990E06ACB31
:10494000A3EAB6E0B983A88344514A831B82E1E01D
:10495000F0E0FD83EC83B8E0BE8380EF90E09887C1
:104960008F8320E330E03A872987FC87EB87F6C9FD
:1049700063EA76E079836883CA01805F910966E023
:1049800070E00F94B5788A83F5E0F61BFB831D82F7
:104990001C8258E05E8380EF90E03CCBA5EBB6E054
:1049A000B983A8831A827FEE741B7B8342E050E0B8
:1049B0005D834C8398E09E8380EC90E02BCBE5EB0D
:1049C000F6E0F983E883445E4A831B8281E090E04D
:1049D0009D838C8338E03E8320EC30E038872F8342
:1049E00060E370E07A8769879C878B87B7C92F92CD
:1049F0003F924F925F926F927F928F929F92AF926F
:104A0000BF92CF92DF92EF92FF920F931F93CF93BB
:104A1000DF93CDB7DEB7AD970FB6F894DEBF0FBE0C
:104A2000CDBF9BA38AA3DC0116962D913C911797CD
:104A300011968C91119790E081509048880F991FA2
:104A4000E9E0AC38BE0709F49FC6AF5CB84009F492
:104A500096C602E010E019A708A7EAA1FBA102810F
:104A600013811801280E391E025011092016310633
:104A700009F423C4A081B0E0BDA7ACA7F101329630
:104A8000FDA3ECA30296280F391F3FA32EA3C80154
:104A900002969BA78AA754E2252E53E0352E552473
:104AA00053946AE0862E912CA12CB12C11E0ACA17C
:104AB000BDA1FE90EE90BDA3ACA3EEA1FFA192918B
:104AC0008291FFA3EEA368A579A50F948278062FA3
:104AD000E1ECFEE0643608F441C1202F30E050E004
:104AE00040E019A2BE016F5D7F4F6B01CA01B901A1
:104AF000A50194010F94C978605DD6016E936D0194
:104B0000211531054105510589F7109709F43EC07B
:104B1000FD0101900020E9F7AF01FD01415051096D
:104B20004E175F0799F141905092301B7090331BE4
:104B3000D090341BA091281BB091291B7D1409F43F
:104B4000A2C12091331B30E02F5F3F4F2F733327DB
:104B5000922F03C00FB607FE35C18091341B981702
:104B6000C9F3A091331BB0E0AB58B44E4C923FB7A1
:104B7000F8942093331BA0912A1BB0912B1B2C91EE
:104B800020622C933FBF4E175F0769F6E3ECFEE00F
:104B90004491442399F15092301B5091331B409023
:104BA000341BA091281BB091291B541509F4B0C1E6
:104BB0002091331B30E02F5F3F4F2F733327322F6D
:104BC00003C00FB607FE73C18091341B3817C9F3B9
:104BD000A091331BB0E0AB58B44E4C930FB7F89490
:104BE0002093331BA0912A1BB0912B1B2C91206288
:104BF0002C930FBF319644914111CDCFCCA4DDA4AD
:104C0000CE0CDF1CEC14FD0409F41AC3D7012D915E
:104C10007D01E1ECFEE0243608F4A3C130E050E071
:104C200040E019A2CE0181963C01CA01B901A5015B
:104C300094010F94C978605DD3016E933D012115F5
:104C400031054105510589F71097E9F1FD01019002
:104C50000020E9F7AF01415051094A175B0799F16C
:104C60007D901093301B2091331B4090341BE091BA
:104C7000281BF091291B241509F408C22091331B2D
:104C800030E02F5F3F4F2F733327022F03C00FB643
:104C900007FE9BC19091341B0917C9F3E091331BA8
:104CA000F0E0EB58F44E70827FB7F8942093331BFA
:104CB000E0912A1BF0912B1B3081306230837FBF43
:104CC0004A175B0769F6E3ECFEE04491442309F4DC
:104CD00099CF1093301B5091331B7090341BA091CF
:104CE000281BB091291B571509F415C22091331BBD
:104CF00030E02F5F3F4F2F733327322F03C00FB6A3
:104D000007FED8C18091341B3817C9F3A091331B1B
:104D1000B0E0AB58B44E4C936FB6F8942093331B6D
:104D2000A0912A1BB0912B1B6C9160626C936FBE9B
:104D30003196CBCF7C9075FE21C02FB7F894A0910F
:104D40002E1BB0912F1B4C92A091281BB091291BB8
:104D50003C91337030643C932FBF31964490442093
:104D600009F4DFC45092301B9091331B6090341BC8
:104D7000A091281BB091291B9615E1F22091331BBD
:104D800030E02F5F3F4F2F733327C22E03C00FB683
:104D900007FE48C0D090341BCD14C9F3A091331B3B
:104DA000B0E0AB58B44E4C923FB7F8942093331B0D
:104DB000A0912A1BB0912B1B5C9150625C933FBF6A
:104DC0003196CCCF0C9105FFC8CEA091341BB0E03A
:104DD000AB58B44E6C90A091341BB0E01196AF73F9
:104DE000BB27A093341BA0912E1BB0912F1B6C925C
:104DF000A091281BB091291B6C91637060646C9327
:104E0000B091331BC090341BBC1107C0A0912A1B6A
:104E1000B0912B1B7C917F7D7C93A091281BB0913E
:104E2000291B9BCE7C9175FFB5CFA091341BB0E0C0
:104E3000AB58B44E4C916091341B70E06F5F7F4F64
:104E40006F7377276093341BA0912E1BB0912F1B9B
:104E50004C93A091281BB091291B6C9163706064E6
:104E60006C93B091331B8091341BB81307C0A09191
:104E70002A1BB0912B1B9C919F7D9C93A091281B7A
:104E8000B091291B87CF7C9175FF5BCE7FB6F894DC
:104E9000A0912E1BB0912F1B4C92A091281BB0917A
:104EA000291B9C91937090649C937FBE39CE6C902B
:104EB00065FE8ACEA091341BB0E0AB58B44ECC90C6
:104EC0006091341B70E06F5F7F4F6F737727609343
:104ED000341BA0912E1BB0912F1BCC92A091281BAC
:104EE000B091291B6C91637060646C93B091331B1B
:104EF0007091341BB71307C0A0912A1BB0912B1BD4
:104F00009C919F7D9C93A091281BB091291B5CCE06
:104F1000DC90D5FE4DCE7FB6F894A0912E1BB091BB
:104F20002F1B4C93A091281BB091291B4C914370CF
:104F300040644C937FBE31965ECE0C9105FF21C03C
:104F40004FB7F894A0912E1BB0912F1B7C92A0918B
:104F5000281BB091291B9C91937090649C934FBF28
:104F600031967490772009F4EBC01093301B609059
:104F7000331B6091341BA091281BB091291B66162E
:104F8000E1F24091331B50E04F5F5F4F4F73552765
:104F9000942F03C00FB607FE48C07091341B9717BB
:104FA000C9F3A091331BB0E0AB58B44E7C923FB72D
:104FB000F8944093331BA0912A1BB0912B1B8C912A
:104FC00080628C933FBF3196CCCF808185FF62CECB
:104FD000E091341BF0E0EB58F44E6080E091341B1C
:104FE000F0E03196EF73FF27E093341BE0912E1B26
:104FF000F0912F1B6082E091281BF091291B6081AA
:10500000637060646083F091331B4090341BF41133
:1050100007C0E0912A1BF0912B1B90819F7D90830C
:10502000E091281BF091291B35CE5C9155FFB5CF3F
:10503000A091341BB0E0AB58B44E4C906091341B3F
:1050400070E06F5F7F4F6F7377276093341BA09181
:105050002E1BB0912F1B4C92A091281BB091291BA5
:105060006C91637060646C93B091331B6090341BDF
:10507000B61107C0A0912A1BB0912B1B0C910F7D7C
:105080000C93A091281BB091291B87CF608165FFED
:10509000F5CD2FB7F894E0912E1BF0912F1B708265
:1050A000E091281BF091291B0081037000640083AC
:1050B0002FBFD3CD4C9045FE25CEA091341BB0E040
:1050C000AB58B44E9C916091341B70E06F5F7F4F82
:1050D0006F7377276093341BA0912E1BB0912F1B09
:1050E0009C93A091281BB091291B0C910370006424
:1050F0000C93B091331B5091341BB51307C0A09192
:105100002A1BB0912B1B7C917F7D7C93A091281B47
:10511000B091291BF7CD7C9175FFE8CD2FB7F8949E
:10512000A0912E1BB0912F1B4C93A091281BB091E6
:10513000291B4C91437040644C932FBF3196C5CDD1
:10514000EFEBFEE02A3008F069CD7490772009F487
:1051500065CD1093301B7091331B3091341BA0919F
:10516000281BB091291B731709F455C04091331BBC
:1051700050E04F5F5F4F4F735527542F03C00FB65A
:1051800007FE18C04090341B5415C9F3A091331B7F
:10519000B0E0AB58B44E7C926FB7F8944093331B99
:1051A000A0912A1BB0912B1B0C9100620C936FBF36
:1051B0003196CBCF6C9065FEE5CFA091341BB0E06B
:1051C000AB58B44E9C916091341B70E06F5F7F4F81
:1051D0006F7377276093341BA0912E1BB0912F1B08
:1051E0009C93A091281BB091291B7C9173707064D3
:1051F0007C93B091331B3091341BB31307C0A09143
:105200002A1BB0912B1B8C918F7D8C93A091281B16
:10521000B091291BB7CF8C9185FFA8CF4FB7F894D9
:10522000A0912E1BB0912F1B7C92A091281BB091B6
:10523000291B5C91537050645C934FBF319685CFAE
:10524000E2E2F3E0E1905092301BF090331B50917A
:10525000341BA091281BB091291BF51609F4C2C17B
:105260002091331B30E02F5F3F4F2F733327D22E17
:1052700003C00FB607FE55C13091341BD316C9F3D6
:10528000A091331BB0E0AB58B44EEC920FB7F8943A
:105290002093331BA0912A1BB0912B1B8C91806211
:1052A0008C930FBF2E163F0669F6EAA4FBA48CA1CF
:1052B0009DA1E816F90609F0FACB05EC1EE008C03E
:1052C00088E19BE10F94AD210F5F1F4F892B21F0E7
:1052D000F80164916111F4CFAAA1BBA11496ED90DD
:1052E000FC9015976C90712C660C771C6E0C7F1CD3
:1052F000E614F70409F4A8C094E6492E512C11E0F5
:105300002AE0822E912CA12CB12CF7018191919150
:105310007F01B2010F948278062FE1ECFEE0643643
:1053200008F4CBC0202F30E050E040E019A2CE01BD
:1053300081961C01CA01B901A50194010F94C97895
:10534000605DD1016E931D012115310541055105A7
:1053500089F71097E9F1FD0101900020E9F7AF010D
:1053600041505109A417B50799F13D901093301B96
:10537000D090331B7091341BE091281BF091291BB6
:10538000D71609F474C12091331B30E02F5F3F4FD3
:105390002F733327322F03C00FB607FEF3C060917F
:1053A000341B3617C9F3E091331BF0E0EB58F44E91
:1053B00030820FB7F8942093331BE0912A1BF091B1
:1053C0002B1B2081206220830FBFA417B50769F62D
:1053D000E3ECFEE04491442399F11093301B50918B
:1053E000331B3090341BA091281BB091291B5315FF
:1053F00009F482C12091331B30E02F5F3F4F2F73A0
:105400003327022F03C00FB607FE45C1C090341BDF
:105410000C15C9F3A091331BB0E0AB58B44E4C93BC
:105420007FB7F8942093331BA0912A1BB0912B1BBC
:105430002C9120622C937FBF319644914111CDCFA6
:105440006E147F0409F061CF6DE088E19BE10F9459
:10545000AD21892B09F49DC16AE088E19BE1AD96FD
:105460000FB6F894DEBF0FBECDBFDF91CF911F9175
:105470000F91FF90EF90DF90CF90BF90AF909F90F3
:105480008F907F906F905F904F903F902F900D94F2
:10549000AD213C9135FF21C02FB7F894A0912E1B70
:1054A000B0912F1B3C92A091281BB091291B6C91AD
:1054B000637060646C932FBF31963490332009F48D
:1054C00047C11093301B5091331BD090341BA091D7
:1054D000281BB091291B5D15E1F22091331B30E0B0
:1054E0002F5F3F4F2F733327C22E03C00FB607FE27
:1054F0008DC06091341BC616C9F3A091331BB0E078
:10550000AB58B44E3C927FB7F8942093331BA091D4
:105510002A1BB0912B1B9C9190629C937FBF31966C
:10552000CCCF6C9065FEA8CEA091341BB0E0AB58F8
:10553000B44ECC906091341B70E06F5F7F4F6F73FF
:1055400077276093341BA0912E1BB0912F1BCC9218
:10555000A091281BB091291B6C91637060646C93BF
:10556000B091331B7091341BB71307C0A0912A1B55
:10557000B0912B1B9C919F7D9C93A091281BB09177
:10558000291B7ACEC080C5FE0ACFE091341BF0E023
:10559000EB58F44E8081E091341BF0E03196EF73CC
:1055A000FF27E093341BE0912E1BF0912F1B80838B
:1055B000E091281BF091291B7081737070647083D7
:1055C000F091331B2090341BF21107C0E0912A1B8D
:1055D000F0912B1B90819F7D9083E091281BF0918F
:1055E000291BDDCE4C9045FE3BCE2FB7F894A09101
:1055F0002E1BB0912F1BEC92A091281BB091291B60
:105600004C91437040644C932FBF4CCE4C9145FF5E
:1056100070CFA091341BB0E0AB58B44E2C90609189
:10562000341B70E06F5F7F4F6F7377276093341B7D
:10563000A0912E1BB0912F1B2C92A091281BB091F2
:10564000291B8C91837080648C93B091331B509193
:10565000341BB51307C0A0912A1BB0912B1B3C91A2
:105660003F7D3C93A091281BB091291B42CF908194
:1056700095FF89CEDFB6F894E0912E1BF0912F1B99
:105680003082E091281BF091291B30813370306407
:105690003083DFBE67CE8C9185FFB8CEA091341BDE
:1056A000B0E0AB58B44E2C906091341B70E06F5F4B
:1056B0007F4F6F7377276093341BA0912E1BB0919F
:1056C0002F1B2C92A091281BB091291B9C919370A9
:1056D00090649C93B091331BD090341BBD1107C0D4
:1056E000A0912A1BB0912B1B3C913F7D3C93A09134
:1056F000281BB091291B8ACE6C9165FF7BCE5FB7CA
:10570000F894A0912E1BB0912F1B4C93A091281BB5
:10571000B091291B4C91437040644C935FBF31960C
:105720008CCE0A3008F0D9C94FEB642E4EE0742EAF
:105730000AC088E19BE10F94AD21FFEF6F1A7F0A49
:10574000892B09F4CAC9F30164916111F2CFC5C96B
:105750000A3008F0E7CD8FEBC82E8EE0D82E0AC0B5
:1057600088E19BE10F94AD21FFEFCF1ADF0A892B6F
:1057700009F4D8CDF60164916111F2CFD3CD41E0A7
:1057800050E059A748A769C961E070E079A768A708
:1057900064C9AD960FB6F894DEBF0FBECDBFDF91E2
:1057A000CF911F910F91FF90EF90DF90CF90BF901E
:1057B000AF909F908F907F906F905F904F903F90B1
:1057C0002F9008956F927F928F929F92AF92BF9287
:1057D000CF92DF92EF92FF921F93CF93DF93CDB7DB
:1057E000DEB7A1970FB6F894DEBF0FBECDBF3B0169
:1057F0008617970709F49BC07C018AE0882E912CBC
:10580000A12CB12C11E0F70121917F0130E050E093
:1058100040E019A2CE0181966C01CA01B901A5012F
:1058200094010F94C978605DF60162936F012115B0
:1058300031054105510589F73097E9F101900020C4
:10584000E9F7AF01F601415051094E175F0799F191
:1058500091911093301B2091331BD090341BA09159
:10586000281BB091291B2D1509F4DDC02091331B95
:1058700030E02F5F3F4F2F733327822F03C00FB6C7
:1058800007FEA0C06091341B8617C9F3A091331B9B
:10589000B0E0AB58B44E9C937FB7F8942093331B81
:1058A000A0912A1BB0912B1B9C9190629C937FBF6F
:1058B0004E175F0769F6EDEBFEE04491442399F142
:1058C0001093301B5091331B9091341BA091281BD7
:1058D000B091291B591709F4EBC02091331B30E01C
:1058E0002F5F3F4F2F733327D22E03C00FB607FE13
:1058F000AEC03091341BD316C9F3A091331BB0E076
:10590000AB58B44E4C936FB7F8942093331BA091CF
:105910002A1BB0912B1B7C9170627C936FBF3196D8
:1059200044914111CDCF6E147F0409F06CCFA2E2F7
:10593000B3E051E07D905093301B8090331B9090EA
:10594000341BE091281BF091291B891409F4F6C03F
:105950002091331B30E02F5F3F4F2F733327B22E40
:1059600003C00FB607FEB9C0F090341BBF14C9F3D3
:10597000E091331BF0E0EB58F44E7082DFB6F89400
:105980002093331BE0912A1BF0912B1B60816062F6
:105990006083DFBEF3E0A432BF0761F6A1960FB6C5
:1059A000F894DEBF0FBECDBFDF91CF911F91FF9066
:1059B000EF90DF90CF90BF90AF909F908F907F90AF
:1059C0006F900895CC90C5FE5DCFA091341BB0E0E0
:1059D000AB58B44EDC906091341B70E06F5F7F4F2A
:1059E0006F7377276093341BA0912E1BB0912F1BF0
:1059F000DC92A091281BB091291B3C91337030643C
:105A00003C93B091331B6091341BB61307C0A09137
:105A10002A1BB0912B1B7C917F7D7C93A091281B2E
:105A2000B091291B2FCF3C9135FF20CF2FB7F89491
:105A3000A0912E1BB0912F1B9C93A091281BB0917D
:105A4000291B8C91837080648C932FBFFECE8C9128
:105A500085FF4FCFA091341BB0E0AB58B44E5C91A2
:105A60006091341B70E06F5F7F4F6F737727609397
:105A7000341BA0912E1BB0912F1B5C93A091281B6F
:105A8000B091291B9C91937090649C93B091331BAF
:105A9000C090341BBC1107C0A0912A1BB0912B1BD6
:105AA0003C913F7D3C93A091281BB091291B21CFB5
:105AB000CC90C5FE12CF2FB7F894A0912E1BB091B9
:105AC0002F1B4C93A091281BB091291B4C91437024
:105AD00040644C932FBF319623CF708175FF44CF24
