:100000000C94F2110C94B3FE0C9488FE0C945DFEDB
:100010000C9432FE0C9407FE0C94DCFD0C94B1FDA4
:100020000C9486FD0C9423120C9423120C9423122E
:100030000C9423120C9423120C9423120D94DB0EB7
:100040000C9423120D94CA3E0D94913C0C948A6B2F
:100050000C9423120C9423120C9423120D949B6382
:100060000C9423120D943B000C94FBFF0C94231270
:100070000C9423120C9423120C9423120C9423122C
:100080000C944AC50C94C1C40C9438C40C9423122B
:100090000C9423120C9423120C9423120C9423120C
:1000A0000C9423120C9423120C9407C10C94AFC32C
:1000B0000C945DC00C9423120C9423120C9405C371
:1000C0000C945BC20C94B1C10C9423120C942312B7
:1000D0000C9423120C9423120C94C5FF0C9485FFEE
:1000E0000C942312D238851285128512851285123E
:1000F000BF3885128512851285120D34851285123E
:1001000085128512B0388512A8388512851285129D
:100110008512851285128512851285128512851227
:100120008512851285128512851285128512851217
:1001300085128512851285128512851285129738CF
:10014000851285128512DB38A0384828A0271B208D
:100150000127A3281B206E20DB277F252A296B2857
:100160009F264A260D26111FB425804A6F47C04A94
:10017000BD4A69486F47A248494A6F47744C6F4768
:1001800004486F47DD4BC84A9B486F476D48B64AE5
:100190006F47DA48494C2B4C284CFE4B6F476F4752
:1001A000BB4C6F476F476F476F476F478B4CA14CF6
:1001B0002F4A104AE2496F476F476F47264A6F47F9
:1001C0001A476F476F47C9496F476F47E3486F4703
:1001D000504A6F4788476F476F47894A6F476F4755
:1001E000854A2E592B59E85878574D57CC55B75555
:1001F000F354735A575A5D5AF94B3A5A424F69545D
:10020000E55361535B53D752D1526452C851C25126
:100210005E523E51BD50B1506F54410283047F0580
:10022000ED031D03B103A302A503156B406AA26A87
:1002300061616161A7686161A266FC665667616180
:10024000616161616161616161616161616161619E
:10025000A567616161616161616161616161616144
:1002600061616161E8673A68616161616161616111
:100270006161616161616161DB690869616161613D
:100280006161706961616161616161616161616147
:10029000616161616161AF61616161616161616100
:1002A000AF6137D83CD851D866D86BD880D885D8BC
:1002B000A4D8C8D8CDD8D2D8F1D81DD822D8ADDD91
:1002C000ADDDE8DDF9DDFEDDD2DD8CE8BEDE86E801
:1002D0000FDE14DE25DEB9DED7DDE6EEEDEE09EF4A
:1002E00025EF2DEF49EF51EF70EF99EFA1EFA9EF57
:1002F000C5EFDFEEC0EE02FF00FFFEFEFCFEFAFEE1
:1003000004FF06FF6BFF63FF57FF49FF38FF77FFCE
:1003100021FF35028D04B5032105B7049B040F06A8
:10032000B102F904450289026D02110567039102C9
:100330001D055B0347058704FF05750231045D0554
:10034000A50203051F035D03530579038B04DB0539
:100350005B05BF05AF0283035D03FF03DF043D04BC
:10036000D902CB058D032D05AF03A9023304C505C2
:100370003F02CF02D102DF05E703D305C3056D03BA
:10038000A70205052D04A9048905B1050F036B0318
:100390003B027F025F04EB02A90529040105E30388
:1003A000B10451037D037B03F302E103F30307046C
:1003B000C70209069704DD02C3033F050303570480
:1003C0009B022703E90591032B05BB05BD03A1058E
:1003D0003103F304CF0475053902D90387051705E6
:1003E0005D024D056103CD03D90573025102770308
:1003F0009F021305DB04B302EB05530355042704E6
:1004000055028305FD0373037F04CD02F1046F05DC
:100410007B02B30375038103F5047905FD02AB0389
:10042000DD038102D5029D03F502930493058B033E
:100430004D04FD04530243041F0593037902C105D3
:100440002303FF023D0521047D024902EF03050459
:10045000D1059D029B0347045904BF02A70567020B
:100460008F02610469030D9451180D949A200C9425
:10047000A26A0D94FE4F0D94B9500C9463FF0D9435
:100480000F510D948C750C94CDD80D945D210C9466
:1004900000FF0D94365F0C94804A0C944D570C94D9
:1004A00049FF0D94E04F0D94634F0D94B14F0C94A0
:1004B000AC5F0C9438770C945B530D94F24F0C9412
:1004C0000BB10C94ED910C947F250C94FE5D0D9472
:1004D000E0610C94E8580C94CC550D94AB1E0C9430
:1004E0009B480C94185D0D94E34F0D94E6230C94F7
:1004F000B4FC0D94574F0D94994F0D942C510D94BD
:10050000BF500D947E4F0C94A14C0C94B85A0C948F
:100510006B280D94791D0C9475B00C943CD80D94F7
:10052000F4610D948B1B0C94BCF90C94AE9F0C944D
:10053000A4930C947D9B0D9422500D941F610D94F7
:10054000DA4F0C949F260D94EE750D945A3B0D9442
:10055000F3500D941A510C940FBA0C942E590D941B
:10056000903B0D942C200D94C04F0C9462AF0C94D2
:10057000CF730C947F7A0C9489920C9466D80D9466
:1005800033610C943A680C94424F0C94E6720D94CB
:100590003A500C9438BB0C9448280D94A24F0D94FB
:1005A0000C510D9409510C94BF380D947B4F0C9451
:1005B00004850D9429510C94EBAF0D9431500C949B
:1005C0006EBD0C9453F50C94A0270C94111F0C9441
:1005D000575A0C94E7720D9485500C94F7700C9454
:1005E0006E910C9488470D9446500D94754F0C9461
:1005F000CECB0C94B1500C94EDA90D94874F0D9473
:100600004D4F0C94376E0D9428500C9438FF0C9479
:100610006E200C947B7B0D94F2180C94B9DE0D9433
:10062000E1500C9423940C941CAE0C94269C0C94D6
:10063000E85B0C9408930C94CE730D9403730D94A3
:10064000663B0C94695B0D94504F0C94406A0D947A
:100650001F500C94CFA00C946F540C940D340C9438
:10066000DB380D940A500C947CF40C9401270C9404
:1006700088FB0C9497380C946BFF0C94B8AB0C94DB
:100680001BF70C940B780C94579A0C94EBF50C9484
:10069000E8DD0C94B7550C94FE4B0C94C8D80C9420
:1006A0002AAC0D944F500D94BA4F0C9423FA0C942D
:1006B00009AF0C947C740D94A21A0D94513B0C94C8
:1006C00053BC0D94EC4F0C94EA6F0C9461610D9443
:1006D000201C0D94205F0D94BC500D94FA500C9486
:1006E000C3A10C9476720D94A84F0D94934F0D9462
:1006F000DD4F0D94723B0D9449500D944C500C9469
:10070000E3480D94904F0D94963B0C94FC7A0C9416
:10071000ED9B0C9474F70D946C4F0D9423510C9435
:1007200087CF0D9419500D945A4F0C94C1710C94AD
:1007300095B20C941F6F0D94BC620D94784F0C947D
:1007400037A00C9470EF0C94539B0D945D6E0C9439
:100750006BD80C94D2DD0D94844F0C941A470D94F1
:100760001D510D9496720D94964F0D94011E0C948C
:100770000D260C94F1D80C94ADDD0D9410500C9412
:1007800021C90C94FEFE0D942E500C94FAFE0C948C
:10079000D7DD0C94D6F80D94647A0D94E94F0C943F
:1007A0003A5A0C94F3540C9402FF0C94BD4A0C94E6
:1007B00008690D94FB4F0C942A290D94814F0C94D9
:1007C00037D80D9443500D945A500C946D480D94A5
:1007D00003510C94EB9D0C94B64A0D9430740D9417
:1007E00015600C942EFD0D9440500C94A9EF0C94C0
:1007F000156B0C9469480C942B590D94AB4F0D94C8
:100800009C3B0C94744C0C94388F0D942C600D947C
:100810003D500C94DD7F0C9456670C948BD40C9453
:1008200053980C94735A0C94E5530C94D4BB0C94C9
:1008300006FF0C9416760C941E6F0C94D2380C9410
:1008400085D80D94474F0C9483F60C94C07C0D947E
:10085000B44F0D946C500C9409FB0D94ED500C9416
:100860008B4C0D94523B0D9416510C9499EF0C94B3
:10087000FCFE0C946CB60C9489FB0D944C3B0C94D0
:100880006F470C9478570D94604F0C9473A60D9499
:1008900016620C94B9BA0C94A0380D94694F0C945C
:1008A0001DAE0C943F740C94494A0D94B74F0D94AF
:1008B00025500D9446620C9433990C9421FF0D94AD
:1008C00096500D94425E0C94A4D80C9414DE0C94B3
:1008D000DA480C94CAAA0C9469540C94D1520C9422
:1008E000E6EE0C9425DE0C94E4F30C94E8670C948B
:1008F0005E520C94A6750C9470690C94E3970D9459
:10090000A54F0C9472F80D94CA740C941B760D9438
:10091000D7190C94C2510D94783B0D9454230C9428
:100920005D5A0C94AF610D94724F0C94C9490D94AB
:1009300034500C94B5B60D9419220C94104A0C94B2
:1009400019C80C943E950C94C79E0C94EDEE0C9433
:10095000DB270D94EA500C94BEDE0C94DD4B0C9416
:10096000A5670D9455500C94A2660C9481BA0D9411
:10097000301F0C94ACF50C942AA90C942B4C0C94BD
:10098000F6780C9478B30C94F9DD0C94245F0C94F5
:10099000B2830C947AB10C94B3F70C94EFBC0D9421
:1009A00004500C94C5EF0C94BB4C0C94386E0C9412
:1009B000A1EF0C94B4250D94C34F0C948A700D9440
:1009C000A23B0C94C7D00C947F5D0C9457FF0C9401
:1009D000B7AB0C9407FD0C9415AB0D94BC180C949C
:1009E00061530D949F4F0D9407500D948D4F0D94AE
:1009F000E6170D94E11F0C9425EF0D94664F0C94AF
:100A0000DCF60D945D500D94603B0D94F0500C9409
:100A100085120C943D9D0C94EFB10C9460A90C943C
:100A20008CCB0D943E1E0D94D74F0C94A7680D945B
:100A3000F54F0C94995C0C944C970D943F1B0D94BE
:100A40005D4F0D940E230C944FFC0C94A5750C94E3
:100A50000FDE0C94DFEE0D9416500D9420510D9482
:100A60001C180C94284C0C94BD500C94F94B0C940D
:100A700051EF0C9444A10C941DD80D944A4F0D9441
:100A80002B500C94B78F0C94B1A70C9460810D94EB
:100A900084240C945B980C942F4A0D94EF4F0C9483
:100AA0000CF80C94C04A0D946C3B0C94AF800C94E1
:100AB000854A0C94C84A0D94843B0D94563B0C9483
:100AC00082B40C94894A0C9488FA0C948CE80C94A7
:100AD00022D80C94264A0C9450B80C94A3280D9458
:100AE0009C4F0C9453900C94FEDD0D9401500C948B
:100AF000E2490D948A4F0C9480D80C94BABA0D94A4
:100B000078730C94A8380D94AE4F0C9441820D94D8
:100B1000F84F0D94E7500C94DB690C94C0EE0C94E4
:100B2000B9AB0C9449EF0D946F4F0C9486E80C947C
:100B300089990C941FFC0C94D0AC0C94F3960C94F3
:100B400080790D940D500C9444F60C9409EF0D949B
:100B5000855D0D9473500C94BF940C94057A0C949D
:100B6000D2D80D94E4500D94B1170C9414F50C9454
:100B7000FC660C941B200D9413500C94494C0D945E
:100B80008A3B0D94544F0D94FD500D9412510C94CA
:100B9000D2900C9489780D9426510C942DEF0C94DE
:100BA00059960D9440600D9400510C9477FF0C946D
:100BB0004A260D94E64F0D947E3B0C94B0380D946C
:100BC00006510C9451D80C943E510D9487180C94F6
:100BD0003DF90D941C500D94BD4F0C9475720C94FE
:100BE000396E0C94C8510C9404480C9404FF0C9476
:100BF0005FD50C94A2480D947B170C9464520D940D
:100C000096190C94DA950C948BAE0C94845E0C942B
:100C1000504A0D9437500C94D7520C9419FD0D94F2
:100C2000D31C537065656475696E6F00537065659C
:100C30006475696E6F20323031392E30382D73650E
:100C40007200537065656475696E6F2063737830E8
:100C5000323031392E380020202020000A506167C0
:100C60006520686173206E6F74206265656E20690F
:100C70006D706C656D656E74656420796574000ACD
:100C80005061676520686173206E6F7420626565CE
:100C90006E20696D706C656D656E74656420796534
:100CA00074000A5061676520686173206E6F74205C
:100CB0006265656E20696D706C656D656E746564E6
:100CC000207965740020000A5645204D6170000AA5
:100CD0005067203120436F6E666967000A49676E6E
:100CE0006974696F6E204D6170000A506720322070
:100CF000436F6E666967000A414652204D6170007D
:100D00000A5067203320436F6E666967000A506798
:100D1000203420436F6E666967000A426F6F7374F8
:100D2000204D6170000A565654204D6170000A50E3
:100D30006720313020436F6E666967000A326E6447
:100D4000204675656C204D6170000A574D49204D55
:100D50006170000A5072676D20494F000A326E645C
:100D60002049676E6974696F6E204D6170000A3D9D
:100D70003D3D436F6D6D616E642048656C703D3D17
:100D80003D0A0A416C6C20636F6D6D616E64732067
:100D90006172652073696E676C652063686172615A
:100DA0006374657220616E642061726520636F6E8A
:100DB000636174656E61746564207769746820741A
:100DC0006865697220706172616D65746572732007
:100DD0000A776974686F7574207370616365732E28
:100DE00053796E7461783A20203C636F6D6D616E4B
:100DF000643E2B3C706172616D65746572313E2B8F
:100E00003C706172616D65746572323E2B3C70613D
:100E100072616D657465724E3E0A0A3D3D3D4C69D6
:100E20007374206F6620436F6D6D616E64733D3D1A
:100E30003D0A0A41202D20446973706C617973204A
:100E40003331206279746573206F66206375727226
:100E5000656E745374617475732076616C75657317
:100E600020696E2062696E61727920286C697665EE
:100E70002064617461290A42202D204275726E201F
:100E800063757272656E74206D617020616E64208E
:100E9000636F6E666967506167652076616C756522
:100EA0007320746F20656570726F6D0A43202D206A
:100EB0005465737420434F4D20706F72742E202040
:100EC000557365642062792054756E65727374750C
:100ED00064696F20746F2073656520776865746836
:100EE000657220616E20454355206973206F6E2026
:100EF0006120676976656E2073657269616C200A8E
:100F000020202020706F72742E2052657475726ECE
:100F10007320612062696E617279206E756D626501
:100F2000722E0A4E202D205072696E74206E6577E5
:100F3000206C696E652E0A50202D20536574206345
:100F4000757272656E7420706167652E202053790A
:100F50006E7461783A2020502B3C706167654E7545
:100F60006D6265723E0A52202D2053616D652061CD
:100F700073204120636F6D6D616E640A53202D20D4
:100F8000446973706C6179207369676E61747572FE
:100F900065206E756D6265720A51202D2053616D5A
:100FA00065206173205320636F6D6D616E640A5616
:100FB000202D20446973706C6179206D6170206F01
:100FC0007220636F6E666967506167652076616C39
:100FD00075657320696E2062696E6172790A5720A7
:100FE0002D20536574206F6E6520627974652069C9
:100FF0006E206D6170206F7220636F6E666967503E
:101000006167652E2020457870656374732062697E
:101010006E61727920706172616D65746572732E94
:10102000200A2020202053796E7461783A202057BE
:101030002B3C6F66667365743E2B3C6E65776279F8
:1010400074653E0A74202D205365742063616C69B9
:1010500062726174696F6E2076616C7565732E20A3
:1010600020457870656374732062696E61727920BF
:10107000706172616D65746572732E2020546162B7
:101080006C6520696E646578206973206569746891
:10109000657220302C200A20202020312C206F72F5
:1010A00020322E202053796E7461783A2020742BE0
:1010B0003C74626C655F6964783E2B3C6E65775664
:1010C000616C7565313E2B3C6E657756616C75655C
:1010D000323E2B3C6E657756616C75654E3E0A5A02
:1010E000202D20446973706C61792063616C6962A2
:1010F000726174696F6E2076616C7565730A542035
:101100002D20446973706C617973203235362074F8
:101110006F6F7468206C6F6720656E747269657399
:1011200020696E2062696E6172790A72202D2044F6
:101130006973706C6179732032353620746F6F7407
:1011400068206C6F6720656E74726965730A55203C
:101150002D205072657061726520666F722066691D
:10116000726D77617265207570646174652E2054AC
:101170006865206E65787420627974652072656395
:1011800065697665642077696C6C20636175736549
:10119000207468652041726475696E6F20746F20D9
:1011A00072657365742E0A3F202D20446973706C3C
:1011B00061797320746869732068656C7020706150
:1011C0006765002C2000575545004F3200496E6C72
:1011D00065742074656D7000436F6F6C616E740090
:1011E000526573657420636F6E74726F6C206973DF
:1011F0002063757272656E746C79206469736162C4
:101200006C65642E00436F6D6D732068616C74654E
:10121000642E204E65787420627974652077696C3D
:101220006C20726573657420746865204172647502
:10123000696E6F2E00537065656475696E6F20323C
:101240003032312E303300737065656475696E6FAE
:101250002032303231303300303031000A50616793
:101260006520686173206E6F74206265656E206909
:101270006D706C656D656E746564207965740000D1
:10128000000000963007772C610EEEBA51099919CB
:10129000C46D078FF46A7035A563E9A395649E3227
:1012A00088DB0EA4B8DC791EE9D5E088D9D2972B6B
:1012B0004CB609BD7CB17E072DB8E7911DBF906487
:1012C00010B71DF220B06A4871B9F3DE41BE847DCB
:1012D000D4DA1AEBE4DD6D51B5D4F4C785D3835667
:1012E000986C13C0A86B647AF962FDECC9658A4FEB
:1012F0005C0114D96C0663633D0FFAF50D088DC8C7
:10130000206E3B5E10694CE44160D5727167A2D1DA
:10131000E4033C47D4044BFD850DD26BB50AA5FA16
:10132000A8B5356C98B242D6C9BBDB40F9BCACE37A
:101330006CD832755CDF45CF0DD6DC593DD1ABACF6
:1013400030D9263A00DE518051D7C81661D0BFB5DA
:10135000F4B42123C4B3569995BACF0FA5BDB89E56
:10136000B802280888055FB2D90CC624E90BB187FA
:101370007C6F2F114C6858AB1D61C13D2D66B69036
:1013800041DC760671DB01BC20D2982A10D5EF89AA
:1013900085B1711FB5B606A5E4BF9F33D4B8E8A2E6
:1013A000C9077834F9000F8EA8099618980EE1BB8A
:1013B0000D6A7F2D3D6D08976C6491015C63E6F4C6
:1013C000516B6B62616C1CD83065854E0062F2ED2A
:1013D00095066C7BA5011BC1F4088257C40FF5C6A6
:1013E000D9B06550E9B712EAB8BE8B7C88B9FCDF8A
:1013F0001DDD62492DDA15F37CD38C654CD4FB5886
:1014000061B24DCE51B53A7400BCA3E230BBD441B9
:10141000A5DF4AD795D83D6DC4D1A4FBF4D6D36AD5
:10142000E96943FCD96E34468867ADD0B860DA7399
:101430002D0444E51D03335F4C0AAAC97C0DDD3C35
:10144000710550AA41022710100BBE86200CC92539
:10145000B56857B3856F2009D466B99FE461CE0E95
:10146000F9DE5E98C9D9292298D0B0B4A8D7C71799
:101470003DB359810DB42E3B5CBDB7AD6CBAC020F5
:1014800083B8EDB6B3BF9A0CE2B6039AD2B1743901
:1014900047D5EAAF77D29D1526DB048316DC73129D
:1014A0000B63E3843B64943E6A6D0DA85A6A7A0B21
:1014B000CF0EE49DFF099327AE000AB19E077D443D
:1014C000930FF0D2A3088768F2011EFEC206695D81
:1014D0005762F7CB67658071366C19E7066B6E76DD
:1014E0001BD4FEE02BD3895A7ADA10CC4ADD676F21
:1014F000DFB9F9F9EFBE8E43BEB717D58EB060E8FD
:10150000A3D6D67E93D1A1C4C2D83852F2DF4FF110
:1015100067BBD16757BCA6DD06B53F4B36B248DA8C
:101520002B0DD84C1B0AAFF64A0336607A0441C330
:10153000EF60DF55DF67A8EF8E6E3179BE69468CAC
:10154000B361CB1A8366BCA0D26F2536E268529590
:10155000770CCC03470BBBB91602222F260555BECC
:101560003BBAC5280BBDB2925AB42B046AB35CA730
:10157000FFD7C231CFD0B58B9ED92C1DAEDE5BB06C
:10158000C2649B26F263EC9CA36A750A936D02A960
:1015900006099C3F360EEB856707721357000582DC
:1015A0004ABF95147AB8E2AE2BB17B381BB60C9BC0
:1015B0008ED2920DBED5E5B7EFDC7C21DFDB0BD4FC
:1015C000D2D38642E2D4F1F8B3DD686E83DA1FCD60
:1015D00016BE815B26B9F6E177B06F7747B718E69C
:1015E0005A0888706A0FFFCA3B06665C0B0111FF40
:1015F0009E658F69AE62F8D3FF6B6145CF6C16783C
:10160000E20AA0EED20DD75483044EC2B30339616F
:101610002667A7F71660D04D476949DB776E3E4ACB
:101620006AD1AEDC5AD6D9660BDF40F03BD83753CF
:10163000AEBCA9C59EBBDE7FCFB247E9FFB5301C6B
:10164000F2BDBD8AC2BACA3093B353A6A3B424056F
:1016500036D0BA9306D7CD2957DE54BF67D9232E8B
:101660007A66B3B84A61C4021B685D942B6F2A374F
:10167000BE0BB4A18E0CC31BDF055A8DEF022D00EB
:1016800000000041311B1982623632C3532D2B04F6
:10169000C56C6445F4777D86A75A56C796414F08B6
:1016A0008AD9C849BBC2D18AE8EFFACBD9F4E30C96
:1016B0004FB5AC4D7EAEB58E2D839ECF1C98875115
:1016C00012C24A1023D953D370F4789241EF615576
:1016D000D7AE2E14E6B537D7B5981C968483055936
:1016E000981B8218A9009BDBFA2DB09ACB36A95D16
:1016F0005D77E61C6C6CFFDF3F41D49E0E5ACDA295
:10170000248495E3159F8C2046B2A76177A9BEA6D5
:10171000E1E8F1E7D0F3E82483DEC365B2C5DAAAD5
:10172000AE5D5DEB9F464428CC6B6F69FD7076AE75
:101730006B3139EF5A2A202C09070B6D381C12F334
:101740003646DFB2075DC6715470ED30656BF4F755
:10175000F32ABBB6C231A275911C8934A00790FB55
:10176000BC9F17BA8D840E79DEA92538EFB23CFFF5
:1017700079F373BE48E86A7D1BC5413C2ADE5805F3
:101780004F79F0447E62E9872D4FC2C61C54DB01BD
:101790008A159440BB0E8D83E823A6C2D938BF0DAD
:1017A000C5A0384CF4BB218FA7960ACE968D13099D
:1017B00000CC5C4831D7458B62FA6ECA53E177544E
:1017C0005DBBBA156CA0A3D63F8D88970E9691503D
:1017D00098D7DE11A9CCC7D2FAE1EC93CBFAF55C2D
:1017E000D762721DE6796BDEB554409F844F59581D
:1017F000120E161923150FDA7038249B41233DA7CA
:101800006BFD65E65AE67C2509CB576438D04EA3BC
:10181000AE9101E29F8A1821CCA73360FDBC2AAFAC
:10182000E124ADEED03FB42D83129F6CB20986AB9C
:101830002448C9EA1553D029467EFB687765E2F64D
:10184000793F2FB7482436741B091D352A1204F23C
:10185000BC534BB38D485270DE657931EF7E60FE2C
:10186000F3E6E7BFC2FDFE7C91D0D53DA0CBCCFA1C
:10187000368A83BB07919A7854BCB13965A7A84BC7
:1018800098833B0AA99822C9FAB50988CBAE104FB4
:101890005DEF5F0E6CF446CD3FD96D8C0EC2744384
:1018A000125AF3022341EAC1706CC1804177D847D4
:1018B000D7369706E62D8EC5B500A584841BBC1AC5
:1018C0008A41715BBB5A6898E87743D9D96C5A1E34
:1018D0004F2D155F7E360C9C2D1B27DD1C003E1204
:1018E0000098B9533183A09062AE8BD153B5921654
:1018F000C5F4DD57F4EFC494A7C2EFD596D9F6E945
:10190000BC07AEA88D1CB76BDE319C2AEF2A85ED93
:10191000796BCAAC4870D36F1B5DF82E2A46E1E1A3
:1019200036DE66A007C57F6354E8542265F34DE5B3
:10193000F3B202A4C2A91B6791843026A09F29B8E4
:10194000AEC5E4F99FDEFD3ACCF3D67BFDE8CFBC13
:101950006BA980FD5AB2993E099FB27F3884ABB023
:10196000241C2CF115073532462A1E73773107B433
:10197000E17048F5D06B513683467A77B25D634E9D
:10198000D7FACB0FE6E1D2CCB5CCF98D84D7E04ABB
:101990001296AF0B238DB6C870A09D8941BB8446BB
:1019A0005D2303076C381AC43F1531850E0E28429B
:1019B000984F6703A9547EC0FA795581CB624C1FBA
:1019C000C538815EF423989DA70EB3DC9615AA1B3B
:1019D0000054E55A314FFC996262D7D85379CE173B
:1019E0004FE149567EFA50952DD77BD41CCC62131B
:1019F0008A8D2D52BB963491E8BB1FD0D9A006EC3E
:101A0000F37E5EADC265476E91486C2FA05375E8BA
:101A100036123AA90709236A5424082B653F11E4BA
:101A200079A796A548BC8F661B91A4272A8ABDE09A
:101A3000BCCBF2A18DD0EB62DEFDC023EFE6D9BDB9
:101A4000E1BC14FCD0A70D3F838A267EB2913FB93A
:101A500024D070F815CB693B46E6427A77FD5BB53A
:101A60006B65DCF45A7EC5370953EE763848F7B11A
:101A7000AE09B8F09F12A133CC3F8A72FD249300C7
:101A8000000000376AC2016ED4840359BE4602DCEE
:101A9000A80907EBC2CB06B27C8D0485164F05B8AA
:101AA00051130E8F3BD10FD685970DE1EF550C6486
:101AB000F91A095393D8080A2D9E0A3D475C0B700A
:101AC000A3261C47C9E41D1E77A21F291D601EAC5A
:101AD0000B2F1B9B61ED1AC2DFAB18F5B56919C856
:101AE000F23512FF98F713A626B111914C7310141A
:101AF0005A3C152330FE147A8EB8164DE47A17E05E
:101B0000464D38D72C8F398E92C93BB9F80B3A3CE9
:101B1000EE443F0B84863E523AC03C6550023D582D
:101B2000175E366F7D9C3736C3DA3501A9183484C9
:101B3000BF5731B3D59530EA6BD332DD0111339005
:101B4000E56B24A78FA925FE31EF27C95B2D264C15
:101B50004D62237B27A0222299E62015F324212819
:101B6000B4782A1FDEBA2B4660FC29710A3E28F49D
:101B70001C712DC376B32C9AC8F52EADA2372FC099
:101B80008D9A70F7E75871AE591E739933DC721C49
:101B90002593772B4F517672F11774459BD5757845
:101BA000DC897E4FB64B7F16080D7D2162CF7CA469
:101BB000748079931E4278CAA0047AFDCAC67BB0AD
:101BC0002EBC6C87447E6DDEFA386FE990FA6E6C3D
:101BD00086B56B5BEC776A025231683538F3690879
:101BE0007FAF623F156D6366AB2B6151C1E960D475
:101BF000D7A665E3BD6464BA0322668D69E06720F9
:101C0000CBD74817A115494E1F534B7975914AFC04
:101C100063DE4FCB091C4E92B75A4CA5DD984D9808
:101C20009AC446AFF00647F64E4045C1248244446C
:101C300032CD4173580F402AE649421D8C8B4350E8
:101C400068F154670233553EBC755709D6B7568CB8
:101C5000C0F853BBAA3A52E2147C50D57EBE51E87C
:101C600039E25ADF53205B86ED6659B187A45834B8
:101C700091EB5D03FB295C5A456F5E6D2FAD5F8074
:101C80001B35E1B771F7E0EECFB1E2D9A573E35CA4
:101C9000B33CE66BD9FEE73267B8E5050D7AE43868
:101CA0004A26EF0F20E4EE569EA2EC61F460EDE4CC
:101CB000E22FE8D388EDE98A36ABEBBD5C69EAF048
:101CC000B813FDC7D2D1FC9E6C97FEA90655FF2C18
:101CD000101AFA1B7AD8FB42C49EF975AE5CF8481C
:101CE000E900F37F83C2F2263D84F0115746F19458
:101CF0004109F4A32BCBF5FA958DF7CDFF4FF66094
:101D00005D78D95737BAD80E89FCDA39E33EDBBCA7
:101D1000F571DE8B9FB3DFD221F5DDE54B37DCD8E3
:101D20000C6BD7EF66A9D6B6D8EFD481B22DD50407
:101D3000A462D033CEA0D16A70E6D35D1A24D2104B
:101D4000FE5EC527949CC47E2ADAC6494018C7CCDB
:101D50005657C2FB3C95C3A282D3C195E811C0A8D7
:101D6000AF4DCB9FC58FCAC67BC9C8F1110BC974D3
:101D70000744CC436D86CD1AD3C0CF2DB902CE40D7
:101D800096AF9177FC6D902E422B921928E9939C87
:101D90003EA696AB546497F2EA2295C580E094F88B
:101DA000C7BC9FCFAD7E9E9613389CA179FA9D2427
:101DB0006FB598130577994ABB319B7DD1F39A3063
:101DC00035898D075F4B8C5EE10D8E698BCF8FEC73
:101DD0009D808ADBF7428B82490489B523C68888B7
:101DE000649A83BF0E5882E6B01E80D1DADC81543B
:101DF000CC938463A651853A1817870D72D586A0B7
:101E0000D0E2A997BA20A8CE0466AAF96EA4AB7C4A
:101E100078EBAE4B1229AF12AC6FAD25C6ADAC1846
:101E200081F1A72FEB33A6765575A4413FB7A5C422
:101E300029F8A0F3433AA1AAFD7CA39D97BEA2D0A6
:101E400073C4B5E71906B4BEA740B689CD82B70CF6
:101E5000DBCDB23BB10FB3620F49B155658BB068B2
:101E600022D7BB5F4815BA06F653B8319C91B9B476
:101E70008ADEBC83E01CBDDA5E5ABFED3498BE003A
:101E80000000006567BCB88BC809AAEEAFB5125751
:101E900097628F32F0DE37DC5F6B25B938D79DEF64
:101EA00028B4C58A4F087D64E0BD6F018701D7B8AB
:101EB000BFD64ADDD86AF23377DFE0561063589F09
:101EC000571950FA30A5E8149F10FA71F8AC42C8BF
:101ED000C07BDFADA7C76743087275266FCECD7094
:101EE0007FAD951518112DFBB7A43F9ED0188727FD
:101EF000E8CF1A428F73A2AC20C6B0C9477A083E19
:101F0000AF32A05BC88E18B5673B0AD00087B269B4
:101F100038502F0C5FEC97E2F059858797E53DD15B
:101F2000878665B4E03ADD5A4F8FCF3F28337786F6
:101F300010E4EAE37758520DD8ED4068BF51F8A19C
:101F4000F82BF0C49F97482A30225A4F579EE2F64A
:101F50006F497F9308F5C77DA740D518C0FC6D4E2B
:101F6000D09F352BB7238DC518969FA07F2A2719A0
:101F700047FDBA7C204102928FF410F7E848A83D53
:101F800058149B583FA823B6901D31D3F7A1896AF6
:101F9000CF76140FA8CAACE1077FBE8460C306D217
:101FA00070A05EB7171CE659B8A9F43CDF154C8544
:101FB000E7C2D1E0807E690E2FCB7B6B4877C3A24E
:101FC0000F0DCBC768B17329C704614CA0B8D9F510
:101FD000986F4490FFD3FC7E5066EE1B37DA564D67
:101FE00027B90E284005B6C6EFB0A4A3880C1C1A6A
:101FF000B0DB817FD767399178D22BF41F6E9303C2
:10200000F7263B66909A83883F2F91ED5893295489
:102010006044B43107F80CDFA84D1EBACFF1A6EC2E
:10202000DF92FE89B82E4667179B54027027ECBBDF
:1020300048F071DE2F4CC93080F9DB55E745639CD1
:10204000A03F6BF9C783D3176836C1720F8A79CB6B
:10205000375DE4AE50E15C40FF544E2598E8F673DE
:10206000888BAE16EF3716F84082049D273EBC24BD
:102070001FE92141785599AFD7E08BCAB05C333B5B
:10208000B659ED5ED1E555B07E5047D519ECFF6CE1
:10209000213B62094687DAE7E932C8828E8E70D426
:1020A0009EED28B1F951905F56E4823A31583A8357
:1020B000098FA7E66E331F08C1860D6DA63AB5A439
:1020C000E140BDC186FC052F2949174A4EF5AFF303
:1020D00076223296119E8A78BE2B981DD997204B76
:1020E000C9F4782EAE48C0C001FDD2A566416A1C75
:1020F0005E96F779392A4F97969F5DF2F123E505B1
:10210000196B4D607ED7F58ED162E7EBB6DE5F527C
:102110008E09C237E9B57AD9460068BC21BCD0EA3D
:1021200031DF888F56633061F9D622049E6A9ABDEA
:10213000A6BD07D8C101BF366EB4AD530908159AC4
:102140004E721DFF29CEA511867BB774E1C70FCD56
:10215000D91092A8BEAC2A461119382376A58075ED
:1021600066C6D810017A60FEAECF729BC973CA22D0
:10217000F1A457479618EFA939ADFDCC5E1145067D
:10218000EE4D766389F1CE8D2644DCE841F864514A
:10219000792FF9341E9341DAB12653BFD69AEBE971
:1021A000C6F9B38CA1450B620EF01907694CA1BEAC
:1021B000519B3CDB3627843599929650FE2E2E9902
:1021C000B95426FCDEE89E12715D8C7716E134CEA0
:1021D0002E36A9AB498A1145E63F03208183BB76A1
:1021E00091E0E313F65C5BFD59E949983E55F12116
:1021F00006826C44613ED4AACE8BC6CFA9377E3806
:10220000417FD65D26C36EB389767CD6EECAC46F95
:10221000D61D590AB1A1E1E41E14F38179A84BD768
:1022200069CB13B20E77AB5CA1C2B939C67E01800F
:10223000FEA99CE59915240B36A0366E511C8EA77D
:10224000166686C271DA3E2CDE6F2C49B9D394F043
:1022500081040995E6B8B17B490DA31E2EB11B4838
:102260003ED2432D596EFBC3F6DBE9A69167511FA1
:10227000A9B0CC7ACE0C749461B966F10605DE0083
:102280000020002300260029002C002F003200002F
:10229000010000030106010901040E191B20292B6E
:1022A0002D2F31333537393B3D3F414345474B4D6A
:1022B0004F51555759606500000021002400270048
:1022C0002A002D0030003300010100000401070145
:1022D0000A0100002200250028002B002E003100FA
:1022E000340002010000050108010B010505050588
:1022F000070508080808020202020A0A080804047E
:1023000004040101010101010101030303030303AB
:102310000303040707070C0C0C0C0C0C0C0C02023A
:10232000020206060606060606060B0B0B0B0B0B37
:102330000B0B0102102020080810204010204080C4
:102340000201020108040201010204081020408079
:102350008040201008040201800402018040201007
:102360000804020108040201010204081020408050
:10237000010204081020408000000A0B02090C0D25
:102380000E08070304010000000000000000000028
:10239000000000000000000000000000000000003D
:1023A00000000000121110000000000000000000FA
:1023B00000000000000000000000000000000A50C3
:1023C00061676520686173206E6F74206265656E59
:1023D00020696D706C656D656E74656420796574D7
:1023E0000000CB0311241FBECFEFD1E2DEBFCDBF73
:1023F00000E00CBF12E0A0E0B2E0E8E9F6EF02E096
:102400000BBF02C007900D92AA38B107D9F72FE190
:10241000AAE8B2E001C01D92A134B207E1F711E1D0
:10242000C2EFD1E100E006C021970109802FFE0133
:102430000F94277BC13FD10780E00807A9F70F94CD
:10244000E5630D944A7B0C9400002F923F924F92CB
:102450005F926F927F928F929F92AF92BF92CF9234
:10246000DF92EF92FF920F931F93CF93DF93CDB73D
:10247000DEB7C054D1090FB6F894DEBF0FBECDBF92
:102480008091E1049091E20401969093E20480939C
:10249000E10420904F17209205093090DF1731108A
:1024A00096C44090B71741107DC47090B817711052
:1024B00064C48091EF19A090F01990E0805C9F4F68
:1024C0008A1991098F739927892B09F44BC40E94AB
:1024D000EC46C090FB1BC0FE18C04091E104509137
:1024E000E2044F7155274130510509F47AC38091B8
:1024F000CB18D090CC1890E0805C9F4F8D1991093B
:102500008F73992781970CF06CC30F946B3C609389
:10251000E3047093E4048093E5049093E604209030
:10252000D2173090D3174090D4175090D5175B0135
:102530006C01A218B308C408D508E0901C02F09002
:102540001D0200911E0210911F02AE14BF04C006AE
:10255000D10670F0C090D217D090D317E090D41766
:10256000F090D5176C157D058E059F0508F0AEC05F
:10257000E091A817F091A9171995AC0160E070E0FF
:102580004093EB175093EC176093ED177093EE1791
:102590009093E9178093E8179C0136952795369517
:1025A0002795ABE7B4E10F94FC7A969587958093D5
:1025B000EA1770909904E0919704F0919804808153
:1025C0008729808321E0209392183091C91E3370AF
:1025D000313009F43CC1313008F48EC7323009F48F
:1025E00024C3333009F00DC4A091E817B091E91766
:1025F000AB2B11F00C94DB23A090F317A0920F05E6
:10260000E0900B05F0900C0500910D0510910E0562
:10261000E0920705F09208050093090510930A055A
:102620000F946B3C60930B0570930C0580930D0524
:1026300090930E05809106050F944B3C8091060502
:102640000F944B3CBC01635071096B3F734010F415
:102650000C94D723109105051F5F10930505B090CA
:102660007608BB2011F40C94CE33E091581EF0E0B4
:10267000A0E0B1E0AE1BBF0B8090EF179090F01779
:102680009C010F94377B1B012C019F01D4010F94F7
:10269000377BDC01CB01820D931DA41DB51D492F95
:1026A0005A2F6B2F772767FD7A95CA015093F01741
:1026B0004093EF17D090D31E2091D41E3091D51E99
:1026C0002D193109D7FC3395DC01FEC31092E917AF
:1026D0001092E81710923A181092391810920218B6
:1026E000109204181092D2171092D3171092D41788
:1026F0001092D5171092E6081092E7081092E80899
:102700001092E9081092E717309184183F7E3093B9
:102710008418109249181092561810925718109257
:1027200058181092591810929F1710929A171092D9
:102730009917109278041092790410927A041092EA
:102740007B04109277041092760410920118109274
:102750000018109211051092100510925C09109249
:102760005B091092C9021092C802B0907508B110AE
:1027700025C2F090BD1DF1FE31C2A0913818A07E97
:10278000A093381810919618111106C050919718FF
:10279000552311F40C94A52360916604E09167041D
:1027A000F0916804708160956723608330906304C2
:1027B000E0916404F09165044080309434203082CC
:1027C00000916F000B7F00936F001092C61910925A
:1027D000C7191092C8191092C919E091B419F09153
:1027E000B51960807180828093806092CA1970925E
:1027F000CB198092CC199092CD191092C2191092D7
:10280000C3191092C4191092C51910925F18109232
:102810005E18B0916F00BD7FB0936F005090690457
:10282000E0916A04F0916B04908150945922508297
:10283000F091521EF0FFC9CE60E08091B9080F946C
:10284000D83B3091C91E3370313009F0C4CEA0910D
:10285000E817B091E917AB2B11F40C94A923F09170
:10286000E717FF2311F40C94A923209156183091F7
:102870005718409158185091591822303105410588
:10288000510510F40C94A923A0905618B090571835
:10289000C0905818D090591800917804109179047C
:1028A00020917A0430917B04A016B106C206D306AB
:1028B00011F40C943833409056185090571860908B
:1028C0005818709059180F5F1F4F2F4F3F4F041526
:1028D00015052605370511F40C943833C0907204A1
:1028E000D0907304E0907404F0907504CD28CE2845
:1028F000CF2841F0E0917604F0917704EF2B11F0AE
:102900000C945F3BF090F317F0920F0520910B05AC
:1029100030910C0540910D0550910E05209307054F
:10292000309308054093090550930A050F946B3CBA
:1029300060930B0570930C0580930D0590930E0525
:10294000809106050F944B3C809106050F944B3CFB
:102950003C0103978B3F934010F00C94013410928C
:10296000050530907608332011F40C94C439409159
:10297000581E50E0A0E0B1E0A41BB50B8090EF170B
:102980009090F01793010F94377B1B012C019A0153
:10299000D4010F94377BAB01BC01420D531D641D64
:1029A000751DBB2777FDBA95A72F962F852F3C0164
:1029B0009093F0178093EF175090D31E2091D41E60
:1029C0003091D51E2519310957FC3395D3010F9449
:1029D000377B7B018C018AE016950795F794E79485
:1029E0008A95D1F7852D550C990BAA0BBB0B8E0D33
:1029F0009F1DA01FB11FB7FF02C00C940B3B80931B
:102A0000F3179093F417A093F517B093F61740902F
:102A10005618509057186090581870905918409256
:102A200078045092790460927A0470927B04109238
:102A30007204109273041092740410927504109230
:102A4000C4021092C5021092C6021092C7021092E0
:102A50007704109276049090050993FE59C2109164
:102A60004F17177F10934F1781E00E940ABED09036
:102A70007209D092C302F090BD1DB090B11DF3FE5B
:102A800002C00C948C1DB6FE02C00C948C1D1092DA
:102A90005018409136184E7F40933618F3FE11C0FF
:102AA000DD2079F06090C01D84E6689E400111240D
:102AB000E091E817F091E9178E169F0610F40C9438
:102AC0009B34109255184091EC045091ED0440381D
:102AD000510508F41DC21091351810641093351873
:102AE0009090050992FE18C250914F175B7F50934A
:102AF0004F173BE9A32E32E0B32E45E8E42E4AE11E
:102B0000F42E57EBC52E5AE1D52E00E010E08824B4
:102B10008394912C552453941BC0C401002E01C0F2
:102B2000880F0A94EAF780957090B01887218093F7
:102B3000B0180F5F1F4FF2E0AF0EB11C2FEFE21A7B
:102B4000F20A32E0C30ED11C0830110509F4E4C1C9
:102B500080917C0490E0002E02C0969587950A949F
:102B6000E2F780FFDACFD70152968C9190E00F9474
:102B700099431C01F60120813181C8018952954E8B
:102B80003C01DC017C91672F677009F079C7221640
:102B9000330609F47CC7F301B081B295B695B695BA
:102BA000B37011F00C947238F7018281813810F4FF
:102BB0000C94BC33F50111821082AFCF409199047F
:102BC000E0919704F0919804D08040954D21408386
:102BD00010929218F090BD1DF1FCCFCD0E943F6C79
:102BE000CCCD8091CB18E090CC1890E0805C9F4FCA
:102BF0008E1991098F739927892B09F486CCF0904F
:102C00009A02FF2011F40C94033B8091990290E00A
:102C1000FC01E154F109E333F10508F076CC882793
:102C2000EE58FF4F8F4F0D94277BE091E817F091FE
:102C3000E917EF2B11F40C94412540905618509051
:102C40005718609058187090591800917804109196
:102C5000790420917A0430917B0440165106620673
:102C6000730611F40C94F132609056187090571856
:102C700080905818909059180F5F1F4F2F4F3F4F5B
:102C8000061517052805390511F40C94F132B09199
:102C9000F317B0930F0520910B0530910C0540916F
:102CA0000D0550910E0520930705309308054093BC
:102CB000090550930A050F946B3C60930B057093C4
:102CC0000C0580930D0590930E05A0917204B091B0
:102CD0007304B093F017A093EF175090D31E209178
:102CE000D41E3091D51E2519310957FC33950F9408
:102CF000377B4B015C01BAE0B694A7949794879414
:102D0000BA95D1F7852D550C990BAA0BBB0B880DE5
:102D1000991DAA1DBB1D8093F3179093F417A093E0
:102D2000F517B093F617209056183090571840902A
:102D30005818509059182092780430927904409293
:102D40007A0450927B044FEF53E060E070E04093D0
:102D500072045093730460937404709375040E941A
:102D6000E0BED2C0B090B917BB2009F4B2CB00913D
:102D7000CA02043509F0ADCBAACB8090F11990902E
:102D8000F219891410F00C949D23892D90E0881974
:102D90009109019741970CF48CCB8091E1170F9426
:102DA000632F87CB5090F1196090F219561410F0F0
:102DB0000C949523862D90E08519910901974197F0
:102DC0000CF473CB8091E1170F948C306ECB209173
:102DD000F1193091F219231710F00C948D23832FE1
:102DE00090E0821B9109019741970CF45ACB6091B6
:102DF000E01770E08091E11740E390E00F94693AAA
:102E000050CB8090F31780920F0520900B053090E7
:102E10000C0540900D0550900E052092070530924C
:102E200008054092090550920A050F946B3C609387
:102E30000B0570930C0580930D0590930E05809102
:102E400006050F944B3C809106050F944B3CFC010A
:102E500003978B3F934008F07BC310920505709059
:102E60007608772009F47DC34091581E50E0A0E019
:102E7000B1E0A41BB50B4090EF175090F0179F01E5
:102E80000F94377B6B017C019A01D2010F94377B41
:102E90008B019C010C0D1D1D2E1D3F1DBB2737FDF9
:102EA000BA95A32F922F812FFC019093F017809356
:102EB000EF17D090D31E2091D41E3091D51E2D191E
:102EC0003109D7FC3395DF010F94377B7B018C01EF
:102ED000EAE016950795F794E794EA95D1F76D2DFA
:102EE000DD0C770B880B990B6E0D7F1D801F911FDA
:102EF0006093F3177093F4178093F5179093F61778
:102F000097FF02C00C942F2E9090050993FCA7CD3B
:102F10009090050992FCE8CDB0900509B4FC49C534
:102F2000A0900509A1FC4FC3B0900509B0FE25C0D3
:102F300010914F171E7F10934F17D0908E1DD6FE05
:102F400002C00C94462E9090D01B90FE16C060914B
:102F5000D71B60FF12C04090A918442011F40C94B4
:102F600080238091BC080F94A83B61E0892B09F075
:102F700060E08091BC080F94D83B3091F51D37700C
:102F80003450323010F40C94E22F7091CA1E7770D6
:102F900041F0713011F40C942730723011F40C941C
:102FA000F1306091F3177091F41770938B18609360
:102FB0008A184091E8175091E91785E29FE10F9434
:102FC000CC058093031880930218B091BF1EB07790
:102FD00009F4F0C2B03111F40C9430300091CA1EE3
:102FE0000770023011F40C94D82D60918E187091F6
:102FF0008F184091E8175091E91783E99EE10F94EB
:10300000CC0588520E94F8D580931A18809319181D
:10301000209184182B7F209384189091B51B892FC1
:10302000869586958695877091F0692F68736830CC
:1030300011F40C944730603111F40C94A3316831D1
:1030400011F40C94F52D603211F40C94C131A0915F
:103050003718AB7FA0933718E091F51B5E2F56957C
:1030600056955695577091F01E2F1873183011F41D
:103070000C946430103111F40C948731183111F430
:103080000C94122E103211F40C94D431D090E71716
:10309000D9A6DD2009F46AC2E090E817F090E9179C
:1030A000E114F10409F462C2809056189090571808
:1030B000A0905818B090591880911E1E90E0A0E082
:1030C000B0E088169906AA06BB0628F0E1E0E09376
:1030D000C902E093C80260908218709083186E1441
:1030E0007F0408F066C50091381801FD02C00C94F9
:1030F00088230D7F016000933818F090521EF0FE77
:1031000004C08091B9080F9437510F94CE252C013B
:1031100090931D1880931C188090F3179090F417CB
:10312000A090F517B090F6172091021800910105B4
:1031300010910205811532E0930710F40C948A2156
:103140008115944010F40C944D41A5E0EA2E80E2E4
:10315000289F90011124ABE7B4E10F94FC7A6C0135
:10316000D694C794F090A81E3F2D307C303811F4CF
:103170000C944A2E303411F40C94E33024E6822E61
:10318000912C7091BF1E672F6470262E72FD02C0B5
:103190000C945221F091811DFBA75F2F5C70583079
:1031A00011F40C94D02483E9A82EB12C8091EB1E4D
:1031B0008078382E92010E2C02C0220F331F0A9401
:1031C000E2F73695279536952795ABE7B4E10F944E
:1031D000FC7AFC01F695E7952801012E000C6608A3
:1031E00077089601D8010F94377B9B01AC01B7E0BB
:1031F0005695479537952795BA95D1F71F2D129576
:1032000016951695137009F4E8C6D4010F94E97A5F
:103210009B01AC0177E056954795379527957A95B0
:10322000D1F721100C9441303110E3C6DF010F9427
:10323000E97ADC01CB0104C0B695A79597958795EF
:10324000EA94D2F70097A105B10511F40C94AA2DC8
:103250000091FF0410910005012E000C220B330B8E
:1032600048015901880E991EAA1EBB1EF5FE14C006
:10327000A0911E18B0911F18A456B109A301920184
:103280000F94E97A24E630E040E050E00F94B17A00
:10329000820E931EA41EB51ED501C4018114910493
:1032A00011E0A106B10410F00C949C218C01109344
:1032B0003A180093391850908718352D3D7F3130DA
:1032C00009F044C0F0908C1B8090E8179090E917AB
:1032D00074E6F79E80189108112454E6452E489C08
:1032E0001001499C300C112420918D1B30E02F19C6
:1032F0003109429EB001439E700D1124C1010F940B
:103300009D7AE0908F1BA0918E1BB0E0AE19B109A1
:1033100024E630E0261B370B30E00F94377B24E6A1
:1033200030E040E050E00F94B17ABA01A9014E0DAF
:10333000511D611D711D449EB001459E700D1124EB
:10334000060F171F10933A1800933918BEEFB50DEA
:10335000B23010F40C94992FF091A317FF2309F4C5
:103360004DC48091EC049091ED04039708F446C499
:103370002090E8173090E91760ED261667E03606D2
:1033800008F03CC48091A0179091A1173091181EAD
:10339000387F303211F40C94213331110C94B73151
:1033A0004091A0175091A1174130510511F40C9490
:1033B000BB3A2091A0173091A117A091CC17B091E2
:1033C000CD17E091CC17F091CD172230310511F4D3
:1033D0000C949B3520E432E44FE050E00F94F47AF3
:1033E0006BA77CA78DA79EA7A091EC04B091ED04DC
:1033F000AA0FBB1FAA0FBB1FA950B64FCD90DD90DF
:10340000ED90FC90A091EC04B091ED04AA0FBB1FCD
:10341000AA0FBB1FAD50B64F8D909D90AD90BC9044
:10342000A091EC04B091ED04AA0FBB1FAA0FBB1F23
:10343000A950B64F4D905D906D907C90DF0120E4D7
:1034400032E44FE050E00F94F47AA70196010F9414
:10345000B17A69017A016BA57CA58DA59EA5A50110
:1034600094010F94B17AD701C601821B930BA40B70
:10347000B50BBC01CD01EAE0660F771F881F991FCD
:10348000EA95D1F763015201AA0CBB1CCC1CDD1CD0
:10349000A40CB51CC61CD71CA6019501220F331F16
:1034A000441F551F0F94B17A220D331D40E050E0A8
:1034B00060EA70EB88E290E00F947E7A29833A8389
:1034C0004B835C836D837E838F83988769817A8148
:1034D0007093F80B6093F70BE090F70BF090F80BFC
:1034E000F294E294BFE0EB22EF24FB22EF24F0926F
:1034F000CC08E092CB08CCC39091F31790930F05C2
:10350000E0900B05F0900C0500910D0510910E0553
:10351000E0920705F09208050093090510930A054B
:103520000F946B3C60930B0570930C0580930D0515
:1035300090930E05809106050F944B3C80910605F3
:103540000F944B3CFC0103978B3F934008F485CCD0
:10355000309105053F5F3093050570907608711036
:1035600083CCF093F017E093EF17A3CC90908418DE
:1035700090FE06C0F091B108F13011F40C94C4240F
:10358000C05CDF4F0FB6F894DEBF0FBECDBFDF913A
:10359000CF911F910F91FF90EF90DF90CF90BF9050
:1035A000AF909F908F907F906F905F904F903F90E3
:1035B0002F9008956091F3177091F41770938F18FE
:1035C00060938E1816CD00914F170D7F00934F1703
:1035D000809196040F944B3C809196040F944B3C41
:1035E0004091541E50E000E011E0D801A41BB50B3F
:1035F0002090091830900A189C010F94377B3B01EA
:103600004C019A01D1010F94377BDC01CB01860D6F
:10361000971DA81DB91D692F7A2F8B2F992787FD1C
:103620009A9570930A18609309188CEC96E00F94A1
:10363000330B88979093081880930718809187041C
:103640000F944B3C809187040F944B3C4091551E46
:1036500050E0D801A41BB50B40900D1850900E18E7
:103660009C010F94377B6B017C019A01D2010F946E
:10367000377BDC01CB018C0D9D1DAE1DBF1D692F5D
:103680007A2F8B2F992787FD9A9570930E18609348
:103690000D188CE396E00F94330B889790930C18D9
:1036A00080930B18F091811DF695F695F37011F447
:1036B0000C947923809185040F944B3C8091850470
:1036C0000F944B3C4091561E50E0D801A41BB50B03
:1036D000E0911118F09112189C010F94377B7B0137
:1036E0008C019A01DF010F94377BDC01CB018E0D39
:1036F0009F1DA01FB11F692F7A2F8B2F992787FD40
:103700009A9570931218609311188CEA95E00F94B3
:10371000330B809305188091BA080F944B3C80912D
:10372000BA080F944B3C4091561E50E0A0E0B1E027
:10373000A41BB50BE0911318F09114189C010F9481
:10374000377B6B017C019A01DF010F94377BDC0131
:10375000CB018C0D9D1DAE1DBF1D692F7A2F8B2FA8
:10376000992787FD9A9570931418609313188CEA23
:1037700095E00F94330B80930618809184040F9486
:103780004B3C809184040F944B3C25EF30E0DC01EE
:103790000F94377BDC01CB015AE0B695A79597953E
:1037A00087955A95D1F720916E1E022E000C330B8F
:1037B0007901E80EF91E10911818F7FE02C00C945A
:1037C0004532173310F00C94392E57E4E516F10406
:1037D00014F40C94392EA091E817B091E917AB2B93
:1037E00011F00C94392E50904A185092F404109213
:1037F000750870909904E0919704F09198044081C5
:10380000472940835091F51D57705450523010F4A1
:103810000C94443D9701FF0C440B550B1091181864
:10382000E091571EF0E0A0E0B1E0AE1BBF0B0F949B
:10383000F47A4B015C01212F30E0DF010F94FC7A18
:10384000DC01CB01880D991DAA1DBB1D9093181892
:103850002091861B322F337011F40C944A32E09180
:103860005B04F0915C04B080D0905A04DB2060913E
:103870008B1B66FF02C00C94E029DD2011F40C9430
:10388000E4298091871B90E08797A0900718B0905B
:103890000818A816B90614F40C94E4291091FC1722
:1038A0007091891B711710F00C94E429F0900518A1
:1038B00090908A1BF91410F00C94E4298091881BD5
:1038C00090E0880F991F092E000CAA0BBB0B4091AA
:1038D000F3175091F4176091F5177091F617481788
:1038E00059076A077B0714F00C94E42930908C1B6D
:1038F00000918D1BB091921B94E6B99F3001112469
:103900008091931B109287184090E8175090E91708
:10391000F4E63F9E100111242414350410F00C9499
:10392000883FA4E60A9F600111244C145D0410F046
:103930000C94883F21E0209387186091841862607E
:1039400060938418B0906004E0916104F091620487
:10395000D080DB28D0821091861B1370123011F0BA
:103960000C94FF29A090E817B090E9176A147B0423
:1039700010F00C94FF2974E6879F80011124A01693
:10398000B10610F00C94FF29B0918718BE5FB09378
:10399000871890918418926090938418F0905D0439
:1039A000E0915E04F0915F0490809F2890820C94D7
:1039B000FF2900914F170F7E00934F17D090811D64
:1039C000D4FCC0C410916F001D7F10936F00109243
:1039D000861810928518B0912104BF5FB09321041E
:1039E0009091811D95FD02C00C94E42CE091E817A4
:1039F000F091E917309711F40C94E42C6091181EA3
:103A0000687F683411F40C941C3B8091871D082F4B
:103A10000370023010F40C94183C023011F40C9432
:103A200004382090260430902704409028045090B9
:103A30002904F0919D18F093AF182092220430923F
:103A400023044092240450922504FF2311F40C9483
:103A5000433CF43610F00C941B3DE0916F00E460A1
:103A6000E0936F0020919D18243610F4109259199C
:103A70007091AF18743610F00C94052D0C94032D32
:103A8000613009F04BC42216330609F484C8D3010F
:103A90009C91929596959695937031F0F701828D51
:103AA000853710F40C94E431F70182855FEF580FED
:103AB0005E3FD8F4D5016D917C9190E0681779074D
:103AC00010F40C94C0338281813810F40C94A93521
:103AD000782D002E01C0770F0A94EAF7672E909197
:103AE000B01896299093B01824C8F70182818138C4
:103AF00078F761E0442443949401002E01C0220F22
:103B00000A94EAF7622E2090851A222162270F94E8
:103B1000D83B4110E4CF4EC88091BE08B7FE15C710
:103B20000F94A83B21E0892B09F415C72093720953
:103B3000D21641F0C090E817D090E917D0925418EF
:103B4000C09253185091B11D507411F40C945C3212
:103B5000222311F40C9453323090C01D64E6369E3B
:103B6000400111242090531830905418281439041F
:103B700008F0B6C75090B41D04E6509E70011124A1
:103B8000A090E817B090E917EA14FB0408F0A8C762
:103B90007090FC17B0915B1B7B1608F4A1C731E055
:103BA00030935018F0913618F160F09336180C9459
:103BB0006315509138185E7F5260509338181092F8
:103BC00049183090521E30FE05C060E08091B9085F
:103BD0000F94D83BA090EB1EA1FC97CA2090F91D32
:103BE00020FC02C00C949D3370901D04E0911E04D3
:103BF000F0911F0410811729108387CAF8945091FF
:103C0000D6175523B1F0A090D217B090D317C0901B
:103C1000D417D090D5170091CE171091CF172091BF
:103C2000D0173091D1170A151B052C053D0508F456
:103C3000CDC678942090E8173090E917910140E0C4
:103C400050E060EA70EB88E290E00F947E7A29877A
:103C50003A874B875C876D877E878F87988BC9846F
:103C6000DA84D092F80BC092F70B8090F70B90900B
:103C7000F80B929482945FE085228924952289240E
:103C80009092CC088092CB080091391810913A1884
:103C90006091CB087091CC0880E098E00F949D7AF9
:103CA0007093AC026093AB022091F70B3091F80B4C
:103CB00040E050E060E070E088E090E00F947E7AB1
:103CC0002093EE083093EF084093F0085093F108EA
:103CD000A091CD1E2091D7173091D8174091D917B8
:103CE0005091DA17B0E00F94E97A24E630E040E032
:103CF00050E00F94B17ACA01B9017090C91E72FCEC
:103D000004C0660F771F881F991F2091881830E024
:103D100040E050E00F94B17A49015A01D090381830
:103D2000F090431BD1FC03C1F2FC03C1C801A0E029
:103D3000B0E0281739074A075B0728F48901309358
:103D40003A182093391810933C1800933B1810939D
:103D50003E1800933D181093401800933F1810939D
:103D6000421800934118109344180093431810937D
:103D7000461800934518109348180093471891016E
:103D80003695279536952795ABE7B4E10F94FC7AE5
:103D9000BC01769567958CEC97E00F94330B1C0172
:103DA00090939F1880939E186091CB087091CC08D7
:103DB0008091391890913A180F946A7AAB01BC013E
:103DC0009A016090D2047090D304620C731C8090AE
:103DD0000202909003026416750610F4680C791CB8
:103DE000C301841B950B21969FAF8EAF2197881638
:103DF000990650F4DC01A819B9098A169B06D8F374
:103E00002196BFAFAEAF21971091C91E712F729549
:103E10007F70872F90E0FC013197E830F10508F4BE
:103E20003BC2612C712CC12CD12CE12CF12CF091D6
:103E30003818F1FF22C23090201EE4E63E9E400179
:103E40001124909216188092151854016091181838
:103E500070E08CEE97E00F94330B80931718843644
:103E600091F01C013324B40180E090E024E630E0BE
:103E700040E050E00F947E7A229E5001239EB00CC9
:103E8000329EB00C1124B0911A1E8B2E912CA501DC
:103E900084E6B89F400D511D112420911F1E2C71E6
:103EA000243009F4B3C0203109F4B0C021E060919E
:103EB000D7177091D8178091D9179091DA171A01F6
:103EC000412C512C621573058405950588F4022E4A
:103ED000000C330B440B550B0F94B17A8CE9182F5F
:103EE000B40116035001179FB00C1124A20EB31E8B
:103EF000B0921618A0921518B501BB0C880B990B3F
:103F000041E00E9409D55C015090C91EA52DA295E3
:103F1000AF708A2F90E0FC013197E830F10508F08E
:103F2000DDC08827EB55FF4F8F4F0D94277BF2FEA6
:103F30000ACF872D82958F7090E005970CF0E5C32E
:103F4000C090FF04D0900005C016D10608F0FBCE4B
:103F50000C191D0910933A1800933918A091FD040B
:103F6000B091FE049D0140E050E02BAB3CAB4DAB6B
:103F70005EAB98010F94FC7A24E6422E512C612C02
:103F8000712CA30192010F94B17A2BA73CA74DA7E6
:103F90005EA7F3FC02C00C945E3A0BA51CA518ABFF
:103FA0000FA710933A180093391882169306A406A7
:103FB000B50610F40C942F3710923E1810923D184D
:103FC00020E030E08FA498A890923C1880923B1893
:103FD0003093401820933F18D2CE0BA50C700830B8
:103FE00009F024C990904918C0908B1DC91408F09D
:103FF0001DC9D5010F94E97A9B01AC0167E0569584
:104000004795379527956A95D1F710C98091C91EB4
:1040100082958F7090E0823091050CF447CF959592
:104020008795282FBA01689FA001699F500D789F3E
:10403000500D11243CCF2091040230910502409193
:104040001918042E000C550BC901841B950B281759
:10405000390724F488279927841B950B9093DD0456
:104060008093DC048A199B0997FF02C00C941A3ACA
:104070009093BC028093BB024090CE045090CF043A
:10408000441A550A2415350514F4421A530A50925D
:10409000DB044092DA044A185B0857FE02C00C9415
:1040A000163A5092BA024092B9028090C804909099
:1040B000C904841A950A2815390514F4821A930A3A
:1040C0009092D9048092D8048A189B0897FE02C067
:1040D0000C94123A9092B8028092B702A090CB1E34
:1040E000A6FE02C00C943F2EE091A617F091A717F0
:1040F00019955C01209102023091030228173907BB
:104100006CF421966EAD7FAD2197A21AB30A2A15E1
:104110003B05DCF321967FAF6EAF21975091A71836
:10412000452F4E7F4093A7182091E8173091E9174B
:104130009090291E14E6919ED0011124A217B30776
:1041400010F40C94AE2D709136187B7F7093361856
:104150003090871D37FE18C08091B91D90E0880F00
:10416000991F092E000CAA0BBB0B2090F31730905F
:10417000F4174090F5175090F61782159305A40593
:10418000B50514F40C94FD33309136183F7E30930E
:104190003618B0913518BF7DB09335185A7F5093BB
:1041A000A7189091C21B9670963011F40C94D53ECE
:1041B00020905018211006C020915518222311F488
:1041C0000C94E02B3090BF1E33FE02C00C94813063
:1041D0003091811D3295369536953370313011F41A
:1041E0000C94423A10F40C94393A323011F40C9495
:1041F000323A1092C9021092C80219A660901F1E8E
:1042000067FC02C00C947B2AB0903818B1FC02C045
:104210000C947B2AA0905D17AA2011F40C947B2AA1
:1042200080911518909116181C01220C331C820DD8
:10423000931D9093EF048093EE04E091E817F091C2
:10424000E917EA3FF10510F40C94FE3419A5111199
:104250000C94842A5090841850FC92C97091B10833
:10426000713009F08DC98091BF080F94375130919A
:10427000841831603093841883C95091EB1E52FD2D
:104280006CC33091211E14E6319F4001112490929D
:10429000161880921518D9CD8827E355FF4F8F4FF8
:1042A0000D94277BB091EB1EB0783B2E11F00C944F
:1042B000ED2F92010E2C02C0220F331F0A94E2F759
:1042C0003695279536952795ABE7B4E10F94FC7AA0
:1042D000FC01F695E7952801012E000C6608770889
:1042E0009601D8010F94377B9B01AC0167E056958E
:1042F0004795379527956A95D1F79F2D9295969575
:104300009695937011F40C941619A3E9AA2EB12C6A
:104310000C940519B7E0EB2E0C94A718623011F439
:104320000C94E62F633011F00C9462382216330699
:104330000CF0ADCB0C94CB158FEF9FEFA0E0B0E06D
:104340000C945619F0901F1EF0FC02C00C941C39FE
:10435000409121044770413011F40C94ED3E2091BE
:10436000F3173091F4174091F5175091F617243652
:1043700031054105510514F40C94D13A8090CB1EBF
:1043800081FE02C00C947A3810928618109285181B
:1043900080915A1890915B18892B11F40C94D13AA2
:1043A000F0912104FF70F13011F40C94593F3FB6A5
:1043B000F894C090381FD090391FE0903A1FF090C9
:1043C0003B1FCBA6DCA6EDA6FEA63FBE4090BE19C5
:1043D0005090BF196090C0197090C1198701760183
:1043E000E418F50806091709E091BC19F091BD1908
:1043F000808190E0A0E0B0E0E816F9060A071B070C
:1044000010F40C94CA39E091B819F091B9192081CF
:104410003181E091BA19F091BB1920803180220CD2
:10442000331C61E177E2621973096B01E12CF12C15
:10443000A0E1B7E20F94FC7AA70196010F947E7A6F
:1044400039014A01E091B419F091B5192081318107
:1044500042815381A0E1B7E20F94E97AA701960166
:104460000F947E7A23013401421A530A640A750AB2
:10447000C090C619D090C719E090C819F090C9191A
:10448000C40CD51CE61CF71CC092C619D092C719E3
:10449000E092C819F092C9198090AE199090AF19A6
:1044A0008114910411F40C94483D2091D21930915B
:1044B000D3194091D4195091D5192BAB3CAB4DABCE
:1044C0005EABA12CB12C2253310941095109A0E165
:1044D000B7E20F94E97AA50194010F947E7A57FF11
:1044E00002C00C94CE402C153D054E055F0554F4DA
:1044F0002093C6193093C7194093C8195093C9190E
:1045000069017A018091CE199091CF19A091D019AB
:10451000B091D1198FA798ABA9ABBAAB22E330E029
:1045200040E050E06FA578A989A99AA9261B370B0E
:10453000480B590BA0E1B7E20F94E97AA501940169
:104540000F947E7A57FF02C00C94C94066277727E4
:10455000CB01621B730B840B950BC616D706E806BE
:10456000F90654F46093C6197093C7198093C8195B
:104570009093C9196B017C018091C2199091C31964
:10458000A091C419B091C519A3019201281B390B40
:104590004A0B5B0BA091B019B091B1190F94E97A55
:1045A0006FAB78AF89AF9AAFA091AC19B091AD194C
:1045B000A30192010F94E97A6BAF7CAF8DAF9EAFF0
:1045C000A5019401C701B6010F940B7B8BAC9CAC89
:1045D000ADACBEAC860E971EA81EB91E4FA958AD35
:1045E00069AD7AAD480D591D6A1D7B1DCB01BA011D
:1045F0002AE030E040E050E00F947E7A49015A0111
:1046000018E8810E13E1911EA11CB11CA4E6B0E0D4
:104610002BA93CA94DA95EA90F94E97A68157905E3
:104620008A059B0574F4C418D508E608F708C092FB
:10463000C619D092C719E092C819F092C9194B0156
:104640005C01A4E6B0E02FA538A949A95AA90F94A6
:10465000E97A86169706A806B90674F4C418D50830
:10466000E608F708C092C619D092C719E092C81997
:10467000F092C9194B015C01E091B619F091B7199C
:1046800091828082ABA4BCA4CDA4DEA4A092BE196A
:10469000B092BF19C092C019D092C1194092C219EC
:1046A0005092C3196092C4197092C51920915E1876
:1046B00030915F182115310511F40C94D239A09175
:1046C000D302B091D4020F94FC7A20E137E240E0AB
:1046D00050E00F94B17A20935319309354194093BA
:1046E00055195093561970916F00726070936F0056
:1046F00072C91092121810921118109205180BC856
:10470000661F6627661F0C94B91773FE1CCB18CC66
:104710000160009338180C9485188FE390E0821B99
:104720009109830F911D0C94F4168FE390E0851985
:104730009109860D911D0C94DF168FE390E0881986
:104740009109890D911D0C94CA160F9427190C9488
:10475000CC139090F31790920F0560900B0570901A
:104760000C0580900D0590900E05609207057092E3
:1047700008058092090590920A050F946B3C60939E
:104780000B0570930C0580930D0590930E05809199
:1047900006050F944B3C809106050F944B3CAC01F1
:1047A000435051094B3F534010F00C942A13109280
:1047B00005050C942F139090E717992011F40C9491
:1047C000FC124091561850915718609158187091EA
:1047D0005918423051056105710510F40C94FC1212
:1047E00080915B0990915C09C0907804D090790425
:1047F000E0907A04F0907B04A0E0B0E08C159D0579
:10480000AE05BF0511F40C947D3C409072045090AD
:1048100073046090740470907504452846284728F6
:1048200009F466C5E0917604F0917704EF2B09F462
:104830005FC580915B0990915C09A0E0B0E0C8166B
:10484000D906EA06FB0608F053C55091F3175093BA
:104850000F05A0900B05B0900C05C0900D05D090F1
:104860000E05A0920705B0920805C0920905D092E6
:104870000A050F946B3C60930B0570930C058093B5
:104880000D0590930E05209176043091770440E059
:1048900050E060917204709173048091740490915F
:1048A00075040F947E7A29A33AA34BA35CA36DA34E
:1048B0007EA38FA398A7A9A1BAA1B093F017A09344
:1048C000EF173090D31E2091D41E3091D51E23199E
:1048D000310937FC33950F94377B7B018C01AAE0BB
:1048E00016950795F794E794AA95D1F7632D330CA5
:1048F000770B880B990B6E0D7F1D801F911F6093A6
:10490000F3177093F4178093F5179093F6170E949E
:10491000E0BE80915B0990915C09A0E0B0E08093DB
:10492000780490937904A0937A04B0937B04109256
:104930007204109273041092740410927504109211
:104940007704109276040C9484170F94A83B21E00E
:10495000892B09F4EBC820E0E9C84091E817509191
:10496000E9176091F3177091F41785E09BE10F94BC
:10497000CC0574E6789F4001799F900C11249092A9
:1049800016188092151861CA60E08091BF080F94D4
:10499000D83BA0918418AE7FA09384180C94C01AC1
:1049A0006090491830908B1D361410F00C94D31879
:1049B0007090051820E8729EC0011124609129189A
:1049C00070E00F949D7A5B010C94D618E09100186A
:1049D000F09101181E161F0614F00C94ED36A091EC
:1049E0000018B09101185F970CF423C98091D21779
:1049F0009091D317A091D417B091D5174090CE17AE
:104A00005090CF176090D0177090D1172091CC178D
:104A10003091CD17789484199509A609B709880FA4
:104A2000991FAA1FBB1F880F991FAA1FBB1FBC017C
:104A3000CD01660F771F881F991F660F771F881F8C
:104A4000991F40E050E00F94B17A3093F80B209317
:104A5000F70BE090F70BF090F80BF294E294FFE084
:104A6000EF22EF24FF22EF24F092CC08E092CB0853
:104A70002090E8173090E9170091391810913A18F2
:104A800007C97091F31770930F05C0900B05D09074
:104A90000C05E0900D05F0900E05C0920705D09230
:104AA0000805E0920905F0920A050F946B3C6093AB
:104AB0000B0570930C0580930D0590930E05809166
:104AC00006050F944B3C809106050F944B3CFC016E
:104AD00003978B3F934010F40C942D170C94A81A55
:104AE00010925018A0913618AE7FA09336184090BF
:104AF000BD1D43FC02C00C9461150C945815B09078
:104B0000431BB2FE8EC980913D1890913E180097CC
:104B100009F487C96091CB087091CC080F946A7A28
:104B2000C090D004D090D104C20CD31CC616D706B6
:104B300010F4C80CD91CC61AD70A8C149D0410F0A6
:104B40000C9418412196EEACFFAC2197C818D908F7
:104B50008C149D04D8F32196FFAEEEAE2197612C04
:104B6000712CE12CF12C63C9E090CC04F090CD04C1
:104B7000E20CF31CE216F30610F40C945435E41A1C
:104B8000F50A8E149F0468F421966EAD7FAD2197CF
:104B9000E818F9088E149F04D8F321967FAF6EAF02
:104BA0002197C090D004D090D104C20CD31CC2165F
:104BB000D30610F40C946C35C41AD50A8C149D04D9
:104BC00068F421964EAC5FAC2197C818D9088C14B4
:104BD0009D04D8F321965FAE4EAE21976090CA0433
:104BE0007090CB04620C731C6216730610F40C9464
:104BF0006835641A750A8614970408F018C9219656
:104C00000EAD1FAD21976818790886149704D8F364
:104C100021961FAF0EAF21970AC9E090CC04F09007
:104C2000CD04E20CF31CE216F30610F40C9450359C
:104C3000E41AF50A8E149F0468F42196EEADFFADD8
:104C40002197E818F9088E149F04D8F32196FFAF36
:104C5000EEAF2197C090D004D090D104C20CD31CE9
:104C6000C216D30610F40C946435C41AD50A8C14F9
:104C70009D0468F421964EAD5FAD2197C818D90800
:104C80008C149D04D8F321965FAF4EAF2197612C11
:104C9000712CCDC8E090CC04F090CD04E20CF31C54
:104CA000E216F30610F40C944C35E41AF50A8E144F
:104CB0009F0468F42196CEACDFAC2197E818F90880
:104CC0008E149F04D8F32196DFAECEAE2197C0900C
:104CD000D004D090D104C20CD31CC216D30610F459
:104CE0000C94FA34C41AD50A8C149D0468F42196E5
:104CF000AEACBFAC2197C818D9088C149D04D8F36A
:104D00002196BFAEAEAE21976090CA047090CB04DE
:104D1000620C731C6216730610F40C94F634641A59
:104D2000750A8614970408F082C821960EAD1FAD4F
:104D300021976818790886149704D8F369CFE09012
:104D4000CC04F090CD04E20CF31CE216F30610F450
:104D50000C944835E41AF50A8E149F0468F42196E1
:104D60006EAC7FAC2197E818F9088E149F04D8F335
:104D700021967FAE6EAE2197B091CB1EB073B0334B
:104D800011F40C94BC355090431B52FEABC2809181
:104D90003D1890913E18009709F4A4C26091CB0889
:104DA0007091CC080F946A7AC090D004D090D1044E
:104DB000C20CD31CC616D70610F4C80CD91CC61AD0
:104DC000D70A8C149D0468F421962EAC3FAC219731
:104DD000C818D9088C149D04D8F321963FAE2EAE86
:104DE0002197340197FE02C00C94833F7594679419
:104DF0006C0C7D1C8614970408F019C86818790893
:104E000016C8409104025091050220911918022EF3
:104E1000000C330BCA01821B930B4817590724F46B
:104E200088279927821B930B9093DD048093DC04E1
:104E30008A199B0997FF02C00C945D379093BC02BE
:104E40008093BB026091CE047091CF04621B730B00
:104E50004617570714F4641B750B7093DB046093BB
:104E6000DA046A197B0977FF02C00C94FB36709351
:104E7000BA026093B90290911F1E9C719C3011F48C
:104E80000C94B736903109F029C9F091CA1EF77019
:104E900011F00C94CB3E8091F3179091F417A091F0
:104EA000F517B091F617B7FF02C00C94F240BC01A1
:104EB000CD0195958795779567958CE597E00F944B
:104EC000330B282F30E0A091DC04B091DD04A20F59
:104ED000B31FB093D904A093D804AA19BB09B09307
:104EE000B802A093B70240910402509105024A17FC
:104EF0005B0714F00C94B73EA41BB50BB093B8023B
:104F0000A093B7024090DA045090DB04240D351DC5
:104F10003093D7042093D6042A193B09421753072C
:104F200014F40C94C33E3093B6022093B50237FFBD
:104F3000D5C8240F351F3093B6022093B502CEC8D2
:104F4000209104023091050240911918042E000CA2
:104F5000550BC901841B950B2817390724F48827A2
:104F60009927841B950B9093DD048093DC048A19A8
:104F70009B0997FF02C00C940F379093BC0280935B
:104F8000BB028091CE049091CF04841B950B28170F
:104F9000390714F4821B930B9093DB048093DA049B
:104FA0008A199B0997FF02C00C9461379093BA024B
:104FB0008093B90293C82091040230910502409178
:104FC0001918042E000C550BC901841B950B2817CA
:104FD000390724F488279927841B950B9093DD04C7
:104FE0008093DC048A199B0997FF02C00C940B374D
:104FF0009093BC028093BB020091CE041091CF0429
:10500000041B150B2017310714F4021B130B10930C
:10501000DB040093DA040A191B0917FF02C00C9481
:1050200059371093BA020093B902E091C804F09185
:10503000C904E41BF50B2E173F0714F4E21BF30B16
:10504000F093D904E093D804EA19FB09F7FF02C0F2
:105050000C945537F093B802E093B7022090C60441
:105060003090C704241A350A2215330514F4221A85
:10507000330A3092D7042092D6042A183B0837FE10
:1050800002C00C9497353092B6022092B50226C821
:10509000409104025091050220911918022E000C33
:1050A000330BCA01821B930B4817590724F4882736
:1050B0009927821B930B9093DD048093DC048A195B
:1050C0009B0997FF02C00C9413379093BC02809306
:1050D000BB020C946E20E090CC04F090CD04E20C66
:1050E000F31CE216F30610F40C946035E41AF50A8A
:1050F0008E149F0468F42196AEADBFAD2197E818D9
:10510000F9088E149F04D8F32196BFAFAEAF219754
:10511000C090D004D090D104C20CD31CC216D306C8
:1051200010F40C945835C41AD50A8C149D0408F058
:10513000AECD21964EAD5FAD2197C818D9088C141D
:105140009D04D8F3A0CD2091040230910502409136
:105150001918042E000C550BC901841B950B281738
:10516000390724F488279927841B950B9093DD0435
:105170008093DC048A199B0997FF02C00C94FF36C8
:105180009093BC028093BB020091CE041091CF0497
:10519000041B150B2017310714F4021B130B10937B
:1051A000DB040093DA040A191B0917FF02C00C94F0
:1051B0002B371093BA020093B902E091C804F09122
:1051C000C904E41BF50B2E173F0714F4E21BF30B85
:1051D000F093D904E093D804EA19FB09F7FF02C061
:1051E0000C940737F093B802E093B7022090C604FE
:1051F0003090C704241A350A2215330514F4221AF4
:10520000330A3092D7042092D6042A183B0837FE7E
:1052100002C00C9403373092B6022092B5028091FE
:10522000C4049091C504841B950B2817390714F406
:10523000821B930B9093D5048093D4048A199B0905
:1052400097FF02C00C9427379093B4028093B30267
:105250000C946E20E090CC04F090CD04E20CF31C92
:10526000E216F30610F40C945C35E41AF50A8E1479
:105270009F0468F421964EAC5FAC2197E818F908BA
:105280008E149F04D8F321965FAE4EAE2197909175
:10529000431B92FF27C080913D1890913E180097C4
:1052A00009F16091CB087091CC080F946A7AC09094
:1052B000D004D090D104C20CD31CC616D70610F46B
:1052C000C80CD91CC61AD70A8C149D0408F089CDC5
:1052D00021962EAC3FAC2197C818D9088C149D0498
:1052E000D8F37BCD612C712CC12CD12C0C94171FC1
:1052F000B090F317B0920F0500910B0510910C05BB
:1053000020910D0530910E050093070510930805B7
:105310002093090530930A050F946B3C60930B05AD
:1053200070930C0580930D0590930E0580910605F2
:105330000F944B3C809106050F944B3C9C012350ED
:1053400031092B3F334010F40C941E3A109105059F
:105350001F5F10930505D0907608D1100C9470351E
:105360009093F0178093EF17F090D31E2091D41EE6
:105370003091D51E2F193109F7FC3395DC010F94BC
:10538000377B1B012C01FAE05694479437942794FD
:10539000FA95D1F74F2DFF0C550B660B770B420D8D
:1053A000531D641D751D77FF02C00C94073D40938B
:1053B000F3175093F4176093F5177093F617A9CA73
:1053C000DD2011F40C94411C109287185091841820
:1053D0005D7F5093841850906004E0916104F091D7
:1053E0006204708050945720508280905D04E09158
:1053F0005E04F0915F0430818094832280820E9459
:105400003D8AF894609066097090670980906809F9
:105410009090690920906209309063094090640976
:1054200050906509789480910B1F8370813009F446
:1054300042C490E002970CF43EC480917004843022
:1054400009F0ECC6621473048404950410F40C94FF
:10545000F73340916C0450916D0460916E0470912B
:105460006F0430900E1F4090A1185090A2189A011E
:10547000AB0156954795379527955695479537959E
:105480002795A0910C1FB0910D1F0F94E97A9B01F5
:10549000AC0160E074EA83E996ED0F94B17A442799
:1054A0005527E32DF0E0A0E0B1E0AE1BBF0B0F9459
:1054B000F47A7B018C019F01D2010F94FC7A4B019D
:1054C0005C018E0C9F1CA01EB11EBB27B7FCBA95B9
:1054D000AB2D9A2D892D893EF3E09F0708F42C010E
:1054E0001092700410926C0410926D0410926E046D
:1054F00010926F04A8C61092EF041092EE0419A542
:10550000112311F40C942A21E091A617F091A7170A
:1055100019958C0120910402309105022817390752
:105520002CF4021B130B20173107DCF38091BB0214
:105530009091BC02081719070CF4CDC7609188033D
:10554000709189036330710509F4BBC760918803CA
:10555000709189036330710511F40C9448393091CE
:105560000002323010F40C942A218090CE049090E6
:10557000CF045801A818B908B7FE02C00C942A3A03
:105580008091B9029091BA028819990997FF02C0D7
:105590000C94223AA816B90614F00C94DB338A193D
:1055A0009B090F943132611571058105910531F028
:1055B0007090BE0271FC02C00C94853730910002DD
:1055C000333010F40C942A21E090C804F090C90400
:1055D00028014E185F0857FE02C00C94D33C8091FE
:1055E000B7029091B8028E199F0997FF02C00C94E0
:1055F000103C4816590614F40C948834A0915603B4
:10560000B0915703139711F40C947D34343010F497
:105610000C942A21E090C604F090C70418012E18BB
:105620003F0837FE02C00C94083C8091B50290916F
:10563000B6028E199F0997FF02C00C94603C281691
:10564000390614F00C94F939821993090F94313208
:10565000611571058105910531F0F090BE02F3FCF2
:1056600002C00C946E3D30910002353010F40C9461
:105670002A21E090C404F090C5040E191F0917FFF9
:1056800002C00C94703C8091B3029091B4028E19C8
:105690009F0997FF02C00C94683C0817190714F083
:1056A0000C94E339801B910B0F9431326115710515
:1056B0008105910511F40C942A21D090BE02D4FEEC
:1056C00002C00C942A2100911518109116186090B0
:1056D000EE047090EF04060D171D20E030E0A0915D
:1056E0002403B0912503139711F40C942C40C0901F
:1056F000A004D090A104E091A204F091A304F0933F
:105700002803E0932703D0922A03C0922903009331
:1057100020031093210320932203309323036D3F32
:105720004FEF740743E08407910510F00C94E03FBD
:10573000DC01CB01B695A79597958795B695A7956A
:1057400097958795BC01F8948091A4009091A5004D
:10575000680F791F7093300360932F0370903803A4
:10576000711012C0E0902F03F0903003369527950A
:105770001795079536952795179507950E0D1F1DBB
:10578000109332030093310300912F0310913003E3
:105790001093AD000093AC0021E030E0309325037E
:1057A00020932403F0912603FF5FF093260378945F
:1057B000CB9A909172009860909372000C942A2179
:1057C0001092BE026091C90269A75090C80255208C
:1057D00011F40C94FE204090351845FE02C00C9444
:1057E000FE208090391890903A186091FF047091D3
:1057F000000586169706B8F02196AEADBFAD21978D
:10580000AA16BB060CF0A5C7AA19BB092091CB08A4
:105810003091CC081401412C512C0F94377BA201FC
:1058200091010E946EC79090E004992009F43FC056
:10583000E0913B18F0913C188091FF049091000595
:10584000E817F907A0F12090CC043090CD04950121
:105850002219330937FF02C00C947D37E218F30890
:10586000F7FE02C00C9417372E153F0584F06091A7
:1058700001047091020463307105C9F4A091020221
:10588000B0910302EA0EFB1E2E153F0584F4D701EA
:10589000A21BB30B2091CB083091CC081F01412CE7
:1058A000512C0F94377BA20191010E94E7C6F09022
:1058B000DF04FF20F1F1E0903D18F0903E180091D8
:1058C000FF0410910005E016F10698F14091D00414
:1058D0005091D104F501E41BF50BF7FF02C00C94C5
:1058E0001F37C41AD50AD7FE02C00C946537EC15D1
:1058F000FD0584F02091F1033091F203233031054E
:10590000C1F44090020250900302C40CD51CEC1567
:10591000FD057CF4D601AE1BBF0B2091CB08309166
:10592000CC0800E010E00F94377BA80197010E949B
:1059300060C6D090DE04DD2011F40C94FE20C090EF
:105940003F18D09040188090FF0490900005C81434
:10595000D90410F40C94FE206091CA047091CB0419
:10596000A61AB70AB7FE02C00C946D37661A770AFA
:1059700077FE02C00C947537A614B704A4F000910A
:10598000E1031091E2030330110511F00C94FE20A5
:105990004091020250910302640E751EA614B704D2
:1059A00014F00C94FE20D301AA19BB092091CB0856
:1059B0003091CC08E12CF12C0F94377BA701960194
:1059C0000E94D9C50C94FE2010916F001B7F10938C
:1059D0006F0010929D1810922604109227041092C6
:1059E0002804109229041092AF18109222041092E9
:1059F0002304109224041092250410925A19109234
:105A0000591910925819109257197090811D75FCF0
:105A100097C08091D01B80FF93C00091D81B00FDE0
:105A20003EC71092A9182090FC174091D11B241654
:105A300008F444C7B090EA176090D21BB61408F47B
:105A40003DC76091F3177091F4178091F51790910D
:105A5000F6178B019C0197FF02C00C94EC40359522
:105A6000279517950795C090D31BD12CE12CF12CCD
:105A70000C151D052E053F050CF420C7A0910B1831
:105A8000B0910C1898964091D51B50E0A417B5071B
:105A90000CF414C75091D01B56955F73513011F41C
:105AA0000C942E4110F40C94E43C523011F40C94FC
:105AB0002341533009F002C7D090D61B40903918CB
:105AC00050903A184D0C511CD7FC5A9457FE02C006
:105AD0000C9449414091E8175091E91787E19BE107
