:100000000C94E6100D94C3430D9498430D946D43E6
:100010000D9442430D9417430D94EC420D94C1424C
:100020000D9496420C9417110C9417110C941711FF
:100030000C9417110C9417110C9417110D9416377A
:100040000C9417110C94A5530C949B510C943ACE1C
:100050000C9417110C9417110C9417110D94D16076
:100060000C9417110D9456450D9416450C941711C8
:100070000C9417110C9417110C9417110C94171160
:100080000D94A1340D9426340D94AB330C941711B8
:100090000C9417110C9417110C9417110C94171140
:1000A0000C9417110C9417110D94602F0D9430338C
:1000B0000D946E2E0C9417110C9417110D943C3264
:1000C0000D9448310D9454300C9417110C94171161
:1000D0000C9417110C9417110D94DF440D949F4448
:1000E0000C9417110D94486B0D94D84C0C9460959A
:1000F0000C940BAE0D94DA3F0D94A03E0C942E5A46
:100100000C94F8BE0D94BB3E0C94F57C0D94280F16
:100110000D94783F0C94A17C0C94FF660D941B44C5
:100120000D94EB780D946C4E0D942A510D94733E02
:100130000D94F53E0C9429480C94636F0C946FBB9E
:100140000C94B2770D94B83E0C9418790C94DAFDA7
:100150000C9417480C9462120C94C3940D94D4140C
:100160000C94597E0C9485590C94C5810D94DD3FF7
:100170000C943B480D944F3F0C9417EB0C940B1EC2
:100180000D944A120D949A3E0D944A400C9450FEE0
:100190000C94F5870C949A6D0C944ABE0D94823E93
:1001A0000D943C0A0C9432240D9489410D94E45032
:1001B0000C940BFF0D94C73E0D948A3F0C9441485C
:1001C0000C9438480C9446C60C94C5AE0D94E826A1
:1001D0000C94DCFF0D9460110D94FB3E0C94A5195A
:1001E0000C94A3820C94F3550D94D50C0C94D16E01
:1001F0000D94103F0C946B240D94AF3E0D94FA2691
:100200000D9427070D94C7110D94283F0C94AD96BB
:100210000C941A480C947D990C94E5680D94E84C64
:100220000C94626E0D941C4C0C94F4710D94C50BDF
:100230000C9442C20C9423240D94C47E0D94DA5085
:100240000D9403500C949DC00D943E400D94D50424
:100250000D945C7A0D94DC0F0C940B9E0D94231975
:100260000C94818E0C9421660D941E400C94AD3636
:100270000C94F8C20C946C8C0D94073F0C94A6CA95
:100280000D946E160C94B0BC0D941F3F0D94583F06
:100290000D94043F0D94B56B0D94AC3E0C946D829F
:1002A0000C944C240C94BF9E0D9432440D94754FC5
:1002B0000C9498330C94D7BB0D94F2260C94E4550F
:1002C0000D94FD610D94193F0C9476260C942756DD
:1002D0000D948D0E0C9425240C9423480D941544F4
:1002E0000C94B6970D94D33E0C94B8310D94F45001
:1002F0000D9494680C94643C0C949D640D9402409D
:100300000C94A6C00D94D93E0D94A24D0C949FB0B0
:100310000C9417260C94A49F0C94535A0D940051DE
:100320000D946D3F0C9484790C94135A0D940C51D8
:100330000D9452000C94EC930C94ADA80D94C43E13
:100340000C944A480C9467F10D94703E0C9419116A
:100350000D9418510C945C690C94541B0D94AE06CA
:100360000D94223F0C948A770C944FFF0D942D40EE
:100370000D94523F0C9493770C94D6980C94F26C95
:100380000C949CBA0D94FE3E0D94B53E0C94D1F1A4
:100390000C94A77D0C9410260D9406510C942F48B4
:1003A0000C9438AD0D94793E0C9427C40C946E6E69
:1003B0000C94BFC30D940A3F0D9417000C94EFBD2D
:1003C0000D94B5070C943E480D94F83E0C9452429F
:1003D0000D94603E0D94373F0D94673F0C94C259C5
:1003E0000D9413440D94E0260D94C2960D9471441F
:1003F0000C9444260C94D0240D94A7050C94319FA2
:100400000C9408260C94F9140D94E8680D942006B9
:100410000D94ED170D9443790C940D690C941856B6
:100420000C9454C50D9412510C944E160C948BBD23
:100430000D942E3F0C94B77C0D94B9670D94E4266F
:100440000D941C3F0C9457D10D94573E0C94D859E1
:100450000C946E680D94B6400D94DC260D941840F3
:100460000C9456260C942D970C94696E0C943D694F
:100470000C9411660D945D3E0D94A33E0D94853E43
:100480000C94A8860D94FA7E0C945B1A0D94C30903
:100490000C94EA990D94A33F0C9438AF0D9434401A
:1004A0000C9452D20D9491040C944A690D94D87E08
:1004B0000C94AE960C9442BC0C9445CB0D946344C2
:1004C0000C94F4640C94F9250C949C7D0C94FE120D
:1004D0000D94F6260C943CD30C9440EC0D94107AB9
:1004E0000C9452240C9444480D945C150D94B43F24
:1004F0000D945A3E0C9492670D9439140C940D7718
:100500000D94DF3E0D9441400C9450AB0C941C2490
:100510000C94C7680D94463F0C9485C50C940977DC
:100520000C94E9770C94A2590C94006E0C942A67F1
:100530000C94F2BA0D9491440D94E2260D947978BE
:100540000C94BE9E0D94F0260D94A2030D941E51A2
:100550000C94C3330D94994F0D94313F0D94FA5080
:100560000D94A93E0C94D0680C94B2900D94973ED3
:100570000D94133F0C944D760C94F1250C94A185A9
:100580000D94553F0C94E0D20C9488870D94EA7E2C
:100590000D94CD3E0D9408400C94D1EC0D942A405E
:1005A0000D94DF500D94A40D0C9401260C947156FB
:1005B0000D9459180C94E28C0C94AB880D94114056
:1005C0000D943D3F0C94C48D0D9438400D942B42F6
:1005D0000C94B8590D949B130C948D110C94CD5917
:1005E0000C9420480D946E6A0D94FF3F0D94B23E1A
:1005F0000D9452440C9459F20D947F3E0D94B11217
:100600000C9432C70C94578D0D94633E0C94B0F14A
:100610000D9430400C9426480C9426D00D949D3EA9
:100620000D940A0D0C9475830D94733F0C942B2438
:100630000C946A590D94E17E0C942E9C0C94C594F4
:100640000D946A3F0C9437C90C94DA250D944440FC
:100650000C945B930C94DB250D94F8260C94CDA0A0
:100660000D94B54F0C9410240D94580E0C94218FBA
:100670000D94DD030C94E2590D9411100C94DB3DA4
:100680000D9430510C9459CA0C949D6E0D944C3FAE
:100690000C9438770C9441980C94495A0C94275731
:1006A0000C94EC590D94F4260C94329F0C94561C27
:1006B0000D94E44E0C94E8560C94E2250D94EF4111
:1006C0000D94F27E0C945E5A0C94DFF00D94A63ECD
:1006D0000C94AC9C0D94D63E0C94A3800C94BD1E3F
:1006E0000C946ECC0C94D9A30C9488240C9482673F
:1006F0000D9434130D94D73F0D9478100D94913FC1
:100700000C941B110C9437130D94EE500C944B2643
:100710000C947AC30D94EA260D94B7170D94E34018
:100720000C942A6F0C945E6E0D94E4150D94114494
:100730000C946E810C940E480C94F0440D940E4071
:100740000C9454AE0D94013F0D9453010D9405404B
:100750000D94543E0D94343F0D9427400C94041294
:100760000C94C2240C9419690C9452560C944D4864
:100770000D946A3E0C94F6590C9447480D948544A8
:100780000C940A560D94F46A0C9444560C94EA2581
:100790000C9480790D941C020D9435780D94E850DA
:1007A0000C9417440C94F0760D94BE3E0D945702B1
:1007B0000C9495430C9436560C94C4940D94E626F0
:1007C0000C94AC7C0D94EC4B0D948E3E0C9451B07B
:1007D0000C94437E0C94D8240C94D6550D94474029
:1007E0000D94E1010D940A7F0D94AA4D0D94643F80
:1007F0000C941D760D94CA3E0D94663E0C940D9B90
:100800000D94883E0C94363F0C9496FD0C9406573C
:100810000D940F010C9415FE0D947C3E0C94A07762
:100820000C9435480C94263B0C942A430D94493F74
:100830000D94DC3E0D943A3F0C947F990D94403F0B
:100840000C9423780C9499770C9402920C94336F47
:100850000C942A8A0C94496F0D94430B0D94E2403A
:100860000C94C3C10C94D9770C94C9C90D94613F01
:100870000C9461EB0C9440F20C9455C80D9435091E
:100880000C94BD420D940F440C949DEC0D946D3E60
:100890000D948B3E0D942E080D94C13E0D9417447B
:1008A0000D940D3F0C945A240C94C5EB0C946D9A46
:1008B0000D9421400D942B110D9424400C94DBFDDC
:1008C0000C9479940C94C8D30D94253F0D9423185F
:1008D0000D94CA0A0D94433F0D943B400C94982507
:1008E0000C9492110D9424510D94EE260C94A28038
:1008F0000C940DC50C9453140C9432480D941403AD
:100900000D9419050D945E3F0C940C120C949A648E
:100910000C94F3D20C944E7E0C947E990D94421953
:100920000D94EC260D94827E0C94A46E0D94E050F0
:100930000C945CC10D94763E0C9415BD0C9448AAA1
:100940000C94097D0C945F790D94913E0C94C5C76D
:100950000C941A110C94C9240D947D440C94E9EB69
:100960000D9419440C942C480D94090C0C94861881
:100970000C946C690D94163F0D947B3F0D941B40B5
:100980000D942B3F0D94D03E0C941D480D940B40BC
:100990000C945D6D0C94228E0D943F420C94D8689B
:1009A0000D945B3F0C948C120C9497A50C94AA7731
:1009B0000C947C440D94A7780C943CBF0D94BC0817
:1009C0000D94D1400C9465800D94B24D0C94A8BE4A
:1009D0000D9418040C94EFCB0C948CE00C942069CB
:1009E0000D94D66B0C940A720C94EA7C0D94943E90
:1009F0000C949A670C949B560C94DA560C940E81C6
:100A00000D947D4F0D94DE260A5061676520686164
:100A100073206E6F74206265656E20696D706C6501
:100A20006D656E74656420796574000A326E6420A9
:100A300049676E6974696F6E204D6170000A326E8D
:100A400064204675656C204D6170000A50616765D1
:100A5000203920436667000A5472696D20312054A2
:100A600061626C65000A565654204D6170000A425E
:100A70006F6F7374204D6170000A506720362043F9
:100A80006F6E666967000A414652204D6170000A28
:100A90005067203420436667000A49676E697469AD
:100AA0006F6E204D6170000A5067203220436667E8
:100AB000000A5645204D6170004572723A20556E0D
:100AC0006B6E6F776E20636D64000A3D3D3D436F32
:100AD0006D6D616E642048656C703D3D3D0A0A4154
:100AE0006C6C20636F6D6D616E6473206172652044
:100AF00073696E676C6520636861726163746572A7
:100B000020616E642061726520636F6E636174653D
:100B10006E617465642077697468207468656972B1
:100B200020706172616D6574657273200A776974F3
:100B3000686F7574207370616365732E53796E747A
:100B400061783A20203C636F6D6D616E643E2B3C92
:100B5000706172616D65746572313E2B3C706172BB
:100B6000616D65746572323E2B3C706172616D65BA
:100B70007465724E3E0A0A3D3D3D4C697374206FA8
:100B80006620436F6D6D616E64733D3D3D0A0A41A1
:100B9000202D20446973706C617973203331206299
:100BA00079746573206F662063757272656E745315
:100BB00074617475732076616C75657320696E203D
:100BC00062696E61727920286C697665206461744F
:100BD00061290A42202D204275726E20637572725F
:100BE000656E74206D617020616E6420636F6E6647
:100BF0006967506167652076616C75657320746FF5
:100C000020656570726F6D0A43202D2054657374E2
:100C100020434F4D20706F72742E202055736564F1
:100C20002062792054756E657273747564696F20E3
:100C3000746F2073656520776865746865722061DC
:100C40006E20454355206973206F6E2061206769CF
:100C500076656E2073657269616C200A2020202001
:100C6000706F72742E2052657475726E73206120DD
:100C700062696E617279206E756D6265722E0A4EC0
:100C8000202D205072696E74206E6577206C696E1D
:100C9000652E0A50202D205365742063757272658D
:100CA0006E7420706167652E202053796E746178B0
:100CB0003A2020502B3C706167654E756D626572FD
:100CC0003E0A52202D2053616D6520617320412022
:100CD000636F6D6D616E640A53202D2044697370DB
:100CE0006C6179207369676E6174757265206E75C9
:100CF0006D6265720A51202D2053616D652061730C
:100D0000205320636F6D6D616E640A56202D204460
:100D10006973706C6179206D6170206F7220636FF0
:100D20006E666967506167652076616C75657320D2
:100D3000696E2062696E6172790A57202D205365B1
:100D400074206F6E65206279746520696E206D6114
:100D500070206F7220636F6E666967506167652EE1
:100D60002020457870656374732062696E617279C2
:100D700020706172616D65746572732E200A202087
:100D8000202053796E7461783A2020572B3C6F668F
:100D9000667365743E2B3C6E6577627974653E0AB6
:100DA00074202D205365742063616C6962726174D4
:100DB000696F6E2076616C7565732E2020457870A2
:100DC000656374732062696E61727920706172610B
:100DD0006D65746572732E20205461626C652069A4
:100DE0006E64657820697320656974686572203067
:100DF0002C200A20202020312C206F7220322E201F
:100E00002053796E7461783A2020742B3C74626CA4
:100E1000655F6964783E2B3C6E657756616C7565DD
:100E2000313E2B3C6E657756616C7565323E2B3CCE
:100E30006E657756616C75654E3E0A5A202D2044CA
:100E40006973706C61792063616C69627261746945
:100E50006F6E2076616C7565730A54202D2044698D
:100E600073706C6179732032353620746F6F7468DB
:100E7000206C6F6720656E747269657320696E20DF
:100E800062696E6172790A72202D20446973706CF8
:100E90006179732032353620746F6F7468206C6FFF
:100EA0006720656E74726965730A55202D20507233
:100EB000657061726520666F72206669726D776118
:100EC0007265207570646174652E20546865206EAB
:100ED00065787420627974652072656365697665EA
:100EE000642077696C6C2063617573652074686534
:100EF0002041726475696E6F20746F20726573652E
:100F0000742E0A3F202D20446973706C6179732020
:100F1000746869732068656C702070616765002C67
:100F20002000575545004F3200496E6C657420749F
:100F3000656D7000436F6F6C616E74005265736510
:100F40007420636F6E74726F6C20697320637572A6
:100F500072656E746C792064697361626C65642E6D
:100F600000436F6D6D732068616C7465642E204E54
:100F700065787420627974652077696C6C2072657D
:100F8000736574207468652041726475696E6F2E94
:100F900000537065656475696E6F20323032322E91
:100FA000303200737065656475696E6F203230325F
:100FB000323032004552523B20496E636F72726587
:100FC000637420454550524F4D2073697A65003057
:100FD00030310020002000200020002020202000B0
:100FE000526573657420636F6E74726F6C206973E1
:100FF0002063757272656E746C79206469736162C6
:101000006C65642E00436F6D6D732068616C746550
:10101000642E204E65787420627974652077696C3F
:101020006C20726573657420746865204172647504
:10103000696E6F2E000000800020012001800020DA
:10104000018000F0008001C000C0002001C00080CD
:10105000002001040E11191B20292B2D2F313335AF
:1010600037393B3D3F414345474B4D4F515557590C
:101070005D61666D77537065656475696E6F005369
:101080007065656475696E6F20323031392E303885
:101090002D73657200537065656475696E6F2063AA
:1010A000737830323031392E3800000020002300B0
:1010B000260029002C002F0032000001000003014F
:1010C0000601090100002100240027002A002D004C
:1010D0003000330001010000040107010A01000093
:1010E0000000963007772C610EEEBA51099919C4A9
:1010F0006D078FF46A7035A563E9A395649E328805
:10110000DB0EA4B8DC791EE9D5E088D9D2972B4C48
:10111000B609BD7CB17E072DB8E7911DBF90641064
:10112000B71DF220B06A4871B9F3DE41BE847DD4A8
:10113000DA1AEBE4DD6D51B5D4F4C785D383569844
:101140006C13C0A86B647AF962FDECC9658A4F5CC8
:101150000114D96C0663633D0FFAF50D088DC820A4
:101160006E3B5E10694CE44160D5727167A2D1E4B8
:10117000033C47D4044BFD850DD26BB50AA5FAA8F4
:10118000B5356C98B242D6C9BBDB40F9BCACE36C58
:10119000D832755CDF45CF0DD6DC593DD1ABAC30D4
:1011A000D9263A00DE518051D7C81661D0BFB5F4B8
:1011B000B42123C4B3569995BACF0FA5BDB89EB834
:1011C00002280888055FB2D90CC624E90BB1877CD8
:1011D0006F2F114C6858AB1D61C13D2D66B6904113
:1011E000DC760671DB01BC20D2982A10D5EF898508
:1011F000B1711FB5B606A5E4BF9F33D4B8E8A2C944
:10120000077834F9000F8EA8099618980EE1BB0DE7
:101210006A7F2D3D6D08976C6491015C63E6F45123
:101220006B6B62616C1CD83065854E0062F2ED9587
:10123000066C7BA5011BC1F4088257C40FF5C6D903
:10124000B06550E9B712EAB8BE8B7C88B9FCDF1DE7
:10125000DD62492DDA15F37CD38C654CD4FB5861E3
:10126000B24DCE51B53A7400BCA3E230BBD441A517
:10127000DF4AD795D83D6DC4D1A4FBF4D6D36AE933
:101280006943FCD96E34468867ADD0B860DA732DF7
:101290000444E51D03335F4C0AAAC97C0DDD3C7193
:1012A0000550AA41022710100BBE86200CC925B597
:1012B0006857B3856F2009D466B99FE461CE0EF9F3
:1012C000DE5E98C9D9292298D0B0B4A8D7C7173DF7
:1012D000B359810DB42E3B5CBDB7AD6CBAC0208351
:1012E000B8EDB6B3BF9A0CE2B6039AD2B1743947DF
:1012F000D5EAAF77D29D1526DB048316DC73120B7B
:1013000063E3843B64943E6A6D0DA85A6A7A0BCFFE
:101310000EE49DFF099327AE000AB19E077D44931A
:101320000FF0D2A3088768F2011EFEC206695D575E
:1013300062F7CB67658071366C19E7066B6E761BBA
:10134000D4FEE02BD3895A7ADA10CC4ADD676FDFFE
:10135000B9F9F9EFBE8E43BEB717D58EB060E8A3DA
:10136000D6D67E93D1A1C4C2D83852F2DF4FF167EE
:10137000BBD16757BCA6DD06B53F4B36B248DA2B6A
:101380000DD84C1B0AAFF64A0336607A0441C3EF0E
:1013900060DF55DF67A8EF8E6E3179BE69468CB38A
:1013A00061CB1A8366BCA0D26F2536E2685295776E
:1013B0000CCC03470BBBB91602222F260555BE3BAA
:1013C000BAC5280BBDB2925AB42B046AB35CA7FF0E
:1013D000D7C231CFD0B58B9ED92C1DAEDE5BB0C24B
:1013E000649B26F263EC9CA36A750A936D02A906BE
:1013F000099C3F360EEB8567077213570005824A3A
:10140000BF95147AB8E2AE2BB17B381BB60C9B8E1D
:10141000D2920DBED5E5B7EFDC7C21DFDB0BD4D259
:10142000D38642E2D4F1F8B3DD686E83DA1FCD16BD
:10143000BE815B26B9F6E177B06F7747B718E65AF9
:101440000888706A0FFFCA3B06665C0B0111FF9E9D
:10145000658F69AE62F8D3FF6B6145CF6C1678E299
:101460000AA0EED20DD75483044EC2B303396126CD
:1014700067A7F71660D04D476949DB776E3E4A6A29
:10148000D1AEDC5AD6D9660BDF40F03BD83753AE2D
:10149000BCA9C59EBBDE7FCFB247E9FFB5301CF2C9
:1014A000BDBD8AC2BACA3093B353A6A3B4240536CD
:1014B000D0BA9306D7CD2957DE54BF67D9232E7AE9
:1014C00066B3B84A61C4021B685D942B6F2A37BEAD
:1014D0000BB4A18E0CC31BDF055A8DEF022D00004B
:1014E000000041311B1982623632C3532D2B04C5D3
:1014F0006C6445F4777D86A75A56C796414F088A93
:10150000D9C849BBC2D18AE8EFFACBD9F4E30C4F72
:10151000B5AC4D7EAEB58E2D839ECF1C98875112F3
:10152000C24A1023D953D370F4789241EF6155D752
:10153000AE2E14E6B537D7B5981C96848305599816
:101540001B8218A9009BDBFA2DB09ACB36A95D5DF2
:1015500077E61C6C6CFFDF3F41D49E0E5ACDA2246F
:101560008495E3159F8C2046B2A76177A9BEA6E1BA
:10157000E8F1E7D0F3E82483DEC365B2C5DAAAAEAA
:101580005D5DEB9F464428CC6B6F69FD7076AE6B5A
:101590003139EF5A2A202C09070B6D381C12F3360B
:1015A00046DFB2075DC6715470ED30656BF4F7F33A
:1015B0002ABBB6C231A275911C8934A00790FBBC2E
:1015C0009F17BA8D840E79DEA92538EFB23CFF79DA
:1015D000F373BE48E86A7D1BC5413C2ADE58054FBF
:1015E00079F0447E62E9872D4FC2C61C54DB018A24
:1015F000159440BB0E8D83E823A6C2D938BF0DC514
:10160000A0384CF4BB218FA7960ACE968D13090003
:10161000CC5C4831D7458B62FA6ECA53E177545D92
:10162000BBBA156CA0A3D63F8D88970E96915098A3
:10163000D7DE11A9CCC7D2FAE1EC93CBFAF55CD78F
:1016400062721DE6796BDEB554409F844F59581283
:101650000E161923150FDA7038249B41233DA76B12
:10166000FD65E65AE67C2509CB576438D04EA3AE1B
:101670009101E29F8A1821CCA73360FDBC2AAFE11B
:1016800024ADEED03FB42D83129F6CB20986AB24FB
:1016900048C9EA1553D029467EFB687765E2F6799A
:1016A0003F2FB7482436741B091D352A1204F2BC9B
:1016B000534BB38D485270DE657931EF7E60FEF397
:1016C000E6E7BFC2FDFE7C91D0D53DA0CBCCFA367B
:1016D0008A83BB07919A7854BCB13965A7A84B9807
:1016E000833B0AA99822C9FAB50988CBAE104F5D91
:1016F000EF5F0E6CF446CD3FD96D8C0EC274431271
:101700005AF3022341EAC1706CC1804177D847D7B0
:10171000369706E62D8EC5B500A584841BBC1A8AB3
:1017200041715BBB5A6898E87743D9D96C5A1E4F10
:101730002D155F7E360C9C2D1B27DD1C003E1200F4
:1017400098B9533183A09062AE8BD153B59216C530
:10175000F4DD57F4EFC494A7C2EFD596D9F6E9BCEF
:1017600007AEA88D1CB76BDE319C2AEF2A85ED7978
:101770006BCAAC4870D36F1B5DF82E2A46E1E13688
:10178000DE66A007C57F6354E8542265F34DE5F398
:10179000B202A4C2A91B6791843026A09F29B8AECB
:1017A000C5E4F99FDEFD3ACCF3D67BFDE8CFBC6BF8
:1017B000A980FD5AB2993E099FB27F3884ABB0240C
:1017C0001C2CF115073532462A1E73773107B4E118
:1017D0007048F5D06B513683467A77B25D634ED749
:1017E000FACB0FE6E1D2CCB5CCF98D84D7E04A1222
:1017F00096AF0B238DB6C870A09D8941BB84465D12
:101800002303076C381AC43F1531850E0E28429801
:101810004F6703A9547EC0FA795581CB624C1FC52E
:1018200038815EF423989DA70EB3DC9615AA1B00A1
:1018300054E55A314FFC996262D7D85379CE174F8D
:10184000E149567EFA50952DD77BD41CCC62138A81
:101850008D2D52BB963491E8BB1FD0D9A006ECF376
:101860007E5EADC265476E91486C2FA05375E83619
:10187000123AA90709236A5424082B653F11E47919
:10188000A796A548BC8F661B91A4272A8ABDE0BCF9
:10189000CBF2A18DD0EB62DEFDC023EFE6D9BDE136
:1018A000BC14FCD0A70D3F838A267EB2913FB92499
:1018B000D070F815CB693B46E6427A77FD5BB56B95
:1018C00065DCF45A7EC5370953EE763848F7B1AE79
:1018D00009B8F09F12A133CC3F8A72FD2493000017
:1018E0000000376AC2016ED4840359BE4602DCA8E8
:1018F0000907EBC2CB06B27C8D0485164F05B851A3
:10190000130E8F3BD10FD685970DE1EF550C64F97F
:101910001A095393D8080A2D9E0A3D475C0B70A301
:10192000261C47C9E41D1E77A21F291D601EAC0B93
:101930002F1B9B61ED1AC2DFAB18F5B56919C8F210
:101940003512FF98F713A626B111914C7310145A53
:101950003C152330FE147A8EB8164DE47A17E04613
:101960004D38D72C8F398E92C93BB9F80B3A3CEEE3
:10197000443F0B84863E523AC03C6550023D5817A6
:101980005E366F7D9C3736C3DA3501A9183484BFC3
:101990005731B3D59530EA6BD332DD01113390E581
:1019A0006B24A78FA925FE31EF27C95B2D264C4D4F
:1019B00062237B27A0222299E62015F3242128B454
:1019C000782A1FDEBA2B4660FC29710A3E28F41CD7
:1019D000712DC376B32C9AC8F52EADA2372FC08DCA
:1019E0009A70F7E75871AE591E739933DC721C2553
:1019F00093772B4F517672F11774459BD57578DC30
:101A0000897E4FB64B7F16080D7D2162CF7CA47472
:101A10008079931E4278CAA0047AFDCAC67BB02E94
:101A2000BC6C87447E6DDEFA386FE990FA6E6C8686
:101A3000B56B5BEC776A025231683538F369087F21
:101A4000AF623F156D6366AB2B6151C1E960D4D7BE
:101A5000A665E3BD6464BA0322668D69E06720CBA6
:101A6000D74817A115494E1F534B7975914AFC630E
:101A7000DE4FCB091C4E92B75A4CA5DD984D989A73
:101A8000C446AFF00647F64E4045C1248244443276
:101A9000CD4173580F402AE649421D8C8B43506854
:101AA000F154670233553EBC755709D6B7568CC002
:101AB000F853BBAA3A52E2147C50D57EBE51E839A5
:101AC000E25ADF53205B86ED6659B187A458349102
:101AD000EB5D03FB295C5A456F5E6D2FAD5F801B8C
:101AE00035E1B771F7E0EECFB1E2D9A573E35CB3AE
:101AF0003CE66BD9FEE73267B8E5050D7AE4384A73
:101B000026EF0F20E4EE569EA2EC61F460EDE4E2D5
:101B10002FE8D388EDE98A36ABEBBD5C69EAF0B813
:101B200013FDC7D2D1FC9E6C97FEA90655FF2C1061
:101B30001AFA1B7AD8FB42C49EF975AE5CF848E9E4
:101B400000F37F83C2F2263D84F0115746F19441A1
:101B500009F4A32BCBF5FA958DF7CDFF4FF6605D19
:101B600078D95737BAD80E89FCDA39E33EDBBCF5B1
:101B700071DE8B9FB3DFD221F5DDE54B37DCD80C6E
:101B80006BD7EF66A9D6B6D8EFD481B22DD504A411
:101B900062D033CEA0D16A70E6D35D1A24D210FE93
:101BA0005EC527949CC47E2ADAC6494018C7CC5625
:101BB00057C2FB3C95C3A282D3C195E811C0A8AF20
:101BC0004DCB9FC58FCAC67BC9C8F1110BC974071D
:101BD00044CC436D86CD1AD3C0CF2DB902CE4096EA
:101BE000AF9177FC6D902E422B921928E9939C3E81
:101BF000A696AB546497F2EA2295C580E094F8C7A4
:101C0000BC9FCFAD7E9E9613389CA179FA9D246F20
:101C1000B598130577994ABB319B7DD1F39A30353E
:101C2000898D075F4B8C5EE10D8E698BCF8FEC9DAC
:101C3000808ADBF7428B82490489B523C688886491
:101C40009A83BF0E5882E6B01E80D1DADC8154CC74
:101C5000938463A651853A1817870D72D586A0D054
:101C6000E2A997BA20A8CE0466AAF96EA4AB7C7844
:101C7000EBAE4B1229AF12AC6FAD25C6ADAC1881DF
:101C8000F1A72FEB33A6765575A4413FB7A5C4291C
:101C9000F8A0F3433AA1AAFD7CA39D97BEA2D073FE
:101CA000C4B5E71906B4BEA740B689CD82B70CDB30
:101CB000CDB23BB10FB3620F49B155658BB068220D
:101CC000D7BB5F4815BA06F653B8319C91B9B48AB0
:101CD000DEBC83E01CBDDA5E5ABFED3498BE000066
:101CE00000006567BCB88BC809AAEEAFB51257975C
:101CF000628F32F0DE37DC5F6B25B938D79DEF2875
:101D0000B4C58A4F087D64E0BD6F018701D7B8BFB5
:101D1000D64ADDD86AF23377DFE0561063589F5712
:101D20001950FA30A5E8149F10FA71F8AC42C8C0F7
:101D30007BDFADA7C76743087275266FCECD707F76
:101D4000AD951518112DFBB7A43F9ED0188727E835
:101D5000CF1A428F73A2AC20C6B0C9477A083EAFF3
:101D600032A05BC88E18B5673B0AD00087B26938CD
:101D7000502F0C5FEC97E2F059858797E53DD187AE
:101D80008665B4E03ADD5A4F8FCF3F28337786100F
:101D9000E4EAE37758520DD8ED4068BF51F8A1F856
:101DA0002BF0C49F97482A30225A4F579EE2F66F75
:101DB000497F9308F5C77DA740D518C0FC6D4ED06C
:101DC0009F352BB7238DC518969FA07F2A271947CB
:101DD000FDBA7C204102928FF410F7E848A83D58E4
:101DE000149B583FA823B6901D31D3F7A1896ACF21
:101DF00076140FA8CAACE1077FBE8460C306D27018
:101E0000A05EB7171CE659B8A9F43CDF154C85E76E
:101E1000C2D1E0807E690E2FCB7B6B4877C3A20FC7
:101E20000DCBC768B17329C704614CA0B8D9F59828
:101E30006F4490FFD3FC7E5066EE1B37DA564D2779
:101E4000B90E284005B6C6EFB0A4A3880C1C1AB082
:101E5000DB817FD767399178D22BF41F6E9303F71C
:101E6000263B66909A83883F2F91ED5893295460C2
:101E700044B43107F80CDFA84D1EBACFF1A6ECDF51
:101E800092FE89B82E4667179B54027027ECBB4818
:101E9000F071DE2F4CC93080F9DB55E745639CA01B
:101EA0003F6BF9C783D3176836C1720F8A79CB3776
:101EB0005DE4AE50E15C40FF544E2598E8F673882F
:101EC0008BAE16EF3716F84082049D273EBC241FC8
:101ED000E92141785599AFD7E08BCAB05C333BB666
:101EE00059ED5ED1E555B07E5047D519ECFF6C2118
:101EF0003B62094687DAE7E932C8828E8E70D49E4B
:101F0000ED28B1F951905F56E4823A31583A83098D
:101F10008FA7E66E331F08C1860D6DA63AB5A4E102
:101F200040BDC186FC052F2949174A4EF5AFF3760F
:101F3000223296119E8A78BE2B981DD997204BC9C4
:101F4000F4782EAE48C0C001FDD2A566416A1C5E81
:101F500096F779392A4F97969F5DF2F123E5051997
:101F60006B4D607ED7F58ED162E7EBB6DE5F528EA9
:101F700009C237E9B57AD9460068BC21BCD0EA313C
:101F8000DF888F56633061F9D622049E6A9ABDA617
:101F9000BD07D8C101BF366EB4AD530908159A4EBE
:101FA000721DFF29CEA511867BB774E1C70FCDD96D
:101FB0001092A8BEAC2A461119382376A580756602
:101FC000C6D810017A60FEAECF729BC973CA22F1E7
:101FD000A457479618EFA939ADFDCC5E114506EE22
:101FE0004D766389F1CE8D2644DCE841F864517961
:101FF0002FF9341E9341DAB12653BFD69AEBE9C6C6
:10200000F9B38CA1450B620EF01907694CA1BE51C2
:102010009B3CDB3627843599929650FE2E2E99B93B
:102020005426FCDEE89E12715D8C7716E134CE2ECC
:1020300036A9AB498A1145E63F03208183BB7691DF
:10204000E0E313F65C5BFD59E949983E55F1210642
:10205000826C44613ED4AACE8BC6CFA9377E38416C
:102060007FD65D26C36EB389767CD6EECAC46FD6A2
:102070001D590AB1A1E1E41E14F38179A84BD76977
:10208000CB13B20E77AB5CA1C2B939C67E0180FE1C
:10209000A99CE59915240B36A0366E511C8EA71607
:1020A0006686C271DA3E2CDE6F2C49B9D394F0817A
:1020B000040995E6B8B17B490DA31E2EB11B483E1D
:1020C000D2432D596EFBC3F6DBE9A69167511FA9D8
:1020D000B0CC7ACE0C749461B966F10605DE0000CE
:1020E0002200250028002B002E00310034000201C0
:1020F0000000050108010B01050505050705080895
:102100000808020202020A0A080804040404010181
:102110000101010101010303030303030303040796
:1021200007070C0C0C0C0C0C0C0C0202020206062D
:102130000606060606060B0B0B0B0B0B0B0B010220
:1021400010202008081020401020408002010201C9
:102150000804020101020408102040808040201081
:1021600008040201800402018040201008040201DA
:102170000804020101020408102040800102040842
:102180001020408000000A0B02090C0D0E08070306
:10219000040100000000000000000000000000003A
:1021A000000000000000000000000000000000002F
:1021B00012111000000000000000000000000000EC
:1021C00000000000000000000000F40111241FBE08
:1021D000CFEFD1E2DEBFCDBF00E00CBF12E0A0E048
:1021E000B2E0EAE7F9E303E00BBF02C007900D920B
:1021F000A439B107D9F72FE1A4E9B2E001C01D92DB
:10220000AA33B207E1F710E1C6EED0E100E006C064
:1022100021970109802FFE010F94389CC53ED107FC
:1022200080E00807A9F70F941B610D94BB9C0C94E8
:102230000000089508958091B71D811104C0209178
:10224000531E24FF67C04091B81D5091B91D609185
:10225000511E7091521E4617570768F48091251E33
:102260009091261EA091271EB091281E892B8A2BA3
:102270008B2B09F44FC02091DD043091DE04409196
:10228000DF045091E004232B242B252B09F442C0BA
:102290004091D9045091DA046091DB047091DC0420
:1022A000452B462B472BB1F1F8948091DD0490919A
:1022B000DE04A091DF04B091E0042091D9043091B4
:1022C000DA044091DB045091DC04821B930BA40BD5
:1022D000B50B8093840A9093850AA093860AB093E5
:1022E000870A78942091840A3091850A4091860A61
:1022F0005091870A60E077E883E993E00F94B29BFE
:10230000C901803526E4920738F08091B81D90917C
:10231000B91D089590E080E0089510925A09109236
:10232000590908958091B71D811104C02091531E51
:1023300024FF67C04091B81D5091B91D6091511E96
:102340007091521E4617570768F48091251E909190
:10235000261EA091271EB091281E892B8A2B8B2B1D
:1023600009F44FC02091DD043091DE044091DF0478
:102370005091E004232B242B252B09F442C04091DB
:10238000D9045091DA046091DB047091DC04452B90
:10239000462B472BB1F1F8948091DD049091DE0437
:1023A000A091DF04B091E0042091D9043091DA04C7
:1023B0004091DB045091DC04821B930BA40BB50B02
:1023C0008093840A9093850AA093860AB093870A23
:1023D00078942091840A3091850A4091860A509120
:1023E000870A60E077E883E993E00F94B29BC90124
:1023F000803526E4920738F08091B81D9091B91D80
:10240000089590E080E0089510925A0910925909B9
:1024100081E080935F0308958091ED0B807F80348D
:10242000F1F08036D9F420914A1C2C712C3089F1BE
:1024300046E050E050937A034093790362E070E005
:102440007093780360937703A4E0B0E0B0937603D1
:10245000A093750370937403609373030895309190
:102460004A1C3C713C30A9F0E4E0F0E0F0937A03C0
:10247000E093790382E090E0909378038093770370
:10248000F0937603E0937503909374038093730342
:10249000089528E030E030937A032093790342E0F6
:1024A00050E0509378034093770364E070E07093BA
:1024B000760360937503A6E0B0E0B0937403A09335
:1024C000730308958091E91D82319CF026E030E08D
:1024D00030937A032093790341E050E050937803DE
:1024E0004093770364E070E0709376036093750324
:1024F0000895A7E0B0E0B0937A03A0937903E2E0F7
:10250000F0E0F0937803E093770385E090E0909318
:1025100076038093750308958091B71D811104C0DF
:102520002091531E24FF67C04091B81D5091B91DE2
:102530006091511E7091521E4617570768F48091A2
:10254000251E9091261EA091271EB091281E892B32
:102550008A2B8B2B09F44FC02091DD043091DE04CF
:102560004091DF045091E004232B242B252B09F408
:1025700042C04091D9045091DA046091DB0470911B
:10258000DC04452B462B472BB1F1F8948091DD04F8
:102590009091DE04A091DF04B091E0042091D90471
:1025A0003091DA044091DB045091DC04821B930BE0
:1025B000A40BB50B8093840A9093850AA093860A96
:1025C000B093870A78942091840A3091850A4091CB
:1025D000860A5091870A60E077E883E993E00F94D8
:1025E000B29BC901803526E4920738F08091B81D6E
:1025F0009091B91D089590E080E008958091B1090F
:102600009091B20920913E1C30913F1C821B930B8C
:102610004091190250911A02841795079CF0841B6F
:10262000950B0197843B9105A8F461E070E07093ED
:102630007A0360937903A2E0B0E0B0937803A093AB
:102640007703089597FFEDCF840F951F0197843B83
:10265000910558F3E2E0F0E0F0937A03E093790318
:1026600081E090E090937803809377030895CF9270
:10267000DF92EF92FF922091B81D3091B91D8091A9
:10268000511E9091521E2817390708F0A4C0E091FE
:10269000A304F091A404C090251ED090261EE090C3
:1026A000271EF090281E8091491C90E0B0E0A0E029
:1026B000C816D906EA06FB0608F459C0E090B71D13
:1026C000EE2009F450C040917F0A5091800A609139
:1026D000810A7091820A452B462B472B09F447C08B
:1026E00060917B0A70917C0A80917D0A90917E0AAC
:1026F000672B682B692BD9F120917F0A3091800AD2
:102700004091810A5091820A80917B0A90917C0AC3
:10271000A0917D0AB0917E0A82179307A407B5079E
:1027200030F5F89420917F0A3091800A4091810A17
:102730005091820AC0907B0AD0907C0AE0907D0A7A
:10274000F0907E0A2C193D094E095F09AE2FB0E0CA
:102750000F94FA9B6093840A7093850A8093860A8B
:102760009093870A74C0F090531EF4FCACCFC090D5
:10277000840AD090850AE090860AF090870A30E0BB
:1027800020E0CC0CDD1CEE1CFF1CC0921E02D0927F
:102790001F02E0922002F09221028091A304909106
:1027A000A4048BE4C81688E9D80685E0E806F1049D
:1027B00060F44BE458E965E070E040931E025093EA
:1027C0001F026093200270932102C901FF90EF90D5
:1027D000DF90CF900895C090B71DCC2009F45EC063
:1027E0004091DD045091DE046091DF047091E004BB
:1027F000452B462B472B09F4BACF6091D904709131
:10280000DA048091DB049091DC04672B682B692B40
:1028100009F4ADCFF8948091DD049091DE04A0918D
:10282000DF04B091E0042091D9043091DA044091A2
:10283000DB045091DC04821B930BA40BB50B80933B
:10284000840A9093850AA093860AB093870A7894A5
:10285000C090840AD090850AE090860AF090870A9A
:10286000F694E794D794C794C092840AD092850ACC
:10287000E092860AF092870A60E077E883E993E0C5
:10288000A70196010F94B29B203586E4380708F41F
:1028900078CF2091B81D3091B91D73CFD090531EC1
:1028A000D4FC9ECF64CF20914D1C30E080914A1C17
:1028B0008C718C3009F496C0E0913E1CF0913F1C65
:1028C0006091790A70917A0A8091B1099091B20968
:1028D0008E1B9F0B0F946B9B261737070CF05DC068
:1028E000621B730B70937A03609379036091790A8A
:1028F00070917A0A80918209909183098E1B9F0BB7
:102900000F946B9B261737070CF065C0621B730B87
:1029100070937803609377036091790A70917A0AD3
:1029200080918009909181098E1B9F0B0F946B9B66
:10293000261737070CF048C0621B730B70937603A1
:10294000609375036091790A70917A0A80917E098B
:1029500090917F098E1B9F0B0F946B9B2617370757
:102960006CF5621B730B7093740360937303609137
:10297000790A70917A0A80916C0990916D098E1B89
:102980009F0B0F946B9B2617370774F4621B730B16
:1029900070934603609345030895161617060CF4CA
:1029A000A1CF620F731F9ECF161617068CF3620F0E
:1029B000731F709346036093450308951616170618
:1029C00094F2620F731FCFCF161617060CF4B6CF12
:1029D000620F731FB3CF161617060CF499CF620F50
:1029E000731F96CF4091431C41FD66CF220F331FCA
:1029F00063CF0F931F93CF93DF93E0914D1CF0E0D3
:102A000080914A1C8C718C3009F43FC1EF0130E099
:102A100020E000913E1C10913F1C6091790A70915A
:102A20007A0A8091B1099091B209801B910B0F94A1
:102A30006B9B61507109C617D7070CF006C16C1B60
:102A40007D0B4091A3045091A4044617570720F42E
:102A5000E617F7070CF014C1A091A304B091A404E9
:102A6000A20FB31FA617B70730F46091A3047091AB
:102A7000A404620F731F70937A03609379036091CB
:102A8000790A70917A0A8091820990918309801B5A
:102A9000910B0F946B9B61507109C617D7070CF00F
:102AA000CDC06C1B7D0B8091A3049091A40486176C
:102AB000970720F4E617F7070CF0DDC04091A30458
:102AC0005091A404420F531F4617570730F46091EA
:102AD000A3047091A404620F731F70937803609332
:102AE00077036091790A70917A0A809180099091B8
:102AF0008109801B910B0F946B9B61507109C61764
:102B0000D7070CF094C06C1B7D0BA091A304B0916F
:102B1000A404A617B70720F4E617F7070CF0A6C021
:102B20008091A3049091A404820F931F86179707A6
:102B300030F46091A3047091A404620F731F70932A
:102B40007603609375036091790A70917A0A809197
:102B50007E0990917F09801B910B0F946B9B6150B4
:102B60007109C617D7070CF05BC06C1B7D0B409139
:102B7000A3045091A4044617570720F4E617F7075B
:102B80000CF06FC0A091A304B091A404A20FB31FD6
:102B9000A617B70730F46091A3047091A404620FE4
:102BA000731F70937403609373036091790A70913B
:102BB0007A0A80916C0990916D09801B910B0F949A
:102BC0006B9B61507109C617D70724F56C1B7D0BF1
:102BD000C091A304D091A404C617D70718F4E61730
:102BE000F707D4F5E091A304F091A404E20FF31FDA
:102BF000E617F70730F46091A3047091A404620F04
:102C0000731F7093460360934503DF91CF911F912B
:102C10000F91089516161706DCF26C0F7D1FD8CFA2
:102C2000161617060CF4A3CF6C0F7D1FA0CF161637
:102C300017060CF46ACF6C0F7D1F67CF16161706A8
:102C40000CF431CF6C0F7D1F2ECF161617060CF427
:102C5000F8CE6C0F7D1FF5CE6091A3047091A40493
:102C6000C1CF6091A3047091A4048CCF6091A304A0
:102C70007091A40455CF6091A3047091A4041ECF59
:102C80006091A3047091A404E7CE0091431C01FD60
:102C9000BDCE9F01EF01CC0FDD1FBBCECF92DF92E7
:102CA000EF92FF92E091BD09F091BE091995AC0138
:102CB000893621E092070CF443C09C01295631402B
:102CC000A3E8BDE20F940D9C0024880F991F001CFF
:102CD000880F991F001C892F902D877099274856BF
:102CE0005140493621E052075CF1009719F18130DB
:102CF0009105D1F082309105A9F08330910581F0E2
:102D00008430910559F08530910531F0069711F026
:102D100048565140485651404856514048565140F7
:102D2000485651404856514048565140493621E096
:102D3000520734F040545B40493681E05807D4F7DD
:102D400080913E1C90913F1C481B590B2091B71E4F
:102D50002370223031F4C090B71CD090B81C4C19AD
:102D60005D09E091BA1C9A01220F331FF0E0A0E048
:102D7000B1E0AE1BBF0B0F94409C6B017C01A09196
:102D80007B1EB0917C1E9F010F94489CC60ED71EDF
:102D9000E81EF91ECD2CDE2CEF2CFF24E7FCFA9464
:102DA000D0927C1EC0927B1EFF90EF90DF90CF9060
:102DB0000895CF92DF92EF92FF92CF93DF93EC01D1
:102DC000AA81BB81E881F981408151811396FC91F0
:102DD000139711962D913C91DF2FDF71211531054D
:102DE00041F1DA010F94409C6C01FF24D7FCF09470
:102DF000EF2CC601F6FD0EC002C095958795DA95B9
:102E0000E2F797FD0196DF91CF91FF90EF90DF9071
:102E1000CF9008952F2FFF0F330B220F232F221F48
:102E2000330BCA0182279327821B930B8C0D9D1DA8
:102E3000E3CF2F2FFF0F330B220F232F221F330B34
:102E40008FEF9FEF0D2E02C0880F991F0A94E2F7B3
:102E500080959095BA01770F660B762F862397237E
:102E6000840F951F02C095958795DA95E2F7822722
:102E70009327821B930BDF91CF91FF90EF90DF9010
:102E8000CF9008958F929F92AF92BF92CF92DF9290
:102E9000EF92FF920F931F93CF93DF935C018B010F
:102EA0001092B9071092B8071092320A812F0F942E
:102EB0003651802F0F9436511093C3080093C208E7
:102EC0000115110509F4DDC045018FE3E82EF12C51
:102ED0006501C00ED11EC80183709927009709F4BF
:102EE00059C081309105C1F10297D9F0E50189916E
:102EF0004E010F943651A091B807B091B9071196C1
:102F0000B093B907A093B80790910D0F80910E0F61
:102F1000981708F0F4C0891B990B0197892B09F4C5
:102F200092C0F40181914F010F9436518091B807FE
:102F30009091B90701969093B9078093B807909143
:102F40000D0F80910E0F981708F0D2C0891B990BB6
:102F50000197892B09F477C0E40189914E010F9400
:102F60003651A091B807B091B9071196B093B9073F
:102F7000A093B80790910D0F80910E0F981708F04D
:102F800059C0891B990B019709F45DC0C814D90475
:102F900009F477C0E40189910F943651E091B807A4
:102FA000F091B9073196F093B907E093B807909183
:102FB0000D0F80910E0F981708F055C0891B990BC3
:102FC0000197892B09F43FC088810F943651809175
:102FD000B8079091B90701969093B9078093B80705
:102FE00090910D0F80910E0F981708F043C0891B28
:102FF000990B0197892B39F189810F943651A09152
:10300000B807B091B9071196B093B907A093B80764
:1030100090910D0F80910E0F981708F062C0891BD8
:10302000990B0197892B79F04E01F3E08F0E911CDB
:103030008A8195CF9701291B3109820F932F911D0A
:10304000892B09F0A3CF01E00093320ADF91CF91E1
:103050001F910F91FF90EF90DF90CF90BF90AF90B6
:103060009F908F9008959701291B3109820F932F0C
:10307000911DA7CF9701291B3109820F932F911D15
:10308000B9CF8090320A8110E1CF2FEF3FEFA90135
:103090002093311F3093321F4093331F5093341FBE
:1030A00021E0A801B50181E39FE10E94C1F6EB0197
:1030B000182F892F0F943651812F0F9436518D2F51
:1030C0000F9436518C2FDF91CF911F910F91FF906C
:1030D000EF90DF90CF90BF90AF909F908F900D9426
:1030E00036519701291B3109820F932F911D9ACFD9
:1030F0009701291B3109820F932F911D2ACF970128
:10310000291B3109820F932F911D08CF80915909F6
:1031100090915A090D9709F4A7C00F94AB60609382
:1031200065037093660380936703909368038091AF
:10313000650390916603A0916703B0916803409185
:103140007F0A5091800A6091810A7091820A841BE3
:10315000950BA60BB70B8093610390936203A0932A
:103160006303B09364032091610330916203409143
:103170006303509164036091E5047091E6048091CB
:10318000E7049091E804261737074807590708F421
:103190006AC0A0915909B0915A09AB2B09F467C0D4
:1031A000E0915909F0915A093196F0935A09E09348
:1031B0005909A0915909B0915A09E0915909F09122
:1031C0005A09AA0FBB1FAD55BB4FEE0FFF1FEF559E
:1031D000FB4F8D919C9140815181841B950B909365
:1031E0007A0A8093790A4091610350916203609159
:1031F00063037091640390914A1C907649F0903279
:1032000009F485C0903409F493C0903609F473C072
:103210001092E5041092E6041092E7041092E8047C
:1032200051E05093600320917F0A3091800A4091D1
:10323000810A5091820A20937B0A30937C0A409342
:103240007D0A50937E0A60916503709166038091B8
:1032500067039091680360937F0A7093800A80935C
:10326000810A9093820A08951092B71D089521E073
:1032700030E030935A09209359096091DD04709130
:10328000DE048091DF049091E0046093D904709390
:10329000DA048093DB049093DC04809165039091C1
:1032A0006603A0916703B09168038093DD04909357
:1032B000DE04A093DF04B093E00431E03093B71D47
:1032C0004091251E5091261E6091271E7091281E48
:1032D0004F5F5F4F6F4F7F4F4093251E5093261EC9
:1032E0006093271E7093281EACE3B0E0B0937A0A77
:1032F000A093790A78CFDB01CA01880F991FAA1F12
:10330000BB1F840F951FA61FB71FAC01BD0176958B
:103310006795579547957695679557954795409347
:10332000E5045093E6046093E7047093E80478CFD3
:1033300076956795579547954093E5045093E60435
:103340006093E7047093E8046BCF809159099091E2
:103350005A09499709F4ACC00F94AB6060936503B8
:10336000709366038093670390936803809165036D
:1033700090916603A0916703B091680340917F0A22
:103380005091800A6091810A7091820A841B950B8A
:10339000A60BB70B8093610390936203A093630322
:1033A000B0936403A0915909B0915A09AB2BB9F1BC
:1033B000E0915909F0915A093196F0935A09E09336
:1033C0005909A0915909B0915A09E0915909F09110
:1033D0005A09AA0FBB1FAD55BB4FEE0FFF1FEF558C
:1033E000FB4F6D917C9120813181621B730B709337
:1033F0007A0A6093790A51E05093600380916503E3
:1034000090916603A0916703B091680380937F0A4F
:103410009093800AA093810AB093820A089581E074
:1034200090E090935A09809359094091DD0450919E
:10343000DE046091DF047091E0044093D90450935E
:10344000DA046093DB047093DC046091650370918F
:10345000660380916703909168036093DD04709325
:10346000DE048093DF049093E00430915F0391E0E9
:10347000392730935F039093B71D2091251E30911B
:10348000261E4091271E5091281E2F5F3F4F4F4F01
:103490005F4F2093251E3093261E4093271E509386
:1034A000281EAFE0B0E0B0937A0AA093790AA3CFC8
:1034B0001092B71D08958091B71D0F94AB60609373
:1034C0006D0370936E0380936F03909370038091EC
:1034D0006D0390916E03A0916F03B09170034091C2
:1034E000250A5091260A6091270A7091280A841BA8
:1034F000950BA60BB70B8093690390936A03A09377
:103500006B03B0936C032091690330916A0340917F
:103510006B0350916C036091E1047091E20480911F
:10352000E3049091E404261737074807590708F485
:1035300071C080916D0390916E03A0916F03B09163
:1035400070038093250A9093260AA093270AB093CC
:10355000280A51E0509360036091690370916A03F7
:1035600080916B0390916C039695879577956795FD
:103570006093E1047093E2048093E3049093E40485
:103580003091B71D311132C08CED95E0A0E0B0E074
:103590008093E5049093E604A093E704B093E804D5
:1035A0006091E1047091E2048091E3049091E4045D
:1035B00096958795779567956093E1047093E204FB
:1035C0008093E3049093E404E0919F04F091A004BD
:1035D000908170919E04A091ED0BA07F972301F143
:1035E000A03409F453C0A03609F448C04091B81D76
:1035F0005091B91DE091511EF091521E4E175F0778
:1036000050F4F091B71DFF2329F05091ED0B507F3E
:10361000503491F00895B091441CB7FDF2CF089555
:10362000A03421F72091590930915A0925303105EC
:10363000E9F65093B71DDACF0F94AB608091470342
:1036400090914803A0914903B0914A03E0919F04EF
:10365000F091A004308190919E043923D9F2A09179
:103660005909B0915A09A830B105C9F01092B71D97
:103670007091621E7F5F7093621E08958091590958
:1036800090915A09079709F0B1CFD3CF60915909AA
:1036900070915A096830710509F0A8CFCACFB0936C
:1036A0005A09A09359090895CF92DF92EF92FF92A1
:1036B000CF93DF930F94AB6060936D0370936E03B1
:1036C00080936F039093700380916D0390916E03CC
:1036D000A0916F03B09170034091250A5091260A82
:1036E0006091270A7091280A841B950BA60BB70BD3
:1036F0008093690390936A03A0936B03B0936C0368
:10370000C0906903D0906A03E0906B03F0906C0363
:103710002091E1043091E2044091E3045091E404EB
:10372000C216D306E406F50608F465C080916D0361
:1037300090916E03A0916F03B09170038093250A5E
:103740009093260AA093270AB093280A4091690310
:1037500050916A0360916B0370916C037695679545
:103760005795479576956795579547954093E1040A
:103770005093E2046093E3047093E404D090B71D87
:10378000DD2009F453C0C090251ED090261EE09085
:10379000271EF090281E8091491C90E0B0E0A0E028
:1037A0008C159D05AE05BF0508F040C080914D1CED
:1037B00090E0E0905909F0905A098E159F0591F01C
:1037C0002091251E3091261E4091271E5091281EC3
:1037D000233031054105510528F03091621E3F5FCD
:1037E0003093621EF090441CF7FE56C090935A0925
:1037F0008093590951C06091840A7091850A809123
:10380000860A9091870A9695879577956795609334
:10381000E1047093E2048093E3049093E404DF9165
:10382000CF91FF90EF90DF90CF9008950F94AB6011
:1038300060937F0A7093800A8093810A9093820A32
:103840000F94AB606B017C01C0914D1C2C2F30E0BC
:1038500050E040E060E87DE88BE590E00F947F9BCE
:10386000C21AD30AE40AF50AC0927B0AD0927C0AF3
:10387000E0927D0AF0927E0AD0E0D0935A09C0937C
:1038800059091092E5041092E6041092E704109290
:10389000E80451E05093B71D71E070935F03DF912E
:1038A000CF91FF90EF90DF90CF900895CF92DF926D
:1038B000EF92FF920F94AB6060936D0370936E0371
:1038C00080936F039093700380916D0390916E03CA
:1038D000A0916F03B09170034091250A5091260A80
:1038E0006091270A7091280A841B950BA60BB70BD1
:1038F0008093690390936A03A0936B03B0936C0366
:10390000C090250AD090260AE090270AF090280A55
:10391000CD28CE28CF28C1F41092690310926A03F3
:1039200010926B0310926C0320916D0330916E0323
:1039300040916F03509170032093250A3093260A1B
:103940004093270A5093280A4091690350916A03D3
:1039500060916B0370916C038091E1049091E2049B
:10396000A091E304B091E404481759076A077B0764
:10397000C0F13091461C3F77313009F4C1C031119C
:1039800020C051E050935F036091690370916A0316
:1039900080916B0390916C039695879577956795C9
:1039A0006093E1047093E2048093E3049093E40451
:1039B000A091220AB091230A1196B093230AA093F2
:1039C000220AC0906D03D0906E03E0906F03F090D8
:1039D0007003C092250AD092260AE092270AF0923C
:1039E000280AD090B11ED5FE86C0E0905F03EE207D
:1039F00009F481C0E091BD09F091BE091995AC01AF
:103A0000893621E092070CF442C09C0129563140CE
:103A1000A3E8BDE20F940D9C0024880F991F001CA1
:103A2000880F991F001C892F902D87709927485661
:103A30005140493621E0520754F1009711F181308D
:103A40009105C9F082309105A1F08330910579F09C
:103A50008430910551F08530910529F0069709F0E1
:103A6000B5C04856514048565140485651404856B6
:103A700051404856514048565140493621E052077E
:103A800034F040545B40493681E05807D4F7209128
:103A90003E1C30913F1C421B530B7091B71E73703C
:103AA000723031F48091791D90917A1D481B590B29
:103AB000E091BA1C9A01220F331FF0E0A0E0B1E0C0
:103AC000AE1BBF0B0F94409C6B017C01A091671E45
:103AD000B091681E9F010F94489CC60ED71EE81E29
:103AE000F91ECD2CDE2CEF2CFF24E7FCFA94D092AB
:103AF000681EC092671EFF90EF90DF90CF900895F0
:103B00008091250A9091260AA091270AB091280A4F
:103B1000C090D504D090D604E090D704F090D8049B
:103B20008C199D09AE09BF09AC01BD01440F551F99
:103B3000661F771F840F951FA61FB71FB695A79501
:103B4000979587958093530390935403A0935503BF
:103B5000B09356032091250A3091260A4091270AF6
:103B60005091280A2093D5043093D6044093D7046B
:103B70005093D8044091690350916A0360916B039C
:103B800070916C038091530390915403A09155035D
:103B9000B0915603481759076A077B0730F4E09144
:103BA000220AF091230A3497A0F081E090E09093EC
:103BB000230A8093220A80935F031092E1041092FB
:103BC000E2041092E3041092E404FBCE4856514004
:103BD00048CF6091690370916A0380916B03909163
:103BE0006C039695879577956795969587957795C4
:103BF00067956093E1047093E2048093E3049093EB
:103C0000E404A091220AB091230A1196B093230AEA
:103C1000A093220AD6CECF93DF931092600381E067
:103C2000809360032091EE042330F1F0223091F074
:103C3000213029F4E091EA04F091EB0419956091A8
:103C4000661E662321F070916003711117C0DF9129
:103C5000CF910895E0919C04F0919D043081909162
:103C60009B04392339F3EBCFC0919C04D0919D0480
:103C7000488150919B044523E9F6E1CF8091690387
:103C800090916A03A0916B03B0916C03A091041E04
:103C9000A6FDDDCFB091651EB111D9CFC0914E0CFC
:103CA000D0914F0CCA53DD4F1882E0919F04F091E0
:103CB000A004D081F0919E04DF2309F045C0E0917B
:103CC0009C04F0919D04208130919B04232349F0B2
:103CD000C0914E0CD0914F0CCA53DD4F9881926029
:103CE0009883E0914E0CF0914F0CEA53FD4F4081C8
:103CF000446040835091B71D552349F0C0914E0C4C
:103D0000D0914F0CCA53DD4F688168606883C091C1
:103D10004E0CD0914F0C0F94AB60CC0FDD1FCC0F2D
:103D2000DD1FC05BD34F688379838A839B83A09117
:103D30004E0CB0914F0CAE37B10580F07091041E5F
:103D400070647093041E83CFC0914E0CD0914F0CC1
:103D5000CA53DD4F888181608883B1CF80914E0C3A
:103D600090914F0C019690934F0C80934E0CB09114
:103D7000041EBF7BB093041E6ACFCF93DF931092D3
:103D800060038091EF04833009F481C08230B9F080
:103D90008130F1F4E091EC04F091ED04199570910B
:103DA000651E772301F1A0916003A1117BC0B1E0F2
:103DB000D091661ED1111CC0DF91CF910895E09182
:103DC0009F04F091A004208190919E04292311F377
:103DD0005091651E552339F060916003662339F3D5
:103DE000DF91CF910895B0E0D091661EDD2321F3DD
:103DF0004091610350916203609163037091640389
:103E0000F091041EF6FDD8CFC0914E0CD0914F0C0E
:103E1000B1116FC0CA53DD4F1882E0919F04F09139
:103E2000A004808120919E04822309F082C0E09149
:103E30009C04F0919D04308150919B04352349F0FE
:103E4000C0914E0CD0914F0CCA53DD4F6881626017
:103E500068837091B71D772349F0E0914E0CF09183
:103E60004F0CEA53FD4FA081A860A083C0914E0C77
:103E7000D0914F0C0F94AB60CC0FDD1FCC0FDD1F2A
:103E8000C05BD34F688379838A839B833CC0C09196
:103E90009F04D091A004388140919E04342309F0FE
:103EA00079CF96CF209161033091620340916303F3
:103EB00050916403B091041EB6FD7ECFE0914E0C8C
:103EC000F0914F0CEE0FFF1FEE0FFF1FE05BF34F63
:103ED000208331834283538380914E0C90914F0C09
:103EE0008E379105B8F0D091041ED064D093041E93
:103EF00063CFCC0FDD1FCC0FDD1FC05BD34F4883DA
:103F000059836A837B8340914E0C50914F0C4E37FE
:103F1000510548F7A0914E0CB0914F0C1196B093FB
:103F20004F0CA0934E0CF091041EFF7BF093041EE7
:103F300043CFC0914E0CD0914F0CCA53DD4F9881A6
:103F40009160988374CF833023E0920709F4F7C21D
:103F500058F1813123E0920709F4D9C208F060C01A
:103F60008A3023E0920709F4DEC208F0E8C0863008
:103F700023E0920709F461C208F44BC2883023E0C1
:103F8000920709F4B7C108F4F5C350912B1E51FFF5
:103F900006C06091010674E0672760930106A09156
:103FA0000106A2FFD9C108958C3022E0920709F4DE
:103FB000D6C2D8F4853022E0920709F4E0C208F0B6
:103FC000D2C0813022E0920709F46BC208F4D5C157
:103FD000833022E0920709F46DC108F4A7C3509121
:103FE0002B1E51FFE0CF0D94DC0F833122E09207AE
:103FF00009F49FC208F46BC0873122E0920709F4EC
:104000003DC308F0F5C0853122E0920709F41CC1D8
:1040100008F4ECC270912B1E71FFC5CF0D94A60C55
:10402000883123E0920709F4B6C208F46EC08330E9
:1040300029E9920709F44BC208F0AFC0813029E9A1
:10404000920709F417C108F035C38115994909F0A1
:10405000C1C3F8948091D60887FD8C5F18160CF0C8
:104060009FC3082E000C990BFC01EE0FFF1FEE0FF3
:10407000FF1FE952F74F2081318142815381880F20
:10408000991F880F991FFC01ED52F74F8081918194
:10409000A281B381281B390B4A0B5B0B7894211545
:1040A00031054105510509F47ECF60E077E883E9E9
:1040B00093E00F94B29B3093310C2093300C0F940B
:1040C000AB59A091531EA860A093531E08958F3042
:1040D00022E0920709F4EBC108F45EC1813122E0CD
:1040E000920709F49FC008F43FC370912B1E71FF23
:1040F00006C0A091020690E2A927A0930206B09103
:104100000206B5FD50CF0D945517843123E0920778
:1041100009F4A8C208F46EC1863123E0920709F4BD
:104120008DC008F447C230912B1E31FF3CCF0E9456
:10413000DBFD409101064F774093010608958D30D5
:1041400023E0920709F49BC108F43BC18F3023E0C0
:10415000920709F4BFC008F498C190912B1E91FFFB
:1041600022CF0D94D002883022E0920709F432C2A7
:1041700008F4F4C08A3022E0920709F475C008F40C
:1041800089C290912B1E91FF0ECF0F94B717A0916B
:104190000206A77FA09302060895853029E99207B9
:1041A00009F4B4C008F42EC28630994909F011C34D
:1041B0002091711E3091721E2115310509F4F3CE44
:1041C000A0E1B7E20F940D9C2091B81D3091B91D6C
:1041D00050E040E00F94B29B30933E0C20933D0C96
:1041E0000F94AB599091531E98609093531E08956D
:1041F000813023E0920709F4A9C008F0A3C28831F6
:10420000924009F0E5C2F0912B1EF1FF05C08091AC
:1042100002068058809302062091020627FDC3CE35
:104220000D94F416E0912B1EE1FFBDCE0F945517AF
:10423000F0910206FF7DF0930206089550912B1E27
:1042400051FFB1CE0C94C8FEA0912B1EA1FF06C059
:10425000B091020690E4B927B0930206E0910206FD
:10426000E6FDA1CE0D942417B0912B1EB1FF9BCE7D
:104270000D94D50C2091711E3091721E21153105BF
:1042800009F491CEA0E1B7E20F940D9C2091B81DE6
:104290003091B91D50E040E00F94B29B3093340C44
:1042A0002093330C0F94AB59E091531EE860E093D8
:1042B000531E089560912B1E61FF06C07091020687
:1042C00091E0792770930206A0910206A0FD6BCEC3
:1042D0000D945918F0912B1EF1FF06C08091010634
:1042E00020E18227809301063091010634FD5BCEE8
:1042F0000D94A203B0912B1EB1FF55CE0F94170061
:10430000E0910106EB7FE093010608952091711E74
:104310003091721E2115310509F445CEA0E1B7E2B6
:104320000F940D9C2091B81D3091B91D50E040E0D4
:104330000F94B29B30933C0C20933B0C0F94AB59E1
:104340002091531E28602093531E089550912B1ED8
:1043500051FF29CE0D94D5040D941700863022E02C
:10436000920709F46FC18730924009F035C2E0919D
:104370002B1EE1FF18CE0D94580E811521E09207F7
:1043800009F4B8C18130914009F025C280912B1EFB
:10439000826080932B1E08958D3022E0920709F4ED
:1043A000DDC18E30924009F011C230912B1E31FFD9
:1043B000FACD0F948617409102064F7E4093020675
:1043C00008958B3023E0920709F44DC08C30934060
:1043D00009F003C230912B1E31FF06C04091010647
:1043E00058E04527409301066091010663FDDBCD4F
:1043F0000C9415FE823123E0920709F4C1C1833188
:10440000934009F0E4C160912B1E61FFCCCD0D9467
:10441000CB00843023E0920701F18530934009F00E
:10442000D4C180912B1E81FFBECD0F941C02209120
:1044300001062D7F20930106089590912B1E91FF78
:1044400006C0F091010682E0F827F0930106209162
:10445000010621FDA8CD0D941C0230912B1E31FFC9
:10446000A2CD0C9496FD70912B1E71FF9CCD0E94E5
:1044700015FEA0910106A77FA09301060895409123
:104480002B1E41FF90CD0D949104B0912B1EB1FFD6
:104490008ACD0F94A203E0910106EF7EE09301061E
:1044A0000895B0912B1EB1FF7ECD0D942B118091FC
:1044B0002B1E81FF06C02091020630E123272093A6
:1044C00002064091020644FD6ECD0D9486172091A0
:1044D000711E3091721E2115310509F464CDA0E1E1
:1044E000B7E20F940D9C2091B81D3091B91D50E09A
:1044F00040E00F94B29B3093380C2093370C0F940C
:10450000AB593091531E38603093531E089570910B
:104510002B1E71FF48CD0F94E101809101068F7D24
:1045200080930106089550912B1E51FF3CCD0C94B1
:104530000BFFA0912B1EA1FF36CD0D94280EA0914C
:104540002B1EA1FF06C0B0910106E1E0BE27B0938B
:1045500001069091010690FD26CD0D94DD03B091EA
:104560002B1EB1FF06C0E091020698E0E927E09318
:104570000206F0910206F3FD16CD0D94B717809157
:104580002B1E81FF10CD0F942318209102062D7F42
:1045900020930206089540912B1E41FF05C05091C3
:1045A00001065058509301066091010667FDFBCC4F
:1045B0000C94DBFD90912B1E91FF06C0F09101063B
:1045C00080E4F827F09301062091010626FDEBCC4C
:1045D0000C94DCFFE0912B1EE1FFE5CC0F94ED176E
:1045E000F0910206FB7FF0930206089550912B1E76
:1045F00051FFD9CC0F942417609102066F7B609312
:10460000020608952091711E3091721E2115310508
:1046100009F4C9CCA0E1B7E20F940D9C2091B81D1C
:104620003091B91D50E040E00F94B29B30933A0CAA
:104630002093390C0F94AB59F091531EF860F0930E
:10464000531E0895F0912B1EF1FF06C080910206C3
:1046500022E08227809302063091020631FDA3CC2E
:104660000D94231860912B1E61FF9DCC0E94DCFFEE
:10467000709101067F7B70930106089560912B1E57
:1046800061FF91CC0F94F416709102067F777093BE
:104690000206089540912B1E41FF06C0509102066C
:1046A00064E05627509302067091020672FD7BCC9F
:1046B0000D94ED172091711E3091721E2115310558
:1046C00009F471CCA0E1B7E20F940D9C2091B81DC4
:1046D0003091B91D50E040E00F94B29B3093360CFE
:1046E0002093350C0F94AB59B091531EB860B09322
:1046F000531E089520912B1E2D7F20932B1E0F9467
:10470000DD030F941C020F9417000E9415FE0F94F6
:10471000A2030F9459180F9423180F94ED170F94B8
:10472000B7171092020610920106089530912B1EC1
:1047300031FF39CC0F945918409102064E7F4093B7
:104740000206089530912B1E31FF2DCC0F94DD030E
:10475000409101064E7F40930106089550912B1E13
:1047600051FF21CC0D94FB1060912B1E61FF1BCCDF
:104770000D94AC0F40912B1E41FF15CC0D940F01F1
:1047800070912B1E71FF06C0A0910106B0E2AB270D
:10479000A0930106E0910106E5FD05CC0D94E10131
:1047A0002091D7083091D8084091D9085091DA0863
:1047B0008091E3089091E408A091E508B091E608A3
:1047C000281B390B4A0B5B0B69CC0895089508959B
:1047D000089508950895089508950895CF93DF9357
:1047E00000D01F92CDB7DEB7982F8F3010F00F9406
:1047F000AF9CE82FF0E08827EF5FFB4D8F4F0D94C3
:10480000389C232425242B2432244C2452245A243B
:104810006B248824C224C924D024D82410241C2426
:104820006038710508F4E9C080E00F900F900F9098
:104830000F90DF91CF910895603281E07807A0F763
:1048400080EA96E115C0892FF0CF6038710560F7D6
:1048500089EC9BE035C0603221E0720728F785E7DC
:104860009AE106C0603231E07307F0F687EE97E117
:104870006F3F710509F008F4EEC06031F1E07F0789
:1048800008F013C1895F9E4F7727660F771F680F67
:10489000791F7A836983A8C06038710528F68EE392
:1048A0009CE10EC0603281E0780708F0BDCF89E559
:1048B00095E1DECF6038710508F0B6CF81EB9EE15F
:1048C000680F791FFB0180810F900F900F900F9060
:1048D000DF91CF9108956035710508F491C0603A79
:1048E000710508F49BC0603F710508F09DCF605AC8
:1048F000710982EF94E1262F6034710508F4A2C09B
:104900006834710508F0D6C0895B9F4F205432C0CF
:104910006033710508F47AC06036710508F483C00D
:104920006039710508F4A9C0603C710508F4D1C074
:10493000603F710508F4D2C06032E1E07E0708F400
:10494000D2C06035F1E07F0708F4D2C0603821E0C2
:10495000720708F069CF605571408EE391E1262F10
:104960006432710508F47BC06A32710508F08AC0B0
:104970008B96245230E0220F331F820F931F9A83AD
:10498000898332C0603C710508F04ECF89E09BE01E
:1049900097CF603C710508F047CF87EF9CE190CF3F
:1049A000603231E0730708F03FCF8EE299E160CFCB
:1049B0006035710540F1603A710558F1683B710549
:1049C00008F032CF605A71096031710588F16431A5
:1049D000710508F073C06051862F90E0880F991F11
:1049E000825D9E4E9A838983AFE6B2E0BC83AB833F
:1049F000CE0101960E94D91618CF89E89AE060CFBF
:104A00008BE894E178CF86E593E175CF83E193E17C
:104A1000A6CF605571098DEB93E16DCF605571099B
:104A200084E294E168CF6053710980ED92E197CF01
:104A3000E62FE370EA5FEE0FE61BF0E0E95EFE4E64
:104A40008781F3CE2770245E220F261B820F911DD3
:104A5000FC018781EACE262F2F702858F5CF2BEA4C
:104A6000629F412D112446954695342F330F430FF5
:104A7000440F262F241B215FE7CF605671098DE874
:104A800092E16DCF8F5B9F4F2A5230E0220F331F90
:104A9000821B930B9A83898367E772E07C836B8325
:104AA000CE0101960E94D916C0CE8B5B9E4F6051FD
:104AB000262FEBCF8B599F4F2854E7CF6451862F79
:104AC00090E0880F991F919581959109845C9E4E85
:104AD000E1CF605971098AE492E141CF605C7109CC
:104AE00087E092E13CCF605F710984EC91E137CFC0
:104AF0006052714081E891E132CF8F3010F00F9415
:104B0000AF9CE82FF0E08827E757FA4D8F4F0D94C0
:104B1000389CDA25EA25F125F925012608261026F4
:104B20001726982544264B2656267626DB25E22591
:104B30006033710508F412C16036710508F41BC1B9
:104B40006039710508F44FC1603C710508F492C1E9
:104B5000603F710508F493C1603281E0780708F482
:104B600093C16035E1E07E0708F493C16038F1E05D
:104B70007F0700F560557140AEE3B1E1862F6432E6
:104B8000710508F41CC16A32710508F031C1845204
:104B9000E82FF0E0EE0FFF1FEA0FFB1F34E6439F04
:104BA000C001112494A783A78FEF9FE713969C93CE
:104BB0008E93129708956038710508F0C7C089E890
:104BC0009AE06FC06032E1E07E0708F0BEC0A0EA64
:104BD000B6E173C06038710508F0B6C089EC9BE09F
:104BE00060C0603281E0780708F0ADC0A5E7BAE1A7
:104BF00064C06032E1E07E0708F0A4C0A7EEB7E130
:104C00005CC06038710508F09CC08EE39CE149C02F
:104C10006032F1E07F0708F093C0A9E5B5E14DC02F
:104C20006038710508F08BC081EB9EE13AC06035B9
:104C3000710508F490C0603A710508F497C0603FB0
:104C4000710508F0B7CF605A7109E2EFF4E1862FE1
:104C50006034710508F49EC06834710508F0E9C03D
:104C60008054A82FB0E0AA0FBB1FAE0FBF1FA95BD7
:104C7000BF4F54E6459F900111242D933C934FEF75
:104C80005FE7538342830895603C710508F05FC07D
:104C900089E09BE006C0603C710508F04FC087EFDB
:104CA0009CE1680F791FFB0140830895603281E029
:104CB000780708F042C0AEE2B9E16F3F710509F034
:104CC00008F473C06031E1E07E0708F0A1C0FB0189
:104CD000FF27EE0FFF1FEA0FFB1FE95FFE4F74E691
:104CE000479FB0011124718360835ECF60357105E9
:104CF00078F1603A7105A8F1683B710508F05ACF68
:104D0000605A710960317105D8F16431710508F09C
:104D1000A0C06051E62FF0E0EE0FFF1FE25DFE4EF7
:104D200024E6429FA0011124518340836FEF7FE767
:104D300070931A11609319110895089508950895B4
:104D4000089508950895089508950895089508957B
:104D5000E6E5F3E17CCFEBE8F4E179CFA3E1B3E161
:104D60000DCF60557109EDEBF3E171CF605571091D
:104D7000E4E2F4E16CCF60537109A0EDB2E1FECE44
:104D8000E62FE370EA5FEE0FE61BF0E0E95EFE4E11
:104D90004783CCCFA62FA770A45EAA0FA61BAE0F89
:104DA000BF2FB11D17964C936ACFE62FEF70E858CE
:104DB000EE0FE61BEA0FFB2FF11D4783F5CE8BEAC2
:104DC000689F812D112486958695982F990F890FBC
:104DD000880FE62FE81BE15FEE0FE61BEA0FFB2FC3
:104DE000F11D4783E1CE60567109ADE8B2E1C6CE50
:104DF0008A5290E0880F991FFD01E81BF90BEF5BC9
:104E0000FF4F842F90E0880F991F91838083CCCE31
:104E10006051862F90E0880F991FFD01E81BF90B68
:104E2000EB5BFE4F842F90E0880F991F9183808366
:104E3000BBCE885490E0880F991FDF01A81BB90BE7
:104E4000AB59BF4F842F90E0880F991F8D939C938F
:104E500016CF6451E62FF0E0EE0FFF1FF195E195BC
:104E6000F109E45CFE4E842F90E0880F991F918336
:104E700080835CCF60597109AAE4B2E17FCE605CA7
:104E80007109A7E0B2E17ACE605F7109A4ECB1E1EB
:104E900075CE60527140A1E8B1E170CECF92DF9241
:104EA000EF92FF921F93CF93DF937B014091510EBE
:104EB0005091520E6091530E7091540E4115510550
:104EC0006105710511F41092191E4F5F5F4F6F4F0E
:104ED0007F4F4093510E5093520E6093530E709338
:104EE000540E2091B71D5091051EC090051E30E054
:104EF0003195219531092527207833272C252093BA
:104F0000051E1092BA07E114F104A1F06C0110E043
:104F100090E080E0D0E0C0E08C0D9D1D0F94C43D7A
:104F2000C654D84F89831F5FC12FD0E0CE01CE1564
:104F3000DF0590F38091531E877F8093531EDF918E
:104F4000CF911F91FF90EF90DF90CF9008952F9217
:104F50003F924F925F926F927F928F929F92AF9209
:104F6000BF92CF92DF92EF92FF920F931F93CF9356
:104F7000DF93CDB7DEB7AA970FB6F894DEBF0FBEAA
:104F8000CDBF3C016AA3633009F451C708F437C7A9
:104F90002AA1243009F427C2253009F05EC79C01FC
:104FA0002B5B3E4F1C0157EF250E311C099798A72C
:104FB0008FA3F1E080E190E0A0EFBFEFBCA3ABA333
:104FC00047E752E05EA34DA34FA058A442145304F8
:104FD00009F425C2B9016E5F7F4F7AA769A7210145
:104FE000480E591E30E020E001E0AAE08A2E912C04
:104FF000A12CB12C11E0DB015E914E91BAA7A9A7BB
:10500000EF2FEF712115310509F488C5DA010F94EE
:10501000409C6C01FF24D7FCF094EF2CC601F6FFF6
:105020000EC08F2FFF0F990B880F892F881F990BA8
:1050300048275927481B590BCA018C0D9D1D02C0DA
:1050400095958795EA95E2F797FD0196D82EB3E6F8
:10505000E7EDFFE0B81708F092C12D2D30E050E0E9
:1050600040E019A2CE0181966C01CA01B901A501E7
:1050700094010F94B29B605DD6016E936D01211572
:1050800031054105510589F7109709F43EC0FD012E
:1050900001900020E9F79F01FD01215031092E17F1
:1050A0003F0799F1F19000930A0F70910D0F409115
:1050B0000E0FA091020FB091030F741709F40CC3E7
:1050C00040910D0F50E04F5F5F4F4F735527942F66
:1050D00003C00FB607FE9FC250910E0F9517C9F37C
:1050E000A0910D0FB0E0A15BB04FFC92DFB6F89439
:1050F00040930D0FA091040FB091050F8C91806229
:105100008C93DFBE2E173F0769F6E9EDFFE0F490C0
:10511000FF2099F100930A0F30910D0F20910E0F8F
:10512000A091020FB091030F321709F41AC3209116
:105130000D0F30E02F5F3F4F2F733327E22E03C058
:105140000FB607FEDDC280910E0FE816C9F3A091DD
:105150000D0FB0E0A15BB04FFC92CFB6F894209356
:105160000D0FA091040FB091050F7C9170627C939C
:10517000CFBE3196F490F110CDCF610142145304AB
:1051800009F49BC0D6012D916D01E7EDFFE02436B7
:1051900008F410C330E050E040E019A2CE0181963F
:1051A0007C01CA01B901A50194010F94B29B605D15
:1051B000D7016E937D01211531054105510589F710
:1051C000109709F43EC0FD0101900020E9F7AF01FE
:1051D000FD01415051094E175F0799F1F19010936D
:1051E0000A0F20910D0F30910E0FA091020FB09178
:1051F000030F231709F473C320910D0F30E02F5FC5
:105200003F4F2F733327622F03C00FB607FE06C32D
:1052100090910E0F6917C9F3A0910D0FB0E0A15B3B
:10522000B04FFC92EFB6F89420930D0FA091040FAD
:10523000B091050F8C9180628C93EFBE4E175F0783
:1052400069F6E9EDFFE04491442399F110930A0FC8
:1052500050910D0FF0900E0FA091020FB091030F1F
:105260005F1509F481C320910D0F30E02F5F3F4F90
:105270002F733327922F03C00FB607FE44C37091DC
:105280000E0F9717C9F3A0910D0FB0E0A15BB04FBF
:105290004C93EFB6F89420930D0FA091040FB091AA
:1052A000050F8C9180628C93EFBE31964491411131
:1052B000CDCF4C145D0409F065CFAEE8B2E0DD90CF
:1052C00000930A0F90910D0FE0900E0FE091020FE6
:1052D000F091030F9E1509F48DC320910D0F30E05E
:1052E0002F5F3F4F2F733327322F03C00FB607FEB8
:1052F00050C360910E0F3617C9F3E0910D0FF0E027
:10530000E15BF04FD0825FB7F89420930D0FE091EE
:10531000040FF091050F7081706270835FBF60E9C8
:1053200072E06A177B0759F6EBA0FCA02E0C3F1C1D
:105330004E0C5F1C4FA158A54215530509F46FC0D0
:10534000ADA1BEA11396FC91139711962D913C919E
:10535000A9A5BAA551CEFC90F5FE21C0EFB6F894F0
:10536000A091080FB091090FCC92A091020FB091BB
:10537000030F3C91337030643C93EFBE3196C49080
:10538000CC2009F4EEC300930A0F90910D0FE0902A
:105390000E0FA091020FB091030F9E15E1F2209124
:1053A0000D0F30E02F5F3F4F2F733327322F03C095
:1053B0000FB607FE60C150910E0F3517C9F3A091CB
:1053C0000D0FB0E0A15BB04FCC927FB7F894209363
:1053D0000D0FA091040FB091050F2C9120622C931A
:1053E0007FBF3196CCCF9C012B593F4F1C015FE30F
:1053F000250E311CFC013197F8A7EFA3F0E088E0FF
:1054000090E008EF1FEF1CA30BA363E772E07EA3FD
:105410006DA34FA058A44214530409F0DBCD0BED4B
:105420001FE008C082EF9EE00F9489410F5F1F4F7D
:10543000892B21F0F80164916111F4CFBAA1B53044
:1054400008F0D1C4B33008F0BEC4B23009F0C3C410
:1054500073018FE1E80EF11C97E1690E711C6E1467
:105460007F0409F4B3C011E02AE0822E912CA12C14
:10547000B12CF301A191B1913F012CEE31E50F94D4
:10548000489C9C0135952795359527953595279509
:105490003595279535952795022F37FD0395E7ED2F
:1054A000FFE0043608F489C3202F30E050E040E0EC
:1054B00019A2CE0181961C01CA01B901A50194016E
:1054C0000F94B29B605DD1016E931D0121153105D2
:1054D0004105510589F71097E9F1FD010190002080
:1054E000E9F7AF01415051094A175B0799F13D9027
:1054F00010930A0F50900D0FD0900E0FE091020FF5
:10550000F091030F5D1409F4EDC320910D0F30E00D
:105510002F5F3F4F2F733327322F03C00FB607FE85
:1055200080C360910E0F3617C9F3E0910D0FF0E0C4
:10553000E15BF04F30824FB6F89420930D0FE0916D
:10554000040FF091050F2081206220834FBE4A177F
:105550005B0769F6E9EDFFE04491442399F110936C
:105560000A0F50910D0F30900E0FA091020FB091C5
:10557000030F531509F4FBC320910D0F30E02F5F8B
:105580003F4F2F733327D22E03C00FB607FEBEC383
:1055900060910E0FD616C9F3A0910D0FB0E0A15B7C
:1055A000B04F4C934FB6F89420930D0FA091040F79
:1055B000B091050F2C9120622C934FBE31964491EF
:1055C0004111CDCFE614F70409F053CF6DE082EF1F
:1055D0009EE00F948941892B09F456C46AE082EF5A
:1055E0009EE0AA960FB6F894DEBF0FBECDBFDF9146
:1055F000CF911F910F91FF90EF90DF90CF90BF90D0
:10560000AF909F908F907F906F905F904F903F9062
:105610002F900D948941EC90E5FE5ECDA0910E0F88
:10562000B0E0A15BB04FCC90A0910E0FB0E011960E
:10563000AF73BB27A0930E0FA091080FB091090F75
:10564000CC92A091020FB091030F7C9173707064A3
:105650007C93B0910D0F60910E0FB61307C0A0910F
:10566000040FB091050F5C915F7D5C93A091020FD8
:10567000B091030F31CD8C9185FF9DCEA0910E0F7F
:10568000B0E0A15BB04F4C9160910E0F70E06F5F86
:105690007F4F6F73772760930E0FA091080FB09123
:1056A000090F4C93A091020FB091030F6C9163709E
:1056B00060646C93B0910D0F90910E0FB91307C0F9
:1056C000A091040FB091050F5C915F7D5C93A09158
:1056D000020FB091030F6FCE6C9165FFF1CC4FB705
:1056E000F894A091080FB091090FFC92A091020FBD
:1056F000B091030F9C91937090649C934FBFCFCC5B
:105700006C9165FF20CDA0910E0FB0E0A15BB04F72
:105710005C9160910E0F70E06F5F7F4F6F73772722
:1057200060930E0FA091080FB091090F5C93A091A8
:10573000020FB091030F4C91437040644C93B091B1
:105740000D0F90910E0FB91307C0A091040FB091E7
:10575000050F3C913F7D3C93A091020FB091030F48
:10576000F2CCDC90D5FEE3CC2FB7F894A091080FD3
:10577000B091090FFC92A091020FB091030F8C9190
:10578000837080648C932FBF3196F4CC6C9165FF4D
:1057900021C05FB7F894A091080FB091090FFC9257
:1057A000A091020FB091030F3C91337030643C9391
:1057B0005FBF3196F490FF2009F430C110930A0FB7
:1057C000E0900D0F70910E0FA091020FB091030F9A
:1057D000E716E1F240910D0F50E04F5F5F4F4F73BE
:1057E0005527542F03C00FB607FE48C090910E0FE7
:1057F0005917C9F3A0910D0FB0E0A15BB04FFC9217
:105800003FB7F89440930D0FA091040FB091050F8E
:105810004C9140624C933FBF3196CCCF3C9135FFC9
:10582000F7CCA0910E0FB0E0A15BB04F7C91A0919E
:105830000E0FB0E01196AF73BB27A0930E0FA0918F
:10584000080FB091090F7C93A091020FB091030F44
:105850009C91937090649C93B0910D0FE0900E0F0B
:10586000BE1107C0A091040FB091050F8C918F7DE0
:105870008C93A091020FB091030FCACC8C9185FF3D
:10588000B5CFA0910E0FB0E0A15BB04FEC9060914E
:105890000E0F70E06F5F7F4F6F73772760930E0F6F
:1058A000A091080FB091090FEC92A091020FB09156
:1058B000030F7C91737070647C93B0910D0F6091B5
:1058C0000E0FB61307C0A091040FB091050F9C9165
:1058D0009F7D9C93A091020FB091030F87CF7C9185
:1058E00075FF8ACC2FB7F894A091080FB091090FDB
:1058F000FC92A091020FB091030F6C9163706064F1
:105900006C932FBF68CC6C9165FFB9CCA0910E0F42
:10591000B0E0A15BB04F5C9160910E0F70E06F5FE3
:105920007F4F6F73772760930E0FA091080FB09190
:10593000090F5C93A091020FB091030F3C9133705B
:1059400030643C93B0910D0FF0900E0FBF1107C063
:10595000A091040FB091050F7C917F7D7C93A09165
:10596000020FB091030F8BCC3C9135FF7CCC2FB74D
:10597000F894A091080FB091090F4C93A091020FD9
:10598000B091030F4C91437040644C932FBF3196FC
:105990008DCCF080F5FEADCCE0910E0FF0E0E15B38
:1059A000F04F408160910E0F70E06F5F7F4F6F731B
:1059B000772760930E0FE091080FF091090F408355
:1059C000E091020FF091030F9081937090649083A7
:1059D000F0910D0FC0900E0FFC1107C0E091040F65
:1059E000F091050F80818F7D8083E091020FF0910F
:1059F000030F7FCC808185FF70CC2FB7F894E091A6
:105A0000080FF091090FD082E091020FF091030F7F
:105A100030813370306430832FBF81CCE5EDFFE0FF
:105A20002A3008F0B7CBF490FF2009F4B3CB1093E1
:105A30000A0F40910D0F80910E0FA091020FB091AF
:105A4000030F481709F455C040910D0F50E04F5F08
:105A50005F4F4F735527942F03C00FB607FE18C032
:105A600070910E0F9717C9F3A0910D0FB0E0A15BD5
:105A7000B04FFC926FB7F89440930D0FA091040FB4
:105A8000B091050F5C9150625C936FBF3196CBCFA4
:105A90003C9135FFE5CFA0910E0FB0E0A15BB04F78
:105AA0008C9160910E0F70E06F5F7F4F6F7377275F
:105AB00060930E0FA091080FB091090F8C93A091E5
:105AC000020FB091030F7C91737070647C93B0915E
:105AD0000D0FE0900E0FBE1107C0A091040FB09102
