:100000000C94E8100D94EB780D94C0780D949578CD
:100010000D946A780D943F780D9414780D94E977D7
:100020000D94BE770C9419110C9419110C9419119C
:100030000C9419110C9419110C9419110C9456EB81
:100040000C9419110C9425440C941B420D94144BE0
:100050000C9419110C9419110C9419110D947477B6
:100060000C9419110D947E7A0D943E7A0C9419110A
:100070000C9419110C9419110C9419110C94191158
:100080000C94E1E80C9466E80C94EBE70C941911DD
:100090000C9419110C9419110C9419110C94191138
:1000A0000C9419110C9419110C9408E50C9470E738
:1000B0000C946EE40C9419110C9419110C94D6E65E
:1000C0000C943CE60C94A2E50C9419110C941911B3
:1000D0000C9419110C9419110D94077A0D94C77989
:1000E0000C9419110D94C5380C94DAB40D941210B7
:1000F0000D9416380D9462600C94755B0D94133852
:100100000C94F3540C9479B80C9448B40D94566B39
:100110000C94BFD30C94B9D30C9496670D94EF381C
:100120000C94B0180D94BD920D94413E0D94BF38BF
:100130000D941E390C94A0580D941B1C0D94BB6497
:100140000D94E6320C94F5A90C9451940C94095931
:100150000C940D290D94C4200C94DB480D94E96493
:100160000D94EA390D942E380D94C1390C944369DD
:100170000C9461BE0C9491630C94292B0D94A57979
:100180000D94DD380D94D3390D94E0380D948339F6
:100190000C94B1F90D94C6150D94366A0D94E3389C
:1001A0000D94DB030C9469970C947B970C94EFC12E
:1001B0000D9422380D9446380D94273F0C94B76760
:1001C0000C94792B0D9467380D94B0380D94CD8034
:1001D0000D949D640C9477530D94F36A0D94073934
:1001E0000C940E590C945E530D941E470D94C164EB
:1001F0000D94E1390D94B3010D943A380C9479794A
:100200000D947D390D946B0F0C943D590C94B65A96
:100210000D9462170D9470380C9479F50C943AF3A0
:100220000C9456C20D94AE390D94B81C0D94FD3744
:100230000D948F650D9497640D943E010D94F62FE7
:100240000C9406290C943C970D94C85F0D94AC4116
:100250000C9475450D9471640C94A1480D94721D15
:100260000C9450AD0C94E0BC0D9428380C948E295D
:100270000C9411AC0C9430C30D9487940D94FE3003
:100280000D9455380D9454150C948CF20C9472976F
:100290000C940E450C94EBB00D9431660D943F799F
:1002A0000C9486C10D9410530C942F620D94BC06CF
:1002B0000C9459690D945E590C94F8570C94F928D4
:1002C0000D9439790C944EF10C9471AF0C949649BD
:1002D0000D94CE380C94CF2A0C94EC450D9419381B
:1002E0000D9409380D948E610C946EFF0D9441139A
:1002F0000C94C5D30C9493F60D943D790D947B64C6
:100300000D94D70C0D9402110C94C7D30D94DD02FB
:100310000C94D8630D9479380C943BB10C94065E20
:100320000C9460620D94AF8F0C94AE290D94304FF5
:100330000D94AD380C942FF70D94C2380D94AF6422
:100340000C94B0540D944B0E0C94BBD30D94856457
:100350000C94302B0C94E0280C94DE450C9481C056
:100360000D94E4690C94F0FF0C94E7B70D94C73931
:100370000C941C450C94FA640D9483530D94DD3F4A
:100380000D941C380D94B9790D9491640D947C38BA
:100390000D94F8380C9413290D94ED390D946619C9
:1003A0000D9449380C94F1280C94D1920C947D59F9
:1003B0000D9415080C94CE930C949C680D9469626E
:1003C0000D94AA940D9437380D94E9380D945D007E
:1003D0000D945B380D9461380C94E3540C944C5597
:1003E0000C9456450C94A5A90C94F5670C9416BD75
:1003F0000C949CAD0D94D6390C9448450C948D57B3
:100400000D946A380D9476380D94F5380D9413399F
:100410000C9404AD0D94B9330D945A790C940A469A
:100420000D94C83C0D94FA370C94FAFE0D94D51730
:100430000C9463500C9499F40C943B290D94141073
:100440000C942C490D9416920C9420630D94E6386C
:100450000C941B110C94CAF70D945E380C94B7D30E
:100460000C94CEAE0C94CA510D94AB390D94666BBE
:100470000D94A9640C9493540C9481490C94D9283C
:100480000C94C9D30D94B5640C94ED520C94815A1C
:100490000C94222B0D948F200D94CD390C948BF25B
:1004A0000D94C7450C94EA670D94B5600D9404391A
:1004B0000C9496BF0D94C8000D9449390D941643C1
:1004C0000D94F4180C94A3920D94BC380D94BE397D
:1004D0000C9409680C94D4FA0C94C3D30D94221F85
:1004E0000D9420020D94570D0D943D380C9417492E
:1004F0000D942E930C9460920D94B2470D944C3849
:100500000D94F3610D94C20D0D9452380D94354D38
:100510000C94D1F80D9424200D94926B0D94DA393B
:100520000C94603F0D945F400C945C930C94815448
:100530000D94B9380C94BDD30C9400290D940A394C
:100540000D94C4520D9421390D94D60E0D945A3940
:100550000D94D80C0D94A7380D9420610C9440494B
:100560000C9411B90D9425380D94A1520D94A83E08
:100570000C94AE2A0C943A580D9430390D94D73817
:100580000D9458520C943F920C949F450D949E38B4
:100590000C94F1F30C94E3AA0C9414930C94C9BD3D
:1005A0000C943C5B0C9479A80C942EA80C9493BAF0
:1005B0000D94A5390D941C640C94D5640C94B72A41
:1005C0000C9457540D94F81A0C944B490D948729A8
:1005D0000D94B7390D9482380C94CEF20C9491F2AC
:1005E0000C94BA500C9495FE0D94FE380C94A354C0
:1005F0000D9400380D94FB380C94CFF20D946C05DB
:100600000D94246B0C94B1D30C9460500C941AC0CC
:100610000C94B5D30C94A85A0C949AF30D94615F82
:100620000D94A0140D94BF3C0D9499790D947E0205
:100630000D946D380C94BB280C9461AC0D9410385B
:100640000D945B2E0C942FAB0D940C380C9448BC7D
:100650000D94C7640D9437790C9444950C945B5BAE
:100660000C94BE480D9402220D94F5650D94B10AC8
:100670000C9497AA0D9441790C942FBF0D94DE39F8
:100680000C94E35A0C94A1970D94E2440C9466499F
:100690000C94F6640C9436490C946C2A0D94C4396D
:1006A0000D94136B0D949E690C947EAE0D941939C4
:1006B0000D94A2110C9444B70C94D2780D94343854
:1006C0000D947F640C9460BB0C9484630D94E86477
:1006D0000C9422940C94B0C40D94B6380D940994E3
:1006E0000C9455460C94C4C20D9463170D94AA380B
:1006F0000C94CB790D9428500C94FE170C941C5E2E
:100700000C9494F60C94A1670C941CC50D94C76BC3
:100710000D9486630D947F380D944F380C941EFA17
:100720000D94A4380C94502B0C94AC670D940338A2
:100730000C9470B20D9464380D94E16B0D94D95EF5
:100740000D94AD790D94011D0C94D6940D94131055
:100750000D94B4390C940FB60D949F480C94C7B9FE
:100760000C942DF20D947F100C943A450D94592061
:100770000D9453150C9449160C947F290D942863FD
:100780000C947B630C94B2B60D9440380C94DEB19B
:100790000D94DF4F0C94E53E0D94CD640D94B1396A
:1007A0000C9422490D94963D0C9445530C949BB0A7
:1007B0000C944E530C940C490C942ABB0C941B6360
:1007C0000D94F2380D9485380D94CA390D9408644F
:1007D0000D943B030D94A4400C94FE580D94AC6B07
:1007E0000D944D440D948B790D94E4390C94F52AB5
:1007F0000C944E690D943E0B0D94890B0C942C12A5
:100800000D9437390D94CD620D941C1A0C94C5A823
:100810000C9474540C94CFF40C9444970C942B4681
:100820000D9421350C94F3280C942B450D94A3645E
:100830000D94DA380D940C410D9443380C94B85251
:100840000D9443790C9405C10D94EC380C94943BB1
:100850000C94C3440C94A7680C942CC60D947A791C
:100860000D94CA4F0D94CB380D94E1410C94036361
:100870000C94C0C50C9444590C948B490D94036C92
:100880000C949EC30D94B3380C945EBA0D94A4439B
:100890000D94452B0C9456970C94F7440D94E51D3C
:1008A0000C94DA510D9477640D94E7390C94D75475
:1008B0000D9412420C94DF2A0D94C8380D943B79A4
:1008C0000C9478290C94D36B0D9473380C9413BC4E
:1008D0000C9491B90C94C1D30D9480390D94C71523
:1008E0000D94D0390C9402590C94EE2A0D94776B28
:1008F0000D94A9460C947DB50C94A5B30D941039B4
:100900000D947B260C94D2440C94AFD30D94D13823
:100910000D94F11B0C94D72A0C948A630D94BD504E
:100920000D948D1C0D9431380D94A8390C94969526
:100930000C9413B30C9487F10D9476640D941F38C6
:100940000D948A0B0D9488920D948B640D94200A5B
:100950000C94CBD30D9401390C94C82A0D94F03922
:100960000C9402650C94F1480C94B3D30C942DA80C
:100970000C94785A0D9406380D94C3120D940D39C9
:100980000C9483F20C94BDAF0D94D4380C944BC6E8
:100990000D9495440D94A1380D9458380D94391642
:1009A0000C94EA540D94036B0C9453FC0D941E604C
:1009B0000C94AF2A0C9486290C94CDD30D94295312
:1009C0000D94880B0C9426C40C94A1490C940C73C0
:1009D0000D9410590C94455B0D945B4E0D94974209
:1009E0000D949B380C94E62A0D942B380C9409B086
:1009F0000D94071E526573657420636F6E74726F79
:100A00006C2069732063757272656E746C792064F2
:100A1000697361626C65642E00436F6D6D7320684D
:100A2000616C7465642E204E6578742062797465FB
:100A30002077696C6C20726573657420746865201A
:100A400041726475696E6F2E000A50616765206897
:100A50006173206E6F74206265656E20696D706CC5
:100A6000656D656E74656420796574000A426F6F08
:100A70007374206C6F6F6B7570207461626C6500AD
:100A80000A326E642049676E6974696F6E204D6129
:100A900070000A326E64204675656C204D617000EE
:100AA0000A50616765203920436667000A547269FD
:100AB0006D2031205461626C65000A565654204DF9
:100AC0006170000A426F6F7374204D6170000A50AC
:100AD00067203620436F6E666967000A41465220E0
:100AE0004D6170000A5067203420436667000A4950
:100AF000676E6974696F6E204D6170000A506720DF
:100B00003220436667000A5645204D6170004572E9
:100B1000723A20556E6B6E6F776E20636D64000ABB
:100B20003D3D3D436F6D6D616E642048656C703D69
:100B30003D3D0A0A416C6C20636F6D6D616E64739C
:100B4000206172652073696E676C652063686172ED
:100B5000616374657220616E642061726520636FE9
:100B60006E636174656E6174656420776974682072
:100B7000746865697220706172616D657465727305
:100B8000200A776974686F75742073706163657388
:100B90002E53796E7461783A20203C636F6D6D61DD
:100BA0006E643E2B3C706172616D65746572313E9E
:100BB0002B3C706172616D65746572323E2B3C70C6
:100BC0006172616D657465724E3E0A0A3D3D3D4C31
:100BD000697374206F6620436F6D6D616E64733D41
:100BE0003D3D0A0A41202D20446973706C61797380
:100BF000203331206279746573206F6620637572CB
:100C000072656E745374617475732076616C75656A
:100C10007320696E2062696E61727920286C697632
:100C2000652064617461290A42202D204275726E2C
:100C30002063757272656E74206D617020616E64E0
:100C400020636F6E666967506167652076616C75B9
:100C5000657320746F20656570726F6D0A43202D77
:100C6000205465737420434F4D20706F72742E2092
:100C700020557365642062792054756E65727374B3
:100C80007564696F20746F2073656520776865747B
:100C900068657220616E20454355206973206F6E30
:100CA000206120676976656E2073657269616C20CA
:100CB0000A20202020706F72742E20526574757285
:100CC0006E7320612062696E617279206E756D624B
:100CD00065722E0A4E202D205072696E74206E654A
:100CE00077206C696E652E0A50202D205365742084
:100CF00063757272656E7420706167652E20205373
:100D0000796E7461783A2020502B3C706167654E93
:100D1000756D6265723E0A52202D2053616D65200B
:100D20006173204120636F6D6D616E640A53202DE5
:100D300020446973706C6179207369676E617475A2
:100D40007265206E756D6265720A51202D205361A7
:100D50006D65206173205320636F6D6D616E640A51
:100D600056202D20446973706C6179206D6170206C
:100D70006F7220636F6E6669675061676520766188
:100D80006C75657320696E2062696E6172790A57AD
:100D9000202D20536574206F6E6520627974652064
:100DA000696E206D6170206F7220636F6E66696777
:100DB000506167652E2020457870656374732062EA
:100DC000696E61727920706172616D6574657273AC
:100DD0002E200A2020202053796E7461783A20203A
:100DE000572B3C6F66667365743E2B3C6E6577626D
:100DF0007974653E0A74202D205365742063616CFC
:100E00006962726174696F6E2076616C7565732EAC
:100E10002020457870656374732062696E61727911
:100E200020706172616D65746572732E202054614B
:100E3000626C6520696E64657820697320656974E9
:100E400068657220302C200A20202020312C206F51
:100E50007220322E202053796E7461783A202074EB
:100E60002B3C74626C655F6964783E2B3C6E6577E1
:100E700056616C7565313E2B3C6E657756616C75BD
:100E800065323E2B3C6E657756616C75654E3E0A49
:100E90005A202D20446973706C61792063616C69FC
:100EA00062726174696F6E2076616C7565730A5445
:100EB000202D20446973706C61797320323536209F
:100EC000746F6F7468206C6F6720656E74726965EB
:100ED0007320696E2062696E6172790A72202D201A
:100EE000446973706C6179732032353620746F6F8A
:100EF0007468206C6F6720656E74726965730A553B
:100F0000202D205072657061726520666F722066B8
:100F100069726D77617265207570646174652E20E9
:100F2000546865206E6578742062797465207265F6
:100F30006365697665642077696C6C20636175739D
:100F400065207468652041726475696E6F20746FE6
:100F50002072657365742E0A3F202D2044697370DA
:100F60006C61797320746869732068656C70207097
:100F7000616765002C2000575545004F3200496ECF
:100F80006C65742074656D7000436F6F6C616E7476
:100F900000526573657420636F6E74726F6C2069A4
:100FA000732063757272656E746C79206469736105
:100FB000626C65642E00436F6D6D732068616C74A4
:100FC00065642E204E657874206279746520776997
:100FD0006C6C20726573657420746865204172645E
:100FE00075696E6F2E00537065656475696E6F204C
:100FF0003230323230372E31007370656564756976
:101000006E6F20323032323037004552523B204929
:101010006E636F727265637420454550524F4D2068
:1010200073697A65003030310020002000200020F4
:1010300000202020200000008000200120018000EE
:1010400020018000F0008001C000C0002001C0002D
:10105000800020010001537065656475696E6F0042
:10106000537065656475696E6F20323031392E308A
:10107000382D73657200537065656475696E6F20F5
:1010800063737830323031392E3800040E11191B59
:1010900020292B2D2F31333537393B3D3F414345F7
:1010A000474B4D4F515557595D61666D7700002094
:1010B000002300260029002C002F00320000010030
:1010C0000003010601090100002100240027002A75
:1010D000002D003000330001010000040107010A67
:1010E0000100002200250028002B002E00310034D2
:1010F0000002010000050108010B010505050507B7
:101100000508080808020202020A0A080804040482
:1011100004010101010101010103030303030303AE
:1011200003040707070C0C0C0C0C0C0C0C0202023D
:101130000206060606060606060B0B0B0B0B0B0B30
:101140000B010210202008081020401020408002CF
:1011500001020108040201010204081020408080FD
:101160004020100804020180040201804020100881
:101170000402010804020101020408102040800159
:101180000204081020408000000A0B02090C0D0E1A
:101190000807030401000000000000000000000038
:1011A000000000000000000000000000000000003F
:1011B00000000012111000000000000000000000FC
:1011C000000000000000000000000000000000001F
:1011D00000963007772C610EEEBA51099919C46D4B
:1011E000078FF46A7035A563E9A395649E3288DBA6
:1011F0000EA4B8DC791EE9D5E088D9D2972B4CB67D
:1012000009BD7CB17E072DB8E7911DBF906410B772
:101210001DF220B06A4871B9F3DE41BE847DD4DA94
:101220001AEBE4DD6D51B5D4F4C785D38356986CC1
:1012300013C0A86B647AF962FDECC9658A4F5C0142
:1012400014D96C0663633D0FFAF50D088DC8206E46
:101250003B5E10694CE44160D5727167A2D1E40332
:101260003C47D4044BFD850DD26BB50AA5FAA8B551
:10127000356C98B242D6C9BBDB40F9BCACE36CD844
:1012800032755CDF45CF0DD6DC593DD1ABAC30D9E2
:10129000263A00DE518051D7C81661D0BFB5F4B4EC
:1012A0002123C4B3569995BACF0FA5BDB89EB802F5
:1012B000280888055FB2D90CC624E90BB1877C6F7A
:1012C0002F114C6858AB1D61C13D2D66B69041DCB5
:1012D000760671DB01BC20D2982A10D5EF8985B142
:1012E000711FB5B606A5E4BF9F33D4B8E8A2C907FD
:1012F0007834F9000F8EA8099618980EE1BB0D6A94
:101300007F2D3D6D08976C6491015C63E6F4516B31
:101310006B62616C1CD83065854E0062F2ED9506FB
:101320006C7BA5011BC1F4088257C40FF5C6D9B068
:101330006550E9B712EAB8BE8B7C88B9FCDF1DDDC9
:1013400062492DDA15F37CD38C654CD4FB5861B21D
:101350004DCE51B53A7400BCA3E230BBD441A5DFF9
:101360004AD795D83D6DC4D1A4FBF4D6D36AE969B8
:1013700043FCD96E34468867ADD0B860DA732D046B
:1013800044E51D03335F4C0AAAC97C0DDD3C7105A1
:1013900050AA41022710100BBE86200CC925B56843
:1013A00057B3856F2009D466B99FE461CE0EF9DE8C
:1013B0005E98C9D9292298D0B0B4A8D7C7173DB331
:1013C00059810DB42E3B5CBDB7AD6CBAC02083B85B
:1013D000EDB6B3BF9A0CE2B6039AD2B1743947D5D1
:1013E000EAAF77D29D1526DB048316DC73120B63FC
:1013F000E3843B64943E6A6D0DA85A6A7A0BCF0E63
:10140000E49DFF099327AE000AB19E077D44930F28
:10141000F0D2A3088768F2011EFEC206695D57621A
:10142000F7CB67658071366C19E7066B6E761BD457
:10143000FEE02BD3895A7ADA10CC4ADD676FDFB928
:10144000F9F9EFBE8E43BEB717D58EB060E8A3D6CC
:10145000D67E93D1A1C4C2D83852F2DF4FF167BB18
:10146000D16757BCA6DD06B53F4B36B248DA2B0D27
:10147000D84C1B0AAFF64A0336607A0441C3EF60CA
:10148000DF55DF67A8EF8E6E3179BE69468CB36198
:10149000CB1A8366BCA0D26F2536E2685295770CD2
:1014A000CC03470BBBB91602222F260555BE3BBA0B
:1014B000C5280BBDB2925AB42B046AB35CA7FFD700
:1014C000C231CFD0B58B9ED92C1DAEDE5BB0C264CD
:1014D0009B26F263EC9CA36A750A936D02A9060928
:1014E0009C3F360EEB8567077213570005824ABF93
:1014F00095147AB8E2AE2BB17B381BB60C9B8ED21A
:10150000920DBED5E5B7EFDC7C21DFDB0BD4D2D367
:101510008642E2D4F1F8B3DD686E83DA1FCD16BEE1
:10152000815B26B9F6E177B06F7747B718E65A08BE
:1015300088706A0FFFCA3B06665C0B0111FF9E654F
:101540008F69AE62F8D3FF6B6145CF6C1678E20A03
:10155000A0EED20DD75483044EC2B303396126677F
:10156000A7F71660D04D476949DB776E3E4A6AD1CE
:10157000AEDC5AD6D9660BDF40F03BD83753AEBC51
:10158000A9C59EBBDE7FCFB247E9FFB5301CF2BDD7
:10159000BD8AC2BACA3093B353A6A3B4240536D0C9
:1015A000BA9306D7CD2957DE54BF67D9232E7A6662
:1015B000B3B84A61C4021B685D942B6F2A37BE0B17
:1015C000B4A18E0CC31BDF055A8DEF022D00000065
:1015D0000041311B1982623632C3532D2B04C56C76
:1015E0006445F4777D86A75A56C796414F088AD935
:1015F000C849BBC2D18AE8EFFACBD9F4E30C4FB5A6
:10160000AC4D7EAEB58E2D839ECF1C98875112C2F5
:101610004A1023D953D370F4789241EF6155D7AE75
:101620002E14E6B537D7B5981C9684830559981BB8
:101630008218A9009BDBFA2DB09ACB36A95D5D77A5
:10164000E61C6C6CFFDF3F41D49E0E5ACDA2248471
:1016500095E3159F8C2046B2A76177A9BEA6E1E865
:10166000F1E7D0F3E82483DEC365B2C5DAAAAE5D44
:101670005DEB9F464428CC6B6F69FD7076AE6B3195
:1016800039EF5A2A202C09070B6D381C12F3364605
:10169000DFB2075DC6715470ED30656BF4F7F32A65
:1016A000BBB6C231A275911C8934A00790FBBC9FC8
:1016B00017BA8D840E79DEA92538EFB23CFF79F395
:1016C00073BE48E86A7D1BC5413C2ADE58054F7948
:1016D000F0447E62E9872D4FC2C61C54DB018A1597
:1016E0009440BB0E8D83E823A6C2D938BF0DC5A098
:1016F000384CF4BB218FA7960ACE968D130900CCE7
:101700005C4831D7458B62FA6ECA53E177545DBBB2
:10171000BA156CA0A3D63F8D88970E96915098D796
:10172000DE11A9CCC7D2FAE1EC93CBFAF55CD76213
:10173000721DE6796BDEB554409F844F5958120EE6
:10174000161923150FDA7038249B41233DA76BFD32
:1017500065E65AE67C2509CB576438D04EA3AE9196
:1017600001E29F8A1821CCA73360FDBC2AAFE12497
:10177000ADEED03FB42D83129F6CB20986AB2448E6
:10178000C9EA1553D029467EFB687765E2F6793FB2
:101790002FB7482436741B091D352A1204F2BC5396
:1017A0004BB38D485270DE657931EF7E60FEF3E613
:1017B000E7BFC2FDFE7C91D0D53DA0CBCCFA368AE6
:1017C00083BB07919A7854BCB13965A7A84B98831D
:1017D0003B0AA99822C9FAB50988CBAE104F5DEF34
:1017E0005F0E6CF446CD3FD96D8C0EC27443125A15
:1017F000F3022341EAC1706CC1804177D847D736E4
:101800009706E62D8EC5B500A584841BBC1A8A41B7
:10181000715BBB5A6898E87743D9D96C5A1E4F2D33
:10182000155F7E360C9C2D1B27DD1C003E12009898
:10183000B9533183A09062AE8BD153B59216C5F4E3
:10184000DD57F4EFC494A7C2EFD596D9F6E9BC07EB
:10185000AEA88D1CB76BDE319C2AEF2A85ED796B23
:10186000CAAC4870D36F1B5DF82E2A46E1E136DE24
:1018700066A007C57F6354E8542265F34DE5F3B2D3
:1018800002A4C2A91B6791843026A09F29B8AEC5C7
:10189000E4F99FDEFD3ACCF3D67BFDE8CFBC6BA923
:1018A00080FD5AB2993E099FB27F3884ABB0241CA8
:1018B0002CF115073532462A1E73773107B4E170D3
:1018C00048F5D06B513683467A77B25D634ED7FACE
:1018D000CB0FE6E1D2CCB5CCF98D84D7E04A129695
:1018E000AF0B238DB6C870A09D8941BB84465D2394
:1018F00003076C381AC43F1531850E0E2842984FE5
:101900006703A9547EC0FA795581CB624C1FC53854
:10191000815EF423989DA70EB3DC9615AA1B005494
:10192000E55A314FFC996262D7D85379CE174FE10F
:1019300049567EFA50952DD77BD41CCC62138A8DE4
:101940002D52BB963491E8BB1FD0D9A006ECF37E94
:101950005EADC265476E91486C2FA05375E8361294
:101960003AA90709236A5424082B653F11E479A793
:1019700096A548BC8F661B91A4272A8ABDE0BCCBE4
:10198000F2A18DD0EB62DEFDC023EFE6D9BDE1BC54
:1019900014FCD0A70D3F838A267EB2913FB924D094
:1019A00070F815CB693B46E6427A77FD5BB56B650F
:1019B000DCF45A7EC5370953EE763848F7B1AE09E4
:1019C000B8F09F12A133CC3F8A72FD24930000002F
:1019D00000376AC2016ED4840359BE4602DCA809EE
:1019E00007EBC2CB06B27C8D0485164F05B85113A8
:1019F0000E8F3BD10FD685970DE1EF550C64F91A88
:101A0000095393D8080A2D9E0A3D475C0B70A32604
:101A10001C47C9E41D1E77A21F291D601EAC0B2F99
:101A20001B9B61ED1AC2DFAB18F5B56919C8F23519
:101A300012FF98F713A626B111914C7310145A3C5B
:101A4000152330FE147A8EB8164DE47A17E0464D11
:101A500038D72C8F398E92C93BB9F80B3A3CEE44FB
:101A60003F0B84863E523AC03C6550023D58175E9B
:101A7000366F7D9C3736C3DA3501A9183484BF57D9
:101A800031B3D59530EA6BD332DD01113390E56B7C
:101A900024A78FA925FE31EF27C95B2D264C4D6267
:101AA000237B27A0222299E62015F3242128B4784D
:101AB0002A1FDEBA2B4660FC29710A3E28F41C71ED
:101AC0002DC376B32C9AC8F52EADA2372FC08D9AB0
:101AD00070F7E75871AE591E739933DC721C259369
:101AE000772B4F517672F11774459BD57578DC8949
:101AF0007E4FB64B7F16080D7D2162CF7CA474808B
:101B000079931E4278CAA0047AFDCAC67BB02EBC67
:101B10006C87447E6DDEFA386FE990FA6E6C86B59C
:101B20006B5BEC776A025231683538F369087FAF36
:101B3000623F156D6366AB2B6151C1E960D4D7A6D6
:101B400065E3BD6464BA0322668D69E06720CBD784
:101B50004817A115494E1F534B7975914AFC63DE16
:101B60004FCB091C4E92B75A4CA5DD984D989AC49C
:101B700046AFF00647F64E4045C12482444432CD7C
:101B80004173580F402AE649421D8C8B435068F13F
:101B900054670233553EBC755709D6B7568CC0F80A
:101BA00053BBAA3A52E2147C50D57EBE51E839E2CA
:101BB0005ADF53205B86ED6659B187A4583491EB08
:101BC0005D03FB295C5A456F5E6D2FAD5F801B3551
:101BD000E1B771F7E0EECFB1E2D9A573E35CB33CB6
:101BE000E66BD9FEE73267B8E5050D7AE4384A2698
:101BF000EF0F20E4EE569EA2EC61F460EDE4E22FDC
:101C0000E8D388EDE98A36ABEBBD5C69EAF0B8133E
:101C1000FDC7D2D1FC9E6C97FEA90655FF2C101A69
:101C2000FA1B7AD8FB42C49EF975AE5CF848E9000D
:101C3000F37F83C2F2263D84F0115746F1944109A7
:101C4000F4A32BCBF5FA958DF7CDFF4FF6605D78B9
:101C5000D95737BAD80E89FCDA39E33EDBBCF571C7
:101C6000DE8B9FB3DFD221F5DDE54B37DCD80C6B83
:101C7000D7EF66A9D6B6D8EFD481B22DD504A46229
:101C8000D033CEA0D16A70E6D35D1A24D210FE5EA6
:101C9000C527949CC47E2ADAC6494018C7CC56573B
:101CA000C2FB3C95C3A282D3C195E811C0A8AF4D39
:101CB000CB9FC58FCAC67BC9C8F1110BC974074435
:101CC000CC436D86CD1AD3C0CF2DB902CE4096AF8E
:101CD0009177FC6D902E422B921928E9939C3EA699
:101CE00096AB546497F2EA2295C580E094F8C7BC9D
:101CF0009FCFAD7E9E9613389CA179FA9D246FB537
:101D000098130577994ABB319B7DD1F39A30358979
:101D10008D075F4B8C5EE10D8E698BCF8FEC9D80C4
:101D20008ADBF7428B82490489B523C68888649A86
:101D300083BF0E5882E6B01E80D1DADC8154CC938A
:101D40008463A651853A1817870D72D586A0D0E214
:101D5000A997BA20A8CE0466AAF96EA4AB7C78EB4A
:101D6000AE4B1229AF12AC6FAD25C6ADAC1881F1E8
:101D7000A72FEB33A6765575A4413FB7A5C429F824
:101D8000A0F3433AA1AAFD7CA39D97BEA2D073C441
:101D9000B5E71906B4BEA740B689CD82B70CDBCD36
:101DA000B23BB10FB3620F49B155658BB06822D712
:101DB000BB5F4815BA06F653B8319C91B9B48ADEB8
:101DC000BC83E01CBDDA5E5ABFED3498BE00000053
:101DD000006567BCB88BC809AAEEAFB51257976209
:101DE0008F32F0DE37DC5F6B25B938D79DEF28B432
:101DF000C58A4F087D64E0BD6F018701D7B8BFD6A3
:101E00004ADDD86AF23377DFE0561063589F5719DE
:101E100050FA30A5E8149F10FA71F8AC42C8C07BA4
:101E2000DFADA7C76743087275266FCECD707FAD53
:101E3000951518112DFBB7A43F9ED0188727E8CF22
:101E40001A428F73A2AC20C6B0C9477A083EAF329F
:101E5000A05BC88E18B5673B0AD00087B2693850BE
:101E60002F0C5FEC97E2F059858797E53DD1878687
:101E700065B4E03ADD5A4F8FCF3F2833778610E4C0
:101E8000EAE37758520DD8ED4068BF51F8A1F82B1E
:101E9000F0C49F97482A30225A4F579EE2F66F4966
:101EA0007F9308F5C77DA740D518C0FC6D4ED09F25
:101EB000352BB7238DC518969FA07F2A271947FD7C
:101EC000BA7C204102928FF410F7E848A83D5814DC
:101ED0009B583FA823B6901D31D3F7A1896ACF76CE
:101EE000140FA8CAACE1077FBE8460C306D270A0FD
:101EF0005EB7171CE659B8A9F43CDF154C85E7C25C
:101F0000D1E0807E690E2FCB7B6B4877C3A20F0D8B
:101F1000CBC768B17329C704614CA0B8D9F5986FD5
:101F20004490FFD3FC7E5066EE1B37DA564D27B93E
:101F30000E284005B6C6EFB0A4A3880C1C1AB0DB6F
:101F4000817FD767399178D22BF41F6E9303F726E0
:101F50003B66909A83883F2F91ED589329546044B3
:101F6000B43107F80CDFA84D1EBACFF1A6ECDF9212
:101F7000FE89B82E4667179B54027027ECBB48F0C9
:101F800071DE2F4CC93080F9DB55E745639CA03FDB
:101F90006BF9C783D3176836C1720F8A79CB375D67
:101FA000E4AE50E15C40FF544E2598E8F673888B10
:101FB000AE16EF3716F84082049D273EBC241FE979
:101FC0002141785599AFD7E08BCAB05C333BB65905
:101FD000ED5ED1E555B07E5047D519ECFF6C213B45
:101FE00062094687DAE7E932C8828E8E70D49EEDA8
:101FF00028B1F951905F56E4823A31583A83098FFB
:10200000A7E66E331F08C1860D6DA63AB5A4E14060
:10201000BDC186FC052F2949174A4EF5AFF376223C
:102020003296119E8A78BE2B981DD997204BC9F401
:10203000782EAE48C0C001FDD2A566416A1C5E96EE
:10204000F779392A4F97969F5DF2F123E505196BD1
:102050004D607ED7F58ED162E7EBB6DE5F528E091A
:10206000C237E9B57AD9460068BC21BCD0EA31DF75
:10207000888F56633061F9D622049E6A9ABDA6BD48
:1020800007D8C101BF366EB4AD530908159A4E7218
:102090001DFF29CEA511867BB774E1C70FCDD910DE
:1020A00092A8BEAC2A461119382376A5807566C65B
:1020B000D810017A60FEAECF729BC973CA22F1A418
:1020C00057479618EFA939ADFDCC5E114506EE4D88
:1020D000766389F1CE8D2644DCE841F86451792F8E
:1020E000F9341E9341DAB12653BFD69AEBE9C6F90B
:1020F000B38CA1450B620EF01907694CA1BE519B30
:102100003CDB3627843599929650FE2E2E99B95491
:1021100026FCDEE89E12715D8C7716E134CE2E36F9
:10212000A9AB498A1145E63F03208183BB7691E044
:10213000E313F65C5BFD59E949983E55F1210682AF
:102140006C44613ED4AACE8BC6CFA9377E38417F7E
:10215000D65D26C36EB389767CD6EECAC46FD61D13
:10216000590AB1A1E1E41E14F38179A84BD769CBD8
:1021700013B20E77AB5CA1C2B939C67E0180FEA94D
:102180009CE59915240B36A0366E511C8EA7166659
:1021900086C271DA3E2CDE6F2C49B9D394F08104EB
:1021A0000995E6B8B17B490DA31E2EB11B483ED25E
:1021B000432D596EFBC3F6DBE9A69167511FA9B009
:1021C000CC7ACE0C749461B966F10605DE00E600A7
:1021D00011241FBECFEFD1E2DEBFCDBF00E00CBFA8
:1021E00012E0A0E0B2E0EEE7FDE303E00BBF02C0C7
:1021F00007900D92A03AB107D9F720E2A0EAB2E029
:1022000001C01D92A435B207E1F710E1C8EED0E19C
:1022100000E006C021970109802FFE010F941F9D49
:10222000C73ED10780E00807A9F70F94D7840D9423
:10223000BD9E0C940000EF92FF920F931F93CF93DB
:10224000DF930091271D10E08091241D8C718C304C
:1022500009F4F9C0F80130E020E0E090181DF0909A
:10226000191D6091910C7091920C809104099091CC
:1022700005098E199F090F94529C61507109E61748
:10228000F7070CF0CFC06E1B7F0BC0916007D09199
:102290006107C617D70720F4061717070CF0D1C03F
:1022A0002C0F3D1F922F432F6217730710F4962FA8
:1022B000472F90933407409335076091910C7091AC
:1022C000920C80910209909103098E199F090F9435
:1022D000529C61507109E617F7070CF09CC06E1B09
:1022E0007F0BC617D70720F4061717070CF0A7C0F7
:1022F000522FA32F6217730710F4562FA72F509356
:102300003207A09333076091910C7091920C8091E9
:102310000009909101098E199F090F94529C6150F8
:102320007109E617F7070CF06FC06E1B7F0BC6171D
:10233000D70720F4061717070CF07FC0B22F832FA2
:102340006217730710F4B62F872FB093300780936E
:1023500031076091910C7091920C8091FE089091E0
:10236000FF088E199F090F94529C61507109E6175E
:10237000F7070CF042C06E1B7F0BC617D70720F47F
:10238000061717070CF057C0922F432F62177307D9
:1023900010F4962F472F90932E0740932F076091AC
:1023A000910C7091920C8091FC089091FD088E190F
:1023B0009F090F94529C61507109E617F707BCF40E
:1023C0006E1B7F0BC617D70718F4061717078CF577
:1023D0002617370708F09B0130931E0720931D072F
:1023E000DF91CF911F910F91FF90EF9008951616F6
:1023F000170644F36E0F7F1FE5CF161617060CF471
:10240000BCCF6E0F7F1FB9CF161617060CF48FCFF7
:102410006E0F7F1F8CCF161617060CF462CF6E0F4F
:102420007F1F5FCF161617060CF42FCF6E0F7F1F7E
:102430002CCFBE01CDCFBE01A7CFBE017FCFBE0145
:1024400057CFBE012DCFE0901D1DE1FC03CF9801B9
:10245000F801EE0FFF1F01CFCF92DF92EF92FF92B4
:10246000E0918007F09181071995AC01893621E050
:1024700092070CF443C09C0129563140A3E8BDE209
:102480000F94F49C0024880F991F001C880F991F3B
:10249000001C892F902D8770992748565140493646
:1024A00021E052075CF1009719F181309105D1F0DC
:1024B00082309105A9F08330910581F08430910537
:1024C00059F08530910531F0069711F0485651408A
:1024D0004856514048565140485651404856514040
:1024E0004856514048565140493621E0520734F091
:1024F00040545B40493681E05807D4F78091181D5D
:102500009091191D481B590B2091911F2370223067
:1025100031F4C090911DD090921D4C195D09E0914D
:10252000941D9A01220F331FF0E0A0E0B1E0AE1B32
:10253000BF0B0F94279D6B017C01A091551FB0919B
:10254000561F9F010F942F9DC60ED71EE81EF91E21
:10255000CD2CDE2CEF2CFF24E7FCFA94D092561FF2
:10256000C092551FFF90EF90DF90CF900895EEE559
:10257000FFE1158E168E178E10A2A385B4858D915E
:102580009D910D90BC91A02D81A392A3A3A3B4A370
:10259000118E128E138E148E1092081F1092071F28
:1025A000EFE6F0E020812D7F208330918508E091D7
:1025B0008608F091870890813095392330830895FB
:1025C000CF92DF92EF92FF92AB01DC011396FC9168
:1025D000139711962D913C91EF2FEF712115310535
:1025E00039F52F2FFF0F330B220F232F221F330B11
:1025F0008FEF9FEF0E2E02C0880F991F0A94E2F70B
:1026000080959095BA01770F660B762F86239723D6
:10261000840F951F02C095958795EA95E2F782276A
:102620009327821B930BFF90EF90DF90CF9008953C
:10263000DB010F94279D6C01FF24D7FCF094EF2C55
:10264000C601F6FF0EC02F2FFF0F330B220F232FD3
:10265000221F330BCA0182279327821B930B8C0DF9
:102660009D1D02C095958795EA95E2F797FD019625
:10267000FF90EF90DF90CF900895EF92FF920F932D
:102680001F93CF93DF939091DE1E96FF15C1C82F45
:10269000D0E0CF37D1050CF0FBC0DE01A095B0959E
:1026A000A370BB27109709F456C0A130B10549F1BA
:1026B000129709F083C18E01000F111F000F111F27
:1026C0000A551B4FF80180819181A281B3818B2F24
:1026D0000F94A066F80160817181828193810F94CB
:1026E000A066F80180819181A281B381892F0F9426
:1026F000A066F80180819181A281B3810F94A066C8
:1027000021968E01000F111F000F111F0A551B4F3C
:10271000F80180819181A281B3818B2F0F94A066F3
:10272000F80160817181828193810F94A066F80124
:1027300080819181A281B381892F0F94A066F801D5
:1027400080819181A281B3810F94A0662196CF37B9
:10275000D10509F49DC08E01000F111F000F111F3C
:102760000A551B4FF80180819181A281B3818B2F83
:102770000F94A066F80160817181828193810F942A
:10278000A066F80180819181A281B381892F0F9485
:10279000A066F80180819181A281B3810F94A06627
:1027A0007E01FFEFEF1AFF0A8701000F111F000FD4
:1027B000111F0A551B4FF80180819181A281B381BD
:1027C0008B2F0F94A066F8016081718182819381C3
:1027D0000F94A066F80180819181A281B381892F35
:1027E0000F94A066F80180819181A281B3810F943A
:1027F000A0668701000F111F000F111F06551B4F08
:10280000F80180819181A281B3818B2F0F94A06602
:10281000F80160817181828193810F94A066F80133
:1028200080819181A281B381892F0F94A066F801E4
:1028300080819181A281B3810F94A0668E01000FE7
:10284000111F000F111F0E541B4FF8018081918141
:10285000A281B3818B2F0F94A066F80160817181F2
:10286000828193810F94A066F80180819181A28179
:10287000B381892F0F94A066F80180819181A28194
:10288000B3810F94A0662496CF37D10509F063CFAA
:102890005091DE1E5F7B5093DE1E10920604109254
:1028A0000A041092210910922009DF91CF911F9103
:1028B0000F91FF90EF9008954CEF51E061E060932D
:1028C000D00FE090D30F8091D40FE091C80FF0911A
:1028D000C90FE81609F45EC02091D30F30E02F5FD6
:1028E0003F4F2F733327022F03C00FB607FE22C0BE
:1028F0001091D40F0117C9F3E091D30FF0E0EB5E14
:10290000FF4E10823FB7F8942093D30FE091CA0F87
:10291000F091CB0F2081206220833FBF41505109AD
:1029200071F610920604DF91CF911F910F91FF90E5
:10293000EF900895708175FFDBCFE091D40FF0E048
:10294000EB5EFF4EA081E091D40FF0E03196EF7383
:10295000FF27E093D40FC091CE0FD091CF0FA88363
:10296000E091C80FF091C90FB081B370B064B0832B
:10297000D091D30FF091D40FDF1307C0C091CA0FCD
:10298000D091CB0F98819F7D9883E091C80FF091F3
:10299000C90FAECFF080F5FE9FCFEFB6F894C0918F
:1029A000CE0FD091CF0F1882E091C80FF091C90FD0
:1029B0008081837080648083EFBEB0CF8E01000F72
:1029C000111F000F111F0A551B4FF80180819181C3
:1029D000A281B3818B2F0F94A066F8016081718171
:1029E000828193810F94A066F80180819181A281F8
:1029F000B381892F0F94A066F80180819181A28113
:102A0000B3810F94A066219656CE8F929F92AF927B
:102A1000BF92CF92DF92EF92FF920F931F93CF93CB
:102A2000DF935C018B011092B8021092B7021092F2
:102A30000704812F0F94A066802F0F94A066109337
:102A4000CA030093C9030115110509F4DDC045014E
:102A50008FE3E82EF12C6501C00ED11EC8018370F2
:102A60009927009709F459C081309105C1F1029767
:102A7000D9F0E50189914E010F94A066A091B702AB
:102A8000B091B8021196B093B802A093B70290919A
:102A9000D30F8091D40F981708F0F4C0891B990BBD
:102AA0000197892B09F492C0F40181914F010F9491
:102AB000A0668091B7029091B80201969093B802F7
:102AC0008093B7029091D30F8091D40F981708F09C
:102AD000D2C0891B990B0197892B09F477C0E401B7
:102AE00089914E010F94A066A091B702B091B802EF
:102AF0001196B093B802A093B7029091D30F809132
:102B0000D40F981708F059C0891B990B019709F445
:102B10005DC0C814D90409F477C0E40189910F9409
:102B2000A066E091B702F091B8023196F093B80236
:102B3000E093B7029091D30F8091D40F981708F0CB
:102B400055C0891B990B0197892B09F43FC08881D7
:102B50000F94A0668091B7029091B802019690936D
:102B6000B8028093B7029091D30F8091D40F981739
:102B700008F043C0891B990B0197892B39F1898192
:102B80000F94A066A091B702B091B8021196B093CD
:102B9000B802A093B7029091D30F8091D40F9817E9
:102BA00008F062C0891B990B0197892B79F04E01BF
:102BB000F3E08F0E911C8A8195CF9701291B310973
:102BC000820F932F911D892B09F0A3CF01E0009371
:102BD0000704DF91CF911F910F91FF90EF90DF904D
:102BE000CF90BF90AF909F908F9008959701291B31
:102BF0003109820F932F911DA7CF9701291B31090E
:102C0000820F932F911DB9CF809007048110E1CFDF
:102C10002FEF3FEFA90120930B2030930C2040931E
:102C20000D2050930E2021E0A801B5018BE090E229
:102C30000E9423A1EB01182F892F0F94A066812FEA
:102C40000F94A0668D2F0F94A0668C2FDF91CF91EB
:102C50001F910F91FF90EF90DF90CF90BF90AF90BA
:102C60009F908F900D94A0669701291B3109820FC8
:102C7000932F911D9ACF9701291B3109820F932F12
:102C8000911D2ACF9701291B3109820F932F911D86
:102C900008CFCF92DF92EF92FF920F944E7760931E
:102CA0002A0770932B0780932C0790932D07809110
:102CB0002A0790912B07A0912C07B0912D074091E6
:102CC0006607509167076091680770916907841BD8
:102CD000950BA60BB70B80933A0790933B07A093F5
:102CE0003C07B0933D07C0906607D0906707E0901F
:102CF0006807F0906907CD28CE28CF28C1F410923C
:102D00003A0710923B0710923C0710923D07209122
:102D10002A0730912B0740912C0750912D072093C3
:102D2000660730936707409368075093690740919F
:102D30003A0750913B0760913C0770913D078091A5
:102D4000750790917607A0917707B091780748179B
:102D500059076A077B07C0F13091201D3F7731305A
:102D600009F4C1C0311120C051E05093290760918E
:102D70003A0770913B0780913C0790913D079695EB
:102D8000879577956795609375077093760780931D
:102D9000770790937807A0917307B0917407119605
:102DA000B0937407A0937307C0902A07D0902B07A5
:102DB000E0902C07F0902D07C0926607D09267072D
:102DC000E0926807F0926907D0908B1FD5FE86C00D
:102DD000E0902907EE2009F481C0E0918007F0918E
:102DE00081071995AC01893621E092070CF442C0A5
:102DF0009C0129563140A3E8BDE20F94F49C0024C5
:102E0000880F991F001C880F991F001C892F902D77
:102E10008770992748565140493621E0520754F1AE
:102E2000009711F181309105C9F082309105A1F030
:102E30008330910579F08430910551F0853091050A
:102E400029F0069709F0B5C0485651404856514000
:102E500048565140485651404856514048565140B6
:102E6000493621E0520734F040545B40493681E056
:102E70005807D4F72091181D3091191D421B530B90
:102E80007091911F7370723031F48091531E909144
:102E9000541E481B590BE091941D9A01220F331FB9
:102EA000F0E0A0E0B1E0AE1BBF0B0F94279D6B01DB
:102EB0007C01A091411FB091421F9F010F942F9D53
:102EC000C60ED71EE81EF91ECD2CDE2CEF2CFF24DB
:102ED000E7FCFA94D092421FC092411FFF90EF90FE
:102EE000DF90CF9008958091660790916707A09139
:102EF0006807B0916907C0906207D0906307E090BF
:102F00006407F09065078C199D09AE09BF09AC01F3
:102F1000BD01440F551F661F771F840F951FA61F05
:102F2000B71FB695A795979587958093250790939A
:102F30002607A0932707B0932807209166073091B2
:102F400067074091680750916907209362073093A3
:102F50006307409364075093650740913A07509187
:102F60003B0760913C0770913D0780912507909148
:102F70002607A0912707B0912807481759076A0725
:102F80007B0730F4E0917307F09174073497A0F059
:102F900081E090E0909374078093730780932907F2
:102FA00010927507109276071092770710927807A3
:102FB000FBCE4856514048CF60913A0770913B078D
:102FC00080913C0790913D079695879577956795F9
:102FD00096958795779567956093750770937607B3
:102FE0008093770790937807A0917307B091740747
:102FF0001196B0937407A0937307D6CECF93DF9347
:103000001092720781E08093720720918807233025
:10301000F1F0223091F0213029F4E0918407F09111
:10302000850719956091401F662321F07091720702
:10303000711117C0DF91CF910895E0914E07F09183
:103040004F07308190914D07392339F3EBCFC09171
:103050004E07D0914F07488150914D074523E9F61F
:10306000E1CF80913A0790913B07A0913C07B09146
:103070003D07A091DE1EA6FDDDCFB0913F1FB1112F
:10308000D9CFC0912009D0912109C95DDB4F1882A9
:10309000E0915107F0915207D081F0915007DF2362
:1030A00009F045C0E0914E07F0914F072081309123
:1030B0004D07232349F0C0912009D0912109C95D12
:1030C000DB4F988192609883E0912009F09121096B
:1030D000E95DFB4F4081446040835091911E552330
:1030E00049F0C0912009D0912109C95DDB4F688169
:1030F00068606883C0912009D09121090F944E77B0
:10310000CC0FDD1FCC0FDD1FCA55DB4F68837983E1
:103110008A839B83A0912009B0912109AE37B10524
:1031200080F07091DE1E70647093DE1E83CFC091BC
:103130002009D0912109C95DDB4F88818160888396
:10314000B1CF809120099091210901969093210996
:1031500080932009B091DE1EBF7BB093DE1E6ACF44
:10316000CF93DF931092720780918907833009F41F
:1031700081C08230B9F08130F1F4E0918607F0919E
:103180008707199570913F1F772301F1A09172076E
:10319000A1117BC0B1E0D091401FD1111CC0DF91C3
:1031A000CF910895E0915107F091520720819091BD
:1031B0005007292311F350913F1F552339F0609197
:1031C0007207662339F3DF91CF910895B0E0D09173
:1031D000401FDD2321F3409136075091370760915E
:1031E000380770913907F091DE1EF6FDD8CFC091F7
:1031F0002009D0912109B1116FC0C95DDB4F188240
:10320000E0915107F091520780812091500782236D
:1032100009F082C0E0914E07F0914F073081509144
:103220004D07352349F0C0912009D0912109C95D8E
:10323000DB4F6881626068837091911E772349F04B
:10324000E0912009F0912109E95DFB4FA081A86080
:10325000A083C0912009D09121090F944E77CC0F03
:10326000DD1FCC0FDD1FCA55DB4F688379838A834E
:103270009B833CC0C0915107D09152073881409147
:103280005007342309F079CF96CF2091360730913B
:1032900037074091380750913907B091DE1EB6FDCF
:1032A0007ECFE0912009F0912109EE0FFF1FEE0F74
:1032B000FF1FEA55FB4F2083318342835383809164
:1032C0002009909121098E379105B8F0D091DE1E2A
:1032D000D064D093DE1E63CFCC0FDD1FCC0FDD1F7B
:1032E000CA55DB4F488359836A837B834091200909
:1032F000509121094E37510548F7A0912009B0910E
:1033000021091196B0932109A0932009F091DE1EA6
:10331000FF7BF093DE1E43CFC0912009D09121099D
:10332000C95DDB4F98819160988374CFCF92DF9213
:10333000EF92FF920F931F93CF938091740E80733F
:103340009091241D90FD1EC0803109F469C0803227
:10335000F1F430914E1F333009F429C108F4E7C06D
:10336000353009F4D9C008F437C1363081F4F09013
:103370007C0E78ECF79ED0011124B093081FA09327
:10338000071F05C0803159F0803209F487C0CF9102
:103390001F910F91FF90EF90DF90CF9008951091C3
:1033A0004E1F133009F4E8C008F498C0153009F432
:1033B000E0C008F4A1C0C0917C0E163041F7C09067
:1033C000921ED090931EE090A61EF12CEE0CFF1CD6
:1033D0000CEB15E12CEA35E14CE655E168E085E6B9
:1033E00095E10F94B57AC89F9001112436952795E1
:1033F00036952795ABE7B4E10F94F49C96958795A5
:10340000880F991F880F991F811522E0920708F4F1
:1034100058C02FEF31E03093041F2093031FB7CF24
:1034200030914E1F333009F4AAC008F44FC0353034
:1034300009F49CC008F463C0C0917C0E363009F0DA
:10344000A6CFC090921ED090931EE090A61EF12CA5
:10345000EE0CFF1C0CEB15E12CEA35E14CE655E1D6
:1034600068E085E695E10F94B57AC89FA001112424
:10347000440F551F440F551F413127E2520710F0EA
:1034800040E157E25093081F4093071FCF911F91CF
:103490000F91FF90EF90DF90CF90089500914E1F15
:1034A000033009F46FC008F452C0053059F108F434
:1034B0009EC0063009F06BCF80917C0E90E0880FA3
:1034C000991F9093041F8093031F61CF313089F0BF
:1034D000C091780E323009F4B4CF59CF113031F0A9
:1034E000C091780E123009F46ACF51CFC091770E97
:1034F00066CFC091770EA5CFC0917A0E60CFC091F4
:103500007A0E9FCF80917B0E90E0880F991F909349
:10351000041F8093031F3BCFF0917B0E98ECF99F23
:10352000800111241093081F0093071F30CF313002
:1035300099F1323009F02BCFC090780E48ECC49E40
:1035400070011124F092081FE092071F20CF013074
:10355000C9F1023009F01BCF8091780E90E0880FFE
:10356000991F9093041F8093031F11CFC0917B0E6E
:1035700068CFC0917B0E23CFC091790E20CFC09130
:10358000790E5FCF8091790E90E0880F991F90930C
:10359000041F8093031FFBCED090770E58ECD59E6E
:1035A000B00111247093081F6093071FF0CE109193
:1035B000790EC8EC1C9F900111243093081F2093B2
:1035C000071FE5CE8091770E90E0880F991F9093AA
:1035D000041F8093031FDBCEB0917A0EE8ECBE9FF0
:1035E000C00111249093081F8093071FD0CE8091B3
:1035F0007A0E90E0880F991F9093041F8093031F09
:10360000C6CE8F929F92AF92BF92CF92DF92EF92EF
:10361000FF920F931F936A0159018C01095C1F4FA0
:103620009C01255D3F4FAC01495F5F4F7B0166E028
:103630000F94B57A282F2B51330BD901C5012436AD
:103640003105B1F095010F942F9D2EE33AE047ED3F
:1036500053EA0F94369D00E20F94639D49015A018D
:1036600086E0B694A794979487948A95D1F7C4017D
:103670001F910F91FF90EF90DF90CF90BF90AF9090
:103680009F908F9008954F925F926F927F928F924A
:103690009F92AF92BF92CF92DF92EF92FF920F93E1
:1036A0001F93CF93DF93CDB7DEB768970FB6F8942B
:1036B000DEBF0FBECDBF80914D0C803109F4ABC28F
:1036C000883009F437C189ED9FEF6091B21E709187
:1036D000B31E1091E11E681779070CF4F5C4177F2B
:1036E0001093E11E00914C0C003109F403C5083021
:1036F00009F469C51092CC1E80E0282F30E0A4E6C2
:10370000B0E00F94F49C2EE33AE047ED53EA0F94B7
:10371000369D00E20F94639D49015A01E6E0B6949C
:10372000A79497948794EA95D1F7212F227011FDE1
:1037300009C140904C07342D3470732E42FC04C0F4
:1037400020914A1F211135C01091F21E6091B21EC6
:103750007091B31E685D7F4F8CE29CE00E94ABDDF0
:10376000181719060CF005C54091E11E41FD03C56F
:1037700044604093E11E6091B21E7091B31E685D7B
:103780007F4F8CE39CE00E94ABDD9C012C593F4FA6
:103790001092170437FF02C030E020E02F3F3105C0
:1037A00019F014F02FEF30E01091E11E612F6270DC
:1037B000762EA22F20934A1F2436B9F0B0E0A5013F
:1037C00094010F94E19C2EE33AE047ED53EA0F9405
:1037D000369D00E20F94639D49015A0166E0B6945C
:1037E000A794979487946A95D1F77110B5C0D0903B
:1037F000571EE0901804ED1408F045C06091B21E09
:103800007091B31E685D7F4F8CE09CE00E94ABDD41
:103810009C01220F331F220F331F280F391FA4E6EC
:10382000B0E00F94F49C20914A1F30E050E040E05B
:103830000F94999C69017A010091180424E630E004
:1038400040E050E02C193D094E095F09A02FB0E07F
:103850000F94E19C2091571E30E050E040E00F941F
:10386000669CC20ED31EE41EF51ED601F0904C07D6
:10387000A436B10508F077C41091E11EF2FE03C032
:103880000F5F0093180400919E0E702F73707130BB
:1038900009F498C07111C7C1C090A61E8091A91EDD
:1038A000C81ADD082FE02C9DC0012D9D900D11241C
:1038B00090931C0480931B0497FDAEC46AE070E0F3
:1038C0000F94529C6093A81EF4E680E014FD64C43B
:1038D000A5E0CA16D1040CF4D1C4B091AE0EC090CC
:1038E0001B04D0901C04BC151D040CF4DFC4AF2FC6
:1038F000B82FB093CA1EA093C91E05FDC6C1A43639
:10390000B10509F4C2C1A50194010F94E19C2EE315
:103910003AE047ED53EA0F94369D00E20F94639D21
:1039200049015A0176E0B694A794979487947A95C2
:10393000D1F7ABC1E091510CF091520C81858752C7
:10394000990BC3CE1B7F1093E11E94E690934A1F00
:10395000722E772009F44BCF6091B21E7091B31E86
:10396000685D7F4F8CE09CE00E94ABDDDC01AA0F1C
:10397000BB1FAA0FBB1FA80FB91F109218041091EC
:10398000E11EA436B10509F47ECFA50194010F9480
:10399000E19C2EE33AE047ED53EA0F94369D00E2B6
:1039A0000F94639D49015A0126E0B694A794979419
:1039B00087942A95D1F700919E0E702F7370713005
:1039C00009F068CFE0909D1EF0909E1EA0911E0908
:1039D000B0911F09EA1AFB0A20911A0930911B09BC
:1039E00040911C0950911D094090160950901709EB
:1039F000609018097090190924193509460957096A
:103A000060E472E48FE090E00F94669C29833A832F
:103A10004B835C836D837E838F839887E981FA81F2
:103A2000EE9EC001EF9E900DFE9E900D112490938E
:103A30001E0480931D0497FDE8C36AE070E00F94B4
:103A4000529C6093AA1E14FDE4C3F4E680E053E0A8
:103A5000E516F1040CF4A3C3D090AD0EE0901D0464
:103A6000F0901E04DE141F040CF041CF106110937F
:103A7000E11EF090AA1EF0921A040F944E776B018B
:103A80007C012091AF0E30E0A0E1B7E20F94F49CEE
:103A9000C60ED71EE81EF91EC092DA1ED092DB1E9B
:103AA000E092DC1EF092DD1E6091AA1E70E08CE5B3
:103AB0009CE00E94ABDD7C017091D60E14E6719FF4
:103AC000A0011124F091D70E2091921E3091931EE7
:103AD00042175307C0F5F19FF0011124E217F307D5
:103AE00008F4A7C6241B350BA4E6B0E00F94F49CA1
:103AF0009F01241B350B032E000C440B550B0F9418
:103B0000999C121B212F30E0D7010F942F9D2EE39B
:103B10003AE047ED53EA0F94369D00E20F94639D1F
:103B200029873A874B875C876D877E878F87988B3D
:103B3000E984FA840B851C8596E016950795F79421
:103B4000E7949A95D1F78091B21E9091B31E60913F
:103B5000C20E70E0FB01B8978E179F070CF053C0A0
:103B6000E0919D0EF0E020919C0EAF01475251096B
:103B7000841795070CF433C48896AC014E1B5F0B79
:103B800034E6349FC001359F900D11246E1B7F0BCE
:103B90000F94529C361B822F8456990BDC01232FE5
:103BA00030E00F942F9D2EE33AE047ED53EA0F9457
:103BB000369D00E20F94639D29873A874B875C8787
:103BC0006D877E878F87988B89859A85AB85BC8525
:103BD000E6E0B695A79597958795EA95D1F78C5924
:103BE0009F4F8E9D90018F9D300D9E9D300D112415
:103BF0003695279536952795ABE7B4E10F94F49C5D
:103C00007C01F694E79400919E0ED701AC59BF4F0A
:103C10001091E11E6ECEE091510CF091520C828910
:103C20009389879752CD14FF2AC0D12CC12CF12C37
:103C3000E12C0F944E772091DA1E3091DB1E4091DB
:103C4000DC1E5091DD1E621773078407950708F488
:103C5000C0C21091E11E1F7E1093E11E1092CA1E79
:103C60001092C91E00919E0E802F8370813009F43E
:103C700008C3811104C01092A81EF4E629CE64E6A0
:103C800070E07093CA1E6093C91E11FF09C0409076
:103C9000A61E20912A1D421618F0812C912C540149
:103CA00080918B1F982F9C7009F003C13091E10E19
:103CB00037FD96C1F4E6F093CB1E6091C31E70E011
:103CC0008CEE9BE00E94ABDDA82F8093CD1EB091BF
:103CD0009E0EB2FFD3C01091B60E819F2001112419
:103CE000509234094092330954E65093CD1E6091AE
:103CF000B61E7091B71E685D7F4F8CEC9BE00E94F2
:103D0000ABDD8093CE1E8436C1F0A82FB0E0A501B4
:103D100094010F94E19C2EE33AE047ED53EA0F94AF
:103D2000369D00E20F94639D49015A0146E0B69426
:103D3000A794979487944A95D1F76091A51E70E057
:103D40008CEB9BE00E94ABDD8093CF1E8436C1F0EC
:103D5000A82FB0E0A50194010F94E19C2EE33AE076
:103D600047ED53EA0F94369D00E20F94639D49019D
:103D70005A0136E0B694A794979487943A95D1F770
:103D80007090C10E71FC4FC174E67093D11E94E621
:103D90009093D21ED090F91ED11035C0F090F81E2D
:103DA000F11031C034E63093D01E77FC4CC0109136
:103DB000DE1E1F7E1093DE1E7091DE1E74FD0DC18F
:103DC000D501C4018D3D45E09407A105B10520F062
:103DD0008CED95E0A0E0B0E068960FB6F894DEBFF9
:103DE0000FBECDBFDF91CF911F910F91FF90EF904C
:103DF000DF90CF90BF90AF909F908F907F906F900B
:103E00005F904F900895A091BF1FAC59A093D01E12
:103E1000A43659F2B0E0A50194010F94E19C2EE381
:103E20003AE047ED53EA0F94369D00E20F94639D0C
:103E300049015A0186E0B694A794979487948A958D
:103E4000D1F777FEB4CFF091DE1EF4FF59C1409157
:103E5000541D8AE0489F200111240091921E109168
:103E6000931E4016510638F45090A61EB091561D70
:103E70005B1608F4A2C110921F0499CF843609F48E
:103E800036CFB0E0A50194010F94E19C2EE33AE017
:103E900047ED53EA0F94369D00E20F94639D49016C
:103EA0005A0156E0B694A794979487945A95D1F7FF
:103EB0001ECFE091B01EE093D41E6090F21E609180
:103EC000951F661508F492C0B091E10EB7FD8EC043
:103ED000C090DE1EC4FCEECEF091CB1E0091A40675
:103EE0001091A506A0913909B0913A090A171B074C
:103EF00008F455C04091A4065091A5062091901F4A
:103F0000240F352F311D30933A0920933909209120
:103F10008F1F2752330B4091B21E5091B31E421790
:103F200053070CF4C7CE5091961F74E6579F70014B
:103F300011244091921E5091931EE416F50608F04C
:103F400039C17090A61ED090971FD71408F432C1C3
:103F50001091B01EF090941F1F1508F02BC14090D7
:103F6000931F411608F026C19091F21E2091951FD3
:103F7000291708F01FC13091DE1E34FD1BC183706C
:103F800009F04EC2E11708F057C48091921F90E0EB
:103F90008D599F4FF817190609F00CF4FF5FF09345
:103FA000CB1EF43609F489CEAF2FB0E0A501940101
:103FB0000F94E19C2EE33AE047ED53EA0F94369DCF
:103FC00000E20F94639D49015A0166E0B694A794FC
:103FD000979487946A95D1F770CE90E080E0FCCEFC
:103FE0005090B01E5092D41E8091F21EC090921E2E
:103FF000D090931EE090331FF090341F0AE517E134
:104000002AE337E14AE356E160E183E396E10F9466
:10401000B57AE82F8093D41E80918B1F182F1C70C7
:1040200009F056CF47CE6091D81E70E08CE59BE03A
:104030000E94ABDD8093D11E8436C1F0A82FB0E082
:10404000A50194010F94E19C2EE33AE047ED53EA79
:104050000F94369D00E20F94639D49015A0126E0BA
:10406000B694A794979487942A95D1F77090C10E2F
:1040700071FE8DCE6091D91E062E000C770B685D07
:104080007F4F8CE29BE00E94ABDD8093D21E843692
:10409000C1F0A82FB0E0A50194010F94E19C2EE39C
:1040A0003AE047ED53EA0F94369D00E20F94639D8A
:1040B00049015A0196E0B694A794979487949A95EB
:1040C000D1F77090C10E66CE18601093E11E685D46
:1040D0007F4F8CE49CE00E94ABDD1091E11E809349
:1040E000CC1E74E6872E912CA12CB12C843609F4B9
:1040F0001CCB03CBE0914F0CF091500C8289EFCF99
:104100000091A61EE091561D0E1708F0B4CE8091C6
:10411000000F8852990B2091B21E3091B31E2817C0
:1041200039070CF4A8CE2091541D8091551D90E0C4
:104130006AE0269F800D911D1124E090921EF09060
:10414000931E8E159F0508F096CEA0911F046090D7
:10415000FF0EA61590F5C0904C07C2FE28CEAF5FAB
:10416000A0931F0424CEF2FE0ACC0F5F0093180424
:1041700006CC4091E11E50909B0E60901704651490
:1041800008F44DC0142F1B7F1093E11E54E650938A
:104190004A1F4270742E29CBF12CE12C4ACD10928B
:1041A000AA1E84E690E09093CA1E8093C91E1091C7
:1041B000E11E6BCD7093CB1E80CD5091DE1E506101
:1041C0005093DE1EF9CDE0914F0CF091500C81859B
:1041D00086CFF091C91E8091CA1EAF2FB82F0091D3
:1041E0009E0E902F93701091E11E913009F44EC0F5
:1041F00091117FCB3091A81E40911904431708F00C
:104200004FC01F7E1093E11E63CB1092AA1E14FFB5
:104210001CCCD12CC12C0DCD1092A81E55CB4460C6
:104220004093E11E6091B21E7091B31E685D7F4F96
:104230008CE39CE00E94ABDD6C01990FEE08FF0857
:104240000091170422273327A9012C193D094E0993
:104250005F09A02FB0E00F94E19C20919B0E30E00D
:1042600050E040E00F94669C2C0D3D1D4E1D5F1DDF
:104270002C593F4F0F5F009317048CCA1092A81E51
:1042800090CF1092AA1EF4E680E0E1CB5090AA1ED7
:1042900060901A04651438F41F7E1093E11ED7CB8A
:1042A00014FD27CB15CB14FD24CBD1CB106110937B
:1042B000E11E1091A81E109319040F944E776B0104
:1042C0007C012091AF0E30E0A0E1B7E20F94F49CA6
:1042D000C60ED71EE81EF91EC092DA1ED092DB1E53
:1042E000E092DC1EF092DD1E6091A81E70E08CE66C
:1042F0009CE00E94ABDD7C015091D60E14E6519FEC
:10430000A00111247090D70E2091921E3091931E1F
:1043100042175307C0F5719EF0011124E217F3070D
:1043200008F484C2241B350BA4E6B0E00F94F49C7F
:104330009F01241B350B032E000C440B550B0F94CF
:10434000999C121B212F30E0D7010F942F9D2EE353
:104350003AE047ED53EA0F94369D00E20F94639DD7
:1043600029873A874B875C876D877E878F87988BF5
:10437000E984FA840B851C8586E016950795F794E9
:10438000E7948A95D1F78091B21E9091B31E609107
:10439000C20E70E08B0108521109801791070CF0D2
:1043A00032CCE0919D0EF0E020919C0EDF019797BA
:1043B0008A179B07A4F08896AC014E1B5F0B34E66E
:1043C000349FC001359F900D11246E1B7F0B0F94FD
:1043D000529C361BE22FE456FF0BDF01E0CB30E0AE
:1043E000D7010F942F9D2EE33AE047ED53EA0F9447
:1043F000369D00E20F94639D29873A874B875C873F
:104400006D877E878F87988BE984FA840B851C855E
:10441000B6E016950795F794E794BA95D1F7F3CBE4
:10442000823009F047CCA091921FCA2ED12CF12CDA
:10443000E12CB0E0B195A195B1090091DE1CBD0160
:104440000B2E000C880B990B6C157D058E059F05B6
:104450000CF061C028EE33E00F942F9D2B013C013E
:104460004092D61C5092D71C6092D81C7092D91CD6
:10447000A8EEB3E0A70196010F94E19C6093DA1CCB
:104480007093DB1C8093DC1C9093DD1C002309F4EB
:1044900042C0A091C21CB091C31CCD90DD90ED90A4
:1044A000FC9013976C157D058E059F050CF0EDC1F2
:1044B0006D937D938D939C9313971091B01E4091B3
:1044C000CA1C5091CB1C6091CC1C7091CD1C80916A
:1044D000DA1C9091DB1CA091DC1CB091DD1C8417D0
:1044E0009507A607B7076CF08091D61C9091D71C52
:1044F000A091D81CB091D91C481759076A077B07AF
:1045000044F48093CA1C9093CB1CA093CC1CB09312
:10451000CD1CE091D41E80918E1F40918D1FC090C4
:104520008C1FD12CF12CE12CC092A61CD092A71C80
:10453000E092A81CF092A91C50E070E060E040936B
:10454000AA1C5093AB1C6093AC1C7093AD1C482EFE
:10455000512C712C612C4092AE1C5092AF1C609279
:10456000B01C7092B11CC092B21CD092B31CE092ED
:10457000B41CF092B51C4093B61C5093B71C6093CA
:10458000B81C7093B91C2AE0829FC0011124092E27
:10459000000CAA0BBB0B8093BA1C9093BB1CA0937E
:1045A000BC1CB093BD1C2091BE1C3091BF1C21309F
:1045B000310571F5F094E094D094C094C11CD11CE5
:1045C000E11CF11CC092B21CD092B31CE092B41C4E
:1045D000F092B51C70956095509541955F4F6F4F67
:1045E0007F4F4093B61C5093B71C6093B81C7093D8
:1045F000B91CB095A095909581959F4FAF4FBF4F37
:104600008093BA1C9093BB1CA093BC1CB093BD1CA0
:10461000812F90E0B0E0A0E08093A21C9093A31CB7
:10462000A093A41CB093A51C8E2F90E0B0E0A0E056
:1046300080939A1C90939B1CA0939C1CB0939D1CF0
:10464000002309F4ACCCEFB7F894E0908D0CF09017
:104650008E0C00918F0C1091900CED8AFE8A0F8BBE
:10466000188FEFBF4090C61C5090C71C6090C81CAC
:104670007090C91CE418F50806091709D801C7018C
:104680008093D21C9093D31CA093D41CB093D51CC0
:10469000E091C01CF091C11C008111812281338105
:1046A00009871A872B873C87E091C41CF091C51CB1
:1046B00080819181A281B3817C018D0129853A8518
:1046C0004B855C85E21AF30A040B150BE98AFA8A1A
:1046D0000B8B1C8B6091B61C7091B71C8091B81C21
:1046E0009091B91CA80197010F94039DE090CA1CFA
:1046F000F090CB1C0091CC1C1091CD1C2B013C01E7
:104700004E0C5F1C601E711E4092CA1C5092CB1C46
:104710006092CC1C7092CD1CC090DA1CD090DB1C37
:10472000E090DC1CF090DD1CC414D504E604F70412
:104730000CF092C0C092CA1CD092CB1CE092CC1C50
:10474000F092CD1C260137016091B21C7091B31C10
:104750008091B41C9091B51C29893A894B895C8958
:104760000F94039D460E571E681E791E6091CE1C45
:104770007091CF1C8091D01C9091D11C29853A85D5
:104780004B855C85261B370B480B590B6091BA1C77
:104790007091BB1C8091BC1C9091BD1C0F94039D1B
:1047A000461A570A680A790AC414D504E604F704BD
:1047B0007CF0C090D61CD090D71CE090D81CF09014
:1047C000D91CC414D504E604F70414F4730162017F
:1047D0006090C21C7090C31CC701B60128EE33E084
:1047E00040E050E00F94669CD3012D933D934D9390
:1047F0005C931397C984DA84EB84FC84C092CE1C4A
:10480000D092CF1CE092D01CF092D11C4D895E89D1
:104810006F89788D4093C61C5093C71C6093C81C49
:104820007093C91CF0919E1CFC59B9CBF12CE12C62
:10483000AACDF12CE12C87C91E1708F0B0CB5090FF
:10484000921F84E690E085199109F817190609F07E
:104850000CF4A5CBF150A3CB8091D61C9091D71C22
:10486000A091D81CB091D91C481659066A067B063F
:104870000CF06ACF8093CA1C9093CB1CA093CC1CE5
:10488000B093CD1C2C013D015FCFC414D504E604C8
:10489000F7040CF014CE4D925D926D927C921397BA
:1048A0001091B01E0CCE833023E0920709F4F7C2BA
:1048B00058F1813123E0920709F4D9C208F060C0B1
:1048C0008A3023E0920709F4DEC208F0E8C086309F
:1048D00023E0920709F461C208F44BC2883023E058
:1048E000920709F4B7C108F4F5C35091051F51FFB1
:1048F00006C06091ED0674E067276093ED06A09115
:10490000ED06A2FFD9C108958C3022E0920709F488
:10491000D6C2D8F4853022E0920709F4E0C208F04C
:10492000D2C0813022E0920709F46BC208F4D5C1ED
:10493000833022E0920709F46DC108F4A7C35091B7
:10494000051F51FFE0CF0D942420833122E0920710
:1049500009F49FC208F46BC0873122E0920709F482
:104960003DC308F0F5C0853122E0920709F41CC16F
:1049700008F4ECC27091051F71FFC5CF0C942FBADB
:10498000883123E0920709F4B6C208F46EC0833080
:1049900029E9920709F44BC208F0AFC0813029E938
:1049A000920709F417C108F035C38115994909F038
:1049B000C1C3F8948091890887FD8C5F18160CF0AC
:1049C0009FC3082E000C990BFC01EE0FFF1FEE0F8A
:1049D000FF1FE555F94F2081318142815381880FB6
:1049E000991F880F991FFC01E955F94F808191812A
:1049F000A281B381281B390B4A0B5B0B78942115DC
:104A000031054105510509F47ECF60E077E883E97F
:104A100093E00F94999C3093030F2093020F0F940F
:104A2000276CA0912D1FA860A0932D1F08958F3093
:104A300022E0920709F4EBC108F45EC1813122E063
:104A4000920709F49FC008F43FC37091051F71FFDE
:104A500006C0A091EE0690E2A927A093EE06B091C1
:104A6000EE06B5FD50CF0C94AFBC843123E0920725
:104A700009F4A8C208F46EC1863123E0920709F454
:104A80008DC008F447C23091051F31FF3CCF0E9412
:104A90002EA84091ED064F774093ED0608958D3096
:104AA00023E0920709F49BC108F43BC18F3023E057
:104AB000920709F4BFC008F498C19091051F91FFB7
:104AC00022CF0C942EAE883022E0920709F432C235
:104AD00008F4F4C08A3022E0920709F475C008F4A3
:104AE00089C29091051F91FF0ECF0E9491B9A091AC
:104AF000EE06A77FA093EE060895853029E9920778
:104B000009F4B4C008F42EC28630994909F011C3E3
:104B100020914B1F30914C1F2115310509F4F3CE24
:104B2000A0E1B7E20F94F49C2091921E3091931E65
:104B300050E040E00F94999C3093100F20930F0F9A
:104B40000F94276C90912D1F986090932D1F0895BE
:104B5000813023E0920709F4A9C008F0A3C288318C
:104B6000924009F0E5C2F091051FF1FF05C0809168
:104B7000EE0680588093EE062091EE0627FDC3CE08
:104B80000C9461B9E091051FE1FFBDCE0E94AFBC5E
:104B9000F091EE06FF7DF093EE0608955091051F0B
:104BA00051FFB1CE0C9456A9A091051FA1FF06C0DC
:104BB000B091EE0690E4B927B093EE06E091EE06D0
:104BC000E6FDA1CE0C94F9BAB091051FB1FF9BCEC2
:104BD0000C945EBA20914B1F30914C1F211531056A
:104BE00009F491CEA0E1B7E20F94F49C2091921EBB
:104BF0003091931E50E040E00F94999C3093060F43
:104C00002093050F0F94276CE0912D1FE860E0932F
:104C10002D1F08956091051F61FF06C07091EE067B
:104C200091E079277093EE06A091EE06A0FD6BCE81
:104C30000D945920F091051FF1FF06C08091ED06FB
:104C400020E182278093ED063091ED0634FD5BCEA6
:104C50000C9471AFB091051FB1FF55CE0E94E3AA2D
:104C6000E091ED06EB7FE093ED06089520914B1F58
:104C700030914C1F2115310509F445CEA0E1B7E272
:104C80000F94F49C2091921E3091931E50E040E0CE
:104C90000F94999C30930E0F20930D0F0F94276C57
:104CA00020912D1F286020932D1F08955091051FDE
:104CB00051FF29CE0C94EBB00C94E3AA863022E08D
:104CC000920709F46FC18730924009F035C2E09134
:104CD000051FE1FF18CE0C9413BC811521E092074B
:104CE00009F4B8C18130914009F025C28091051FB7
:104CF00082608093051F08958D3022E0920709F4A9
:104D0000DDC18E30924009F011C23091051F31FF94
:104D1000FACD0E9430BE4091EE064F7E4093EE06E3
:104D200008958B3023E0920709F44DC08C309340F6
:104D300009F003C23091051F31FF06C04091ED0616
:104D400058E045274093ED066091ED0663FDDBCD0D
:104D50000C9479A8823123E0920709F4C1C1833110
:104D6000934009F0E4C16091051F61FFCCCD0C9424
:104D7000C1AB843023E0920701F18530934009F004
:104D8000D4C18091051F81FFBECD0E9450AD2091FE
:104D9000ED062D7F2093ED0608959091051F91FF5C
:104DA00006C0F091ED0682E0F827F093ED06209121
:104DB000ED0621FDA8CD0C9450AD3091051F31FFBB
:104DC000A2CD0C947EAE7091051F71FF9CCD0E9408
:104DD00079A8A091ED06A77FA093ED0608954091D4
:104DE000051F41FF90CD0C949BB0B091051FB1FF02
:104DF0008ACD0E9471AFE091ED06EF7EE093ED0663
:104E00000895B091051FB1FF7ECD0D948F20809144
:104E1000051F81FF06C02091EE0630E12327209375
:104E2000EE064091EE0644FD6ECD0C9430BE20910E
:104E30004B1F30914C1F2115310509F464CDA0E1C1
:104E4000B7E20F94F49C2091921E3091931E50E093
:104E500040E00F94999C30930A0F2093090F0F9410
:104E6000276C30912D1F386030932D1F089570915D
:104E7000051F71FF48CD0E9404AD8091ED068F7D26
:104E80008093ED0608955091051F51FF3CCD0C9481
:104E9000A5A9A091051FA1FF36CD0C94E3BBA0915D
:104EA000051FA1FF06C0B091ED06E1E0BE27B0935B
:104EB000ED069091ED0690FD26CD0C94BDAFB0911E
:104EC000051FB1FF06C0E091EE0698E0E927E093E8
:104ED000EE06F091EE06F3FD16CD0C9491B980919B
:104EE000051F81FF10CD0E94E0BC2091EE062D7FB2
:104EF0002093EE0608954091051F41FF05C0509193
:104F0000ED0650585093ED066091ED0667FDFBCC21
:104F10000C942EA89091051F91FF06C0F091ED060C
:104F200080E4F827F093ED062091ED0626FDEBCC0A
:104F30000C9497AAE091051FE1FFE5CC0E942ABBE3
:104F4000F091EE06FB7FF093EE0608955091051F59
:104F500051FFD9CC0E94F9BA6091EE066F7B609345
:104F6000EE06089520914B1F30914C1F21153105FD
:104F700009F4C9CCA0E1B7E20F94F49C2091921EF1
:104F80003091931E50E040E00F94999C30930C0FA9
:104F900020930B0F0F94276CF0912D1FF860F09366
:104FA0002D1F0895F091051FF1FF06C08091EE06B8
:104FB00022E082278093EE063091EE0631FDA3CCED
:104FC0000C94E0BC6091051F61FF9DCC0E9497AAE4
:104FD0007091ED067F7B7093ED0608956091051F3B
:104FE00061FF91CC0E9461B97091EE067F7770935A
:104FF000EE0608954091051F41FF06C05091EE0650
:1050000064E056275093EE067091EE0672FD7BCC5D
:105010000C942ABB20914B1F30914C1F2115310558
:1050200009F471CCA0E1B7E20F94F49C2091921E98
:105030003091931E50E040E00F94999C3093080FFC
:105040002093070F0F94276CB0912D1FB860B09379
:105050002D1F08952091051F2D7F2093051F0E946D
:10506000BDAF0E9450AD0E94E3AA0E9479A80E94A1
:1050700071AF0F9459200E94E0BC0E942ABB0E948D
:1050800091B91092EE061092ED0608953091051F29
:1050900031FF39CC0F9459204091EE064E7F40935A
:1050A000EE0608953091051F31FF2DCC0E94BDAF53
:1050B0004091ED064E7F4093ED0608955091051FF7
:1050C00051FF21CC0C94FFBE6091051F61FF1BCCEA
:1050D0000C9499BD4091051F41FF15CC0C9411AC67
:1050E0007091051F71FF06C0A091ED06B0E2AB27DD
:1050F000A093ED06E091ED06E5FD05CC0C9404AD22
:105100002091AB063091AC064091AD065091AE06B1
:105110008091B7069091B806A091B906B091BA06F1
:10512000281B390B4A0B5B0B69CC08950895089531
:10513000089508950895089508950895982F803149
:1051400010F00F94B19EE82FF0E08827E555F74D59
:105150008F4F0D941F9DF128F328D928F928002995
:1051600006290D2913293B2978297F2986298E298B
:10517000AE29BB28E028603281E07807F8F48AE79E
:1051800097E16F3F710509F008F420C16031F1E04B
:105190007F0708F045C17727660F771F680F791FD3
:1051A000FB01E95FFE4F6081718184E892E00C941D
:1051B000E012603221E0720708F4D7C080E0089561
:1051C0006035710508F4D7C06F3F710509F0B0F77D
:1051D000605571092BEA3CE0620F731FFB0180816F
:1051E0000895892F08956038710540F72BE93EE056
:1051F000F3CF603231E0730708F781EC98E1C1CF5B
:1052000060387105D8F628E13DE1E6CF603281E0F3
:105210007807A0F683E396E1B4CF6038710570F6A5
:105220002BE83FE1D9CF6035710508F4A7C0603A9B
:10523000710508F4AEC0603F710508F0BFCF605A39
:105240007109ACECB5E1262F6034710508F4B5C0E6
:105250006834710508F0F3C02054E22FF0E0EE0F3F
:10526000FF1FEA0FFB1FE95BFF4F6081718184E83C
:1052700092E00C94E0126033710508F482C060364D
:10528000710508F48BC06039710508F4B6C0603C44
:10529000710508F4F1C0603F710508F4F2C0603296
:1052A000E1E07E0708F4F2C06035F1E07F0708F422
:1052B000F2C0603821E0720708F080CF605571407D
:1052C000A1EBB1E1262F6432710508F489C06A327E
:1052D000710508F097C0245230E0220F331FA20F4F
:1052E000B31FFD0163A574A584E892E00C94E0125D
:1052F000603C710508F062CF2BED3DE06DCF603C66
:10530000710508F05BCF21ED3DE166CF603231E001
:10531000730708F053CF88E09AE133CF6035710509
:1053200038F1603A710580F1683B710508F046CFAD
:10533000605A710960317105B0F16431710508F08E
:105340008CC06051E62FF0E0EE0FFF1FEF55FE4ED0
:105350006081718184E892E00C94E01260387105FC
:1053600008F02CCF2BE53DE037CF8FE49BE109CF50
:10537000A9ECB3E168CFAEEFB4E165CFA5E6B5E146
:1053800062CFA6E8B3E19ECF60557109A0E3B4E116
:105390005ACF60557109A7E9B4E155CF605371093F
:1053A000A3E4B3E18FCFE62FE370EA5FEE0FE61BD5
:1053B000F0E0E657FE4E878108952770245E220FA5
:1053C000261BA20FB11DFD0187810895762F7F70E6
:1053D0007858770F761B870F911DFC018781089500
:1053E0003BEA639F412D112446954695542F550F56
:1053F000450F440F241B215FE2CF60567109A0E0E6
:10540000B3E160CF2A5230E0220F331FA21BB30B4F
:10541000FD01EF5BFF4F8081918195958795089500
:105420006051262F30E0220F331F821B930BFC01AB
:10543000EB5BFE4F80819181959587950895285467
:1054400030E0220F331FA21BB30BFD01EB59FF4FBE
:10545000808191819595879508956451E62FF0E0BC
:10546000EE0FFF1FF195E195F109E155FE4E8081A8
:10547000918195958795089560597109ADEBB2E1D9
:1054800021CF605C7109AAE7B2E11CCF605F7109AE
:10549000A7E3B2E117CF60527140A4EFB1E112CFA0
:1054A000803110F00F94B19EE82FF0E08827E45A85
:1054B000F54D8F4F0D941F9DAE2AC82ACF2AD72AAB
:1054C000DF2AE62AEE2AF52A6C2A222B292B302BFA
:1054D000502B792BAF2AB72A6033710508F423C10A
:1054E0006036710508F42CC16039710508F460C19B
:1054F000603C710508F4A3C1603F710508F4A4C1C4
:10550000603281E0780708F4A4C16035E1E07E07ED
:1055100008F4A4C16038F1E07F0700F560557140E0
:10552000A1EBB1E1862F6432710508F42DC16A3216
:10553000710508F042C18452E82FF0E0EE0FFF1F22
:10554000EA0FFB1F34E6439FC001112494A783A7F1
:105550004FEF5FE713965C934E9312970895603276
:10556000E1E07E0708F0D4C0AAE7B7E180C060356B
:10557000710508F4CFC06F3F710509F078F76055E9
:1055800071098BEA9CE0680F791FFB014083089545
:105590006038710508F0B6C08BE99EE0F4CF603248
:1055A00081E0780708F0B3C0AFE4BBE160C06032CF
:1055B000E1E07E0708F0AAC0A1ECB8E158C060386D
:1055C000710508F0A2C088E19DE1DDCF6032F1E015
:1055D0007F0708F099C0A3E3B6E149C060387105C0
:1055E00008F091C08BE89FE1CECF6035710508F4DB
:1055F00097C0603A710508F49EC0603F710508F0DD
:10560000ADCF605A7109ECECF5E1862F603471057D
:1056100008F4A5C06834710508F0F0C08054A82FC4
:10562000B0E0AA0FBB1FAE0FBF1FA95BBF4F74E650
:10563000479FB00111246D937C938FEF9FE7938375
:1056400082830895603C710508F05BC08BED9DE09E
:105650009ACF603C710508F053C081ED9DE193CF76
:10566000603281E0780708F04AC0A8E0BAE16F3FF5
:10567000710509F008F47EC06031E1E07E0708F0B2
:10568000ACC0FB01FF27EE0FFF1FEA0FFB1FE95F16
:10569000FE4F54E6459F900111243183208358CF5B
:1056A00060357105D0F1603A710508F43FC0683B80
:1056B000710508F053CF605A71096031710508F423
:1056C00044C06431710508F0A9C06051E62FF0E0D4
:1056D000EE0FFF1FEF55FE4E24E6429FA00111245E
:1056E000518340836FEF7FE770938D1160938C112E
:1056F00008956038710568F48BE59DE044CF089506
:1057000008950895089508950895089508950895B1
:1057100008950895EEEFF4E178CFE9ECF3E175CF69
:10572000E5E6F5E172CFA6E8B3E1FCCE605571097C
:10573000E0E3F4E16ACF60557109E7E9F4E165CF90
:1057400060537109A3E4B3E1EDCEE62FE370EA5FA5
:10575000EE0FE61BF0E0E657FE4E4783C3CFA62FC1
:10576000A770A45EAA0FA61BAE0FBF2FB11D179680
:105770004C9363CFE62FEF70E858EE0FE61BEA0F6D
:10578000FB2FF11D4783E4CE8BEA689F812D112406
:1057900086958695982F990F890F880FE62FE81B1D
:1057A000E15FEE0FE61BEA0FFB2FF11D4783D0CE22
:1057B00060567109A0E0B3E1B5CE8A5290E0880F3F
:1057C000991FFD01E81BF90BEF5BFF4F842F90E061
:1057D000880F991F91838083BBCE6051862F90E004
:1057E000880F991FFD01E81BF90BEB5BFE4F842F1F
:1057F00090E0880F991F91838083AACE885490E00F
:10580000880F991FDF01A81BB90BAB59BF4F842F1D
:1058100090E0880F991F8D939C930FCF6451E62FD2
:10582000F0E0EE0FFF1FF195E195F109E155FE4E15
:10583000842F90E0880F991F9183808353CF605904
:105840007109ADEBB2E16ECE605C7109AAE7B2E11D
:1058500069CE605F7109A7E3B2E164CE6052714026
:10586000A4EFB1E15FCEFF920F931F93CF93DF932D
:105870001F92CDB7DEB7898380E00F94A06681E0E8
:105880000F94A06689810F94A0668FEF9FEFDC01D3
:1058900080930B2090930C20A0930D20B0930E20AA
:1058A00041E0BE016F5F7F4F8BE090E20F941B677A
:1058B000162F072FF82E892F0F94A0668F2D0F9487
:1058C000A066802F0F94A066812F0F94A0660F9082
:1058D000DF91CF911F910F91FF900895EF92FF926A
:1058E0000F931F93CF93DF9300D01F921F92CDB7DA
:1058F000DEB79091DE1E96FD05C0E0900804EE2014
:1059000009F4E6C00091DE1E0F7B0093DE1E082F17
:1059100010E0882309F4B6C00F3711050CF0E0C081
:105920002FE3E22EF12C60C0891B990B019705979C
:105930000CF46AC0F801EE0FFF1FEE0FFF1FEA55CF
:10594000FB4F40815181628173814093AC0250933F
:10595000AD026093AE027093AF02872F9927AA27FA
:10596000BB278D836C835B834A830F94A0668C81F5
:105970000F94A0668B810F94A0668A810F94A06615
:1059800040E0BE016B5F7F4F8BE090E20F941B679E
:1059900040E0BE016C5F7F4F8BE090E20F941B678D
:1059A00040E0BE016D5F7F4F8BE090E20F941B677C
:1059B00040E0BE016E5F7F4F8BE090E20F941B676B
:1059C000F801E95DFB4F808189830F94A06640E078
:1059D000BE016F5F7F4F8BE090E20F941B670F5FFC
:1059E0001F4F0F37110519F19091D30F8091D40FEC
:1059F000981708F499CF9701291B3109820F932F2B
:105A0000911D05970CF096CF0093A60C31E03093D2
:105A10000804109209040F900F900F900F900F90B0
:105A2000DF91CF911F910F91FF90EF900895DC01CE
:105A3000CB0180959095A095B095182F092FFA2E3F
:105A40008B2F2091DE1E2F7B2093DE1E10922109CA
:105A50001092200910920604109208041092AC02D1
:105A60001092AD021092AE021092AF020F94A06697
:105A70008F2D0F94A066802F0F94A066812F0F9416
:105A8000A066C9CF1092AC021092AD021092AE0285
:105A90001092AF0282E00F94A0668CE70F94A0668C
:105AA00019828FEF9FEFDC0180930B2090930C20E5
:105AB000A0930D20B0930E2040E0BE016F5F7F4F9A
:105AC0008BE090E20F941B6780E00F94A06628CFD4
:105AD00085E80E94332C10920604109208049BCF94
