:100000000C94E8100D94A2760D9477760D944C76AE
:100010000D9421760D94F6750D94CB750D94A07505
:100020000D9475750C9419110C9419110C941911E7
:100030000C9419110C9419110C9419110C94B555B8
:100040000C9419110C9491EC0C9487EA0C9477B4ED
:100050000C9419110C9419110C9419110D942B7501
:100060000C9419110D9435780D94F5770C941911A1
:100070000C9419110C9419110C9419110C94191158
:100080000C9440530C94C5520C944A520C94191180
:100090000C9419110C9419110C9419110C94191138
:1000A0000C9419110C9419110C94674F0C94CF51A6
:1000B0000C94CD4E0C9419110C9419110C943551CB
:1000C0000C949B500C9401500C9419110C94191120
:1000D0000C9419110C9419110D94BE770D947E7720
:1000E0000C9419110C94D4600C94236D0C9482A17F
:1000F0000C94F31E0D94B72E0C947CCE0C9420BA65
:100100000C941FA20D94F7460C9449A20D94F2761C
:100110000D9432620C9476A20D94A0530C9445AECB
:100120000C9481A20C94E9CC0D9470770C942494D7
:100130000C94163E0C9467A20C9421790C947D27A4
:100140000C9444260C94915E0C94D8810C94BBBB07
:100150000C9418CA0C949E860C9493A20C94B51C13
:100160000C949B840D9452540C94707A0C94569E6B
:100170000C948BCC0C940AA20C94B6650C9430A30E
:100180000C9417A30C942DA30D94354F0C9481C996
:100190000C944D1F0C94397D0D942A460D94EE5EFF
:1001A0000D948B1D0C942BC90C94A6A10C94D6A174
:1001B0000D94292C0C94123E0C9430CC0C94511FAD
:1001C0000C944DA30C94B0AD0D94832E0D94271870
:1001D0000C94CCCB0D94F6760D9498690C949F8C6E
:1001E0000D94862C0C94B8A10D945A460C94536C23
:1001F0000D94355C0C940CB00D94BE2B0C945B7D6F
:100200000C9430660D94A1500C948AA80C9415B1EE
:100210000C944FA20C940B250D94264F0D94FD27A2
:100220000C94885E0D9446630C94E6A20C941A3EDE
:100230000D94092C0D943E5F0C9427A30C949AA264
:100240000D944C530D9441530D94455F0D94485DAE
:100250000C94325C0C94091D0C94422B0D94752C5B
:100260000C94D6640D940D470D949B2C0D940D6940
:100270000D94EE540C9414E30D9454620D94292BB8
:100280000C94FC7B0C941E3E0D9450770C94C11B77
:100290000C94FE210C9439A30C94C7A10C94D86F34
:1002A0000D9462530D9442770C94C4C80D94286247
:1002B0000C942BA20D94BB440D94A22C0C9407A279
:1002C0000D94C31A0C94C01D0D94CD4E0C948CBC8F
:1002D0000D945C770C9461A20D94432D0C943723FC
:1002E0000C94BD1A0D94834F0C94815C0C94223EA7
:1002F0000C94243E0D94124E0C94EB1E0C94C1C22F
:100300000C948C820C9458A20D94942B0D94D32BA6
:100310000D94132C0D94E8630D9436620C94D22343
:100320000C940BA30C9484A20C94111B0D942F45D8
:100330000C9466A10C948F6D0D94325F0D94BB5A92
:100340000D94EC430C9485A10D94C1910D94BE5A6B
:100350000D944B270C94C6180C946CA10C9444A3D8
:100360000C942EA20C94E8A10C94A9A10C94A16E5B
:100370000D940D2D0D9492280D94EE760C941C3E48
:100380000C94B9E10C94C2FF0C94BD1F0C94E6BC14
:100390000D94EF440C948BA10D945A270C9416A243
:1003A0000C948B820D94E5180C94FC290C9440A2BB
:1003B0000C944A780C947ECF0C9414A30C94B3E75D
:1003C0000C940D1A0D94EE460C94A76A0D94255CBE
:1003D0000C9422A60D9495530C9481B00C94D0A14A
:1003E0000C94CDA10D947B1A0D94261D0D942E62B4
:1003F0000C94FE820D94D0270C9456CB0C9475ABC4
:100400000C94771E0D94502C0D94511D0C94C2A980
:100410000D94D24E0C949E600C94D35E0C94A3A1C8
:100420000C9431A20C945BA20C9402B20D947C1833
:100430000C947E610D94E52E0D949B670C94A0A105
:100440000D94155B0C94DFA10C94283E0D94CF5EA7
:100450000D9448620D94B42B0D9480500D94B95DA9
:100460000C9424A30C942AA30C943AA20D943177F3
:100470000C9470A20C94E6660C94AD5B0C943CC892
:100480000D9449690D944E620D94AA2B0D94AB18EE
:100490000C94905E0C9453A30C9422A20C946F3095
:1004A0000D941D690C940BA80C9410A20D94A75FD9
:1004B0000D94952C0C940E3E0C9476A10D946C2EFC
:1004C0000C94231E0C94B6280D9457530D94F644A7
:1004D0000C9494A10C949DA10C944A6E0C94B11FA1
:1004E0000C941AA30C9433A30C94B5A10C946D1B1B
:1004F0000C9479AC0C9462180D9452440C94551FD2
:100500000D9466620C945C7D0C94EF1E0D94AD50BE
:100510000C9403800D94D28F0C9470240C94325E52
:100520000D94A95D0C9460210C948EA10C946FAA7B
:100530000C940EA30C9491750C9420300D94962776
:100540000D94C82B0C9491A10C940D850C94618B87
:100550000C9438E70C94A9250C946DA20D94EE2B05
:100560000D9472620D9474280C94F46D0C94143EE6
:100570000D940E2F0D94432E0C94FEA10C94FAAB07
:100580000D94BA690D94AA680C9490200C9488A1DB
:100590000D94371D0C946AA20C941F1E0C9443A258
:1005A0000D94A4270D94641D0D945A620C941F7829
:1005B0000C94E62B0D941B2D0C94D45E0C940DA280
:1005C0000C9455A20D94BA680C942DB90D94D25D7B
:1005D0000C949AA10C94601D0D949C190C94882C79
:1005E0000C94103E0D943F920C9403F90C94203E11
:1005F0000C9419A20C94F8AD0C94BEA10C94917CAF
:100600000D94351B0C943DA20C94D5870C94F31FCC
:100610000C94C1A10D94E6900D9462920D948A2ED3
:100620000C94FC5B0D94A5500C94468A0C942A21E2
:100630000D942F1D0C9425180D9427280C9442B965
:100640000D9411770C9409D00C9440A90C9436A306
:100650000C9423790C9401A20C942C860D946C625A
:100660000D94A05D0C9421A30D9449190C9404BC25
:100670000C945D190C9427BC0D94462B0C944CA241
:100680000C940FAB0C94939A0D94F0760C941891F3
:100690000D9484620C9473C20C94FF820C949F5F3F
:1006A0000D9460620C9473A10D94F8760D94061964
:1006B0000C94AFA10C94F07A0D94D3610C94D9A151
:1006C0000D9433900C948B1E0C947CA20C9493B8D4
:1006D0000C945A290D940B5F0D944C2E0D94FA76C0
:1006E0000D94792B0C943F5F0C942C3E0D941E2C92
:1006F0000D94232D0C94F8980D94B4440C948BB95C
:100700000C946FA10C9447A30C945EA20C949A8451
:100710000C9497A10D947E620D94F4760D947862FA
:100720000C94EE6B0C94B91F0C9452A20C94387478
:100730000C9407AD0C94D7780C94E0A20C94427EF4
:100740000D943C4F0C9479800D9495460D94642E35
:100750000C9460A10C94E2260C94C5C90D94274713
:100760000C94B1880C9434A20C94871E0C9425A28E
:100770000C94E2950C94B51F0C9411A30D94ED67A5
:100780000C94651C0C9499220D9468900C9498B666
:100790000D94678D0C947CA10D94C2270D94B32801
:1007A0000C94839D0C94E2A10D94442E0C947FA193
:1007B0000D94C0440C9463A10C948F6F0C9473A29D
:1007C0000D940A1A0C94F65F0C9407AA0C94717B92
:1007D0000D94DC5E0D94B54E0C94091C0C94DCA1B8
:1007E0000C94E71E0C94B2A10C94A02A0D947E697F
:1007F0000D94FE5E0C9404A20C94E3A20D9442624C
:100800000C9457710C94A4A70C94831E0D94882CFF
:100810000C9413A20C94BEB70D9463690C9470D21F
:100820000C9437A20C9470FF0D94D02C0C9449704A
:100830000C9471830D945D2E0D94B0440C94C718E4
:100840000D94DB680C94BF7D0D9466280C9454873E
:100850000D9468460C94387D0C94BBA10D943C62B9
:100860000D949F2B0C9434630D94135D0C94CAA1CA
:100870000C94D4890D94B4530D943F430C945DA112
:100880000C947F1E0D94CE490C94ACA20C947B1E4C
:100890000D942E690D946E2C0D949F620D948E2CE8
:1008A0000D9433460C94C9FE0C94AA890C94756B74
:1008B0000D944E5F0D94012E0C94E5A10C948C5D6B
:1008C0000C9498620D94632B0C94641D0C9473BC6F
:1008D0000C94046B0D94AC630C94263E0D94742E12
:1008E0000C9408A30C944AA30C9469A10C9441A302
:1008F0000D94DD280C9444AB0C946BCD0D9455678E
:100900000C9450A30C94B66C0C94965E0D94AA4370
:100910000C942C2D0C94183E0C94F51E0C949B9B5F
:100920000D947B2E0D94142D0D94A0620C94D3A1E4
:100930000D94B3270D94E14D0C9428A20D94A82C8E
:100940000C9479A10D9447540C94C4A10D947F2765
:100950000C9422790D94B25E0C9483CA0C94ACA1D1
:100960000C94491F0D9464770D94BE2E0D94381A83
:100970000C949C770C94F76E0C9464A20D94C52E85
:100980000C94E27E0D943F1D0D94F9540D94847ED9
:100990000C9465680C94BCF10C94E8720D942F4F84
:1009A0000C94F9A60C9446A20C942AAF0C942BA696
:1009B0000C94BE300D9404550C943DA30C94717AA4
:1009C0000C942A3E0D94DE270D94CA680C94CF63D4
:1009D0000D942D620C941CA20C94BDA20C94F1CA2F
:1009E0000D94BF610C94BED10C941B280C94996299
:1009F0000D94B849040E11191B20292B2D2F3133CA
:100A00003537393B3D3F414345474B4D4F51555796
:100A1000595D61666D77537065656475696E6F00C9
:100A2000537065656475696E6F20323031392E30D0
:100A3000382D73657200537065656475696E6F203B
:100A400063737830323031392E38005265736574F3
:100A500020636F6E74726F6C20697320637572729D
:100A6000656E746C792064697361626C65642E00D4
:100A7000436F6D6D732068616C7465642E204E65E4
:100A8000787420627974652077696C6C2072657364
:100A90006574207468652041726475696E6F2E00FC
:100AA0000A5061676520686173206E6F742062650B
:100AB000656E20696D706C656D656E746564207916
:100AC0006574000A426F6F7374206C6F6F6B757082
:100AD000207461626C65000A326E642049676E6939
:100AE00074696F6E204D6170000A326E6420467525
:100AF000656C204D6170000A5061676520392043A4
:100B00006667000A5472696D2031205461626C6519
:100B1000000A565654204D6170000A426F6F73747C
:100B2000204D6170000A5067203620436F6E666961
:100B300067000A414652204D6170000A5067203418
:100B400020436667000A49676E6974696F6E204DBD
:100B50006170000A5067203220436667000A5645DC
:100B6000204D6170004572723A20556E6B6E6F7742
:100B70006E20636D64000A3D3D3D436F6D6D616E97
:100B8000642048656C703D3D3D0A0A416C6C2063F1
:100B90006F6D6D616E6473206172652073696E673D
:100BA0006C652063686172616374657220616E6454
:100BB0002061726520636F6E636174656E61746538
:100BC0006420776974682074686569722070617246
:100BD000616D6574657273200A776974686F7574E6
:100BE000207370616365732E53796E7461783A2057
:100BF000203C636F6D6D616E643E2B3C7061726171
:100C00006D65746572313E2B3C706172616D657407
:100C10006572323E2B3C706172616D657465724E17
:100C20003E0A0A3D3D3D4C697374206F6620436F58
:100C30006D6D616E64733D3D3D0A0A41202D204477
:100C40006973706C617973203331206279746573D4
:100C5000206F662063757272656E7453746174756B
:100C6000732076616C75657320696E2062696E61B0
:100C7000727920286C6976652064617461290A4262
:100C8000202D204275726E2063757272656E74201D
:100C90006D617020616E6420636F6E66696750617C
:100CA00067652076616C75657320746F206565706B
:100CB000726F6D0A43202D205465737420434F4D8D
:100CC00020706F72742E2020557365642062792025
:100CD00054756E657273747564696F20746F2073D8
:100CE0006565207768657468657220616E2045438C
:100CF00055206973206F6E206120676976656E20CC
:100D000073657269616C200A20202020706F7274F4
:100D10002E2052657475726E7320612062696E6157
:100D20007279206E756D6265722E0A4E202D2050EC
:100D300072696E74206E6577206C696E652E0A503C
:100D4000202D205365742063757272656E74207057
:100D50006167652E202053796E7461783A202050A7
:100D60002B3C706167654E756D6265723E0A52205C
:100D70002D2053616D65206173204120636F6D6D7F
:100D8000616E640A53202D20446973706C61792070
:100D90007369676E6174757265206E756D626572D8
:100DA0000A51202D2053616D65206173205320630B
:100DB0006F6D6D616E640A56202D20446973706CEE
:100DC0006179206D6170206F7220636F6E66696754
:100DD000506167652076616C75657320696E20626D
:100DE000696E6172790A57202D20536574206F6EE9
:100DF00065206279746520696E206D6170206F7264
:100E000020636F6E666967506167652E20204578A4
:100E100070656374732062696E61727920706172AB
:100E2000616D65746572732E200A2020202053792D
:100E30006E7461783A2020572B3C6F666673657438
:100E40003E2B3C6E6577627974653E0A74202D20D6
:100E50005365742063616C6962726174696F6E209E
:100E600076616C7565732E202045787065637473A8
:100E70002062696E61727920706172616D6574655E
:100E800072732E20205461626C6520696E646578EF
:100E90002069732065697468657220302C200A20EF
:100EA000202020312C206F7220322E202053796E8A
:100EB0007461783A2020742B3C74626C655F6964BD
:100EC000783E2B3C6E657756616C7565313E2B3CE8
:100ED0006E657756616C7565323E2B3C6E65775654
:100EE000616C75654E3E0A5A202D20446973706C02
:100EF00061792063616C6962726174696F6E2076DA
:100F0000616C7565730A54202D20446973706C619F
:100F100079732032353620746F6F7468206C6F6778
:100F200020656E747269657320696E2062696E61F6
:100F300072790A72202D20446973706C6179732074
:100F400032353620746F6F7468206C6F6720656E61
:100F500074726965730A55202D2050726570617234
:100F60006520666F72206669726D776172652075A3
:100F700070646174652E20546865206E65787420F5
:100F80006279746520726563656976656420776946
:100F90006C6C2063617573652074686520417264B0
:100FA00075696E6F20746F2072657365742E0A3FC9
:100FB000202D20446973706C6179732074686973A3
:100FC0002068656C702070616765002C20005755A3
:100FD00045004F3200496E6C65742074656D700079
:100FE000436F6F6C616E7400526573657420636F3C
:100FF0006E74726F6C2069732063757272656E74A3
:101000006C792064697361626C65642E00436F6D56
:101010006D732068616C7465642E204E6578742051
:10102000627974652077696C6C20726573657420D1
:101030007468652041726475696E6F2E0053706527
:10104000656475696E6F203230323230372E32006F
:10105000737065656475696E6F2032303232303777
:10106000004552523B20496E636F72726563742073
:10107000454550524F4D2073697A6500303031003C
:1010800020002000200020002020202000000080E0
:101090000020012001800020018000F0008001C0BC
:1010A00000C0002001C000800020010001000020DD
:1010B000002300260029002C002F00320000010030
:1010C0000003010601090100002100240027002A75
:1010D000002D003000330001010000040107010A67
:1010E0000100002200250028002B002E00310034D2
:1010F0000002010000050108010B010505050507B7
:101100000508080808020202020A0A080804040482
:1011100004010101010101010103030303030303AE
:1011200003040707070C0C0C0C0C0C0C0C0202023D
:101130000206060606060606060B0B0B0B0B0B0B30
:101140000B010210202008081020401020408002CF
:1011500001020108040201010204081020408080FD
:101160004020100804020180040201804020100881
:101170000402010804020101020408102040800159
:101180000204081020408000000A0B02090C0D0E1A
:101190000807030401000000000000000000000038
:1011A000000000000000000000000000000000003F
:1011B00000000012111000000000000000000000FC
:1011C000000000000000000000000000000000001F
:1011D00000963007772C610EEEBA51099919C46D4B
:1011E000078FF46A7035A563E9A395649E3288DBA6
:1011F0000EA4B8DC791EE9D5E088D9D2972B4CB67D
:1012000009BD7CB17E072DB8E7911DBF906410B772
:101210001DF220B06A4871B9F3DE41BE847DD4DA94
:101220001AEBE4DD6D51B5D4F4C785D38356986CC1
:1012300013C0A86B647AF962FDECC9658A4F5C0142
:1012400014D96C0663633D0FFAF50D088DC8206E46
:101250003B5E10694CE44160D5727167A2D1E40332
:101260003C47D4044BFD850DD26BB50AA5FAA8B551
:10127000356C98B242D6C9BBDB40F9BCACE36CD844
:1012800032755CDF45CF0DD6DC593DD1ABAC30D9E2
:10129000263A00DE518051D7C81661D0BFB5F4B4EC
:1012A0002123C4B3569995BACF0FA5BDB89EB802F5
:1012B000280888055FB2D90CC624E90BB1877C6F7A
:1012C0002F114C6858AB1D61C13D2D66B69041DCB5
:1012D000760671DB01BC20D2982A10D5EF8985B142
:1012E000711FB5B606A5E4BF9F33D4B8E8A2C907FD
:1012F0007834F9000F8EA8099618980EE1BB0D6A94
:101300007F2D3D6D08976C6491015C63E6F4516B31
:101310006B62616C1CD83065854E0062F2ED9506FB
:101320006C7BA5011BC1F4088257C40FF5C6D9B068
:101330006550E9B712EAB8BE8B7C88B9FCDF1DDDC9
:1013400062492DDA15F37CD38C654CD4FB5861B21D
:101350004DCE51B53A7400BCA3E230BBD441A5DFF9
:101360004AD795D83D6DC4D1A4FBF4D6D36AE969B8
:1013700043FCD96E34468867ADD0B860DA732D046B
:1013800044E51D03335F4C0AAAC97C0DDD3C7105A1
:1013900050AA41022710100BBE86200CC925B56843
:1013A00057B3856F2009D466B99FE461CE0EF9DE8C
:1013B0005E98C9D9292298D0B0B4A8D7C7173DB331
:1013C00059810DB42E3B5CBDB7AD6CBAC02083B85B
:1013D000EDB6B3BF9A0CE2B6039AD2B1743947D5D1
:1013E000EAAF77D29D1526DB048316DC73120B63FC
:1013F000E3843B64943E6A6D0DA85A6A7A0BCF0E63
:10140000E49DFF099327AE000AB19E077D44930F28
:10141000F0D2A3088768F2011EFEC206695D57621A
:10142000F7CB67658071366C19E7066B6E761BD457
:10143000FEE02BD3895A7ADA10CC4ADD676FDFB928
:10144000F9F9EFBE8E43BEB717D58EB060E8A3D6CC
:10145000D67E93D1A1C4C2D83852F2DF4FF167BB18
:10146000D16757BCA6DD06B53F4B36B248DA2B0D27
:10147000D84C1B0AAFF64A0336607A0441C3EF60CA
:10148000DF55DF67A8EF8E6E3179BE69468CB36198
:10149000CB1A8366BCA0D26F2536E2685295770CD2
:1014A000CC03470BBBB91602222F260555BE3BBA0B
:1014B000C5280BBDB2925AB42B046AB35CA7FFD700
:1014C000C231CFD0B58B9ED92C1DAEDE5BB0C264CD
:1014D0009B26F263EC9CA36A750A936D02A9060928
:1014E0009C3F360EEB8567077213570005824ABF93
:1014F00095147AB8E2AE2BB17B381BB60C9B8ED21A
:10150000920DBED5E5B7EFDC7C21DFDB0BD4D2D367
:101510008642E2D4F1F8B3DD686E83DA1FCD16BEE1
:10152000815B26B9F6E177B06F7747B718E65A08BE
:1015300088706A0FFFCA3B06665C0B0111FF9E654F
:101540008F69AE62F8D3FF6B6145CF6C1678E20A03
:10155000A0EED20DD75483044EC2B303396126677F
:10156000A7F71660D04D476949DB776E3E4A6AD1CE
:10157000AEDC5AD6D9660BDF40F03BD83753AEBC51
:10158000A9C59EBBDE7FCFB247E9FFB5301CF2BDD7
:10159000BD8AC2BACA3093B353A6A3B4240536D0C9
:1015A000BA9306D7CD2957DE54BF67D9232E7A6662
:1015B000B3B84A61C4021B685D942B6F2A37BE0B17
:1015C000B4A18E0CC31BDF055A8DEF022D00000065
:1015D0000041311B1982623632C3532D2B04C56C76
:1015E0006445F4777D86A75A56C796414F088AD935
:1015F000C849BBC2D18AE8EFFACBD9F4E30C4FB5A6
:10160000AC4D7EAEB58E2D839ECF1C98875112C2F5
:101610004A1023D953D370F4789241EF6155D7AE75
:101620002E14E6B537D7B5981C9684830559981BB8
:101630008218A9009BDBFA2DB09ACB36A95D5D77A5
:10164000E61C6C6CFFDF3F41D49E0E5ACDA2248471
:1016500095E3159F8C2046B2A76177A9BEA6E1E865
:10166000F1E7D0F3E82483DEC365B2C5DAAAAE5D44
:101670005DEB9F464428CC6B6F69FD7076AE6B3195
:1016800039EF5A2A202C09070B6D381C12F3364605
:10169000DFB2075DC6715470ED30656BF4F7F32A65
:1016A000BBB6C231A275911C8934A00790FBBC9FC8
:1016B00017BA8D840E79DEA92538EFB23CFF79F395
:1016C00073BE48E86A7D1BC5413C2ADE58054F7948
:1016D000F0447E62E9872D4FC2C61C54DB018A1597
:1016E0009440BB0E8D83E823A6C2D938BF0DC5A098
:1016F000384CF4BB218FA7960ACE968D130900CCE7
:101700005C4831D7458B62FA6ECA53E177545DBBB2
:10171000BA156CA0A3D63F8D88970E96915098D796
:10172000DE11A9CCC7D2FAE1EC93CBFAF55CD76213
:10173000721DE6796BDEB554409F844F5958120EE6
:10174000161923150FDA7038249B41233DA76BFD32
:1017500065E65AE67C2509CB576438D04EA3AE9196
:1017600001E29F8A1821CCA73360FDBC2AAFE12497
:10177000ADEED03FB42D83129F6CB20986AB2448E6
:10178000C9EA1553D029467EFB687765E2F6793FB2
:101790002FB7482436741B091D352A1204F2BC5396
:1017A0004BB38D485270DE657931EF7E60FEF3E613
:1017B000E7BFC2FDFE7C91D0D53DA0CBCCFA368AE6
:1017C00083BB07919A7854BCB13965A7A84B98831D
:1017D0003B0AA99822C9FAB50988CBAE104F5DEF34
:1017E0005F0E6CF446CD3FD96D8C0EC27443125A15
:1017F000F3022341EAC1706CC1804177D847D736E4
:101800009706E62D8EC5B500A584841BBC1A8A41B7
:10181000715BBB5A6898E87743D9D96C5A1E4F2D33
:10182000155F7E360C9C2D1B27DD1C003E12009898
:10183000B9533183A09062AE8BD153B59216C5F4E3
:10184000DD57F4EFC494A7C2EFD596D9F6E9BC07EB
:10185000AEA88D1CB76BDE319C2AEF2A85ED796B23
:10186000CAAC4870D36F1B5DF82E2A46E1E136DE24
:1018700066A007C57F6354E8542265F34DE5F3B2D3
:1018800002A4C2A91B6791843026A09F29B8AEC5C7
:10189000E4F99FDEFD3ACCF3D67BFDE8CFBC6BA923
:1018A00080FD5AB2993E099FB27F3884ABB0241CA8
:1018B0002CF115073532462A1E73773107B4E170D3
:1018C00048F5D06B513683467A77B25D634ED7FACE
:1018D000CB0FE6E1D2CCB5CCF98D84D7E04A129695
:1018E000AF0B238DB6C870A09D8941BB84465D2394
:1018F00003076C381AC43F1531850E0E2842984FE5
:101900006703A9547EC0FA795581CB624C1FC53854
:10191000815EF423989DA70EB3DC9615AA1B005494
:10192000E55A314FFC996262D7D85379CE174FE10F
:1019300049567EFA50952DD77BD41CCC62138A8DE4
:101940002D52BB963491E8BB1FD0D9A006ECF37E94
:101950005EADC265476E91486C2FA05375E8361294
:101960003AA90709236A5424082B653F11E479A793
:1019700096A548BC8F661B91A4272A8ABDE0BCCBE4
:10198000F2A18DD0EB62DEFDC023EFE6D9BDE1BC54
:1019900014FCD0A70D3F838A267EB2913FB924D094
:1019A00070F815CB693B46E6427A77FD5BB56B650F
:1019B000DCF45A7EC5370953EE763848F7B1AE09E4
:1019C000B8F09F12A133CC3F8A72FD24930000002F
:1019D00000376AC2016ED4840359BE4602DCA809EE
:1019E00007EBC2CB06B27C8D0485164F05B85113A8
:1019F0000E8F3BD10FD685970DE1EF550C64F91A88
:101A0000095393D8080A2D9E0A3D475C0B70A32604
:101A10001C47C9E41D1E77A21F291D601EAC0B2F99
:101A20001B9B61ED1AC2DFAB18F5B56919C8F23519
:101A300012FF98F713A626B111914C7310145A3C5B
:101A4000152330FE147A8EB8164DE47A17E0464D11
:101A500038D72C8F398E92C93BB9F80B3A3CEE44FB
:101A60003F0B84863E523AC03C6550023D58175E9B
:101A7000366F7D9C3736C3DA3501A9183484BF57D9
:101A800031B3D59530EA6BD332DD01113390E56B7C
:101A900024A78FA925FE31EF27C95B2D264C4D6267
:101AA000237B27A0222299E62015F3242128B4784D
:101AB0002A1FDEBA2B4660FC29710A3E28F41C71ED
:101AC0002DC376B32C9AC8F52EADA2372FC08D9AB0
:101AD00070F7E75871AE591E739933DC721C259369
:101AE000772B4F517672F11774459BD57578DC8949
:101AF0007E4FB64B7F16080D7D2162CF7CA474808B
:101B000079931E4278CAA0047AFDCAC67BB02EBC67
:101B10006C87447E6DDEFA386FE990FA6E6C86B59C
:101B20006B5BEC776A025231683538F369087FAF36
:101B3000623F156D6366AB2B6151C1E960D4D7A6D6
:101B400065E3BD6464BA0322668D69E06720CBD784
:101B50004817A115494E1F534B7975914AFC63DE16
:101B60004FCB091C4E92B75A4CA5DD984D989AC49C
:101B700046AFF00647F64E4045C12482444432CD7C
:101B80004173580F402AE649421D8C8B435068F13F
:101B900054670233553EBC755709D6B7568CC0F80A
:101BA00053BBAA3A52E2147C50D57EBE51E839E2CA
:101BB0005ADF53205B86ED6659B187A4583491EB08
:101BC0005D03FB295C5A456F5E6D2FAD5F801B3551
:101BD000E1B771F7E0EECFB1E2D9A573E35CB33CB6
:101BE000E66BD9FEE73267B8E5050D7AE4384A2698
:101BF000EF0F20E4EE569EA2EC61F460EDE4E22FDC
:101C0000E8D388EDE98A36ABEBBD5C69EAF0B8133E
:101C1000FDC7D2D1FC9E6C97FEA90655FF2C101A69
:101C2000FA1B7AD8FB42C49EF975AE5CF848E9000D
:101C3000F37F83C2F2263D84F0115746F1944109A7
:101C4000F4A32BCBF5FA958DF7CDFF4FF6605D78B9
:101C5000D95737BAD80E89FCDA39E33EDBBCF571C7
:101C6000DE8B9FB3DFD221F5DDE54B37DCD80C6B83
:101C7000D7EF66A9D6B6D8EFD481B22DD504A46229
:101C8000D033CEA0D16A70E6D35D1A24D210FE5EA6
:101C9000C527949CC47E2ADAC6494018C7CC56573B
:101CA000C2FB3C95C3A282D3C195E811C0A8AF4D39
:101CB000CB9FC58FCAC67BC9C8F1110BC974074435
:101CC000CC436D86CD1AD3C0CF2DB902CE4096AF8E
:101CD0009177FC6D902E422B921928E9939C3EA699
:101CE00096AB546497F2EA2295C580E094F8C7BC9D
:101CF0009FCFAD7E9E9613389CA179FA9D246FB537
:101D000098130577994ABB319B7DD1F39A30358979
:101D10008D075F4B8C5EE10D8E698BCF8FEC9D80C4
:101D20008ADBF7428B82490489B523C68888649A86
:101D300083BF0E5882E6B01E80D1DADC8154CC938A
:101D40008463A651853A1817870D72D586A0D0E214
:101D5000A997BA20A8CE0466AAF96EA4AB7C78EB4A
:101D6000AE4B1229AF12AC6FAD25C6ADAC1881F1E8
:101D7000A72FEB33A6765575A4413FB7A5C429F824
:101D8000A0F3433AA1AAFD7CA39D97BEA2D073C441
:101D9000B5E71906B4BEA740B689CD82B70CDBCD36
:101DA000B23BB10FB3620F49B155658BB06822D712
:101DB000BB5F4815BA06F653B8319C91B9B48ADEB8
:101DC000BC83E01CBDDA5E5ABFED3498BE00000053
:101DD000006567BCB88BC809AAEEAFB51257976209
:101DE0008F32F0DE37DC5F6B25B938D79DEF28B432
:101DF000C58A4F087D64E0BD6F018701D7B8BFD6A3
:101E00004ADDD86AF23377DFE0561063589F5719DE
:101E100050FA30A5E8149F10FA71F8AC42C8C07BA4
:101E2000DFADA7C76743087275266FCECD707FAD53
:101E3000951518112DFBB7A43F9ED0188727E8CF22
:101E40001A428F73A2AC20C6B0C9477A083EAF329F
:101E5000A05BC88E18B5673B0AD00087B2693850BE
:101E60002F0C5FEC97E2F059858797E53DD1878687
:101E700065B4E03ADD5A4F8FCF3F2833778610E4C0
:101E8000EAE37758520DD8ED4068BF51F8A1F82B1E
:101E9000F0C49F97482A30225A4F579EE2F66F4966
:101EA0007F9308F5C77DA740D518C0FC6D4ED09F25
:101EB000352BB7238DC518969FA07F2A271947FD7C
:101EC000BA7C204102928FF410F7E848A83D5814DC
:101ED0009B583FA823B6901D31D3F7A1896ACF76CE
:101EE000140FA8CAACE1077FBE8460C306D270A0FD
:101EF0005EB7171CE659B8A9F43CDF154C85E7C25C
:101F0000D1E0807E690E2FCB7B6B4877C3A20F0D8B
:101F1000CBC768B17329C704614CA0B8D9F5986FD5
:101F20004490FFD3FC7E5066EE1B37DA564D27B93E
:101F30000E284005B6C6EFB0A4A3880C1C1AB0DB6F
:101F4000817FD767399178D22BF41F6E9303F726E0
:101F50003B66909A83883F2F91ED589329546044B3
:101F6000B43107F80CDFA84D1EBACFF1A6ECDF9212
:101F7000FE89B82E4667179B54027027ECBB48F0C9
:101F800071DE2F4CC93080F9DB55E745639CA03FDB
:101F90006BF9C783D3176836C1720F8A79CB375D67
:101FA000E4AE50E15C40FF544E2598E8F673888B10
:101FB000AE16EF3716F84082049D273EBC241FE979
:101FC0002141785599AFD7E08BCAB05C333BB65905
:101FD000ED5ED1E555B07E5047D519ECFF6C213B45
:101FE00062094687DAE7E932C8828E8E70D49EEDA8
:101FF00028B1F951905F56E4823A31583A83098FFB
:10200000A7E66E331F08C1860D6DA63AB5A4E14060
:10201000BDC186FC052F2949174A4EF5AFF376223C
:102020003296119E8A78BE2B981DD997204BC9F401
:10203000782EAE48C0C001FDD2A566416A1C5E96EE
:10204000F779392A4F97969F5DF2F123E505196BD1
:102050004D607ED7F58ED162E7EBB6DE5F528E091A
:10206000C237E9B57AD9460068BC21BCD0EA31DF75
:10207000888F56633061F9D622049E6A9ABDA6BD48
:1020800007D8C101BF366EB4AD530908159A4E7218
:102090001DFF29CEA511867BB774E1C70FCDD910DE
:1020A00092A8BEAC2A461119382376A5807566C65B
:1020B000D810017A60FEAECF729BC973CA22F1A418
:1020C00057479618EFA939ADFDCC5E114506EE4D88
:1020D000766389F1CE8D2644DCE841F86451792F8E
:1020E000F9341E9341DAB12653BFD69AEBE9C6F90B
:1020F000B38CA1450B620EF01907694CA1BE519B30
:102100003CDB3627843599929650FE2E2E99B95491
:1021100026FCDEE89E12715D8C7716E134CE2E36F9
:10212000A9AB498A1145E63F03208183BB7691E044
:10213000E313F65C5BFD59E949983E55F1210682AF
:102140006C44613ED4AACE8BC6CFA9377E38417F7E
:10215000D65D26C36EB389767CD6EECAC46FD61D13
:10216000590AB1A1E1E41E14F38179A84BD769CBD8
:1021700013B20E77AB5CA1C2B939C67E0180FEA94D
:102180009CE59915240B36A0366E511C8EA7166659
:1021900086C271DA3E2CDE6F2C49B9D394F08104EB
:1021A0000995E6B8B17B490DA31E2EB11B483ED25E
:1021B000432D596EFBC3F6DBE9A69167511FA9B009
:1021C000CC7ACE0C749461B966F10605DE00C604C3
:1021D00011241FBECFEFD1E2DEBFCDBF00E00CBFA8
:1021E00012E0A0E0B2E0EEEEF8E303E00BBF02C0C5
:1021F00007900D92A03AB107D9F720E2A0EAB2E029
:1022000001C01D92A435B207E1F710E1C8EED0E19C
:1022100000E006C021970109802FFE010F94D79A94
:10222000C73ED10780E00807A9F70F948E820D946E
:10223000759C0C9400002F923F924F925F926F9288
:102240007F928F929F92AF92BF92CF92DF92EF9246
:10225000FF920F931F93CF93DF9300D000D01F9274
:102260001F92CDB7DEB71C017A836983FC018081A0
:102270009181A281B38163707727672B09F448C1EC
:102280004115510509F41EC17A01F1E0EF1AF10878
:10229000BA01637077276115710509F47DC061305B
:1022A000710509F44FC06230710531F1892E9A2E03
:1022B000AB2EBB2409811A810F5F1F4FE981FA8180
:1022C000408150E02A014826F201EE0FFF1FEE0F79
:1022D000FF1FE353FE4E85919591A591B4918825FA
:1022E0009925AA25BB25A701B80163707727672B1D
:1022F00009F410C11A830983892E9A2EAB2EBB24B0
:1023000009811A810F5F1F4FE981FA81C080D12CAA
:10231000C826F601EE0FFF1FEE0FFF1FE353FE4E20
:1023200085919591A591B49188259925AA25BB25DC
:1023300041505109B80163707727672B09F4EAC04F
:102340001A830983892E9A2EAB2EBB2409811A8108
:102350000F5F1F4FE981FA81C080D12CC826F6019A
:10236000EE0FFF1FEE0FFF1FE353FE4E8591959179
:10237000A591B49188259925AA25BB2541505109DD
:10238000B80163707727672B09F4C4C01A830983E7
:102390004115510509F496C0892E9A2EAB2EBB2407
:1023A00009811A810F5F1F4FE981FA81C080D12C0A
:1023B000C826F601EE0FFF1FEE0FFF1FE353FE4E80
:1023C00085919591A591B49188259925AA25BB253C
:1023D0006A01F1E0CF1AD108A601B801637077272E
:1023E000672B09F497C07801492E5A2E6B2E77245B
:1023F0000F5F1F4FF7018080912C8826F401EE0FAC
:10240000FF1FEE0FFF1FE353FE4E85919591A5919F
:10241000B49184259525A625B72541505109F80189
:10242000E370FF27EF2B09F475C0892E9A2EAB2E8F
:10243000BB2487010E5F1F4FF701418150E0482701
:10244000FA01EE0FFF1FEE0FFF1FE353FE4E8591C3
:102450009591A591B49188259925AA25BB25A6011A
:1024600042505109B80163707727672B09F452C0B5
:10247000892E9A2EAB2EBB2409811A810C5F1F4F27
:10248000E981FA81438150E04827FA01EE0FFF1FEE
:10249000EE0FFF1FE353FE4E85919591A591B491E8
:1024A00088259925AA25BB25A60143505109B801C5
:1024B00063707727672B71F11A83098341155105E2
:1024C00009F06ACF222321F080959095A095B095D0
:1024D000F10180839183A283B383BC01CD0128964F
:1024E0000FB6F894DEBF0FBECDBFDF91CF911F9125
:1024F0000F91FF90EF90DF90CF90BF90AF909F90A3
:102500008F907F906F905F904F903F902F900895A5
:1025100009811A814031510508F4BBC1FA01709755
:10252000BF01729562956F7067277F7067277C8304
:102530006B833B0162947294E0EF7E2276246E22DC
:102540007624280130E1430E511C4201860C971C71
:102550009A82898218870F835E834D83622FEF8171
:10256000F885C080D180E280F3808C259D25AE2542
:10257000BF256C017D01DD24EE24FF24F3E0DF0E96
:10258000E11CF11CF601EE0FFF1FEE0FFF1FE353DE
:10259000FE4EC590D590E590F490892E912CB12CEB
:1025A000A12C22E0920EA11CB11CF401EE0FFF1F22
:1025B000EE0FFF1FE353FE4E4590559065907490CB
:1025C0008A2E912CB12CA12C3FEF931AA30AB30AA7
:1025D000F401EE0FFF1FEE0FFF1FE353FE4E859039
:1025E0009590A590B4908B2F9927AA27BB27FC0123
:1025F000EE0FFF1FEE0FFF1FE353FE4E25913591A7
:1026000045915491D701C60184259525A625B72566
:1026100088259925AA25BB2582279327A427B52796
:10262000EF81F885C480D580E680F7808C259D25D4
:10263000AE25BF256C017D01DD24EE24FF24F3E0EF
:10264000DF0EE11CF11CF601EE0FFF1FEE0FFF1F66
:10265000E353FE4EC590D590E590F490892E912CD1
:10266000B12CA12C22E0920EA11CB11CF401EE0FA2
:10267000FF1FEE0FFF1FE353FE4E85909590A59030
:10268000B4904A2E512C712C612C3FEF531A630ADF
:10269000730AF201EE0FFF1FEE0FFF1FE353FE4E12
:1026A00045905590659074908B2F9927AA27BB274A
:1026B000FC01EE0FFF1FEE0FFF1FE353FE4E2591AF
:1026C0003591459154918C249D24AE24BF248424BB
:1026D0009524A624B72482269326A426B526EF8126
:1026E000F88580859185A285B38588269926AA26B6
:1026F000BB26D501C4019927AA27BB279D5FAF4FF1
:10270000BF4FFC01EE0FFF1FEE0FFF1FE353FE4E06
:1027100085919591A591B491C92CD12CF12CE12CE6
:10272000F2E0DF0EE11CF11CF601EE0FFF1FEE0FD1
:10273000FF1FE353FE4EC590D590E590F4904A2CD0
:10274000512C712C612C2FEF521A620A720AF2017D
:10275000EE0FFF1FEE0FFF1FE353FE4E4590559007
:10276000659074908B2C9924AA24BB24F401EE0F5D
:10277000FF1FEE0FFF1FE353FE4E2591359145914C
:1027800054918C259D25AE25BF256C017D01C42467
:10279000D524E624F724C226D326E426F526EF81A5
:1027A000F88584859585A685B785C826D926EA2625
:1027B000FB26D701C6019927AA27BB279D5FAF4FEC
:1027C000BF4FFC01EE0FFF1FEE0FFF1FE353FE4E46
:1027D00085909590A590B4908D2D90E0B0E0A0E00C
:1027E0009E5FAF4FBF4FFC01EE0FFF1FEE0FFF1FAD
:1027F000E353FE4E25913591459154914E2C512C29
:10280000712C612CFFEF5F1A6F0A7F0AF201EE0F45
:10281000FF1FEE0FFF1FE353FE4E4590559065904E
:102820007490CF2CDD24EE24FF24F601EE0FFF1F61
:10283000EE0FFF1FE353FE4E85919591A591B49144
:1028400082269326A426B526482459246A247B246C
:1028500084259525A625B7252F813885205F3F4FF4
:1028600038872F8349815A812417350709F077CE9D
:102870004D815E81262F4F7055276B817C816F5F64
:102880007F4F62957295707F7627607F7627060F5F
:10289000171F4115510509F415CEC92EDA2EEB2E5E
:1028A000FF24F80130819927AA27BB278327FC0141
:1028B000EE0FFF1FEE0FFF1FE353FE4E8591959124
:1028C000A591B4918C259D25AE25BF25413051059C
:1028D00009F4F8CDC92EDA2EEB2EFF24F801518031
:1028E0009927AA27BB278525FC01EE0FFF1FEE0FB6
:1028F000FF1FE353FE4E85919591A591B4918C25D0
:102900009D25AE25BF254230510509F4DBCDC92EEA
:10291000DA2EEB2EFF24F80172809927AA27BB2715
:102920008725FC01EE0FFF1FEE0FFF1FE353FE4E46
:1029300085919591A591B4918C259D25AE25BF25B6
:102940004330510509F4BECDC92EDA2EEB2EFF24FB
:10295000F80193809927AA27BB278925FC01EE0F50
:10296000FF1FEE0FFF1FE353FE4E85919591A5913A
:10297000B4918C259D25AE25BF254430510509F421
:10298000A1CDC92EDA2EEB2EFF24F801B4809927B1
:10299000AA27BB278B25FC01EE0FFF1FEE0FFF1FA1
:1029A000E353FE4E85919591A591B4918C259D257B
:1029B000AE25BF254530510509F484CDC92EDA2E48
:1029C000EB2EFF24F80175819927AA27BB278727BB
:1029D000FC01EE0FFF1FEE0FFF1FE353FE4E85912C
:1029E0009591A591B4918C259D25AE25BF254630A6
:1029F000510509F467CDC92EDA2EEB2EFF24F8011C
:102A0000F6819927AA27BB278F27880F991F880F40
:102A1000991F83539E4EFC0185919591A591B49188
:102A20008C259D25AE25BF254730510509F44ACD9B
:102A3000892E9A2EAB2EBB24F801C780D12C2601FB
:102A40004826C201880F991F880F991F83539E4EF5
:102A5000FC0185919591A591B49188259925AA2588
:102A6000BB254830510509F42DCD892E9A2EAB2E69
:102A7000BB24F801C084D12C26014826F201EE0FB8
:102A8000FF1FEE0FFF1FE353FE4E85919591A59119
:102A9000B49188259925AA25BB254930510509F40B
:102AA00011CD892E9A2EAB2EBB24F801C184D12CD6
:102AB00026014826F201EE0FFF1FEE0FFF1FE35322
:102AC000FE4E85919591A591B49188259925AA25C9
:102AD000BB254A30510509F4F5CC892E9A2EAB2E30
:102AE000BB24F801C284D12C26014826D201AA0FAA
:102AF000BB1FAA0FBB1FA353BE4EFD01859195912D
:102B0000A591B49188259925AA25BB254B3051055F
:102B100009F4D8CC892E9A2EAB2EBB24F801C3849D
:102B2000D12C26014826F201EE0FFF1FEE0FFF1FEA
:102B3000E353FE4E85919591A591B49188259925F1
:102B4000AA25BB254C30510509F4BCCC892E9A2E00
:102B5000AB2EBB24F801C484D12C26014826F201F7
:102B6000EE0FFF1FEE0FFF1FE353FE4E8591959171
:102B7000A591B49188259925AA25BB254D305105ED
:102B800009F4A0CC892E9A2EAB2EBB24F801C58463
:102B9000D12C26014826B201660F771F660F771FDA
:102BA00063537E4EFB0185919591A591B491882543
:102BB0009925AA25BB254E30510509F483CCC92E91
:102BC000DA2EEB2EFF24F801468550E02A01482634
:102BD000F201EE0FFF1FEE0FFF1FE353FE4E859134
:102BE0009591A591B4918C259D25AE25BF256ACCE4
:102BF000CF92DF92EF92FF92CC24CA94DC2C760124
:102C0000FC01C082D182E282F382FF90EF90DF90DC
:102C1000CF900C941B1180910903E0910703F09170
:102C20000803908180958923808320910603209357
:102C3000060330910603832F90E090630CB405FCEB
:102C400018C09EBD00000DB407FEFDCF9EB58EBD21
:102C500000000DB407FEFDCF4EB540930503509123
:102C60000903E0910703F09108036081562B50831C
:102C700008958EBD00000DB407FEFDCF4EB59EBD7C
:102C800000000DB407FEFDCF9EB5E7CF809109038C
:102C9000E0910703F0910803908180958923808358
:102CA0002091060320582093060330910603832FBA
:102CB00090E090630CB405FC18C09EBD00000DB4FC
:102CC00007FEFDCF9EB58EBD00000DB407FEFDCF03
:102CD0004EB54093050350910903E0910703F0912D
:102CE00008036081562B508308958EBD00000DB4FB
:102CF00007FEFDCF4EB59EBD00000DB407FEFDCF13
:102D00009EB5E7CF80910903E0910703F091080396
:102D100090818095892380832091060330E42327C6
:102D20002093060340910603842F90E090630CB437
:102D300005FC18C09EBD00000DB407FEFDCF9EB57A
:102D40008EBD00000DB407FEFDCF5EB550930503A8
:102D500060910903E0910703F09108037081672BEC
:102D6000608308958EBD00000DB407FEFDCF5EB5F3
:102D70009EBD00000DB407FEFDCF9EB5E7CF80914C
:102D80000903E0910703F09108039081809589235E
:102D900080832091060330E223272093060340918D
:102DA0000603842F90E090630CB405FC18C09EBD10
:102DB00000000DB407FEFDCF9EB58EBD00000DB422
:102DC00007FEFDCF5EB55093050360910903E091C6
:102DD0000703F09108037081672B608308958EBD0F
:102DE00000000DB407FEFDCF5EB59EBD00000DB422
:102DF00007FEFDCF9EB5E7CF80910403E09102036B
:102E0000F0910303908180958923808320910103B1
:102E100030E123272093010340910103842F90E0A8
:102E200090630CB405FC18C09EBD00000DB407FEF5
:102E3000FDCF9EB58EBD00000DB407FEFDCF5EB583
:102E40005093000360910403E0910203F0910303A7
:102E50007081672B608308958EBD00000DB407FE5E
:102E6000FDCF5EB59EBD00000DB407FEFDCF9EB543
:102E7000E7CF80910403E0910203F0910303908176
:102E80008095892380832091010338E023272093B4
:102E9000010340910103842F90E090630CB405FC82
:102EA00018C09EBD00000DB407FEFDCF9EB58EBDBF
:102EB00000000DB407FEFDCF5EB550930003609196
:102EC0000403E0910203F09103037081672B608398
:102ED00008958EBD00000DB407FEFDCF5EB59EBD0A
:102EE00000000DB407FEFDCF9EB5E7CF809104032F
:102EF000E0910203F0910303908180958923808300
:102F00002091010334E02327209301034091010322
:102F1000842F90E090630CB405FC18C09EBD0000A7
:102F20000DB407FEFDCF9EB58EBD00000DB407FEAB
:102F3000FDCF5EB55093000360910403E09102035E
:102F4000F09103037081672B608308958EBD0000AC
:102F50000DB407FEFDCF5EB59EBD00000DB407FEAB
:102F6000FDCF9EB5E7CF80910403E0910203F0917D
:102F7000030390818095892380832091010332E0AF
:102F800023272093010340910103842F90E0906355
:102F90000CB405FC18C09EBD00000DB407FEFDCFAB
:102FA0009EB58EBD00000DB407FEFDCF5EB55093FB
:102FB000000360910403E0910203F0910303708128
:102FC000672B608308958EBD00000DB407FEFDCF12
:102FD0005EB59EBD00000DB407FEFDCF9EB5E7CFE8
:102FE0001F93CF93DF9300D000D0CDB7DEB7142F5F
:102FF0000F94B07129833A834B835C836D837E8306
:10300000AB81BC81E981FA81EA17FB07A1F0660F69
:10301000770B412F50E020813181249FC001259FF3
:10302000900D349F900D112491838083E60FF71F3C
:10303000AE17BF0781F726960FB6F894DEBF0FBE16
:10304000CDBFDF91CF911F910895809189088F5F47
:103050008093890820918908243011F410928908FE
:10306000E0918908F0E03FB7F8944091A00C5091AE
:10307000A10C6091A20C7091A30C26B5A89B06C070
:103080002F3F21F04F5F5F4F6F4F7F4F3FBF962F16
:10309000852F742F6627620F711D811D911D660F8C
:1030A000771F881F991F660F771F881F991FEE0FC4
:1030B000FF1FEE0FFF1FE955FD4F60837183828371
:1030C000938308958F929F92AF92BF92CF92DF9297
:1030D000EF92FF92E091A502F091A602808190917B
:1030E000A402892399F40F94057560938A0870935C
:1030F0008B0880938C0890938D08FF90EF90DF9061
:10310000CF90BF90AF909F908F9008950F940575CA
:10311000C0908A08D0908B08E0908C08F0908D08C1
:10312000F091951D80900A0390900B03A0900C03E2
:10313000B0900D03A0E0B1E0AF1BB1099B01AC0161
:103140002C193D094E095F090F94A49A6B017C016B
:10315000AF2FB0E0A50194010F94999AC60ED71E27
:10316000E81EF91E8D2C9E2CAF2CBB24A7FCBA9414
:1031700080920A0390920B03A0920C03B0920D036D
:1031800020910E032F5F20930E03B7CF08958091F7
:103190001D1D84709091E8029A3001F1E091E502E2
:1031A000F091E602811114C07091E702A081709540
:1031B0007A237083F091991FF6FF08952091EF0212
:1031C000E091ED02F091EE029081292B2083089589
:1031D000B091E70280818B2B8083ECCFE0910703D5
:1031E000F091080320910903308120952323208347
:1031F00040910603409306038091060390E090639C
:103200000E94EEEC8093050350910903E0910703BF
:10321000F09108036081652B6083CCCF80911D1DE8
:1032200084709091E8029A3041F1E091E502F091CA
:10323000E60281110DC07091E702A081A72BA08347
:10324000F091991FF6FD0EC091E090937C0C0895CB
:10325000B091E7028081B095B823B083F091991FB7
:10326000F6FFF2CF2091EF02E091ED02F091EE0235
:1032700030812095232320830895E0910703F09166
:103280000803209109033081209523232083409156
:103290000603409306038091060390E090630E942A
:1032A000EEEC8093050350910903E0910703F09140
:1032B00008036081652B6083C3CF80911D1D8470DE
:1032C0009091E8029A3001F1E091E202F091E3027C
:1032D000811114C0B091E4028081B095B823B0830D
:1032E000F091991FF6FF08953091EF02E091ED0201
:1032F000F091EE024081342B308308959091E402E6
:103300002081292B2083ECCFE0910703F091080363
:1033100081111DC020910903308120952323208332
:10332000409106034F77409306038091060390E097
:1033300090630E94EEEC8093050370910903E09185
:103340000703F0910803A081A72BA083C9CF509158
:1033500009036081509556235083409106034068CD
:10336000E2CF80911D1D84709091E8029A3041F166
:10337000E091E202F091E30281110DC0B091E4020C
:1033800080818B2B8083F091991FF6FD0EC031E078
:1033900030937C0C08952091E4029081209529239C
:1033A0002083F091991FF6FFF2CF4091EF02E09158
:1033B000ED02F091EE02508140954523408308953F
:1033C000E0910703F091080381111DC020910903CA
:1033D0003081209523232083409106034068409349
:1033E00006038091060390E090630E94EEEC8093C8
:1033F000050370910903E0910703F0910803A08190
:10340000A72BA083C0CF509109036081509556230C
:103410005083409106034F77E2CF80911D1D847049
:103420009091E8029A3001F1E091DF02F091E00220
:10343000811114C0B091E1028081B095B823B083AE
:10344000F091991FF6FF08953091EF02E091ED029F
:10345000F091EE024081342B308308959091E10287
:103460002081292B2083ECCFE0910703F091080302
:1034700081111DC0209109033081209523232083D1
:10348000409106034F7B409306038091060390E032
:1034900090630E94EEEC8093050370910903E09124
:1034A0000703F0910803A081A72BA083C9CF5091F7
:1034B0000903608150955623508340910603406470
:1034C000E2CF80911D1D84709091E8029A3041F105
:1034D000E091DF02F091E00281110DC0B091E102B4
:1034E00080818B2B8083F091991FF6FD0EC031E017
:1034F00030937C0C08952091E1029081209529233E
:103500002083F091991FF6FFF2CF4091EF02E091F6
:10351000ED02F091EE0250814095452340830895DD
:10352000E0910703F091080381111DC02091090368
:1035300030812095232320834091060340644093EB
:1035400006038091060390E090630E94EEEC809366
:10355000050370910903E0910703F0910803A0812E
:10356000A72BA083C0CF50910903608150955623AB
:103570005083409106034F7BE2CF80911D1D8470E4
:103580009091E8029A3001F1E091DC02F091DD02C5
:10359000811114C0B091DE028081B095B823B08350
:1035A000F091991FF6FF08953091EF02E091ED023E
:1035B000F091EE024081342B308308959091DE0229
:1035C0002081292B2083ECCFE0910703F0910803A1
:1035D00081111DC020910903308120952323208370
:1035E000409106034F7D409306038091060390E0CF
:1035F00090630E94EEEC8093050370910903E091C3
:103600000703F0910803A081A72BA083C9CF509195
:103610000903608150955623508340910603406210
:10362000E2CF80911D1D84709091E8029A3041F1A3
:10363000E091DC02F091DD0281110DC0B091DE025B
:1036400080818B2B8083F091991FF6FD0EC031E0B5
:1036500030937C0C08952091DE02908120952923DF
:103660002083F091991FF6FFF2CF4091EF02E09195
:10367000ED02F091EE02508140954523408308957C
:10368000E0910703F091080381111DC02091090307
:10369000308120952323208340910603406240938C
:1036A00006038091060390E090630E94EEEC809305
:1036B000050370910903E0910703F0910803A081CD
:1036C000A72BA083C0CF509109036081509556234A
:1036D0005083409106034F7DE2CF80911D1D847081
:1036E0009091E8029A3001F1E091D902F091DA026A
:1036F000811114C0B091DB028081B095B823B083F2
:10370000F091991FF6FF08953091EF02E091ED02DC
:10371000F091EE024081342B308308959091DB02CA
:103720002081292B2083ECCFE0910203F091030349
:1037300081111DC020910403308120952323208313
:10374000409101034F7E409301038091010390E07B
:1037500090630E94EEEC8093000370910403E0916B
:103760000203F0910303A081A72BA083C9CF50913E
:1037700004036081509556235083409101034061BA
:10378000E2CF0E946D1B8091E8028A3011F1E09136
:10379000E502F091E60260911D1D62FD14C070917A
:1037A000E702A08170957A237083F091991FF6FF4C
:1037B00008952091EF02E091ED02F091EE029081E8
:1037C000292B20830895B091E7028081B82BB08324
:1037D000ECCFE0910703F091080320910903908159
:1037E000209529232083309106033093060380918E
:1037F000060390E090630E94EEEC809305034091F5
:103800000903E0910703F09108035081452B4083A1
:10381000CCCF80911D1D84709091E8029A3041F1C7
:10382000E091D902F091DA0281110DC0B091DB0272
:1038300080818B2B8083F091991FF6FD0EC031E0C3
:1038400030937C0C08952091DB02908120952923F0
:103850002083F091991FF6FFF2CF4091EF02E091A3
:10386000ED02F091EE02508140954523408308958A
:10387000E0910203F091030381111DC02091040324
:1038800030812095232320834091010340614093A0
:1038900001038091010390E090630E94EEEC80931D
:1038A000000370910403E0910203F0910303A081EF
:1038B000A72BA083C0CF509104036081509556235D
:1038C0005083409101034F7EE2CF0E94091C8091FA
:1038D000E8028A3051F1E091E502F091E602609150
:1038E0001D1D62FD0DC07091E702A0817A2B7083CF
:1038F000F091991FF6FD0EC021E020937C0C0895F5
:10390000B091E7028081B095B823B083F091991F00
:10391000F6FFF2CF3091EF02E091ED02F091EE026E
:1039200090813095392330830895E0910703F09119
:103930000803209109039081209529232083309149
:103940000603309306038091060390E090630E9483
:10395000EEEC8093050340910903E0910703F09199
:1039600008035081452B4083C3CF80911D1D847077
:103970009091E8029A3001F1E091D602F091D702DD
:10398000811114C0B091D8028081B095B823B08362
:10399000F091991FF6FF08953091EF02E091ED024A
:1039A000F091EE024081342B308308959091D8023B
:1039B0002081292B2083ECCFE0910203F0910303B7
:1039C00081111DC020910403308120952323208381
:1039D00040910103477F409301038091010390E0F0
:1039E00090630E94EEEC8093000370910403E091D9
:1039F0000203F0910303A081A72BA083C9CF5091AC
:103A00000403608150955623508340910103486020
:103A1000E2CF0E94B51C8091E8028A3011F1E0915A
:103A2000E202F091E302B0911D1DB2FD14C080913D
:103A3000E4022081809582238083F091991FF6FF14
:103A400008954091EF02E091ED02F091EE02508175
:103A5000452B408308953091E4029081392B3083C7
:103A6000ECCFE0910703F091080320911D1D22FD8A
:103A70001DC03091090390813095392330834091E6
:103A800006034F77409306038091060390E090630E
:103A90000E94EEEC8093050370910903E091070307
:103AA000F0910803A0817A2B7083C7CF509109034E
:103AB0006081509556235083409106034068E2CFC1
:103AC0000E94B51C0C940D1A80911D1D847090915C
:103AD000E8029A3041F1E091D602F091D7028111CB
:103AE0000DC0B091D80280818B2B8083F091991FFB
:103AF000F6FD0EC031E030937C0C08952091D80281
:103B00009081209529232083F091991FF6FFF2CF11
:103B10004091EF02E091ED02F091EE02508140956C
:103B2000452340830895E0910203F091030381113E
:103B30001DC02091040330812095232320834091D0
:103B400001034860409301038091010390E090637A
:103B50000E94EEEC8093000370910403E091020355
:103B6000F0910303A081A72BA083C0CF5091040341
:103B7000608150955623508340910103477FE2CFE7
:103B80000E94641D8091E8028A3051F1E091E202C6
:103B9000F091E302B0911D1DB2FD0DC08091E402D1
:103BA0002081822B8083F091991FF6FD0EC041E0A9
:103BB00040937C0C08953091E40290813095392334
:103BC0003083F091991FF6FFF2CF5091EF02E09110
:103BD000ED02F091EE0260815095562350830895D6
:103BE000E0910703F091080320911D1D22FD1DC0E7
:103BF0003091090390813095392330834091060339
:103C00004068409306038091060390E090630E9411
:103C1000EEEC8093050370910903E0910703F091A6
:103C20000803A0817A2B7083BECF50910903608175
:103C3000509556235083409106034F77E2CF0E9460
:103C4000641D0C94611A80911D1D84709091E8028E
:103C50009A3001F1E091D302F091D402811114C0A5
:103C6000B091D5028081B095B823B083F091991FAF
:103C7000F6FF08953091EF02E091ED02F091EE022F
:103C80004081342B308308959091D5022081292BD7
:103C90002083ECCFE0910203F091030381111DC05A
:103CA0002091040330812095232320834091010338
:103CB0004B7F409301038091010390E090630E9449
:103CC000EEEC8093000370910403E0910203F09105
:103CD0000303A081A72BA083C9CF50910403608167
:103CE000509556235083409101034460E2CF0E94D7
:103CF000231E0C940D1A0E94231E0C94BD1A0E94C0
:103D0000231E0C946D1B0E94231E0C94B51C0E9454
:103D1000231E0C94641D80911D1D84709091E802F7
:103D20009A3041F1E091D302F091D40281110DC09B
:103D3000B091D50280818B2B8083F091991FF6FD85
:103D40000EC031E030937C0C08952091D502908113
:103D5000209529232083F091991FF6FFF2CF4091FF
:103D6000EF02E091ED02F091EE0250814095452383
:103D700040830895E0910203F091030381111DC077
:103D80002091040330812095232320834091010357
:103D90004460409301038091010390E090630E948E
:103DA000EEEC8093000370910403E0910203F09124
:103DB0000303A081A72BA083C0CF5091040360818F
:103DC000509556235083409101034B7FE2CF0E94D0
:103DD0008B1E0C94611A0E948B1E0C94111B0E9466
:103DE0008B1E0C94091C0C948B1E80911D1D8470DD
:103DF0009091E8029A3001F1E091D002F091D10265
:103E0000811114C0B091D2028081B095B823B083E3
:103E1000F091991FF6FF08953091EF02E091ED02C5
:103E2000F091EE024081342B308308959091D202BC
:103E30002081292B2083ECCFE0910203F091030332
:103E400081111DC0209104033081209523232083FC
:103E5000409101034D7F409301038091010390E065
:103E600090630E94EEEC8093000370910403E09154
:103E70000203F0910303A081A72BA083C9CF509127
:103E800004036081509556235083409101034260A2
:103E9000E2CF0E94F51E0C94BD1A0E94F51E0C94F0
:103EA0006D1B0E94F51E0C94B51C80911D1D847025
:103EB0009091E8029A3041F1E091D002F091D10264
:103EC00081110DC0B091D20280818B2B8083F09143
:103ED000991FF6FD0EC031E030937C0C08952091BF
:103EE000D2029081209529232083F091991FF6FF1B
:103EF000F2CF4091EF02E091ED02F091EE0250819D
:103F00004095452340830895E0910203F091030317
:103F100081111DC02091040330812095232320832B
:103F2000409101034260409301038091010390E0BE
:103F300090630E94EEEC8093000370910403E09183
:103F40000203F0910303A081A72BA083C0CF50915F
:103F500004036081509556235083409101034D7FA7
:103F6000E2CF0E94551F0C94111B0E94551F0C9408
:103F7000091C0E94551F0C94641D8091CF028A3049
:103F800081F07091C202E091C002F091C102A08163
:103F900070957A237083B091DE1EB77FB093DE1EDA
:103FA000089520910403E0910203F09103039081AE
:103FB000209529232083309101033F7E3093010314
:103FC00040910103842F90E090630E94EEEC809377
:103FD000000350910403E0910203F0910303608118
:103FE000562B508308958091CF028A30F9F0A0912A
:103FF000C202E091C002F091C102B081A095AB2352
:10400000A083F091DE1EF77FF093DE1E8091CF0239
:104010008A3009F43DC0A091CE02E091CC02F0912B
:10402000CD02B081A095AB23A08308952091040315
:10403000E0910203F09103039081209529232083CE
:10404000309101033F7E3093010340910103842F9F
:1040500090E090630CB405FC3EC09EBD00000DB422
:1040600007FEFDCF9EB58EBD00000DB407FEFDCF4F
:104070005EB55093000360910403E0910203F09158
:1040800003037081672B60838091CF028A3019F619
:1040900020910903E0910703F09108039081209596
:1040A00029232083309106033093060340910603B1
:1040B000842F90E090630CB405FC1AC09EBD0000F4
:1040C0000DB407FEFDCF9EB58EBD00000DB407FEFA
:1040D000FDCF5EB519C08EBD00000DB407FEFDCF4B
:1040E0005EB59EBD00000DB407FEFDCF9EB5C1CFED
:1040F0008EBD00000DB407FEFDCF5EB59EBD000075
:104100000DB407FEFDCF9EB55093050360910903E2
:10411000E0910703F09108037081672B6083089595
:104120008091CF028A30E1F0A091C202E091C002FA
:10413000F091C102B081AB2BA083F091DE1EF8603C
:10414000F093DE1E8091CF028A30E1F1A091CE0281
:10415000E091CC02F091CD02B081AB2BA083089509
:1041600020910403E0910203F091030390812095D4
:104170002923208330910103306130930103409162
:104180000103842F90E090630CB405FC3EC09EBDFB
:1041900000000DB407FEFDCF9EB58EBD00000DB42E
:1041A00007FEFDCF5EB55093000360910403E091DC
:1041B0000203F09103037081672B60838091CF022B
:1041C0008A3021F620910903E0910703F09108035A
:1041D0009081209529232083309106033093060394
:1041E00040910603842F90E090630CB405FC1AC044
:1041F0009EBD00000DB407FEFDCF9EB58EBD000034
:104200000DB407FEFDCF5EB519C08EBD00000DB424
:1042100007FEFDCF5EB59EBD00000DB407FEFDCFCD
:104220009EB5C1CF8EBD00000DB407FEFDCF5EB5BB
:104230009EBD00000DB407FEFDCF9EB55093050353
:1042400060910903E0910703F09108037081672BE7
:10425000608308958091CF028A3081F07091BF020F
:10426000E091BD02F091BE02A08170957A23708327
:10427000B091DE1EBB7FB093DE1E08952091040333
:10428000E0910203F091030390812095292320837C
:1042900030910103377F3093010340910103842F54
:1042A00090E090630E94EEEC809300035091040331
:1042B000E0910203F09103036081562B508308952F
:1042C0008091CF028A30F9F0A091BF02E091BD0247
:1042D000F091BE02B081A095AB23A083F091DE1EC9
:1042E000FB7FF093DE1E8091CF028A3009F43DC03F
:1042F000A091CB02E091C902F091CA02B081A095D1
:10430000AB23A083089520910403E0910203F09170
:104310000303908120952923208330910103377F67
:104320003093010340910103842F90E090630CB41B
:1043300005FC3FC09EBD00000DB407FEFDCF9EB53D
:104340008EBD00000DB407FEFDCF5EB55093000397
:1043500060910403E0910203F09103037081672BE5
:1043600060838091CF028A3019F620910903E09191
:104370000703F09108039081209529232083309131
:1043800006033F773093060340910603842F90E0A5
:1043900090630CB405FC1AC09EBD00000DB407FE6E
:1043A000FDCF9EB58EBD00000DB407FEFDCF5EB5FE
:1043B00019C08EBD00000DB407FEFDCF5EB59EBDD9
:1043C00000000DB407FEFDCF9EB5C0CF8EBD00002E
:1043D0000DB407FEFDCF5EB59EBD00000DB407FE17
:1043E000FDCF9EB55093050360910903E09107034B
:1043F000F09108037081672B608308958091CF024C
:104400008A30E1F0A091BF02E091BD02F091BE02BE
:10441000B081AB2BA083F091DE1EF460F093DE1E22
:104420008091CF028A30E1F1A091CB02E091C902E4
:10443000F091CA02B081AB2BA083089520910403B0
:10444000E0910203F09103039081209529232083BA
:104450003091010338603093010340910103842FB0
:1044600090E090630CB405FC3FC09EBD00000DB40D
:1044700007FEFDCF9EB58EBD00000DB407FEFDCF3B
:104480005EB55093000360910403E0910203F09144
:1044900003037081672B60838091CF028A3021F6FD
:1044A00020910903E0910703F09108039081209582
:1044B000292320833091060330683093060340910E
:1044C0000603842F90E090630CB405FC1AC09EBDD7
:1044D00000000DB407FEFDCF9EB58EBD00000DB4EB
:1044E00007FEFDCF5EB519C08EBD00000DB407FEFE
:1044F000FDCF5EB59EBD00000DB407FEFDCF9EB59D
:10450000C0CF8EBD00000DB407FEFDCF5EB59EBDD1
:1045100000000DB407FEFDCF9EB5509305036091DA
:104520000903E0910703F09108037081672B608312
:1045300008958091CF028A30F9F0A091BC02E091F9
:10454000BA02F091BB02B081A095AB23A083F09199
:10455000DE1EFD7FF093DE1E8091CF028A3009F4CB
:104560003DC0A091C802E091C602F091C702B0819F
:10457000A095AB23A083089520910403E09102034A
:10458000F09103039081209529232083309101032A
:104590003B7F3093010340910103842F90E09063AF
:1045A0000CB405FC3FC09EBD00000DB407FEFDCF5E
:1045B0009EB58EBD00000DB407FEFDCF5EB55093D5
:1045C000000360910403E0910203F0910303708102
:1045D000672B60838091CF028A3019F620910903FE
:1045E000E0910703F091080390812095292320830F
:1045F000309106033F7B3093060340910603842FDE
:1046000090E090630CB405FC1AC09EBD00000DB490
:1046100007FEFDCF9EB58EBD00000DB407FEFDCF99
:104620005EB519C08EBD00000DB407FEFDCF5EB5AE
:104630009EBD00000DB407FEFDCF9EB5C0CF8EBD60
:1046400000000DB407FEFDCF5EB59EBD00000DB4A9
:1046500007FEFDCF9EB55093050360910903E091DD
:104660000703F09108037081672B608308958091A0
:10467000CF028A30E1F0A091BC02E091BA02F09141
:10468000BB02B081AB2BA083F091DE1EF260F093F1
:10469000DE1E8091CF028A30E1F1A091C802E09144
:1046A000C602F091C702B081AB2BA0830895209180
:1046B0000403E0910203F0910303908120952923E4
:1046C0002083309101033460309301034091010352
:1046D000842F90E090630CB405FC3FC09EBD0000A9
:1046E0000DB407FEFDCF9EB58EBD00000DB407FED4
:1046F000FDCF5EB55093000360910403E091020387
:10470000F09103037081672B60838091CF028A3020
:1047100021F620910903E0910703F09108039081AD
:1047200020952923208330910603306430930603BB
:1047300040910603842F90E090630CB405FC1AC0EE
:104740009EBD00000DB407FEFDCF9EB58EBD0000DE
:104750000DB407FEFDCF5EB519C08EBD00000DB4CF
:1047600007FEFDCF5EB59EBD00000DB407FEFDCF78
:104770009EB5C0CF8EBD00000DB407FEFDCF5EB567
:104780009EBD00000DB407FEFDCF9EB550930503FE
:1047900060910903E0910703F09108037081672B92
:1047A000608308958091CF028A30F9F0A091B90218
:1047B000E091B702F091B802B081A095AB23A0833D
:1047C000F091DE1EFE7FF093DE1E8091CF028A30D4
:1047D00009F43DC0A091C502E091C302F091C4026A
:1047E000B081A095AB23A083089520910403E091AC
:1047F0000203F091030390812095292320833091B7
:1048000001033D7F3093010340910103842F90E029
:1048100090630CB405FC3FC09EBD00000DB407FEC4
:10482000FDCF9EB58EBD00000DB407FEFDCF5EB579
:104830005093000360910403E0910203F09103039D
:104840007081672B60838091CF028A3019F62091A6
:104850000903E0910703F091080390812095292333
:104860002083309106033F7D309306034091060379
:10487000842F90E090630CB405FC1AC09EBD00002C
:104880000DB407FEFDCF9EB58EBD00000DB407FE32
:10489000FDCF5EB519C08EBD00000DB407FEFDCF83
:1048A0005EB59EBD00000DB407FEFDCF9EB5C0CF26
:1048B0008EBD00000DB407FEFDCF5EB59EBD0000AD
:1048C0000DB407FEFDCF9EB550930503609109031B
:1048D000E0910703F09108037081672B60830895CE
:1048E0008091CF028A30E1F0A091B902E091B70245
:1048F000F091B802B081AB2BA083F091DE1EF16085
:10490000F093DE1E8091CF028A30E1F1A091C502C2
:10491000E091C302F091C402B081AB2BA083089553
:1049200020910403E0910203F0910303908120950C
:104930002923208330910103326030930103409199
:104940000103842F90E090630CB405FC3FC09EBD32
:1049500000000DB407FEFDCF9EB58EBD00000DB466
:1049600007FEFDCF5EB55093000360910403E09114
:104970000203F09103037081672B60838091CF0263
:104980008A3021F620910903E0910703F091080392
:104990009081209529232083309106033062309343
:1049A000060340910603842F90E090630CB405FC4D
:1049B0001AC09EBD00000DB407FEFDCF9EB58EBD92
:1049C00000000DB407FEFDCF5EB519C08EBD00001E
:1049D0000DB407FEFDCF5EB59EBD00000DB407FE11
:1049E000FDCF9EB5C0CF8EBD00000DB407FEFDCF3C
:1049F0005EB59EBD00000DB407FEFDCF9EB5509381
:104A0000050360910903E0910703F09108037081A9
:104A1000672B608308958091CF028A30F9F0A091CE
:104A2000BF02E091BD02F091BE02B081A095AB2320
:104A3000A083F091DE1EFB7FF093DE1E8091CF02FB
:104A40008A3009F43DC0A091C802E091C602F091FD
:104A5000C702B081A095AB23A083089520910403E1
:104A6000E0910203F0910303908120952923208394
:104A700030910103377F3093010340910103842F6C
:104A800090E090630CB405FC3FC09EBD00000DB4E7
:104A900007FEFDCF9EB58EBD00000DB407FEFDCF15
:104AA0005EB55093000360910403E0910203F0911E
:104AB00003037081672B60838091CF028A3019F6DF
:104AC00020910903E0910703F0910803908120955C
:104AD00029232083309106033F7B309306034091C6
:104AE0000603842F90E090630CB405FC1AC09EBDB1
:104AF00000000DB407FEFDCF9EB58EBD00000DB4C5
:104B000007FEFDCF5EB519C08EBD00000DB407FED7
:104B1000FDCF5EB59EBD00000DB407FEFDCF9EB576
:104B2000C0CF8EBD00000DB407FEFDCF5EB59EBDAB
:104B300000000DB407FEFDCF9EB5509305036091B4
:104B40000903E0910703F09108037081672B6083EC
:104B500008958091CF028A30E1F0A091BF02E091E8
:104B6000BD02F091BE02B081AB2BA083F091DE1E9E
:104B7000F460F093DE1E8091CF028A30E1F1A091C3
:104B8000C802E091C602F091C702B081AB2BA083AE
:104B9000089520910403E0910203F09103039081B2
:104BA000209529232083309101033860309301033D
:104BB00040910103842F90E090630CB405FC3FC04A
:104BC0009EBD00000DB407FEFDCF9EB58EBD00005A
:104BD0000DB407FEFDCF5EB5509300036091040352
:104BE000E0910203F09103037081672B6083809151
:104BF000CF028A3021F620910903E0910703F0915A
:104C00000803908120952923208330910603306486
:104C10003093060340910603842F90E090630CB418
:104C200005FC1AC09EBD00000DB407FEFDCF9EB569
:104C30008EBD00000DB407FEFDCF5EB519C08EBD60
:104C400000000DB407FEFDCF5EB59EBD00000DB4A3
:104C500007FEFDCF9EB5C0CF8EBD00000DB407FE90
:104C6000FDCF5EB59EBD00000DB407FEFDCF9EB525
:104C70005093050360910903E0910703F091080345
:104C80007081672B608308958091CF028A30F9F09C
:104C9000A091BC02E091BA02F091BB02B081A09554
:104CA000AB23A083F091DE1EFD7FF093DE1E80918A
:104CB000CF028A3009F43DC0A091C502E091C30241
:104CC000F091C402B081A095AB23A08308952091F8
:104CD0000403E0910203F0910303908120952923BE
:104CE0002083309101033B7F309301034091010306
:104CF000842F90E090630CB405FC3FC09EBD000083
:104D00000DB407FEFDCF9EB58EBD00000DB407FEAD
:104D1000FDCF5EB55093000360910403E091020360
:104D2000F09103037081672B60838091CF028A30FA
:104D300019F620910903E0910703F091080390818F
:104D4000209529232083309106033F7D309306036D
:104D500040910603842F90E090630CB405FC1AC0C8
:104D60009EBD00000DB407FEFDCF9EB58EBD0000B8
:104D70000DB407FEFDCF5EB519C08EBD00000DB4A9
:104D800007FEFDCF5EB59EBD00000DB407FEFDCF52
:104D90009EB5C0CF8EBD00000DB407FEFDCF5EB541
:104DA0009EBD00000DB407FEFDCF9EB550930503D8
:104DB00060910903E0910703F09108037081672B6C
:104DC000608308958091CF028A30E1F0A091BC0207
:104DD000E091BA02F091BB02B081AB2BA083F091BD
:104DE000DE1EF260F093DE1E8091CF028A30E1F188
:104DF000A091C502E091C302F091C402B081AB2B37
:104E0000A083089520910403E0910203F09103032D
:104E100090812095292320833091010334603093C1
:104E2000010340910103842F90E090630CB405FCD2
:104E30003FC09EBD00000DB407FEFDCF9EB58EBDE8
:104E400000000DB407FEFDCF5EB5509300036091E6
:104E50000403E0910203F09103037081672B6083E8
:104E60008091CF028A3021F620910903E091070357
:104E7000F091080390812095292320833091060327
:104E800030623093060340910603842F90E09063D4
:104E90000CB405FC1AC09EBD00000DB407FEFDCF8A
:104EA0009EB58EBD00000DB407FEFDCF5EB519C0E6
:104EB0008EBD00000DB407FEFDCF5EB59EBD0000A7
:104EC0000DB407FEFDCF9EB5C0CF8EBD00000DB462
:104ED00007FEFDCF5EB59EBD00000DB407FEFDCF01
:104EE0009EB55093050360910903E0910703F0918B
:104EF00008037081672B608308958091CF028A3008
:104F0000F9F0A091BF02E091BD02F091BE02B08124
:104F1000A095AB23A083F091DE1EFB7FF093DE1EF5
:104F20008091CF028A3009F43DC0A091C502E09182
:104F3000C302F091C402B081A095AB23A083089571
:104F400020910403E0910203F091030390812095E6
:104F50002923208330910103377F3093010340914F
:104F60000103842F90E090630CB405FC3FC09EBD0C
:104F700000000DB407FEFDCF9EB58EBD00000DB440
:104F800007FEFDCF5EB55093000360910403E091EE
:104F90000203F09103037081672B60838091CF023D
:104FA0008A3019F620910903E0910703F091080374
:104FB0009081209529232083309106033F7D3093F3
:104FC000060340910603842F90E090630CB405FC27
:104FD0001AC09EBD00000DB407FEFDCF9EB58EBD6C
:104FE00000000DB407FEFDCF5EB519C08EBD0000F8
:104FF0000DB407FEFDCF5EB59EBD00000DB407FEEB
:10500000FDCF9EB5C0CF8EBD00000DB407FEFDCF15
:105010005EB59EBD00000DB407FEFDCF9EB550935A
:10502000050360910903E0910703F0910803708183
:10503000672B608308958091CF028A30E1F0A091C0
:10504000BF02E091BD02F091BE02B081AB2BA08304
:10505000F091DE1EF460F093DE1E8091CF028A3064
:10506000E1F1A091C502E091C302F091C402B081C8
:10507000AB2BA083089520910403E0910203F091EB
:105080000303908120952923208330910103386008
:105090003093010340910103842F90E090630CB49E
:1050A00005FC3FC09EBD00000DB407FEFDCF9EB5C0
:1050B0008EBD00000DB407FEFDCF5EB5509300031A
:1050C00060910403E0910203F09103037081672B68
:1050D00060838091CF028A3021F620910903E0910C
:1050E0000703F091080390812095292320833091B4
:1050F000060330623093060340910603842F90E04C
:1051000090630CB405FC1AC09EBD00000DB407FEF0
:10511000FDCF9EB58EBD00000DB407FEFDCF5EB580
:1051200019C08EBD00000DB407FEFDCF5EB59EBD5B
:1051300000000DB407FEFDCF9EB5C0CF8EBD0000B0
:105140000DB407FEFDCF5EB59EBD00000DB407FE99
:10515000FDCF9EB55093050360910903E0910703CD
:10516000F09108037081672B608308958091CF02CE
:105170008A3021F1A091BC02E091BA02F091BB0209
:10518000B081A095AB23A083F091DE1EFD7FF0934C
:10519000DE1E8091CF028A3009F443C0A091BF0285
:1051A000E091BD02F091BE02B081A095AB23A08337
:1051B000F091DE1EFB7FF093DE1E08952091040324
:1051C000E0910203F091030390812095292320832D
:1051D000309101033B7F3093010340910103842F01
:1051E00090E090630CB405FC40C09EBD00000DB47F
:1051F00007FEFDCF9EB58EBD00000DB407FEFDCFAE
:105200005EB55093000360910403E0910203F091B6
:1052100003037081672B60838091CF028A3009F08D
:10522000BDCF20910403E0910203F091030390812C
:1052300020952923208330910103377F3093010388
:1052400040910103842F90E090630CB405FC1AC0D8
:105250009EBD00000DB407FEFDCF9EB58EBD0000C3
:105260000DB407FEFDCF5EB519C08EBD00000DB4B4
:1052700007FEFDCF5EB59EBD00000DB407FEFDCF5D
:105280009EB5BFCF8EBD00000DB407FEFDCF5EB54D
:105290009EBD00000DB407FEFDCF9EB550930003E8
:1052A00060910403E0910203F09103037081672B86
:1052B000608308958091CF028A3011F1A091BC02E1
:1052C000E091BA02F091BB02B081AB2BA083F091C8
:1052D000DE1EF260F093DE1E8091CF028A3009F468
:1052E00042C0A091BF02E091BD02F091BE02B08128
:1052F000AB2BA083F091DE1EF460F093DE1E0895C8
:1053000020910403E0910203F09103039081209522
:1053100029232083309101033460309301034091AD
:105320000103842F90E090630CB405FC40C09EBD47
:1053300000000DB407FEFDCF9EB58EBD00000DB47C
:1053400007FEFDCF5EB55093000360910403E0912A
:105350000203F09103037081672B60838091CF0279
:105360008A3009F0BECF20910403E0910203F0914E
:105370000303908120952923208330910103386015
:105380003093010340910103842F90E090630CB4AB
:1053900005FC1AC09EBD00000DB407FEFDCF9EB5F2
:1053A0008EBD00000DB407FEFDCF5EB519C08EBDE9
:1053B00000000DB407FEFDCF5EB59EBD00000DB42C
:1053C00007FEFDCF9EB5BFCF8EBD00000DB407FE1A
:1053D000FDCF5EB59EBD00000DB407FEFDCF9EB5AE
:1053E0005093000360910403E0910203F0910303E2
:1053F0007081672B608308958091CF028A3021F1FC
:10540000A091B902E091B702F091B802B081A095E5
:10541000AB23A083F091DE1EFE7FF093DE1E809111
:10542000CF028A3009F443C0A091C202E091C002C9
:10543000F091C102B081A095AB23A083F091DE1E54
:10544000F77FF093DE1E089520910403E09102039C
:10545000F09103039081209529232083309101034B
:105460003D7F3093010340910103842F90E09063CE
:105470000CB405FC40C09EBD00000DB407FEFDCF7E
:105480009EB58EBD00000DB407FEFDCF5EB55093F6
:10549000000360910403E0910203F0910303708123
:1054A000672B60838091CF028A3009F0BDCF2091B5
:1054B0000403E0910203F0910303908120952923D6
:1054C0002083309101033F7E30930103409101031B
:1054D000842F90E090630CB405FC1AC09EBD0000C0
:1054E0000DB407FEFDCF9EB58EBD00000DB407FEC6
:1054F000FDCF5EB519C08EBD00000DB407FEFDCF17
:105500005EB59EBD00000DB407FEFDCF9EB5BFCFBA
:105510008EBD00000DB407FEFDCF5EB59EBD000040
:105520000DB407FEFDCF9EB55093000360910403B8
:10553000E0910203F09103037081672B608308956B
:105540008091CF028A3011F1A091B902E091B702A7
:10555000F091B802B081AB2BA083F091DE1EF16018
:10556000F093DE1E8091CF028A3009F442C0A091F0
:10557000C202E091C002F091C102B081AB2BA083C6
:10558000F091DE1EF860F093DE1E08952091040372
:10559000E0910203F0910303908120952923208359
:1055A0003091010332603093010340910103842F55
:1055B00090E090630CB405FC40C09EBD00000DB4AB
:1055C00007FEFDCF9EB58EBD00000DB407FEFDCFDA
:1055D0005EB55093000360910403E0910203F091E3
:1055E00003037081672B60838091CF028A3009F0BA
:1055F000BECF20910403E0910203F0910303908158
:1056000020952923208330910103306130930103D9
:1056100040910103842F90E090630CB405FC1AC004
:105620009EBD00000DB407FEFDCF9EB58EBD0000EF
:105630000DB407FEFDCF5EB519C08EBD00000DB4E0
:1056400007FEFDCF5EB59EBD00000DB407FEFDCF89
:105650009EB5BFCF8EBD00000DB407FEFDCF5EB579
:105660009EBD00000DB407FEFDCF9EB55093000314
:1056700060910403E0910203F09103037081672BB2
:10568000608308958091CF028A3021F1A091BC02FD
:10569000E091BA02F091BB02B081A095AB23A08348
:1056A000F091DE1EFD7FF093DE1E8091CF028A30E6
:1056B00009F443C0A091C202E091C002F091C1027E
:1056C000B081A095AB23A083F091DE1EF77FF0930D
:1056D000DE1E089520910403E0910203F09103037C
:1056E0009081209529232083309101033B7F3093C3
:1056F000010340910103842F90E090630CB405FCFA
:1057000040C09EBD00000DB407FEFDCF9EB58EBD0E
:1057100000000DB407FEFDCF5EB55093000360910D
:105720000403E0910203F09103037081672B60830F
:105730008091CF028A3009F0BDCF20910403E0911F
:105740000203F09103039081209529232083309157
:1057500001033F7E3093010340910103842F90E0C9
:1057600090630CB405FC1AC09EBD00000DB407FE8A
:10577000FDCF9EB58EBD00000DB407FEFDCF5EB51A
:1057800019C08EBD00000DB407FEFDCF5EB59EBDF5
:1057900000000DB407FEFDCF9EB5BFCF8EBD00004B
:1057A0000DB407FEFDCF5EB59EBD00000DB407FE33
:1057B000FDCF9EB55093000360910403E091020376
:1057C000F09103037081672B608308958091CF026D
:1057D0008A3011F1A091BC02E091BA02F091BB02B3
:1057E000B081AB2BA083F091DE1EF260F093DE1E41
:1057F0008091CF028A3009F442C0A091C202E091A8
:10580000C002F091C102B081AB2BA083F091DE1EEB
:10581000F860F093DE1E089520910403E0910203E6
:10582000F091030390812095292320833091010377
:1058300034603093010340910103842F90E0906322
:105840000CB405FC40C09EBD00000DB407FEFDCFAA
:105850009EB58EBD00000DB407FEFDCF5EB5509322
:10586000000360910403E0910203F091030370814F
:10587000672B60838091CF028A3009F0BECF2091E0
:105880000403E0910203F091030390812095292302
:105890002083309101033061309301034091010373
:1058A000842F90E090630CB405FC1AC09EBD0000EC
:1058B0000DB407FEFDCF9EB58EBD00000DB407FEF2
:1058C000FDCF5EB519C08EBD00000DB407FEFDCF43
:1058D0005EB59EBD00000DB407FEFDCF9EB5BFCFE7
:1058E0008EBD00000DB407FEFDCF5EB59EBD00006D
:1058F0000DB407FEFDCF9EB55093000360910403E5
:10590000E0910203F09103037081672B6083089597
:105910008091CF028A3021F1A091B902E091B702C3
:10592000F091B802B081A095AB23A083F091DE1E68
:10593000FE7FF093DE1E8091CF028A3009F443C0CF
:10594000A091BF02E091BD02F091BE02B081A0958E
:10595000AB23A083F091DE1EFB7FF093DE1E089543
:1059600020910403E0910203F091030390812095BC
:1059700029232083309101033D7F3093010340911F
:105980000103842F90E090630CB405FC40C09EBDE1
:1059900000000DB407FEFDCF9EB58EBD00000DB416
:1059A00007FEFDCF5EB55093000360910403E091C4
:1059B0000203F09103037081672B60838091CF0213
:1059C0008A3009F0BDCF20910403E0910203F091E9
:1059D0000303908120952923208330910103377F91
:1059E0003093010340910103842F90E090630CB445
:1059F00005FC1AC09EBD00000DB407FEFDCF9EB58C
:105A00008EBD00000DB407FEFDCF5EB519C08EBD82
:105A100000000DB407FEFDCF5EB59EBD00000DB4C5
:105A200007FEFDCF9EB5BFCF8EBD00000DB407FEB3
:105A3000FDCF5EB59EBD00000DB407FEFDCF9EB547
:105A40005093000360910403E0910203F09103037B
:105A50007081672B608308958091CF028A3011F1A5
:105A6000A091B902E091B702F091B802B081AB2BDE
:105A7000A083F091DE1EF160F093DE1E8091CF02D4
:105A80008A3009F442C0A091BF02E091BD02F091BA
:105A9000BE02B081AB2BA083F091DE1EF460F093C8
:105AA000DE1E089520910403E0910203F0910303A8
:105AB0009081209529232083309101033260309317
:105AC000010340910103842F90E090630CB405FC26
:105AD00040C09EBD00000DB407FEFDCF9EB58EBD3B
