:100000000C94AB100D94B83D0D948D3D0D94623D54
:100010000D94373D0D940C3D0D94E13C0D94B63C90
:100020000D948B3C0C94DC100C94DC100C94DC10C4
:100030000C94DC100C94DC100C94DC100D94283122
:100040000C94DC100C94E74D0C94DD4B0C941DCCFF
:100050000C94DC100C94DC100C94DC100D94565BAA
:100060000C94DC100D944B3F0D940B3F0C94DC1062
:100070000C94DC100C94DC100C94DC100C94DC1050
:100080000D94B32E0D94382E0D94BD2D0C94DC10D0
:100090000C94DC100C94DC100C94DC100C94DC1030
:1000A0000C94DC100C94DC100D94DA2A0D94422D83
:1000B0000D94402A0C94DC100C94DC100D94A82CA8
:1000C0000D940E2C0D94742B0C94DC100C94DC10FD
:1000D0000C94DC100C94DC100D94D43E0D94943EE2
:1000E0000C94DC100D94924B0C941F5E0C944F9268
:1000F0000C94D5B80C9405810C9428C90D94BF3884
:100100000C945A500C9469500C94B3870D94276347
:100110000C943CC80C942E540C9484820C94E27F72
:100120000C941FBD0C9419620C9438900C9451CA15
:100130000D94303A0D94F4390C9466320C94D2BB81
:100140000D949E4B0C94BCE70C9479110C94F6869C
:100150000D945E780D9462390C9435D00D94610144
:100160000C94F0C20C9455980C940BA30C94D2C927
:100170000D94C2900D94A44B0D9405390D94E31A7F
:100180000C94B3500D948A4B0D94D73A0C940621DD
:100190000D94A9390C94C6200C943EFC0D940D3A94
:1001A0000D9480380C9423210D9409060D947374DA
:1001B0000D94F3380C94BF6F0C9454870D94D300B6
:1001C0000D94193A0D947B090C9414860C94BF6B12
:1001D0000D948E4B0C942A510C9485220D94860319
:1001E0000D941C0E0D94ED770D94A70F0D94F51A38
:1001F0000D945A000C9469130D94D3620C9411233E
:100200000D94F9380C9482AA0C946AAC0C94CB79B6
:100210000C94F1220C94F5200C94D97B0D94BE0E15
:100220000C94666C0D9432390C94FA530D9403744B
:100230000D94033A0C9494390C9415C50C9482AE29
:100240000D94520E0C941D380C94A6BF0C94E17CB6
:100250000C94581B0C942FE80C9428FB0C944F8E94
:100260000D9444390C9470540D94863E0C945EF5B4
:100270000D94AA380D9422660D949E380C947A7AC7
:100280000D94B70C0C94326C0C94775E0C948C2209
:100290000C94D7970C9405950C94A8760C944E8EDC
:1002A0000D940B390C9425BA0C9480BE0D948A06DB
:1002B0000C94118A0C9478500C94CD200C94A5F6D3
:1002C0000C94C6840D9468380D9451030C94B69622
:1002D0000D94163A0D94C5380C9439900C94A3677C
:1002E0000C94C8930C94239F0C9465770D94383923
:1002F0000D94C8380D9489380C942EF40D946F4ADF
:100300000C94E6610C946EBB0C94BAB90C94BEFDCF
:100310000C943FBF0C9429620C94DAE10D94ED1A11
:100320000C9473E70C94B7610D9486380C94A05428
:100330000C94956F0D94865C0C9425C00D94B63882
:100340000C940F7C0C94883E0D94FD490C949C22D7
:100350000D94D4380D946B740C94B2110C943ACF64
:100360000C949C880C9468C30C9426500C940AC27C
:100370000D94A50B0D9414390D9441390D94063A42
:100380000C94D19A0C94AC530D94AD380C9468F441
:100390000C949E850C9460E10C94DD500D94DB1A56
:1003A0000D94BC4B0D94DF1A0D94AA4B0D94A138FB
:1003B0000D9423070C948F600C9448510C94406664
:1003C0000C94006D0D94F31A0D94F6380D948F383B
:1003D0000C94027F0D94880E0C94ACC70D944A398E
:1003E0000C946AF60C94D9610D9486390D94BC383E
:1003F0000D94E11A0C9433850D947A380C9455546D
:100400000C942DBC0D945F390C9418500D94D84663
:100410000D947A3E0D94253A0C948D610C94898646
:100420000D94663E0D943C3A0C946D9E0C94A56F11
:100430000D94473E0C94F1180D94A1780C94396CEE
:100440000C945C5F0D94063E0D945B380D94D44B78
:100450000D94103A0D94C2380C9443930C94A2F569
:100460000D947B740D940A3E0D94003A0D947E3BDE
:100470000D9458490C94B3760C9464210D94043E69
:100480000C94C56C0C94EF3A0D94E6460C942895A8
:100490000D943F3A0D9483650D94CF390C9493BA23
:1004A0000C9415760C94D6D00C94D1790C94C5FE8E
:1004B0000C9437C30D941D390C94B8750D94F7390D
:1004C0000C94AFFA0D94DA010D942C390C944F80F2
:1004D0000C9404540D9465380C94EB8E0D94B9383B
:1004E0000D9462740C94ED3E0C9452B90C9433222A
:1004F0000D9485040D941F3A0D9450390D94EA38EB
:100500000C9465680C94CCFF0C940D620C94317BB8
:100510000D94054A0D94C24B0C9473210D9423390C
:100520000C941FD10C942A6C0D94103E0D944739F5
:100530000D9492380C9462F70C945A770D94894B71
:100540000C94DBBC0C94B86B0C945DC10C941A54E5
:100550000D944D390D94880F0C9435500C94C9A40A
:100560000C94FB7D0C94B7200D9411390C94081158
:100570000C9401760C946C9C0C9494500D94593905
:100580000C9467F90C94AD750D94363A0D94343C87
:100590000C94838D0D946B380D94D1380D94B04824
:1005A0000D94C7790C9493E20C9493950C94046980
:1005B0000C9479670D943B050D945C390C94063EC0
:1005C0000D9498380D94CF470C941F2F0D94023939
:1005D0000D94CE380D94FD640D9459740D94FA3930
:1005E0000D944C380C94A3F40D9429390D940839CA
:1005F0000C94BE200C94DD9C0C94F8BA0C94C02092
:100600000C944C5F0C9445FD0D9471380D94844B03
:100610000C94A7E10C9438C60C9427950D946E3871
:100620000D94A8480C948BBC0C94FF9F0C94ABF9D0
:100630000C940D690C94B2220D94E91A0D9474383F
:100640000C9486500C94C3120C942FF60C94FC9DC1
:100650000D94FC090D94F11A0C9409890C94A322B1
:100660000C9424540D94F4780D94EB1A0D94B03836
:100670000C9434AE0D9455380D94B0660D94B04B77
:100680000D94F71A0D94C7470D940E3E0D94C63A7B
:100690000D94EF1A0C94BE140D94C84B0D94E71AE8
:1006A0000D943E390C94EE680D9468390D94273EF4
:1006B0000D9452380D9445740C94048E0D94F91ACF
:1006C0000C9462E80C9475220C94E7200C942DF4A1
:1006D0000D94A7380C94DF220C943DE20C9453FF48
:1006E0000C940F540C94E6220C94DBC00D94FF384C
:1006F0000D94DD1A0D9498390C945D210D94120916
:100700000C94ABD10D941F7A0D9477080C9434F8A7
:100710000C946D790D94EC030D94F7610D942639CA
:100720000C94A46E0C940F7A0D943B390D948C3874
:100730000D94B64B0C947FB80C94225E0D947738D0
:100740000D947D380D942F390D941A390C94D37370
:100750000D9430780C945E9A0D94A4380D942D3A33
:100760000C940E7A0C9495540D94984B0C94C9618A
:100770000D9456390D9453390C94A6F70D94333AD1
:100780000C946FF80C9489BE0C94B0FB0C94E3E2CB
:100790000C944CFE0D94083E0D942D0C0D941B0BE7
:1007A0000C9474FA0D94CC390C94EF170D94D9076E
:1007B0000D9483380C94CC790C945D940C943FE1A7
:1007C0000C94508E0D940C3E0C94B8600C94DCE7A5
:1007D0000C94AAF80C9437600C9453880C944D68D0
:1007E0000C9416960C944F770C94AC670C948B5425
:1007F0000C94DA7A0D9462380C94C3D00C9429C40A
:100800000C941AC70D9458070D94214A0C94AB9977
:100810000C9420620D9458380D940E390D94E43BDD
:100820000C94B7FC0D94133A0C94613F0C949422F1
:100830000C944BDD0C94C3750D944F380C94C56823
:100840000C946B210C9427690D94F0380C94A28BB6
:100850000C94AB200C94CC6C0C9438540C94E45352
:100860000C947AA90D94393A0C94DF360C946B9C55
:100870000C940F670C94F42E0C94C3790D948B7424
:100880000D949A0A0C94C7530D94A0020C947622EE
:100890000D9420390C946CE60C946CFB0C94F616B9
:1008A0000D945F380C94A8600D946D390D94223A24
:1008B0000C9409CE0D94B3380D94FD390D9417396D
:1008C0000D94FA450C946B6C0C94ED200D941C3A2D
:1008D0000C94F6750C94B6900C94A0670D94953812
:1008E0000D94BA040D94D2390D949B380D94CE4BCF
:1008F0000C94A4660C94276C0D94CB380D94FC38A2
:100900000D9470390D94BF470D94D4050C94AB220F
:100910000C9404950C94DE100D94723E0C94BA92D3
:100920000D948F660D94ED380C94A2C10C941C515B
:100930000D947F390C9469510D94494B0C94AA6124
:100940000C94D16C0C94A8C50C94429B0D94E51AA0
:100950000D94203C0C94ED6B0C94846E0C9489C81F
:100960000C9475670D94AB3A0D94D83A0D94293ACE
:100970000C94A61A0C94F28C0C9498600C94D09A57
:100980000D945C020C9439FA0C9483620C944C50D4
:100990000C947D220D9435390D9449380C94DFA7C1
:1009A0000C945F9A0D94DA4B0D94583E0A5061678F
:1009B0006520686173206E6F74206265656E2069C2
:1009C0006D706C656D656E74656420796574000A80
:1009D000326E642049676E6974696F6E204D617074
:1009E000000A326E64204675656C204D6170000A05
:1009F00050616765203920436667000A5472696D4B
:100A00002031205461626C65000A565654204D61B5
:100A100070000A426F6F7374204D6170000A506756
:100A2000203620436F6E666967000A414652204DAA
:100A30006170000A5067203420436667000A4967E6
:100A40006E6974696F6E204D6170000A50672032C4
:100A500020436667000A5645204D6170004572725A
:100A60003A20556E6B6E6F776E20636D64000A3DA1
:100A70003D3D436F6D6D616E642048656C703D3D1A
:100A80003D0A0A416C6C20636F6D6D616E6473206A
:100A90006172652073696E676C652063686172615D
:100AA0006374657220616E642061726520636F6E8D
:100AB000636174656E61746564207769746820741D
:100AC0006865697220706172616D6574657273200A
:100AD0000A776974686F7574207370616365732E2B
:100AE00053796E7461783A20203C636F6D6D616E4E
:100AF000643E2B3C706172616D65746572313E2B92
:100B00003C706172616D65746572323E2B3C706140
:100B100072616D657465724E3E0A0A3D3D3D4C69D9
:100B20007374206F6620436F6D6D616E64733D3D1D
:100B30003D0A0A41202D20446973706C617973204D
:100B40003331206279746573206F66206375727229
:100B5000656E745374617475732076616C7565731A
:100B600020696E2062696E61727920286C697665F1
:100B70002064617461290A42202D204275726E2022
:100B800063757272656E74206D617020616E642091
:100B9000636F6E666967506167652076616C756525
:100BA0007320746F20656570726F6D0A43202D206D
:100BB0005465737420434F4D20706F72742E202043
:100BC000557365642062792054756E65727374750F
:100BD00064696F20746F2073656520776865746839
:100BE000657220616E20454355206973206F6E2029
:100BF0006120676976656E2073657269616C200A91
:100C000020202020706F72742E2052657475726ED1
:100C10007320612062696E617279206E756D626504
:100C2000722E0A4E202D205072696E74206E6577E8
:100C3000206C696E652E0A50202D20536574206348
:100C4000757272656E7420706167652E202053790D
:100C50006E7461783A2020502B3C706167654E7548
:100C60006D6265723E0A52202D2053616D652061D0
:100C700073204120636F6D6D616E640A53202D20D7
:100C8000446973706C6179207369676E6174757201
:100C900065206E756D6265720A51202D2053616D5D
:100CA00065206173205320636F6D6D616E640A5619
:100CB000202D20446973706C6179206D6170206F04
:100CC0007220636F6E666967506167652076616C3C
:100CD00075657320696E2062696E6172790A5720AA
:100CE0002D20536574206F6E6520627974652069CC
:100CF0006E206D6170206F7220636F6E6669675041
:100D00006167652E20204578706563747320626981
:100D10006E61727920706172616D65746572732E97
:100D2000200A2020202053796E7461783A202057C1
:100D30002B3C6F66667365743E2B3C6E65776279FB
:100D400074653E0A74202D205365742063616C69BC
:100D500062726174696F6E2076616C7565732E20A6
:100D600020457870656374732062696E61727920C2
:100D7000706172616D65746572732E2020546162BA
:100D80006C6520696E646578206973206569746894
:100D9000657220302C200A20202020312C206F72F8
:100DA00020322E202053796E7461783A2020742BE3
:100DB0003C74626C655F6964783E2B3C6E65775667
:100DC000616C7565313E2B3C6E657756616C75655F
:100DD000323E2B3C6E657756616C75654E3E0A5A05
:100DE000202D20446973706C61792063616C6962A5
:100DF000726174696F6E2076616C7565730A542038
:100E00002D20446973706C617973203235362074FB
:100E10006F6F7468206C6F6720656E74726965739C
:100E200020696E2062696E6172790A72202D2044F9
:100E30006973706C6179732032353620746F6F740A
:100E400068206C6F6720656E74726965730A55203F
:100E50002D205072657061726520666F7220666920
:100E6000726D77617265207570646174652E2054AF
:100E70006865206E65787420627974652072656398
:100E800065697665642077696C6C2063617573654C
:100E9000207468652041726475696E6F20746F20DC
:100EA00072657365742E0A3F202D20446973706C3F
:100EB00061797320746869732068656C7020706153
:100EC0006765002C2000575545004F3200496E6C75
:100ED00065742074656D7000436F6F6C616E740093
:100EE000526573657420636F6E74726F6C206973E2
:100EF0002063757272656E746C79206469736162C7
:100F00006C65642E00436F6D6D732068616C746551
:100F1000642E204E65787420627974652077696C40
:100F20006C20726573657420746865204172647505
:100F3000696E6F2E00537065656475696E6F20323F
:100F40003032322E303200737065656475696E6FB1
:100F50002032303232303200303031002000200078
:100F6000200020002020202000526573657420633B
:100F70006F6E74726F6C2069732063757272656E28
:100F8000746C792064697361626C65642E00436FD0
:100F90006D6D732068616C7465642E204E65787485
:100FA00020627974652077696C6C20726573657452
:100FB000207468652041726475696E6F2E000000B0
:100FC000800020012001800020018000F0008001CD
:100FD000C000C0002001C00080002001040E1119D3
:100FE0001B20292B2D2F31333537393B3D3F4143D2
:100FF00045474B4D4F515557595D61666D7753705D
:1010000065656475696E6F00537065656475696EBA
:101010006F20323031392E30382D736572005370A5
:1010200065656475696E6F2063737830323031396D
:101030002E3800000020002300260029002C002F5D
:101040000032000001000003010601090100002137
:1010500000240027002A002D003000330001010089
:1010600000040107010A0100000000963007772CF8
:10107000610EEEBA51099919C46D078FF46A703583
:10108000A563E9A395649E3288DB0EA4B8DC791EC3
:10109000E9D5E088D9D2972B4CB609BD7CB17E0743
:1010A0002DB8E7911DBF906410B71DF220B06A48BB
:1010B00071B9F3DE41BE847DD4DA1AEBE4DD6D5103
:1010C000B5D4F4C785D38356986C13C0A86B647AE3
:1010D000F962FDECC9658A4F5C0114D96C06636343
:1010E0003D0FFAF50D088DC8206E3B5E10694CE48B
:1010F0004160D5727167A2D1E4033C47D4044BFD33
:10110000850DD26BB50AA5FAA8B5356C98B242D652
:10111000C9BBDB40F9BCACE36CD832755CDF45CFB2
:101120000DD6DC593DD1ABAC30D9263A00DE51802A
:1011300051D7C81661D0BFB5F4B42123C4B35699B2
:1011400095BACF0FA5BDB89EB802280888055FB232
:10115000D90CC624E90BB1877C6F2F114C6858ABB2
:101160001D61C13D2D66B69041DC760671DB01BC88
:1011700020D2982A10D5EF8985B1711FB5B606A582
:10118000E4BF9F33D4B8E8A2C9077834F9000F8EC2
:10119000A8099618980EE1BB0D6A7F2D3D6D089742
:1011A0006C6491015C63E6F4516B6B62616C1CD8FA
:1011B0003065854E0062F2ED95066C7BA5011BC182
:1011C000F4088257C40FF5C6D9B06550E9B712EAE2
:1011D000B8BE8B7C88B9FCDF1DDD62492DDA15F3C2
:1011E0007CD38C654CD4FB5861B24DCE51B53A746A
:1011F00000BCA3E230BBD441A5DF4AD795D83D6DF2
:10120000C4D1A4FBF4D6D36AE96943FCD96E344651
:101210008867ADD0B860DA732D0444E51D03335FF1
:101220004C0AAAC97C0DDD3C710550AA4102271069
:10123000100BBE86200CC925B56857B3856F2009F1
:10124000D466B99FE461CE0EF9DE5E98C9D9292231
:1012500098D0B0B4A8D7C7173DB359810DB42E3B71
:101260005CBDB7AD6CBAC02083B8EDB6B3BF9A0C05
:10127000E2B6039AD2B1743947D5EAAF77D29D1559
:1012800026DB048316DC73120B63E3843B64943E19
:101290006A6D0DA85A6A7A0BCF0EE49DFF09932759
:1012A000AE000AB19E077D44930FF0D2A308876871
:1012B000F2011EFEC206695D5762F7CB6765807159
:1012C000366C19E7066B6E761BD4FEE02BD3895A79
:1012D0007ADA10CC4ADD676FDFB9F9F9EFBE8E43D9
:1012E000BEB717D58EB060E8A3D6D67E93D1A1C481
:1012F000C2D83852F2DF4FF167BBD16757BCA6DDC9
:1013000006B53F4B36B248DA2B0DD84C1B0AAFF668
:101310004A0336607A0441C3EF60DF55DF67A8EF08
:101320008E6E3179BE69468CB361CB1A8366BCA0E0
:10133000D26F2536E2685295770CCC03470BBBB9C8
:101340001602222F260555BE3BBAC5280BBDB29208
:101350005AB42B046AB35CA7FFD7C231CFD0B58B88
:101360009ED92C1DAEDE5BB0C2649B26F263EC9C62
:10137000A36A750A936D02A906099C3F360EEB8598
:1013800067077213570005824ABF95147AB8E2AE18
:101390002BB17B381BB60C9B8ED2920DBED5E5B718
:1013A000EFDC7C21DFDB0BD4D2D38642E2D4F1F830
:1013B000B3DD686E83DA1FCD16BE815B26B9F6E118
:1013C00077B06F7747B718E65A0888706A0FFFCA78
:1013D0003B06665C0B0111FF9E658F69AE62F8D318
:1013E000FF6B6145CF6C1678E20AA0EED20DD754A0
:1013F00083044EC2B30339612667A7F71660D04D48
:10140000476949DB776E3E4A6AD1AEDC5AD6D96667
:101410000BDF40F03BD83753AEBCA9C59EBBDE7F87
:10142000CFB247E9FFB5301CF2BDBD8AC2BACA309F
:1014300093B353A6A3B4240536D0BA9306D7CD29C7
:1014400057DE54BF67D9232E7A66B3B84A61C40207
:101450001B685D942B6F2A37BE0BB4A18E0CC31B87
:10146000DF055A8DEF022D0000000041311B19826B
:10147000623632C3532D2B04C56C6445F4777D86E8
:10148000A75A56C796414F088AD9C849BBC2D18AC4
:10149000E8EFFACBD9F4E30C4FB5AC4D7EAEB58E88
:1014A0002D839ECF1C98875112C24A1023D953D343
:1014B00070F4789241EF6155D7AE2E14E6B537D768
:1014C000B5981C9684830559981B8218A9009BDB4C
:1014D000FA2DB09ACB36A95D5D77E61C6C6CFFDF08
:1014E0003F41D49E0E5ACDA2248495E3159F8C20B3
:1014F00046B2A76177A9BEA6E1E8F1E7D0F3E824F8
:1015000083DEC365B2C5DAAAAE5D5DEB9F464428B3
:10151000CC6B6F69FD7076AE6B3139EF5A2A202C97
:1015200009070B6D381C12F33646DFB2075DC67132
:101530005470ED30656BF4F7F32ABBB6C231A27577
:10154000911C8934A00790FBBC9F17BA8D840E793B
:10155000DEA92538EFB23CFF79F373BE48E86A7D17
:101560001BC5413C2ADE58054F79F0447E62E9876D
:101570002D4FC2C61C54DB018A159440BB0E8D83CF
:10158000E823A6C2D938BF0DC5A0384CF4BB218FC3
:10159000A7960ACE968D130900CC5C4831D7458BAF
:1015A00062FA6ECA53E177545DBBBA156CA0A3D63C
:1015B0003F8D88970E96915098D7DE11A9CCC7D24F
:1015C000FAE1EC93CBFAF55CD762721DE6796BDE3B
:1015D000B554409F844F5958120E161923150FDA2F
:1015E0007038249B41233DA76BFD65E65AE67C25B8
:1015F00009CB576438D04EA3AE9101E29F8A1821DF
:10160000CCA73360FDBC2AAFE124ADEED03FB42DB2
:1016100083129F6CB20986AB2448C9EA1553D029BE
:10162000467EFB687765E2F6793F2FB7482436742B
:101630001B091D352A1204F2BC534BB38D4852705E
:10164000DE657931EF7E60FEF3E6E7BFC2FDFE7C2A
:1016500091D0D53DA0CBCCFA368A83BB07919A783E
:1016600054BCB13965A7A84B98833B0AA99822C9F5
:10167000FAB50988CBAE104F5DEF5F0E6CF446CD26
:101680003FD96D8C0EC27443125AF3022341EAC152
:10169000706CC1804177D847D7369706E62D8EC546
:1016A000B500A584841BBC1A8A41715BBB5A68983B
:1016B000E87743D9D96C5A1E4F2D155F7E360C9CA6
:1016C0002D1B27DD1C003E120098B9533183A090DA
:1016D00062AE8BD153B59216C5F4DD57F4EFC494C6
:1016E000A7C2EFD596D9F6E9BC07AEA88D1CB76B9B
:1016F000DE319C2AEF2A85ED796BCAAC4870D36F36
:101700001B5DF82E2A46E1E136DE66A007C57F6341
:1017100054E8542265F34DE5F3B202A4C2A91B6755
:1017200091843026A09F29B8AEC5E4F99FDEFD3A2A
:10173000CCF3D67BFDE8CFBC6BA980FD5AB2993EB5
:10174000099FB27F3884ABB0241C2CF115073532C9
:10175000462A1E73773107B4E17048F5D06B5136D5
:1017600083467A77B25D634ED7FACB0FE6E1D2CCEF
:10177000B5CCF98D84D7E04A1296AF0B238DB6C84D
:1017800070A09D8941BB84465D2303076C381AC451
:101790003F1531850E0E2842984F6703A9547EC02D
:1017A000FA795581CB624C1FC538815EF423989D30
:1017B000A70EB3DC9615AA1B0054E55A314FFC99CD
:1017C0006262D7D85379CE174FE149567EFA5095C9
:1017D0002DD77BD41CCC62138A8D2D52BB963491AD
:1017E000E8BB1FD0D9A006ECF37E5EADC265476EA4
:1017F00091486C2FA05375E836123AA90709236A5D
:101800005424082B653F11E479A796A548BC8F6640
:101810001B91A4272A8ABDE0BCCBF2A18DD0EB623C
:10182000DEFDC023EFE6D9BDE1BC14FCD0A70D3F1F
:10183000838A267EB2913FB924D070F815CB693BDC
:1018400046E6427A77FD5BB56B65DCF45A7EC537B8
:101850000953EE763848F7B1AE09B8F09F12A133BC
:10186000CC3F8A72FD249300000000376AC2016EEB
:10187000D4840359BE4602DCA80907EBC2CB06B2EA
:101880007C8D0485164F05B851130E8F3BD10FD6B2
:1018900085970DE1EF550C64F91A095393D8080A9E
:1018A0002D9E0A3D475C0B70A3261C47C9E41D1EF4
:1018B00077A21F291D601EAC0B2F1B9B61ED1AC266
:1018C000DFAB18F5B56919C8F23512FF98F713A602
:1018D00026B111914C7310145A3C152330FE147A22
:1018E0008EB8164DE47A17E0464D38D72C8F398ED6
:1018F00092C93BB9F80B3A3CEE443F0B84863E520A
:101900003AC03C6550023D58175E366F7D9C3736B5
:10191000C3DA3501A9183484BF5731B3D59530EAFD
:101920006BD332DD01113390E56B24A78FA925FE1F
:1019300031EF27C95B2D264C4D62237B27A0222245
:1019400099E62015F3242128B4782A1FDEBA2B4605
:1019500060FC29710A3E28F41C712DC376B32C9AC1
:10196000C8F52EADA2372FC08D9A70F7E75871AE2B
:10197000591E739933DC721C2593772B4F51767265
:10198000F11774459BD57578DC897E4FB64B7F1671
:10199000080D7D2162CF7CA4748079931E4278CAA1
:1019A000A0047AFDCAC67BB02EBC6C87447E6DDE77
:1019B000FA386FE990FA6E6C86B56B5BEC776A0269
:1019C0005231683538F369087FAF623F156D636641
:1019D000AB2B6151C1E960D4D7A665E3BD6464BA9D
:1019E0000322668D69E06720CBD74817A115494EC1
:1019F0001F534B7975914AFC63DE4FCB091C4E9205
:101A0000B75A4CA5DD984D989AC446AFF00647F6F4
:101A10004E4045C12482444432CD4173580F402A80
:101A2000E649421D8C8B435068F154670233553EA2
:101A3000BC755709D6B7568CC0F853BBAA3A52E2C8
:101A4000147C50D57EBE51E839E25ADF53205B86C4
:101A5000ED6659B187A4583491EB5D03FB295C5ABC
:101A6000456F5E6D2FAD5F801B35E1B771F7E0EE1E
:101A7000CFB1E2D9A573E35CB33CE66BD9FEE732A4
:101A800067B8E5050D7AE4384A26EF0F20E4EE56F4
:101A90009EA2EC61F460EDE4E22FE8D388EDE98AE0
:101AA00036ABEBBD5C69EAF0B813FDC7D2D1FC9E42
:101AB0006C97FEA90655FF2C101AFA1B7AD8FB4228
:101AC000C49EF975AE5CF848E900F37F83C2F22644
:101AD0003D84F0115746F1944109F4A32BCBF5FA5C
:101AE000958DF7CDFF4FF6605D78D95737BAD80E90
:101AF00089FCDA39E33EDBBCF571DE8B9FB3DFD2C4
:101B000021F5DDE54B37DCD80C6BD7EF66A9D6B6EF
:101B1000D8EFD481B22DD504A462D033CEA0D16A3F
:101B200070E6D35D1A24D210FE5EC527949CC47E55
:101B30002ADAC6494018C7CC5657C2FB3C95C3A207
:101B400082D3C195E811C0A8AF4DCB9FC58FCAC63F
:101B50007BC9C8F1110BC9740744CC436D86CD1AFB
:101B6000D3C0CF2DB902CE4096AF9177FC6D902EA9
:101B7000422B921928E9939C3EA696AB546497F2A7
:101B8000EA2295C580E094F8C7BC9FCFAD7E9E96B3
:101B900013389CA179FA9D246FB598130577994A5B
:101BA000BB319B7DD1F39A3035898D075F4B8C5EBD
:101BB000E10D8E698BCF8FEC9D808ADBF7428B82A3
:101BC000490489B523C68888649A83BF0E5882E683
:101BD000B01E80D1DADC8154CC938463A651853A5F
:101BE0001817870D72D586A0D0E2A997BA20A8CE83
:101BF0000466AAF96EA4AB7C78EBAE4B1229AF1247
:101C0000AC6FAD25C6ADAC1881F1A72FEB33A6762E
:101C10005575A4413FB7A5C429F8A0F3433AA1AA3A
:101C2000FD7CA39D97BEA2D073C4B5E71906B4BED0
:101C3000A740B689CD82B70CDBCDB23BB10FB36202
:101C40000F49B155658BB06822D7BB5F4815BA06FE
:101C5000F653B8319C91B9B48ADEBC83E01CBDDA7E
:101C60005E5ABFED3498BE000000006567BCB88BBB
:101C7000C809AAEEAFB5125797628F32F0DE37DC93
:101C80005F6B25B938D79DEF28B4C58A4F087D64AE
:101C9000E0BD6F018701D7B8BFD64ADDD86AF233FD
:101CA00077DFE0561063589F571950FA30A5E814B3
:101CB0009F10FA71F8AC42C8C07BDFADA7C767437D
:101CC000087275266FCECD707FAD951518112DFB5E
:101CD000B7A43F9ED0188727E8CF1A428F73A2ACD3
:101CE00020C6B0C9477A083EAF32A05BC88E18B58F
:101CF000673B0AD00087B26938502F0C5FEC97E23F
:101D0000F059858797E53DD1878665B4E03ADD5A7D
:101D10004F8FCF3F2833778610E4EAE37758520D90
:101D2000D8ED4068BF51F8A1F82BF0C49F97482A1E
:101D300030225A4F579EE2F66F497F9308F5C77DD0
:101D4000A740D518C0FC6D4ED09F352BB7238DC54D
:101D500018969FA07F2A271947FDBA7C204102923E
:101D60008FF410F7E848A83D58149B583FA823B6B5
:101D7000901D31D3F7A1896ACF76140FA8CAACE1C0
:101D8000077FBE8460C306D270A05EB7171CE659F9
:101D9000B8A9F43CDF154C85E7C2D1E0807E690E1E
:101DA0002FCB7B6B4877C3A20F0DCBC768B17329CC
:101DB000C704614CA0B8D9F5986F4490FFD3FC7E5E
:101DC0005066EE1B37DA564D27B90E284005B6C6C9
:101DD000EFB0A4A3880C1C1AB0DB817FD7673991C0
:101DE00078D22BF41F6E9303F7263B66909A838874
:101DF0003F2F91ED589329546044B43107F80CDF1C
:101E0000A84D1EBACFF1A6ECDF92FE89B82E466728
:101E1000179B54027027ECBB48F071DE2F4CC93081
:101E200080F9DB55E745639CA03F6BF9C783D31767
:101E30006836C1720F8A79CB375DE4AE50E15C4001
:101E4000FF544E2598E8F673888BAE16EF3716F8D8
:101E50004082049D273EBC241FE92141785599AF5B
:101E6000D7E08BCAB05C333BB659ED5ED1E555B0D7
:101E70007E5047D519ECFF6C213B62094687DAE7B3
:101E8000E932C8828E8E70D49EED28B1F951905FF0
:101E900056E4823A31583A83098FA7E66E331F0819
:101EA000C1860D6DA63AB5A4E140BDC186FC052FE3
:101EB0002949174A4EF5AFF376223296119E8A7859
:101EC000BE2B981DD997204BC9F4782EAE48C0C0C0
:101ED00001FDD2A566416A1C5E96F779392A4F97B3
:101EE000969F5DF2F123E505196B4D607ED7F58E67
:101EF000D162E7EBB6DE5F528E09C237E9B57AD917
:101F0000460068BC21BCD0EA31DF888F566330615F
:101F1000F9D622049E6A9ABDA6BD07D8C101BF3674
:101F20006EB4AD530908159A4E721DFF29CEA51146
:101F3000867BB774E1C70FCDD91092A8BEAC2A46F4
:101F40001119382376A5807566C6D810017A60FE0F
:101F5000AECF729BC973CA22F1A457479618EFA956
:101F600039ADFDCC5E114506EE4D766389F1CE8D1F
:101F70002644DCE841F86451792FF9341E9341DAA4
:101F8000B12653BFD69AEBE9C6F9B38CA1450B62D3
:101F90000EF01907694CA1BE519B3CDB36278435F6
:101FA00099929650FE2E2E99B95426FCDEE89E1288
:101FB000715D8C7716E134CE2E36A9AB498A114576
:101FC000E63F03208183BB7691E0E313F65C5BFD83
:101FD00059E949983E55F12106826C44613ED4AAE4
:101FE000CE8BC6CFA9377E38417FD65D26C36EB370
:101FF00089767CD6EECAC46FD61D590AB1A1E1E438
:102000001E14F38179A84BD769CB13B20E77AB5C62
:10201000A1C2B939C67E0180FEA99CE59915240BA1
:1020200036A0366E511C8EA7166686C271DA3E2C1B
:10203000DE6F2C49B9D394F081040995E6B8B17BE1
:10204000490DA31E2EB11B483ED2432D596EFBC332
:10205000F6DBE9A69167511FA9B0CC7ACE0C749437
:1020600061B966F10605DE00002200250028002B7C
:10207000002E003100340002010000050108010BB0
:102080000105050505070508080808020202020AFD
:102090000A0808040404040101010101010101030B
:1020A00003030303030303040707070C0C0C0C0CC6
:1020B0000C0C0C0202020206060606060606060BB9
:1020C0000B0B0B0B0B0B0B01021020200808102030
:1020D00040102040800201020108040201010204B4
:1020E0000810204080804020100804020180040273
:1020F00001804020100804020108040201010204CA
:102100000810204080010204081020408000000ACE
:102110000B02090C0D0E080703040100000000006B
:1021200000000000000000000000000000000000AF
:10213000000000000000000000121110000000006C
:10214000000000000000000000000000000000008F
:1021500000000000B80011241FBECFEFD1E2DEBFA7
:10216000CDBF00E00CBF12E0A0E0B2E0EAE5FDE286
:1021700003E00BBF02C007900D92A239B107D9F757
:102180002FE1A2E9B2E001C01D92A832B207E1F747
:1021900010E1CBEAD0E100E006C021970109802FD1
:1021A000FE010F942896CA3AD10780E00807A9F7E4
:1021B0000F94A05B0D94AB960C9400008091DB1DF6
:1021C00082319CF026E030E030937803209377034F
:1021D00041E050E0509376034093750364E070E073
:1021E00070937403609373030895A7E0B0E0B09315
:1021F0007803A0937703E2E0F0E0F0937603E093B6
:10220000750385E090E090937403809373030895C1
:102210008091A91D882309F469C02091AA1D3091DD
:10222000AB1D4091431E5091441E2417350708F4FE
:1022300050C08091EB049091EC04A091ED04B0911A
:10224000EE04892B8A2B8B2B09F450C02091E704D4
:102250003091E8044091E9045091EA04232B242BA7
:10226000252B09F443C0F8948091EB049091EC0481
:10227000A091ED04B091EE044091E7045091E80480
:102280006091E9047091EA04841B950BA60BB70BCF
:102290008093820A9093830AA093840AB093850A5C
:1022A00078942091820A3091830A4091840A509157
:1022B000850A60E077E883E993E00F94A295C9016D
:1022C000803526E49207A0F08091AA1D9091AB1D65
:1022D00008956091171E7091181E8091191E90919B
:1022E0001A1E672B682B692B09F0A3CF90E080E0C2
:1022F00008958091BB099091BC092091301C3091C8
:10230000311C821B930B4091190250911A028417C1
:1023100095079CF0841B950B0197843B9105A8F4CD
:1023200061E070E07093780360937703A2E0B0E01F
:10233000B0937603A0937503089597FFEDCF840FB4
:10234000951F0197843B910558F3E2E0F0E0F0938C
:102350007803E093770381E090E090937603809395
:1023600075030895CF92DF92EF92FF922091AA1DFC
:102370003091AB1D8091431E9091441E2817390760
:1023800008F06CC0E091B104F091B204C090171E47
:10239000D090181EE090191EF0901A1E80913B1CE0
:1023A00090E0B0E0A0E0C816D906EA06FB0608F403
:1023B00059C0D090A91DDD2009F454C040917D0A78
:1023C00050917E0A60917F0A7091800A452B462BBE
:1023D000472B09F447C06091790A70917A0A80917D
:1023E0007B0A90917C0A672B682B692BD9F120918D
:1023F0007D0A30917E0A40917F0A5091800A809137
:10240000790A90917A0AA0917B0AB0917C0A82178E
:102410009307A407B50730F5F89420917D0A309111
:102420007E0A40917F0A5091800AC090790AD0902C
:102430007A0AE0907B0AF0907C0A2C193D094E093B
:102440005F09AE2FB0E00F94EA956093820A709313
:10245000830A8093840A9093850A6DC0C090A91D59
:10246000C11033C0C090820AD090830AE090840AE1
:10247000F090850A90E080E0CC0CDD1CEE1CFF1C87
:10248000C0921E02D0921F02E0922002F09221021E
:102490002091B1043091B2042BE4C21628E9D2068F
:1024A00025E0E206F10460F44BE458E965E070E0F1
:1024B00040931E0250931F026093200270932102EA
:1024C000FF90EF90DF90CF9008954091EB045091F2
:1024D000EC046091ED047091EE04452B462B472BE4
:1024E00009F26091E7047091E8048091E904909109
:1024F000EA04672B682B692B09F4B4CFF894809118
:10250000EB049091EC04A091ED04B091EE042091C5
:10251000E7043091E8044091E9045091EA04821BF9
:10252000930BA40BB50B8093820A9093830AA0931C
:10253000840AB093850A7894C090820AD090830A66
:10254000E090840AF090850AF694E794D794C794B3
:10255000C092820AD092830AE092840AF092850A9D
:1025600060E077E883E993E0A70196010F94A295D4
:10257000C901803526E4920708F47ECF8091AA1D18
:102580009091AB1D79CF20913F1C30E080913C1C95
:102590008C718C3009F496C0E091301CF091311CA4
:1025A0006091770A7091780A8091BB099091BC097B
:1025B0008E1B9F0B0F945B95261737070CF05DC0A1
:1025C000621B730B70937803609377036091770AB3
:1025D0007091780A80918709909188098E1B9F0BD2
:1025E0000F945B95261737070CF065C0621B730BC1
:1025F00070937603609375036091770A7091780AFF
:1026000080918509909186098E1B9F0B0F945B9595
:10261000261737070CF048C0621B730B70937403C6
:10262000609373036091770A7091780A80918309AF
:10263000909184098E1B9F0B0F945B95261737078B
:102640006CF5621B730B709372036093710360915E
:10265000770A7091780A80917109909172098E1BA6
:102660009F0B0F945B952617370774F4621B730B4F
:1026700070934403609343030895161617060CF4F1
:10268000A1CF620F731F9ECF161617068CF3620F31
:10269000731F70934403609343030895161617063F
:1026A00094F2620F731FCFCF161617060CF4B6CF35
:1026B000620F731FB3CF161617060CF499CF620F73
:1026C000731F96CF4091351C41FD66CF220F331FFB
:1026D00063CF0F931F93CF93DF93E0913F1CF0E004
:1026E00080913C1C8C718C3009F43FC1EF0130E0CB
:1026F00020E00091301C1091311C6091770A70919C
:10270000780A8091BB099091BC09801B910B0F94B2
:102710005B9561507109C617D7070CF006C16C1B99
:102720007D0B4091B1045091B2044617570720F435
:10273000E617F7070CF014C1A091B104B091B204F0
:10274000A20FB31FA617B70730F46091B1047091C0
:10275000B204620F731F70937803609377036091E4
:10276000770A7091780A8091870990918809801B77
:10277000910B0F945B9561507109C617D7070CF048
:10278000CDC06C1B7D0B8091B1049091B204861773
:10279000970720F4E617F7070CF0DDC04091B1046D
:1027A0005091B204420F531F4617570730F46091FF
:1027B000B1047091B204620F731F7093760360933B
:1027C00075036091770A7091780A809185099091DC
:1027D0008609801B910B0F945B9561507109C61798
:1027E000D7070CF094C06C1B7D0BA091B104B09185
:1027F000B204A617B70720F4E617F7070CF0A6C037
:102800008091B1049091B204820F931F86179707AD
:1028100030F46091B1047091B204620F731F709331
:102820007403609373036091770A7091780A8091C2
:10283000830990918409801B910B0F945B956150E3
:102840007109C617D7070CF05BC06C1B7D0B40915C
:10285000B1045091B2044617570720F4E617F70762
:102860000CF06FC0A091B104B091B204A20FB31FDD
:10287000A617B70730F46091B1047091B204620FEB
:10288000731F70937203609371036091770A709164
:10289000780A8091710990917209801B910B0F94B5
:1028A0005B9561507109C617D70724F56C1B7D0B2A
:1028B000C091B104D091B204C617D70718F4E61737
:1028C000F707D4F5E091B104F091B204E20FF31FE1
:1028D000E617F70730F46091B1047091B204620F0B
:1028E000731F7093440360934303DF91CF911F9153
:1028F0000F91089516161706DCF26C0F7D1FD8CFC6
:10290000161617060CF4A3CF6C0F7D1FA0CF16165A
:1029100017060CF46ACF6C0F7D1F67CF16161706CB
:102920000CF431CF6C0F7D1F2ECF161617060CF44A
:10293000F8CE6C0F7D1FF5CE6091B1047091B2049A
:10294000C1CF6091B1047091B2048CCF6091B10499
:102950007091B20455CF6091B1047091B2041ECF52
:102960006091B1047091B204E7CE0091351C01FD75
:10297000BDCE9F01EF01CC0FDD1FBBCECF92DF920A
:10298000EF92FF92E091C709F091C8091995AC0147
:10299000893621E092070CF443C09C01295631404E
:1029A000A3E8BDE20F94FD950024880F991F001C39
:1029B000880F991F001C892F902D877099274856E2
:1029C0005140493621E052075CF1009719F18130FE
:1029D0009105D1F082309105A9F08330910581F005
:1029E0008430910559F08530910531F0069711F04A
:1029F000485651404856514048565140485651401B
:102A0000485651404856514048565140493621E0B9
:102A1000520734F040545B40493681E05807D4F700
:102A20008091301C9091311C481B590B2091A91E9C
:102A30002370223031F4C090A91CD090AA1C4C19EC
:102A40005D09E091AC1C9A01220F331FF0E0A0E079
:102A5000B1E0AE1BBF0B0F9430966B017C01A091CF
:102A60006D1EB0916E1E9F010F943896C60ED71E34
:102A7000E81EF91ECD2CDE2CEF2CFF24E7FCFA9487
:102A8000D0926E1EC0926D1EFF90EF90DF90CF909F
:102A90000895CF92DF92EF92FF92CF93DF93EC01F4
:102AA000AA81BB81E881F981408151811396FC9113
:102AB000139711962D913C91DF2FDF712115310570
:102AC00041F1DA010F9430966C01FF24D7FCF094A9
:102AD000EF2CC601F6FD0EC002C095958795DA95DC
:102AE000E2F797FD0196DF91CF91FF90EF90DF9095
:102AF000CF9008952F2FFF0F330B220F232F221F6C
:102B0000330BCA0182279327821B930B8C0D9D1DCB
:102B1000E3CF2F2FFF0F330B220F232F221F330B57
:102B20008FEF9FEF0D2E02C0880F991F0A94E2F7D6
:102B300080959095BA01770F660B762F86239723A1
:102B4000840F951F02C095958795DA95E2F7822745
:102B50009327821B930BDF91CF91FF90EF90DF9033
:102B6000CF9008958F929F92AF92BF92CF92DF92B3
:102B7000EF92FF920F931F93CF93DF935C018B0132
:102B80001092BE071092BD0710922C0A812F0F944D
:102B9000E04B802F0F94E04B1093C8080093C708B8
:102BA0000115110509F4DDC045018FE3E82EF12C74
:102BB0006501C00ED11EC80183709927009709F4E2
:102BC00059C081309105C1F10297D9F0E501899191
:102BD0004E010F94E04BA091BD07B091BE07119636
:102BE000B093BE07A093BD079091070F8091080F87
:102BF000981708F0F4C0891B990B0197892B09F4E9
:102C000092C0F40181914F010F94E04B8091BD0778
:102C10009091BE0701969093BE078093BD07909157
:102C2000070F8091080F981708F0D2C0891B990BE5
:102C30000197892B09F477C0E40189914E010F9423
:102C4000E04BA091BD07B091BE071196B093BE07AF
:102C5000A093BD079091070F8091080F981708F077
:102C600059C0891B990B019709F45DC0C814D90498
:102C700009F477C0E40189910F94E04BE091BD071E
:102C8000F091BE073196F093BE07E093BD07909197
:102C9000070F8091080F981708F055C0891B990BF2
:102CA0000197892B09F43FC088810F94E04B8091F4
:102CB000BD079091BE0701969093BE078093BD0714
:102CC0009091070F8091080F981708F043C0891B57
:102CD000990B0197892B39F189810F94E04BA091D1
:102CE000BD07B091BE071196B093BE07A093BD0774
:102CF0009091070F8091080F981708F062C0891B08
:102D0000990B0197892B79F04E01F3E08F0E911CFE
:102D10008A8195CF9701291B3109820F932F911D2D
:102D2000892B09F0A3CF01E000932C0ADF91CF910A
:102D30001F910F91FF90EF90DF90CF90BF90AF90D9
:102D40009F908F9008959701291B3109820F932F2F
:102D5000911DA7CF9701291B3109820F932F911D38
:102D6000B9CF80902C0A8110E1CF2FEF3FEFA9015E
:102D70002093AE1B3093AF1B4093B01B5093B11BFD
:102D800021E0A801B5018EEA9BE10E94ABECEB01CA
:102D9000182F892F0F94E04B812F0F94E04B8D2F2C
:102DA0000F94E04B8C2FDF91CF911F910F91FF90EB
:102DB000EF90DF90CF90BF90AF909F908F900D9449
:102DC000E04B9701291B3109820F932F911D9ACF58
:102DD0009701291B3109820F932F911D2ACF97014B
:102DE000291B3109820F932F911D08CF8091A91DB6
:102DF0000F94305B60936B0370936C0380936D034F
:102E000090936E0380916B0390916C03A0916D037E
:102E1000B0916E0340911F0A5091200A6091210ADF
:102E20007091220A841B950BA60BB70B8093670346
:102E300090936803A0936903B0936A03209167039A
:102E4000309168034091690350916A036091EF04E7
:102E50007091F0048091F1049091F20426173707E5
:102E60004807590708F471C080916B0390916C0377
:102E7000A0916D03B0916E0380931F0A9093200A76
:102E8000A093210AB093220A51E050935E0360910F
:102E90006703709168038091690390916A03969526
:102EA0008795779567956093EF047093F00480930E
:102EB000F1049093F2043091A91D311132C08CEDD0
:102EC00095E0A0E0B0E08093F3049093F404A09325
:102ED000F504B093F6046091EF047091F0048091D2
:102EE000F1049091F2049695879577956795609394
:102EF000EF047093F0048093F1049093F204E09156
:102F0000AD04F091AE0490817091AC04A091EC0BF3
:102F1000A07F972301F1A03409F453C0A03609F42F
:102F200048C04091AA1D5091AB1DE091431EF09105
:102F3000441E4E175F0750F4F091A91DFF2329F09E
:102F40005091EC0B507F503491F00895B091361CA5
:102F5000B7FDF2CF0895A03421F720915E0930919A
:102F60005F0925303105E9F65093A91DDACF0F949A
:102F7000305B8091450390914603A0914703B09147
:102F80004803E091AD04F091AE0430819091AC041F
:102F90003923D9F2A0915E09B0915F09A830B1053B
:102FA000C9F01092A91D7091541E7F5F7093541E3A
:102FB000089580915E0990915F09079709F0B1CF5C
:102FC000D3CF60915E0970915F096830710509F097
:102FD000A8CFCACFB0935F09A0935E090895CF929E
:102FE000DF92EF92FF92CF93DF930F94305B609369
:102FF0006B0370936C0380936D0390936E038091C9
:103000006B0390916C03A0916D03B0916E0340919E
:103010001F0A5091200A6091210A7091220A841B94
:10302000950BA60BB70B8093670390936803A0934F
:103030006903B0936A03C0906703D0906803E0907F
:103040006903F0906A032091EF043091F0044091FD
:10305000F1045091F204C216D306E406F50608F412
:1030600065C080916B0390916C03A0916D03B0914A
:103070006E0380931F0A9093200AA093210AB093B5
:10308000220A40916703509168036091690370912F
:103090006A03769567955795479576956795579501
:1030A00047954093EF045093F0046093F1047093BC
:1030B000F204D090A91DDD2009F453C0C090171E62
:1030C000D090181EE090191EF0901A1E80913B1CA3
:1030D00090E0B0E0A0E08C159D05AE05BF0508F0BE
:1030E00040C080913F1C90E0E0905E09F0905F0945
:1030F0008E159F0591F02091171E3091181E40915A
:10310000191E50911A1E233031054105510528F032
:103110003091541E3F5F3093541EF090361CF7FEE2
:1031200056C090935F0980935E0951C06091820AF6
:103130007091830A8091840A9091850A969587956B
:10314000779567956093EF047093F0048093F10492
:103150009093F204DF91CF91FF90EF90DF90CF90AA
:1031600008950F94305B60937D0A70937E0A80937C
:103170007F0A9093800A0F94305B6B017C01C091B1
:103180003F1C2C2F30E050E040E060E87DE88BE50C
:1031900090E00F946F95C21AD30AE40AF50AC09220
:1031A000790AD0927A0AE0927B0AF0927C0AD0E007
:1031B000D0935F09C0935E091092F3041092F40457
:1031C0001092F5041092F60451E05093A91D71E09D
:1031D00070935D03DF91CF91FF90EF90DF90CF90E0
:1031E0000895CF92DF92EF92FF920F94305B60933D
:1031F0006B0370936C0380936D0390936E038091C7
:103200006B0390916C03A0916D03B0916E0340919C
:103210001F0A5091200A6091210A7091220A841B92
:10322000950BA60BB70B8093670390936803A0934D
:103230006903B0936A03C0901F0AD090200AE090FF
:10324000210AF090220ACD28CE28CF28C1F410926E
:103250006703109268031092690310926A03209129
:103260006B0330916C0340916D0350916E0320937A
:103270001F0A3093200A4093210A5093220A40915A
:103280006703509168036091690370916A038091AC
:10329000EF049091F004A091F104B091F20448176A
:1032A00059076A077B07C0F13091381C3F773130EE
:1032B00009F4C1C0311120C051E050935D03609109
:1032C0006703709168038091690390916A039695F2
:1032D0008795779567956093EF047093F0048093DA
:1032E000F1049093F204A0911C0AB0911D0A11966A
:1032F000B0931D0AA0931C0AC0906B03D0906C037E
:10330000E0906D03F0906E03C0921F0AD092200AE5
:10331000E092210AF092220AD090A31ED5FE86C028
:10332000E0905D03EE2009F481C0E091C709F091BF
:10333000C8091995AC01893621E092070CF442C006
:103340009C0129563140A3E8BDE20F94FD9500246D
:10335000880F991F001C880F991F001C892F902D22
:103360008770992748565140493621E0520754F159
:10337000009711F181309105C9F082309105A1F0DB
:103380008330910579F08430910551F085309105B5
:1033900029F0069709F0B5C04856514048565140AB
:1033A0004856514048565140485651404856514061
:1033B000493621E0520734F040545B40493681E001
:1033C0005807D4F72091301C3091311C421B530B0D
:1033D0007091A91E7370723031F480916B1D9091C1
:1033E0006C1D481B590BE091AC1C9A01220F331F36
:1033F000F0E0A0E0B1E0AE1BBF0B0F9430966B0184
:103400007C01A091591EB0915A1E9F010F943896CD
:10341000C60ED71EE81EF91ECD2CDE2CEF2CFF2485
:10342000E7FCFA94D0925A1EC092591EFF90EF907A
:10343000DF90CF90089580911F0A9091200AA0916B
:10344000210AB091220AC090E304D090E404E090F5
:10345000E504F090E6048C199D09AE09BF09AC01A2
:10346000BD01440F551F661F771F840F951FA61FB0
:10347000B71FB695A795979587958093510390931D
:103480005203A0935303B093540320911F0A309129
:10349000200A4091210A5091220A2093E30430939C
:1034A000E4044093E5045093E6044091670350918F
:1034B00068036091690370916A0380915103909150
:1034C0005203A0915303B0915403481759076A0758
:1034D0007B0730F4E0911C0AF0911D0A3497A0F0AC
:1034E00081E090E090931D0A80931C0A80935D0315
:1034F0001092EF041092F0041092F1041092F20472
:10350000FBCE4856514048CF6091670370916803E5
:103510008091690390916A03969587957795679551
:1035200096958795779567956093EF047093F0046F
:103530008093F1049093F204A0911C0AB0911D0AAB
:103540001196B0931D0AA0931C0AD6CECF93DF9399
:1035500010925E0381E080935E032091FC0423308F
:10356000F1F0223091F0213029F4E091F804F0914B
:10357000F90419956091581E662321F070915E033D
:10358000711117C0DF91CF910895E091AA04F091D5
:10359000AB0430819091A904392339F3EBCFC0916A
:1035A000AA04D091AB0448815091A9044523E9F6BF
:1035B000E1CF8091670390916803A0916903B09176
:1035C0006A03A091F61DA6FDDDCFB091571EB11183
:1035D000D9CFC091480CD091490CCC53DD4F188203
:1035E000E091AD04F091AE04D081F091AC04DF2302
:1035F00009F045C0E091AA04F091AB04208130911C
:10360000A904232349F0C091480CD091490CCC5314
:10361000DD4F988192609883E091480CF091490CBD
:10362000EC53FD4F4081446040835091A91D5523C8
:1036300049F0C091480CD091490CCC53DD4F6881C2
:1036400068606883C091480CD091490C0F94305B3E
:10365000CC0FDD1FCC0FDD1FC65BD34F6883798392
:103660008A839B83A091480CB091490CAE37B10579
:1036700080F07091F61D70647093F61D83CFC09139
:10368000480CD091490CCC53DD4F888181608883F0
:10369000B1CF8091480C9091490C01969093490CC0
:1036A0008093480CB091F61DBF7BB093F61D6ACF96
:1036B000CF93DF9310925E038091FD04833009F471
:1036C00081C08230B9F08130F1F4E091FA04F091D8
:1036D000FB0419957091571E772301F1A0915E03A9
:1036E000A1117BC0B1E0D091581ED1111CC0DF9157
:1036F000CF910895E091AD04F091AE0420819091B6
:10370000AC04292311F35091571E552339F06091D1
:103710005E03662339F3DF91CF910895B0E0D09135
:10372000581EDD2321F340915F03509160036091A7
:10373000610370916203F091F61DF6FDD8CFC09140
:10374000480CD091490CB1116FC0CC53DD4F188299
:10375000E091AD04F091AE0480812091AC0482230D
:1037600009F082C0E091AA04F091AB04308150913D
:10377000A904352349F0C091480CD091490CCC5391
:10378000DD4F6881626068837091A91D772349F0DD
:10379000E091480CF091490CEC53FD4FA081A860DA
:1037A000A083C091480CD091490C0F94305BCC0F92
:1037B000DD1FCC0FDD1FC65BD34F688379838A83FF
:1037C0009B833CC0C091AD04D091AE043881409140
:1037D000AC04342309F079CF96CF20915F03309168
:1037E00060034091610350916203B091F61DB6FDF4
:1037F0007ECFE091480CF091490CEE0FFF1FEE0FC9
:10380000FF1FE65BF34F2083318342835383809114
:10381000480C9091490C8E379105B8F0D091F61D67
:10382000D064D093F61D63CFCC0FDD1FCC0FDD1F0E
:10383000C65BD34F488359836A837B834091480C8E
:103840005091490C4E37510548F7A091480CB09162
:10385000490C1196B093490CA093480CF091F61DB9
:10386000FF7BF093F61D43CFC091480CD091490CDB
:10387000CC53DD4F98819160988374CF833023E0DF
:10388000920709F4F7C258F1813123E0920709F455
:10389000D9C208F060C08A3023E0920709F4DEC282
:1038A00008F0E8C0863023E0920709F461C208F40A
:1038B0004BC2883023E0920709F4B7C108F4F5C37E
:1038C00050911D1E51FF06C060911E0674E06727CF
:1038D00060931E06A0911E06A2FFD9C108958C30E8
:1038E00022E0920709F4D6C2D8F4853022E092078C
:1038F00009F4E0C208F0D2C0813022E0920709F456
:103900006BC208F4D5C1833022E0920709F46DC17F
:1039100008F4A7C350911D1E51FFE0CF0D94D405AC
:10392000833122E0920709F49FC208F46BC087310B
:1039300022E0920709F43DC308F0F5C0853122E08A
:10394000920709F41CC108F4ECC270911D1E71FFAE
:10395000C5CF0D942203883123E0920709F4B6C243
:1039600008F46EC0833029E9920709F44BC208F0CD
:10397000AFC0813029E9920709F417C108F035C3B7
:103980008115994909F0C1C3F8948091EB0887FD2E
:103990008C5F18160CF09FC3082E000C990BFC01CD
:1039A000EE0FFF1FEE0FFF1FE552F74F2081318111
:1039B00042815381880F991F880F991FFC01E9529A
:1039C000F74F80819181A281B381281B390B4A0B6B
:1039D0005B0B7894211531054105510509F47ECF23
:1039E00060E077E883E993E00F94A2953093300C80
:1039F00020932F0C0F941654A091451EA860A093FD
:103A0000451E08958F3022E0920709F4EBC108F4B7
:103A10005EC1813122E0920709F49FC008F43FC3E0
:103A200070911D1E71FF06C0A0911F0690E2A9278C
:103A3000A0931F06B0911F06B5FD50CF0D94BA0D8F
:103A4000843123E0920709F4A8C208F46EC18631DC
:103A500023E0920709F48DC008F447C230911D1E7F
:103A600031FF3CCF0E942EF440911E064F774093C9
:103A70001E0608958D3023E0920709F49BC108F4D7
:103A80003BC18F3023E0920709F4BFC008F498C10E
:103A900090911D1E91FF22CF0C9423F9883022E0D3
:103AA000920709F432C208F4F4C08A3022E0920787
:103AB00009F475C008F489C290911D1E91FF0ECFC4
:103AC0000F941C0EA0911F06A77FA0931F060895B8
:103AD000853029E9920709F4B4C008F42EC2863073
:103AE000994909F011C32091631E3091641E21157C
:103AF000310509F4F3CEA0E1B7E20F94FD952091D2
:103B0000AA1D3091AB1D50E040E00F94A295309378
:103B10003D0C20933C0C0F9416549091451E9860D8
:103B20009093451E0895813023E0920709F4A9C0BF
:103B300008F0A3C28831924009F0E5C2F0911D1E41
:103B4000F1FF05C080911F06805880931F062091C9
:103B50001F0627FDC3CE0D94590DE0911D1EE1FFF8
:103B6000BDCE0F94BA0DF0911F06FF7DF0931F0696
:103B7000089550911D1E51FFB1CE0C941BF5A091DC
:103B80001D1EA1FF06C0B0911F0690E4B927B09397
:103B90001F06E0911F06E6FDA1CE0D94890DB091A0
:103BA0001D1EB1FF9BCE0D9451032091631E3091D9
:103BB000641E2115310509F491CEA0E1B7E20F94FE
:103BC000FD952091AA1D3091AB1D50E040E00F946F
:103BD000A2953093330C2093320C0F941654E0913D
:103BE000451EE860E093451E089560911D1E61FF2B
:103BF00006C070911F0691E0792770931F06A0916F
:103C00001F06A0FD6BCE0D94BE0EF0911D1EF1FFA0
:103C100006C080911E0620E1822780931E06309107
:103C20001E0634FD5BCE0C9439FAB0911D1EB1FF17
:103C300055CE0E946AF6E0911E06EB7FE0931E06C9
:103C400008952091631E3091641E2115310509F4F9
:103C500045CEA0E1B7E20F94FD952091AA1D3091C9
:103C6000AB1D50E040E00F94A29530933B0C2093A5
:103C70003A0C0F9416542091451E28602093451E3F
:103C8000089550911D1E51FF29CE0C946CFB0C948D
:103C90006AF6863022E0920709F46FC187309240BD
:103CA00009F035C2E0911D1EE1FF18CE0D94850488
:103CB000811521E0920709F4B8C18130914009F0E3
:103CC00025C280911D1E826080931D1E08958D3037
:103CD00022E0920709F4DDC18E30924009F011C252
:103CE00030911D1E31FFFACD0F94EB0D40911F0650
:103CF0004F7E40931F0608958B3023E0920709F40E
:103D00004DC08C30934009F003C230911D1E31FF2D
:103D100006C040911E0658E0452740931E0660915C
:103D20001E0663FDDBCD0C9468F4823123E092071C
:103D300009F4C1C18331934009F0E4C160911D1EB3
:103D400061FFCCCD0C941EF7843023E0920701F183
:103D50008530934009F0D4C180911D1E81FFBECDF6
:103D60000E946FF820911E062D7F20931E06089555
:103D700090911D1E91FF06C0F0911E0682E0F8276B
:103D8000F0931E0620911E0621FDA8CD0C946FF81D
:103D900030911D1E31FFA2CD0C9467F970911D1E4C
:103DA00071FF9CCD0E9468F4A0911E06A77FA0938E
:103DB0001E06089540911D1E41FF90CD0C9428FBD6
:103DC000B0911D1EB1FF8ACD0E9439FAE0911E0606
:103DD000EF7EE0931E060895B0911D1EB1FF7ECDCB
:103DE0000D94230780911D1E81FF06C020911F06A0
:103DF00030E1232720931F0640911F0644FD6ECD1E
:103E00000D94EB0D2091631E3091641E2115310538
:103E100009F464CDA0E1B7E20F94FD952091AA1DAD
:103E20003091AB1D50E040E00F94A2953093370CD9
:103E30002093360C0F9416543091451E3860309301
:103E4000451E089570911D1E71FF48CD0E9434F8E3
:103E500080911E068F7D80931E06089550911D1E31
:103E600051FF3CCD0C945EF5A0911D1EA1FF36CDF7
:103E70000D945504A0911D1EA1FF06C0B0911E0611
:103E8000E1E0BE27B0931E0690911E0690FD26CD60
:103E90000C9474FAB0911D1EB1FF06C0E0911F068C
:103EA00098E0E927E0931F06F0911F06F3FD16CD79
:103EB0000D941C0E80911D1E81FF10CD0F94880E55
:103EC00020911F062D7F20931F06089540911D1EEF
:103ED00041FF05C050911E06505850931E06609138
:103EE0001E0667FDFBCC0C942EF490911D1E91FFD5
:103EF00006C0F0911E0680E4F827F0931E0620917C
:103F00001E0626FDEBCC0C942FF6E0911D1EE1FF62
:103F1000E5CC0F94520EF0911F06FB7FF0931F0625
:103F2000089550911D1E51FFD9CC0F94890D6091B9
:103F30001F066F7B60931F0608952091631E3091CA
:103F4000641E2115310509F4C9CCA0E1B7E20F9434
:103F5000FD952091AA1D3091AB1D50E040E00F94DB
:103F6000A2953093390C2093380C0F941654F0918D
:103F7000451EF860F093451E0895F0911D1EF1FF57
:103F800006C080911F0622E0822780931F06309191
:103F90001F0631FDA3CC0D94880E60911D1E61FF9C
:103FA0009DCC0E942FF670911E067F7B70931E069B
:103FB000089560911D1E61FF91CC0F94590D709171
:103FC0001F067F7770931F06089540911D1E41FFC5
:103FD00006C050911F0664E0562750931F0670914B
:103FE0001F0672FD7BCC0D94520E2091631E309102
:103FF000641E2115310509F471CCA0E1B7E20F94DC
:10400000FD952091AA1D3091AB1D50E040E00F942A
:10401000A2953093350C2093340C0F941654B09124
:10402000451EB860B093451E089520911D1E2D7F3A
:1040300020931D1E0E9474FA0E946FF80E946AF677
:104040000E9468F40E9439FA0F94BE0E0F94880EF5
:104050000F94520E0F941C0E10921F0610921E0603
:10406000089530911D1E31FF39CC0F94BE0E409142
:104070001F064E7F40931F06089530911D1E31FF8D
:104080002DCC0E9474FA40911E064E7F40931E066E
:10409000089550911D1E51FF21CC0D94F30660919F
:1040A0001D1E61FF1BCC0D94A40540911D1E41FFF8
:1040B00015CC0C9462F770911D1E71FF06C0A09183
:1040C0001E06B0E2AB27A0931E06E0911E06E5FD9A
:1040D00005CC0C9434F82091DB083091DC08409139
:1040E000DD085091DE088091E7089091E808A091E2
:1040F000E908B091EA08281B390B4A0B5B0B69CC25
:1041000008950895089508950895089508950895C7
:104110000895CF93DF9300D01F92CDB7DEB7982FCD
:104120008F3010F00F949F96E82FF0E08827E45628
:10413000FF4D8F4F0D942896BE20C020C620CD2065
:10414000E720ED20F520062123215D2164216B214C
:104150007321AB20B7206038710508F4E9C080E016
:104160000F900F900F900F90DF91CF9108956032D4
:1041700081E07807A0F782E996E115C0892FF0CF9A
:104180006038710560F788EC9BE035C0603221E053
:10419000720728F787E69AE106C0603231E07307BC
:1041A000F0F689ED97E16F3F710509F008F4EEC074
:1041B0006031F1E07F0708F013C1895F9E4F7727D8
:1041C000660F771F680F791F7A836983A8C06038EC
:1041D000710528F680E39CE10EC0603281E078072B
:1041E00008F0BDCF8BE495E1DECF6038710508F0B3
:1041F000B6CF83EA9EE1680F791FFB0180810F90A3
:104200000F900F900F90DF91CF9108956035710559
:1042100008F491C0603A710508F49BC0603F7105D5
:1042200008F09DCF605A710984EE94E1262F603426
:10423000710508F4A2C06834710508F0D6C0895B26
:104240009F4F205432C06033710508F47AC0603645
:10425000710508F483C06039710508F4A9C0603C99
:10426000710508F4D1C0603F710508F4D2C0603216
:10427000E1E07E0708F4D2C06035F1E07F0708F482
:10428000D2C0603821E0720708F069CF60557140F4
:1042900080E391E1262F6432710508F47BC06A3215
:1042A000710508F08AC08B96245230E0220F331F2C
:1042B000820F931F9A83898332C0603C710508F096
:1042C0004ECF88E09BE097CF603C710508F047CF68
:1042D00089EE9CE190CF603231E0730708F03FCF68
:1042E00080E299E160CF6035710540F1603A710577
:1042F00058F1683B710508F032CF605A710960319E
:10430000710588F16431710508F073C06051862F22
:1043100090E0880F991F805E9E4E9A838983AFE656
:10432000B2E0BC83AB83CE0101960E94491518CF41
:1043300088E89AE060CF8DE794E178CF88E493E154
:1043400075CF85E093E1A6CF605571098FEA93E1BF
:104350006DCF6055710986E194E168CF60537109B2
:1043600082EC92E197CFE62FE370EA5FEE0FE61B57
:10437000F0E0E75FFE4E8781F3CE2770245E220FC8
:10438000261B820F911DFC018781EACE262F2F70FC
:104390002858F5CF2BEA629F412D1124469546956A
:1043A000342F330F430F440F262F241B215FE7CFF9
:1043B000605671098FE792E16DCF8F5B9F4F2A5254
:1043C00030E0220F331F821B930B9A83898367E7A8
:1043D00072E07C836B83CE0101960E944915C0CEAA
:1043E0008B5B9E4F6051262FEBCF8B599F4F2854EC
:1043F000E7CF6451862F90E0880F991F91958195A2
:104400009109825D9E4EE1CF605971098CE392E182
:1044100041CF605C710989EF91E13CCF605F710928
:1044200086EB91E137CF6052714083E791E132CF63
:104430008F3010F00F949F96E82FF0E08827EC5D06
:10444000FD4D8F4F0D942896752285228C22942243
:104450009C22A322AB22B2223322DF22E622F122C7
:10446000112376227D226033710508F412C1603673
:10447000710508F41BC16039710508F44FC1603C37
:10448000710508F492C1603F710508F493C1603270
:1044900081E0780708F493C16035E1E07E0708F415
:1044A00093C16038F1E07F0700F560557140A0E3EB
:1044B000B1E1862F6432710508F41CC16A327105BE
:1044C00008F031C18452E82FF0E0EE0FFF1FEA0F31
:1044D000FB1F34E6439FC001112494A783A78FEFED
:1044E0009FE713969C938E931297089560387105F9
:1044F00008F0C7C088E89AE06FC06032E1E07E074C
:1045000008F0BEC0A2E9B6E173C06038710508F0DA
:10451000B6C088EC9BE060C0603281E0780708F0AC
:10452000ADC0A7E6BAE164C06032E1E07E0708F002
:10453000A4C0A9EDB7E15CC06038710508F09CC06B
:1045400080E39CE149C06032F1E07F0708F093C04E
:10455000ABE4B5E14DC06038710508F08BC083EA6B
:104560009EE13AC06035710508F490C0603A71056B
:1045700008F497C0603F710508F0B7CF605A710921
:10458000E4EEF4E1862F6034710508F49EC06834CF
:10459000710508F0E9C08054A82FB0E0AA0FBB1F36
:1045A000AE0FBF1FA95BBF4F54E6459F900111247A
:1045B0002D933C934FEF5FE7538342830895603C14
:1045C000710508F05FC088E09BE006C0603C7105A3
:1045D00008F04FC089EE9CE1680F791FFB01408312
:1045E0000895603281E0780708F042C0A0E2B9E1A6
:1045F0006F3F710509F008F473C06031E1E07E0798
:1046000008F0A1C0FB01FF27EE0FFF1FEA0FFB1F01
:10461000E95FFE4F74E6479FB00111247183608308
:104620005ECF6035710578F1603A7105A8F1683B9D
:10463000710508F05ACF605A710960317105D8F1DF
:104640006431710508F0A0C06051E62FF0E0EE0F74
:10465000FF1FE05EFE4E24E6429FA001112451831D
:1046600040836FEF7FE770930C1160930B110895F7
:104670000895089508950895089508950895089552
:10468000089508950895E8E4F3E17CCFEDE7F4E1BF
:1046900079CFA5E0B3E10DCF60557109EFEAF3E101
:1046A00071CF60557109E6E1F4E16CCF6053710997
:1046B000A2ECB2E1FECEE62FE370EA5FEE0FE61B5E
:1046C000F0E0E75FFE4E4783CCCFA62FA770A45E35
:1046D000AA0FA61BAE0FBF2FB11D17964C936ACF22
:1046E000E62FEF70E858EE0FE61BEA0FFB2FF11DE7
:1046F0004783F5CE8BEA689F812D11248695869598
:10470000982F990F890F880FE62FE81BE15FEE0FB6
:10471000E61BEA0FFB2FF11D4783E1CE60567109BE
:10472000AFE7B2E1C6CE8A5290E0880F991FFD0133
:10473000E81BF90BEF5BFF4F842F90E0880F991F68
:1047400091838083CCCE6051862F90E0880F991F93
:10475000FD01E81BF90BEB5BFE4F842F90E0880F07
:10476000991F91838083BBCE885490E0880F991F56
:10477000DF01A81BB90BAB59BF4F842F90E0880F06
:10478000991F8D939C9316CF6451E62FF0E0EE0FA6
:10479000FF1FF195E195F109E25DFE4E842F90E057
:1047A000880F991F918380835CCF60597109ACE3B6
:1047B000B2E17FCE605C7109A9EFB1E17ACE605FB2
:1047C0007109A6EBB1E175CE60527140A3E7B1E18A
:1047D00070CECF92DF92EF92FF921F93CF93DF9331
:1047E0007B0140914B0E50914C0E60914D0E70919B
:1047F0004E0E411551056105710511F410920B1E05
:104800004F5F5F4F6F4F7F4F40934B0E50934C0E57
:1048100060934D0E70934E0E2091A91D5091F71D7F
:10482000C090F71D30E0319521953109252720787A
:1048300033272C252093F71D1092BF07E114F104B4
:10484000A1F06C0110E090E080E0D0E0C0E08C0DC1
:104850009D1D0F94B937C154D84F89831F5FC12F55
:10486000D0E0CE01CE15DF0590F38091451E877F05
:104870008093451EDF91CF911F91FF90EF90DF90C5
:10488000CF9008952F923F924F925F926F927F92B6
:104890008F929F92AF92BF92CF92DF92EF92FF9250
:1048A0000F931F93CF93DF93CDB7DEB7AA970FB6C1
:1048B000F894DEBF0FBECDBF3C016AA3633009F49C
:1048C00051C708F437C72AA1243009F427C225307C
:1048D00009F05EC79C012B5B3E4F1C0157EF250E74
:1048E000311C099798A78FA3F1E080E190E0A0EF39
:1048F000BFEFBCA3ABA347E752E05EA34DA34FA01D
:1049000058A44214530409F425C2B9016E5F7F4FC5
:104910007AA769A72101480E591E30E020E001E086
:10492000AAE08A2E912CA12CB12C11E0DB015E9122
:104930004E91BAA7A9A7EF2FEF712115310509F400
:1049400088C5DA010F9430966C01FF24D7FCF094EF
:10495000EF2CC601F6FF0EC08F2FFF0F990B880FAB
:10496000892F881F990B48275927481B590BCA01C3
:104970008C0D9D1D02C095958795EA95E2F797FDF0
:104980000196D82EB3E6E0E6FFE0B81708F092C132
:104990002D2D30E050E040E019A2CE0181966C014F
:1049A000CA01B901A50194010F94A295605DD601D9
:1049B0006E936D01211531054105510589F7109759
:1049C00009F43EC0FD0101900020E9F79F01FD01BF
:1049D000215031092E173F0799F1F1900093040FF0
:1049E0007091070F4091080FA091FC0EB091FD0E41
:1049F000741709F40CC34091070F50E04F5F5F4FED
:104A00004F735527942F03C00FB607FE9FC25091D6
:104A1000080F9517C9F3A091070FB0E0A75BB04F3F
:104A2000FC92DFB6F8944093070FA091FE0EB09170
:104A3000FF0E8C9180628C93DFBE2E173F0769F6C4
:104A4000E2E6FFE0F490FF2099F10093040F30912B
:104A5000070F2091080FA091FC0EB091FD0E3217A8
:104A600009F41AC32091070F30E02F5F3F4F2F73D7
:104A70003327E22E03C00FB607FEDDC28091080F78
:104A8000E816C9F3A091070FB0E0A75BB04FFC9206
:104A9000CFB6F8942093070FA091FE0EB091FF0EB1
:104AA0007C9170627C93CFBE3196F490F110CDCFA3
:104AB00061014214530409F49BC0D6012D916D018C
:104AC000E0E6FFE0243608F410C330E050E040E0B8
:104AD00019A2CE0181967C01CA01B901A5019401F8
:104AE0000F94A295605DD7016E937D01211531056C
:104AF0004105510589F7109709F43EC0FD01019069
:104B00000020E9F7AF01FD01415051094E175F0741
:104B100099F1F1901093040F2091070F3091080F35
:104B2000A091FC0EB091FD0E231709F473C32091E0
:104B3000070F30E02F5F3F4F2F733327622F03C0E3
:104B40000FB607FE06C39091080F6917C9F3A0912D
:104B5000070FB0E0A75BB04FFC92EFB6F89420933C
:104B6000070FA091FE0EB091FF0E8C9180628C9386
:104B7000EFBE4E175F0769F6E2E6FFE0449144237B
:104B800099F11093040F5091070FF090080FA09126
:104B9000FC0EB091FD0E5F1509F481C32091070F43
:104BA00030E02F5F3F4F2F733327922F03C00FB694
:104BB00007FE44C37091080F9717C9F3A091070F20
:104BC000B0E0A75BB04F4C93EFB6F8942093070F7B
:104BD000A091FE0EB091FF0E8C9180628C93EFBE7F
:104BE000319644914111CDCF4C145D0409F065CF4D
:104BF000ADE8B2E0DD900093040F9091070FE090D4
:104C0000080FE091FC0EF091FD0E9E1509F48DC386
:104C10002091070F30E02F5F3F4F2F733327322F44
:104C200003C00FB607FE50C36091080F3617C9F3D3
:104C3000E091070FF0E0E75BF04FD0825FB7F894A8
:104C40002093070FE091FE0EF091FF0E70817062CD
:104C500070835FBF6FE872E06A177B0759F6EBA0BD
:104C6000FCA02E0C3F1C4E0C5F1C4FA158A54215FA
:104C7000530509F46FC0ADA1BEA11396FC91139723
:104C800011962D913C91A9A5BAA551CEFC90F5FEA7
:104C900021C0EFB6F894A091020FB091030FCC920F
:104CA000A091FC0EB091FD0E3C91337030643C93AA
:104CB000EFBE3196C490CC2009F4EEC30093040FEC
:104CC0009091070FE090080FA091FC0EB091FD0E9F
:104CD0009E15E1F22091070F30E02F5F3F4F2F73B9
:104CE0003327322F03C00FB607FE60C15091080F63
:104CF0003517C9F3A091070FB0E0A75BB04FCC9276
:104D00007FB7F8942093070FA091FE0EB091FF0E8D
:104D10002C9120622C937FBF3196CCCF9C012B59D4
:104D20003F4F1C015FE3250E311CFC013197F8A7B2
:104D3000EFA3F0E088E090E008EF1FEF1CA30BA3C7
:104D400063E772E07EA36DA34FA058A442145304FE
:104D500009F0DBCD04E61FE008C08CEE9EE00F9466
:104D60007E3B0F5F1F4F892B21F0F8016491611189
:104D7000F4CFBAA1B53008F0D1C4B33008F0BEC446
:104D8000B23009F0C3C473018FE1E80EF11C97E162
:104D9000690E711C6E147F0409F4B3C011E02AE09F
:104DA000822E912CA12CB12CF301A191B1913F0144
:104DB0002CEE31E50F9438969C0135952795359565
:104DC0002795359527953595279535952795022F64
:104DD00037FD0395E0E6FFE0043608F489C3202F91
:104DE00030E050E040E019A2CE0181961C01CA01DA
:104DF000B901A50194010F94A295605DD1016E9354
:104E00001D01211531054105510589F71097E9F17B
:104E1000FD0101900020E9F7AF01415051094A1707
:104E20005B0799F13D901093040F5090070FD090BD
:104E3000080FE091FC0EF091FD0E5D1409F4EDC336
:104E40002091070F30E02F5F3F4F2F733327322F12
:104E500003C00FB607FE80C36091080F3617C9F371
:104E6000E091070FF0E0E75BF04F30824FB6F89427
:104E70002093070FE091FE0EF091FF0E208120623B
:104E800020834FBE4A175B0769F6E2E6FFE04491D4
:104E9000442399F11093040F5091070F3090080F9D
:104EA000A091FC0EB091FD0E531509F4FBC32091A7
:104EB000070F30E02F5F3F4F2F733327D22E03C0F1
:104EC0000FB607FEBEC36091080FD616C9F3A091B6
:104ED000070FB0E0A75BB04F4C934FB6F894209308
:104EE000070FA091FE0EB091FF0E2C9120622C9323
:104EF0004FBE319644914111CDCFE614F70409F02D
:104F000053CF6DE08CEE9EE00F947E3B892B09F42D
:104F100056C46AE08CEE9EE0AA960FB6F894DEBF07
:104F20000FBECDBFDF91CF911F910F91FF90EF90FA
:104F3000DF90CF90BF90AF909F908F907F906F90B9
:104F40005F904F903F902F900D947E3BEC90E5FE4C
:104F50005ECDA091080FB0E0A75BB04FCC90A091C0
:104F6000080FB0E01196AF73BB27A093080FA09174
:104F7000020FB091030FCC92A091FC0EB091FD0EE8
:104F80007C91737070647C93B091070F6091080FEF
:104F9000B61307C0A091FE0EB091FF0E5C915F7D2D
:104FA0005C93A091FC0EB091FD0E31CD8C9185FFEC
:104FB0009DCEA091080FB0E0A75BB04F4C916091DF
:104FC000080F70E06F5F7F4F6F7377276093080F54
:104FD000A091020FB091030F4C93A091FC0EB091E1
:104FE000FD0E6C91637060646C93B091070F9091AB
:104FF000080FB91307C0A091FE0EB091FF0E5C918F
:105000005F7D5C93A091FC0EB091FD0E6FCE6C9114
:1050100065FFF1CC4FB7F894A091020FB091030F48
:10502000FC92A091FC0EB091FD0E9C919370906447
:105030009C934FBFCFCC6C9165FF20CDA091080F02
:10504000B0E0A75BB04F5C916091080F70E06F5FBC
:105050007F4F6F7377276093080FA091020FB09175
:10506000030F5C93A091FC0EB091FD0E4C91437028
:1050700040644C93B091070F9091080FB91307C08B
:10508000A091FE0EB091FF0E3C913F7D3C93A0910C
:10509000FC0EB091FD0EF2CCDC90D5FEE3CC2FB728
:1050A000F894A091020FB091030FFC92A091FC0E16
:1050B000B091FD0E8C91837080648C932FBF3196DC
:1050C000F4CC6C9165FF21C05FB7F894A091020FFA
:1050D000B091030FFC92A091FC0EB091FD0E3C919B
:1050E000337030643C935FBF3196F490FF2009F435
:1050F00030C11093040FE090070F7091080FA0913A
:10510000FC0EB091FD0EE716E1F24091070F50E062
:105110004F5F5F4F4F735527542F03C00FB607FEE5
:1051200048C09091080F5917C9F3A091070FB0E03C
:10513000A75BB04FFC923FB7F8944093070FA09144
:10514000FE0EB091FF0E4C9140624C933FBF3196E2
:10515000CCCF3C9135FFF7CCA091080FB0E0A75B16
:10516000B04F7C91A091080FB0E01196AF73BB27B0
:10517000A093080FA091020FB091030F7C93A09110
:10518000FC0EB091FD0E9C91937090649C93B09135
:10519000070FE090080FBE1107C0A091FE0EB0915E
:1051A000FF0E8C918F7D8C93A091FC0EB091FD0E23
:1051B000CACC8C9185FFB5CFA091080FB0E0A75B5A
:1051C000B04FEC906091080F70E06F5F7F4F6F738E
:1051D00077276093080FA091020FB091030FEC9214
:1051E000A091FC0EB091FD0E7C91737070647C9365
:1051F000B091070F6091080FB61307C0A091FE0E83
:10520000B091FF0E9C919F7D9C93A091FC0EB0915C
:10521000FD0E87CF7C9175FF8ACC2FB7F894A091B3
:10522000020FB091030FFC92A091FC0EB091FD0E05
:105230006C91637060646C932FBF68CC6C9165FF58
:10524000B9CCA091080FB0E0A75BB04F5C91609122
:10525000080F70E06F5F7F4F6F7377276093080FC1
:10526000A091020FB091030F5C93A091FC0EB0913E
:10527000FD0E3C91337030643C93B091070FF09079
:10528000080FBF1107C0A091FE0EB091FF0E7C91D8
:105290007F7D7C93A091FC0EB091FD0E8BCC3C9158
:1052A00035FF7CCC2FB7F894A091020FB091030F7B
:1052B0004C93A091FC0EB091FD0E4C914370406454
:1052C0004C932FBF31968DCCF080F5FEADCCE091A4
:1052D000080FF0E0E75BF04F40816091080F70E04D
:1052E0006F5F7F4F6F7377276093080FE091020F16
:1052F000F091030F4083E091FC0EF091FD0E908140
:10530000937090649083F091070FC090080FFC1188
:1053100007C0E091FE0EF091FF0E80818F7D8083AB
:10532000E091FC0EF091FD0E7FCC808185FF70CC6A
:105330002FB7F894E091020FF091030FD082E09123
:10534000FC0EF091FD0E30813370306430832FBF3E
:1053500081CCEEE5FFE02A3008F0B7CBF490FF20D7
:1053600009F4B3CB1093040F4091070F8091080FFD
:10537000A091FC0EB091FD0E481709F455C0409164
:10538000070F50E04F5F5F4F4F735527942F03C0B7
:105390000FB607FE18C07091080F9717C9F3A091B8
:1053A000070FB0E0A75BB04FFC926FB7F894409343
:1053B000070FA091FE0EB091FF0E5C9150625C93BE
:1053C0006FBF3196CBCF3C9135FFE5CFA091080F51
:1053D000B0E0A75BB04F8C916091080F70E06F5FF9
:1053E0007F4F6F7377276093080FA091020FB091E2
:1053F000030F8C93A091FC0EB091FD0E7C91737005
:1054000070647C93B091070FE090080FBE1107C045
:10541000A091FE0EB091FF0E6C916F7D6C93A091E8
:10542000FC0EB091FD0EB7CFEC90E5FEA8CF4FB7C4
:10543000F894A091020FB091030FFC92A091FC0E82
:10544000B091FD0E9C91937090649C934FBF3196E8
:1054500085CF2F2FFF0F330B220F232F221F330B4C
:105460008FEF9FEF0E2E02C0880F991F0A94E2F76C
:1054700080959095BA01770F660B762F8623972338
:10548000840F951F02C095958795EA95E2F78227CC
:105490009327821B930B75CAF9E0FD1508F478CAAF
:1054A0003EE5E32E3FE0F32E0AC08CEE9EE00F9423
:1054B0007E3BFFEFEF1AFF0A892B09F469CAF70157
:1054C00064916111F2CF64CA5C9155FF21C02FB77E
:1054D000F894A091020FB091030F3C92A091FC0EA2
:1054E000B091FD0E9C91937090649C932FBF319668
:1054F0003490332009F4EBC01093040F5090070F41
:10550000D090080FA091FC0EB091FD0E5D14E1F259
:105510002091070F30E02F5F3F4F2F733327922FDB
:1055200003C00FB607FE48C07091080F9717C9F364
:10553000A091070FB0E0A75BB04F3C92CFB6F894B4
:105540002093070FA091FE0EB091FF0E8C91806208
:105550008C93CFBE3196CCCF908195FF7DCCE091DE
:10556000080FF0E0E75BF04F0081E091080FF0E0FA
:105570003196EF73FF27E093080FE091020FF0914F
:10558000030F0083E091FC0EF091FD0E808183708B
:1055900080648083F091070FC090080FFC1107C052
:1055A000E091FE0EF091FF0E70817F7D7083E0919F
:1055B000FC0EF091FD0E50CC3C9135FFB5CFA09183
:1055C000080FB0E0A75BB04F2C906091080F70E01F
:1055D0006F5F7F4F6F7377276093080FA091020F63
:1055E000B091030F2C92A091FC0EB091FD0E6C9126
:1055F000637060646C934090070F4091080F4412F1
:1056000007C0A091FE0EB091FF0E5C915F7D5C9390
:10561000A091FC0EB091FD0E87CF708175FF10CC6C
:105620002FB6F894E091020FF091030F3082E091D1
:10563000FC0EF091FD0E30813370306430832FBE4C
:10564000EECB9C9195FF3FCCA091080FB0E0A75BFB
:10565000B04F0C916091080F70E06F5F7F4F6F73D8
:1056600077276093080FA091020FB091030F0C935E
:10567000A091FC0EB091FD0E8C91837080648C9390
:10568000B091070FC090080FBC1107C0A091FE0E8B
:10569000B091FF0E7C917F7D7C93A091FC0EB09128
:1056A000FD0E11CC5C9055FE02CC2FB6F894A09163
:1056B000020FB091030F4C93A091FC0EB091FD0E20
:1056C0003C91337030643C932FBE319613CC0A303A
:1056D00008F085CB8EE5C82E8FE0D82E0AC08CEE60
:1056E0009EE00F947E3BFFEFCF1ADF0A892B09F46F
:1056F00076CBF60164916111F2CF71CB7301A7E50E
:10570000EA0EF11CB7E46B0E711C44CB730147E346
:10571000E40EF11C5BE2650E711C3CCBB530B1F7B9
:105720007301E9EDEE1AEEEFFE0AF9EF6F1AFEEFE4
:105730007F0A30CB623061F59C012B5D3F4F1C012D
:1057400053E1250E311C039698A78FA3F1E084E066
:1057500090E0ACEFBFEFBCA3ABA347E752E05EA382
:105760004DA3CDC89C012B593F4F1C015FE3250E73
:10577000311C019798A78FA3F1E088E090E0A8EF93
:10578000BFEFBCA3ABA347E752E05EA34DA3B7C8EE
:1057900093012F5B3F4F130145E2240E311CF301AF
:1057A0003196F8A7EFA3F1E086E090E00AEF1FEF53
:1057B0001CA30BA367E772E07EA36DA3A0C8AA9603
:1057C0000FB6F894DEBF0FBECDBFDF91CF911F9112
:1057D0000F91FF90EF90DF90CF90BF90AF909F9090
:1057E0008F907F906F905F904F903F902F90089593
:1057F0006F927F928F929F92AF92BF92CF92DF92E1
:10580000EF92FF921F93CF93DF93CDB7DEB7A197AF
:105810000FB6F894DEBF0FBECDBF3B0186179707CA
:1058200009F49BC07C018AE0882E912CA12CB12C1C
:1058300011E0F70121917F0130E050E040E019A232
:10584000CE0181966C01CA01B901A50194010F94A2
:10585000A295605DF60162936F0121153105410546
:10586000510589F73097E9F101900020E9F7AF0180
:10587000F601415051094E175F0799F1919110932C
:10588000040F2091070FD090080FA091FC0EB0914B
:10589000FD0E2D1509F4DDC02091070F30E02F5FBC
:1058A0003F4F2F733327822F03C00FB607FEA0C0D0
:1058B0006091080F8617C9F3A091070FB0E0A75BAE
:1058C000B04F9C937FB7F8942093070FA091FE0EE2
:1058D000B091FF0E9C9190629C937FBF4E175F0723
:1058E00069F6ECE5FFE04491442399F11093040F2D
:1058F0005091070F9091080FA091FC0EB091FD0EF2
:10590000591709F4EBC02091070F30E02F5F3F4F8C
:105910002F733327D22E03C00FB607FEAEC03091CF
:10592000080FD316C9F3A091070FB0E0A75BB04FE3
:105930004C936FB7F8942093070FA091FE0EB0918F
:10594000FF0E7C9170627C936FBF31964491411140
:10595000CDCF6E147F0409F06CCFADE8B2E051E01A
:105960007D905093040F8090070F9090080FE09166
:10597000FC0EF091FD0E891409F4F6C02091070F7A
:1059800030E02F5F3F4F2F733327B22E03C00FB687
:1059900007FEB9C0F090080FBF14C9F3E091070FDC
:1059A000F0E0E75BF04F7082DFB6F8942093070FCA
:1059B000E091FE0EF091FF0E608160626083DFBEB9
:1059C000F2E0AF38BF0761F6A1960FB6F894DEBFDC
:1059D0000FBECDBFDF91CF911F91FF90EF90DF9071
:1059E000CF90BF90AF909F908F907F906F900895D1
:1059F000CC90C5FE5DCFA091080FB0E0A75BB04F83
:105A0000DC906091080F70E06F5F7F4F6F737727B6
:105A10006093080FA091020FB091030FDC92A09148
:105A2000FC0EB091FD0E3C91337030643C93B0910C
:105A3000070F6091080FB61307C0A091FE0EB0913A
:105A4000FF0E7C917F7D7C93A091FC0EB091FD0EAA
:105A50002FCF3C9135FF20CF2FB7F894A091020FA4
:105A6000B091030F9C93A091FC0EB091FD0E8C9110
:105A7000837080648C932FBFFECE8C9185FF4FCFB7
:105A8000A091080FB0E0A75BB04F5C916091080F48
:105A900070E06F5F7F4F6F7377276093080FA0915F
:105AA000020FB091030F5C93A091FC0EB091FD0E1C
:105AB0009C91937090649C93B091070FC090080FD5
:105AC000BC1107C0A091FE0EB091FF0E3C913F7D2E
:105AD0003C93A091FC0EB091FD0E21CFCC90C5FE61
