:100000000C94E7100D9423790D94F8780D94CD7825
:100010000D94A2780D9477780D944C780D942178F6
:100020000D94F6770C9418110C9418110C94181167
:100030000C9418110C9418110C9418110D94485E1E
:100040000C9418110C9470440C9466420C9421FB8F
:100050000C9418110C9418110C9418110D94AC7781
:100060000C9418110D94B67A0D94767A0C9418119C
:100070000C9418110C9418110C9418110C9418115C
:100080000D94D35B0D94585B0D94DD5A0C941811AC
:100090000C9418110C9418110C9418110C9418113C
:1000A0000C9418110C9418110D94FA570D94625A6F
:1000B0000D9460570C9418110C9418110D94C85994
:1000C0000D942E590D9494580C9418110C941811E9
:1000D0000C9418110C9418110D943F7A0D94FF791B
:1000E0000C9418110D94B2130C9404E90D940F653F
:1000F0000D94AD460C9400CB0C940DA80D94A53036
:100100000C942BE90C94D1E90D948A090C9463D0DA
:100110000C9454E80C94AB3F0C94B4A40C94FCE9FC
:100120000D943F1B0D94BD460C94CCBB0D94046AFA
:100130000C94ECE80C94D3E80C94E9E80C946EC9A8
:100140000C9424EA0C949EA20D942F650C940FCE6F
:100150000C94A1450C9418EA0D94336B0C94362939
:100160000D94C3790C94B5E80D94B9460C943AE912
:100170000C94835B0C9429460C9441FD0C94C6634B
:100180000C94D8AE0C9459630D941D650D948F2179
:100190000D948A1B0C94E4970C94F2F00C948B4908
:1001A0000C94EA540C94B5590D94CC6B0C9425E93D
:1001B0000C94EC680C9422980C9482E80C94EC97C4
:1001C0000C94EAA20C94175A0C94F22A0C9498D02E
:1001D0000C9497C50D9405810C946C550C940353A5
:1001E0000C9445650C9437460C9409C60C944864ED
:1001F0000C94A2A10C9451E80C94F3540C949ABD65
:100200000D9453650D943F2F0C9493690D944C11EC
:100210000C944FE90C94EFF40C943CF50C94DB97A0
:100220000C94BB290C9463BA0C942EE90C94222BE9
:100230000D94D1790C94CED00C94312B0C94F5E81C
:100240000D946F790C9438EA0C9491540C94C04539
:100250000D948C2E0D9486650C9448A20C941F93DB
:100260000C947E5C0C9463B20C9409490C9457E88E
:100270000C94ADF00D9405000C9472A70D94F40F3E
:100280000C94932B0C940FEA0C9474FE0C94F8F1DC
:100290000C942CEA0C9476E80D94E3000C94D73B74
:1002A0000D9475790C945BE90C9488E80C94E14901
:1002B0000C94CDBB0C94732B0C9415EA0C940BB1DD
:1002C0000C9484DB0C9477490D94DD790D948A2D80
:1002D0000C94C7E80C94A8E90D94B6260C94F0FF92
:1002E0000C9481BB0C9416940D9419650C94EB58E6
:1002F0000C940CA40C948FEE0D94236B0C94A0E83A
:100300000C9467E80C9481490C943B550D94F031A2
:100310000C94A6A20C94F7F80D94016C0C947E2911
:100320000D944C240C948EBE0D94A81D0C9431E9B0
:100330000C943DE90C943A680C9435EA0C94C1B2E3
:100340000C94DDC70D94222C0C941BEA0C9448E805
:100350000C940B2B0D94A9460C9419980C9461E8FD
:100360000C9433B00C9456FF0C9466650D94573181
:100370000C9489790D94B5460D944A100D948125FD
:100380000C941EEA0D94F82A0C94D0E80C941D45A8
:100390000C947CE80D94F1790C94E4ED0D94B26B1F
:1003A0000D9420290C9401640D94221F0D94A746EE
:1003B0000D948E280C942BF20C945AF10C948EE828
:1003C0000C9476450C944A5B0D94BE690C942DD028
:1003D0000D94401E0D9479790C94BC2B0D947B796F
:1003E0000D945F650C94E5C10D9441650C94303F0C
:1003F0000D9460340C9471940C94EC490D94AB46BC
:100400000D9465650C94D7A60D94F9120C9434E9FB
:100410000D94D9940D94D61B0D94A1460C9485E8A7
:100420000C94BEE80C9428EA0C94B1530C94264921
:100430000C94CEE90C9450940D94DF330D94721FFC
:100440000C94D6630D94AC230D944E000C94F49749
:100450000C944CE90C9469A10D94BB460C9422E9D0
:100460000C9402EA0C94AF630C9497E80C944959ED
:100470000C94DB790C94AFB50C940CEA0C946BF3F0
:100480000C94F1670C9462490C94EA450D945D93C9
:100490000C942F580D94E76B0C9493450C94FB54DB
:1004A0000D943C090C94A3E80C940AE90C946FE5B4
:1004B0000C9445680C94AFE80C9441180C94C22934
:1004C0000C94FFE90C944D590D94F5020C94C1E87D
:1004D0000D944D650C946CE90D9473790C94EFE8D0
:1004E0000D94A3460D94F41D0C9401E90C942F5522
:1004F0000C941BBD0D94C3290C9407680C94FEE862
:100500000C94FE280D9492790D94AD200C94C45750
:100510000C946AE80D94B7920C9497E90C9409CD69
:100520000C9425E30D94BF460C9403D10D940C302C
:100530000C942BF00C94CAE80C9473E80C94296C7E
:100540000C94CC490C94C9290C94155B0C94D64995
:100550000C94FC670D9415650C948BE80C9467451E
:100560000C9417AB0C94305F0C94015B0C94A39526
:100570000C9496AC0C9481B10C94F7680D9487653B
:100580000C9499530D943B650C94C4940C947FE89F
:100590000C94B1490C94F8E80C945AE80C947E55EC
:1005A0000C9421F60D94FC230D9459650C943C2970
:1005B0000D9429650C9485450C949ADE0C9494E86E
:1005C0000D94EB270C9423CC0C94AEBF0C9457499C
:1005D0000D9438940D94766B0D9471320C946D4992
:1005E0000C94F12A0C94CBE90C94E3C40D94A22C46
:1005F0000C9485E90D94562E0C9432950C94F129A7
:100600000C94BBE80C945F550C941FE90C94A969F9
:100610000C9467E90C94B2E80D9445920C9478F729
:100620000C9457C00D94866B0D9459270C943EEA98
:100630000C9450290D94D82C0C94055B0D944133E7
:100640000C94A7A20C94F2E80D941F120C944BE8A2
:100650000C9424CA0D94DA320D94E1100C94A0B0DD
:100660000C9419E90C940AC60C94F9E90C944929E4
:100670000D9435650D94E5790C942BCF0C9412EA0A
:100680000C94F4A90D94B4030C9459680C947EE96D
:100690000C9437E90C9403F70D9423650C9416ED34
:1006A0000C941C290C940E5B0D9441030D948A2B21
:1006B0000C945CF20D94A6640D9489020C94F3E9F9
:1006C0000C9407E90C9438530C94E9A20C94D129AA
:1006D0000C9446E90C94C2C00D947C380D943D39BD
:1006E0000D941A230C944A5A0D94A2370C94F4BA20
:1006F0000D948D0F0C947EB30C94ECF20C94F6EEEA
:100700000C9445C10C9449E90C9464E80C945EE89F
:100710000C946FE90D9477790D94552A0D94C93492
:100720000D94B1460C9455460C9423290C941EB498
:100730000C9408550C9434730C9414A90D945A031A
:100740000C948C160C94E6670D94AE360C9484C30E
:100750000D94061D0C94D6A60D942D660D9414656B
:100760000C941A110C9443290C9406C30C942FEA90
:100770000C94E2780D9471790C94ACE80C94EC48EC
:100780000C9405BE0C9475EF0C9471580C94F6B152
:100790000C9455E90C940E450C94CDE80C946BC761
:1007A0000C947ACD0C949AE80C94EDCD0C94465FA1
:1007B0000C9410E90D94566A0C94B8E80D94136BE0
:1007C0000D94742F0C9458E90C94F3180D94AF46C3
:1007D0000D94B3460C94F8E30C940F5A0C946DE806
:1007E0000C9461E90C9459590C941CE90D946966B8
:1007F0000D94B6940D9440640C9415520C94A7F487
:100800000C9405EA0D94D2020C94CA920C9435E033
:100810000C941ABD0D94EF240C9428E90C94A6E8CE
:100820000C943DAF0C94FEF30C9455C00C9458B846
:100830000C9470E80C943C490D943E1B0D948E1062
:100840000C943C5B0C9432EA0C94FFB60C9496C565
:100850000C9488590C94FCC80C9421EA0D94BF2D7B
:100860000C9456290C943BEA0C94AF2A0D94EC920C
:100870000C941A2B0D94B7460D9424360C944E9379
:100880000C949F5C0C9495CC0C94F9CB0D940E3881
:100890000D941E390C9461AA0C9416E90C94F6E997
:1008A0000C9443E90C9460950C946C2B0C949E6909
:1008B0000C94C6D90C9413E90C9405510C94CBBB41
:1008C0000C944EE80C94C0CC0C94ACA20C945945FA
:1008D0000C9496490C9455A30C946AC70C940DED96
:1008E0000C94382B0D94050F0D9447650C94122B26
:1008F0000C94EAA40D94B61C0C94652B0C94C4E8DB
:100900000C946F120C9425520D9415200C944255A2
:100910000D94A5460C94A9E80C94BCA50C9434291C
:100920000D94B2790C94E95A0C949DE80D94446BA3
:100930000C9465F80C94EB950D94DE8F0C94FA2AC8
:100940000C9442450C94FBE80C9490530D94BA110E
:100950000D94976B0C94B5A30C940DE90C9420B3F3
:100960000C94AE500C9452E90C94AB500C9440E9AA
:100970000C9491E80D9454130D94B8350C94B1AFC8
:100980000C9441D20D9495120D94CE220C94A9533F
:100990000C943DE10C9419BF0D9434370D944A35F5
:1009A0000C94CF630C9406980C941C5A0C94D3931B
:1009B0000C94A0460C945EE90C9456C00C947646B8
:1009C0000C947CC60D94DF210C94292B0D9482226B
:1009D0000D94236C0C94855C0D94BA640C94BAD677
:1009E0000C9454590C9479E80D9461200D942426AC
:1009F0000D946B65526573657420636F6E74726FCE
:100A00006C2069732063757272656E746C792064F2
:100A1000697361626C65642E00436F6D6D7320684D
:100A2000616C7465642E204E6578742062797465FB
:100A30002077696C6C20726573657420746865201A
:100A400041726475696E6F2E000A50616765206897
:100A50006173206E6F74206265656E20696D706CC5
:100A6000656D656E74656420796574000A426F6F08
:100A70007374206C6F6F6B7570207461626C6500AD
:100A80000A326E642049676E6974696F6E204D6129
:100A900070000A326E64204675656C204D617000EE
:100AA0000A50616765203920436667000A547269FD
:100AB0006D2031205461626C65000A565654204DF9
:100AC0006170000A426F6F7374204D6170000A50AC
:100AD00067203620436F6E666967000A41465220E0
:100AE0004D6170000A5067203420436667000A4950
:100AF000676E6974696F6E204D6170000A506720DF
:100B00003220436667000A5645204D6170004572E9
:100B1000723A20556E6B6E6F776E20636D64000ABB
:100B20003D3D3D436F6D6D616E642048656C703D69
:100B30003D3D0A0A416C6C20636F6D6D616E64739C
:100B4000206172652073696E676C652063686172ED
:100B5000616374657220616E642061726520636FE9
:100B60006E636174656E6174656420776974682072
:100B7000746865697220706172616D657465727305
:100B8000200A776974686F75742073706163657388
:100B90002E53796E7461783A20203C636F6D6D61DD
:100BA0006E643E2B3C706172616D65746572313E9E
:100BB0002B3C706172616D65746572323E2B3C70C6
:100BC0006172616D657465724E3E0A0A3D3D3D4C31
:100BD000697374206F6620436F6D6D616E64733D41
:100BE0003D3D0A0A41202D20446973706C61797380
:100BF000203331206279746573206F6620637572CB
:100C000072656E745374617475732076616C75656A
:100C10007320696E2062696E61727920286C697632
:100C2000652064617461290A42202D204275726E2C
:100C30002063757272656E74206D617020616E64E0
:100C400020636F6E666967506167652076616C75B9
:100C5000657320746F20656570726F6D0A43202D77
:100C6000205465737420434F4D20706F72742E2092
:100C700020557365642062792054756E65727374B3
:100C80007564696F20746F2073656520776865747B
:100C900068657220616E20454355206973206F6E30
:100CA000206120676976656E2073657269616C20CA
:100CB0000A20202020706F72742E20526574757285
:100CC0006E7320612062696E617279206E756D624B
:100CD00065722E0A4E202D205072696E74206E654A
:100CE00077206C696E652E0A50202D205365742084
:100CF00063757272656E7420706167652E20205373
:100D0000796E7461783A2020502B3C706167654E93
:100D1000756D6265723E0A52202D2053616D65200B
:100D20006173204120636F6D6D616E640A53202DE5
:100D300020446973706C6179207369676E617475A2
:100D40007265206E756D6265720A51202D205361A7
:100D50006D65206173205320636F6D6D616E640A51
:100D600056202D20446973706C6179206D6170206C
:100D70006F7220636F6E6669675061676520766188
:100D80006C75657320696E2062696E6172790A57AD
:100D9000202D20536574206F6E6520627974652064
:100DA000696E206D6170206F7220636F6E66696777
:100DB000506167652E2020457870656374732062EA
:100DC000696E61727920706172616D6574657273AC
:100DD0002E200A2020202053796E7461783A20203A
:100DE000572B3C6F66667365743E2B3C6E6577626D
:100DF0007974653E0A74202D205365742063616CFC
:100E00006962726174696F6E2076616C7565732EAC
:100E10002020457870656374732062696E61727911
:100E200020706172616D65746572732E202054614B
:100E3000626C6520696E64657820697320656974E9
:100E400068657220302C200A20202020312C206F51
:100E50007220322E202053796E7461783A202074EB
:100E60002B3C74626C655F6964783E2B3C6E6577E1
:100E700056616C7565313E2B3C6E657756616C75BD
:100E800065323E2B3C6E657756616C75654E3E0A49
:100E90005A202D20446973706C61792063616C69FC
:100EA00062726174696F6E2076616C7565730A5445
:100EB000202D20446973706C61797320323536209F
:100EC000746F6F7468206C6F6720656E74726965EB
:100ED0007320696E2062696E6172790A72202D201A
:100EE000446973706C6179732032353620746F6F8A
:100EF0007468206C6F6720656E74726965730A553B
:100F0000202D205072657061726520666F722066B8
:100F100069726D77617265207570646174652E20E9
:100F2000546865206E6578742062797465207265F6
:100F30006365697665642077696C6C20636175739D
:100F400065207468652041726475696E6F20746FE6
:100F50002072657365742E0A3F202D2044697370DA
:100F60006C61797320746869732068656C70207097
:100F7000616765002C2000575545004F3200496ECF
:100F80006C65742074656D7000436F6F6C616E7476
:100F900000526573657420636F6E74726F6C2069A4
:100FA000732063757272656E746C79206469736105
:100FB000626C65642E00436F6D6D732068616C74A4
:100FC00065642E204E657874206279746520776997
:100FD0006C6C20726573657420746865204172645E
:100FE00075696E6F2E00537065656475696E6F204C
:100FF000323032322E303700737065656475696E39
:101000006F20323032323037004552523B20496E29
:10101000636F727265637420454550524F4D207363
:10102000697A650030303100200020002000200067
:1010300020202020000000800020012001800020CE
:10104000018000F0008001C000C0002001C00080CD
:101050000020010001537065656475696E6F00536F
:101060007065656475696E6F20323031392E3038A5
:101070002D73657200537065656475696E6F2063CA
:10108000737830323031392E3800040E11191B209C
:10109000292B2D2F31333537393B3D3F41434547D0
:1010A0004B4D4F515557595D61666D7700002000DB
:1010B0002300260029002C002F0032000001000030
:1010C00003010601090100002100240027002A0075
:1010D0002D003000330001010000040107010A0166
:1010E00000002200250028002B002E0031003400D3
:1010F00002010000050108010B01050505050705B2
:1011000008080808020202020A0A08080404040483
:1011100001010101010101010303030303030303AF
:10112000040707070C0C0C0C0C0C0C0C020202023E
:1011300006060606060606060B0B0B0B0B0B0B0B27
:1011400001021020200808102040102040800201D9
:1011500002010804020101020408102040808040BE
:1011600020100804020180040201804020100804BD
:10117000020108040201010204081020408001025B
:1011800004081020408000000A0B02090C0D0E0814
:101190000703040100000000000000000000000040
:1011A000000000000000000000000000000000003F
:1011B00000001211100000000000000000000000FC
:1011C000000000000000000000000000000000001F
:1011D000963007772C610EEEBA51099919C46D0744
:1011E0008FF46A7035A563E9A395649E3288DB0E9F
:1011F000A4B8DC791EE9D5E088D9D2972B4CB60982
:10120000BD7CB17E072DB8E7911DBF906410B71D5E
:10121000F220B06A4871B9F3DE41BE847DD4DA1A97
:10122000EBE4DD6D51B5D4F4C785D38356986C13C8
:10123000C0A86B647AF962FDECC9658A4F5C011441
:10124000D96C0663633D0FFAF50D088DC8206E3B1F
:101250005E10694CE44160D5727167A2D1E4033C31
:1012600047D4044BFD850DD26BB50AA5FAA8B53558
:101270006C98B242D6C9BBDB40F9BCACE36CD83247
:10128000755CDF45CF0DD6DC593DD1ABAC30D926EE
:101290003A00DE518051D7C81661D0BFB5F4B421F1
:1012A00023C4B3569995BACF0FA5BDB89EB80228EE
:1012B0000888055FB2D90CC624E90BB1877C6F2F73
:1012C000114C6858AB1D61C13D2D66B69041DC766E
:1012D0000671DB01BC20D2982A10D5EF8985B17147
:1012E0001FB5B606A5E4BF9F33D4B8E8A2C90778F6
:1012F00034F9000F8EA8099618980EE1BB0D6A7F8D
:101300002D3D6D08976C6491015C63E6F4516B6B45
:1013100062616C1CD83065854E0062F2ED95066CFA
:101320007BA5011BC1F4088257C40FF5C6D9B0656F
:1013300050E9B712EAB8BE8B7C88B9FCDF1DDD62CC
:10134000492DDA15F37CD38C654CD4FB5861B24D32
:10135000CE51B53A7400BCA3E230BBD441A5DF4AFC
:10136000D795D83D6DC4D1A4FBF4D6D36AE96943BF
:10137000FCD96E34468867ADD0B860DA732D04446A
:10138000E51D03335F4C0AAAC97C0DDD3C71055095
:10139000AA41022710100BBE86200CC925B568573C
:1013A000B3856F2009D466B99FE461CE0EF9DE5E85
:1013B00098C9D9292298D0B0B4A8D7C7173DB35936
:1013C000810DB42E3B5CBDB7AD6CBAC02083B8EDC7
:1013D000B6B3BF9A0CE2B6039AD2B1743947D5EAD4
:1013E000AF77D29D1526DB048316DC73120B63E303
:1013F000843B64943E6A6D0DA85A6A7A0BCF0EE462
:101400009DFF099327AE000AB19E077D44930FF01C
:10141000D2A3088768F2011EFEC206695D5762F713
:10142000CB67658071366C19E7066B6E761BD4FE50
:10143000E02BD3895A7ADA10CC4ADD676FDFB9F92D
:10144000F9EFBE8E43BEB717D58EB060E8A3D6D6EF
:101450007E93D1A1C4C2D83852F2DF4FF167BBD11D
:101460006757BCA6DD06B53F4B36B248DA2B0DD820
:101470004C1B0AAFF64A0336607A0441C3EF60DFC3
:1014800055DF67A8EF8E6E3179BE69468CB361CBAC
:101490001A8366BCA0D26F2536E2685295770CCCD1
:1014A00003470BBBB91602222F260555BE3BBAC512
:1014B000280BBDB2925AB42B046AB35CA7FFD7C203
:1014C00031CFD0B58B9ED92C1DAEDE5BB0C2649BF4
:1014D00026F263EC9CA36A750A936D02A906099C27
:1014E0003F360EEB8567077213570005824ABF959A
:1014F000147AB8E2AE2BB17B381BB60C9B8ED2921D
:101500000DBED5E5B7EFDC7C21DFDB0BD4D2D38673
:1015100042E2D4F1F8B3DD686E83DA1FCD16BE81E6
:101520005B26B9F6E177B06F7747B718E65A0888B7
:10153000706A0FFFCA3B06665C0B0111FF9E658F48
:1015400069AE62F8D3FF6B6145CF6C1678E20AA0F2
:10155000EED20DD75483044EC2B30339612667A778
:10156000F71660D04D476949DB776E3E4A6AD1AEC7
:10157000DC5AD6D9660BDF40F03BD83753AEBCA956
:10158000C59EBBDE7FCFB247E9FFB5301CF2BDBDC3
:101590008AC2BACA3093B353A6A3B4240536D0BACC
:1015A0009306D7CD2957DE54BF67D9232E7A66B369
:1015B000B84A61C4021B685D942B6F2A37BE0BB416
:1015C000A18E0CC31BDF055A8DEF022D0000000019
:1015D00041311B1982623632C3532D2B04C56C6412
:1015E00045F4777D86A75A56C796414F088AD9C8D1
:1015F00049BBC2D18AE8EFFACBD9F4E30C4FB5ACC2
:101600004D7EAEB58E2D839ECF1C98875112C24A57
:101610001023D953D370F4789241EF6155D7AE2E91
:1016200014E6B537D7B5981C9684830559981B8264
:1016300018A9009BDBFA2DB09ACB36A95D5D77E641
:101640001C6C6CFFDF3F41D49E0E5ACDA2248495C2
:10165000E3159F8C2046B2A76177A9BEA6E1E8F109
:10166000E7D0F3E82483DEC365B2C5DAAAAE5D5DD8
:10167000EB9F464428CC6B6F69FD7076AE6B3139B9
:10168000EF5A2A202C09070B6D381C12F33646DF5F
:10169000B2075DC6715470ED30656BF4F7F32ABB89
:1016A000B6C231A275911C8934A00790FBBC9F176C
:1016B000BA8D840E79DEA92538EFB23CFF79F37339
:1016C000BE48E86A7D1BC5413C2ADE58054F79F0CB
:1016D000447E62E9872D4FC2C61C54DB018A1594F3
:1016E00040BB0E8D83E823A6C2D938BF0DC5A038F4
:1016F0004CF4BB218FA7960ACE968D130900CC5CC3
:101700004831D7458B62FA6ECA53E177545DBBBA54
:10171000156CA0A3D63F8D88970E96915098D7DE72
:1017200011A9CCC7D2FAE1EC93CBFAF55CD762727F
:101730001DE6796BDEB554409F844F5958120E1642
:101740001923150FDA7038249B41233DA76BFD65E3
:10175000E65AE67C2509CB576438D04EA3AE9101FA
:10176000E29F8A1821CCA73360FDBC2AAFE124ADEB
:10177000EED03FB42D83129F6CB20986AB2448C9CA
:10178000EA1553D029467EFB687765E2F6793F2F4C
:10179000B7482436741B091D352A1204F2BC534B7A
:1017A000B38D485270DE657931EF7E60FEF3E6E777
:1017B000BFC2FDFE7C91D0D53DA0CBCCFA368A834A
:1017C000BB07919A7854BCB13965A7A84B98833B65
:1017D0000AA99822C9FAB50988CBAE104F5DEF5F10
:1017E0000E6CF446CD3FD96D8C0EC27443125AF381
:1017F000022341EAC1706CC1804177D847D7369740
:1018000006E62D8EC5B500A584841BBC1A8A4171DD
:101810005BBB5A6898E87743D9D96C5A1E4F2D158F
:101820005F7E360C9C2D1B27DD1C003E120098B9F4
:10183000533183A09062AE8BD153B59216C5F4DDBF
:1018400057F4EFC494A7C2EFD596D9F6E9BC07AE1A
:10185000A88D1CB76BDE319C2AEF2A85ED796BCA07
:10186000AC4870D36F1B5DF82E2A46E1E136DE6688
:10187000A007C57F6354E8542265F34DE5F3B20237
:10188000A4C2A91B6791843026A09F29B8AEC5E4E5
:10189000F99FDEFD3ACCF3D67BFDE8CFBC6BA98087
:1018A000FD5AB2993E099FB27F3884ABB0241C2CFC
:1018B000F115073532462A1E73773107B4E17048B7
:1018C000F5D06B513683467A77B25D634ED7FACB4B
:1018D0000FE6E1D2CCB5CCF98D84D7E04A1296AFB1
:1018E0000B238DB6C870A09D8941BB84465D230340
:1018F000076C381AC43F1531850E0E2842984F6781
:1019000003A9547EC0FA795581CB624C1FC538813A
:101910005EF423989DA70EB3DC9615AA1B0054E530
:101920005A314FFC996262D7D85379CE174FE149AB
:10193000567EFA50952DD77BD41CCC62138A8D2D00
:1019400052BB963491E8BB1FD0D9A006ECF37E5E63
:10195000ADC265476E91486C2FA05375E836123AB8
:10196000A90709236A5424082B653F11E479A79637
:10197000A548BC8F661B91A4272A8ABDE0BCCBF288
:10198000A18DD0EB62DEFDC023EFE6D9BDE1BC1432
:10199000FCD0A70D3F838A267EB2913FB924D07038
:1019A000F815CB693B46E6427A77FD5BB56B65DCA3
:1019B000F45A7EC5370953EE763848F7B1AE09B808
:1019C000F09F12A133CC3F8A72FD249300000000E7
:1019D000376AC2016ED4840359BE4602DCA80907E7
:1019E000EBC2CB06B27C8D0485164F05B851130EA1
:1019F0008F3BD10FD685970DE1EF550C64F91A098D
:101A00005393D8080A2D9E0A3D475C0B70A3261CF1
:101A100047C9E41D1E77A21F291D601EAC0B2F1B9A
:101A20009B61ED1AC2DFAB18F5B56919C8F2351222
:101A3000FF98F713A626B111914C7310145A3C1558
:101A40002330FE147A8EB8164DE47A17E0464D38EE
:101A5000D72C8F398E92C93BB9F80B3A3CEE443FF4
:101A60000B84863E523AC03C6550023D58175E36A4
:101A70006F7D9C3736C3DA3501A9183484BF5731DE
:101A8000B3D59530EA6BD332DD01113390E56B2489
:101A9000A78FA925FE31EF27C95B2D264C4D622368
:101AA0007B27A0222299E62015F3242128B4782A46
:101AB0001FDEBA2B4660FC29710A3E28F41C712DEA
:101AC000C376B32C9AC8F52EADA2372FC08D9A706D
:101AD000F7E75871AE591E739933DC721C25937762
:101AE0002B4F517672F11774459BD57578DC897E42
:101AF0004FB64B7F16080D7D2162CF7CA474807990
:101B0000931E4278CAA0047AFDCAC67BB02EBC6C74
:101B100087447E6DDEFA386FE990FA6E6C86B56B9D
:101B20005BEC776A025231683538F369087FAF623F
:101B30003F156D6366AB2B6151C1E960D4D7A665D3
:101B4000E3BD6464BA0322668D69E06720CBD748A1
:101B500017A115494E1F534B7975914AFC63DE4F0F
:101B6000CB091C4E92B75A4CA5DD984D989AC446A5
:101B7000AFF00647F64E4045C12482444432CD4181
:101B800073580F402AE649421D8C8B435068F1542C
:101B9000670233553EBC755709D6B7568CC0F8530B
:101BA000BBAA3A52E2147C50D57EBE51E839E25AC3
:101BB000DF53205B86ED6659B187A4583491EB5D05
:101BC00003FB295C5A456F5E6D2FAD5F801B35E1CD
:101BD000B771F7E0EECFB1E2D9A573E35CB33CE6B1
:101BE0006BD9FEE73267B8E5050D7AE4384A26EF8F
:101BF0000F20E4EE569EA2EC61F460EDE4E22FE8E3
:101C0000D388EDE98A36ABEBBD5C69EAF0B813FD29
:101C1000C7D2D1FC9E6C97FEA90655FF2C101AFA6C
:101C20001B7AD8FB42C49EF975AE5CF848E900F314
:101C30007F83C2F2263D84F0115746F1944109F4A6
:101C4000A32BCBF5FA958DF7CDFF4FF6605D78D9D4
:101C50005737BAD80E89FCDA39E33EDBBCF571DEC2
:101C60008B9FB3DFD221F5DDE54B37DCD80C6BD78A
:101C7000EF66A9D6B6D8EFD481B22DD504A462D030
:101C800033CEA0D16A70E6D35D1A24D210FE5EC5B1
:101C900027949CC47E2ADAC6494018C7CC5657C23E
:101CA000FB3C95C3A282D3C195E811C0A8AF4DCB30
:101CB0009FC58FCAC67BC9C8F1110BC9740744CC34
:101CC000436D86CD1AD3C0CF2DB902CE4096AF91C9
:101CD00077FC6D902E422B921928E9939C3EA69694
:101CE000AB546497F2EA2295C580E094F8C7BC9F94
:101CF000CFAD7E9E9613389CA179FA9D246FB5983E
:101D0000130577994ABB319B7DD1F39A3035898D84
:101D1000075F4B8C5EE10D8E698BCF8FEC9D808AC7
:101D2000DBF7428B82490489B523C68888649A838D
:101D3000BF0E5882E6B01E80D1DADC8154CC938489
:101D400063A651853A1817870D72D586A0D0E2A9EF
:101D500097BA20A8CE0466AAF96EA4AB7C78EBAE45
:101D60004B1229AF12AC6FAD25C6ADAC1881F1A7EF
:101D70002FEB33A6765575A4413FB7A5C429F8A02B
:101D8000F3433AA1AAFD7CA39D97BEA2D073C4B52C
:101D9000E71906B4BEA740B689CD82B70CDBCDB239
:101DA0003BB10FB3620F49B155658BB06822D7BB09
:101DB0005F4815BA06F653B8319C91B9B48ADEBCB7
:101DC00083E01CBDDA5E5ABFED3498BE000000000F
:101DD0006567BCB88BC809AAEEAFB5125797628F7A
:101DE00032F0DE37DC5F6B25B938D79DEF28B4C5FC
:101DF0008A4F087D64E0BD6F018701D7B8BFD64A1E
:101E0000DDD86AF23377DFE0561063589F571950D8
:101E1000FA30A5E8149F10FA71F8AC42C8C07BDF15
:101E2000ADA7C76743087275266FCECD707FAD959D
:101E30001518112DFBB7A43F9ED0188727E8CF1A9D
:101E4000428F73A2AC20C6B0C9477A083EAF32A019
:101E50005BC88E18B5673B0AD00087B26938502F2F
:101E60000C5FEC97E2F059858797E53DD187866551
:101E7000B4E03ADD5A4F8FCF3F2833778610E4EA3B
:101E8000E37758520DD8ED4068BF51F8A1F82BF018
:101E9000C49F97482A30225A4F579EE2F66F497FD7
:101EA0009308F5C77DA740D518C0FC6D4ED09F356F
:101EB0002BB7238DC518969FA07F2A271947FDBAF7
:101EC0007C204102928FF410F7E848A83D58149BFB
:101ED000583FA823B6901D31D3F7A1896ACF761455
:101EE0000FA8CAACE1077FBE8460C306D270A05EB3
:101EF000B7171CE659B8A9F43CDF154C85E7C2D1E9
:101F0000E0807E690E2FCB7B6B4877C3A20F0DCB91
:101F1000C768B17329C704614CA0B8D9F5986F445C
:101F200090FFD3FC7E5066EE1B37DA564D27B90E74
:101F3000284005B6C6EFB0A4A3880C1C1AB0DB81FC
:101F40007FD767399178D22BF41F6E9303F7263B26
:101F500066909A83883F2F91ED589329546044B43A
:101F60003107F80CDFA84D1EBACFF1A6ECDF92FEC8
:101F700089B82E4667179B54027027ECBB48F07156
:101F8000DE2F4CC93080F9DB55E745639CA03F6BE1
:101F9000F9C783D3176836C1720F8A79CB375DE4EE
:101FA000AE50E15C40FF544E2598E8F673888BAE46
:101FB00016EF3716F84082049D273EBC241FE92106
:101FC00041785599AFD7E08BCAB05C333BB659ED39
:101FD0005ED1E555B07E5047D519ECFF6C213B62D0
:101FE000094687DAE7E932C8828E8E70D49EED28E2
:101FF000B1F951905F56E4823A31583A83098FA77C
:10200000E66E331F08C1860D6DA63AB5A4E140BD4A
:10201000C186FC052F2949174A4EF5AFF3762232C7
:1020200096119E8A78BE2B981DD997204BC9F478BB
:102030002EAE48C0C001FDD2A566416A1C5E96F76F
:1020400079392A4F97969F5DF2F123E505196B4D7B
:10205000607ED7F58ED162E7EBB6DE5F528E09C2A5
:1020600037E9B57AD9460068BC21BCD0EA31DF88AF
:102070008F56633061F9D622049E6A9ABDA6BD07C9
:10208000D8C101BF366EB4AD530908159A4E721D02
:10209000FF29CEA511867BB774E1C70FCDD9109269
:1020A000A8BEAC2A461119382376A5807566C6D815
:1020B00010017A60FEAECF729BC973CA22F1A45799
:1020C000479618EFA939ADFDCC5E114506EE4D7669
:1020D0006389F1CE8D2644DCE841F86451792FF90B
:1020E000341E9341DAB12653BFD69AEBE9C6F9B351
:1020F0008CA1450B620EF01907694CA1BE519B3CA7
:10210000DB3627843599929650FE2E2E99B95426A7
:10211000FCDEE89E12715D8C7716E134CE2E36A976
:10212000AB498A1145E63F03208183BB7691E0E30A
:1021300013F65C5BFD59E949983E55F12106826C26
:1021400044613ED4AACE8BC6CFA9377E38417FD614
:102150005D26C36EB389767CD6EECAC46FD61D5990
:102160000AB1A1E1E41E14F38179A84BD769CB131E
:10217000B20E77AB5CA1C2B939C67E0180FEA99CC4
:10218000E59915240B36A0366E511C8EA71666866F
:10219000C271DA3E2CDE6F2C49B9D394F081040968
:1021A00095E6B8B17B490DA31E2EB11B483ED24324
:1021B0002D596EFBC3F6DBE9A69167511FA9B0CC80
:1021C0007ACE0C749461B966F10605DEEA0011243A
:1021D0001FBECFEFD1E2DEBFCDBF00E00CBF12E0EB
:1021E000A0E0B2E0ECEDFDE303E00BBF02C007901E
:1021F0000D92AE39B107D9F720E2AEE9B2E001C0E5
:102200001D92A235B207E1F710E1C7EED0E100E080
:1022100006C021970109802FFE010F944E9DC63EF6
:10222000D10780E00807A9F70F940F850D94EC9E65
:102230000C9400000F931F93CF93DF93E091251D23
:10224000F0E08091221D8C718C3009F43FC1EF01C8
:1022500030E020E00091161D1091171D60918F0C49
:102260007091900C8091020990910309801B910B51
:102270000F94819C61507109C617D7070CF006C1F5
:102280006C1B7D0B4091E5065091E60646175707FB
:1022900020F4E617F7070CF014C1A091E506B09101
:1022A000E606A20FB31FA617B70730F46091E50644
:1022B0007091E606620F731F7093BA066093B906B9
:1022C00060918F0C7091900C8091000990910109A0
:1022D000801B910B0F94819C61507109C617D70721
:1022E0000CF0CDC06C1B7D0B8091E5069091E6064D
:1022F0008617970720F4E617F7070CF0DDC040912A
:10230000E5065091E606420F531F4617570730F473
:102310006091E5067091E606620F731F7093B80630
:102320006093B70660918F0C7091900C8091FE08BD
:102330009091FF08801B910B0F94819C6150710953
:10234000C617D7070CF094C06C1B7D0BA091E50657
:10235000B091E606A617B70720F4E617F7070CF0CA
:10236000A6C08091E5069091E606820F931F86171E
:10237000970730F46091E5067091E606620F731FCF
:102380007093B6066093B50660918F0C7091900CB7
:102390008091FC089091FD08801B910B0F94819C0B
:1023A00061507109C617D7070CF05BC06C1B7D0B21
:1023B0004091E5065091E6064617570720F4E617C8
:1023C000F7070CF06FC0A091E506B091E606A20FEA
:1023D000B31FA617B70730F46091E5067091E606C3
:1023E000620F731F7093B4066093B30660918F0CF5
:1023F0007091900C8091FA089091FB08801B910BD2
:102400000F94819C61507109C617D70724F56C1B86
:102410007D0BC091E506D091E606C617D70718F4E4
:10242000E617F707D4F5E091E506F091E606E20F2E
:10243000F31FE617F70730F46091E5067091E606A2
:10244000620F731F7093A3066093A206DF91CF9172
:102450001F910F91089516161706DCF26C0F7D1F61
:10246000D8CF161617060CF4A3CF6C0F7D1FA0CF84
:10247000161617060CF46ACF6C0F7D1F67CF161661
:1024800017060CF431CF6C0F7D1F2ECF16161706D2
:102490000CF4F8CE6C0F7D1FF5CE6091E5067091BF
:1024A000E606C1CF6091E5067091E6068CCF60919B
:1024B000E5067091E60655CF6091E5067091E60657
:1024C0001ECF6091E5067091E606E7CE00911B1DD8
:1024D00001FDBDCE9F01EF01CC0FDD1FBBCECF9222
:1024E000DF92EF92FF92E0910507F09106071995B0
:1024F000AC01893621E092070CF443C09C012956B7
:102500003140A3E8BDE20F94239D0024880F991F5A
:10251000001C880F991F001C892F902D8770992708
:1025200048565140493621E052075CF1009719F1B5
:1025300081309105D1F082309105A9F08330910569
:1025400081F08430910559F08530910531F006977E
:1025500011F048565140485651404856514048564F
:1025600051404856514048565140485651404936CE
:1025700021E0520734F040545B40493681E058076F
:10258000D4F78091161D9091171D481B590B20916F
:102590008F1F2370223031F4C0908F1DD090901D7A
:1025A0004C195D09E091921D9A01220F331FF0E052
:1025B000A0E0B1E0AE1BBF0B0F94569D6B017C01F8
:1025C000A091531FB091541F9F010F945E9DC60EA2
:1025D000D71EE81EF91ECD2CDE2CEF2CFF24E7FCC5
:1025E000FA94D092541FC092531FFF90EF90DF9047
:1025F000CF900895ECE5FFE1158E168E178E10A290
:10260000A385B4858D919D910D90BC91A02D81A342
:1026100092A3A3A3B4A3118E128E138E148E1092C4
:10262000061F1092051FEFE6F0E020812D7F20832A
:1026300030918308E0918408F0918508908130956D
:10264000392330830895CF92DF92EF92FF92AB014E
:10265000DC011396FC91139711962D913C91EF2F6D
:10266000EF712115310539F52F2FFF0F330B220F95
:10267000232F221F330B8FEF9FEF0E2E02C0880FE8
:10268000991F0A94E2F780959095BA01770F660B2F
:10269000762F86239723840F951F02C095958795E3
:1026A000EA95E2F782279327821B930BFF90EF9026
:1026B000DF90CF900895DB010F94569D6C01FF24AD
:1026C000D7FCF094EF2CC601F6FF0EC02F2FFF0FA2
:1026D000330B220F232F221F330BCA01822793278C
:1026E000821B930B8C0D9D1D02C095958795EA95D5
:1026F000E2F797FD0196FF90EF90DF90CF9008955D
:10270000EF92FF920F931F93CF93DF939091DC1E74
:1027100096FF15C1C82FD0E0CF37D1050CF0FBC014
:10272000DE01A095B095A370BB27109709F456C0A1
:10273000A130B10549F1129709F083C18E01000F54
:10274000111F000F111F0C551B4FF8018081918143
:10275000A281B3818B2F0F94C066F80160817181D3
:10276000828193810F94C066F80180819181A2815A
:10277000B381892F0F94C066F80180819181A28175
:10278000B3810F94C06621968E01000F111F000FB8
:10279000111F0C551B4FF80180819181A281B381DB
:1027A0008B2F0F94C066F8016081718182819381C3
:1027B0000F94C066F80180819181A281B381892F35
:1027C0000F94C066F80180819181A281B3810F943A
:1027D000C0662196CF37D10509F49DC08E01000F48
:1027E000111F000F111F0C551B4FF80180819181A3
:1027F000A281B3818B2F0F94C066F8016081718133
:10280000828193810F94C066F80180819181A281B9
:10281000B381892F0F94C066F80180819181A281D4
:10282000B3810F94C0667E01FFEFEF1AFF0A8701A4
:10283000000F111F000F111F0C551B4FF801808155
:102840009181A281B3818B2F0F94C066F8016081C2
:102850007181828193810F94C066F801808191819A
:10286000A281B381892F0F94C066F8018081918184
:10287000A281B3810F94C0668701000F111F000F62
:10288000111F08551B4FF80180819181A281B381EE
:102890008B2F0F94C066F8016081718182819381D2
:1028A0000F94C066F80180819181A281B381892F44
:1028B0000F94C066F80180819181A281B3810F9449
:1028C000C0668E01000F111F000F111F00551B4F16
:1028D000F80180819181A281B3818B2F0F94C06612
:1028E000F80160817181828193810F94C066F80143
:1028F00080819181A281B381892F0F94C066F801F4
:1029000080819181A281B3810F94C0662496CF37D4
:10291000D10509F063CF5091DC1E5F7B5093DC1E24
:10292000109204041092080410921F0910921E09BC
:10293000DF91CF911F910F91FF90EF9008954CEF91
:1029400051E061E06093CE0FE090D10F8091D20F03
:10295000E091C60FF091C70FE81609F45EC0209110
:10296000D10F30E02F5F3F4F2F733327022F03C06B
:102970000FB607FE22C01091D20F0117C9F3E091E4
:10298000D10FF0E0ED5EFF4E10823FB7F894209338
:10299000D10FE091C80FF091C90F208120622083F0
:1029A0003FBF4150510971F610920404DF91CF915D
:1029B0001F910F91FF90EF900895708175FFDBCF0D
:1029C000E091D20FF0E0ED5EFF4EA081E091D20FDA
:1029D000F0E03196EF73FF27E093D20FC091CC0F58
:1029E000D091CD0FA883E091C60FF091C70FB081B1
:1029F000B370B064B083D091D10FF091D20FDF13D8
:102A000007C0C091C80FD091C90F98819F7D98834E
:102A1000E091C60FF091C70FAECFF080F5FE9FCFCB
:102A2000EFB6F894C091CC0FD091CD0F1882E09101
:102A3000C60FF091C70F8081837080648083EFBEE2
:102A4000B0CF8E01000F111F000F111F0C551B4F2F
:102A5000F80180819181A281B3818B2F0F94C06690
:102A6000F80160817181828193810F94C066F801C1
:102A700080819181A281B381892F0F94C066F80172
:102A800080819181A281B3810F94C066219656CE38
:102A90008F929F92AF92BF92CF92DF92EF92FF926E
:102AA0000F931F93CF93DF935C018B011092B602BB
:102AB0001092B50210920504812F0F94C066802FEA
:102AC0000F94C0661093C8030093C7030115110546
:102AD00009F4DDC045018FE3E82EF12C6501C00E3D
:102AE000D11EC80183709927009709F459C081301D
:102AF0009105C1F10297D9F0E50189914E010F943A
:102B0000C066A091B502B091B6021196B093B6021C
:102B1000A093B5029091D10F8091D20F981708F031
:102B2000F4C0891B990B0197892B09F492C0F40119
:102B300081914F010F94C0668091B5029091B602C9
:102B400001969093B6028093B5029091D10F809137
:102B5000D20F981708F0D2C0891B990B0197892BC7
:102B600009F477C0E40189914E010F94C066A091E9
:102B7000B502B091B6021196B093B602A093B50219
:102B80009091D10F8091D20F981708F059C0891BEE
:102B9000990B019709F45DC0C814D90409F477C0F2
:102BA000E40189910F94C066E091B502F091B602FC
:102BB0003196F093B602E093B5029091D10F8091D7
:102BC000D20F981708F055C0891B990B0197892BD4
:102BD00009F43FC088810F94C0668091B50290913E
:102BE000B60201969093B6028093B5029091D10FF0
:102BF0008091D20F981708F043C0891B990B019759
:102C0000892B39F189810F94C066A091B502B091EA
:102C1000B6021196B093B602A093B5029091D10F6F
:102C20008091D20F981708F062C0891B990B019709
:102C3000892B79F04E01F3E08F0E911C8A8195CF9C
:102C40009701291B3109820F932F911D892B09F0C0
:102C5000A3CF01E000930504DF91CF911F910F9165
:102C6000FF90EF90DF90CF90BF90AF909F908F90AC
:102C700008959701291B3109820F932F911DA7CF2A
:102C80009701291B3109820F932F911DB9CF809095
:102C900005048110E1CF2FEF3FEFA9012093092018
:102CA00030930A2040930B2050930C2021E0A80180
:102CB000B50189E090E20F943414EB01182F892FAD
:102CC0000F94C066812F0F94C0668D2F0F94C0663D
:102CD0008C2FDF91CF911F910F91FF90EF90DF909C
:102CE000CF90BF90AF909F908F900D94C06697014A
:102CF000291B3109820F932F911D9ACF9701291B10
:102D00003109820F932F911D2ACF9701291B310979
:102D1000820F932F911D08CFCF92DF92EF92FF92F7
:102D20000F9486776093AF067093B0068093B106D8
:102D30009093B2068091AF069091B006A091B10633
:102D4000B091B2064091EB065091EC066091ED0611
:102D50007091EE06841B950BA60BB70B8093BF06F4
:102D60009093C006A093C106B093C206C090EB0634
:102D7000D090EC06E090ED06F090EE06CD28CE283F
:102D8000CF28C1F41092BF061092C0061092C1065F
:102D90001092C2062091AF063091B0064091B10664
:102DA0005091B2062093EB063093EC064093ED066B
:102DB0005093EE064091BF065091C0066091C10647
:102DC0007091C2068091FA069091FB06A091FC06D4
:102DD000B091FD06481759076A077B07C0F130918B
:102DE0001E1D3F77313009F4C1C0311120C051E0C0
:102DF0005093AE066091BF067091C0068091C106E7
:102E00009091C20696958795779567956093FA0697
:102E10007093FB068093FC069093FD06A091F80644
:102E2000B091F9061196B093F906A093F806C090F8
:102E3000AF06D090B006E090B106F090B206C09216
:102E4000EB06D092EC06E092ED06F092EE06D09002
:102E5000891FD5FE86C0E090AE06EE2009F481C041
:102E6000E0910507F09106071995AC01893621E03C
:102E700092070CF442C09C0129563140A3E8BDE200
:102E80000F94239D0024880F991F001C880F991F01
:102E9000001C892F902D877099274856514049363C
:102EA00021E0520754F1009711F181309105C9F0EA
:102EB00082309105A1F08330910579F0843091053D
:102EC00051F08530910529F0069709F0B5C04856B4
:102ED0005140485651404856514048565140485636
:102EE000514048565140493621E0520734F0405491
:102EF0005B40493681E05807D4F72091161D309188
:102F0000171D421B530B70918F1F7370723031F479
:102F10008091511E9091521E481B590BE091921DB9
:102F20009A01220F331FF0E0A0E0B1E0AE1BBF0B0F
:102F30000F94569D6B017C01A0913F1FB091401FE3
:102F40009F010F945E9DC60ED71EE81EF91ECD2C64
:102F5000DE2CEF2CFF24E7FCFA94D092401FC092A5
:102F60003F1FFF90EF90DF90CF9008958091EB0688
:102F70009091EC06A091ED06B091EE06C090E706A8
:102F8000D090E806E090E906F090EA068C199D09D9
:102F9000AE09BF09AC01BD01440F551F661F771F65
:102FA000840F951FA61FB71FB695A7959795879570
:102FB0008093AA069093AB06A093AC06B093AD069F
:102FC0002091EB063091EC064091ED065091EE0613
:102FD0002093E7063093E8064093E9065093EA060B
:102FE0004091BF065091C0066091C1067091C20623
:102FF0008091AA069091AB06A091AC06B091AD0667
:10300000481759076A077B0730F4E091F806F091FA
:10301000F9063497A0F081E090E09093F906809350
:10302000F8068093AE061092FA061092FB061092F4
:10303000FC061092FD06FBCE4856514048CF6091E9
:10304000BF067091C0068091C1069091C206969508
:10305000879577956795969587957795679560930A
:10306000FA067093FB068093FC069093FD06A091F0
:10307000F806B091F9061196B093F906A093F806F8
:10308000D6CECF93DF931092F70681E08093F706B8
:1030900020910D072330F1F0223091F0213029F4F6
:1030A000E0910907F0910A07199560913E1F662388
:1030B00021F07091F706711117C0DF91CF9108953B
:1030C000E091D306F091D40630819091D206392355
:1030D00039F3EBCFC091D306D091D40648815091FB
:1030E000D2064523E9F6E1CF8091BF069091C00654
:1030F000A091C106B091C206A091DC1EA6FDDDCF55
:10310000B0913D1FB111D9CFC0911E09D0911F09B7
:10311000CB5DDB4F1882E091D606F091D706D081C7
:10312000F091D506DF2309F045C0E091D306F09178
:10313000D40620813091D206232349F0C0911E0984
:10314000D0911F09CB5DDB4F988192609883E0910D
:103150001E09F0911F09EB5DFB4F408144604083E5
:1031600050918F1E552349F0C0911E09D0911F091F
:10317000CB5DDB4F688168606883C0911E09D09188
:103180001F090F948677CC0FDD1FCC0FDD1FCC55A8
:10319000DB4F688379838A839B83A0911E09B0915A
:1031A0001F09AE37B10580F07091DC1E706470931A
:1031B000DC1E83CFC0911E09D0911F09CB5DDB4F70
:1031C000888181608883B1CF80911E0990911F0909
:1031D000019690931F0980931E09B091DC1EBF7B5E
:1031E000B093DC1E6ACFCF93DF931092F7068091E5
:1031F0000E07833009F481C08230B9F08130F1F4D8
:10320000E0910B07F0910C07199570913D1F772302
:1032100001F1A091F706A1117BC0B1E0D0913E1F52
:10322000D1111CC0DF91CF910895E091D606F091A5
:10323000D70620819091D506292311F350913D1F87
:10324000552339F06091F706662339F3DF91CF916A
:103250000895B0E0D0913E1FDD2321F34091BB06DD
:103260005091BC066091BD067091BE06F091DC1EC7
:10327000F6FDD8CFC0911E09D0911F09B1116FC0C2
:10328000CB5DDB4F1882E091D606F091D7068081A6
:103290002091D506822309F082C0E091D306F091F7
:1032A000D40630815091D206352349F0C0911E09D1
:1032B000D0911F09CB5DDB4F68816260688370919C
:1032C0008F1E772349F0E0911E09F0911F09EB5DF5
:1032D000FB4FA081A860A083C0911E09D0911F0957
:1032E0000F948677CC0FDD1FCC0FDD1FCC55DB4F45
:1032F000688379838A839B833CC0C091D606D09132
:10330000D70638814091D506342309F079CF96CF7E
:103310002091BB063091BC064091BD065091BE067F
:10332000B091DC1EB6FD7ECFE0911E09F0911F0921
:10333000EE0FFF1FEE0FFF1FEC55FB4F2083318375
:103340004283538380911E0990911F098E37910506
:10335000B8F0D091DC1ED064D093DC1E63CFCC0FCC
:10336000DD1FCC0FDD1FCC55DB4F488359836A83AB
:103370007B8340911E0950911F094E37510548F734
:10338000A0911E09B0911F091196B0931F09A09337
:103390001E09F091DC1EFF7BF093DC1E43CFC09131
:1033A0001E09D0911F09CB5DDB4F988191609883F6
:1033B00074CFCF92DF92EF92FF920F931F93CF9330
:1033C0008091720E80739091221D90FD1EC08031FD
:1033D00009F469C08032F1F430914C1F333009F4A4
:1033E00029C108F4E7C0353009F4D9C008F437C161
:1033F000363081F4F0907A0E78ECF79ED0011124EB
:10340000B093061FA093051F05C0803159F080328C
:1034100009F487C0CF911F910F91FF90EF90DF903B
:10342000CF90089510914C1F133009F4E8C008F4B0
:1034300098C0153009F4E0C008F4A1C0C0917A0E1C
:10344000163041F7C090901ED090911EE090A41EBF
:10345000F12CEE0CFF1C0AEB15E12AEA35E14AE6F5
:1034600055E168E083E695E10F94ED7AC89F9001FD
:1034700011243695279536952795ABE7B4E10F943F
:10348000239D96958795880F991F880F991F811501
:1034900022E0920708F458C02FEF31E03093021F6A
:1034A0002093011FB7CF30914C1F333009F4AAC0CD
:1034B00008F44FC0353009F49CC008F463C0C091D3
:1034C0007A0E363009F0A6CFC090901ED090911E93
:1034D000E090A41EF12CEE0CFF1C0AEB15E12AEA89
:1034E00035E14AE655E168E083E695E10F94ED7A2F
:1034F000C89FA0011124440F551F440F551F41318F
:1035000027E2520710F040E157E25093061F409324
:10351000051FCF911F910F91FF90EF90DF90CF90FB
:10352000089500914C1F033009F46FC008F452C095
:10353000053059F108F49EC0063009F06BCF809138
:103540007A0E90E0880F991F9093021F8093011FBD
:1035500061CF313089F0C091760E323009F4B4CFAA
:1035600059CF113031F0C091760E123009F46ACF84
:1035700051CFC091750E66CFC091750EA5CFC09189
:10358000780E60CFC091780E9FCF8091790E90E039
:10359000880F991F9093021F8093011F3BCFF091DA
:1035A000790E98ECF99F800111241093061F009367
:1035B000051F30CF313099F1323009F02BCFC09058
:1035C000760E48ECC49E70011124F092061FE09222
:1035D000051F20CF0130C9F1023009F01BCF8091C7
:1035E000760E90E0880F991F9093021F8093011F21
:1035F00011CFC091790E68CFC091790E23CFC091C1
:10360000770E20CFC091770E5FCF8091770E90E03C
:10361000880F991F9093021F8093011FFBCED090BB
:10362000750E58ECD59EB00111247093061F60935F
:10363000051FF0CE1091770EC8EC1C9F900111244D
:103640003093061F2093051FE5CE8091750E90E004
:10365000880F991F9093021F8093011FDBCEB091BA
:10366000780EE8ECBE9FC00111249093061F809352
:10367000051FD0CE8091780E90E0880F991F90930F
:10368000021F8093011FC6CE8F929F92AF92BF926E
:10369000CF92DF92EF92FF920F931F936A0159012D
:1036A0008C01095C1F4F9C01255D3F4FAC01495FB8
:1036B0005F4F7B0166E00F94ED7A282F2B51330B7F
:1036C000D901C50124363105B1F095010F945E9DF5
:1036D0002EE33AE047ED53EA0F94659D00E20F9424
:1036E000929D49015A0186E0B694A79497948794D5
:1036F0008A95D1F7C4011F910F91FF90EF90DF9051
:10370000CF90BF90AF909F908F9008954F925F920F
:103710006F927F928F929F92AF92BF92CF92DF92E1
:10372000EF92FF920F931F93CF93DF93CDB7DEB746
:1037300068970FB6F894DEBF0FBECDBF80914B0CDB
:10374000803109F4ABC2883009F437C189ED9FEFAD
:103750006091B01E7091B11E1091DF1E681779073D
:103760000CF4F8C4177F1093DF1E00914A0C00314F
:1037700009F406C5083009F469C51092CA1E80E034
:10378000282F30E0A4E6B0E00F94239D2EE33AE02A
:1037900047ED53EA0F94659D00E20F94929D490115
:1037A0005A01E6E0B694A79497948794EA95D1F7E6
:1037B000212F227011FD09C14090D106342D3470A3
:1037C000732E42FC04C02091481F211135C0109176
:1037D000F01E6091B01E7091B11E685D7F4F8AE24D
:1037E0009CE00F949D50181719060CF008C54091E5
:1037F000DF1E41FD06C544604093DF1E6091B01E90
:103800007091B11E685D7F4F8AE39CE00F949D50DC
:103810009C012C593F4F1092150437FF02C030E035
:1038200020E02F3F310519F014F02FEF30E0109118
:10383000DF1E612F6270762EA22F2093481F243640
:10384000B9F0B0E0A50194010F94109D2EE33AE089
:1038500047ED53EA0F94659D00E20F94929D490154
:103860005A0166E0B694A794979487946A95D1F725
:103870007110B5C0D090551EE0901604ED1408F0FC
:1038800045C06091B01E7091B11E685D7F4F8AE0A7
:103890009CE00F949D509C01220F331F220F331F79
:1038A000280F391FA4E6B0E00F94239D2091481FF4
:1038B00030E050E040E00F94C89C69017A0100912B
:1038C000160424E630E040E050E02C193D094E0992
:1038D0005F09A02FB0E00F94109D2091551E30E09D
:1038E00050E040E00F94959CC20ED31EE41EF51EDE
:1038F000D601F090D106A436B10508F07AC4109133
:10390000DF1EF2FE03C00F5F0093160400919C0EB1
:10391000702F7370713009F498C07111C7C1C090D5
:10392000A41E8091A71EC81ADD082FE02C9DC0019F
:103930002D9D900D112490931A048093190497FDE6
:10394000AEC46AE070E00F94819C6093A61EF4E61A
:1039500080E014FD67C4A5E0CA16D1040CF4D1C4FC
:10396000B091AC0EC0901904D0901A04BC151D047F
:103970000CF4DFC4AF2FB82FB093C81EA093C71E9E
:1039800005FDC6C1A436B10509F4C2C1A501940163
:103990000F94109D2EE33AE047ED53EA0F94659D96
:1039A00000E20F94929D49015A0176E0B694A794E3
:1039B000979487947A95D1F7ABC1E0914F0CF09131
:1039C000500C81858752990BC3CE1B7F1093DF1E4D
:1039D00094E69093481F722E772009F44BCF6091A4
:1039E000B01E7091B11E685D7F4F8AE09CE00F941D
:1039F0009D50DC01AA0FBB1FAA0FBB1FA80FB91F48
:103A0000109216041091DF1EA436B10509F47ECF82
:103A1000A50194010F94109D2EE33AE047ED53EA7F
:103A20000F94659D00E20F94929D49015A0126E092
:103A3000B694A794979487942A95D1F700919C0EF9
:103A4000702F7370713009F068CFE0909B1EF0907A
:103A50009C1EA0911C09B0911D09EA1AFB0A209135
:103A600018093091190940911A0950911B09409089
:103A700014095090150960901609709017092419BF
:103A800035094609570960E472E48FE090E00F942D
:103A9000959C29833A834B835C836D837E838F83DC
:103AA0009887E981FA81EE9EC001EF9E900DFE9EFF
:103AB000900D112490931C0480931B0497FDE8C380
:103AC0006AE070E00F94819C6093A81E14FDE4C32B
:103AD000F4E680E053E0E516F1040CF4A6C3D090C0
:103AE000AB0EE0901B04F0901C04DE141F040CF0DD
:103AF00041CF10611093DF1EF090A81EF0921804C1
:103B00000F9486776B017C012091AD0E30E0A0E12F
:103B1000B7E20F94239DC60ED71EE81EF91EC09271
:103B2000D81ED092D91EE092DA1EF092DB1E609170
:103B3000A81E70E08AE59CE00F949D507C01709176
:103B4000D40E14E6719FA0011124F091D50E20919E
:103B5000901E3091911E42175307C0F5F19FF0015E
:103B60001124E217F30708F4A7C6241B350BA4E6BB
:103B7000B0E00F94239D9F01241B350B032E000CF6
:103B8000440B550B0F94C89C121B212F30E0D7011A
:103B90000F945E9D2EE33AE047ED53EA0F94659D46
:103BA00000E20F94929D29873A874B875C876D8747
:103BB0007E878F87988BE984FA840B851C8596E035
:103BC00016950795F794E7949A95D1F78091B01ED2
:103BD0009091B11E6091C00E70E0FB01B8978E17F6
:103BE0009F070CF053C0E0919B0EF0E020919A0EDD
:103BF000AF0147525109841795070CF433C48896D6
:103C0000AC014E1B5F0B34E6349FC001359F900D15
:103C100011246E1B7F0B0F94819C361B822F8456C0
:103C2000990BDC01232F30E00F945E9D2EE33AE0E8
:103C300047ED53EA0F94659D00E20F94929D29870A
:103C40003A874B875C876D877E878F87988B8985BE
:103C50009A85AB85BC85E6E0B695A795979587953F
:103C6000EA95D1F78C599F4F8E9D90018F9D300D15
:103C70009E9D300D11243695279536952795ABE7F7
:103C8000B4E10F94239D7C01F694E79400919C0E7F
:103C9000D701AC59BF4F1091DF1E6ECEE0914F0C93
:103CA000F091500C82899389879752CD14FF2AC0D6
:103CB000D12CC12CF12CE12C0F9486772091D81EA9
:103CC0003091D91E4091DA1E5091DB1E62177307A6
:103CD0008407950708F4C0C21091DF1E1F7E109361
:103CE000DF1E1092C81E1092C71E00919C0E802FDE
:103CF0008370813009F408C3811104C01092A61E9C
:103D0000F4E629CE64E670E07093C81E6093C71E87
:103D100011FF09C04090A41E2091281D421618F0E2
:103D2000812C912C54019091891FB92FBC7009F0FE
:103D300005C19091DF0E97FD9BC18091DC1EB4E61A
:103D4000B093C91E6091C11E70E08AEE9BE00F9493
:103D50009D50A82F8093CB1E90919C0E92FFD3C0B4
:103D60005090B40E859D200111245092320940924A
:103D7000310914E61093CB1E6091B41E7091B51EEC
:103D8000685D7F4F8AEC9BE00F949D508093CC1E22
:103D90008436C1F0A82FB0E0A50194010F94109DC6
:103DA0002EE33AE047ED53EA0F94659D00E20F944D
:103DB000929D49015A0146E0B694A794979487943E
:103DC0004A95D1F76091A31E70E08AEB9BE00F94B7
:103DD0009D508093CD1E8436C1F0A82FB0E0A50180
:103DE00094010F94109D2EE33AE047ED53EA0F94AF
:103DF000659D00E20F94929D49015A0136E0B69408
:103E0000A794979487943A95D1F77090BF0E71FC60
:103E100050C154E65093CF1E74E67093D01ED090DC
:103E2000F71ED11035C0F090F61EF11031C0F4E647
:103E3000F093CE1E77FC4CC01091DC1E1F7E1093B9
:103E4000DC1E5090DC1E54FC10C1D501C4018D3D18
:103E500045E09407A105B10520F08CED95E0A0E0C8
:103E6000B0E068960FB6F894DEBF0FBECDBFDF910D
:103E7000CF911F910F91FF90EF90DF90CF90BF9067
:103E8000AF909F908F907F906F905F904F9008952C
:103E9000A091BD1FAC59A093CE1EA43659F2B0E03C
:103EA000A50194010F94109D2EE33AE047ED53EAEB
:103EB0000F94659D00E20F94929D49015A0186E09E
:103EC000B694A794979487948A95D1F777FEB4CF48
:103ED0000091DC1E04FF5AC13091521D8AE0389FC8
:103EE000200111240091901E1091911E4016510640
:103EF00038F4B091A41E9091541DB91708F4A0C1D4
:103F000010921D0499CFA43609F436CFB0E0A50174
:103F100094010F94109D2EE33AE047ED53EA0F947D
:103F2000659D00E20F94929D49015A0156E0B694B6
:103F3000A794979487945A95D1F71ECFF091AE1E0F
:103F4000F093D21E5090F01E6090931F651408F4F9
:103F500095C06091DF0E67FD91C0C090DC1EC4FC6F
:103F6000EECEBB2309F4EBCEE091C91E0091E5072C
:103F70001091E607A0913709B09138090A171B077D
:103F800008F455C04091E5075091E60720918E1F37
:103F9000240F352F311D3093380920933709209194
:103FA0008D1F2752330B4091B01E5091B11E421706
:103FB00053070CF4C4CE1091941FB4E61B9F7001FC
:103FC00011244091901E5091911EE416F50608F0C0
:103FD000B7CE5091A41E7090951F751608F4B0CE00
:103FE0001091AE1ED090921F1D1508F0A9CEF09032
:103FF000911FF11608F0A4CE7091F01E4090931F0F
:10400000471608F09DCE2091DC1E24FD99CE9370BA
:1040100009F049C2F11708F052C48091901F90E056
:104020008D599F4FE817190609F00CF4EF5FE093E4
:10403000C91EE43609F486CEAE2FB0E0A501940186
:104040000F94109D2EE33AE047ED53EA0F94659DDF
:1040500000E20F94929D49015A0166E0B694A7943C
:10406000979487946A95D1F76DCE90E080E0F9CE71
:104070003091AE1E3093D21E8091F01EC090901EE3
:10408000D090911EE090311FF090321F08E517E1AB
:1040900028E337E148E356E160E181E396E10F94DC
:1040A000ED7AF82F8093D21E9091891FB92FBC70A2
:1040B00054CF6091D61E70E08AE59BE00F949D502E
:1040C0008093CF1E8436C1F0A82FB0E0A5019401E3
:1040D0000F94109D2EE33AE047ED53EA0F94659D4F
:1040E00000E20F94929D49015A0126E0B694A794EC
:1040F000979487942A95D1F77090BF0E71FE8CCE5D
:104100006091D71E062E000C770B685D7F4F8AE208
:104110009BE00F949D508093D01E8436C1F0A82F51
:10412000B0E0A50194010F94109D2EE33AE047ED15
:1041300053EA0F94659D00E20F94929D49015A0144
:1041400096E0B694A794979487949A95D1F7709037
:10415000BF0E65CE18601093DF1E685D7F4F8AE446
:104160009CE00F949D501091DF1E8093CA1E74E650
:10417000872E912CA12CB12C843609F419CB00CBBD
:10418000E0914D0CF0914E0C8289EFCFE091A41E8E
:104190002091541DE21708F0B3CE8091FE0E885294
:1041A000990B2091B01E3091B11E281739070CF4DD
:1041B000A7CEE090521D8091531D90E06AE0E69EEC
:1041C000800D911D11246090901E7090911E861597
:1041D000970508F095CEA0911D04C090FD0EAC157A
:1041E00078F54091D10642FF27CEAF5FA0931D0422
:1041F00023CEF2FE07CC0F5F0093160403CC409150
:10420000DF1E5090990E60901504651408F44AC0A2
:10421000142F1B7F1093DF1E54E65093481F4270EB
:10422000742E26CBF12CE12C47CD1092A81E84E6EB
:1042300090E09093C81E8093C71E1091DF1E68CD3A
:104240005091DC1E50615093DC1EFBCDE0914D0C73
:10425000F0914E0C818589CFF091C71E8091C81EC8
:10426000AF2FB82F00919C0E902F93701091DF1EEE
:10427000913009F44EC091117FCB3091A61E409130
:104280001704431708F04FC01F7E1093DF1E63CB47
:104290001092A81E14FF1CCCD12CC12C0DCD109255
:1042A000A61E55CB44604093DF1E6091B01E7091F6
:1042B000B11E685D7F4F8AE39CE00F949D506C01B6
:1042C000990FEE08FF080091150422273327A90152
:1042D0002C193D094E095F09A02FB0E00F94109DE5
:1042E0002091990E30E050E040E00F94959C2C0D09
:1042F0003D1D4E1D5F1D2C593F4F0F5F0093150450
:104300008CCA1092A61E93CF1092A81EF4E680E0ED
:10431000E1CB5090A81E60901804651438F41F7EFD
:104320001093DF1ED7CB14FD27CB15CB14FD24CB68
:10433000D1CB10611093DF1E1091A61E10931704AD
:104340000F9486776B017C012091AD0E30E0A0E1E7
:10435000B7E20F94239DC60ED71EE81EF91EC09229
:10436000D81ED092D91EE092DA1EF092DB1E609128
:10437000A61E70E08AE69CE00F949D507C0150914F
:10438000D40E14E6519FA00111247090D50E2091F7
:10439000901E3091911E42175307C0F5719EF00197
:1043A0001124E217F30708F484C2241B350BA4E69A
:1043B000B0E00F94239D9F01241B350B032E000CAE
:1043C000440B550B0F94C89C121B212F30E0D701D2
:1043D0000F945E9D2EE33AE047ED53EA0F94659DFE
:1043E00000E20F94929D29873A874B875C876D87FF
:1043F0007E878F87988BE984FA840B851C8586E0FD
:1044000016950795F794E7948A95D1F78091B01E99
:104410009091B11E6091C00E70E08B01085211099D
:10442000801791070CF032CCE0919B0EF0E02091C8
:104430009A0EDF0197978A179B07A4F08896AC0124
:104440004E1B5F0B34E6349FC001359F900D112445
:104450006E1B7F0B0F94819C361BE22FE456FF0BE3
:10446000DF01E0CB30E0D7010F945E9D2EE33AE010
:1044700047ED53EA0F94659D00E20F94929D2987C2
:104480003A874B875C876D877E878F87988BE98417
:10449000FA840B851C85B6E016950795F794E7948A
:1044A000BA95D1F7F3CB923009F049CCA091901F87
:1044B000CA2ED12CF12CE12CB0E0B195A195B10917
:1044C0000091DC1CBD010B2E000C880B990B6C15A8
:1044D0007D058E059F050CF061C028EE33E00F943A
:1044E0005E9D2B013C014092D41C5092D51C6092E1
:1044F000D61C7092D71CA8EEB3E0A70196010F94CA
:10450000109D6093D81C7093D91C8093DA1C9093F3
:10451000DB1C002309F442C0A091C01CB091C11C57
:10452000CD90DD90ED90FC9013976C157D058E0578
:104530009F050CF0EDC16D937D938D939C93139724
:104540001091AE1E4091C81C5091C91C6091CA1CAC
:104550007091CB1C8091D81C9091D91CA091DA1C31
:10456000B091DB1C84179507A607B7076CF0809104
:10457000D41C9091D51CA091D61CB091D71C481783
:1045800059076A077B0744F48093C81C9093C91CA1
:10459000A093CA1CB093CB1CF091D21E80918C1FAB
:1045A00040918B1FC0908A1FD12CF12CE12CC0921E
:1045B000A41CD092A51CE092A61CF092A71C50E06F
:1045C00070E060E04093A81C5093A91C6093AA1C63
:1045D0007093AB1C482E512C712C612C4092AC1C5A
:1045E0005092AD1C6092AE1C7092AF1CC092B01C79
:1045F000D092B11CE092B21CF092B31C4093B41C58
:104600005093B51C6093B61C7093B71C2AE0829F30
:10461000C0011124092E000CAA0BBB0B8093B81CFF
:104620009093B91CA093BA1CB093BB1C2091BC1CE6
:104630003091BD1C2130310571F5F094E094D09497
:10464000C094C11CD11CE11CF11CC092B01CD092C2
:10465000B11CE092B21CF092B31C7095609550951D
:1046600041955F4F6F4F7F4F4093B41C5093B51CE3
:104670006093B61C7093B71CB095A09590958195EA
:104680009F4FAF4FBF4F8093B81C9093B91CA0931E
:10469000BA1CB093BB1C812F90E0B0E0A0E08093E7
:1046A000A01C9093A11CA093A21CB093A31C8F2FBD
:1046B00090E0B0E0A0E08093981C9093991CA093A8
:1046C0009A1CB0939B1C002309F4B1CCFFB7F8945B
:1046D000E0908B0CF0908C0C00918D0C10918E0C56
:1046E000E98AFA8A0B8B1C8BFFBF4090C41C509048
:1046F000C51C6090C61C7090C71CE418F50806091C
:104700001709D801C7018093D01C9093D11CA093A6
:10471000D21CB093D31CE091BE1CF091BF1C008151
:1047200011812281338109871A872B873C87E09189
:10473000C21CF091C31C80819181A281B3817C0154
:104740008D0129853A854B855C85E21AF30A040BB5
:10475000150BED8AFE8A0F8B188F6091B41C709137
:10476000B51C8091B61C9091B71CA80197010F94BD
:10477000329DE090C81CF090C91C0091CA1C109199
:10478000CB1C2B013C014E0C5F1C601E711E409225
:10479000C81C5092C91C6092CA1C7092CB1CC0905D
:1047A000D81CD090D91CE090DA1CF090DB1CC4140B
:1047B000D504E604F7040CF092C0C092C81CD09255
:1047C000C91CE092CA1CF092CB1C260137016091F3
:1047D000B01C7091B11C8091B21C9091B31C2D89BA
:1047E0003E894F89588D0F94329D460E571E681E84
:1047F000791E6091CC1C7091CD1C8091CE1C909143
:10480000CF1C29853A854B855C85261B370B480BC9
:10481000590B6091B81C7091B91C8091BA1C909191
:10482000BB1C0F94329D461A570A680A790AC414B1
:10483000D504E604F7047CF0C090D41CD090D51CBD
:10484000E090D61CF090D71CC414D504E604F704FD
:1048500014F4730162016090C01C7090C11CC70108
:10486000B60128EE33E040E050E00F94959CD30170
:104870002D933D934D935C931397C984DA84EB8415
:10488000FC84C092CC1CD092CD1CE092CE1CF09245
:10489000CF1C49895A896B897C894093C41C5093E9
:1048A000C51C6093C61C7093C71CE0919C1CEC59FE
:1048B000BECBF12CE12CAACDF12CE12C87C91F171E
:1048C00008F0B5CB3091901F84E690E0831B9109EE
:1048D000E817190609F00CF4AACBE150A8CB809197
:1048E000D41C9091D51CA091D61CB091D71C481611
:1048F00059066A067B060CF06ACF8093C81C909319
:10490000C91CA093CA1CB093CB1C2C013D015FCFE6
:10491000C414D504E604F7040CF014CE4D925D9255
:104920006D927C9213971091AE1E0CCE833023E0D3
:10493000920709F4F7C258F1813123E0920709F494
:10494000D9C208F060C08A3023E0920709F4DEC2C1
:1049500008F0E8C0863023E0920709F461C208F449
:104960004BC2883023E0920709F4B7C108F4F5C3BD
:104970005091031F51FF06C060912E0874E0672715
:1049800060932E08A0912E08A2FFD9C108958C3003
:1049900022E0920709F4D6C2D8F4853022E09207CB
:1049A00009F4E0C208F0D2C0813022E0920709F495
:1049B0006BC208F4D5C1833022E0920709F46DC1BF
:1049C00008F4A7C35091031F51FFE0CF0C9463D0AC
:1049D000833122E0920709F49FC208F46BC087314B
:1049E00022E0920709F43DC308F0F5C0853122E0CA
:1049F000920709F41CC108F4ECC27091031F71FF07
:104A0000C5CF0D945B2D883123E0920709F4B6C21F
:104A100008F46EC0833029E9920709F44BC208F00C
:104A2000AFC0813029E9920709F417C108F035C3F6
:104A30008115994909F0C1C3F8948091870887FDD1
:104A40008C5F18160CF09FC3082E000C990BFC010C
:104A5000EE0FFF1FEE0FFF1FE451F84F2081318151
:104A600042815381880F991F880F991FFC01E851DB
:104A7000F84F80819181A281B381281B390B4A0BA9
:104A80005B0B7894211531054105510509F47ECF62
:104A900060E077E883E993E00F94C89C3093010FBE
:104AA0002093000F0F94476CA0912B1FA860A09338
:104AB0002B1F08958F3022E0920709F4EBC108F410
:104AC0005EC1813122E0920709F49FC008F43FC320
:104AD0007091031F71FF06C0A0912F0890E2A927D3
:104AE000A0932F08B0912F08B5FD50CF0D94DB2F68
:104AF000843123E0920709F4A8C208F46EC186311C
:104B000023E0920709F48DC008F447C23091031FD7
:104B100031FF3CCF0F943F1B40912E084F774093BD
:104B20002E0808958D3023E0920709F49BC108F404
:104B30003BC18F3023E0920709F4BFC008F498C14D
:104B40009091031F91FF22CF0D943F21883022E0E6
:104B5000920709F432C208F4F4C08A3022E09207C6
:104B600009F475C008F489C29091031F91FF0ECF1C
:104B70000F94A22CA0912F08A77FA0932F0808952F
:104B8000853029E9920709F4B4C008F42EC28630B2
:104B9000994909F011C32091491F30914A1F2115ED
:104BA000310509F4F3CEA0E1B7E20F94239D2091E3
:104BB000901E3091911E50E040E00F94C89C3093BD
:104BC0000E0F20930D0F0F94476C90912B1F986040
:104BD00090932B1F0895813023E0920709F4A9C018
:104BE00008F0A3C28831924009F0E5C2F091031F9A
:104BF000F1FF05C080912F08805880932F082091E5
:104C00002F0827FDC3CE0D94722CE091031FE1FF06
:104C1000BDCE0F94DB2FF0912F08FF7DF0932F086E
:104C200008955091031F51FFB1CE0D94671CA091C0
:104C3000031FA1FF06C0B0912F0890E4B927B093DD
:104C40002F08E0912F08E6FDA1CE0D94252EB091FE
:104C5000031FB1FF9BCE0D948A2D2091491F3091E7
:104C60004A1F2115310509F491CEA0E1B7E20F9456
:104C7000239D2091901E3091911E50E040E00F94B2
:104C8000C89C3093040F2093030F0F94476CE0915E
:104C90002B1FE860E0932B1F08956091031F61FFB5
:104CA00006C070912F0891E0792770932F08A0918A
:104CB0002F08A0FD6BCE0C9498D0F091031FF1FF4C
:104CC00006C080912E0820E1822780932E08309123
:104CD0002E0834FD5BCE0D948222B091031FB1FFEC
:104CE00055CE0F94F41DE0912E08EB7FE0932E0833
:104CF00008952091491F30914A1F2115310509F46B
:104D000045CEA0E1B7E20F94239D2091901E3091F3
:104D1000911E50E040E00F94C89C30930C0F2093FC
:104D20000B0F0F94476C20912B1F286020932B1F93
:104D300008955091031F51FF29CE0D94FC230D942B
:104D4000F41D863022E0920709F46FC1873092404B
:104D500009F035C2E091031FE1FF18CE0D943F2FFB
:104D6000811521E0920709F4B8C18130914009F022
:104D700025C28091031F82608093031F08958D30A8
:104D800022E0920709F4DDC18E30924009F011C291
:104D90003091031F31FFFACD0F94263140912F0837
:104DA0004F7E40932F0808958B3023E0920709F43B
:104DB0004DC08C30934009F003C23091031F31FF86
:104DC00006C040912E0858E0452740932E08609178
:104DD0002E0863FDDBCD0D948A1B823123E0920700
:104DE00009F4C1C18331934009F0E4C16091031F0C
:104DF00061FFCCCD0D94D21E843023E0920701F1E7
:104E00008530934009F0D4C18091031F81FFBECD4E
:104E10000F94612020912E082D7F20932E08089555
:104E20009091031F91FF06C0F0912E0882E0F827B1
:104E3000F0932E0820912E0821FDA8CD0D9461201D
:104E40003091031F31FFA2CD0D948F217091031F6C
:104E500071FF9CCD0F948A1BA0912E08A77FA09371
:104E60002E0808954091031F41FF90CD0D94AC236F
:104E7000B091031FB1FF8ACD0F948222E0912E08DA
:104E8000EF7EE0932E080895B091031FB1FF7ECD11
:104E90000C94CED08091031F81FF06C020912F0873
:104EA00030E1232720932F0840912F0844FD6ECD39
:104EB0000D9426312091491F30914A1F211531054B
:104EC00009F464CDA0E1B7E20F94239D2091901ED8
:104ED0003091911E50E040E00F94C89C3093080F31
:104EE0002093070F0F94476C30912B1F386030933D
:104EF0002B1F08957091031F71FF48CD0F9415204B
:104F000080912E088F7D80932E0808955091031F65
:104F100051FF3CCD0D94B61CA091031FA1FF36CDCF
:104F20000D940F2FA091031FA1FF06C0B0912E0872
:104F3000E1E0BE27B0932E0890912E0890FD26CD7B
:104F40000D94CE22B091031FB1FF06C0E0912F084F
:104F500098E0E927E0932F08F0912F08F3FD16CD94
:104F60000D94A22C8091031F81FF10CD0E942DD0A3
:104F700020912F082D7F20932F0808954091031F23
:104F800041FF05C050912E08505850932E08609153
:104F90002E0867FDFBCC0D943F1B9091031F91FFE2
:104FA00006C0F0912E0880E4F827F0932E08209197
:104FB0002E0826FDEBCC0D94A81DE091031FE1FF08
:104FC000E5CC0F94562EF0912F08FB7FF0932F081D
:104FD00008955091031F51FFD9CC0F94252E609155
:104FE0002F086F7B60932F0808952091491F3091FF
:104FF0004A1F2115310509F4C9CCA0E1B7E20F948D
:10500000239D2091901E3091911E50E040E00F941E
:10501000C89C30930A0F2093090F0F94476CF091AE
:105020002B1FF860F0932B1F0895F091031FF1FFE1
:1050300006C080912F0822E0822780932F083091AC
:105040002F0831FDA3CC0C942DD06091031F61FF7C
:105050009DCC0F94A81D70912E087F7B70932E0815
:1050600008956091031F61FF91CC0F94722C709191
:105070002F087F7770932F0808954091031F41FFF9
:1050800006C050912F0864E0562750932F08709166
:105090002F0872FD7BCC0D94562E2091491F309124
:1050A0004A1F2115310509F471CCA0E1B7E20F9434
:1050B000239D2091901E3091911E50E040E00F946E
:1050C000C89C3093060F2093050F0F94476CB09146
:1050D0002B1FB860B0932B1F08952091031F2D7FC5
:1050E0002093031F0F94CE220F9461200F94F41D80
:1050F0000F948A1B0F9482220E9498D00E942DD078
:105100000F94562E0F94A22C10922F0810922E0856
:1051100008953091031F31FF39CC0E9498D04091FF
:105120002F084E7F40932F0808953091031F31FFC1
:105130002DCC0F94CE2240912E084E7F40932E0806
:1051400008955091031F51FF21CC0D94C0316091FF
:10515000031F61FF1BCC0D9475304091031F41FF6D
:1051600015CC0D94221F7091031F71FF06C0A091F2
:105170002E08B0E2AB27A0932E08E0912E08E5FDA3
:1051800005CC0D9415202091EC073091ED0740914E
:10519000EE075091EF078091F8079091F907A091E1
:1051A000FA07B091FB07281B390B4A0B5B0B69CC44
:1051B0000895089508950895089508950895089507
:1051C0000895982F803110F00F94E09EE82FF0E0C2
:1051D0008827E251F74D8F4F0D944E9D3429362983
:1051E0001C293C2943294929502956297E29BB29B4
:1051F000C229C929D129F129FE282329603281E059
:105200007807F8F488E797E16F3F710509F008F433
:1052100020C16031F1E07F0708F045C17727660FB4
:10522000771F680F791FFB01E95FFE4F6081718175
:1052300082E892E00C942313603221E0720708F4B4
:10524000D7C080E008956035710508F4D7C06F3F7E
:10525000710509F0B0F76055710929EA3CE0620F69
:10526000731FFB0180810895892F089560387105AF
:1052700040F729E93EE0F3CF603231E0730708F7E9
:105280008FEB98E1C1CF60387105D8F626E13DE19A
:10529000E6CF603281E07807A0F681E396E1B4CFF3
:1052A0006038710570F629E83FE1D9CF60357105A6
:1052B00008F4A7C0603A710508F4AEC0603F7105FC
:1052C00008F0BFCF605A7109AAECB5E1262F60340F
:1052D000710508F4B5C06834710508F0F3C02054B6
:1052E000E22FF0E0EE0FFF1FEA0FFB1FE95BFF4F1D
:1052F0006081718182E892E00C9423136033710520
:1053000008F482C06036710508F48BC060397105FD
:1053100008F4B6C0603C710508F4F1C0603F710547
:1053200008F4F2C06032E1E07E0708F4F2C06035B4
:10533000F1E07F0708F4F2C0603821E0720708F05E
:1053400080CF60557140AFEAB1E1262F643271051C
:1053500008F489C06A32710508F097C0245230E021
:10536000220F331FA20FB31FFD0163A574A582E8AE
:1053700092E00C942313603C710508F062CF29ED94
:105380003DE06DCF603C710508F05BCF2FEC3DE157
:1053900066CF603231E0730708F053CF86E09AE1C0
:1053A00033CF6035710538F1603A710580F1683BA3
:1053B000710508F046CF605A710960317105B0F18E
:1053C0006431710508F08CC06051E62FF0E0EE0FFB
:1053D000FF1FE156FE4E6081718182E892E00C94DD
:1053E00023136038710508F02CCF29E53DE037CF55
:1053F0008DE49BE109CFA7ECB3E168CFACEFB4E15A
:1054000065CFA3E6B5E162CFA4E8B3E19ECF6055D6
:105410007109AEE2B4E15ACF60557109A5E9B4E172
:1054200055CF60537109A1E4B3E18FCFE62FE3704C
:10543000EA5FEE0FE61BF0E0E857FE4E8781089525
:105440002770245E220F261BA20FB11DFD0187814C
:105450000895762F7F707858770F761B870F911DF0
:10546000FC01878108953BEA639F412D11244695F5
:105470004695542F550F450F440F241B215FE2CF53
:1054800060567109AEEFB2E160CF2A5230E0220FD0
:10549000331FA21BB30BFD01EF5BFF4F8081918196
:1054A0009595879508956051262F30E0220F331F80
:1054B000821B930BFC01EB5BFE4F808191819595E4
:1054C00087950895285430E0220F331FA21BB30B99
:1054D000FD01EB59FF4F8081918195958795089546
:1054E0006451E62FF0E0EE0FFF1FF195E195F10911
:1054F000E355FE4E80819181959587950895605979
:105500007109ABEBB2E121CF605C7109A8E7B2E1B0
:105510001CCF605F7109A5E3B2E117CF6052714003
:10552000A2EFB1E112CF803110F00F94E09EE82F8E
:10553000F0E08827E156F54D8F4F0D944E9DF12AEE
:105540000B2B122B1A2B222B292B312B382BAF2A6A
:10555000652B6C2B732B932BBC2BF22AFA2A60330E
:10556000710508F423C16036710508F42CC1603957
:10557000710508F460C1603C710508F4A3C1603F87
:10558000710508F4A4C1603281E0780708F4A4C171
:105590006035E1E07E0708F4A4C16038F1E07F07E0
:1055A00000F560557140AFEAB1E1862F64327105B4
:1055B00008F42DC16A32710508F042C18452E82F07
:1055C000F0E0EE0FFF1FEA0FFB1F34E6439FC00120
:1055D000112494A783A74FEF5FE713965C934E9334
:1055E000129708956032E1E07E0708F0D4C0A8E782
:1055F000B7E180C06035710508F4CFC06F3F710519
:1056000009F078F76055710989EA9CE0680F791F05
:10561000FB01408308956038710508F0B6C089E940
:105620009EE0F4CF603281E0780708F0B3C0ADE4CB
:10563000BBE160C06032E1E07E0708F0AAC0AFEBDA
:10564000B8E158C06038710508F0A2C086E19DE15C
:10565000DDCF6032F1E07F0708F099C0A1E3B6E149
:1056600049C06038710508F091C089E89FE1CECF4C
:105670006035710508F497C0603A710508F49EC062
:10568000603F710508F0ADCF605A7109EAECF5E1B1
:10569000862F6034710508F4A5C06834710508F0E0
:1056A000F0C08054A82FB0E0AA0FBB1FAE0FBF1FE1
:1056B000A95BBF4F74E6479FB00111246D937C93A3
:1056C0008FEF9FE7938382830895603C710508F014
:1056D0005BC089ED9DE09ACF603C710508F053C036
:1056E0008FEC9DE193CF603281E0780708F04AC0EB
:1056F000A6E0BAE16F3F710509F008F47EC06031A1
:10570000E1E07E0708F0ACC0FB01FF27EE0FFF1FB2
:10571000EA0FFB1FE95FFE4F54E6459F90011124FD
:105720003183208358CF60357105D0F1603A71051F
:1057300008F43FC0683B710508F053CF605A710907
:105740006031710508F444C06431710508F0A9C0E6
:105750006051E62FF0E0EE0FFF1FE156FE4E24E60B
:10576000429FA0011124518340836FEF7FE7709324
:105770008B1160938A1108956038710568F489E58A
:105780009DE044CF089508950895089508950895DB
:1057900008950895089508950895ECEFF4E178CF01
:1057A000E7ECF3E175CFE3E6F5E172CFA4E8B3E10E
:1057B000FCCE60557109EEE2F4E16ACF60557109E3
:1057C000E5E9F4E165CF60537109A1E4B3E1EDCE01
:1057D000E62FE370EA5FEE0FE61BF0E0E857FE4EBF
:1057E0004783C3CFA62FA770A45EAA0FA61BAE0F38
:1057F000BF2FB11D17964C9363CFE62FEF70E8587B
:10580000EE0FE61BEA0FFB2FF11D4783E4CE8BEA78
:10581000689F812D112486958695982F990F890F61
:10582000880FE62FE81BE15FEE0FE61BEA0FFB2F68
:10583000F11D4783D0CE60567109AEEFB2E1B5CE0F
:105840008A5290E0880F991FFD01E81BF90BEF5B6E
:10585000FF4F842F90E0880F991F91838083BBCEE8
:105860006051862F90E0880F991FFD01E81BF90B0E
:10587000EB5BFE4F842F90E0880F991F918380830C
:10588000AACE885490E0880F991FDF01A81BB90B9E
:10589000AB59BF4F842F90E0880F991F8D939C9335
:1058A0000FCF6451E62FF0E0EE0FFF1FF195E19569
:1058B000F109E355FE4E842F90E0880F991F9183E4
:1058C000808353CF60597109ABEBB2E16ECE605C5F
:1058D0007109A8E7B2E169CE605F7109A5E3B2E1A1
:1058E00064CE60527140A2EFB1E15FCEFF920F93A0
:1058F0001F93CF93DF931F92CDB7DEB7898380E0EC
:105900000F94C06681E00F94C06689810F94C066D1
:105910008FEF9FEFDC018093092090930A20A093E2
:105920000B20B0930C2041E0BE016F5F7F4F89E0F8
:1059300090E20F943B67162F072FF82E892F0F94B4
:10594000C0668F2D0F94C066802F0F94C066812F84
:105950000F94C0660F90DF91CF911F910F91FF9030
:105960000895EF92FF920F931F93CF93DF9300D090
:105970001F921F92CDB7DEB79091DC1E96FD05C039
:10598000E0900604EE2009F4E6C00091DC1E0F7BD7
:105990000093DC1E082F10E0882309F4B6C00F37EF
:1059A00011050CF0E0C02FE3E22EF12C60C0891B42
:1059B000990B019705970CF46AC0F801EE0FFF1FD1
:1059C000EE0FFF1FEC55FB4F4081518162817381C7
:1059D0004093AA025093AB026093AC027093AD0265
:1059E000872F9927AA27BB278D836C835B834A83E4
:1059F0000F94C0668C810F94C0668B810F94C06633
:105A00008A810F94C06640E0BE016B5F7F4F89E0E2
:105A100090E20F943B6740E0BE016C5F7F4F89E0EE
:105A200090E20F943B6740E0BE016D5F7F4F89E0DD
:105A300090E20F943B6740E0BE016E5F7F4F89E0CC
:105A400090E20F943B67F801EB5DFB4F8081898307
:105A50000F94C06640E0BE016F5F7F4F89E090E227
:105A60000F943B670F5F1F4F0F37110519F190918E
:105A7000D10F8091D20F981708F499CF9701291B65
:105A80003109820F932F911D05970CF096CF00934B
:105A9000A40C31E030930604109207040F900F908D
:105AA0000F900F900F90DF91CF911F910F91FF906A
:105AB000EF900895DC01CB0180959095A095B0956D
:105AC000182F092FFA2E8B2F2091DC1E2F7B20936D
:105AD000DC1E10921F0910921E09109204041092ED
