:100000000C94EE100D947B430D9450430D942543B6
:100010000D94FA420D94CF420D94A4420D9479426E
:100020000D944E420C941F110C941F110C941F112F
:100030000C941F110C941F110C941F110D94CE36AB
:100040000C941F110C94CF540C94C5520C94EFCC0B
:100050000C941F110C941F110C941F110D94996096
:100060000C941F110D940E450D94CE440C941F1149
:100070000C941F110C941F110C941F110C941F1140
:100080000D9459340D94DE330D9463330C941F1189
:100090000C941F110C941F110C941F110C941F1120
:1000A0000C941F110C941F110D94182F0D94E8320D
:1000B0000D94262E0C941F110C941F110D94F431E5
:1000C0000D9400310D940C300C941F110C941F11E1
:1000D0000C941F110C941F110D9497440D945744C8
:1000E0000C941F110D94DD0A0D94AD3E0C949B579A
:1000F0000C94165B0D94C40B0D94BF3E0D94D43E2E
:100100000C9456490D94E3410D94EC020C94EE1FAF
:100110000C9444490C9451580D949E090D94E53F5C
:100120000C943D5B0C94885B0C9465490C94829F05
:100130000D94D5790C94A28D0C94A1940D940F3E3E
:100140000C94A3810C94676D0D94373E0D94493F38
:100150000D94763E0D94FA770C9421460C9451B987
:100160000D9449440C9410700C9477490C9484F0CD
:100170000D94DA500D9454140D94C9430D94A62691
:100180000D94D63F0C947AC60C9438680D94463E74
:100190000D94D03F0C94F75A0C9454250C94ADC197
:1001A0000C9449730C94327E0C94FD690D94223F9B
:1001B0000D94C8500D942B4F0C940C5B0D946D3E18
:1001C0000D94B33E0C94945A0C9462A70D947C0E3B
:1001D0000C945B990D94E30D0C944B820D943D3E71
:1001E0000D9402070D94FB050D94CB430C940B97D3
:1001F0000D943A3E0C941F980C9456250C941BEACF
:100200000D943C120D94CF430D94133F0D94613E19
:100210000D9408790C945B140D94C4680D94923F6E
:100220000C9401260C94AA6E0D946A3E0C940E5701
:100230000C946B490D94F7410D949E500C9490686A
:100240000D9497080D9494260D94C5610D94AE26D7
:100250000C9411C00D941E3E0C9474490C949BFD9B
:100260000C940C120D94E63E0D94B10F0D940C3EBF
:100270000C947F850C949E780D94FB3E0D94223E49
:100280000D94C03F0C9409C40C948E770C94E36FCA
:100290000D94A2260C9441250C948A9C0D9410096F
:1002A0000C94A9680D94823E0C9463250C94231140
:1002B0000C9452BF0C9438490C94287A0D947A0C03
:1002C0000D947A130D94913E0C947C570C94322724
:1002D0000D94E0500C9495110D9498260D948E3E3B
:1002E0000C949FFF0C94EC800C9430580D94523E6B
:1002F0000C9442570C9409260C9460570D94E650C8
:100300000D94224E0C948BEB0D94583E0D94793E37
:100310000C9401150C94A7FE0C94F1BD0D94A27ED3
:100320000D947F3E0C9450490C9481800C94A4BC95
:100330000D9496500D94EC3F0C9454AF0D943E16D2
:100340000C94FF8E0D9435440C94FDA80D94183E2A
:100350000C94A5F00D94153E0D94437E0C944A8C9C
:100360000C94C5570D94CE500C9453830C94463383
:100370000C940C270C947D5B0C94A2700C94D61AF0
:100380000D94F3170D94F63F0C9474C20C944C81A9
:100390000D94AC000C948E180D94F66B0D94193FCF
:1003A0000D94103F0C94EE430D94CB3E0D948F3F73
:1003B0000C9489880C94B4980C94247A0C945D99CC
:1003C0000C946A120D942D0D0C9404580D94C23E99
:1003D0000C946E570D945B3F0D94DA140C94A7782F
:1003E0000D949A400C947AAD0C94953D0D94BD18E3
:1003F0000C9403680C945B440C94B9250D94D93F7C
:100400000D94C83E0C9481820D94636C0D94163F3C
:100410000D9429440C94C2C30C94ECC70D94013F75
:100420000C94B7190C94256D0C947C270D94A24B59
:100430000C94F1D10C940C9C0C943AC40C946AFC6E
:100440000D94A4010D947B040C9443800C9424BA65
:100450000C940C3F0D9482050C9421110D94B03E28
:100460000C949A110C94797C0D94857E0D942E3EFB
:100470000C948F7C0C940B270D94D0100D941C3F82
:100480000C94CA930C94CABB0D949A4E0C9467407A
:100490000D94620D0C94E2FE0C9472700D949567AD
:1004A0000C94AE6F0D94493E0C94AD780D94B63E0D
:1004B0000C9439270D94AA260D9437110C94F4341A
:1004C0000C94AE650C9459490D945E3E0D94A45065
:1004D0000C94CD6D0D94C2500C9483430C94A7B929
:1004E0000C947E7D0D94253E0D944F4F0D94D45069
:1004F0000C9439930C94F3250C9471490C94EC5A98
:100500000C946A6E0D94A8260C947D250D94C53E1E
:100510000D940A440C94CC5A0D94D24B0C94F7BA17
:100520000C943C1F0C9486690C941B270C94515717
:100530000D94D13E0D949E4C0D94217A0C946249F9
:100540000C943B6E0C940CD00D94C63F0D943D441E
:100550000C94871D0C94A7270D94DD3E0C9495D127
:100560000D949A260C9413270C94386A0D948940A4
:100570000D94553E0C943E950C94C9260D94FC3F69
:100580000D9495500D9489060C9447490C9483253D
:100590000C9441270C9448270C940F9F0C948CBA10
:1005A0000C944E780C94C9340D94BC500D94F53EC7
:1005B0000C9441490C94DE370C94735B0D94E93E26
:1005C0000C94F0690D94DC180C9406130C94A56F30
:1005D0000D94A26B0D944C3E0D94A5120D948717AB
:1005E0000C9494970C9494120D94BB7E0D94D0159A
:1005F0000D946C3F0D94C33F0C9440BC0D94A90323
:100600000C94256A0C94366E0D94CE3E0C9457943F
:100610000D94883E0D94733E0C945DBD0C9414F1C2
:100620000D94123E0C9486860D946E400C94B47812
:100630000C9488700D94BB110D94E33E0C94E07CF7
:100640000D94F93F0D94333F0D94FE3E0C94E25A05
:100650000D94B37E0C9405AA0D949B400C94F7C0A6
:100660000D94423F0C94DCC20D948F0B0D94962692
:100670000C9480800C94FBC40D94B0260C941C7ECA
:100680000D94B94F0C94737D0D940A3F0D94673E01
:100690000C942A270C944CA40D94EF3E0C945C25EA
:1006A0000D94B6500C94D56F0C9431780D94DC3FBA
:1006B0000C94A5FC0C94A3940D94B0780C948EA289
:1006C0000D947C3E0D94F23E0C9448450D94359665
:1006D0000D94B93E0C94A3EA0C94E0910C94909084
:1006E0000D94703E0D94997E0C949C9E0C9415670D
:1006F0000C948C1B0D94CD430D942B3F0D941F3FF8
:100700000C948B960C94EDAD0D94F33F0C944D49E5
:100710000C9414120C9468490C9434570C94585B44
:100720000D94440C0C9407D10D94D3430D942B3E9F
:100730000D94B10E0C9499680D94D33F0C941D57F1
:100740000D94584D0D94283E0C946E490D94253F00
:100750000D94BC3E0D94E03E0C9456160C945349F7
:100760000C9412580C94CC7C0D9476020C944A781C
:100770000D94E7000D941B440D94F03F0C94A2944B
:100780000C94556A0D94853E0C946BFC0C945BBFE5
:100790000D94A4260D94ED030D94B73F0C94DFFD4A
:1007A0000D9465030D94F4040C947EC80D94846C30
:1007B0000D94AB7E0D948B3E0C94B3EF0D949A5038
:1007C0000C94ADBD0C94FAEA0C9478C00C947DD2D4
:1007D0000D94A0260C94205B0C94DBCE0D949E26E9
:1007E0000C9487270C94E8690D941C6B0D94905021
:1007F0000C94E99D0D94D73E0C9466870C944A495D
:100800000C94E0FC0C94C8990C945C990D94943E63
:100810000D94D1430D94E8010C94FAC90C94307AEC
:100820000C9457EB0D94C7430D94AA500C94037A83
:100830000C9465BB0D94E6130C9405660C94221180
:100840000D94BD170C94C08C0C94626A0C948B258B
:100850000D941B3E0D9448150C94A8D10C946CFE7D
:100860000C948C960D94684D0D94334F0C94C644A3
:100870000C942FC20D94313E0C9425670D94B22632
:100880000D946C780D94180F0C94FFBC0D943E7869
:100890000D94AC260C949C250C94851C0C944D2531
:1008A0000D94643E0D9409080C94847C0D94604D65
:1008B0000D944D100C947FEA0C9423CB0C94316A68
:1008C0000C94025B0C94D3870C940AC70C94AD452E
:1008D0000D94990A0C94DF690C945D770C94109F29
:1008E0000D945B3E0C94E3FF0D9402400C945F4921
:1008F0000D94170A0D94973E0D94E23F0D94043F1A
:100900000D94403E0C94C17C0C94BA6C0D94EA4357
:100910000D94B1020C9409AD0D9471000C942DF15D
:100920000C945F8E0D949C260C942F6E0D94DA3EE1
:100930000D94FF3F0D944F3E0C94AF5A0D944141DE
:100940000C943F130C94E7C50C949D9E0C94C0AC82
:100950000C942B6E0C94746A0C94AB650C94B16877
:100960000D94B0500C94FB780C9422270D94BA3F50
:100970000D94EC3E0D94F83E0D94DF3F0D94C93F6D
:100980000C94573C0C9475270D9470680C945BC9BB
:100990000D940D3F0C9441DF0D94303F0C94EB9A75
:1009A0000C94FA250D948E4C0C944B9A0C94277E43
:1009B0000D94073F0D94BD3F0D94953F0C945C49F9
:1009C0000D94E83F0D94433E0C9406AF0D946B4F8D
:1009D0000C9400570D94A7410C94716E0C940EC9A1
:1009E0000C94A4CA0D94343E0C9433730C94D1E946
:1009F0000C94EDAB0D94E60F0D940C130C946970F0
:100A00000D9490070C94088A0D94CB7E0C94008E64
:100A10000C94358D0C943BF00A5061676520686139
:100A200073206E6F74206265656E20696D706C65F1
:100A30006D656E74656420796574000A326E642099
:100A400049676E6974696F6E204D6170000A326E7D
:100A500064204675656C204D6170000A50616765C1
:100A6000203920436667000A5472696D2031205492
:100A700061626C65000A565654204D6170000A424E
:100A80006F6F7374204D6170000A506720362043E9
:100A90006F6E666967000A414652204D6170000A18
:100AA0005067203420436667000A49676E6974699D
:100AB0006F6E204D6170000A5067203220436667D8
:100AC000000A5645204D6170004572723A20556EFD
:100AD0006B6E6F776E20636D64000A3D3D3D436F22
:100AE0006D6D616E642048656C703D3D3D0A0A4144
:100AF0006C6C20636F6D6D616E6473206172652034
:100B000073696E676C652063686172616374657296
:100B100020616E642061726520636F6E636174652D
:100B20006E617465642077697468207468656972A1
:100B300020706172616D6574657273200A776974E3
:100B4000686F7574207370616365732E53796E746A
:100B500061783A20203C636F6D6D616E643E2B3C82
:100B6000706172616D65746572313E2B3C706172AB
:100B7000616D65746572323E2B3C706172616D65AA
:100B80007465724E3E0A0A3D3D3D4C697374206F98
:100B90006620436F6D6D616E64733D3D3D0A0A4191
:100BA000202D20446973706C617973203331206289
:100BB00079746573206F662063757272656E745305
:100BC00074617475732076616C75657320696E202D
:100BD00062696E61727920286C697665206461743F
:100BE00061290A42202D204275726E20637572724F
:100BF000656E74206D617020616E6420636F6E6637
:100C00006967506167652076616C75657320746FE4
:100C100020656570726F6D0A43202D2054657374D2
:100C200020434F4D20706F72742E202055736564E1
:100C30002062792054756E657273747564696F20D3
:100C4000746F2073656520776865746865722061CC
:100C50006E20454355206973206F6E2061206769BF
:100C600076656E2073657269616C200A20202020F1
:100C7000706F72742E2052657475726E73206120CD
:100C800062696E617279206E756D6265722E0A4EB0
:100C9000202D205072696E74206E6577206C696E0D
:100CA000652E0A50202D205365742063757272657D
:100CB0006E7420706167652E202053796E746178A0
:100CC0003A2020502B3C706167654E756D626572ED
:100CD0003E0A52202D2053616D6520617320412012
:100CE000636F6D6D616E640A53202D2044697370CB
:100CF0006C6179207369676E6174757265206E75B9
:100D00006D6265720A51202D2053616D65206173FB
:100D1000205320636F6D6D616E640A56202D204450
:100D20006973706C6179206D6170206F7220636FE0
:100D30006E666967506167652076616C75657320C2
:100D4000696E2062696E6172790A57202D205365A1
:100D500074206F6E65206279746520696E206D6104
:100D600070206F7220636F6E666967506167652ED1
:100D70002020457870656374732062696E617279B2
:100D800020706172616D65746572732E200A202077
:100D9000202053796E7461783A2020572B3C6F667F
:100DA000667365743E2B3C6E6577627974653E0AA6
:100DB00074202D205365742063616C6962726174C4
:100DC000696F6E2076616C7565732E202045787092
:100DD000656374732062696E6172792070617261FB
:100DE0006D65746572732E20205461626C65206994
:100DF0006E64657820697320656974686572203057
:100E00002C200A20202020312C206F7220322E200E
:100E10002053796E7461783A2020742B3C74626C94
:100E2000655F6964783E2B3C6E657756616C7565CD
:100E3000313E2B3C6E657756616C7565323E2B3CBE
:100E40006E657756616C75654E3E0A5A202D2044BA
:100E50006973706C61792063616C69627261746935
:100E60006F6E2076616C7565730A54202D2044697D
:100E700073706C6179732032353620746F6F7468CB
:100E8000206C6F6720656E747269657320696E20CF
:100E900062696E6172790A72202D20446973706CE8
:100EA0006179732032353620746F6F7468206C6FEF
:100EB0006720656E74726965730A55202D20507223
:100EC000657061726520666F72206669726D776108
:100ED0007265207570646174652E20546865206E9B
:100EE00065787420627974652072656365697665DA
:100EF000642077696C6C2063617573652074686524
:100F00002041726475696E6F20746F20726573651D
:100F1000742E0A3F202D20446973706C6179732010
:100F2000746869732068656C702070616765002C57
:100F30002000575545004F3200496E6C657420748F
:100F4000656D7000436F6F6C616E74005265736500
:100F50007420636F6E74726F6C2069732063757296
:100F600072656E746C792064697361626C65642E5D
:100F700000436F6D6D732068616C7465642E204E44
:100F800065787420627974652077696C6C2072656D
:100F9000736574207468652041726475696E6F2E84
:100FA00000537065656475696E6F20323032322E81
:100FB000303200737065656475696E6F203230324F
:100FC000323032004552523B20496E636F72726577
:100FD000637420454550524F4D2073697A65003047
:100FE00030310020002000200020002020202000A0
:100FF000526573657420636F6E74726F6C206973D1
:101000002063757272656E746C79206469736162B5
:101010006C65642E00436F6D6D732068616C746540
:10102000642E204E65787420627974652077696C2F
:101030006C207265736574207468652041726475F4
:10104000696E6F2E000000800020012001800020CA
:10105000018000F0008001C000C0002001C00080BD
:10106000002001040E11191B20292B2D2F3133359F
:1010700037393B3D3F414345474B4D4F51555759FC
:101080005D61666D77537065656475696E6F005359
:101090007065656475696E6F20323031392E303875
:1010A0002D73657200537065656475696E6F20639A
:1010B000737830323031392E3800000020002300A0
:1010C000260029002C002F0032000001000003013F
:1010D0000601090100002100240027002A002D003C
:1010E0003000330001010000040107010A01000083
:1010F0000000963007772C610EEEBA51099919C499
:101100006D078FF46A7035A563E9A395649E3288F4
:10111000DB0EA4B8DC791EE9D5E088D9D2972B4C38
:10112000B609BD7CB17E072DB8E7911DBF90641054
:10113000B71DF220B06A4871B9F3DE41BE847DD498
:10114000DA1AEBE4DD6D51B5D4F4C785D383569834
:101150006C13C0A86B647AF962FDECC9658A4F5CB8
:101160000114D96C0663633D0FFAF50D088DC82094
:101170006E3B5E10694CE44160D5727167A2D1E4A8
:10118000033C47D4044BFD850DD26BB50AA5FAA8E4
:10119000B5356C98B242D6C9BBDB40F9BCACE36C48
:1011A000D832755CDF45CF0DD6DC593DD1ABAC30C4
:1011B000D9263A00DE518051D7C81661D0BFB5F4A8
:1011C000B42123C4B3569995BACF0FA5BDB89EB824
:1011D00002280888055FB2D90CC624E90BB1877CC8
:1011E0006F2F114C6858AB1D61C13D2D66B6904103
:1011F000DC760671DB01BC20D2982A10D5EF8985F8
:10120000B1711FB5B606A5E4BF9F33D4B8E8A2C933
:10121000077834F9000F8EA8099618980EE1BB0DD7
:101220006A7F2D3D6D08976C6491015C63E6F45113
:101230006B6B62616C1CD83065854E0062F2ED9577
:10124000066C7BA5011BC1F4088257C40FF5C6D9F3
:10125000B06550E9B712EAB8BE8B7C88B9FCDF1DD7
:10126000DD62492DDA15F37CD38C654CD4FB5861D3
:10127000B24DCE51B53A7400BCA3E230BBD441A507
:10128000DF4AD795D83D6DC4D1A4FBF4D6D36AE923
:101290006943FCD96E34468867ADD0B860DA732DE7
:1012A0000444E51D03335F4C0AAAC97C0DDD3C7183
:1012B0000550AA41022710100BBE86200CC925B587
:1012C0006857B3856F2009D466B99FE461CE0EF9E3
:1012D000DE5E98C9D9292298D0B0B4A8D7C7173DE7
:1012E000B359810DB42E3B5CBDB7AD6CBAC0208341
:1012F000B8EDB6B3BF9A0CE2B6039AD2B1743947CF
:10130000D5EAAF77D29D1526DB048316DC73120B6A
:1013100063E3843B64943E6A6D0DA85A6A7A0BCFEE
:101320000EE49DFF099327AE000AB19E077D44930A
:101330000FF0D2A3088768F2011EFEC206695D574E
:1013400062F7CB67658071366C19E7066B6E761BAA
:10135000D4FEE02BD3895A7ADA10CC4ADD676FDFEE
:10136000B9F9F9EFBE8E43BEB717D58EB060E8A3CA
:10137000D6D67E93D1A1C4C2D83852F2DF4FF167DE
:10138000BBD16757BCA6DD06B53F4B36B248DA2B5A
:101390000DD84C1B0AAFF64A0336607A0441C3EFFE
:1013A00060DF55DF67A8EF8E6E3179BE69468CB37A
:1013B00061CB1A8366BCA0D26F2536E2685295775E
:1013C0000CCC03470BBBB91602222F260555BE3B9A
:1013D000BAC5280BBDB2925AB42B046AB35CA7FFFE
:1013E000D7C231CFD0B58B9ED92C1DAEDE5BB0C23B
:1013F000649B26F263EC9CA36A750A936D02A906AE
:10140000099C3F360EEB8567077213570005824A29
:10141000BF95147AB8E2AE2BB17B381BB60C9B8E0D
:10142000D2920DBED5E5B7EFDC7C21DFDB0BD4D249
:10143000D38642E2D4F1F8B3DD686E83DA1FCD16AD
:10144000BE815B26B9F6E177B06F7747B718E65AE9
:101450000888706A0FFFCA3B06665C0B0111FF9E8D
:10146000658F69AE62F8D3FF6B6145CF6C1678E289
:101470000AA0EED20DD75483044EC2B303396126BD
:1014800067A7F71660D04D476949DB776E3E4A6A19
:10149000D1AEDC5AD6D9660BDF40F03BD83753AE1D
:1014A000BCA9C59EBBDE7FCFB247E9FFB5301CF2B9
:1014B000BDBD8AC2BACA3093B353A6A3B4240536BD
:1014C000D0BA9306D7CD2957DE54BF67D9232E7AD9
:1014D00066B3B84A61C4021B685D942B6F2A37BE9D
:1014E0000BB4A18E0CC31BDF055A8DEF022D00003B
:1014F000000041311B1982623632C3532D2B04C5C3
:101500006C6445F4777D86A75A56C796414F088A82
:10151000D9C849BBC2D18AE8EFFACBD9F4E30C4F62
:10152000B5AC4D7EAEB58E2D839ECF1C98875112E3
:10153000C24A1023D953D370F4789241EF6155D742
:10154000AE2E14E6B537D7B5981C96848305599806
:101550001B8218A9009BDBFA2DB09ACB36A95D5DE2
:1015600077E61C6C6CFFDF3F41D49E0E5ACDA2245F
:101570008495E3159F8C2046B2A76177A9BEA6E1AA
:10158000E8F1E7D0F3E82483DEC365B2C5DAAAAE9A
:101590005D5DEB9F464428CC6B6F69FD7076AE6B4A
:1015A0003139EF5A2A202C09070B6D381C12F336FB
:1015B00046DFB2075DC6715470ED30656BF4F7F32A
:1015C0002ABBB6C231A275911C8934A00790FBBC1E
:1015D0009F17BA8D840E79DEA92538EFB23CFF79CA
:1015E000F373BE48E86A7D1BC5413C2ADE58054FAF
:1015F00079F0447E62E9872D4FC2C61C54DB018A14
:10160000159440BB0E8D83E823A6C2D938BF0DC503
:10161000A0384CF4BB218FA7960ACE968D130900F3
:10162000CC5C4831D7458B62FA6ECA53E177545D82
:10163000BBBA156CA0A3D63F8D88970E9691509893
:10164000D7DE11A9CCC7D2FAE1EC93CBFAF55CD77F
:1016500062721DE6796BDEB554409F844F59581273
:101660000E161923150FDA7038249B41233DA76B02
:10167000FD65E65AE67C2509CB576438D04EA3AE0B
:101680009101E29F8A1821CCA73360FDBC2AAFE10B
:1016900024ADEED03FB42D83129F6CB20986AB24EB
:1016A00048C9EA1553D029467EFB687765E2F6798A
:1016B0003F2FB7482436741B091D352A1204F2BC8B
:1016C000534BB38D485270DE657931EF7E60FEF387
:1016D000E6E7BFC2FDFE7C91D0D53DA0CBCCFA366B
:1016E0008A83BB07919A7854BCB13965A7A84B98F7
:1016F000833B0AA99822C9FAB50988CBAE104F5D81
:10170000EF5F0E6CF446CD3FD96D8C0EC274431260
:101710005AF3022341EAC1706CC1804177D847D7A0
:10172000369706E62D8EC5B500A584841BBC1A8AA3
:1017300041715BBB5A6898E87743D9D96C5A1E4F00
:101740002D155F7E360C9C2D1B27DD1C003E1200E4
:1017500098B9533183A09062AE8BD153B59216C520
:10176000F4DD57F4EFC494A7C2EFD596D9F6E9BCDF
:1017700007AEA88D1CB76BDE319C2AEF2A85ED7968
:101780006BCAAC4870D36F1B5DF82E2A46E1E13678
:10179000DE66A007C57F6354E8542265F34DE5F388
:1017A000B202A4C2A91B6791843026A09F29B8AEBB
:1017B000C5E4F99FDEFD3ACCF3D67BFDE8CFBC6BE8
:1017C000A980FD5AB2993E099FB27F3884ABB024FC
:1017D0001C2CF115073532462A1E73773107B4E108
:1017E0007048F5D06B513683467A77B25D634ED739
:1017F000FACB0FE6E1D2CCB5CCF98D84D7E04A1212
:1018000096AF0B238DB6C870A09D8941BB84465D01
:101810002303076C381AC43F1531850E0E284298F1
:101820004F6703A9547EC0FA795581CB624C1FC51E
:1018300038815EF423989DA70EB3DC9615AA1B0091
:1018400054E55A314FFC996262D7D85379CE174F7D
:10185000E149567EFA50952DD77BD41CCC62138A71
:101860008D2D52BB963491E8BB1FD0D9A006ECF366
:101870007E5EADC265476E91486C2FA05375E83609
:10188000123AA90709236A5424082B653F11E47909
:10189000A796A548BC8F661B91A4272A8ABDE0BCE9
:1018A000CBF2A18DD0EB62DEFDC023EFE6D9BDE126
:1018B000BC14FCD0A70D3F838A267EB2913FB92489
:1018C000D070F815CB693B46E6427A77FD5BB56B85
:1018D00065DCF45A7EC5370953EE763848F7B1AE69
:1018E00009B8F09F12A133CC3F8A72FD2493000007
:1018F0000000376AC2016ED4840359BE4602DCA8D8
:101900000907EBC2CB06B27C8D0485164F05B85192
:10191000130E8F3BD10FD685970DE1EF550C64F96F
:101920001A095393D8080A2D9E0A3D475C0B70A3F1
:10193000261C47C9E41D1E77A21F291D601EAC0B83
:101940002F1B9B61ED1AC2DFAB18F5B56919C8F200
:101950003512FF98F713A626B111914C7310145A43
:101960003C152330FE147A8EB8164DE47A17E04603
:101970004D38D72C8F398E92C93BB9F80B3A3CEED3
:10198000443F0B84863E523AC03C6550023D581796
:101990005E366F7D9C3736C3DA3501A9183484BFB3
:1019A0005731B3D59530EA6BD332DD01113390E571
:1019B0006B24A78FA925FE31EF27C95B2D264C4D3F
:1019C00062237B27A0222299E62015F3242128B444
:1019D000782A1FDEBA2B4660FC29710A3E28F41CC7
:1019E000712DC376B32C9AC8F52EADA2372FC08DBA
:1019F0009A70F7E75871AE591E739933DC721C2543
:101A000093772B4F517672F11774459BD57578DC1F
:101A1000897E4FB64B7F16080D7D2162CF7CA47462
:101A20008079931E4278CAA0047AFDCAC67BB02E84
:101A3000BC6C87447E6DDEFA386FE990FA6E6C8676
:101A4000B56B5BEC776A025231683538F369087F11
:101A5000AF623F156D6366AB2B6151C1E960D4D7AE
:101A6000A665E3BD6464BA0322668D69E06720CB96
:101A7000D74817A115494E1F534B7975914AFC63FE
:101A8000DE4FCB091C4E92B75A4CA5DD984D989A63
:101A9000C446AFF00647F64E4045C1248244443266
:101AA000CD4173580F402AE649421D8C8B43506844
:101AB000F154670233553EBC755709D6B7568CC0F2
:101AC000F853BBAA3A52E2147C50D57EBE51E83995
:101AD000E25ADF53205B86ED6659B187A4583491F2
:101AE000EB5D03FB295C5A456F5E6D2FAD5F801B7C
:101AF00035E1B771F7E0EECFB1E2D9A573E35CB39E
:101B00003CE66BD9FEE73267B8E5050D7AE4384A62
:101B100026EF0F20E4EE569EA2EC61F460EDE4E2C5
:101B20002FE8D388EDE98A36ABEBBD5C69EAF0B803
:101B300013FDC7D2D1FC9E6C97FEA90655FF2C1051
:101B40001AFA1B7AD8FB42C49EF975AE5CF848E9D4
:101B500000F37F83C2F2263D84F0115746F1944191
:101B600009F4A32BCBF5FA958DF7CDFF4FF6605D09
:101B700078D95737BAD80E89FCDA39E33EDBBCF5A1
:101B800071DE8B9FB3DFD221F5DDE54B37DCD80C5E
:101B90006BD7EF66A9D6B6D8EFD481B22DD504A401
:101BA00062D033CEA0D16A70E6D35D1A24D210FE83
:101BB0005EC527949CC47E2ADAC6494018C7CC5615
:101BC00057C2FB3C95C3A282D3C195E811C0A8AF10
:101BD0004DCB9FC58FCAC67BC9C8F1110BC974070D
:101BE00044CC436D86CD1AD3C0CF2DB902CE4096DA
:101BF000AF9177FC6D902E422B921928E9939C3E71
:101C0000A696AB546497F2EA2295C580E094F8C793
:101C1000BC9FCFAD7E9E9613389CA179FA9D246F10
:101C2000B598130577994ABB319B7DD1F39A30352E
:101C3000898D075F4B8C5EE10D8E698BCF8FEC9D9C
:101C4000808ADBF7428B82490489B523C688886481
:101C50009A83BF0E5882E6B01E80D1DADC8154CC64
:101C6000938463A651853A1817870D72D586A0D044
:101C7000E2A997BA20A8CE0466AAF96EA4AB7C7834
:101C8000EBAE4B1229AF12AC6FAD25C6ADAC1881CF
:101C9000F1A72FEB33A6765575A4413FB7A5C4290C
:101CA000F8A0F3433AA1AAFD7CA39D97BEA2D073EE
:101CB000C4B5E71906B4BEA740B689CD82B70CDB20
:101CC000CDB23BB10FB3620F49B155658BB06822FD
:101CD000D7BB5F4815BA06F653B8319C91B9B48AA0
:101CE000DEBC83E01CBDDA5E5ABFED3498BE000056
:101CF00000006567BCB88BC809AAEEAFB51257974C
:101D0000628F32F0DE37DC5F6B25B938D79DEF2864
:101D1000B4C58A4F087D64E0BD6F018701D7B8BFA5
:101D2000D64ADDD86AF23377DFE0561063589F5702
:101D30001950FA30A5E8149F10FA71F8AC42C8C0E7
:101D40007BDFADA7C76743087275266FCECD707F66
:101D5000AD951518112DFBB7A43F9ED0188727E825
:101D6000CF1A428F73A2AC20C6B0C9477A083EAFE3
:101D700032A05BC88E18B5673B0AD00087B26938BD
:101D8000502F0C5FEC97E2F059858797E53DD1879E
:101D90008665B4E03ADD5A4F8FCF3F2833778610FF
:101DA000E4EAE37758520DD8ED4068BF51F8A1F846
:101DB0002BF0C49F97482A30225A4F579EE2F66F65
:101DC000497F9308F5C77DA740D518C0FC6D4ED05C
:101DD0009F352BB7238DC518969FA07F2A271947BB
:101DE000FDBA7C204102928FF410F7E848A83D58D4
:101DF000149B583FA823B6901D31D3F7A1896ACF11
:101E000076140FA8CAACE1077FBE8460C306D27007
:101E1000A05EB7171CE659B8A9F43CDF154C85E75E
:101E2000C2D1E0807E690E2FCB7B6B4877C3A20FB7
:101E30000DCBC768B17329C704614CA0B8D9F59818
:101E40006F4490FFD3FC7E5066EE1B37DA564D2769
:101E5000B90E284005B6C6EFB0A4A3880C1C1AB072
:101E6000DB817FD767399178D22BF41F6E9303F70C
:101E7000263B66909A83883F2F91ED5893295460B2
:101E800044B43107F80CDFA84D1EBACFF1A6ECDF41
:101E900092FE89B82E4667179B54027027ECBB4808
:101EA000F071DE2F4CC93080F9DB55E745639CA00B
:101EB0003F6BF9C783D3176836C1720F8A79CB3766
:101EC0005DE4AE50E15C40FF544E2598E8F673881F
:101ED0008BAE16EF3716F84082049D273EBC241FB8
:101EE000E92141785599AFD7E08BCAB05C333BB656
:101EF00059ED5ED1E555B07E5047D519ECFF6C2108
:101F00003B62094687DAE7E932C8828E8E70D49E3A
:101F1000ED28B1F951905F56E4823A31583A83097D
:101F20008FA7E66E331F08C1860D6DA63AB5A4E1F2
:101F300040BDC186FC052F2949174A4EF5AFF376FF
:101F4000223296119E8A78BE2B981DD997204BC9B4
:101F5000F4782EAE48C0C001FDD2A566416A1C5E71
:101F600096F779392A4F97969F5DF2F123E5051987
:101F70006B4D607ED7F58ED162E7EBB6DE5F528E99
:101F800009C237E9B57AD9460068BC21BCD0EA312C
:101F9000DF888F56633061F9D622049E6A9ABDA607
:101FA000BD07D8C101BF366EB4AD530908159A4EAE
:101FB000721DFF29CEA511867BB774E1C70FCDD95D
:101FC0001092A8BEAC2A461119382376A5807566F2
:101FD000C6D810017A60FEAECF729BC973CA22F1D7
:101FE000A457479618EFA939ADFDCC5E114506EE12
:101FF0004D766389F1CE8D2644DCE841F864517951
:102000002FF9341E9341DAB12653BFD69AEBE9C6B5
:10201000F9B38CA1450B620EF01907694CA1BE51B2
:102020009B3CDB3627843599929650FE2E2E99B92B
:102030005426FCDEE89E12715D8C7716E134CE2EBC
:1020400036A9AB498A1145E63F03208183BB7691CF
:10205000E0E313F65C5BFD59E949983E55F1210632
:10206000826C44613ED4AACE8BC6CFA9377E38415C
:102070007FD65D26C36EB389767CD6EECAC46FD692
:102080001D590AB1A1E1E41E14F38179A84BD76967
:10209000CB13B20E77AB5CA1C2B939C67E0180FE0C
:1020A000A99CE59915240B36A0366E511C8EA716F7
:1020B0006686C271DA3E2CDE6F2C49B9D394F0816A
:1020C000040995E6B8B17B490DA31E2EB11B483E0D
:1020D000D2432D596EFBC3F6DBE9A69167511FA9C8
:1020E000B0CC7ACE0C749461B966F10605DE0000BE
:1020F0002200250028002B002E00310034000201B0
:102100000000050108010B01050505050705080884
:102110000808020202020A0A080804040404010171
:102120000101010101010303030303030303040786
:1021300007070C0C0C0C0C0C0C0C0202020206061D
:102140000606060606060B0B0B0B0B0B0B0B010210
:1021500010202008081020401020408002010201B9
:102160000804020101020408102040808040201071
:1021700008040201800402018040201008040201CA
:102180000804020101020408102040800102040832
:102190001020408000000A0B02090C0D0E080703F6
:1021A000040100000000000000000000000000002A
:1021B000000000000000000000000000000000001F
:1021C00012111000000000000000000000000000DC
:1021D00000000000000000000000660311241FBE84
:1021E000CFEFD1E2DEBFCDBF00E00CBF12E0A0E038
:1021F000B2E0E0E6F8E303E00BBF02C007900D9207
:10220000AA39B107D9F72FE1AAE9B2E001C01D92BE
:10221000A034B207E1F710E1CEEED0E100E006C055
:1022200021970109802FFE010F94AB9BCD3ED10772
:1022300080E00807A9F70F94E3600D942E9C0C949E
:102240000000089508958091BD1D811104C0209162
:10225000591E24FF67C04091BE1D5091BF1D609163
:10226000571E7091581E4617570768F480912B1E11
:1022700090912C1EA0912D1EB0912E1E892B8A2B81
:102280008B2B09F44FC02091E7043091E804409172
:10229000E9045091EA04232B242B252B09F442C096
:1022A0004091E3045091E4046091E5047091E604E8
:1022B000452B462B472BB1F1F8948091E704909180
:1022C000E804A091E904B091EA042091E30430917C
:1022D000E4044091E5045091E604821B930BA40BA7
:1022E000B50B80938A0A90938B0AA0938C0AB093C3
:1022F0008D0A789420918A0A30918B0A40918C0A39
:1023000050918D0A60E077E883E993E00F94259B74
:10231000C901803526E4920738F08091BE1D909166
:10232000BF1D089590E080E008951092600910921A
:102330005F0908958091BD1D811104C02091591E2F
:1023400024FF67C04091BE1D5091BF1D6091571E74
:102350007091581E4617570768F480912B1E909174
:102360002C1EA0912D1EB0912E1E892B8A2B8B2BFB
:1023700009F44FC02091E7043091E8044091E9044A
:102380005091EA04232B242B252B09F442C04091C1
:10239000E3045091E4046091E5047091E604452B58
:1023A000462B472BB1F1F8948091E7049091E80413
:1023B000A091E904B091EA042091E3043091E4048F
:1023C0004091E5045091E604821B930BA40BB50BDE
:1023D00080938A0A90938B0AA0938C0AB0938D0AFB
:1023E000789420918A0A30918B0A40918C0A5091FE
:1023F0008D0A60E077E883E993E00F94259BC9019B
:10240000803526E4920738F08091BE1D9091BF1D63
:10241000089590E080E008951092600910925F099D
:1024200081E08093690308958091F30B807F80346D
:10243000F1F08036D9F42091501C2C712C3089F1A8
:1024400046E050E0509384034093830362E070E0E1
:102450007093820360938103A4E0B0E0B0938003A3
:10246000A0937F0370937E0360937D030895309162
:10247000501C3C713C30A9F0E4E0F0E0F0938403A0
:10248000E093830382E090E0909382038093810342
:10249000F0938003E0937F0390937E0380937D030A
:1024A000089528E030E0309384032093830342E0D2
:1024B00050E0509382034093810364E070E0709396
:1024C000800360937F03A6E0B0E0B0937E03A09307
:1024D0007D0308958091EF1D82319CF026E030E06D
:1024E000309384032093830341E050E050938203B0
:1024F0004093810364E070E07093800360937F03F6
:102500000895A7E0B0E0B0938403A0938303E2E0D2
:10251000F0E0F0938203E093810385E090E09093F4
:10252000800380937F0308958091BD1D811104C0B5
:102530002091591E24FF67C04091BE1D5091BF1DC0
:102540006091571E7091581E4617570768F4809186
:102550002B1E90912C1EA0912D1EB0912E1E892B0A
:102560008A2B8B2B09F44FC02091E7043091E804AB
:102570004091E9045091EA04232B242B252B09F4E4
:1025800042C04091E3045091E4046091E5047091ED
:10259000E604452B462B472BB1F1F8948091E704D4
:1025A0009091E804A091E904B091EA042091E30439
:1025B0003091E4044091E5045091E604821B930BB2
:1025C000A40BB50B80938A0A90938B0AA0938C0A74
:1025D000B0938D0A789420918A0A30918B0A4091A9
:1025E0008C0A50918D0A60E077E883E993E00F94BC
:1025F000259BC901803526E4920738F08091BE1DE5
:102600009091BF1D089590E080E008958091B709F2
:102610009091B8092091441C3091451C821B930B6A
:102620004091190250911A02841795079CF0841B5F
:10263000950B0197843B9105A8F461E070E07093DD
:10264000840360938303A2E0B0E0B0938203A0937D
:102650008103089597FFEDCF840F951F0197843B69
:10266000910558F3E2E0F0E0F0938403E0938303F4
:1026700081E090E090938203809381030895CF924C
:10268000DF92EF92FF922091BE1D3091BF1D80918D
:10269000571E9091581E2817390708F0A4C0E091E2
:1026A000AD04F091AE04C0902B1ED0902C1EE09093
:1026B0002D1EF0902E1E80914F1C90E0B0E0A0E007
:1026C000C816D906EA06FB0608F459C0E090BD1DFD
:1026D000EE2009F450C04091850A5091860A60911D
:1026E000870A7091880A452B462B472B09F447C06F
:1026F0006091810A7091820A8091830A9091840A84
:10270000672B682B692BD9F12091850A3091860AB5
:102710004091870A5091880A8091810A9091820A9B
:10272000A091830AB091840A82179307A407B50782
:1027300030F5F8942091850A3091860A4091870AF5
:102740005091880AC090810AD090820AE090830A52
:10275000F090840A2C193D094E095F09AE2FB0E0B4
:102760000F946D9B60938A0A70938B0A80938C0AF6
:1027700090938D0A74C0F090591EF4FCACCFC090B9
:102780008A0AD0908B0AE0908C0AF0908D0A30E093
:1027900020E0CC0CDD1CEE1CFF1CC0921E02D0926F
:1027A0001F02E0922002F09221028091AD049091EC
:1027B000AE048BE4C81688E9D80685E0E806F10483
:1027C00060F44BE458E965E070E040931E025093DA
:1027D0001F026093200270932102C901FF90EF90C5
:1027E000DF90CF900895C090BD1DCC2009F45EC04D
:1027F0004091E7045091E8046091E9047091EA0483
:10280000452B462B472B09F4BACF6091E304709116
:10281000E4048091E5049091E604672B682B692B12
:1028200009F4ADCFF8948091E7049091E804A09169
:10283000E904B091EA042091E3043091E40440916A
:10284000E5045091E604821B930BA40BB50B809317
:102850008A0A90938B0AA0938C0AB0938D0A78947D
:10286000C0908A0AD0908B0AE0908C0AF0908D0A72
:10287000F694E794D794C794C0928A0AD0928B0AB0
:10288000E0928C0AF0928D0A60E077E883E993E0A9
:10289000A70196010F94259B203586E4380708F49C
:1028A00078CF2091BE1D3091BF1D73CFD090591E9F
:1028B000D4FC9ECF64CF2091531C30E08091501CFB
:1028C0008C718C3009F496C0E091441CF091451C49
:1028D00060917F0A7091800A8091B7099091B80940
:1028E0008E1B9F0B0F94DE9A261737070CF05DC0E6
:1028F000621B730B709384036093830360917F0A60
:102900007091800A80918809909189098E1B9F0B94
:102910000F94DE9A261737070CF065C0621B730B05
:10292000709382036093810360917F0A7091800AA3
:1029300080918609909187098E1B9F0B0F94DE9AD8
:10294000261737070CF048C0621B730B7093800387
:1029500060937F0360917F0A7091800A809184095F
:10296000909185098E1B9F0B0F94DE9A26173707CF
:102970006CF5621B730B70937E0360937D03609113
:102980007F0A7091800A80917209909173098E1B61
:102990009F0B0F94DE9A2617370774F4621B730B94
:1029A00070934C0360934B030895161617060CF4AE
:1029B000A1CF620F731F9ECF161617068CF3620FFE
:1029C000731F70934C0360934B03089516161706FC
:1029D00094F2620F731FCFCF161617060CF4B6CF02
:1029E000620F731FB3CF161617060CF499CF620F40
:1029F000731F96CF4091491C41FD66CF220F331FB4
:102A000063CF0F931F93CF93DF93E091531CF0E0BC
:102A10008091501C8C718C3009F43FC1EF0130E083
:102A200020E00091441C1091451C60917F0A709138
:102A3000800A8091B7099091B809801B910B0F947F
:102A4000DE9A61507109C617D7070CF006C16C1BDE
:102A50007D0B4091AD045091AE044617570720F40A
:102A6000E617F7070CF014C1A091AD04B091AE04C5
:102A7000A20FB31FA617B70730F46091AD04709191
:102A8000AE04620F731F709384036093830360919D
:102A90007F0A7091800A8091880990918909801B32
:102AA000910B0F94DE9A61507109C617D7070CF08D
:102AB000CDC06C1B7D0B8091AD049091AE04861748
:102AC000970720F4E617F7070CF0DDC04091AD043E
:102AD0005091AE04420F531F4617570730F46091D0
:102AE000AD047091AE04620F731F70938203609304
:102AF000810360917F0A7091800A8091860990918C
:102B00008709801B910B0F94DE9A61507109C617DB
:102B1000D7070CF094C06C1B7D0BA091AD04B09155
:102B2000AE04A617B70720F4E617F7070CF0A6C007
:102B30008091AD049091AE04820F931F8617970782
:102B400030F46091AD047091AE04620F731F709306
:102B5000800360937F0360917F0A7091800A809167
:102B6000840990918509801B910B0F94DE9A615026
:102B70007109C617D7070CF05BC06C1B7D0B409129
:102B8000AD045091AE044617570720F4E617F70737
:102B90000CF06FC0A091AD04B091AE04A20FB31FB2
:102BA000A617B70730F46091AD047091AE04620FC0
:102BB000731F70937E0360937D0360917F0A709111
:102BC000800A8091720990917309801B910B0F9478
:102BD000DE9A61507109C617D70724F56C1B7D0B6F
:102BE000C091AD04D091AE04C617D70718F4E6170C
:102BF000F707D4F5E091AD04F091AE04E20FF31FB6
:102C0000E617F70730F46091AD047091AE04620FDF
:102C1000731F70934C0360934B03DF91CF911F910F
:102C20000F91089516161706DCF26C0F7D1FD8CF92
:102C3000161617060CF4A3CF6C0F7D1FA0CF161627
:102C400017060CF46ACF6C0F7D1F67CF1616170698
:102C50000CF431CF6C0F7D1F2ECF161617060CF417
:102C6000F8CE6C0F7D1FF5CE6091AD047091AE046F
:102C7000C1CF6091AD047091AE048CCF6091AD0472
:102C80007091AE0455CF6091AD047091AE041ECF2B
:102C90006091AD047091AE04E7CE0091491C01FD36
:102CA000BDCE9F01EF01CC0FDD1FBBCECF92DF92D7
:102CB000EF92FF92E091C309F091C4091995AC011C
:102CC000893621E092070CF443C09C01295631401B
:102CD000A3E8BDE20F94809B0024880F991F001C7D
:102CE000880F991F001C892F902D877099274856AF
:102CF0005140493621E052075CF1009719F18130CB
:102D00009105D1F082309105A9F08330910581F0D1
:102D10008430910559F08530910531F0069711F016
:102D200048565140485651404856514048565140E7
:102D3000485651404856514048565140493621E086
:102D4000520734F040545B40493681E05807D4F7CD
:102D50008091441C9091451C481B590B2091BD1E2D
:102D60002370223031F4C090BD1CD090BE1C4C1991
:102D70005D09E091C01C9A01220F331FF0E0A0E032
:102D8000B1E0AE1BBF0B0F94B39B6B017C01A09114
:102D9000811EB091821E9F010F94BB9BC60ED71E51
:102DA000E81EF91ECD2CDE2CEF2CFF24E7FCFA9454
:102DB000D092821EC092811EFF90EF90DF90CF9044
:102DC0000895CF92DF92EF92FF92CF93DF93EC01C1
:102DD000AA81BB81E881F981408151811396FC91E0
:102DE000139711962D913C91DF2FDF71211531053D
:102DF00041F1DA010F94B39B6C01FF24D7FCF094EE
:102E0000EF2CC601F6FD0EC002C095958795DA95A8
:102E1000E2F797FD0196DF91CF91FF90EF90DF9061
:102E2000CF9008952F2FFF0F330B220F232F221F38
:102E3000330BCA0182279327821B930B8C0D9D1D98
:102E4000E3CF2F2FFF0F330B220F232F221F330B24
:102E50008FEF9FEF0D2E02C0880F991F0A94E2F7A3
:102E600080959095BA01770F660B762F862397236E
:102E7000840F951F02C095958795DA95E2F7822712
:102E80009327821B930BDF91CF91FF90EF90DF9000
:102E9000CF9008958F929F92AF92BF92CF92DF9280
:102EA000EF92FF920F931F93CF93DF935C018B01FF
:102EB0001092BF071092BE071092380A812F0F940C
:102EC000EC50802F0F94EC501093C9080093C80861
:102ED0000115110509F4DDC045018FE3E82EF12C41
:102EE0006501C00ED11EC80183709927009709F4AF
:102EF00059C081309105C1F10297D9F0E50189915E
:102F00004E010F94EC50A091BE07B091BF071196EF
:102F1000B093BF07A093BE079091130F8091140F39
:102F2000981708F0F4C0891B990B0197892B09F4B5
:102F300092C0F40181914F010F94EC508091BE0733
:102F40009091BF0701969093BF078093BE07909121
:102F5000130F8091140F981708F0D2C0891B990B9A
:102F60000197892B09F477C0E40189914E010F94F0
:102F7000EC50A091BE07B091BF071196B093BF0768
:102F8000A093BE079091130F8091140F981708F02B
:102F900059C0891B990B019709F45DC0C814D90465
:102FA00009F477C0E40189910F94EC50E091BE07D9
:102FB000F091BF073196F093BF07E093BE07909161
:102FC000130F8091140F981708F055C0891B990BA7
:102FD0000197892B09F43FC088810F94EC508091B0
:102FE000BE079091BF0701969093BF078093BE07DD
:102FF0009091130F8091140F981708F043C0891B0C
:10300000990B0197892B39F189810F94EC50A0918C
:10301000BE07B091BF071196B093BF07A093BE073C
:103020009091130F8091140F981708F062C0891BBC
:10303000990B0197892B79F04E01F3E08F0E911CCB
:103040008A8195CF9701291B3109820F932F911DFA
:10305000892B09F0A3CF01E00093380ADF91CF91CB
:103060001F910F91FF90EF90DF90CF90BF90AF90A6
:103070009F908F9008959701291B3109820F932FFC
:10308000911DA7CF9701291B3109820F932F911D05
:10309000B9CF8090380A8110E1CF2FEF3FEFA9011F
:1030A0002093371F3093381F4093391F50933A1F96
:1030B00021E0A801B50187E39FE10E9495F5EB01AE
:1030C000182F892F0F94EC50812F0F94EC508D2FD7
:1030D0000F94EC508C2FDF91CF911F910F91FF90A7
:1030E000EF90DF90CF90BF90AF909F908F900D9416
:1030F000EC509701291B3109820F932F911D9ACF14
:103100009701291B3109820F932F911D2ACF970117
:10311000291B3109820F932F911D08CF0F947360E3
:1031200060936F03709370038093710390937203A5
:1031300080916F0390917003A0917103B09172031D
:103140004091510350915203609153037091540385
:10315000841B950BA60BB70B80936B0390936C03AA
:10316000A0936D03B0936E0320916B0330916C03B9
:1031700040916D0350916E036091EF047091F004E3
:103180008091F1049091F204621773078407950708
:1031900068F080912B1E90912C1EA0912D1EB09155
:1031A0002E1E892B8A2B8B2B09F0B6C030912A0A50
:1031B0003F5F30932A0A5091BD1D552309F49CC0EE
:1031C00070912A0A733008F4A7C091E090936A03C3
:1031D00040916F035091700360917103709172037D
:1031E00040935103509352036093530370935403DD
:1031F00010922A0AA0915F09B09160091196B093CC
:103200006009A0935F09E0915F09F091600931972F
:1032100041F020915F09309160092E32310508F4A8
:1032200040C061E070E07093600960935F09809135
:10323000E7049091E804A091E904B091EA04809336
:10324000E3049093E404A093E504B093E604409172
:103250006F035091700360917103709172034093FA
:10326000E7045093E8046093E9047093EA04B09192
:103270006903F1E0BF27B093690320912B1E3091C1
:103280002C1E40912D1E50912E1E2F5F3F4F4F4FF1
:103290005F4F20932B1E30932C1E40932D1E509376
:1032A0002E1E40916B0350916C0360916D037091E1
:1032B0006E033091501C307639F03032D1F1303419
:1032C00009F448C0303649F11092EF041092F0042E
:1032D0001092F1041092F2046091850A7091860AAE
:1032E0008091870A9091880A6093810A7093820A7C
:1032F0008093830A9093840A80916F039091700366
:10330000A0917103B09172038093850A9093860A0D
:10331000A093870AB093880A0895DB01CA01880F39
:10332000991FAA1FBB1F840F951FA61FB71FAC01B3
:10333000BD0176956795579547957695679557950D
:1033400047954093EF045093F0046093F104709319
:10335000F204C2CF76956795579547954093EF0451
:103360005093F0046093F1047093F204B5CF809110
:103370005F09909160090D9709F4A7C00F947360DD
:1033800060936F0370937003809371039093720343
:1033900080916F0390917003A0917103B0917203BB
:1033A0004091850A5091860A6091870A7091880A37
:1033B000841B950BA60BB70B80936B0390936C0348
:1033C000A0936D03B0936E0320916B0330916C0357
:1033D00040916D0350916E036091EF047091F00481
:1033E0008091F1049091F204261737074807590796
:1033F00008F46AC0A0915F09B0916009AB2B09F491
:1034000067C0E0915F09F09160093196F09360091F
:10341000E0935F09A0915F09B0916009E0915F09B5
:10342000F0916009AA0FBB1FA355BB4FEE0FFF1F02
:10343000E555FB4F8D919C9140815181841B950BEB
:103440009093800A80937F0A40916B0350916C03A4
:1034500060916D0370916E039091501C907649F0CD
:10346000903209F485C0903409F493C0903609F481
:1034700073C01092EF041092F0041092F1041092B5
:10348000F20451E050936A032091850A3091860A34
:103490004091870A5091880A2093810A3093820ACA
:1034A0004093830A5093840A60916F037091700374
:1034B00080917103909172036093850A7093860ADC
:1034C0008093870A9093880A08951092BD1D0895ED
:1034D00021E030E03093600920935F096091E704B8
:1034E0007091E8048091E9049091EA046093E30408
:1034F0007093E4048093E5049093E60480916F0355
:1035000090917003A0917103B09172038093E704CE
:103510009093E804A093E904B093EA0431E0309377
:10352000BD1D40912B1E50912C1E60912D1E70913F
:103530002E1E4F5F5F4F6F4F7F4F40932B1E509358
:103540002C1E60932D1E70932E1EACE3B0E0B09342
:10355000800AA0937F0A78CFDB01CA01880F991FE8
:10356000AA1FBB1F840F951FA61FB71FAC01BD016B
:1035700076956795579547957695679557954795AD
:103580004093EF045093F0046093F1047093F204BD
:1035900078CF76956795579547954093EF0450936C
:1035A000F0046093F1047093F2046BCF80915F0993
:1035B00090916009499709F4ACC00F9473606093CF
:1035C0006F037093700380937103909372038091E3
:1035D0006F0390917003A0917103B09172034091B9
:1035E000850A5091860A6091870A7091880A841B27
:1035F000950BA60BB70B80936B0390936C03A09372
:103600006D03B0936E03A0915F09B0916009AB2B7D
:10361000B9F1E0915F09F09160093196F09360098A
:10362000E0935F09A0915F09B0916009E0915F09A3
:10363000F0916009AA0FBB1FA355BB4FEE0FFF1FF0
:10364000E555FB4F6D917C9120813181621B730B9D
:103650007093800A60937F0A51E050936A038091CF
:103660006F0390917003A0917103B09172038093E6
:10367000850A9093860AA093870AB093880A0895D2
:1036800081E090E09093600980935F094091E704A6
:103690005091E8046091E9047091EA044093E304D6
:1036A0005093E4046093E5047093E60460916F0323
:1036B0007091700380917103909172036093E7049D
:1036C0007093E8048093E9049093EA0430916903CD
:1036D00091E03927309369039093BD1D20912B1EF3
:1036E00030912C1E40912D1E50912E1E2F5F3F4F6A
:1036F0004F4F5F4F20932B1E30932C1E40932D1E57
:1037000050932E1EAFE0B0E0B093800AA0937F0AE2
:10371000A3CF1092BD1D08958091BD1D0F947360BD
:1037200060937703709378038093790390937A037F
:103730008091770390917803A0917903B0917A03F7
:1037400040912B0A50912C0A60912D0A70912E0AFB
:10375000841B950BA60BB70B809373039093740394
:10376000A0937503B0937603209173033091740393
:1037700040917503509176036091EB047091EC04D5
:103780008091ED049091EE042617370748075907FA
:1037900008F471C08091770390917803A091790328
:1037A000B0917A0380932B0A90932C0AA0932D0A50
:1037B000B0932E0A51E050936A03609173037091A5
:1037C000740380917503909176039695879577950C
:1037D00067956093EB047093EC048093ED049093F1
:1037E000EE043091BD1D311132C08CED95E0A0E0AA
:1037F000B0E08093EF049093F004A093F104B093B1
:10380000F2046091EB047091EC048091ED049091CE
:10381000EE0496958795779567956093EB04709382
:10382000EC048093ED049093EE04E091A904F091F0
:10383000AA0490817091A804A091F30BA07F972314
:1038400001F1A03409F453C0A03609F448C04091F6
:10385000BE1D5091BF1DE091571EF091581E4E178E
:103860005F0750F4F091BD1DFF2329F05091F30B39
:10387000507F503491F00895B0914A1CB7FDF2CFBB
:103880000895A03421F720915F0930916009253017
:103890003105E9F65093BD1DDACF0F947360809126
:1038A0004D0390914E03A0914F03B0915003E091CE
:1038B000A904F091AA0430819091A8043923D9F287
:1038C000A0915F09B0916009A830B105C9F01092CC
:1038D000BD1D7091681E7F5F7093681E0895809172
:1038E0005F0990916009079709F0B1CFD3CF60913C
:1038F0005F09709160096830710509F0A8CFCACFDF
:10390000B0936009A0935F090895CF92DF92EF9280
:10391000FF92CF93DF930F9473606093770370935C
:1039200078038093790390937A0380917703909141
:103930007803A0917903B0917A0340912B0A5091BA
:103940002C0A60912D0A70912E0A841B950BA60BF0
:10395000B70B8093730390937403A0937503B09394
:103960007603C0907303D0907403E0907503F090D9
:1039700076032091EB043091EC044091ED045091DA
:10398000EE04C216D306E406F50608F465C080917D
:10399000770390917803A0917903B0917A03809393
:1039A0002B0A90932C0AA0932D0AB0932E0A4091D3
:1039B000730350917403609175037091760376954B
:1039C0006795579547957695679557954795409391
:1039D000EB045093EC046093ED047093EE04D090EC
:1039E000BD1DDD2009F453C0C0902B1ED0902C1EAD
:1039F000E0902D1EF0902E1E80914F1C90E0B0E0C4
:103A0000A0E08C159D05AE05BF0508F040C0809173
:103A1000531C90E0E0905F09F09060098E159F05BF
:103A200091F020912B1E30912C1E40912D1E509113
:103A30002E1E233031054105510528F03091681EB6
:103A40003F5F3093681EF0904A1CF7FE56C090937B
:103A5000600980935F0951C060918A0A70918B0A56
:103A600080918C0A90918D0A9695879577956795A8
:103A70006093EB047093EC048093ED049093EE0458
:103A8000DF91CF91FF90EF90DF90CF9008950F944A
:103A900073606093850A7093860A8093870A909377
:103AA000880A0F9473606B017C01C091531C2C2F0A
:103AB00030E050E040E060E87DE88BE590E00F9476
:103AC000F29AC21AD30AE40AF50AC092810AD09285
:103AD000820AE092830AF092840AD0E0D0936009CF
:103AE000C0935F091092EF041092F0041092F10459
:103AF0001092F20451E05093BD1D71E07093690380
:103B0000DF91CF91FF90EF90DF90CF900895CF920B
:103B1000DF92EF92FF920F9473606093770370933C
:103B200078038093790390937A038091770390913F
:103B30007803A0917903B0917A0340912B0A5091B8
:103B40002C0A60912D0A70912E0A841B950BA60BEE
:103B5000B70B8093730390937403A0937503B09392
:103B60007603C0902B0AD0902C0AE0902D0AF0909A
:103B70002E0ACD28CE28CF28C1F4109273031092BC
:103B8000740310927503109276032091770330919D
:103B900078034091790350917A0320932B0A309354
:103BA0002C0A40932D0A50932E0A40917303509192
:103BB000740360917503709176038091EB0490918A
:103BC000EC04A091ED04B091EE04481759076A0780
:103BD0007B07C0F130914C1C3F77313009F4C1C0F4
:103BE000311120C051E050936903609173037091CB
:103BF00074038091750390917603969587957795D8
:103C000067956093EB047093EC048093ED049093BC
:103C1000EE04A091280AB091290A1196B093290ABE
:103C2000A093280AC0907703D0907803E09079039E
:103C3000F0907A03C0922B0AD0922C0AE0922D0ABF
:103C4000F0922E0AD090B71ED5FE86C0E090690390
:103C5000EE2009F481C0E091C309F091C4091995DF
:103C6000AC01893621E092070CF442C09C01295630
:103C70003140A3E8BDE20F94809B0024880F991F78
:103C8000001C880F991F001C892F902D8770992781
:103C900048565140493621E0520754F1009711F13E
:103CA00081309105C9F082309105A1F083309105F2
:103CB00079F08430910551F08530910529F006970F
:103CC00009F0B5C0485651404856514048565140F9
:103CD000485651404856514048565140493621E0D7
:103CE000520734F040545B40493681E05807D4F71E
:103CF0002091441C3091451C421B530B7091BD1EFA
:103D00007370723031F480917F1D9091801D481B3B
:103D1000590BE091C01C9A01220F331FF0E0A0E084
:103D2000B1E0AE1BBF0B0F94B39B6B017C01A09164
:103D30006D1EB0916E1E9F010F94BB9BC60ED71EC9
:103D4000E81EF91ECD2CDE2CEF2CFF24E7FCFA94A4
:103D5000D0926E1EC0926D1EFF90EF90DF90CF90BC
:103D6000089580912B0A90912C0AA0912D0AB09170
:103D70002E0AC090DF04D090E004E090E104F090BF
:103D8000E2048C199D09AE09BF09AC01BD01440FC5
:103D9000551F661F771F840F951FA61FB71FB69567
:103DA000A7959795879580935D0390935E03A09365
:103DB0005F03B093600320912B0A30912C0A40914D
:103DC0002D0A50912E0A2093DF043093E004409393
:103DD000E1045093E20440917303509174036091A5
:103DE00075037091760380915D0390915E03A091BD
:103DF0005F03B0916003481759076A077B0730F4E7
:103E0000E091280AF091290A3497A0F081E090E02F
:103E10009093290A8093280A809369031092EB04F7
:103E20001092EC041092ED041092EE04FBCE485672
:103E3000514048CF60917303709174038091750372
:103E40009091760396958795779567959695879542
:103E5000779567956093EB047093EC048093ED0481
:103E60009093EE04A091280AB091290A1196B0937C
:103E7000290AA093280AD6CECF93DF9310926A0323
:103E800081E080936A032091F8042330F1F022301E
:103E900091F0213029F4E091F404F091F5041995A2
:103EA00060916C1E662321F070916A03711117C036
:103EB000DF91CF910895E091A604F091A70430819D
:103EC0009091A504392339F3EBCFC091A604D0918A
:103ED000A70448815091A5044523E9F6E1CF8091DC
:103EE000730390917403A0917503B0917603A09130
:103EF0000A1EA6FDDDCFB0916B1EB111D9CFC091C6
:103F0000540CD091550CC453DD4F1882E091A90494
:103F1000F091AA04D081F091A804DF2309F045C0F4
:103F2000E091A604F091A70420813091A5042323F9
:103F300049F0C091540CD091550CC453DD4F988179
:103F400092609883E091540CF091550CE453FD4F2E
:103F50004081446040835091BD1D552349F0C0917C
:103F6000540CD091550CC453DD4F68816860688350
:103F7000C091540CD091550C0F947360CC0FDD1F81
:103F8000CC0FDD1FCA5AD34F688379838A839B8302
:103F9000A091540CB091550CAE37B10580F07091E2
:103FA0000A1E706470930A1E83CFC091540CD09186
:103FB000550CC453DD4F888181608883B1CF8091D7
:103FC000540C9091550C01969093550C8093540C81
:103FD000B0910A1EBF7BB0930A1E6ACFCF93DF93C6
:103FE00010926A038091F904833009F481C0823011
:103FF000B9F08130F1F4E091F604F091F7041995ED
:1040000070916B1E772301F1A0916A03A1117BC00F
:10401000B1E0D0916C1ED1111CC0DF91CF910895F9
:10402000E091A904F091AA0420819091A804292389
:1040300011F350916B1E552339F060916A0366238A
:1040400039F3DF91CF910895B0E0D0916C1EDD235C
:1040500021F340916B0350916C0360916D0370915B
:104060006E03F0910A1EF6FDD8CFC091540CD0918A
:10407000550CB1116FC0C453DD4F1882E091A904F3
:10408000F091AA0480812091A804822309F082C0C3
:10409000E091A604F091A70430815091A504352346
:1040A00049F0C091540CD091550CC453DD4F688138
:1040B000626068837091BD1D772349F0E091540CD4
:1040C000F091550CE453FD4FA081A860A083C091EE
:1040D000540CD091550C0F947360CC0FDD1FCC0F96
:1040E000DD1FCA5AD34F688379838A839B833CC080
:1040F000C091A904D091AA0438814091A804342326
:1041000009F079CF96CF20916B0330916C034091E9
:104110006D0350916E03B0910A1EB6FD7ECFE09103
:10412000540CF091550CEE0FFF1FEE0FFF1FEA5AD3
:10413000F34F20833183428353838091540C9091B9
:10414000550C8E379105B8F0D0910A1ED064D093EB
:104150000A1E63CFCC0FDD1FCC0FDD1FCA5AD34F11
:10416000488359836A837B834091540C5091550C4A
:104170004E37510548F7A091540CB091550C11964B
:10418000B093550CA093540CF0910A1EFF7BF09352
:104190000A1E43CFC091540CD091550CC453DD4F2F
:1041A00098819160988374CF833023E0920709F45B
:1041B000F7C258F1813123E0920709F4D9C208F01F
:1041C00060C08A3023E0920709F4DEC208F0E8C03C
:1041D000863023E0920709F461C208F44BC28830AC
:1041E00023E0920709F4B7C108F4F5C35091311EDA
:1041F00051FF06C06091070674E0672760930706C9
:10420000A0910706A2FFD9C108958C3022E0920741
:1042100009F4D6C2D8F4853022E0920709F4E0C24E
:1042200008F0D2C0813022E0920709F46BC208F492
:10423000D5C1833022E0920709F46DC108F4A7C309
:104240005091311E51FFE0CF0D947C0E833122E05E
:10425000920709F49FC208F46BC0873122E09207ED
:1042600009F43DC308F0F5C0853122E0920709F456
:104270001CC108F4ECC27091311E71FFC5CF0D94C2
:10428000600B883123E0920709F4B6C208F46EC0CF
:10429000833029E9920709F44BC208F0AFC081309E
:1042A00029E9920709F417C108F035C38115994926
:1042B00009F0C1C3F8948091DC0887FD8C5F181663
:1042C0000CF09FC3082E000C990BFC01EE0FFF1F92
:1042D000EE0FFF1FE352F74F20813181428153815E
:1042E000880F991F880F991FFC01E752F74F8081B3
:1042F0009181A281B381281B390B4A0B5B0B789407
:10430000211531054105510509F47ECF60E077E8BC
:1043100083E993E00F94259B3093370C2093360C60
:104320000F947359A091591EA860A093591E089527
:104330008F3022E0920709F4EBC108F45EC18131AD
:1043400022E0920709F49FC008F43FC37091311E28
:1043500071FF06C0A091080690E2A927A093080665
:10436000B0910806B5FD50CF0D942517843123E098
:10437000920709F4A8C208F46EC1863123E09207BF
:1043800009F48DC008F447C23091311E31FF3CCF93
:104390000E946BFC409107064F77409307060895F3
:1043A0008D3023E0920709F49BC108F43BC18F30A4
:1043B00023E0920709F4BFC008F498C19091311E20
:1043C00091FF22CF0D946001883022E0920709F41A
:1043D00032C208F4F4C08A3022E0920709F475C0B2
:1043E00008F489C29091311E91FF0ECF0F94871768
:1043F000A0910806A77FA09308060895853029E9B3
:10440000920709F4B4C008F42EC28630994909F025
:1044100011C32091771E3091781E2115310509F4C2
:10442000F3CEA0E1B7E20F94809B2091BE1D3091A6
:10443000BF1D50E040E00F94259B3093440C209327
:10444000430C0F9473599091591E98609093591E84
:104450000895813023E0920709F4A9C008F0A3C2AF
:104460008831924009F0E5C2F091311EF1FF05C09C
:10447000809108068058809308062091080627FD41
:10448000C3CE0D94C416E091311EE1FFBDCE0F9452
:104490002517F0910806FF7DF093080608955091C6
:1044A000311E51FFB1CE0C9458FDA091311EA1FFD9
:1044B00006C0B091080690E4B927B0930806E091D1
:1044C0000806E6FDA1CE0D94F416B091311EB1FFA1
:1044D0009BCE0D948F0B2091771E3091781E211565
:1044E000310509F491CEA0E1B7E20F94809B2091B1
:1044F000BE1D3091BF1D50E040E00F94259B3093CE
:104500003A0C2093390C0F947359E091591EE860CE
:10451000E093591E08956091311E61FF06C07091AD
:10452000080691E0792770930806A0910806A0FD7F
:104530006BCE0D94F317F091311EF1FF06C0809100
:10454000070620E18227809307063091070634FD95
:104550005BCE0D947602B091311EB1FF55CE0E9414
:10456000A7FEE0910706EB7FE093070608952091F0
:10457000771E3091781E2115310509F445CEA0E152
:10458000B7E20F94809B2091BE1D3091BF1D50E07B
:1045900040E00F94259B3093420C2093410C0F94E4
:1045A00073592091591E28602093591E08955091E7
:1045B000311E51FF29CE0D94A9030C94A7FE86301D
:1045C00022E0920709F46FC18730924009F035C2AA
:1045D000E091311EE1FF18CE0D942D0D811521E0E3
:1045E000920709F4B8C18130914009F025C2809149
:1045F000311E82608093311E08958D3022E0920733
:1046000009F4DDC18E30924009F011C23091311EA3
:1046100031FFFACD0F945617409108064F7E409314
:10462000080608958B3023E0920709F44DC08C30C2
:10463000934009F003C23091311E31FF06C0409112
:10464000070658E04527409307066091070663FD7B
:10465000DBCD0C94A5FC823123E0920709F4C1C1A3
:104660008331934009F0E4C16091311E61FFCCCDEC
:104670000C945BFF843023E0920701F18530934076
:1046800009F0D4C18091311E81FFBECD0F94AC00E2
:10469000209107062D7F2093070608959091311EE3
:1046A00091FF06C0F091070682E0F827F093070615
:1046B0002091070621FDA8CD0D94AC003091311E4C
:1046C00031FFA2CD0D94A4017091311E71FF9CCDDC
:1046D0000E94A5FCA0910706A77FA0930706089556
:1046E0004091311E41FF90CD0D946503B091311E74
:1046F000B1FF8ACD0F947602E0910706EF7EE0933A
:1047000007060895B091311EB1FF7ECD0D94B10F13
:104710008091311E81FF06C02091080630E12327D9
:10472000209308064091080644FD6ECD0D9456175F
:104730002091771E3091781E2115310509F464CD42
:10474000A0E1B7E20F94809B2091BE1D3091BF1D68
:1047500050E040E00F94259B30933E0C20933D0C9D
:104760000F9473593091591E38603093591E089533
:104770007091311E71FF48CD0F9471008091070632
:104780008F7D8093070608955091311E51FF3CCDD7
:104790000C949BFDA091311EA1FF36CD0D94FD0C14
:1047A000A091311EA1FF06C0B0910706E1E0BE272F
:1047B000B09307069091070690FD26CD0D94B102A7
:1047C000B091311EB1FF06C0E091080698E0E927DC
:1047D000E0930806F0910806F3FD16CD0D948717B7
:1047E0008091311E81FF10CD0F94BD1720910806D6
:1047F0002D7F2093080608954091311E41FF05C08A
:10480000509107065058509307066091070667FDC0
:10481000FBCC0C946BFC9091311E91FF06C0F09183
:10482000070680E4F827F09307062091070626FD87
:10483000EBCC0C946CFEE091311EE1FFE5CC0F94C3
:10484000440CF0910806FB7FF09308060895509100
:10485000311E51FFD9CC0F94F416609108066F7B7E
:104860006093080608952091771E3091781E2115D7
:10487000310509F4C9CCA0E1B7E20F94809B2091E7
:10488000BE1D3091BF1D50E040E00F94259B30933A
:10489000400C20933F0C0F947359F091591EF8600F
:1048A000F093591E0895F091311EF1FF06C08091DA
:1048B000080622E08227809308063091080631FD21
:1048C000A3CC0D94BD176091311E61FF9DCC0E9459
:1048D0006CFE709107067F7B7093070608956091C8
:1048E000311E61FF91CC0F94C416709108067F773A
:1048F0007093080608954091311E41FF06C0509103
:10490000080664E05627509308067091080672FD69
:104910007BCC0D94440C2091771E3091781E21158C
:10492000310509F471CCA0E1B7E20F94809B20918E
:10493000BE1D3091BF1D50E040E00F94259B309389
:104940003C0C20933B0C0F947359B091591EB860E6
:10495000B093591E08952091311E2D7F2093311E52
:104960000F94B1020F94AC000E94A7FE0E94A5FC18
:104970000F9476020F94F3170F94BD170F94440C05
:104980000F94871710920806109207060895309129
:10499000311E31FF39CC0F94F317409108064E7F3A
:1049A0004093080608953091311E31FF2DCC0F94AD
:1049B000B102409107064E7F40930706089550913B
:1049C000311E51FF21CC0D94810F6091311E61FF8A
:1049D0001BCC0D944C0E4091311E41FF15CC0C9414
:1049E0009FFF7091311E71FF06C0A0910706B0E2D3
:1049F000AB27A0930706E0910706E5FD05CC0D94D3
:104A000071002091DD083091DE084091DF0850915F
:104A1000E0088091E9089091EA08A091EB08B09134
:104A2000EC08281B390B4A0B5B0B69CC08950895E1
:104A30000895089508950895089508950895CF93C9
:104A4000DF9300D01F92CDB7DEB7982F8F3010F0D4
:104A50000F94229CE82FF0E08827EE5CFA4D8F4FF0
:104A60000D94AB9B542556255C2563257D25832518
:104A70008B259C25B925F325FA25012609264125F4
:104A80004D256038710508F4E9C080E00F900F9063
:104A90000F900F90DF91CF910895603281E07807F9
:104AA000A0F786EA96E115C0892FF0CF603871052E
:104AB00060F78FEC9BE035C0603221E0720728F789
:104AC0008BE79AE106C0603231E07307F0F68DEEB5
:104AD00097E16F3F710509F008F4EEC06031F1E035
:104AE0007F0708F013C1895F9E4F7727660F771FF6
:104AF000680F791F7A836983A8C06038710528F62A
:104B000084E49CE10EC0603281E0780708F0BDCFFC
:104B10008FE595E1DECF6038710508F0B6CF87EB01
:104B20009EE1680F791FFB0180810F900F900F901D
:104B30000F90DF91CF9108956035710508F491C011
:104B4000603A710508F49BC0603F710508F09DCF85
:104B5000605A710988EF94E1262F6034710508F4DA
:104B6000A2C06834710508F0D6C0895B9F4F2054FD
:104B700032C06033710508F47AC06036710508F4FC
:104B800083C06039710508F4A9C0603C710508F460
:104B9000D1C0603F710508F4D2C06032E1E07E0709
:104BA00008F4D2C06035F1E07F0708F4D2C0603865
:104BB00021E0720708F069CF6055714084E491E10B
:104BC000262F6432710508F47BC06A32710508F043
:104BD0008AC08B96245230E0220F331F820F931F1E
:104BE0009A83898332C0603C710508F04ECF8FE014
:104BF0009BE097CF603C710508F047CF8DEF9CE1BB
:104C000090CF603231E0730708F03FCF84E399E141
:104C100060CF6035710540F1603A710558F1683B2D
:104C2000710508F032CF605A71096031710588F161
:104C30006431710508F073C06051862F90E0880FD1
:104C4000991F8C5C9E4E9A838983A5E7B2E0BC8352
:104C5000AB83CE0101960E94E11618CF8FE89AE04F
:104C600060CF81E994E178CF8CE593E175CF89E15C
:104C700093E1A6CF6055710983EC93E16DCF605548
:104C800071098AE294E168CF6053710986ED92E17F
:104C900097CFE62FE370EA5FEE0FE61BF0E0E35EEE
:104CA000FE4E8781F3CE2770245E220F261B820FD3
:104CB000911DFC018781EACE262F2F702858F5CF51
:104CC0002BEA629F412D112446954695342F330FD0
:104CD000430F440F262F241B215FE7CF6056710935
:104CE00083E992E16DCF8F5B9F4F2A5230E0220F14
:104CF000331F821B930B9A8389836DE772E07C8359
:104D00006B83CE0101960E94E116C0CE8B5B9E4F55
:104D10006051262FEBCF8B599F4F2854E7CF64511A
:104D2000862F90E0880F991F9195819591098E5B50
:104D30009E4EE1CF6059710980E592E141CF605C00
:104D400071098DE092E13CCF605F71098AEC91E1DD
:104D500037CF6052714087E891E132CF8F3010F049
:104D60000F94229CE82FF0E08827E654F94D8F4FEE
:104D70000D94AB9B0B271B2722272A273227392785
:104D800041274827C92675277C278727A7270C276F
:104D900013276033710508F412C16036710508F4F9
:104DA0001BC16039710508F44FC1603C710508F4FE
:104DB00092C1603F710508F493C1603281E07807C9
:104DC00008F493C16035E1E07E0708F493C16038D0
:104DD000F1E07F0700F560557140A4E4B1E1862F52
:104DE0006432710508F41CC16A32710508F031C1E2
:104DF0008452E82FF0E0EE0FFF1FEA0FFB1F34E6AE
:104E0000439FC001112494A783A78FEF9FE71396B8
:104E10009C938E93129708956038710508F0C7C06F
:104E20008FE89AE06FC06032E1E07E0708F0BEC014
:104E3000A6EAB6E173C06038710508F0B6C08FEC21
:104E40009BE060C0603281E0780708F0ADC0ABE75E
:104E5000BAE164C06032E1E07E0708F0A4C0ADEEC4
:104E6000B7E15CC06038710508F09CC084E49CE147
:104E700049C06032F1E07F0708F093C0AFE5B5E1CB
:104E80004DC06038710508F08BC087EB9EE13AC0D9
:104E90006035710508F490C0603A710508F497C058
:104EA000603F710508F0B7CF605A7109E8EFF4E18F
:104EB000862F6034710508F49EC06834710508F0CF
:104EC000E9C08054A82FB0E0AA0FBB1FAE0FBF1FD0
:104ED000A95BBF4F54E6459F900111242D933C934D
:104EE0004FEF5FE7538342830895603C710508F0FC
:104EF0005FC08FE09BE006C0603C710508F04FC0CA
:104F00008DEF9CE1680F791FFB01408308956032AB
:104F100081E0780708F042C0A4E3B9E16F3F710572
:104F200009F008F473C06031E1E07E0708F0A1C029
:104F3000FB01FF27EE0FFF1FEA0FFB1FE95FFE4F8C
:104F400074E6479FB0011124718360835ECF6035A2
:104F5000710578F1603A7105A8F1683B710508F0B8
:104F60005ACF605A710960317105D8F16431710509
:104F700008F0A0C06051E62FF0E0EE0FFF1FEC5CE0
:104F8000FE4E24E6429FA0011124518340836FEF1F
:104F90007FE77093201160931F110895089508957D
:104FA0000895089508950895089508950895089519
:104FB0000895ECE5F3E17CCFE1E9F4E179CFA9E1F3
:104FC000B3E10DCF60557109E3ECF3E171CF6055AA
:104FD0007109EAE2F4E16CCF60537109A6EDB2E128
:104FE000FECEE62FE370EA5FEE0FE61BF0E0E35E35
:104FF000FE4E4783CCCFA62FA770A45EAA0FA61B98
:10500000AE0FBF2FB11D17964C936ACFE62FEF70EE
:10501000E858EE0FE61BEA0FFB2FF11D4783F5CE94
:105020008BEA689F812D112486958695982F990F7C
:10503000890F880FE62FE81BE15FEE0FE61BEA0FF2
:10504000FB2FF11D4783E1CE60567109A3E9B2E160
:10505000C6CE8A5290E0880F991FFD01E81BF90B1C
:10506000EF5BFF4F842F90E0880F991F918380831F
:10507000CCCE6051862F90E0880F991FFD01E81B70
:10508000F90BEB5BFE4F842F90E0880F991F918303
:105090008083BBCE885490E0880F991FDF01A81B46
:1050A000B90BAB59BF4F842F90E0880F991F8D9398
:1050B0009C9316CF6451E62FF0E0EE0FFF1FF195A1
:1050C000E195F109EE5BFE4E842F90E0880F991F69
:1050D000918380835CCF60597109A0E5B2E17FCEF6
:1050E000605C7109ADE0B2E17ACE605F7109AAEC53
:1050F000B1E175CE60527140A7E8B1E170CECF92B8
:10510000DF92EF92FF921F93CF93DF937B01409149
:10511000570E5091580E6091590E70915A0E4115CC
:1051200051056105710511F410921F1E4F5F5F4F0D
:105130006F4F7F4F4093570E5093580E6093590E08
:1051400070935A0E2091BD1D50910B1EC0900B1EE6
:1051500030E03195219531092527207833272C25FA
:1051600020930B1E1092C007E114F104A1F06C0112
:1051700010E090E080E0D0E0C0E08C0D9D1D0F9429
:105180007C3DC054D84F89831F5FC12FD0E0CE0132
:10519000CE15DF0590F38091591E877F8093591EAD
:1051A000DF91CF911F91FF90EF90DF90CF90089506
:1051B0002F923F924F925F926F927F928F929F9227
:1051C000AF92BF92CF92DF92EF92FF920F931F9315
:1051D000CF93DF93CDB7DEB7AA970FB6F894DEBFB3
:1051E0000FBECDBF3C016AA3633009F451C708F478
:1051F00037C72AA1243009F427C2253009F05EC739
:105200009C012B5B3E4F1C0157EF250E311C09976B
:1052100098A78FA3F1E080E190E0A0EFBFEFBCA3DF
:10522000ABA34DE752E05EA34DA34FA058A4421498
:10523000530409F425C2B9016E5F7F4F7AA769A7AD
:105240002101480E591E30E020E001E0AAE08A2E3C
:10525000912CA12CB12C11E0DB015E914E91BAA7EB
:10526000A9A7EF2FEF712115310509F488C5DA01DF
:105270000F94B39B6C01FF24D7FCF094EF2CC60174
:10528000F6FF0EC08F2FFF0F990B880F892F881FF5
:10529000990B48275927481B590BCA018C0D9D1D96
:1052A00002C095958795EA95E2F797FD0196D82E6D
:1052B000B3E6E7EEFFE0B81708F092C12D2D30E01D
:1052C00050E040E019A2CE0181966C01CA01B901FB
:1052D000A50194010F94259B605DD6016E936D012D
:1052E000211531054105510589F7109709F43EC094
:1052F000FD0101900020E9F79F01FD0121503109D6
:105300002E173F0799F1F1900093100F7091130F32
:105310004091140FA091080FB091090F741709F470
:105320000CC34091130F50E04F5F5F4F4F735527F1
:10533000942F03C00FB607FE9FC25091140F95170C
:10534000C9F3A091130FB0E0AB5AB04FFC92DFB697
:10535000F8944093130FA0910A0FB0910B0F8C910A
:1053600080628C93DFBE2E173F0769F6E9EEFFE0FF
:10537000F490FF2099F10093100F3091130F2091BA
:10538000140FA091080FB091090F321709F41AC336
:105390002091130F30E02F5F3F4F2F733327E22E02
:1053A00003C00FB607FEDDC28091140FE816C9F3E3
:1053B000A091130FB0E0AB5AB04FFC92CFB6F89467
:1053C0002093130FA0910A0FB0910B0F7C91706284
:1053D0007C93CFBE3196F490F110CDCF6101421491
:1053E000530409F49BC0D6012D916D01E7EEFFE057
:1053F000243608F410C330E050E040E019A2CE019A
:1054000081967C01CA01B901A50194010F94259BE5
:10541000605DD7016E937D01211531054105510570
:1054200089F7109709F43EC0FD0101900020E9F7CB
:10543000AF01FD01415051094E175F0799F1F190FD
:105440001093100F2091130F3091140FA091080F9B
:10545000B091090F231709F473C32091130F30E0A3
:105460002F5F3F4F2F733327622F03C00FB607FE06
:1054700006C39091140F6917C9F3A091130FB0E000
:10548000AB5AB04FFC92EFB6F8942093130FA09153
:105490000A0FB0910B0F8C9180628C93EFBE4E1768
:1054A0005F0769F6E9EEFFE04491442399F1109318
:1054B000100F5091130FF090140FA091080FB0919E
:1054C000090F5F1509F481C32091130F30E02F5F9E
:1054D0003F4F2F733327922F03C00FB607FE44C3ED
:1054E0007091140F9717C9F3A091130FB0E0AB5A46
:1054F000B04F4C93EFB6F8942093130FA0910A0F7E
:10550000B0910B0F8C9180628C93EFBE31964491D9
:105510004111CDCF4C145D0409F065CFA4E9B2E090
:10552000DD900093100F9091130FE090140FE09115
:10553000080FF091090F9E1509F48DC32091130FE8
:1055400030E02F5F3F4F2F733327322F03C00FB64A
:1055500007FE50C36091140F3617C9F3E091130F83
:10556000F0E0EB5AF04FD0825FB7F8942093130F1E
:10557000E0910A0FF0910B0F7081706270835FBF32
:1055800066E972E06A177B0759F6EBA0FCA02E0CC7
:105590003F1C4E0C5F1C4FA158A54215530509F442
:1055A0006FC0ADA1BEA11396FC91139711962D91DA
:1055B0003C91A9A5BAA551CEFC90F5FE21C0EFB64D
:1055C000F894A0910E0FB0910F0FCC92A091080FFC
:1055D000B091090F3C91337030643C93EFBE31962B
:1055E000C490CC2009F4EEC30093100F9091130FD8
:1055F000E090140FA091080FB091090F9E15E1F2F1
:105600002091130F30E02F5F3F4F2F733327322F3E
:1056100003C00FB607FE60C15091140F3517C9F3D0
:10562000A091130FB0E0AB5AB04FCC927FB7F89473
:105630002093130FA0910A0FB0910B0F2C912062B1
:105640002C937FBF3196CCCF9C012B593F4F1C012F
:105650005FE3250E311CFC013197F8A7EFA3F0E0C2
:1056600088E090E008EF1FEF1CA30BA369E772E04E
:105670007EA36DA34FA058A44214530409F0DBCDC0
:105680000BEE1FE008C088EF9EE00F9441410F5FD2
:105690001F4F892B21F0F80164916111F4CFBAA159
:1056A000B53008F0D1C4B33008F0BEC4B23009F050
:1056B000C3C473018FE1E80EF11C97E1690E711C00
:1056C0006E147F0409F4B3C011E02AE0822E912CFD
:1056D000A12CB12CF301A191B1913F012CEE31E548
:1056E0000F94BB9B9C01359527953595279535954E
:1056F00027953595279535952795022F37FD0395E5
:10570000E7EEFFE0043608F489C3202F30E050E0D4
:1057100040E019A2CE0181961C01CA01B901A50180
:1057200094010F94259B605DD1016E931D0121159D
:1057300031054105510589F71097E9F1FD01019007
:105740000020E9F7AF01415051094A175B0799F171
:105750003D901093100F5090130FD090140FE091C4
:10576000080FF091090F5D1409F4EDC32091130F98
:1057700030E02F5F3F4F2F733327322F03C00FB618
:1057800007FE80C36091140F3617C9F3E091130F21
:10579000F0E0EB5AF04F30824FB6F8942093130F9D
:1057A000E0910A0FF0910B0F2081206220834FBE01
:1057B0004A175B0769F6E9EEFFE04491442399F14B
:1057C0001093100F5091130F3090140FA091080FE9
:1057D000B091090F531509F4FBC32091130F30E06A
:1057E0002F5F3F4F2F733327D22E03C00FB607FE14
:1057F000BEC36091140FD616C9F3A091130FB0E089
:10580000AB5AB04F4C934FB6F8942093130FA0911E
:105810000A0FB0910B0F2C9120622C934FBE319642
:1058200044914111CDCFE614F70409F053CF6DE058
:1058300088EF9EE00F944141892B09F456C46AE039
:1058400088EF9EE0AA960FB6F894DEBF0FBECDBFDC
:10585000DF91CF911F910F91FF90EF90DF90CF904C
:10586000BF90AF909F908F907F906F905F904F9080
:105870003F902F900D944141EC90E5FE5ECDA091BC
:10588000140FB0E0AB5AB04FCC90A091140FB0E021
:105890001196AF73BB27A093140FA0910E0FB09178
:1058A0000F0FCC92A091080FB091090F7C917370EB
:1058B00070647C93B091130F6091140FB61307C0FE
:1058C000A0910A0FB0910B0F5C915F7D5C93A0914A
:1058D000080FB091090F31CD8C9185FF9DCEA0911D
:1058E000140FB0E0AB5AB04F4C916091140F70E0C0
:1058F0006F5F7F4F6F7377276093140FA0910E0F28
:10590000B0910F0F4C93A091080FB091090F6C91BB
:10591000637060646C93B091130F9091140FB9137E
:1059200007C0A0910A0FB0910B0F5C915F7D5C9353
:10593000A091080FB091090F6FCE6C9165FFF1CC6B
:105940004FB7F894A0910E0FB0910F0FFC92A09159
:10595000080FB091090F9C91937090649C934FBF76
:10596000CFCC6C9165FF20CDA091140FB0E0AB5A65
:10597000B04F5C916091140F70E06F5F7F4F6F7359
:1059800077276093140FA0910E0FB0910F0F5C93C7
:10599000A091080FB091090F4C91437040644C9353
:1059A000B091130F9091140FB91307C0A0910A0F73
:1059B000B0910B0F3C913F7D3C93A091080FB091AB
:1059C000090FF2CCDC90D5FEE3CC2FB7F894A09170
:1059D0000E0FB0910F0FFC92A091080FB091090F1C
:1059E0008C91837080648C932FBF3196F4CC6C9132
:1059F00065FF21C05FB7F894A0910E0FB0910F0F13
:105A0000FC92A091080FB091090F3C913370306463
:105A10003C935FBF3196F490FF2009F430C110939E
:105A2000100FE090130F7091140FA091080FB09118
:105A3000090FE716E1F24091130F50E04F5F5F4FFF
:105A40004F735527542F03C00FB607FE48C09091DF
:105A5000140F5917C9F3A091130FB0E0AB5AB04F10
:105A6000FC923FB7F8944093130FA0910A0FB091A6
:105A70000B0F4C9140624C933FBF3196CCCF3C9181
:105A800035FFF7CCA091140FB0E0AB5AB04F7C912A
:105A9000A091140FB0E01196AF73BB27A093140F21
:105AA000A0910E0FB0910F0F7C93A091080FB091B1
:105AB000090F9C91937090649C93B091130FE090A8
:105AC000140FBE1107C0A0910A0FB0910B0F8C915B
:105AD0008F7D8C93A091080FB091090FCACC8C9147
