:100000000C947C110D94D7710D94AC710D94817189
:100010000D9456710D942B710D9400710D94D57043
:100020000D94AA700C94AD110C94AD110C94AD11FB
:100030000C94AD110C94AD110C94AD110D94A167FD
:100040000C94AD110C94F43C0C94D83A0C946EC200
:100050000C94AD110C94AD110C94AD110D94E38082
:100060000C94AD110D946A730D942A730C94AD1118
:100070000C94AD110C94AD110C94AD110C94AD1108
:100080000D942C650D94B1640D9436640C94AD11EF
:100090000C94AD110C94AD110C94AD110C94AD11E8
:1000A0000C94AD110C94AD110D9407600D94BB63CD
:1000B0000D941A5F0C94AD110C94AD110D94CE6299
:1000C0000D94E1610D94F4600C94AD110C94AD119C
:1000D0000C94AD110C94AD110D94F3720D94B37298
:1000E0000C94AD110C94BF6B0C947D8D0D94FE5E41
:1000F0000D9413990C94B8E90C947F4C0D942D0435
:100100000C946CEB0D94537C0D94844A0C94076D05
:100110000C94C2F70C942C710C9463170D94997283
:100120000C94E9A40D94C6980D9464040C94C971C0
:100130000D9461100D94E6040C94C5470D94A572BE
:100140000D941F430D943A430C941AEE0C94ACF9A1
:100150000D94D5100C9451990D9437350C941F1AA9
:100160000D94FB040C9422840C94C9C50C941CECD3
:100170000D9429720C94C3E20D946D350D947E4A52
:100180000D94C0230D946A230D94FD050C942D71DC
:100190000C945B2E0C94729C0C94C36D0D94820491
:1001A0000C943AC70C9480ED0D94A9040C94985FBC
:1001B0000C94AF450C9426C90D941E6E0D94E30467
:1001C0000D9455350C943E8B0C949F160D943D0563
:1001D0000C944FDD0C940D480C94FC960D94AC04DB
:1001E0000C94226C0D9499240D9471170D941206A1
:1001F0000D94E15E0D94D2730D9466720D94A84235
:100200000D9433040D9402740C94F8560C949D5B79
:100210000D9430250D942C060C94754B0C94BC4C0D
:100220000C949C4C0C947A470D94C05E0C94DD7732
:100230000C94ED610D94B2040D9452040C94691762
:100240000C9417700C94836D0C943CA10C9436B8EC
:100250000D9426700C94424D0C9401F20D9453357C
:100260000C94A26B0D9485720C9498C70C944FC794
:100270000D94704A0C94FF560D942B050D94A08696
:100280000C94E2470C94E76C0D94EF040D943B1230
:100290000D9403060D94E1050C94CD550D940C5F5F
:1002A0000C94584B0D941A230C94E8970D943F35F9
:1002B0000C9413A70C948D650D940A050C9483CBB4
:1002C0000D94302D0C9458A40C940C8F0D94FD219A
:1002D0000C9416CB0D9477720D94E9040C946FF383
:1002E0000D94C3120C94EFAE0C9411900C9469CB46
:1002F0000C94166C0D948EB90C9465E30C945648CE
:100300000C94451A0D9417970C94FD6B0C946D8208
:100310000C948D550D94055F0D94080F0C9436F2D6
:100320000C94D4CA0C947E730D9455040D942470CF
:100330000D94955E0D940E740C945CE90C94BD1AAA
:100340000D946F430C9466F80C94BCEA0C94FC5624
:100350000D9402820C94F65B0D9477700D948721B6
:100360000C9408F90C94529A0C9476B30D94FC7387
:100370000D943B350C94F4610C94CAA20D94DD24C9
:100380000D9437160C94CE120D9482050D94A00492
:100390000D9427720D94BB040D94826F0C948EB053
:1003A0000D9425050D947D340D942E050C94816CCF
:1003B0000D9419050C94E6FD0D942B240D942E0B31
:1003C0000D9488040D9461040D9422050D94230668
:1003D0000C94F2950C9476970C94F2CA0C94514DAF
:1003E0000C942C480C94ED4B0D943C040D94B25E8F
:1003F0000C94494D0D948B700D946B700D945804B2
:100400000C948C7F0C94269E0C9499850C94BFBF01
:100410000C9462880C94A34C0D94DC980D94F673A4
:100420000D941C700D9441950D9492130D94F0054C
:100430000D9436040D947C4A0C9444BB0D94F75EE5
:100440000C94CC6B0C94D9920D94884A0C94B2A362
:100450000C94A0C60D94D7040D9437050D94A60FE7
:100460000C94061A0C94EE440D9423720C94FC5BCD
:100470000C94E6130C94FB960C9426570D9470057F
:100480000C94C26C0D94864A0D9454430C94996C50
:100490000D9478410D9455700D94DD040C94009CDE
:1004A0000C9484440D948A4A0C94425C0D94B95E79
:1004B0000D94F2980C94D1AB0D94D3980C94F74B07
:1004C0000D94F2040C94E25E0D94A45E0C94029FD1
:1004D0000C94424C0D9425720C94D68C0D944605C8
:1004E0000D943A960C941D4C0D9497040D94E405CC
:1004F0000D9470040C9415450D94D8730C9405E379
:100500000D94F5040D9409060D941E700D94FB983E
:100510000D94804A0C94F1470C94E98E0C94DE6B98
:100520000C94329D0D9434050C94C8A90D947595C6
:100530000C943B4D0D94DA040D940F0E0D94300481
:100540000D9471350D942A6E0C94DD560C94D1F2F5
:100550000D9403990D94391B0C9433560D94B504E6
:100560000C940CEA0C9403620C9450EE0C948D6C79
:100570000D94E4730D945C410C94FE4C0D949D5EBF
:100580000C942E710C942E1A0C94B38A0C9489EF4F
:100590000D948E4A0C9459450C940D610C94D07CAA
:1005A0000C943C570C94C34C0D94AB5E0C944D9A38
:1005B0000D94A3040C949E1A0C94744D0C94A1C435
:1005C0000C944C1A0D9499700D9443050D946D2D57
:1005D0000D94A6040C9487640C9482650C94F66CBC
:1005E0000C94EC940D9467040C9499E30D943335BA
:1005F0000D94980C0D9461220D9494040C94F2FACD
:100600000C9435560C946C650C94F06B0C94A96D9D
:100610000D9485040D94AF040D944C040D945B2649
:100620000D942A040C9418EB0C94096C0C94B19062
:100630000D94B8980C9414A50D941D210D94F940B7
:100640000C9471640D9440050D94764A0D941A062D
:100650000C9404C10D940F060D941D060C94739B0D
:100660000C940E7E0D9457050D9439040C94666419
:100670000D9444700D943F040D94E06E0D94690543
:100680000C94F15B0C94AE470C943C8C0D94135F6E
:100690000C94FF470D94ED050C94924B0D9431058D
:1006A0000C942B610C94896B0D9404050D94DE73EE
:1006B0000D9422090C94051A0D9459350D94F305E7
:1006C0000C949E5F0C942DF10D94FA050D94D22D8F
:1006D0000D949B090C944B830D946D040D944672FC
:1006E0000C94AC6D0D9422700D94EA050C941C6C66
:1006F0000D94824A0D94CC730C94C1480C94105FF5
:100700000D94F05E0C943F920C9416860C942D463A
:100710000D94936F0C9464720C9466170C94F861AA
:100720000C94C8EB0D9426060D9446040D94BC223F
:100730000C9428A00D94744A0C94D64C0C94B64C8E
:100740000D94C6950D943A050D948E040C94F556AF
:100750000D941C990D942B720D942F720D944C05D1
:100760000D9455980C94547C0D9420060D944B35A3
:100770000C94DA6C0C94EEEE0C94A8F40D944905EC
:100780000D944F350C9478EC0C9428740D94E97BFF
:100790000D9449040D94E7130D9476040C94814450
:1007A0000D94784A0C9463F10C9458E80D94DE058E
:1007B0000C94895F0D9463700C9426550C944EFA3A
:1007C0000D94A5960D94300A0C94D16B0C941F7A5D
:1007D0000D94382B0C941D810D948F430C9447A2DB
:1007E0000C94C34B0D94507C0D9443350C947C6455
:1007F0000D94296E0D9407050C9492F00C949BB106
:100800000D949A040D9442040D94D4340C943894AD
:100810000C940B8F0C948E8F0C94AEEC0C94885728
:100820000C94CE4B0D94E3140D9431980C944BED35
:100830000C94A84B0D94C75E0C947AE20D945B0463
:100840000D940D050D94C50B0C94DC8B0C94261A9D
:100850000D9452050D94EC040D9429060C94376CFC
:100860000D9434150D9482110C94A6840D94EA73A2
:100870000D94466F0C94747D0D942D720D94D805D3
:100880000C9495480C94D8830D9408180C94D94B6B
:100890000D9400060D9416060C94A3820C945099A6
:1008A0000C94DA560D94887C0C94361A0D947C04C2
:1008B0000C940C490C94584C0C944E850D945E0489
:1008C0000D94724A0C945DF00D9465350D94D12D04
:1008D0000C94901A0D941C050C9408E90C947765FF
:1008E0000C94DA5E0C944A5C0C9468EA0C94876C65
:1008F0000C94936C0D94B6050C94158A0C94CAA0B4
:100900000C94024C0D94F8040D9414740C94C94C7E
:100910000C9466870D9428050D948B040C94095F44
:100920000C9497850D94FB160D941B7C0D94B94285
:100930000D947F040D94B9250C94971A0C94384C9F
:100940000C94AF110C94DA190D9473040D94FE04F9
:100950000D94FB420C947A9C0C94D04C0D94CA419B
:100960000C9489470C94BE890C947CF60D949305E5
:100970000D946A040D94F0730D9408740C9443F56F
:100980000C947F950C94205F0C94E3750D942D349A
:100990000C94DB990D94B8040C941D170C944D4CD9
:1009A0000C94A3480C94D3470D945A050D94BE049F
:1009B0000D94EB420C94CA5B0D94E7050C949E7B5E
:1009C0000D94DB050D94E5330C943D1A0C94E34B28
:1009D0000C94DE160D94C4730D9488420D94E95E58
:1009E0000D9479040D947A4A0D94682E0C94CF29B5
:1009F0000C942DC80C94E2480C94EA5B0C94BA64F5
:100A00000C9425980D9461350D9428700D94C37342
:100A10000C942F660C945D8E0C94D4910C94B44C71
:100A20000D9447350D94AF0E0C9439560C9461B764
:100A30000D9491040D94D4040C94E91A0C94EB9445
:100A40000D9416050D9410050C9433E20C94D964A2
:100A50000C94BFEF0D9491720C94EB5E0D94C873DF
:100A60000C945E8E0D9401050D9413050D94407C3D
:100A70000C94F1950D947F700C9472280C949885C9
:100A80000D945D350C94E1F50D94A76F0C94678778
:100A90000D940C060D94F0940C94036C0D949842F4
:100AA0000D94277C0D949D040C94BEE30D948C4A08
:100AB0000C9420F70D94340D0D94EB1A0C94C5642E
:100AC0000C94E3870D9469350C94889D0D94D80D92
:100AD0000C94826B0D944F040D94BE730C940AF425
:100AE0000C9470570C94FE9F0C9465B50D94E99886
:100AF0000D9411700C940E1A0D9406060D94E004DA
:100B00000D9425040C947E7E0D941F050C942F8467
:100B10000C94E02D0D9411120C947B5F0D942070B9
:100B2000526573657420636F6E74726F6C206973A5
:100B30002063757272656E746C792064697361628A
:100B40006C65642E00436F6D6D732068616C746515
:100B5000642E204E65787420627974652077696C04
:100B60006C207265736574207468652041726475C9
:100B7000696E6F2E0000537065656475696E6F2035
:100B8000323032332E313000737065656475696EB2
:100B90006F2032303233313000000030303200FF0D
:100BA0000A5061676520686173206E6F742062650A
:100BB000656E20696D706C656D656E746564207915
:100BC0006574000A426F6F7374206C6F6F6B757081
:100BD000207461626C65000A326E642049676E6938
:100BE00074696F6E204D6170000A326E6420467524
:100BF000656C204D6170000A5061676520392043A3
:100C00006667000A5472696D2031205461626C6518
:100C1000000A565654204D6170000A426F6F73747B
:100C2000204D6170000A5067203620436F6E666960
:100C300067000A414652204D6170000A5067203417
:100C400020436667000A49676E6974696F6E204DBC
:100C50006170000A5067203220436667000A5645DB
:100C6000204D6170000A3D3D3D436F6D6D616E64C6
:100C70002048656C703D3D3D0A0A416C6C20636FF5
:100C80006D6D616E6473206172652073696E676C4F
:100C9000652063686172616374657220616E6420AF
:100CA00061726520636F6E636174656E6174656403
:100CB0002077697468207468656972207061726158
:100CC0006D6574657273200A776974686F75742036
:100CD0007370616365732E53796E7461783A202066
:100CE0003C636F6D6D616E643E2B3C706172616D33
:100CF00065746572313E2B3C706172616D6574651F
:100D000072323E2B3C706172616D657465724E3E4D
:100D10000A0A3D3D3D4C697374206F6620436F6D38
:100D20006D616E64733D3D3D0A0A41202D2044698A
:100D300073706C617973203331206279746573202C
:100D40006F662063757272656E7453746174757327
:100D50002076616C75657320696E2062696E6172C0
:100D60007920286C6976652064617461290A4220C3
:100D70002D204275726E2063757272656E74206DDF
:100D8000617020616E6420636F6E66696750616791
:100D9000652076616C75657320746F20656570726F
:100DA0006F6D0A43202D205465737420434F4D20EE
:100DB000706F72742E202055736564206279205400
:100DC000756E657273747564696F20746F207365D6
:100DD00065207768657468657220616E20454355AB
:100DE000206973206F6E206120676976656E2073BD
:100DF000657269616C200A20202020706F72742E49
:100E00002052657475726E7320612062696E617222
:100E100079206E756D6265722E0A4E202D205072FB
:100E2000696E74206E6577206C696E652E0A50209D
:100E30002D205365742063757272656E7420706125
:100E400067652E202053796E7461783A2020502BEC
:100E50003C706167654E756D6265723E0A52202D69
:100E60002053616D65206173204120636F6D6D615A
:100E70006E640A53202D20446973706C617920736D
:100E800069676E6174757265206E756D6265720A50
:100E900051202D2053616D65206173205320636FB5
:100EA0006D6D616E640A56202D20446973706C610B
:100EB00079206D6170206F7220636F6E6669675074
:100EC0006167652076616C75657320696E20626963
:100ED0006E6172790A57202D20536574206F6E65FC
:100EE000206279746520696E206D6170206F7220B8
:100EF000636F6E666967506167652E202045787064
:100F0000656374732062696E6172792070617261C9
:100F10006D65746572732E200A2020202053796E2F
:100F20007461783A2020572B3C6F66667365743E77
:100F30002B3C6E6577627974653E0A74202D2053D0
:100F400065742063616C6962726174696F6E20768A
:100F5000616C7565732E202045787065637473200D
:100F600062696E61727920706172616D657465721B
:100F7000732E20205461626C6520696E6465782050
:100F800069732065697468657220302C200A2020FE
:100F90002020312C206F7220322E202053796E7445
:100FA00061783A2020742B3C74626C655F696478C8
:100FB0003E2B3C6E657756616C7565313E2B3C6E01
:100FC000657756616C7565323E2B3C6E6577566170
:100FD0006C75654E3E0A5A202D20446973706C6111
:100FE000792063616C6962726174696F6E207661E9
:100FF0006C7565730A54202D20446973706C617997
:10100000732032353620746F6F7468206C6F6720E0
:10101000656E747269657320696E2062696E6172B3
:10102000790A72202D20446973706C6179732032C3
:10103000353620746F6F7468206C6F6720656E742E
:10104000726965730A55202D205072657061726552
:1010500020666F72206669726D77617265207570A7
:10106000646174652E20546865206E657874206212
:101070007974652072656365697665642077696C4B
:101080006C206361757365207468652041726475B6
:10109000696E6F20746F2072657365742E0A3F202D
:1010A0002D20446973706C617973207468697320B2
:1010B00068656C702070616765002C20005755458D
:1010C000004F3200496E6C65742074656D7000438A
:1010D0006F6F6C616E7400526573657420636F6E20
:1010E00074726F6C2069732063757272656E746CB4
:1010F000792064697361626C65642E00436F6D6D65
:10110000732068616C7465642E204E65787420626B
:101110007974652077696C6C2072657365742074CE
:1011200068652041726475696E6F2E004552523BAE
:1011300020496E636F727265637420454550524F4B
:101140004D2073697A650030303200200020002085
:10115000002000202020200000008000200120012D
:10116000800020018000F0008001C000C00020014C
:10117000C000800020010001040E11161A1C212A53
:101180002C2E30323436383A3C3E40424446484CAD
:101190004E505256585A5D5F63686F797D53706543
:1011A000656475696E6F2063737830323031392E23
:1011B0003800000020002300260029002C002F000A
:1011C00032000001000003010601090100000A0BC2
:1011D00002090C0D0E0807030401000000000000C6
:1011E00000000000000000000000000000000000FF
:1011F00000000000000000001211100000000000BC
:1012000000000000000000000000000000000000DE
:10121000000000002200250028002B002E003100D5
:10122000340002010000050108010B01000021004B
:10123000240027002A002D003000330001010000A7
:10124000040107010A010505050507050808080846
:10125000020202020A0A080804040404010101014E
:101260000101010103030303030303030407070749
:101270000C0C0C0C0C0C0C0C0202020206060606EE
:10128000060606060B0B0B0B0B0B0B0B01021020BB
:1012900020080810204010204080020102010804AC
:1012A0000201010204081020408080402010080440
:1012B0000201800402018040201008040201080499
:1012C00002010102040810204080010204081020DD
:1012D0004080537065656475696E6F2032303233BB
:1012E0002E313000737065656475696E6F20323021
:1012F000323331300000000000963007772C610E49
:10130000EEBA51099919C46D078FF46A7035A56357
:10131000E9A395649E3288DB0EA4B8DC791EE9D57A
:10132000E088D9D2972B4CB609BD7CB17E072DB889
:10133000E7911DBF906410B71DF220B06A4871B9E3
:10134000F3DE41BE847DD4DA1AEBE4DD6D51B5D411
:10135000F4C785D38356986C13C0A86B647AF9627E
:10136000FDECC9658A4F5C0114D96C0663633D0FBF
:10137000FAF50D088DC8206E3B5E10694CE44160A3
:10138000D5727167A2D1E4033C47D4044BFD850DAF
:10139000D26BB50AA5FAA8B5356C98B242D6C9BBCE
:1013A000DB40F9BCACE36CD832755CDF45CF0DD6C1
:1013B000DC593DD1ABAC30D9263A00DE518051D753
:1013C000C81661D0BFB5F4B42123C4B3569995BAF9
:1013D000CF0FA5BDB89EB802280888055FB2D90C0A
:1013E000C624E90BB1877C6F2F114C6858AB1D6187
:1013F000C13D2D66B69041DC760671DB01BC20D282
:10140000982A10D5EF8985B1711FB5B606A5E4BF3E
:101410009F33D4B8E8A2C9077834F9000F8EA80921
:101420009618980EE1BB0D6A7F2D3D6D08976C6490
:1014300091015C63E6F4516B6B62616C1CD83065A2
:10144000854E0062F2ED95066C7BA5011BC1F40888
:101450008257C40FF5C6D9B06550E9B712EAB8BED5
:101460008B7C88B9FCDF1DDD62492DDA15F37CD356
:101470008C654CD4FB5861B24DCE51B53A7400BC6A
:10148000A3E230BBD441A5DF4AD795D83D6DC4D186
:10149000A4FBF4D6D36AE96943FCD96E3446886765
:1014A000ADD0B860DA732D0444E51D03335F4C0AF8
:1014B000AAC97C0DDD3C710550AA41022710100B12
:1014C000BE86200CC925B56857B3856F2009D46640
:1014D000B99FE461CE0EF9DE5E98C9D9292298D071
:1014E000B0B4A8D7C7173DB359810DB42E3B5CBD2E
:1014F000B7AD6CBAC02083B8EDB6B3BF9A0CE2B6F4
:10150000039AD2B1743947D5EAAF77D29D1526DB5D
:10151000048316DC73120B63E3843B64943E6A6DB0
:101520000DA85A6A7A0BCF0EE49DFF099327AE00EF
:101530000AB19E077D44930FF0D2A3088768F20199
:101540001EFEC206695D5762F7CB67658071366C17
:1015500019E7066B6E761BD4FEE02BD3895A7ADA34
:1015600010CC4ADD676FDFB9F9F9EFBE8E43BEB725
:1015700017D58EB060E8A3D6D67E93D1A1C4C2D8C9
:101580003852F2DF4FF167BBD16757BCA6DD06B515
:101590003F4B36B248DA2B0DD84C1B0AAFF64A0344
:1015A00036607A0441C3EF60DF55DF67A8EF8E6EC7
:1015B0003179BE69468CB361CB1A8366BCA0D26F09
:1015C0002536E2685295770CCC03470BBBB916025F
:1015D000222F260555BE3BBAC5280BBDB2925AB480
:1015E0002B046AB35CA7FFD7C231CFD0B58B9ED98D
:1015F0002C1DAEDE5BB0C2649B26F263EC9CA36A3A
:10160000750A936D02A906099C3F360EEB856707A4
:101610007213570005824ABF95147AB8E2AE2BB117
:101620007B381BB60C9B8ED2920DBED5E5B7EFDC96
:101630007C21DFDB0BD4D2D38642E2D4F1F8B3DDD8
:10164000686E83DA1FCD16BE815B26B9F6E177B0EE
:101650006F7747B718E65A0888706A0FFFCA3B06CB
:10166000665C0B0111FF9E658F69AE62F8D3FF6B5C
:101670006145CF6C1678E20AA0EED20DD7548304F0
:101680004EC2B30339612667A7F71660D04D47698C
:1016900049DB776E3E4A6AD1AEDC5AD6D9660BDF9B
:1016A00040F03BD83753AEBCA9C59EBBDE7FCFB25E
:1016B00047E9FFB5301CF2BDBD8AC2BACA3093B348
:1016C00053A6A3B4240536D0BA9306D7CD2957DE46
:1016D00054BF67D9232E7A66B3B84A61C4021B6827
:1016E0005D942B6F2A37BE0BB4A18E0CC31BDF0594
:1016F0005A8DEF022D0000000041311B1982623625
:1017000032C3532D2B04C56C6445F4777D86A75AEC
:1017100056C796414F088AD9C849BBC2D18AE8EF5B
:10172000FACBD9F4E30C4FB5AC4D7EAEB58E2D831C
:101730009ECF1C98875112C24A1023D953D370F4FC
:10174000789241EF6155D7AE2E14E6B537D7B598EC
:101750001C9684830559981B8218A9009BDBFA2DDF
:10176000B09ACB36A95D5D77E61C6C6CFFDF3F411C
:10177000D49E0E5ACDA2248495E3159F8C2046B2A8
:10178000A76177A9BEA6E1E8F1E7D0F3E82483DEFC
:10179000C365B2C5DAAAAE5D5DEB9F464428CC6B4B
:1017A0006F69FD7076AE6B3139EF5A2A202C09072C
:1017B0000B6D381C12F33646DFB2075DC6715470EC
:1017C000ED30656BF4F7F32ABBB6C231A275911CFC
:1017D0008934A00790FBBC9F17BA8D840E79DEA9CF
:1017E0002538EFB23CFF79F373BE48E86A7D1BC52C
:1017F000413C2ADE58054F79F0447E62E9872D4F3F
:10180000C2C61C54DB018A159440BB0E8D83E823AD
:10181000A6C2D938BF0DC5A0384CF4BB218FA796FE
:101820000ACE968D130900CC5C4831D7458B62FAFD
:101830006ECA53E177545DBBBA156CA0A3D63F8D39
:1018400088970E96915098D7DE11A9CCC7D2FAE1AD
:10185000EC93CBFAF55CD762721DE6796BDEB5547A
:10186000409F844F5958120E161923150FDA7038FD
:10187000249B41233DA76BFD65E65AE67C2509CBF9
:10188000576438D04EA3AE9101E29F8A1821CCA7AD
:101890003360FDBC2AAFE124ADEED03FB42D8312FE
:1018A0009F6CB20986AB2448C9EA1553D029467EFD
:1018B000FB687765E2F6793F2FB7482436741B0939
:1018C0001D352A1204F2BC534BB38D485270DE65AD
:1018D0007931EF7E60FEF3E6E7BFC2FDFE7C91D07A
:1018E000D53DA0CBCCFA368A83BB07919A7854BCFD
:1018F000B13965A7A84B98833B0AA99822C9FAB5C4
:101900000988CBAE104F5DEF5F0E6CF446CD3FD92A
:101910006D8C0EC27443125AF3022341EAC1706CFB
:10192000C1804177D847D7369706E62D8EC5B500DA
:10193000A584841BBC1A8A41715BBB5A6898E877FE
:1019400043D9D96C5A1E4F2D155F7E360C9C2D1B2A
:1019500027DD1C003E120098B9533183A09062AE7F
:101960008BD153B59216C5F4DD57F4EFC494A7C2DA
:10197000EFD596D9F6E9BC07AEA88D1CB76BDE3162
:101980009C2AEF2A85ED796BCAAC4870D36F1B5D3A
:10199000F82E2A46E1E136DE66A007C57F6354E8EB
:1019A000542265F34DE5F3B202A4C2A91B679184EA
:1019B0003026A09F29B8AEC5E4F99FDEFD3ACCF3EE
:1019C000D67BFDE8CFBC6BA980FD5AB2993E099F3A
:1019D000B27F3884ABB0241C2CF115073532462A6F
:1019E0001E73773107B4E17048F5D06B51368346EA
:1019F0007A77B25D634ED7FACB0FE6E1D2CCB5CCA5
:101A0000F98D84D7E04A1296AF0B238DB6C870A02B
:101A10009D8941BB84465D2303076C381AC43F157A
:101A200031850E0E2842984F6703A9547EC0FA797B
:101A30005581CB624C1FC538815EF423989DA70E5B
:101A4000B3DC9615AA1B0054E55A314FFC9962622B
:101A5000D7D85379CE174FE149567EFA50952DD7F6
:101A60007BD41CCC62138A8D2D52BB963491E8BB7B
:101A70001FD0D9A006ECF37E5EADC265476E9148DB
:101A80006C2FA05375E836123AA90709236A54242B
:101A9000082B653F11E479A796A548BC8F661B917A
:101AA000A4272A8ABDE0BCCBF2A18DD0EB62DEFD7B
:101AB000C023EFE6D9BDE1BC14FCD0A70D3F838A5B
:101AC000267EB2913FB924D070F815CB693B46E62B
:101AD000427A77FD5BB56B65DCF45A7EC5370953F6
:101AE000EE763848F7B1AE09B8F09F12A133CC3F7B
:101AF0008A72FD249300000000376AC2016ED4840C
:101B00000359BE4602DCA80907EBC2CB06B27C8DA6
:101B10000485164F05B851130E8F3BD10FD685970C
:101B20000DE1EF550C64F91A095393D8080A2D9E5C
:101B30000A3D475C0B70A3261C47C9E41D1E77A213
:101B40001F291D601EAC0B2F1B9B61ED1AC2DFAB62
:101B500018F5B56919C8F23512FF98F713A626B122
:101B600011914C7310145A3C152330FE147A8EB820
:101B7000164DE47A17E0464D38D72C8F398E92C92E
:101B80003BB9F80B3A3CEE443F0B84863E523AC0D8
:101B90003C6550023D58175E366F7D9C3736C3DA80
:101BA0003501A9183484BF5731B3D59530EA6BD3CA
:101BB00032DD01113390E56B24A78FA925FE31EFAB
:101BC00027C95B2D264C4D62237B27A0222299E654
:101BD0002015F3242128B4782A1FDEBA2B4660FC96
:101BE00029710A3E28F41C712DC376B32C9AC8F5CE
:101BF0002EADA2372FC08D9A70F7E75871AE591EDF
:101C0000739933DC721C2593772B4F517672F11741
:101C100074459BD57578DC897E4FB64B7F16080DD1
:101C20007D2162CF7CA4748079931E4278CAA0047F
:101C30007AFDCAC67BB02EBC6C87447E6DDEFA3856
:101C40006FE990FA6E6C86B56B5BEC776A02523185
:101C5000683538F369087FAF623F156D6366AB2B5B
:101C60006151C1E960D4D7A665E3BD6464BA0322BB
:101C7000668D69E06720CBD74817A115494E1F53E1
:101C80004B7975914AFC63DE4FCB091C4E92B75AD3
:101C90004CA5DD984D989AC446AFF00647F64E40E5
:101CA00045C12482444432CD4173580F402AE6494D
:101CB000421D8C8B435068F154670233553EBC750E
:101CC0005709D6B7568CC0F853BBAA3A52E2147CD7
:101CD00050D57EBE51E839E25ADF53205B86ED666F
:101CE00059B187A4583491EB5D03FB295C5A456FC9
:101CF0005E6D2FAD5F801B35E1B771F7E0EECFB1C0
:101D0000E2D9A573E35CB33CE66BD9FEE73267B872
:101D1000E5050D7AE4384A26EF0F20E4EE569EA240
:101D2000EC61F460EDE4E22FE8D388EDE98A36ABAC
:101D3000EBBD5C69EAF0B813FDC7D2D1FC9E6C978D
:101D4000FEA90655FF2C101AFA1B7AD8FB42C49E36
:101D5000F975AE5CF848E900F37F83C2F2263D8452
:101D6000F0115746F1944109F4A32BCBF5FA958D68
:101D7000F7CDFF4FF6605D78D95737BAD80E89FC9A
:101D8000DA39E33EDBBCF571DE8B9FB3DFD221F5A0
:101D9000DDE54B37DCD80C6BD7EF66A9D6B6D8EFAC
:101DA000D481B22DD504A462D033CEA0D16A70E61E
:101DB000D35D1A24D210FE5EC527949CC47E2ADA15
:101DC000C6494018C7CC5657C2FB3C95C3A282D324
:101DD000C195E811C0A8AF4DCB9FC58FCAC67BC9BE
:101DE000C8F1110BC9740744CC436D86CD1AD3C01A
:101DF000CF2DB902CE4096AF9177FC6D902E422B3D
:101E0000921928E9939C3EA696AB546497F2EA2275
:101E100095C580E094F8C7BC9FCFAD7E9E961338E1
:101E20009CA179FA9D246FB598130577994ABB3127
:101E30009B7DD1F39A3035898D075F4B8C5EE10D28
:101E40008E698BCF8FEC9D808ADBF7428B824904B1
:101E500089B523C68888649A83BF0E5882E6B01E6F
:101E600080D1DADC8154CC938463A651853A18176B
:101E7000870D72D586A0D0E2A997BA20A8CE0466B5
:101E8000AAF96EA4AB7C78EBAE4B1229AF12AC6F03
:101E9000AD25C6ADAC1881F1A72FEB33A6765575ED
:101EA000A4413FB7A5C429F8A0F3433AA1AAFD7CF9
:101EB000A39D97BEA2D073C4B5E71906B4BEA740D0
:101EC000B689CD82B70CDBCDB23BB10FB3620F49FF
:101ED000B155658BB06822D7BB5F4815BA06F6537B
:101EE000B8319C91B9B48ADEBC83E01CBDDA5E5A7D
:101EF000BFED3498BE000000006567BCB88BC80910
:101F0000AAEEAFB5125797628F32F0DE37DC5F6B07
:101F100025B938D79DEF28B4C58A4F087D64E0BD48
:101F20006F018701D7B8BFD64ADDD86AF23377DFB1
:101F3000E0561063589F571950FA30A5E8149F10C7
:101F4000FA71F8AC42C8C07BDFADA7C7674308721F
:101F500075266FCECD707FAD951518112DFBB7A4EA
:101F60003F9ED0188727E8CF1A428F73A2AC20C6B5
:101F7000B0C9477A083EAF32A05BC88E18B5673B40
:101F80000AD00087B26938502F0C5FEC97E2F05905
:101F9000858797E53DD1878665B4E03ADD5A4F8F56
:101FA000CF3F2833778610E4EAE37758520DD8ED17
:101FB0004068BF51F8A1F82BF0C49F97482A3022FF
:101FC0005A4F579EE2F66F497F9308F5C77DA740A9
:101FD000D518C0FC6D4ED09F352BB7238DC51896F4
:101FE0009FA07F2A271947FDBA7C204102928FF4D7
:101FF00010F7E848A83D58149B583FA823B6901DF9
:1020000031D3F7A1896ACF76140FA8CAACE1077F54
:10201000BE8460C306D270A05EB7171CE659B8A98B
:10202000F43CDF154C85E7C2D1E0807E690E2FCBF2
:102030007B6B4877C3A20F0DCBC768B17329C70468
:10204000614CA0B8D9F5986F4490FFD3FC7E5066E0
:10205000EE1B37DA564D27B90E284005B6C6EFB04D
:10206000A4A3880C1C1AB0DB817FD767399178D282
:102070002BF41F6E9303F7263B66909A83883F2FBD
:1020800091ED589329546044B43107F80CDFA84D02
:102090001EBACFF1A6ECDF92FE89B82E4667179BD9
:1020A00054027027ECBB48F071DE2F4CC93080F928
:1020B000DB55E745639CA03F6BF9C783D3176836B0
:1020C000C1720F8A79CB375DE4AE50E15C40FF54BA
:1020D0004E2598E8F673888BAE16EF3716F84082D7
:1020E000049D273EBC241FE92141785599AFD7E0D4
:1020F0008BCAB05C333BB659ED5ED1E555B07E502E
:1021000047D519ECFF6C213B62094687DAE7E932D3
:10211000C8828E8E70D49EED28B1F951905F56E43E
:10212000823A31583A83098FA7E66E331F08C18679
:102130000D6DA63AB5A4E140BDC186FC052F294925
:10214000174A4EF5AFF376223296119E8A78BE2B4F
:10215000981DD997204BC9F4782EAE48C0C001FD18
:10216000D2A566416A1C5E96F779392A4F97969FE9
:102170005DF2F123E505196B4D607ED7F58ED162D6
:10218000E7EBB6DE5F528E09C237E9B57AD9460071
:1021900068BC21BCD0EA31DF888F56633061F9D644
:1021A00022049E6A9ABDA6BD07D8C101BF366EB48F
:1021B000AD530908159A4E721DFF29CEA511867BD5
:1021C000B774E1C70FCDD91092A8BEAC2A46111939
:1021D000382376A5807566C6D810017A60FEAECF2A
:1021E000729BC973CA22F1A457479618EFA939AD5B
:1021F000FDCC5E114506EE4D766389F1CE8D264409
:10220000DCE841F86451792FF9341E9341DAB126A4
:1022100053BFD69AEBE9C6F9B38CA1450B620EF019
:102220001907694CA1BE519B3CDB36278435999236
:102230009650FE2E2E99B95426FCDEE89E12715D52
:102240008C7716E134CE2E36A9AB498A1145E63F8C
:1022500003208183BB7691E0E313F65C5BFD59E9D3
:1022600049983E55F12106826C44613ED4AACE8B3A
:10227000C6CFA9377E38417FD65D26C36EB3897637
:102280007CD6EECAC46FD61D590AB1A1E1E41E1472
:10229000F38179A84BD769CB13B20E77AB5CA1C29F
:1022A000B939C67E0180FEA99CE59915240B36A09C
:1022B000366E511C8EA7166686C271DA3E2CDE6F12
:1022C0002C49B9D394F081040995E6B8B17B490D46
:1022D000A31E2EB11B483ED2432D596EFBC3F6DB25
:1022E000E9A69167511FA9B0CC7ACE0C749461B95C
:1022F00066F10605DE007A0111241FBECFEFD1E2A0
:10230000DEBFCDBF00E00CBF12E0A0E0B2E0E4EE23
:10231000F0E803E00BBF02C007900D92AE38B107A2
:10232000D9F720E2AEE8B2E001C01D92AF34B207A7
:10233000E1F711E1CCE7D1E100E006C02197010906
:10234000802FFE010F94CBBECB37D10780E008076A
:10235000A9F70F942D810D9470C00C940000CF92BA
:10236000DF92EF92FF920F931F93CF93DF938091B1
:102370005D1DC1E08D3008F4C0E0E82EF12C009125
:102380005A1D0C710C3009F4FCC0F70130E020E05C
:10239000C0904E1DD0904F1D6091840A7091850AA7
:1023A000D0E08091DB0A9091DC0A8C199D090F9492
:1023B000F5BD6C1B7D0BE617F7070CF0D1C06E1B4B
:1023C0007F0B00915C0710915D070617170720F43B
:1023D000E616F7060CF0D3C0200F311F922F432FC3
:1023E0006217730710F4962F472F9093740540934C
:1023F00075056091840A7091850A80917C059091A1
:102400007D058C199D090F94F5BD6C1B7D0BE6179E
:10241000F7070CF09EC06E1B7F0B0617170720F402
:10242000E616F7060CF0A9C0522FA32F6217730708
:1024300010F4562FA72F50937205A0937305609147
:10244000840A7091850A80917A0590917B058C1998
:102450009D090F94F5BD6C1B7D0BE617F7070CF07B
:1024600071C06E1B7F0B0617170720F4E616F706E0
:102470000CF081C0B22F832F6217730710F4B62FB0
:10248000872FB0937005809371056091840A7091D5
:10249000850A80917805909179058C199D090F9492
:1024A000F5BD6C1B7D0BE617F7070CF044C06E1BE7
:1024B0007F0B0617170720F4E616F7060CF059C035
:1024C000922F432F6217730710F4962F472F909384
:1024D0006E0540936F056091840A7091850A809122
:1024E0007605909177058C199D090F94F5BD6C1BAD
:1024F0007D0BE617F707CCF46E1B7F0B061717074B
:1025000018F4E616F7069CF52617370708F09B0126
:102510003093530520935205DF91CF911F910F9176
:10252000FF90EF90DF90CF9008951616170634F3C2
:102530006E0F7F1FE3CF161617060CF4BACF6E0F7F
:102540007F1FB7CF161617060CF48DCF6E0F7F1FA7
:102550008ACF161617060CF460CF6E0F7F1F5DCF63
:10256000161617060CF42DCF6E0F7F1F2ACFB80159
:10257000CBCFB801A5CFB8017DCFB80155CFB801F9
:102580002BCFC090531DC1FC00CFD090F30CD2FCD8
:10259000FCCE9701F701EE0FFF1FFACECF92DF922C
:1025A000EF92FF920F94BD806093460570934705AC
:1025B0008093480590934905809146059091470581
:1025C000A0914805B09149054091420550914305BD
:1025D0006091440570914505841B950BA60BB70BC4
:1025E00080933E0590933F05A0934005B09341052D
:1025F000C0904205D0904305E0904405F090450519
:10260000CD28CE28CF28C1F410923E0510923F0568
:1026100010924005109241052091460530914705E2
:102620004091480550914905209342053093430558
:10263000409344055093450540913E0550913F0518
:10264000609140057091410580913A0590913B055C
:10265000A0913C05B0913D05481759076A077B07D3
:1026600008F4AFC0A0914407B09145071196B0930C
:102670004507A093440760913E0570913F05809106
:10268000400590914105969587957795679560935C
:102690003A0570933B0580933C0590933D05E0918E
:1026A0001F02F09120021995AC01893621E09207B2
:1026B0000CF443C09C0129563140A3E8BDE20F94BD
:1026C000A0BE0024880F991F001C880F991F001CB2
:1026D000892F902D8770992748565140493621E01F
:1026E00052075CF1009719F181309105D1F08230E9
:1026F0009105A9F08330910581F08430910559F05E
:102700008530910531F0069711F0485651404856F2
:1027100051404856514048565140485651404856FD
:10272000514048565140493621E0520734F0405458
:102730005B40493681E05807D4F7E0904E1DF09099
:102740004F1D4E195F093091CC1F3370323031F478
:10275000C090C71DD090C81D4C195D09E091CA1DDD
:102760009A01220F331FF0E0A0E0B1E0AE1BBF0BD7
:102770000F94DABE6B017C01A0918F1FB091901F66
:102780009F010F94E2BEC60ED71EE81EF91ECD2C87
:10279000DE2CEF2CFF24E7FCFA94D092901FC0921D
:1027A0008F1F209146053091470540914805509173
:1027B00049052093420530934305409344055093C7
:1027C0004505FF90EF90DF90CF900895CF92DF9274
:1027D000EF92FF920F94BD80609368057093690536
:1027E00080936A0590936B058091680590916905C7
:1027F000A0916A05B0916B054091640B5091650BF7
:102800006091660B7091670B841B950BA60BB70B41
:102810008093640590936505A0936605B093670562
:10282000C090640BD090650BE090660BF090670B46
:10283000CD28CE28CF28C1F41092640510926505EA
:102840001092660510926705209168053091690520
:1028500040916A0550916B052093640B3093650B92
:102860004093660B5093670B40916405509165054A
:10287000609166057091670580915E0790915F0792
:10288000A0916007B0916107481759076A077B0755
:10289000C0F13091561D3F77313009F4C1C031117C
:1028A00020C051E050935507609164057091650513
:1028B00080916605909167059695879577956795C0
:1028C00060935E0770935F07809360079093610742
:1028D000A091610BB091620B1196B093620BA09323
:1028E000610BC0906805D0906905E0906A05F09092
:1028F0006B05C092640BD092650BE092660BF09270
:10290000670BD090C61FD5FE86C0E0905507EE201D
:1029100009F481C0E0911F02F09120021995AC01E9
:10292000893621E092070CF442C09C0129563140BF
:10293000A3E8BDE20F94A0BE0024880F991F001CDD
:10294000880F991F001C892F902D87709927485652
:102950005140493621E0520754F1009711F181307E
:102960009105C9F082309105A1F08330910579F08D
:102970008430910551F08530910529F0069709F0D2
:10298000B5C04856514048565140485651404856A7
:1029900051404856514048565140493621E052076F
:1029A00034F040545B40493681E05807D4F7209119
:1029B0004E1D30914F1D421B530B7091CC1F7370F5
:1029C000723031F48091891E90918A1E481B590BF8
:1029D000E091CA1D9A01220F331FF0E0A0E0B1E0A0
:1029E000AE1BBF0B0F94DABE6B017C01A0917B1F65
:1029F000B0917C1F9F010F94E2BEC60ED71EE81E49
:102A0000F91ECD2CDE2CEF2CFF24E7FCFA94D0929B
:102A10007C1FC0927B1FFF90EF90DF90CF900895B6
:102A20008091640B9091650BA091660BB091670B40
:102A3000C0904907D0904A07E0904B07F0904C07B0
:102A40008C199D09AE09BF09AC01BD01440F551F8A
:102A5000661F771F840F951FA61FB71FB695A795F2
:102A60009795879580935C0590935D05A0935E058F
:102A7000B0935F052091640B3091650B4091660B1C
:102A80005091670B2093490730934A0740934B07B7
:102A900050934C074091640550916505609166051F
:102AA0007091670580915C0590915D05A0915E0530
:102AB000B0915F05481759076A077B0730F4E0912A
:102AC000610BF091620B3497A0F081E090E090935D
:102AD000620B8093610B8093550710925E071092F2
:102AE0005F071092600710926107FBCE4856514075
:102AF00048CF60916405709165058091660590915D
:102B000067059695879577956795969587957795B7
:102B1000679560935E0770935F078093600790935B
:102B20006107A091610BB091620B1196B093620B9B
:102B3000A093610BD6CE0F931F932091181F26FDF3
:102B400021C00091791F002301F141111BC0E091C8
:102B5000380BF091390BEE0FFF1FEE0FFF1FE25CF9
:102B6000FC4F60837183828393832091380B309173
:102B7000390B2E37310508F453C0B091181FB064DB
:102B8000B093181F1F910F91089580917A1F882389
:102B9000C9F3E091380BF091390BE154FD4F1082ED
:102BA000E0912307F0912407A0912007B09121071D
:102BB000843009F446C0908110912207912349F096
:102BC000E091380BF091390BE154FD4F30813160C9
:102BD0003083E0911D07F0911E07833009F496C001
:102BE0005C9160911F07562349F0A091380BB0917A
:102BF000390BA154BD4F7C9172607C93B081F091F0
:102C00001C07BF2349F0E091380BF091390BE154D8
:102C1000FD4F308134603083442309F44BC041C000
:102C2000A091380BB091390B1196B093390BA0934A
:102C3000380BF091181FFF7BF093181F1F910F9115
:102C400008955C9160911F07562349F0A091380BBD
:102C5000B091390BA154BD4F7C9171607C93A091D0
:102C60001D07B0911E07BC9120911C07B22349F0AB
:102C7000A091380BB091390BA154BD4F0C9102605B
:102C80000C93F08180912207F82349F0E091380BF2
:102C9000F091390BE154FD4F1081146010834230E4
:102CA00049F4E091380BF091390BE154FD4F40812C
:102CB000486040839091C71E992349F0E091380BFA
:102CC000F091390BE154FD4F3081306130835091E8
:102CD0005507E091380BF091390BE154FD4F552326
:102CE00051F17081706270830091380B1091390B33
:102CF0000F94BD80000F111F000F111FF801E25C3F
:102D0000FC4F60837183828393832FCF2081009156
:102D10001C07202349F0E091380BF091390BE15466
:102D2000FD4F8081826080831C9190911F07192341
:102D300009F472CF68CF60816F7D6083D5CF8091B9
:102D4000EF0A8F7D8093EF0A2091EF0A2062209393
:102D5000EF0A3091AB073330E1F0323081F031309F
:102D600029F4E0910702F0910802199570917A1FF9
:102D7000772321F0A091EF0AA5FD15C00895E091F9
:102D80001D07F0911E07408190911C07492349F3CC
:102D9000EDCFE0911D07F0911E07508160911C0757
:102DA0005623F9F6E3CF60913E0570913F0580917F
:102DB00040059091410542E00C949B158091EF0AEB
:102DC0008F7D8093EF0A2091EF0A20622093EF0A13
:102DD0003091AC073330E1F0323081F0313029F4FA
:102DE000E0910902F0910A02199570917A1F7723F8
:102DF00021F0A091EF0AA5FD15C00895E0912007EC
:102E0000F0912107408190911F07492349F3EDCFAD
:102E1000E0912007F0912107508160911F07562310
:102E2000F9F6E3CF609164057091650580916605C0
:102E30009091670541E00C949B158091EF0A8F7D7E
:102E40008093EF0A2091AA07233099F12230A1F054
:102E50002130D9F4E0910502F09106021995A09174
:102E6000791FAA2321F0B091EF0AB5FD17C0F091A8
:102E70007A1FF11113C00895E0912307F091240700
:102E8000308190912207392329F36091791F6623BD
:102E900071F37091EF0A75FFEACF089560916005B4
:102EA00070916105809162059091630540E00C94FA
:102EB0009B15E0912307F091240740815091220750
:102EC000452341F6E2CF90E080E0089590E080E075
:102ED00008950895CF92DF92EF92FF92AB01DC014B
:102EE0001396FC91139711962D913C91EF2FEF7152
:102EF0002115310539F52F2FFF0F330B220F232F0B
:102F0000221F330B8FEF9FEF0E2E02C0880F991FE9
:102F10000A94E2F780959095BA01770F660B762FA9
:102F200086239723840F951F02C095958795EA9570
:102F3000E2F782279327821B930BFF90EF90DF909D
:102F4000CF900895DB010F94DABE6C01FF24D7FC0B
:102F5000F094EF2CC601F6FF0EC02F2FFF0F330B9E
:102F6000220F232F221F330BCA0182279327821B94
:102F7000930B8C0D9D1D02C095958795EA95E2F700
:102F800097FD0196FF90EF90DF90CF900895EF921C
:102F9000FF920F931F93CF93DF939091181F96FF8B
:102FA00016C154E05093740BC82FD0E0CF37D10531
:102FB0000CF0FBC0DE01A095B095A370BB27109765
:102FC00009F456C0A130B10549F1129709F081C149
:102FD0008E01000F111F000F111F025C1C4FF80122
:102FE00080819181A281B3818B2F0F943274F8017B
:102FF00060817181828193810F943274F8018081A4
:103000009181A281B381892F0F943274F80180815C
:103010009181A281B3810F94327421968E01000FA9
:10302000111F000F111F025C1C4FF801808191815C
:10303000A281B3818B2F0F943274F801608171816A
:10304000828193810F943274F80180819181A281F1
:10305000B381892F0F943274F80180819181A2810C
:10306000B3810F9432742196CF37D10509F49DC0F6
:103070008E01000F111F000F111F025C1C4FF80181
:1030800080819181A281B3818B2F0F943274F801DA
:1030900060817181828193810F943274F801808103
:1030A0009181A281B381892F0F943274F8018081BC
:1030B0009181A281B3810F9432747E01FFEFEF1AE8
:1030C000FF0A8701000F111F000F111F025C1C4F28
:1030D000F80180819181A281B3818B2F0F9432748A
:1030E000F80160817181828193810F943274F801BB
:1030F00080819181A281B381892F0F943274F8016C
:1031000080819181A281B3810F9432748701000F75
:10311000111F000F111F0E5B1C4FF8018081918160
:10312000A281B3818B2F0F943274F8016081718179
:10313000828193810F943274F80180819181A28100
:10314000B381892F0F943274F80180819181A2811B
:10315000B3810F9432748E01000F111F000F111FE5
:10316000065B1C4FF80180819181A281B3818B2F76
:103170000F943274F80160817181828193810F9480
:103180003274F80180819181A281B381892F0F94DB
:103190003274F80180819181A281B3810F943274DD
:1031A0002496CF37D10509F063CF4091181F4F7B8C
:1031B0004093181F1092740B1092390B1092380B19
:1031C000DF91CF911F910F91FF90EF9008954CEFF9
:1031D00051E061E06093CE0FE090D10F8091D20F6B
:1031E000E091C60FF091C70FE81609F45EC0209178
:1031F000D10F30E02F5F3F4F2F733327022F03C0D3
:103200000FB607FE22C01091D20F0117C9F3E0914B
:10321000D10FF0E0ED5EFF4E10823FB7F89420939F
:10322000D10FE091C80FF091C90F20812062208357
:103230003FBF4150510971F61092740BDF91CF914D
:103240001F910F91FF90EF900895708175FFDBCF74
:10325000E091D20FF0E0ED5EFF4EA081E091D20F41
:10326000F0E03196EF73FF27E093D20FC091CC0FBF
:10327000D091CD0FA883E091C60FF091C70FB08118
:10328000B370B064B083D091D10FF091D20FDF133F
:1032900007C0C091C80FD091C90F98819F7D9883B6
:1032A000E091C60FF091C70FAECFF080F5FE9FCF33
:1032B000EFB6F894C091CC0FD091CD0F1882E09169
:1032C000C60FF091C70F8081837080648083EFBE4A
:1032D000B0CF8E01000F111F000F111F025C1C4F99
:1032E000F80180819181A281B3818B2F0F94327478
:1032F000F80160817181828193810F943274F801A9
:1033000080819181A281B381892F0F943274F80159
:1033100080819181A281B3810F943274219658CE1D
:10332000CF93C82F0F94AD74892BE1F38C2FCF91DD
:103330000D943274CF93C82F892F0E9490198C2F2F
:10334000CF910C9490190F931F930F94F77F0091D6
:103350009F021091A0022091A1023091A202601B55
:10336000710B820B930B21E0693B7B40810591053A
:1033700008F420E0822F1F910F910895803110F002
:103380000F9464C0E82FF0E08827E653F64E8F4F85
:103390000D94CBBE051A1F1A261A2E1A361A3D1A7C
:1033A000451ADA194C1A901A971A9E1ABD1AE91A78
:1033B000061A0E1A6035710508F422C1603A7105CB
:1033C00008F429C1603F710500F5605A7109E6E013
:1033D000F6E1862F6034710508F431C16834710557
:1033E00008F07CC1805490E0880F991FDF01A81B72
:1033F000B90BAB5ABF4F54E6459FA00111244D9322
:103400005C936FEF7FE77383628308956032E1E03E
:103410007E0708F0EDC0E4EBF7E197C06035710579
:1034200008F4E8C06F3F710509F078F7605571093D
:103430008FE99BE0680F791FFB0140830895603896
:10344000710508F0CFC08FEC9CE0F4CF603281E0D2
:10345000780708F0CCC0E9E8FBE177C06032E1E032
:103460007E0708F0C3C0EBEFF8E16FC0603871056C
:1034700008F0BBC08EE49DE1DDCF6032F1E07F0754
:1034800008F0B2C0EDE6F6E160C06038710508F002
:10349000AAC086EC9FE1CECF6033710508F4B3C0BB
:1034A0006036710508F4BCC06039710508F4F1C0DC
:1034B000603C710508F431C1603F710508F432C108
:1034C000603281E0780708F432C16035E1E07E07C0
:1034D00008F432C16038F1E07F0708F096CF6055FC
:1034E0007140ABEEB1E1862F6432710508F4BDC0C6
:1034F0006A32710508F0D2C0845290E0880F991F9B
:10350000FD01E81BF90B34E6439FC001112496AB83
:1035100085AB2FEF3FE713963C932E9312970895B8
:10352000603C710508F05DC081E59DE083CF603CA3
:10353000710508F055C087E09EE17CCF603281E0E4
:10354000780708F04CC0E2E4FAE16F3F710509F03A
:1035500008F480C0603181E0780708F0AEC0660FE3
:10356000770BDF01A61BB70BAB5DBE4F84E6489F10
:10357000A00111244D935C9344CF60357105E8F1AF
:10358000603A710508F442C0683B710508F03DCF10
:10359000605A71096031710508F447C064317105E2
:1035A00008F0ABC06051E62FF0E0EE0FFF1FF19581
:1035B000E195F109EF51FE4E24E6429FA00111244E
:1035C000518340836FEF7FE77093C7116093C611FB
:1035D00008956038710568F48FE49CE02BCF08955E
:1035E00008950895089508950895089508950895F3
:1035F00008950895E8E3F5E1ECCEE3E0F4E1E9CEE7
:10360000EFE9F5E1E6CEA0ECB3E16DCF60557109CD
:10361000EAE6F4E1DECE60557109E1EDF4E1D9CEE0
:1036200060537109ADE7B3E15ECFE62FE370EA5F67
:10363000EE0FE61BF0E0EC53FE4E4783C3CFA62F00
:10364000A770A45EAA0FA61BAE0FBF2FB11D1796C1
:103650004C93D7CEA62FAF70A858AA0FA61BAE0FBB
:10366000BF2FB11D17964C93CCCE8BEA689F812D4E
:10367000112486958695982F990F890F880FE62F2C
:10368000E81BE15FEE0FE61BEA0FFB2FF11D4783FE
:1036900040CF60567109AAE3B3E125CF8A52880F63
:1036A000990BFD01E81BF90BEF5BFF4F842F90E0B6
:1036B000880F991F918380832CCF6051862F90E0D3
:1036C000880F991FDF01A81BB90BAB5BBE4F842F7E
:1036D00090E0880F991F8D939C9393CE8854880F08
:1036E000990BDF01A81BB90BAB59BF4F842F90E09A
:1036F000880F991F8D939C9384CE6451660F770B2E
:10370000EE27FF27E61BF70BE751FE4E842F90E0D4
:10371000880F991F9183808355CF60597109A7EF56
:10372000B2E1E1CE605C7109A4EBB2E1DCCE605F96
:103730007109A1E7B2E1D7CE60527140AEE2B2E1C9
:10374000D2CE2F923F924F925F926F927F928F9242
:103750009F92AF92BF92CF92DF92EF92FF920F9320
:103760001F93CF93DF93CDB7DEB7AD970FB6F89425
:10377000DEBF0FBECDBF2C016CA3633009F4EEC6D3
:1037800008F4D7C62CA1243009F403C3253009F06E
:1037900001C79C012B5B3E4F89509F4FA2014950AE
:1037A00051095EA34DA300E110E01BA70AA760EF3B
:1037B0007FEF78A76FA311E019A72DA03EA02816D0
:1037C000390609F49BC19BA38AA32E5F3F4F3DA7F7
:1037D0002CA766E8262E62E0362EEE24E3947AE0EB
:1037E000872E912CA12CB12CFF24F394ECA5FDA5E0
:1037F00092918291FDA7ECA739A5313009F48EC6CC
:10380000D82E93E6EFE4F1E19D1508F08EC22D2D40
:1038100030E050E040E019A28E010F5D1F4FCA0159
:10382000B901A50194010F943CBE605DF80162935B
:103830008F01211531054105510589F73097E9F1CF
:1038400001900020E9F7AF01F801415051094E17EE
:103850005F0799F1D190E092CE0F6090D10F7090F8
:10386000D20FA091C60FB091C70F671409F405C31A
:103870002091D10F30E02F5F3F4F2F733327322F2E
:1038800003C00FB607FE98C28091D20F3817C9F354
:10389000A091D10FB0E0AD5EBF4EDC927FB7F8943F
:1038A0002093D10FA091C80FB091C90F6C916062A5
:1038B0006C937FBF4E175F0769F6E1E5F1E1449134
:1038C000442399F1E092CE0F5091D10FD090D20FB6
:1038D000A091C60FB091C70F5D1509F413C32091D5
:1038E000D10F30E02F5F3F4F2F733327C22E03C01D
:1038F0000FB607FED6C27091D20FC716C9F3A091BA
:10390000D10FB0E0AD5EBF4E4C936FB7F8942093EB
:10391000D10FA091C80FB091C90F9C9190629C9358
:103920006FBF319644914111CDCF6AA07BA0CAA44C
:10393000DBA46C0C7D1C6AA17BA18B01661577054D
:1039400009F499C0F80121918F01EFE4F1E12436E7
:1039500008F401C330E050E040E019A2CE018196A6
:103960006C01CA01B901A50194010F943CBE605DD0
:10397000F60162936F01211531054105510589F763
:103980003097E9F101900020E9F7AF01F6014150CD
:1039900051094E175F0799F1D190F092CE0F209107
:1039A000D10F6091D20FA091C60FB091C70F26170B
:1039B00009F466C32091D10F30E02F5F3F4F2F7382
:1039C0003327322F03C00FB607FEF9C29091D20FF2
:1039D0003917C9F3A091D10FB0E0AD5EBF4EDC92B4
:1039E000CFB6F8942093D10FA091C80FB091C90F12
:1039F0008C9180628C93CFBE4E175F0769F6E1E52C
:103A0000F1E14491442399F1F092CE0F5091D10FFE
:103A1000D090D20FA091C60FB091C70F5D1509F4D9
:103A200074C32091D10F30E02F5F3F4F2F733327A6
:103A3000922F03C00FB607FE37C37091D20F9717AE
:103A4000C9F3A091D10FB0E0AD5EBF4E4C93CFB69D
:103A5000F8942093D10FA091C80FB091C90F8C9109
:103A600080628C93CFBE319644914111CDCF6016C8
:103A7000710609F067CFE4E8F2E07190E092CE0FB2
:103A80001091D10F9091D20FA091C60FB091C70F96
:103A9000191709F4F8C32091D10F30E02F5F3F4F81
:103AA0002F733327322F03C00FB607FE8BC38091CD
:103AB000D20F3817C9F3A091D10FB0E0AD5EBF4E61
:103AC0007C925FB7F8942093D10FA091C80FB0916A
:103AD000C90F6C9160626C935FBF2E163F0669F64A
:103AE000CAA0DBA08FA198A5C80ED91EDBA2CAA2CE
:103AF0006DA17EA16C157D0509F078CE03E511E17D
:103B000008C086EB9FE00F94E06E0F5F1F4F892B7C
:103B100021F0F80164916111F4CFFCA1F53008F0B7
:103B20004EC5F33008F0FDC4F23009F02BC5320168
:103B300055E1650E711C8DE1480E511C4614570469
:103B400009F4BAC032E0430E511C42E0640E711C0D
:103B5000FF24F3945AE0852E912CA12CB12CF20174
:103B6000B291A2912F012CEE31E50F94E2BE9C019F
:103B7000359527953595279535952795359527952D
:103B800035952795122F37FD1395EFE4F1E11436A3
:103B900008F4E4C2212F30E050E040E019A28E0189
:103BA0000F5D1F4FCA01B901A50194010F943CBEDE
:103BB000605DF80162938F012115310541055105C2
:103BC00089F73097E9F101900020E9F7AF01D801BA
:103BD00041505109A417B50799F13D90F092CE0FCD
:103BE0003091D10FD090D20FE091C60FF091C70F56
:103BF0003D1509F40DC42091D10F30E02F5F3F4FE8
:103C00002F733327E22E03C00FB607FE0CC380913B
:103C1000D20FE816C9F3E091D10FF0E0ED5EFF4E50
:103C20003082CFB6F8942093D10FE091C80FF09175
:103C3000C90F208120622083CFBEA417B50769F683
:103C4000E1E5F1E14491442399F1F092CE0F5091D6
:103C5000D10F3090D20FA091C60FB091C70F53155E
:103C600009F41BC42091D10F30E02F5F3F4F2F7319
:103C70003327E22E03C00FB607FEDEC38091D20FBA
:103C8000E816C9F3A091D10FB0E0AD5EBF4E4C93E2
:103C9000CFB6F8942093D10FA091C80FB091C90F5F
:103CA0002C9120622C93CFBE319644914111CDCFFF
:103CB0006414750409F053CF6DE086EB9FE00F9418
:103CC000E06E892B09F487C46AE086EB9FE0AD962D
:103CD0000FB6F894DEBF0FBECDBFDF91CF911F911D
:103CE0000F91FF90EF90DF90CF90BF90AF909F909B
:103CF0008F907F906F905F904F903F902F900D949A
:103D0000E06E5C9155FF21C02FB7F894A091CC0FC5
:103D1000B091CD0F6C92A091C60FB091C70F1C91BE
:103D2000137010641C932FBF31966490662009F4C1
:103D3000E0C3E092CE0F7090D10FC090D20FA0914F
:103D4000C60FB091C70F7C14E1F22091D10F30E083
:103D50002F5F3F4F2F733327122F03C00FB607FE7D
:103D60005BC08091D20F1817C9F3A091D10FB0E0BA
:103D7000AD5EBF4E6C924FB7F8942093D10FA091D7
:103D8000C80FB091C90F7C9170627C934FBF319680
:103D9000CCCF9C012B593F4FCF96D2011197BEA398
:103DA000ADA3E8E0F0E0FBA7EAA748EF5FEF58A774
:103DB0004FA372E079A701CD9C9195FF65CDA091AD
:103DC000D20FB0E0AD5EBF4E1C91A091D20FB0E01B
:103DD0001196AF73BB27A093D20FA091CC0FB091D7
:103DE000CD0F1C93A091C60FB091C70F0C9103701B
:103DF00000640C93B091D10F6090D20FB61107C040
:103E0000A091C80FB091C90F8C918F7D8C93A09118
:103E1000C60FB091C70F38CD0C9105FFA2CFA0916E
:103E2000D20FB0E0AD5EBF4E3C916091D20F70E01A
:103E30006F5F7F4F6F7377276093D20FA091CC0F86
:103E4000B091CD0F3C93A091C60FB091C70F6C916C
:103E5000637060646C93B091D10F9091D20FB913DD
:103E600007C0A091C80FB091C90F5C915F7D5C93B2
:103E7000A091C60FB091C70F74CFCC90C5FEF8CCFF
:103E80002FB7F894A091CC0FB091CD0FDC92A091F8
:103E9000C60FB091C70F3C91337030643C932FBF75
:103EA000D6CC1C9115FF27CDA091D20FB0E0AD5E0E
:103EB000BF4E0C916091D20F70E06F5F7F4F6F73B8
:103EC00077276093D20FA091CC0FB091CD0F0C93B8
:103ED000A091C60FB091C70F8C91837080648C93B2
:103EE000B091D10F6090D20FB61107C0A091C80F4A
:103EF000B091C90F3C913F7D3C93A091C60FB0910A
:103F0000C70FF9CC7C9075FEEACC2FB7F894A0913E
:103F1000CC0FB091CD0F4C93A091C60FB091C70FAD
:103F20004C91437040644C932FBF3196FBCC9C91D5
:103F300095FF21C03FB7F894A091CC0FB091CD0F61
:103F4000DC92A091C60FB091C70F4C9143704064B2
:103F50004C933FBF3196D490DD2009F4A8C1F09274
:103F6000CE0F5091D10F7091D20FA091C60FB0918A
:103F7000C70F5717E1F24091D10F50E04F5F5F4FED
:103F80004F735527342F03C00FB607FE48C08091EA
:103F9000D20F3817C9F3A091D10FB0E0AD5EBF4E7C
:103FA000DC92CFB6F8944093D10FA091C80FB09196
:103FB000C90F4C9140624C93CFBE3196CCCF6C91DF
:103FC00065FF04CDA091D20FB0E0AD5EBF4E7C91F5
:103FD000A091D20FB0E01196AF73BB27A093D20F80
:103FE000A091CC0FB091CD0F7C93A091C60FB09152
:103FF000C70F9C91937090649C93B091D10FC09027
:10400000D20FBC1107C0A091C80FB091C90F8C91FD
:104010008F7D8C93A091C60FB091C70FD7CC6C91B8
:1040200065FFB5CFA091D20FB0E0AD5EBF4E5C9101
:104030006091D20F70E06F5F7F4F6F73772760934F
:10404000D20FA091CC0FB091CD0F5C93A091C60F71
:10405000B091C70F7C91737070647C93B091D10F55
:104060009091D20FB91307C0A091C80FB091C90F9A
:104070008C918F7D8C93A091C60FB091C70F87CF85
:104080007C9175FF97CC2FB7F894A091CC0FB0918D
:10409000CD0FDC92A091C60FB091C70F3C91337049
:1040A00030643C932FBF75CC3C9135FFC6CCA091BA
:1040B000D20FB0E0AD5EBF4E5C916091D20F70E068
:1040C0006F5F7F4F6F7377276093D20FA091CC0FF4
:1040D000B091CD0F5C93A091C60FB091C70F6C91BA
:1040E000637060646C93B091D10FD090D20FBD110A
:1040F00007C0A091C80FB091C90F7C917F7D7C93C0
:10410000A091C60FB091C70F98CC6C9165FF89CC78
:104110002FB7F894A091CC0FB091CD0F4C93A091F4
:10412000C60FB091C70F4C91437040644C932FBFA2
:1041300031969ACC5C9155FF21C00FB7F894A091AD
:10414000CC0FB091CD0F3C92A091C60FB091C70F8C
:104150009C91937090649C930FBF31963490332060
:1041600009F4B0C1F092CE0F9091D10F3091D20FDF
:10417000A091C60FB091C70F9317E1F22091D10F14
:1041800030E02F5F3F4F2F733327D22E03C00FB67F
:1041900007FEF8C04091D20FD416C9F3A091D10FF9
:1041A000B0E0AD5EBF4E3C927FB7F8942093D10F44
:1041B000A091C80FB091C90F2C9120622C937FBFA2
:1041C0003196CCCFDC90D5FE72CCA091D20FB0E06E
:1041D000AD5EBF4E4C916091D20F70E06F5F7F4F2C
:1041E0006F7377276093D20FA091CC0FB091CD0F52
:1041F0004C93A091C60FB091C70F7C9173707064FF
:104200007C93B091D10F6090D20FB61107C0A091EE
:10421000C80FB091C90F0C910F7D0C93A091C60FE0
:10422000B091C70F44CC608165FFF1CCE091D20F13
:10423000F0E0ED5EFF4E9081E091D20FF0E031961C
:10424000EF73FF27E093D20FE091CC0FF091CD0FE9
:104250009083E091C60FF091C70F10811370106426
:104260001083F091D10F2090D20FF21107C0E0918E
:10427000C80FF091C90F00810F7D0083E091C60F38
:10428000F091C70FC4CCCC90C5FE05CC2FB7F894E5
:10429000A091CC0FB091CD0F7C92A091C60FB091A0
:1042A000C70F1C91137010641C932FBF16CCEDE444
:1042B000F1E12A3008F04ECBD490DD2009F44ACB4E
:1042C000F092CE0FC090D10F6091D20FA091C60F87
:1042D000B091C70FC61609F486C04091D10F50E0C7
:1042E0004F5F5F4F4F735527942F03C00FB607FEE4
:1042F00018C07091D20F9717C9F3A091D10FB0E0F9
:10430000AD5EBF4EDC923FB7F8944093D10FA091C1
:10431000C80FB091C90F8C9180628C933FBF3196CA
:10432000CBCFCC90C5FEE5CFA091D20FB0E0AD5E73
:10433000BF4E5C916091D20F70E06F5F7F4F6F73E3
:1043400077276093D20FA091CC0FB091CD0F5C93E3
:10435000A091C60FB091C70F6C91637060646C93AD
:10436000B091D10F7091D20FB71307C0A091C80FB1
:10437000B091C90F3C913F7D3C93A091C60FB09185
:10438000C70FB7CF2C9025FE05CFA091D20FB0E07C
:10439000AD5EBF4EEC906091D20F70E06F5F7F4FCB
:1043A0006F7377276093D20FA091CC0FB091CD0F90
:1043B000EC92A091C60FB091C70F8C91837080646E
:1043C0008C93B091D10FC090D20FBC1107C0A091B7
:1043D000C80FB091C90F6C916F7D6C93A091C60FFF
:1043E000B091C70FD7CE5C9155FF77CF4FB7F894F8
:1043F000A091CC0FB091CD0FDC92A091C60FB091DF
:10440000C70F9C91937090649C934FBF319654CF8B
:10441000708175FFF0CB3FB7F894E091CC0FF0912D
:10442000CD0F3082E091C60FF091C70F708173708D
:10443000706470833FBFCECB6C9165FF1FCCA091A1
:10444000D20FB0E0AD5EBF4E9C916091D20F70E094
:104450006F5F7F4F6F7377276093D20FA091CC0F60
:10446000B091CD0F9C93A091C60FB091C70F1C9136
:10447000137010641C93B091D10F2090D20FB21121
:1044800007C0A091C80FB091C90F0C910F7D0C937C
:10449000A091C60FB091C70FF1CBDC90D5FEE2CB57
:1044A0003FB7F894A091CC0FB091CD0F4C93A09151
:1044B000C60FB091C70F7C91737070647C933FBF3F
:1044C0003196F3CB1A3008F065CB3DE4232E31E171
:1044D000332E0AC086EB9FE00F94E06EFFEF2F1A99
:1044E0003F0A892B09F456CBF10164916111F2CF97
:1044F00051CBF9E0FD1508F48AC90DE411E109C0BA
:1045000086EB9FE00F94E06E0F5F1F4F892B09F43D
:104510007EC9F80164916111F3CF79C995958795AA
:104520006FC9320195E4690E711CE5E54E0E511C10
:1045300005CB623079F59C012B5D3F4F4396F2012C
:104540003396FEA3EDA344E050E05BA74AA70CEF2F
:104550001FEF18A70FA3F1E0F9A72FC99C012B5952
:104560003F4FCF968201015011091EA30DA368E0B1
:1045700070E07BA76AA7A8EFBFEFB8A7AFA3B1E031
:10458000B9A71BC9320139E2630E711C45E3440E21
:10459000511CD4CA92012F5B3F4FC2018596B201D4
:1045A0006F5F7F4F7EA36DA3A6E0B0E0BBA7AAA775
:1045B000EAEFFFEFF8A7EFA351E059A7FEC8F530E7
:1045C00009F73201FBEF6F1AFEEF7F0A2BED421A5B
:1045D0002EEF520AB3CAAD960FB6F894DEBF0FBEE7
:1045E000CDBFDF91CF911F910F91FF90EF90DF90A2
:1045F000CF90BF90AF909F908F907F906F905F9083
:104600004F903F902F9008956F927F928F929F923C
:10461000AF92BF92CF92DF92EF92FF921F93CF9310
:10462000DF93CDB7DEB7A1970FB6F894DEBF0FBE0C
:10463000CDBF3B018617970709F49BC07C018AE038
:10464000882E912CA12CB12C11E0F70121917F0132
:1046500030E050E040E019A2CE0181966C01CA0121
:10466000B901A50194010F943CBE605DF60162930F
:104670006F01211531054105510589F73097E9F1A1
:1046800001900020E9F7AF01F601415051094E17A2
:104690005F0799F191911093CE0F2091D10FD09097
:1046A000D20FA091C60FB091C70F2D1509F4DDC030
:1046B0002091D10F30E02F5F3F4F2F733327822F90
:1046C00003C00FB607FEA0C06091D20F8617C9F3D2
:1046D000A091D10FB0E0AD5EBF4E9C937FB7F89430
:1046E0002093D10FA091C80FB091C90F9C919062F7
:1046F0009C937FBF4E175F0769F6EBE4F1E14491AD
:10470000442399F11093CE0F5091D10F9091D20F75
:10471000A091C60FB091C70F591709F4EBC02091B3
:10472000D10F30E02F5F3F4F2F733327D22E03C0BE
:104730000FB607FEAEC03091D20FD316C9F3A091C9
:10474000D10FB0E0AD5EBF4E4C936FB7F89420939D
:10475000D10FA091C80FB091C90F7C9170627C936A
:104760006FBF319644914111CDCF6E147F0409F093
:104770006CCFA4E8B2E051E07D905093CE0F8090D2
:10478000D10F9090D20FE091C60FF091C70F89140E
:1047900009F4F6C02091D10F30E02F5F3F4F2F7307
:1047A0003327B22E03C00FB607FEB9C0F090D20F68
:1047B000BF14C9F3E091D10FF0E0ED5EFF4E7082BF
:1047C000DFB6F8942093D10FE091C80FF091C90F94
:1047D000608160626083DFBEF2E0A638BF0761F6E9
:1047E000A1960FB6F894DEBF0FBECDBFDF91CF917B
:1047F0001F91FF90EF90DF90CF90BF90AF909F9070
:104800008F907F906F900895CC90C5FE5DCFA09162
:10481000D20FB0E0AD5EBF4EDC906091D20F70E081
:104820006F5F7F4F6F7377276093D20FA091CC0F8C
:10483000B091CD0FDC92A091C60FB091C70F3C9103
:10484000337030643C93B091D10F6091D20FB613A6
:1048500007C0A091C80FB091C90F7C917F7D7C9358
:10486000A091C60FB091C70F2FCF3C9135FF20CF3D
:104870002FB7F894A091CC0FB091CD0F9C93A0913D
:10488000C60FB091C70F8C91837080648C932FBF3B
:10489000FECE8C9185FF4FCFA091D20FB0E0AD5EE0
:1048A000BF4E5C916091D20F70E06F5F7F4F6F736E
:1048B00077276093D20FA091CC0FB091CD0F5C936E
:1048C000A091C60FB091C70F9C91937090649C9378
:1048D000B091D10FC090D20FBC1107C0A091C80FEA
:1048E000B091C90F3C913F7D3C93A091C60FB09110
:1048F000C70F21CFCC90C5FE12CF2FB7F894A0914F
:10490000CC0FB091CD0F4C93A091C60FB091C70FB3
:104910004C91437040644C932FBF319623CF7081EC
:1049200075FF44CFE091D20FF0E0ED5EFF4E808145
:104930006091D20F70E06F5F7F4F6F737727609346
:10494000D20FE091CC0FF091CD0F8083E091C60F94
:10495000F091C70F9081937090649083F091D10F84
:10496000C090D20FFC1107C0E091C80FF091C90FA1
:1049700030813F7D3083E091C60FF091C70F16CF95
:10498000A080A5FE07CF2FB7F894E091CC0FF0914F
:10499000CD0F7082E091C60FF091C70F4081437038
:1049A000406440832FBF18CF8091CF0F2091D00F4C
:1049B00090E0805C9F4F821B91098F739927892B10
:1049C00019F00F941A74F0CF0895CF93DF93EC0190
:1049D00081E08093740BCE010E949A19D093A602B5
:1049E000C093A502BE0190E080E00F94F2749C0198
:1049F0009093A4028093A302249691E0C217D30758
:104A000009F490E09093740BDF91CF910895DF92B9
:104A1000EF92FF920F931F93CF93DF938C01EB01E3
:104A200080912B02882321F010922B0210922D1FCF
:104A3000D090C71E3091191F2091191F8D2D90E025
:104A40009195819591098327807899278227809372
:104A5000191F1092110ED12CED2CF12CEC16FD0625
:104A600058F4C701800F911F0F949003F701EF5E78
:104A7000F14F8183D394F0CF1091671F177F10936C
:104A8000671FDF91CF911F910F91FF90EF90DF9003
:104A900008950F931F9320915A1D207639F02032EC
:104AA00081F0203409F441C0203601F110926207F0
:104AB0001092630710926407109265071F910F917F
:104AC0000895AB01BC017695679557954795769506
:104AD0006795579547954093620750936307609396
:104AE0006407709365071F910F9108958B019C01D6
:104AF000000F111F221F331FDC01CB01800F911FFC
:104B0000A21FB31FAC01BD017695679557954795D8
:104B1000769567955795479540936207509363073D
:104B20006093640770936507C9CFAB01BC017695AC
:104B30006795579547954093620750936307609335
:104B40006407709365071F910F910895E0915D1DB3
:104B5000F0E088E691E0BF010F94F5BD7093850AFF
:104B60006093840A8091531D81FF09C080ED92E01B
:104B7000BF010F94F5BD7093850A6093840A8FEF8F
:104B800090E090935B0780935A078CE291E0E89F56
:104B90009001E99F300DF89F300D1124032E000C79
:104BA000440B550B60E472E48FE090E00F9409BE73
:104BB000209362073093630740936407509365071F
:104BC00081E493E0A0E0B0E080935E0790935F07FC
:104BD000A0936007B09361078091EF0A8E7F809366
:104BE000EF0A8091EF0A82608093EF0A8091EF0ACA
:104BF00080648093EF0A8091EF0A88608093EF0AC7
:104C00002091840A3091850AA5E0BDE00F94A0BEF2
:104C100060932702709328028093290290932A02BE
:104C200008952091ED0A3091EE0A232B69F5409109
:104C3000C81E5091C91E452B39F1A0917405B09141
:104C40007505A617B70709F1E0917205F091730594
:104C5000E617F70709F456C02091700530917105E9
:104C60002617370709F4F1C040916E0550916F0582
:104C70004617570709F44FC1A0915205B09153054B
:104C8000A617B70709F4A3C008955091FF10533039
:104C900009F419C12091391F30913A1F40913B1FEF
:104CA00050913C1F273031054105510568F3409173
:104CB000240150912501A091DB0AB091DC0AA81BC8
:104CC000B90BE0911B02F0911C02AE17BF070CF468
:104CD00060C1AE1BBF0B2091D90A3091DA0A0F9444
:104CE000E2BEE6E09695879577956795EA95D1F7C8
:104CF000640F751F70930C1160930B1171E070932A
:104D000012110895A091E710A330C9F12091391F25
:104D100030913A1F40913B1F50913C1F2730310585
:104D20004105510508F4B0CFE0912401F09125012F
:104D3000A0917C05B0917D05A81BB90B60911B0269
:104D400070911C02A617B7070CF455C1A61BB70B30
:104D50002091D90A3091DA0A0F94E2BE26E09695A6
:104D60008795779567952A95D1F76E0F7F1F70937A
:104D7000F4106093F31031E03093FA1008954091ED
:104D8000240150912501A0917C05B0917D05A81BBF
:104D9000B90B80911B0290911C02A817B9070CF463
:104DA0002FC1A81BB90B2091D90A3091DA0A0F94B0
:104DB000E2BE36E096958795779567953A95D1F757
:104DC000640F751F70932B0160932A010895309131
:104DD0009F10333009F44BC12091391F30913A1F95
:104DE00040913B1F50913C1F273031054105510533
:104DF00008F44ACFE091A400F091A500A0917605B7
:104E0000B0917705A81BB90B80911B0290911C02F1
:104E1000A817B9070CF45CC1A81BB90B2091D90ADB
:104E20003091DA0A0F94E2BE26E096958795779541
:104E300067952A95D1F76E0F7F1F7093AC10609322
:104E4000AB1051E05093B2100895B091CF10B33031
:104E500009F4A9C02091391F30913A1F40913B1F9E
:104E600050913C1F273031054105510508F40CCF06
:104E7000E0912401F0912501A0917A05B0917B0584
:104E8000A81BB90B60911B0270911C02A617B707F3
:104E90000CF4E3C0A61BB70B2091D90A3091DA0AB3
:104EA0000F94E2BEA6E09695879577956795AA95AB
:104EB000D1F76E0F7F1F7093DC106093DB10F1E071
:104EC000F093E21008954091240150912501A091A2
:104ED000DB0AB091DC0AA81BB90B60911B02709130
:104EE0001C02A617B7070CF459C0A61BB70B2091DC
:104EF000D90A3091DA0A0F94E2BEF6E096958795CA
:104F000077956795FA95D1F7640F751F709329010E
:104F10006093280108957091B710733009F475C03B
:104F20002091391F30913A1F40913B1F50913C1FF7
:104F3000273031054105510508F4A6CE4091A40063
:104F40005091A500A0917805B0917905A81BB90BE7
:104F5000E0911B02F0911C02AE17BF070CF4AEC02B
:104F6000AE1BBF0B2091D90A3091DA0A0F94E2BE32
:104F7000E6E09695879577956795EA95D1F7640F62
:104F8000751F7093C4106093C31091E09093CA1082
:104F90000895B7FFA0CEAE0FBF1F9DCEB7FFA7CF1E
:104FA000A60FB71FA4CF4091240150912501A091D5
:104FB0007A05B0917B05A81BB90B80911B029091DB
:104FC0001C02A817B9070CF44DC0A81BB90B2091FF
:104FD000D90A3091DA0A0F94E2BEB6E09695879529
:104FE00077956795BA95D1F7640F751F70932D016A
:104FF00060932C010895B7FFABCEA60FB71FA8CEC4
:10500000B7FFD1CEA80FB91FCECE4091A4005091CA
:10501000A500A0917805B0917905A81BB90B8091E6
:105020001B0290911C02A817B9070CF44CC0A81BD6
:10503000B90B2091D90A3091DA0A0F94E2BEF6E05A
:105040009695879577956795FA95D1F7640F751FB3
:105050007093A9006093A8000895B7FF1DCFA60F15
:10506000B71F1ACFB7FFB3CFA80FB91FB0CF40916A
:10507000A4005091A500A0917605B0917705A81BDA
:10508000B90B60911B0270911C02A617B7072CF197
:10509000A61BB70B2091D90A3091DA0A0F94E2BE11
:1050A00036E096958795779567953A95D1F7640F91
:1050B000751F7093AD006093AC000895B7FF52CF99
:1050C000AE0FBF1F4FCFB7FFB4CFA80FB91FB1CFDF
:1050D000B7FFA4CEA80FB91FA1CEB7FFDBCFA60F95
:1050E000B71FD8CF0F94BD806093580570935905B2
:1050F00080935A0590935B058091580590915905CE
:10510000A0915A05B0915B054091680B5091690BD5
:1051100060916A0B70916B0B841B950BA60BB70B00
:105120008093600590936105A0936205B093630539
:1051300020916005309161054091620550916305B1
:105140006091620770916307809164079091650791
:10515000261737074807590708F4F0C0A0915A07E7
:10516000B0915B071196B0935B07A0935A073091FB
:10517000EF0A30623093EF0A8091680B9091690BCF
:10518000A0916A0BB0916B0B8093860A9093870A6B
:10519000A093880AB093890A409158055091590507
:1051A00060915A0570915B054093680B5093690BB1
:1051B00060936A0B70936B0B5091C71E552309F4D3
:1051C00085C0E0915A07F0915B07319751F06091EB
:1051D0005A0770915B0790915D1D9617170608F0AE
:1051E00058C021E030E030935B0720935A0770915C
:1051F0005507B1E07B2770935507809196079091F2
:105200009707A0919807B0919907809356079093BC
:105210005707A0935807B0935907409158055091EC
:10522000590560915A0570915B054093960750931C
:10523000970760939807709399076091391F709151
:105240003A1F80913B1F90913C1F6F5F7F4F8F4FA4
:105250009F4F6093391F70933A1F80933B1F909329
:105260003C1FF091531DF1FF14C02091391F309164
:105270003A1F40913B1F50913C1F2F5F3F4F4F4FB4
:105280005F4F2093391F30933A1F40933B1F509339
:105290003C1F4091600550916105609162057091DD
:1052A0006305A0915A1DA07649F0A03209F459C0B7
:1052B000A03409F467C0A03609F447C01092620711
:1052C0001092630710926407109265073091F50CF5
:1052D00036FF34C050911B1F51FD30C0E0915A077A
:1052E000F0915B074091840A5091850A3197E49FC1
:1052F000C001E59F900DF49F900D112460914E1D0B
:1053000070914F1D860F971F70915A1D7C717C30D4
:10531000B1F4B0915507BB2391F0F091531DF1FD0D
:105320000EC020915A0730915B0760915D1D620F9E
:10533000732F711D88599E4F0C941126089560910A
:105340005A0770915B070C941126DB01CA01880F84
:10535000991FAA1FBB1F840F951FA61FB71FAC0163
:10536000BD017695679557954795769567955795BD
:105370004795409362075093630760936407709367
:105380006507A4CF76956795579547954093620733
:1053900050936307609364077093650797CFCF922C
:1053A000DF92EF92FF920F94BD8060935805709347
:1053B000590580935A0590935B058091580590910B
:1053C0005905A0915A05B0915B054091680B509129
:1053D000690B60916A0B70916B0B841B950BA60B8C
:1053E000B70B8093600590936105A0936205B0931D
:1053F0006305C0906005D0906105E0906205F09073
:1054000063052091620730916307409164075091D2
:105410006507C216D306E406F50608F473C0A0912A
:105420005A07B0915B071196B0935B07A0935A0798
:105430003091EF0A30623093EF0A6091680B7091FF
:10544000690B80916A0B90916B0B672B682B692B12
:1054500009F05DC04091680B5091690B60916A0B37
:1054600070916B0B4093860A5093870A6093880A69
:105470007093890AC0905805D0905905E0905A055C
:10548000F0905B05C092680BD092690BE0926A0BBA
:10549000F0926B0BF090F50CF6FE34C0F0901B1FF1
:1054A000F1FC30C0E0915A07F0915B07C090840A8C
:1054B000D090850A3197EC9DC001ED9D900DFC9D2B
:1054C000900D1124E0904E1DF0904F1D8E0D9F1DEC
:1054D000A0911B02B0911C02F0915A1DFC71FC308E
:1054E00009F45CC18A179B070CF453C18A1B9B0B00
:1054F00060915A0770915B07FF90EF90DF90CF901B
:105500000C941126FF90EF90DF90CF90089580913A
:10551000860A9091870AA091880AB091890A892BFE
:105520008A2B8B2B09F496CFD090C71EE0915C0795
:10553000F0915D07DD2051F0E090C81EF090C91E8B
:1055400020EDE21627E0F20608F047C1A0915E1DAB
:10555000A13009F492C12091680B3091690B409100
:105560006A0B50916B0B6091860A7091870A80914B
:10557000880A9091890A261B370B480B590BB0E01B
:105580000F948DBE60935405709355058093560516
:10559000909357058091680B9091690BA0916A0BCD
:1055A000B0916B0B892B8A2B8B2B09F4E9C0C0902F
:1055B000860AD090870AE090880AF090890ACD2860
:1055C000CE28CF2809F4DCC0209160053091610518
:1055D00040916205509163056091540570915505A5
:1055E00080915605909157056217730784079507B8
:1055F00040F0E0905A07F0905B07EE15FF0508F0C9
:10560000FDC0A0915A07B0915B07F090F50CAE1762
:10561000BF0788F49091C71E992369F01092C71EA6
:10562000B091671FBF7EB093671F6091761F6F5F59
:105630006093761F31CF7091C71E772309F410C194
:105640002091391F30913A1F40913B1F50913C1FD0
:105650002F5F3F4F4F4F5F4F2093391F30933A1FBB
:1056600040933B1F50933C1FF091531DF1FF14C01A
:105670006091391F70913A1F80913B1F90913C1FA0
:105680006F5F7F4F8F4F9F4F6093391F70933A1F0B
:1056900080933B1F90933C1FE1E0F0E0F0935B07A9
:1056A000E0935A07D090561D8D2D8F77823009F4E4
:1056B00039C1C090550731E0C326C09255072091EB
:1056C000960730919707409198075091990720933A
:1056D0005607309357074093580750935907409106
:1056E00058055091590560915A0570915B0540939A
:1056F0009607509397076093980770939907709156
:105700005A1D7C717C3009F4E3C0BF2DB073B033F7
:1057100009F4DEC0E1E0E093C71E5091671F5F7E91
:105720005093671F109262071092630710926407EC
:10573000109265072091680B3091690B40916A0BBC
:1057400050916B0B2093860A3093870A4093880A06
:105750005093890A409158055091590560915A0516
:1057600070915B054093680B5093690B60936A0BD3
:1057700070936B0B7091EF0A7F7B7093EF0A8CCE66
:1057800010926005109261051092620510926305F7
:105790001BCF97FFADCE8A0F9B1FAACED090550787
:1057A000DD2009F49FCE3091531D31FD9BCE5091E9
:1057B000F30C52FD97CE88599E4F8A179B070CF425
:1057C000C8C08A1B9B0B20915A0730915B076091E0
:1057D0005D1D620F732F711D8FCE20915A0730917E
:1057E0005B07DF01AA0FBB1FAE0FBF1FB695A795C2
:1057F000B695A7952A173B0708F0A8CE60916005DB
:105800007091610580916205909163050E94492520
:105810004091680B5091690B60916A0B70916B0B12
:105820004093860A5093870A6093880A7093890A86
:105830008091580590915905A0915A05B0915B054A
:105840008093680B9093690BA0936A0BB0936B0BDA
:105850005091EF0A50645093EF0AF090F50C1CCE73
:10586000B091671FB4FDECCE1092391F10923A1F11
:1058700010923B1F10923C1F0FCF8091680B9091AC
:10588000690BA0916A0BB0916B0B4091860A509105
:10589000870A6091880A7091890A841B950BA60B70
:1058A000B70BAC01BD01440F551F661F771F840F56
:1058B000951FA61FB71FB695A795979587958093B7
:1058C000540590935505A0935605B093570562CEA5
:1058D0006091610B7091620B672BA9F4F091531DDD
:1058E000F1FD11C0823009F415CFD090F30CD2FC39
:1058F0000AC08091C71E811115CF3091671F30619A
:105900003093671F0FCFA1E0A093C71E9091671F30
:105910009F7E9093671F811105CF1092620B1092AA
:10592000610B00CFE0912007F0912107E0804091CA
:105930001F07D7FA552750F9E422A1E009F4A0E0A7
:105940005A1719F010925507BACE91E09093550767
:10595000B6CE97FF38CF8A0F9B1F35CFCF92DF92FD
:10596000EF92FF920F931F93FB010091391F10914B
:105970003A1F20913B1F30913C1F4091591D50E030
:1059800070E060E0041715072607370708F475C0B4
:105990009091C71E992309F46CC04091680B5091F7
:1059A000690B60916A0B70916B0B452B462B472B53
:1059B00009F463C0E090860AF090870A0091880A93
:1059C0001091890AEF28E02AE12A09F456C00091D3
:1059D000680B1091690B20916A0B30916B0BC09092
:1059E000860AD090870AE090880AF090890AC0164B
:1059F000D106E206F30608F040C0F8942091680B47
:105A00003091690B40916A0B50916B0BE090860AC4
:105A1000F090870A0091880A1091890A2E193F098F
:105A2000400B510BA82FB0E00F948DBE60931A0B62
:105A300070931B0B80931C0B90931D0B78942091FB
:105A40001A0B30911B0B40911C0B50911D0BE03D2C
:105A5000F240F1F060E077E883E993E00F943CBE18
:105A6000203586E4380790F08091C81E9091C91EB9
:105A700006C0C090671FC4FC90CF90E080E01F91EB
:105A80000F91FF90EF90DF90CF900895C901F7CF6D
:105A9000569547953795279520931A0B30931B0BF6
:105AA00040931C0B50931D0BD5CFFC019091C71E4A
:105AB000911104C08091671F84FF6AC04091C81E85
:105AC0005091C91E2091651F3091661F42175307E0
:105AD00068F46091391F70913A1F80913B1F90913B
