:100000000C9452110D9422910D94F7900D94CC9074
:100010000D94A1900D9476900D944B900D9420909A
:100020000D94F58F0C9483110C9483110C9483110F
:100030000C9483110C9483110C9483110D94A1776B
:100040000C9483110D945B3C0D943F3A0C9463C067
:100050000C9483110C9483110C9483110D947D8E58
:100060000C9483110D9433920D94F3910C9483119D
:100070000C9483110C9483110C9483110C948311B0
:100080000D942C750D94B1740D9436740C948311E9
:100090000C9483110C9483110C9483110C94831190
:1000A0000C9483110C9483110D9407700D94BB7301
:1000B0000D941A6F0C9483110C9483110D94CE72CD
:1000C0000D94E1710D94F4700C9483110C948311D0
:1000D0000C9483110C9483110D94BC910D947C911C
:1000E0000C9483110C94C09E0C945A710D94CA8F79
:1000F0000C9469190C94DC9E0C94C19F0C94DF9FA6
:100100000D94CD290C9486D30C945F4C0C9492865C
:100110000C94D88A0C94F0830D94D70D0C94441B46
:100120000D94ED7E0C9426A00D944F130C94ADA06D
:100130000C94A0F20C9407D00C944E9F0D94CF4FCA
:100140000C94C24B0C943A8A0D9474910C947C9F3D
:100150000C94FA260C948FA50D94B32A0C94DAE42F
:100160000C94B89F0D9470910C94D54B0C94DAF8C4
:100170000C94858E0C947F9F0C94429F0C94B89E97
:100180000C94EB270C94CC2A0C9496330D94885441
:100190000D9430150C945AAC0C944B9F0D946E91A9
:1001A0000C94979F0C94081A0C944F3C0C94A61B2B
:1001B0000D9404040C9485A40D94E6220C949A33B7
:1001C0000C9494330D944D170C94D6A30C94B0A0BA
:1001D0000C94094C0C94E89E0C94944C0C94D1CE45
:1001E0000D94E54F0C94C69E0C94544B0C94EB9ECE
:1001F0000C94C4BC0D94162B0D94FC8E0C94BFE192
:100200000C94B0E20D9402B40C94AC9F0C94399F02
:100210000C944AA60C9465E80C942F880D94B8B4FD
:100220000C944AA70C94D09F0C94AB430C94279445
:100230000C94002B0D94822B0D945EB50C94AD1B89
:100240000D94BB4F0C949D340C9451390C946F61F8
:100250000D9410130C942E330D94B7530C94CC9E24
:100260000C9477A00D942D5D0C940D8B0D94D94FAB
:100270000C949CA90C94DDE60C94003D0C94BE8F6C
:100280000C940F9F0C94753C0C9493A00D943D5DC1
:100290000C949C830D94DB7E0C9445190D94718F06
:1002A0000C943F9F0C94A0430C94BCA00C94C419D4
:1002B0000D94CE090D94F8550C9465880D94F37E39
:1002C0000C949C190C94E29E0C9471A00C94519F78
:1002D0000D9446550C94A5ED0D94D4130D948745BB
:1002E0000C94F19E0C94F01A0C94069F0C940478D4
:1002F0000C94FE720C9415A00C94EB260C942A9F7F
:100300000C9463730C94CF9E0C9407F70C9483E4C5
:100310000C9435270C947F4D0C9413440C9433BEED
:100320000C94B1C20C94E22A0C94D94C0D94FB01AC
:100330000C94ABE90D940D8F0C945FC40C949E4B00
:100340000D942E7E0D942F8F0D94BD7E0D944C4FE9
:100350000C940F1A0D94AB4F0C94B3E20C94889F3D
:100360000C94238F0C9440DC0C94B1440C94D72A49
:100370000D949F280C9490A00C9415780C94564DD5
:100380000C94621B0C94A09F0C9483930D94C97ED3
:100390000C9463E60C948F190D94415D0C94162710
:1003A0000C941C1B0C94FA9E0C94654C0D944C27D9
:1003B0000C945B4B0C94F4C40C9482320D94475D06
:1003C0000C946B4C0C9459720C9475E10D9484B39D
:1003D0000C94C49F0C9428EC0D940F7F0C94AC27C4
:1003E0000C9400B10C94D39F0C94473C0C94531B79
:1003F0000C944D780C947E2A0C9422AD0D944B5D98
:100400000C94E83C0C94BB9F0D94BE210C9403E625
:100410000C94C1610C94B2E20D943B8F0C9441B5E5
:100420000C94EE4B0C94C1BF0D94F6280D945655C8
:100430000D94E14F0D944A450C94594C0C94EC2AC0
:100440000D9452430D946D8F0C9418FA0C9403A0E4
:100450000C9403E40C94203F0C94F44B0C94799F7F
:100460000C945DCD0C94009F0C946CCF0C94262BB7
:100470000D9450B30C94339F0C94E3340D94B34F0C
:100480000C94A3A80C94914B0C94F13C0C94CA9F2F
:100490000C94CD9F0C94C79F0C94EA9F0C94E87326
:1004A0000C94CBD10C94F54D0C94A9A00C9468B28B
:1004B0000C9486A00C945C860C94E5BE0C94039F6F
:1004C0000C940D780C949D9F0C94D8F70C94159F68
:1004D0000D94C74F0C9487340C94919F0C945B1B24
:1004E0000C948AF10C94AC4C0D94753E0C94EA8DEE
:1004F0000D94B5240C94C8BD0C94489F0C94679F30
:100500000C947DA00C9469BC0D944C290C942FE0A4
:100510000D941B8F0D94B77E0C94459F0C946A9F8D
:100520000C9446FF0D9482460C9472BD0D94A17EEE
:100530000C94C84C0C94A88B0C94D99F0C9449A093
:100540000C9499A00D948E130C94241B0D946F8F12
:100550000C94ADF70D9457240C9403890C94393402
:100560000C94D0DB0D94738F0C94FD9E0D94701839
:100570000C9492F10D944D560D944E2A0C94351B0B
:100580000C947FAE0C94D4AE0C94A39F0D94A57ED6
:100590000C9408270C943C1B0D948D2D0C94219FDA
:1005A0000C94ED9F0C9440530C949E270D94EC45B5
:1005B0000C94DFDE0C94534C0D94435D0D943F5D21
:1005C0000C94099F0C949D720C949CA00C940BE9C4
:1005D0000C94F8380D94AB7E0C94BD9E0C9484E77B
:1005E0000C94189F0C94C9940D94B74F0D94D14F4F
:1005F0000C942F870D94BFA90C94DC9F0C94832638
:100600000C9474A00C9487E80C9480D50D94A08F62
:100610000D94C37E0D945C8F0C9416EA0C943C9F51
:100620000D94EF2B0C94859F0C94CE260C946EA009
:100630000C94A6440C941B1B0D94DD550C944C8417
:100640000D94427E0D94C28F0C943A1A0D9412565A
:100650000D94698F0D94E77E0C94AFB00D94B9554D
:100660000C944B2B0C94A1C40D94A14E0D943654B4
:100670000C947B5B0C94949F0C94FF430D941B8013
:100680000C947A190C94249F0C94EBF90C94612A25
:100690000D9436480C943C340C94D59E0C94DE8B0F
:1006A0000C949A9F0C9464870D9466550C9478F47E
:1006B0000C94412B0C9436DB0C94F7EF0C9415281A
:1006C0000C94DB4B0D94DD4F0D94CB4F0C94A2F4A6
:1006D0000C94129F0C94CD340C9467E20D94E48F2B
:1006E0000C94B29F0C94B0AD0C94709F0C942B7230
:1006F0000C948C3C0C94A34B0C946D9F0C94612B2C
:100700000D949D7E0C94B3A00C94CA270C94603F6A
:100710000C9443A90D94375D0C94B94C0D94D54FAE
:100720000C94829F0C94C1430C943AAA0C944C1BD9
:100730000C94A4ED0C94D29E0C94E7710C947C4D17
:100740000C94A69F0C945E340C94FA3C0C94B12A41
:100750000C949BEC0C944AF20C9476B10C9417EE2A
:100760000D9477550D94522C0D94BD230C9465E097
:100770000D947A910C94CFCE0D9490990C948E9FF9
:100780000D94395D0D94BD0B0C943B740C9480EF6B
:100790000C94B6430C94CCA30C948B9F0C948B714B
:1007A0000D94B68F0C940EC50C940B2B0C947DC439
:1007B0000C94B59F0C946D950D9422070D949C7E1E
:1007C0000D9429280C94D0CE0D941A540C94CF4B30
:1007D0000D9472910C94F49E0C943D920C948BACFD
:1007E0000C94011A0C94E59F0D94A2270C94D69FAB
:1007F0000C94F4430C94273F0C94FC840C9465E512
:100800000C945B340C949B2A0C9425BB0C94B9A0DB
:100810000C9483A00C9457390C94E84B0C94A5A02D
:100820000D94D57E0C940C9F0C94769F0C94BE9FD7
:100830000C9445390C947C190C948DA00C94B1E265
:100840000C9422BD0C94A1BE0C94B7390C94048A6C
:100850000C945F270C942D9F0D94278F0D94A95510
:100860000C94AF9F0D94B57F0C947C8C0D94920CDE
:100870000D9432470C94B18C0C946BA00C94FC9F9B
:100880000D946B8F0C947AA00C94309F0C94FB7792
:100890000D94DC8E0D9438B50C947CF30C94E877B1
:1008A0000C9463450C9429EC0C94DF9E0C94D6A612
:1008B0000C94F79E0C949B910C941FF60D94484F4A
:1008C0000D94495D0C94F3B40D94315D0C94E9AA38
:1008D0000C94562B0C9450850C9492260D94E17E2A
:1008E0000C9457340C94279F0C94A0840C9414F50A
:1008F0000D946C240D9476910D9478910D94355D42
:100900000D94F91F0C9404E40C94F7D90C948219FB
:100910000D944A250D94AE8F0C94B04B0C9496A078
:100920000C9438BF0D94CF7E0C9454EE0C9441D9A6
:100930000C94F2EF0C944EDD0C94369F0D94EB4525
:100940000C947ECA0C9464E80C944D450D943B5D68
:100950000C949D390C94EE9E0C94233E0D94977E3E
:100960000D940E7F0C9421D10C94FF1B0D94C108A3
:100970000C9400860D94302D0C94D31B0C94C39EC4
:100980000C94AC850C94F7900C9425390C9480A0B1
:100990000C94D9AF0D947E1B0D94340F0C941E9FB4
:1009A0000D94E2470C94E3740D94F2B20C9418F198
:1009B0000D948F8F0D9457800C9438890C94F62ADF
:1009C0000C94EC320C94744B0C94C2D70C945434A9
:1009D0000C9405BC0C94A9740C94B7260D94B72CF8
:1009E0000D942D560C947C3C0C94171A0C94E4AB8B
:1009F0000C9489190D94F14E0C948FBB0C941B9F91
:100A00000D94B17E0C94E1920C944C390D94455D9B
:100A10000D94335D0C94A99F0C94B6A00C9475EBC7
:100A20000C94BFA00C945C3F0C94D99E0C947FEF67
:100A30000C9430FB0C94E59E0C94BCA40C944C8D4F
:100A40000D94678F0C94A2A00C94013E0C94DC26AC
:100A50000C941D780D94C34F0C9496190C94C99E58
:100A60000D942F5D0C94573C0D94D68F0C945845E3
:100A70000D94AF4F0C949FA00C94739F0C9462192B
:100A80000D94594E0D94BF4F0C945C900C9412A889
:100A90000C94E8E00C94B41B0C9488E852657365E0
:100AA0007420636F6E74726F6C206973206375724B
:100AB00072656E746C792064697361626C65642E12
:100AC00000436F6D6D732068616C7465642E204EF9
:100AD00065787420627974652077696C6C20726522
:100AE000736574207468652041726475696E6F2E39
:100AF0000000537065656475696E6F203230323363
:100B00002E303500737065656475696E6F20323004
:100B10003233303500000030303200FF0A50616758
:100B20006520686173206E6F74206265656E206950
:100B30006D706C656D656E74656420796574000A0E
:100B4000426F6F7374206C6F6F6B7570207461628D
:100B50006C65000A326E642049676E6974696F6E55
:100B6000204D6170000A326E64204675656C204D20
:100B70006170000A50616765203920436667000A8A
:100B80005472696D2031205461626C65000A5656BA
:100B900054204D6170000A426F6F7374204D617074
:100BA000000A5067203620436F6E666967000A416D
:100BB0004652204D6170000A50672034204366671A
:100BC000000A49676E6974696F6E204D6170000A92
:100BD0005067203220436667000A5645204D6170F9
:100BE000004572723A20556E6B6E6F776E20636DA2
:100BF00064000A3D3D3D436F6D6D616E6420486544
:100C00006C703D3D3D0A0A416C6C20636F6D6D61F7
:100C10006E6473206172652073696E676C65206312
:100C2000686172616374657220616E6420617265CF
:100C300020636F6E636174656E61746564207769AB
:100C4000746820746865697220706172616D657482
:100C5000657273200A776974686F757420737061A8
:100C60006365732E53796E7461783A20203C636F0C
:100C70006D6D616E643E2B3C706172616D65746573
:100C800072313E2B3C706172616D65746572323EEB
:100C90002B3C706172616D657465724E3E0A0A3D4F
:100CA0003D3D4C697374206F6620436F6D6D616EBE
:100CB00064733D3D3D0A0A41202D20446973706CE8
:100CC000617973203331206279746573206F6620F7
:100CD00063757272656E7453746174757320766196
:100CE0006C75657320696E2062696E617279202867
:100CF0006C6976652064617461290A42202D204266
:100D000075726E2063757272656E74206D617020ED
:100D1000616E6420636F6E666967506167652076F7
:100D2000616C75657320746F20656570726F6D0AF4
:100D300043202D205465737420434F4D20706F72F3
:100D4000742E2020557365642062792054756E6579
:100D50007273747564696F20746F20736565207792
:100D600068657468657220616E204543552069731B
:100D7000206F6E206120676976656E2073657269E9
:100D8000616C200A20202020706F72742E20526522
:100D90007475726E7320612062696E617279206E63
:100DA000756D6265722E0A4E202D205072696E7428
:100DB000206E6577206C696E652E0A50202D2053B9
:100DC00065742063757272656E7420706167652E3C
:100DD000202053796E7461783A2020502B3C70614A
:100DE00067654E756D6265723E0A52202D20536113
:100DF0006D65206173204120636F6D6D616E640AC3
:100E000053202D20446973706C6179207369676E7B
:100E10006174757265206E756D6265720A51202D60
:100E20002053616D65206173205320636F6D6D6188
:100E30006E640A56202D20446973706C6179206DB0
:100E40006170206F7220636F6E66696750616765BD
:100E50002076616C75657320696E2062696E6172BF
:100E6000790A57202D20536574206F6E65206279B2
:100E7000746520696E206D6170206F7220636F6EE3
:100E8000666967506167652E2020457870656374D8
:100E9000732062696E61727920706172616D657430
:100EA0006572732E200A2020202053796E74617899
:100EB0003A2020572B3C6F66667365743E2B3C6E60
:100EC0006577627974653E0A74202D20536574201D
:100ED00063616C6962726174696F6E2076616C75B2
:100EE00065732E2020457870656374732062696E87
:100EF00061727920706172616D65746572732E2004
:100F0000205461626C6520696E6465782069732085
:100F100065697468657220302C200A2020202031F9
:100F20002C206F7220322E202053796E7461783A13
:100F30002020742B3C74626C655F6964783E2B3CA6
:100F40006E657756616C7565313E2B3C6E657756E4
:100F5000616C7565323E2B3C6E657756616C7565CC
:100F60004E3E0A5A202D20446973706C61792063CB
:100F7000616C6962726174696F6E2076616C75650F
:100F8000730A54202D20446973706C617973203288
:100F9000353620746F6F7468206C6F6720656E74CF
:100FA0007269657320696E2062696E6172790A7276
:100FB000202D20446973706C61797320323536209E
:100FC000746F6F7468206C6F6720656E74726965EA
:100FD000730A55202D205072657061726520666F0E
:100FE00072206669726D77617265207570646174D4
:100FF000652E20546865206E65787420627974656A
:101000002072656365697665642077696C6C20631E
:1010100061757365207468652041726475696E6FCF
:1010200020746F2072657365742E0A3F202D204452
:101030006973706C61797320746869732068656C7A
:10104000702070616765002C2000575545004F32B5
:1010500000496E6C65742074656D7000436F6F6C31
:10106000616E7400526573657420636F6E74726F85
:101070006C2069732063757272656E746C7920647C
:10108000697361626C65642E00436F6D6D732068D7
:10109000616C7465642E204E657874206279746585
:1010A0002077696C6C2072657365742074686520A4
:1010B00041726475696E6F2E005370656564756961
:1010C0006E6F20323032332E3035007370656564B8
:1010D00075696E6F20323032333035004552523BE5
:1010E00020496E636F727265637420454550524F9C
:1010F0004D2073697A6500303032002000200020D6
:10110000002000202020200000008000200120017D
:10111000800020018000F0008001C000C00020019C
:10112000C000800020010001537065656475696E20
:101130006F00537065656475696E6F2032303139A8
:101140002E30382D73657200537065656475696E55
:101150006F2063737830323031392E3800040E112D
:10116000161A1C212A2C2E30323436383A3C3E4096
:10117000424446484C4E505256585A5D5F63686F21
:1011800079000020002300260029002C002F0032C7
:10119000000001000003010601090100000A0B0222
:1011A000090C0D0E080703040100000000000000F8
:1011B000000000000000000000000000000000002F
:1011C00000000000000000121110000000000000EC
:1011D000000000000000000000000000000000000F
:1011E0000000002200250028002B002E00310034D2
:1011F0000002010000050108010B0100002100248C
:101200000027002A002D00300033000101000004F7
:101210000107010A01050505050705080808080278
:101220000202020A0A08080404040401010101017F
:101230000101010303030303030303040707070C6E
:101240000C0C0C0C0C0C0C02020202060606060624
:101250000606060B0B0B0B0B0B0B0B0102102020D1
:1012600008081020401020408002010201080402FA
:101270000101020408102040808040201008040270
:1012800001800402018040201008040201080402C9
:1012900001010204081020408001020408102040CF
:1012A0008000000000963007772C610EEEBA5109DD
:1012B0009919C46D078FF46A7035A563E9A3956425
:1012C0009E3288DB0EA4B8DC791EE9D5E088D9D23D
:1012D000972B4CB609BD7CB17E072DB8E7911DBF99
:1012E000906410B71DF220B06A4871B9F3DE41BEB8
:1012F000847DD4DA1AEBE4DD6D51B5D4F4C785D31F
:101300008356986C13C0A86B647AF962FDECC965CA
:101310008A4F5C0114D96C0663633D0FFAF50D0822
:101320008DC8206E3B5E10694CE44160D5727167D8
:10133000A2D1E4033C47D4044BFD850DD26BB50A22
:10134000A5FAA8B5356C98B242D6C9BBDB40F9BC4A
:10135000ACE36CD832755CDF45CF0DD6DC593DD19E
:10136000ABAC30D9263A00DE518051D7C81661D0D7
:10137000BFB5F4B42123C4B3569995BACF0FA5BD18
:10138000B89EB802280888055FB2D90CC624E90BBC
:10139000B1877C6F2F114C6858AB1D61C13D2D6624
:1013A000B69041DC760671DB01BC20D2982A10D5BC
:1013B000EF8985B1711FB5B606A5E4BF9F33D4B8D8
:1013C000E8A2C9077834F9000F8EA8099618980E7C
:1013D000E1BB0D6A7F2D3D6D08976C6491015C63E4
:1013E000E6F4516B6B62616C1CD83065854E00620F
:1013F000F2ED95066C7BA5011BC1F4088257C40F62
:10140000F5C6D9B06550E9B712EAB8BE8B7C88B989
:10141000FCDF1DDD62492DDA15F37CD38C654CD4DD
:10142000FB5861B24DCE51B53A7400BCA3E230BB5B
:10143000D441A5DF4AD795D83D6DC4D1A4FBF4D6DD
:10144000D36AE96943FCD96E34468867ADD0B86089
:10145000DA732D0444E51D03335F4C0AAAC97C0DE1
:10146000DD3C710550AA41022710100BBE86200CEE
:10147000C925B56857B3856F2009D466B99FE46163
:10148000CE0EF9DE5E98C9D9292298D0B0B4A8D77B
:10149000C7173DB359810DB42E3B5CBDB7AD6CBAD7
:1014A000C02083B8EDB6B3BF9A0CE2B6039AD2B1AE
:1014B000743947D5EAAF77D29D1526DB048316DC55
:1014C00073120B63E3843B64943E6A6D0DA85A6A01
:1014D0007A0BCF0EE49DFF099327AE000AB19E0759
:1014E0007D44930FF0D2A3088768F2011EFEC20666
:1014F000695D5762F7CB67658071366C19E7066BDB
:101500006E761BD4FEE02BD3895A7ADA10CC4ADDF2
:10151000676FDFB9F9F9EFBE8E43BEB717D58EB04E
:1015200060E8A3D6D67E93D1A1C4C2D83852F2DFE8
:101530004FF167BBD16757BCA6DD06B53F4B36B24E
:1015400048DA2B0DD84C1B0AAFF64A0336607A04F2
:1015500041C3EF60DF55DF67A8EF8E6E3179BE695A
:10156000468CB361CB1A8366BCA0D26F2536E26885
:101570005295770CCC03470BBBB91602222F2605D8
:1015800055BE3BBAC5280BBDB2925AB42B046AB300
:101590005CA7FFD7C231CFD0B58B9ED92C1DAEDE54
:1015A0005BB0C2649B26F263EC9CA36A750A936DE0
:1015B00002A906099C3F360EEB8567077213570098
:1015C00005824ABF95147AB8E2AE2BB17B381BB6C0
:1015D0000C9B8ED2920DBED5E5B7EFDC7C21DFDB14
:1015E0000BD4D2D38642E2D4F1F8B3DD686E83DA4D
:1015F0001FCD16BE815B26B9F6E177B06F7747B78E
:1016000018E65A0888706A0FFFCA3B06665C0B0131
:1016100011FF9E658F69AE62F8D3FF6B6145CF6C99
:101620001678E20AA0EED20DD75483044EC2B3035B
:1016300039612667A7F71660D04D476949DB776E99
:101640003E4A6AD1AEDC5AD6D9660BDF40F03BD8B1
:101650003753AEBCA9C59EBBDE7FCFB247E9FFB50D
:10166000301CF2BDBD8AC2BACA3093B353A6A3B42C
:10167000240536D0BA9306D7CD2957DE54BF67D993
:10168000232E7A66B3B84A61C4021B685D942B6F3F
:101690002A37BE0BB4A18E0CC31BDF055A8DEF0297
:1016A0002D0000000041311B1982623632C3532DD8
:1016B0002B04C56C6445F4777D86A75A56C79641BE
:1016C0004F088AD9C849BBC2D18AE8EFFACBD9F40E
:1016D000E30C4FB5AC4D7EAEB58E2D839ECF1C98DE
:1016E000875112C24A1023D953D370F4789241EF34
:1016F0006155D7AE2E14E6B537D7B5981C968483BE
:101700000559981B8218A9009BDBFA2DB09ACB369D
:10171000A95D5D77E61C6C6CFFDF3F41D49E0E5ADD
:10172000CDA2248495E3159F8C2046B2A76177A9AA
:10173000BEA6E1E8F1E7D0F3E82483DEC365B2C5D5
:10174000DAAAAE5D5DEB9F464428CC6B6F69FD70F5
:1017500076AE6B3139EF5A2A202C09070B6D381CF5
:1017600012F33646DFB2075DC6715470ED30656B1B
:10177000F4F7F32ABBB6C231A275911C8934A007D5
:1017800090FBBC9F17BA8D840E79DEA92538EFB285
:101790003CFF79F373BE48E86A7D1BC5413C2ADEF5
:1017A00058054F79F0447E62E9872D4FC2C61C541C
:1017B000DB018A159440BB0E8D83E823A6C2D9387D
:1017C000BF0DC5A0384CF4BB218FA7960ACE968DCD
:1017D000130900CC5C4831D7458B62FA6ECA53E1DD
:1017E00077545DBBBA156CA0A3D63F8D88970E9633
:1017F000915098D7DE11A9CCC7D2FAE1EC93CBFA7D
:10180000F55CD762721DE6796BDEB554409F844F5C
:101810005958120E161923150FDA7038249B4123DC
:101820003DA76BFD65E65AE67C2509CB576438D0A9
:101830004EA3AE9101E29F8A1821CCA73360FDBC74
:101840002AAFE124ADEED03FB42D83129F6CB209D4
:1018500086AB2448C9EA1553D029467EFB687765D4
:10186000E2F6793F2FB7482436741B091D352A123A
:1018700004F2BC534BB38D485270DE657931EF7E74
:1018800060FEF3E6E7BFC2FDFE7C91D0D53DA0CB64
:10189000CCFA368A83BB07919A7854BCB13965A7D4
:1018A000A84B98833B0AA99822C9FAB50988CBAE00
:1018B000104F5DEF5F0E6CF446CD3FD96D8C0EC2BC
:1018C0007443125AF3022341EAC1706CC18041771C
:1018D000D847D7369706E62D8EC5B500A584841B5C
:1018E000BC1A8A41715BBB5A6898E87743D9D96CB6
:1018F0005A1E4F2D155F7E360C9C2D1B27DD1C00BC
:101900003E120098B9533183A09062AE8BD153B58B
:101910009216C5F4DD57F4EFC494A7C2EFD596D95B
:10192000F6E9BC07AEA88D1CB76BDE319C2AEF2A06
:1019300085ED796BCAAC4870D36F1B5DF82E2A46D3
:10194000E1E136DE66A007C57F6354E8542265F303
:101950004DE5F3B202A4C2A91B6791843026A09F73
:1019600029B8AEC5E4F99FDEFD3ACCF3D67BFDE89D
:10197000CFBC6BA980FD5AB2993E099FB27F3884D3
:10198000ABB0241C2CF115073532462A1E73773173
:1019900007B4E17048F5D06B513683467A77B25D73
:1019A000634ED7FACB0FE6E1D2CCB5CCF98D84D714
:1019B000E04A1296AF0B238DB6C870A09D8941BB3B
:1019C00084465D2303076C381AC43F1531850E0E1B
:1019D0002842984F6703A9547EC0FA795581CB629B
:1019E0004C1FC538815EF423989DA70EB3DC961575
:1019F000AA1B0054E55A314FFC996262D7D853793B
:101A0000CE174FE149567EFA50952DD77BD41CCC8A
:101A100062138A8D2D52BB963491E8BB1FD0D9A09A
:101A200006ECF37E5EADC265476E91486C2FA05305
:101A300075E836123AA90709236A5424082B653F32
:101A400011E479A796A548BC8F661B91A4272A8A22
:101A5000BDE0BCCBF2A18DD0EB62DEFDC023EFE692
:101A6000D9BDE1BC14FCD0A70D3F838A267EB2917C
:101A70003FB924D070F815CB693B46E6427A77FD32
:101A80005BB56B65DCF45A7EC5370953EE76384892
:101A9000F7B1AE09B8F09F12A133CC3F8A72FD2492
:101AA0009300000000376AC2016ED4840359BE4619
:101AB00002DCA80907EBC2CB06B27C8D0485164F69
:101AC00005B851130E8F3BD10FD685970DE1EF5519
:101AD0000C64F91A095393D8080A2D9E0A3D475CF5
:101AE0000B70A3261C47C9E41D1E77A21F291D6089
:101AF0001EAC0B2F1B9B61ED1AC2DFAB18F5B5694D
:101B000019C8F23512FF98F713A626B111914C733C
:101B100010145A3C152330FE147A8EB8164DE47A10
:101B200017E0464D38D72C8F398E92C93BB9F80B48
:101B30003A3CEE443F0B84863E523AC03C6550022C
:101B40003D58175E366F7D9C3736C3DA3501A918CC
:101B50003484BF5731B3D59530EA6BD332DD0111F0
:101B60003390E56B24A78FA925FE31EF27C95B2DA4
:101B7000264C4D62237B27A0222299E62015F324D0
:101B80002128B4782A1FDEBA2B4660FC29710A3E50
:101B900028F41C712DC376B32C9AC8F52EADA2374C
:101BA0002FC08D9A70F7E75871AE591E739933DCC8
:101BB000721C2593772B4F517672F11774459BD584
:101BC0007578DC897E4FB64B7F16080D7D2162CF7C
:101BD0007CA4748079931E4278CAA0047AFDCAC698
:101BE0007BB02EBC6C87447E6DDEFA386FE990FACC
:101BF0006E6C86B56B5BEC776A025231683538F3F0
:101C000069087FAF623F156D6366AB2B6151C1E917
:101C100060D4D7A665E3BD6464BA0322668D69E02B
:101C20006720CBD74817A115494E1F534B797591A3
:101C30004AFC63DE4FCB091C4E92B75A4CA5DD9887
:101C40004D989AC446AFF00647F64E4045C12482EF
:101C5000444432CD4173580F402AE649421D8C8BD3
:101C6000435068F154670233553EBC755709D6B7E7
:101C7000568CC0F853BBAA3A52E2147C50D57EBEB3
:101C800051E839E25ADF53205B86ED6659B187A4EB
:101C9000583491EB5D03FB295C5A456F5E6D2FADA7
:101CA0005F801B35E1B771F7E0EECFB1E2D9A573E4
:101CB000E35CB33CE66BD9FEE73267B8E5050D7A25
:101CC000E4384A26EF0F20E4EE569EA2EC61F46061
:101CD000EDE4E22FE8D388EDE98A36ABEBBD5C6931
:101CE000EAF0B813FDC7D2D1FC9E6C97FEA9065549
:101CF000FF2C101AFA1B7AD8FB42C49EF975AE5C11
:101D0000F848E900F37F83C2F2263D84F01157467C
:101D1000F1944109F4A32BCBF5FA958DF7CDFF4F44
:101D2000F6605D78D95737BAD80E89FCDA39E33EC8
:101D3000DBBCF571DE8B9FB3DFD221F5DDE54B37E0
:101D4000DCD80C6BD7EF66A9D6B6D8EFD481B22D0C
:101D5000D504A462D033CEA0D16A70E6D35D1A2434
:101D6000D210FE5EC527949CC47E2ADAC64940186C
:101D7000C7CC5657C2FB3C95C3A282D3C195E8118C
:101D8000C0A8AF4DCB9FC58FCAC67BC9C8F1110B88
:101D9000C9740744CC436D86CD1AD3C0CF2DB90288
:101DA000CE4096AF9177FC6D902E422B921928E988
:101DB000939C3EA696AB546497F2EA2295C580E0C8
:101DC00094F8C7BC9FCFAD7E9E9613389CA179FA3C
:101DD0009D246FB598130577994ABB319B7DD1F34C
:101DE0009A3035898D075F4B8C5EE10D8E698BCF04
:101DF0008FEC9D808ADBF7428B82490489B523C62C
:101E00008888649A83BF0E5882E6B01E80D1DADCDF
:101E10008154CC938463A651853A1817870D72D5E7
:101E200086A0D0E2A997BA20A8CE0466AAF96EA42B
:101E3000AB7C78EBAE4B1229AF12AC6FAD25C6ADC3
:101E4000AC1881F1A72FEB33A6765575A4413FB7A7
:101E5000A5C429F8A0F3433AA1AAFD7CA39D97BE8F
:101E6000A2D073C4B5E71906B4BEA740B689CD8227
:101E7000B70CDBCDB23BB10FB3620F49B155658BE7
:101E8000B06822D7BB5F4815BA06F653B8319C91AB
:101E9000B9B48ADEBC83E01CBDDA5E5ABFED34986B
:101EA000BE000000006567BCB88BC809AAEEAFB5DC
:101EB000125797628F32F0DE37DC5F6B25B938D767
:101EC0009DEF28B4C58A4F087D64E0BD6F0187018E
:101ED000D7B8BFD64ADDD86AF23377DFE056106351
:101EE000589F571950FA30A5E8149F10FA71F8ACB2
:101EF00042C8C07BDFADA7C76743087275266FCEA7
:101F0000CD707FAD951518112DFBB7A43F9ED0184D
:101F10008727E8CF1A428F73A2AC20C6B0C9477A90
:101F2000083EAF32A05BC88E18B5673B0AD0008769
:101F3000B26938502F0C5FEC97E2F059858797E52E
:101F40003DD1878665B4E03ADD5A4F8FCF3F2833C5
:101F5000778610E4EAE37758520DD8ED4068BF5118
:101F6000F8A1F82BF0C49F97482A30225A4F579E69
:101F7000E2F66F497F9308F5C77DA740D518C0FCEE
:101F80006D4ED09F352BB7238DC518969FA07F2A05
:101F9000271947FDBA7C204102928FF410F7E848D8
:101FA000A83D58149B583FA823B6901D31D3F7A1E4
:101FB000896ACF76140FA8CAACE1077FBE8460C3DC
:101FC00006D270A05EB7171CE659B8A9F43CDF151D
:101FD0004C85E7C2D1E0807E690E2FCB7B6B4877C2
:101FE000C3A20F0DCBC768B17329C704614CA0B859
:101FF000D9F5986F4490FFD3FC7E5066EE1B37DA1C
:10200000564D27B90E284005B6C6EFB0A4A3880CDC
:102010001C1AB0DB817FD767399178D22BF41F6E01
:102020009303F7263B66909A83883F2F91ED589350
:1020300029546044B43107F80CDFA84D1EBACFF123
:10204000A6ECDF92FE89B82E4667179B54027027D4
:10205000ECBB48F071DE2F4CC93080F9DB55E74509
:10206000639CA03F6BF9C783D3176836C1720F8A90
:1020700079CB375DE4AE50E15C40FF544E2598E8E3
:10208000F673888BAE16EF3716F84082049D273E14
:10209000BC241FE92141785599AFD7E08BCAB05CC9
:1020A000333BB659ED5ED1E555B07E5047D519ECBE
:1020B000FF6C213B62094687DAE7E932C8828E8EDF
:1020C00070D49EED28B1F951905F56E4823A3158B0
:1020D0003A83098FA7E66E331F08C1860D6DA63AB5
:1020E000B5A4E140BDC186FC052F2949174A4EF52C
:1020F000AFF376223296119E8A78BE2B981DD9971F
:10210000204BC9F4782EAE48C0C001FDD2A566416F
:102110006A1C5E96F779392A4F97969F5DF2F123F4
:10212000E505196B4D607ED7F58ED162E7EBB6DE23
:102130005F528E09C237E9B57AD9460068BC21BC26
:10214000D0EA31DF888F56633061F9D622049E6A67
:102150009ABDA6BD07D8C101BF366EB4AD530908FC
:10216000159A4E721DFF29CEA511867BB774E1C763
:102170000FCDD91092A8BEAC2A461119382376A5E6
:10218000807566C6D810017A60FEAECF729BC973A7
:10219000CA22F1A457479618EFA939ADFDCC5E11BC
:1021A0004506EE4D766389F1CE8D2644DCE841F894
:1021B0006451792FF9341E9341DAB12653BFD69A70
:1021C000EBE9C6F9B38CA1450B620EF01907694C17
:1021D000A1BE519B3CDB3627843599929650FE2E4A
:1021E0002E99B95426FCDEE89E12715D8C7716E1BB
:1021F00034CE2E36A9AB498A1145E63F03208183B0
:10220000BB7691E0E313F65C5BFD59E949983E55D6
:10221000F12106826C44613ED4AACE8BC6CFA93789
:102220007E38417FD65D26C36EB389767CD6EECAF2
:10223000C46FD61D590AB1A1E1E41E14F38179A837
:102240004BD769CB13B20E77AB5CA1C2B939C67E4E
:102250000180FEA99CE59915240B36A0366E511C11
:102260008EA7166686C271DA3E2CDE6F2C49B9D372
:1022700094F081040995E6B8B17B490DA31E2EB1F7
:102280001B483ED2432D596EFBC3F6DBE9A691678E
:10229000511FA9B0CC7ACE0C749461B966F10605D1
:1022A000DE00BC0311241FBECFEFD1E2DEBFCDBFE5
:1022B00000E00CBF12E0A0E0B2E0ECEAF2E703E0DD
:1022C0000BBF02C007900D92AE37B107D9F720E2DD
:1022D000AEE7B2E001C01D92A434B207E1F711E10C
:1022E000C2E5D1E100E006C021970109802FFE017F
:1022F0000F94AFB7C135D10780E00807A9F70F9455
:102300009A9D0D9454B90C940000CF92DF92EF92F5
:10231000FF92AB01DC011396FC91139711962D915E
:102320003C91EF2FEF712115310539F52F2FFF0F5C
:10233000330B220F232F221F330B8FEF9FEF0E2E15
:1023400002C0880F991F0A94E2F780959095BA0110
:10235000770F660B762F86239723840F951F02C075
:1023600095958795EA95E2F782279327821B930B31
:10237000FF90EF90DF90CF900895DB010F94BEB7F0
:102380006C01FF24D7FCF094EF2CC601F6FF0EC0C1
:102390002F2FFF0F330B220F232F221F330BCA01C6
:1023A00082279327821B930B8C0D9D1D02C0959550
:1023B0008795EA95E2F797FD0196FF90EF90DF9001
:1023C000CF900895EF92FF920F931F93CF93DF93D7
:1023D0009091091F96FF16C154E05093010EC82F2B
:1023E000D0E0CF37D1050CF0FBC0DE01A095B09551
:1023F000A370BB27109709F456C0A130B10549F16D
:10240000129709F081C18E01000F111F000F111FDB
:102410000C5A1B4FF80180819181A281B3818B2FCF
:102420000F94C680F80160817181828193810F943D
:10243000C680F80180819181A281B381892F0F9498
:10244000C680F80180819181A281B3810F94C680FA
:1024500021968E01000F111F000F111F0C5A1B4FE8
:10246000F80180819181A281B3818B2F0F94C68066
:10247000F80160817181828193810F94C680F80197
:1024800080819181A281B381892F0F94C680F80148
:1024900080819181A281B3810F94C6802196CF372C
:1024A000D10509F49DC08E01000F111F000F111FEF
:1024B0000C5A1B4FF80180819181A281B3818B2F2F
:1024C0000F94C680F80160817181828193810F949D
:1024D000C680F80180819181A281B381892F0F94F8
:1024E000C680F80180819181A281B3810F94C6805A
:1024F0007E01FFEFEF1AFF0A8701000F111F000F87
:10250000111F0C5A1B4FF80180819181A281B38168
:102510008B2F0F94C680F801608171818281938135
:102520000F94C680F80180819181A281B381892FA7
:102530000F94C680F80180819181A281B3810F94AC
:10254000C6808701000F111F000F111F085A1B4F73
:10255000F80180819181A281B3818B2F0F94C68075
:10256000F80160817181828193810F94C680F801A6
:1025700080819181A281B381892F0F94C680F80157
:1025800080819181A281B3810F94C6808E01000F5A
:10259000111F000F111F005A1B4FF80180819181FC
:1025A000A281B3818B2F0F94C680F8016081718165
:1025B000828193810F94C680F80180819181A281EC
:1025C000B381892F0F94C680F80180819181A28107
:1025D000B3810F94C6802496CF37D10509F063CF1D
:1025E0004091091F4F7B4093091F1092010E1092DA
:1025F0000C0810920B08DF91CF911F910F91FF9063
:10260000EF9008954CEF51E061E06093BF0FE090D0
:10261000C20F8091C30FE091B70FF091B80FE81689
:1026200009F45EC02091C20F30E02F5F3F4F2F733F
:102630003327022F03C00FB607FE22C01091C30F2D
:102640000117C9F3E091C20FF0E0EC5FFF4E10827A
:102650003FB7F8942093C20FE091B90FF091BA0FF1
:102660002081206220833FBF4150510971F61092B2
:10267000010EDF91CF911F910F91FF90EF90089580
:10268000708175FFDBCFE091C30FF0E0EC5FFF4E90
:10269000A081E091C30FF0E03196EF73FF27E09344
:1026A000C30FC091BD0FD091BE0FA883E091B70FAB
:1026B000F091B80FB081B370B064B083D091C20F05
:1026C000F091C30FDF1307C0C091B90FD091BA0FBB
:1026D00098819F7D9883E091B70FF091B80FAECFAE
:1026E000F080F5FE9FCFEFB6F894C091BD0FD0916A
:1026F000BE0F1882E091B70FF091B80F8081837000
:1027000080648083EFBEB0CF8E01000F111F000FD9
:10271000111F0C5A1B4FF80180819181A281B38156
:102720008B2F0F94C680F801608171818281938123
:102730000F94C680F80180819181A281B381892F95
:102740000F94C680F80180819181A281B3810F949A
:10275000C680219658CECF93C82F0F944181892BE4
:10276000E1F38C2FCF910D94C680CF93C82F892F82
:102770000E94AB138C2FCF910C94AB139C01215072
:102780003240283141E03407A0F12F5F3E4F223024
:10279000310578F1843023E0920709F446C388F5C7
:1027A0008D3022E0920709F448C308F453C0843105
:1027B00022E0920709F461C208F4C9C0883122E01E
:1027C000920709F4C0C308F06AC1863122E092077B
:1027D00009F408C408F4F4C38091301F81FFB5C028
:1027E0000E940F963091F7063F773093F70681E00D
:1027F00008954091B91E5091BA1E452B59F280E0C0
:102800000895833143E0940709F41FC308F044C0DE
:102810008B3043E0940709F4FBC208F4D7C08F3033
:1028200043E0940709F46CC208F04CC18D3043E0DA
:10283000940709F424C308F410C38091301F81FF6A
:1028400084C00F94E247E091F606EF7EE093F6062F
:1028500081E00895853022E0920709F41BC208F454
:10286000CBC0893022E0920709F4C0C208F0FEC054
:10287000873022E0920709F4FAC308F4E6C35091C6
:10288000301F51FF62C00E942F886091F7066B7F56
:102890006093F70681E00895823042E3940708F4DC
:1028A00078C0833049E9940709F4A8C108F0BAC098
:1028B000813049E9940709F4C7C108F00CC38115B8
:1028C000994909F09CCF5091E50D5370513009F4AE
:1028D000F5C3F8948091740787FD8C5F18160CF08F
:1028E00009C4082E000C990BFC01EE0FFF1FEE0F20
:1028F000FF1FEC54F94F2081318142815381880FB1
:10290000991F880F991FFC01E055F94F8081918133
:10291000A281B381281B390B4A0B5B0B78942115DC
:1029200031054105510589F060E077E883E993E0DE
:102930000F9420B73093E70D2093E60D0F94C383D7
:102940007091581F78607093581F81E0089580310E
:1029500022E0920709F4C0C108F4DFC0823122E00E
:10296000920709F41BC308F40CC35091301F51FFA8
:10297000ECCF6091DC066A3009F4FFC3A091D80661
:10298000E091D606F091D706B081AB2BA08381E011
:102990000895811522E39207C0F6863143E094073B
:1029A00009F4C0C108F0A7C0843143E0940709F0DE
:1029B0000FC19091301F91FFC8CF0F948246B09104
:1029C000F606BF7BB093F60681E00895873043E0BA
:1029D000940709F403C208F4CBC0893043E094079C
:1029E00009F421C308F412C33091301F31FFADCF79
:1029F0000E94F08381E00895813022E0920709F47B
:102A000046C208F4A5C0833022E0920709F489C2C7
:102A100008F47AC27091301F71FF97CF0E94D88A54
:102A200081E00895853029E9920709F4A9C108F4E5
:102A30008EC18630994909F0E2CE2091761F3091FF
:102A4000771F2115310509F480CFA0E1B7E20F947B
:102A500084B72091B91E3091BA1E50E040E00F9427
:102A600020B73093F40D2093F30D68CF8B3022E024
:102A7000920709F4A6C108F49CC1A091301FA1FFE0
:102A800006C0B091F706E8E0BE27B093F706F091D4
:102A9000F706F3FD5ACF0E945C8681E008958230EC
:102AA00023E0920709F4FDC208F0E9C281309340A7
:102AB00009F0A5CE9091301F91FF47CF0E9400866C
:102AC00081E00895813143E0940709F4F8C008F4E7
:102AD000EEC05091301F51FF06C06091F60670E2C3
:102AE00067276093F606A091F606A5FD2ECF0F94FA
:102AF000324781E00895873143E0940709F053C0DD
:102B0000E091301FE1FF21CF0F94EC453091F606A4
:102B10003F773093F60681E008958E3022E09207E9
:102B200009F408C18F30924009F069CEA091301F9E
:102B3000A1FF06C0B091F706E0E1BE27B093F7060B
:102B4000F091F706F4FD01CF0E94369781E00895D9
:102B5000811521E0920709F4A2C18130914009F06A
:102B60004ECE8091301F82608093301F81E00895A7
:102B7000853043E0940709F45AC08630934009F049
:102B80003ECE7091301F71FF06C0A091F60692E014
:102B9000A927A093F606B091F606B1FDD6CE0E9405
:102BA000FC8481E008958831934009F028CE20917B
:102BB000301F21FF05C04091F60640584093F606AD
:102BC0008091F60687FDC1CE0F94EC4581E0089513
:102BD0008531934009F013CE5091301F51FF06C04C
:102BE0006091F60670E467276093F606A091F606FA
:102BF000A6FDABCE0F94824681E008952091761F0A
:102C00003091771F2115310509F49FCEA0E1B7E27D
:102C10000F9484B72091B91E3091BA1E50E040E065
:102C20000F9420B73093EE0D2093ED0D87CE2091B9
:102C3000301F21FF8ACE0E94FC844091F6064D7F12
:102C40004093F60681E008952091761F3091771F1A
:102C50002115310509F479CEA0E1B7E20F9484B7CC
:102C60002091B91E3091BA1E50E040E00F9420B779
:102C70003093EA0D2093E90D61CEF091301FF1FF02
:102C800064CE0E94FE875091F7065F7B5093F70653
:102C900081E008957091301F71FF57CE0E94048A21
:102CA0009091F7069D7F9093F70681E00895F0914B
:102CB000301FF1FF4ACE0F94864781E0089590912E
:102CC000301F91FF42CE0F943247B091F606BF7D80
:102CD000B093F60681E008953091301F31FF35CE74
:102CE0005091DC065A3009F43AC2A091D506E09121
:102CF000D306F091D4069081A92BA08381E008959A
:102D00002091301F21FF06C04091F60680E1482740
:102D10004093F606E091F606E4FD17CE0F94E247E5
:102D200081E00895F091301FF1FF0FCE0F943346EC
:102D300081E008952091301F21FF07CE0E94369731
:102D40004091F7064F7E4093F70681E00895209169
:102D5000761F3091771F2115310509F4F6CDA0E1DA
:102D6000B7E20F9484B72091B91E3091BA1E50E09B
:102D700040E00F9420B73093F00D2093EF0DDECD9F
:102D80002091761F3091771F2115310509F4DDCD93
:102D9000A0E1B7E20F9484B72091B91E3091BA1E1A
:102DA00050E040E00F9420B73093F20D2093F10DE6
:102DB000C5CD9091301F91FFC8CD0E942F8781E033
:102DC00008952091301F21FFC0CD0E945C86409164
:102DD000F706477F4093F70681E00895A091301FE2
:102DE000A1FFB3CD0E94A08481E008958091301F9F
:102DF00081FF06C03091F70654E035273093F7067F
:102E00006091F70662FDA1CD0E942F8881E00895B0
:102E10003091301F31FF99CD0E949C83F091F606CE
:102E2000F77FF093F60681E008959091301F91FFAF
:102E30008CCD0E94508581E008956091301F61FF24
:102E400084CD0E94819781E00895A091301FA1FF59
:102E50007CCD0F94D64681E008959091301F91FF6C
:102E600006C0B091F60628E0B227B093F60640916E
:102E7000F60643FD6ACD0E949C8381E0089530915F
:102E8000301F31FF62CD0F94364881E00895F091F4
:102E9000301FF1FF5ACD0E947C8C81E00895309163
:102EA000301F3D7F3093301F0E94AC850E94FC8410
:102EB0000E944C840E949C830F94E2470E94A88B3E
:102EC0000E94048A0E942F880E945C861092F70656
:102ED0001092F6063ACD2091761F3091771F21157A
:102EE000310509F432CDA0E1B7E20F9484B7209107
:102EF000B91E3091BA1E50E040E00F9420B73093D5
:102F0000EC0D2093EB0D1ACD5091301F51FF1DCDCC
:102F10000E94A88B6091F7066E7F6093F70681E0B0
:102F200008959091301F91FF06C0A091F706B1E07F
:102F3000AB27A093F706E091F706E0FD06CD0E94CF
:102F4000A88B81E008955091301F51FF05C060911A
:102F5000F70660586093F7067091F70677FDF5CC99
:102F6000E091DC06EA3009F4DAC08091DB06E091FA
:102F7000D906F091DA06308180958323808381E041
:102F800008958091301F81FFE0CC0E94D389309159
:102F9000F7063F7D3093F70681E00895F091301FEA
:102FA000F1FF06C02091F70640E224272093F706A0
:102FB0008091F70685FDC9CC0E94D38981E00895F0
:102FC000B091301FB1FF06C0F091F70620E4F22760
:102FD000F093F7064091F70646FDB7CC0E94FE87B6
:102FE00081E008955091301F51FFAFCC6091DC0615
:102FF0006A3009F494C07091DB06E091D906F09133
:10300000DA06A0817A2B708381E008958091301FC9
:1030100081FF9BCC0E944C84E091F606EB7FE0930D
:10302000F60681E00895F091301FF1FF06C050913F
:10303000F60664E056275093F6067091F60672FD88
:1030400084CC0E944C8481E008952091301F21FFA0
:1030500006C04091F70682E048274093F70630917A
:10306000F70631FD72CC0E94048A81E008957091C8
:10307000301F71FF6ACC0E94038981E00895B091EE
:10308000301FB1FF06C0F091F60621E0F227F09361
:10309000F6064091F60640FD58CC0E94AC8581E0D2
:1030A00008958091301F81FF50CC0E94AC853091F3
:1030B000F6063E7F3093F60681E00895E091FD0D1F
:1030C000E295EF70F0E0EE0FFF1FEB5CF04E208119
:1030D0003181A9E8B8E80F9484B7969587959295C1
:1030E00082958F7089279F7089279093E70D809331
:1030F000E60D24CC2091B4063091B5064091B60679
:103100005091B7066091C0067091C1068091C206C9
:103110009091C306261B370B480B590BFFCBA09190
:103120001607E0911407F09115079081A095A92347
:10313000A083B0911307B09313078091130790E019
:1031400090630F94583E8093120720911607E091E8
:103150001407F09115074081242B2083F6CB609152
:103160001607E0911407F0911507708160956723A9
:103170006083B0911307B064DECF70911607E091C1
:103180001407F09115079081709579237083B091A1
:103190001307B068D0CF8F929F92AF92BF92CF9219
:1031A000DF92EF92FF920F931F936A0159018C01F6
:1031B000095C1F4F9C01255D3F4FAC01495F5F4F8C
:1031C0007B0166E00F946A92282F2B51330BD901B3
:1031D000C50124363105B1F095010F94C6B72EE331
:1031E0003AE047ED53EA0F94CDB700E20F94FAB7F7
:1031F00049015A0186E0B694A794979487948A95DA
:10320000D1F7C4011F910F91FF90EF90DF90CF9005
:10321000BF90AF909F908F9008950F931F930F943E
:10322000FB8A00918F0210919002209191023091BF
:103230009202601B710B820B930B21E0693B7B4078
:103240008105910508F420E0822F1F910F910895C8
:10325000982F803110F00F9448B9E82FF0E08827BC
:10326000EB5CF64E8F4F0D94AFB77A197C1962194B
:10327000821989198F1996199C19C419011A081AEB
:103280000F1A171A3A1A45196919603281E078073E
:10329000F0F485EA97E16F3F710509F008F422C167
:1032A0006031F1E07F0708F041C1660F770B861BA4
:1032B000970BFC01EB5DFE4F608171818DE592E023
:1032C0000C948511603221E0720708F4DAC080E0C6
:1032D00008956035710508F4DAC06F3F710509F093
:1032E000B0F7605571098FE89BE0680F791FFB010B
:1032F00080810895892F08956038710540F78FE720
:103300009DE0F3CF603231E0730708F78CEE98E16F
:10331000C2CF60387105D8F68FE39DE1E6CF603209
:1033200081E07807A0F68EE596E1B5CF60387105AB
:1033300070F687EB9FE1D9CF6035710508F4AAC01C
:10334000603A710508F4B1C0603F710508F0BFCF65
:10335000605A710987EF95E1262F6034710508F4F2
:10336000B8C06834710508F0F0C0205430E0220F76
:10337000331F821B930BFC01EB5AFF4F608171815D
:103380008DE592E00C9485116033710508F485C0D9
:103390006036710508F48EC06039710508F4B4C058
:1033A000603C710508F4ECC0603F710508F4EDC0A5
:1033B0006032E1E07E0708F4EDC06035F1E07F07A0
:1033C00008F4EDC0603821E0720708F080CF605546
:1033D00071408CED91E1262F6432710508F486C0AE
:1033E0006A32710508F095C0245230E0220F331F75
:1033F000821B930BFC0165A976A98DE592E00C94E4
:103400008511603C710508F062CF8FEB9CE06DCFB9
:10341000603C710508F05BCF88EF9DE166CF6032BC
:1034200031E0730708F053CF83E39AE134CF60357E
:10343000710550F1603A710598F1683B710508F02B
:1034400046CF605A710960317105C8F16431710568
:1034500008F088C06051E62FF0E0EE0FFF1FF195F5
:10346000E195F109EE52FE4E608171818DE592E0A9
:103470000C9485116038710508F029CF8FE39CE02A
:1034800034CF8AE79BE107CF84EF93E165CF89E2F0
:1034900095E162CF80E995E15FCF81EB93E19BCF2E
:1034A000605571098BE594E157CF6055710982EC45
:1034B00094E152CF605371098EE693E18CCFE62FF1
:1034C000E370EA5FEE0FE61BF0E0EB54FE4E8781FF
:1034D00008952770245E220F261B820F911DFC0188
:1034E00087810895262F2F702858F5CF2BEA629FE9
:1034F000412D112446954695342F330F430F440F29
:10350000262F241B215FE7CF605671098BE293E1E0
:1035100062CF2A52220F330B821B930BFC01EF5B0D
:10352000FF4F808191819595879508956051262F51
:1035300030E0220F331F821B930BFC01EB5BFE4F2D
:10354000808191819595879508952854220F330B9A
:10355000821B930BFC01EB59FF4F80819181959564
:10356000879508956451660F770BEE27FF27E61BBA
:10357000F70BE652FE4E80819181959587950895CF
:103580006059710988EE92E126CF605C710985EA85
:1035900092E121CF605F710982E692E11CCF605217
:1035A00071408FE192E117CF803110F00F9448B94C
:1035B000E82FF0E08827E052F54E8F4F0D94AFB71B
:1035C0001B1B351B3C1B441B4C1B531B5B1BF01A6A
:1035D000621BA61BAD1BB41BD31BFF1B1C1B241B98
:1035E0006035710508F422C1603A710508F429C1FB
:1035F000603F710500F5605A7109E7EFF5E1862F2C
:103600006034710508F431C16834710508F07CC17B
:10361000805490E0880F991FDF01A81BB90BAB5AAB
:10362000BF4F54E6459FA00111244D935C936FEF6B
:103630007FE77383628308956032E1E07E0708F0DC
:10364000EDC0E5EAF7E197C06035710508F4E8C020
:103650006F3F710509F078F7605571098FE89BE0BD
:10366000680F791FFB01408308956038710508F0E9
:10367000CFC08FE79DE0F4CF603281E0780708F09B
:10368000CCC0EAE7FBE177C06032E1E07E0708F0FA
:10369000C3C0ECEEF8E16FC06038710508F0BBC044
:1036A0008FE39DE1DDCF6032F1E07F0708F0B2C02B
:1036B000EEE5F6E160C06038710508F0AAC087EB5E
:1036C0009FE1CECF6033710508F4B3C06036710559
:1036D00008F4BCC06039710508F4F1C0603C7105A4
:1036E00008F431C1603F710508F432C1603281E0F5
:1036F000780708F432C16035E1E07E0708F432C192
:103700006038F1E07F0708F096CF60557140ACED6E
:10371000B1E1862F6432710508F4BDC06A327105CB
:1037200008F0D2C0845290E0880F991FFD01E81B79
:10373000F90B34E6439FC001112496AB85AB2FEF04
:103740003FE713963C932E9312970895603C7105C2
:1037500008F05DC08FEB9CE083CF603C710508F002
:1037600055C088EF9DE17CCF603281E0780708F09A
:103770004CC0E3E3FAE16F3F710509F008F480C043
:10378000603181E0780708F0AEC0660F770BDF018B
:10379000A61BB70BAB5DBE4F84E6489FA00111246A
:1037A0004D935C9344CF60357105E8F1603A710543
:1037B00008F442C0683B710508F03DCF605A7109BA
:1037C0006031710508F447C06431710508F0ABC081
:1037D0006051E62FF0E0EE0FFF1FF195E195F10942
:1037E000EE52FE4E24E6429FA001112451834083F5
:1037F0006FEF7FE77093B8116093B7110895603849
:10380000710568F48FE39CE02BCF08950895089527
:1038100008950895089508950895089508950895C0
:10382000E9E2F5E1ECCEE4EFF3E1E9CEE0E9F5E140
:10383000E6CEA1EBB3E16DCF60557109EBE5F4E1A4
:10384000DECE60557109E2ECF4E1D9CE6053710926
:10385000AEE6B3E15ECFE62FE370EA5FEE0FE61B64
:10386000F0E0EB54FE4E4783C3CFA62FA770A45EB3
:10387000AA0FA61BAE0FBF2FB11D17964C93D7CE24
:10388000A62FAF70A858AA0FA61BAE0FBF2FB11D51
:1038900017964C93CCCE8BEA689F812D1124869588
:1038A0008695982F990F890F880FE62FE81BE15F07
:1038B000EE0FE61BEA0FFB2FF11D478340CF60564A
:1038C0007109ABE2B3E125CF8A52880F990BFD0154
:1038D000E81BF90BEF5BFF4F842F90E0880F991FD7
:1038E000918380832CCF6051862F90E0880F991FA1
:1038F000DF01A81BB90BAB5BBE4F842F90E0880F94
:10390000991F8D939C9393CE8854880F990BDF0158
:10391000A81BB90BAB59BF4F842F90E0880F991F9C
:103920008D939C9384CE6451660F770BEE27FF270F
:10393000E61BF70BE652FE4E842F90E0880F991F8E
:103940009183808355CF60597109A8EEB2E1E1CE31
:10395000605C7109A5EAB2E1DCCE605F7109A2E6A4
:10396000B2E1D7CE60527140AFE1B2E1D2CE2F9238
:103970003F924F925F926F927F928F929F92AF92FF
:10398000BF92CF92DF92EF92FF920F931F93CF934C
:10399000DF93CDB7DEB7AD970FB6F894DEBF0FBE9D
:1039A000CDBF2C016CA3633009F4EEC608F4D7C672
:1039B0002CA1243009F403C3253009F001C79C0170
:1039C0002B5B3E4F89509F4FA201495051095EA386
:1039D0004DA300E110E01BA70AA760EF7FEF78A7D7
:1039E0006FA311E019A72DA03EA02816390609F4EF
:1039F0009BC19BA38AA32E5F3F4F3DA72CA76BE7DC
:103A0000262E62E0362EEE24E3947AE0872E912C67
:103A1000A12CB12CFF24F394ECA5FDA592918291E9
:103A2000FDA7ECA739A5313009F48EC6D82E93E650
:103A3000EFEFF0E19D1508F08EC22D2D30E050E043
:103A400040E019A28E010F5D1F4FCA01B901A50107
:103A500094010F9420B7605DF80162938F012115E6
:103A600031054105510589F73097E9F101900020B2
:103A7000E9F7AF01F801415051094E175F0799F17D
:103A8000D190E092BF0F6090C20F7090C30FA091D1
:103A9000B70FB091B80F671409F405C32091C20F96
:103AA00030E02F5F3F4F2F733327322F03C00FB605
:103AB00007FE98C28091C30F3817C9F3A091C20FB7
:103AC000B0E0AC5FBF4EDC927FB7F8942093C20F9A
:103AD000A091B90FB091BA0F6C9160626C937FBFE7
:103AE0004E175F0769F6E1E0F1E14491442399F153
:103AF000E092BF0F5091C20FD090C30FA091B70FAB
:103B0000B091B80F5D1509F413C32091C20F30E0D6
:103B10002F5F3F4F2F733327C22E03C00FB607FE10
:103B2000D6C27091C30FC716C9F3A091C20FB0E0FF
:103B3000AC5FBF4E4C936FB7F8942093C20FA09127
:103B4000B90FB091BA0F9C9190629C936FBF319660
:103B500044914111CDCF6AA07BA0CAA4DBA46C0C18
:103B60007D1C6AA17BA18B016615770509F499C0BC
:103B7000F80121918F01EFEFF0E1243608F401C341
:103B800030E050E040E019A2CE0181966C01CA01FC
:103B9000B901A50194010F9420B7605DF60162930D
:103BA0006F01211531054105510589F73097E9F17C
:103BB00001900020E9F7AF01F601415051094E177D
:103BC0005F0799F1D190F092BF0F2091C20F6091E1
:103BD000C30FA091B70FB091B80F261709F466C3B1
:103BE0002091C20F30E02F5F3F4F2F733327322FCA
:103BF00003C00FB607FEF9C29091C30F3917C9F37E
:103C0000A091C20FB0E0AC5FBF4EDC92CFB6F8948B
:103C10002093C20FA091B90FB091BA0F8C9180621E
:103C20008C93CFBE4E175F0769F6E1E0F1E1449156
:103C3000442399F1F092BF0F5091C20FD090C30F5F
:103C4000A091B70FB091B80F5D1509F474C320911E
:103C5000C20F30E02F5F3F4F2F733327922F03C0E7
:103C60000FB607FE37C37091C30F9717C9F3A09122
:103C7000C20FB0E0AC5FBF4E4C93CFB6F894209328
:103C8000C20FA091B90FB091BA0F8C9180628C9342
:103C9000CFBE319644914111CDCF6016710609F027
:103CA00067CFE9E7F2E07190E092BF0F1091C20F89
:103CB0009091C30FA091B70FB091B80F191709F4E5
:103CC000F8C32091C20F30E02F5F3F4F2F7333278F
:103CD000322F03C00FB607FE8BC38091C30F381776
:103CE000C9F3A091C20FB0E0AC5FBF4E7C925FB74A
:103CF000F8942093C20FA091B90FB091BA0F6C91B4
:103D000060626C935FBF2E163F0669F6CAA0DBA007
:103D10008FA198A5C80ED91EDBA2CAA26DA17EA153
:103D20006C157D0509F078CE03E011E108C087EA43
:103D30009FE00F94B57F0F5F1F4F892B21F0F80193
:103D400064916111F4CFFCA1F53008F04EC5F33059
:103D500008F0FDC4F23009F02BC5320155E1650EC3
:103D6000711C8DE1480E511C4614570409F4BAC069
:103D700032E0430E511C42E0640E711CFF24F394A8
:103D80005AE0852E912CA12CB12CF201B291A29176
:103D90002F012CEE31E50F94C6B79C013595279580
:103DA00035952795359527953595279535952795FB
:103DB000122F37FD1395EFEFF0E1143608F4E4C24B
:103DC000212F30E050E040E019A28E010F5D1F4F1F
:103DD000CA01B901A50194010F9420B7605DF801F3
:103DE00062938F01211531054105510589F73097FF
:103DF000E9F101900020E9F7AF01D80141505109E4
:103E0000A417B50799F13D90F092BF0F3091C20F02
:103E1000D090C30FE091B70FF091B80F3D1509F4A2
:103E20000DC42091C20F30E02F5F3F4F2F73332717
:103E3000E22E03C00FB607FE0CC38091C30FE81635
:103E4000C9F3E091C20FF0E0EC5FFF4E3082CFB6D5
:103E5000F8942093C20FE091B90FF091BA0F20812E
:103E600020622083CFBEA417B50769F6E1E0F1E137
:103E70004491442399F1F092BF0F5091C20F3090BA
:103E8000C30FA091B70FB091B80F531509F41BC41D
:103E90002091C20F30E02F5F3F4F2F733327E22E68
:103EA00003C00FB607FEDEC38091C30FE816C9F347
:103EB000A091C20FB0E0AC5FBF4E4C93CFB6F89468
:103EC0002093C20FA091B90FB091BA0F2C9120622C
:103ED0002C93CFBE319644914111CDCF641475041B
:103EE00009F053CF6DE087EA9FE00F94B57F892BEF
:103EF00009F487C46AE087EA9FE0AD960FB6F894AC
:103F0000DEBF0FBECDBFDF91CF911F910F91FF900C
:103F1000EF90DF90CF90BF90AF909F908F907F9069
:103F20006F905F904F903F902F900D94B57F5C9174
:103F300055FF21C02FB7F894A091BD0FB091BE0FCF
:103F40006C92A091B70FB091B80F1C9113701064D0
:103F50001C932FBF31966490662009F4E0C3E09271
:103F6000BF0F7090C20FC090C30FA091B70FB09158
:103F7000B80F7C14E1F22091C20F30E02F5F3F4F69
:103F80002F733327122F03C00FB607FE5BC080913B
:103F9000C30F1817C9F3A091C20FB0E0AC5FBF4EBA
:103FA0006C924FB7F8942093C20FA091B90FB091C3
:103FB000BA0F7C9170627C934FBF3196CCCF9C013D
:103FC0002B593F4FCF96D2011197BEA3ADA3E8E086
:103FD000F0E0FBA7EAA748EF5FEF58A74FA372E016
:103FE00079A701CD9C9195FF65CDA091C30FB0E05D
:103FF000AC5FBF4E1C91A091C30FB0E01196AF73A0
:10400000BB27A093C30FA091BD0FB091BE0F1C930F
:10401000A091B70FB091B80F0C91037000640C938E
:10402000B091C20F6090C30FB61107C0A091B90F35
:10403000B091BA0F8C918F7D8C93A091B70FB091F6
:10404000B80F38CD0C9105FFA2CFA091C30FB0E0FF
:10405000AC5FBF4E3C916091C30F70E06F5F7F4FCC
:104060006F7377276093C30FA091BD0FB091BE0F00
:104070003C93A091B70FB091B80F6C9163706064DE
:104080006C93B091C20F9091C30FB91307C0A09168
:10409000B90FB091BA0F5C915F7D5C93A091B70F9F
:1040A000B091B80F74CFCC90C5FEF8CC2FB7F89470
:1040B000A091BD0FB091BE0FDC92A091B70FB0914F
:1040C000B80F3C91337030643C932FBFD6CC1C9119
:1040D00015FF27CDA091C30FB0E0AC5FBF4E0C9190
:1040E0006091C30F70E06F5F7F4F6F7377276093AE
:1040F000C30FA091BD0FB091BE0F0C93A091B70F4D
:10410000B091B80F8C91837080648C93B091C20F82
:104110006090C30FB61107C0A091B90FB091BA0F4C
:104120003C913F7D3C93A091B70FB091B80FF9CC73
:104130007C9075FEEACC2FB7F894A091BD0FB0919A
:10414000BE0F4C93A091B70FB091B80F4C91437034
:1041500040644C932FBF3196FBCC9C9195FF21C0BE
:104160003FB7F894A091BD0FB091BE0FDC92A09123
:10417000B70FB091B80F4C91437040644C933FBF60
:104180003196D490DD2009F4A8C1F092BF0F509170
:10419000C20F7091C30FA091B70FB091B80F57170E
:1041A000E1F24091C20F50E04F5F5F4F4F735527D0
:1041B000342F03C00FB607FE48C08091C30F3817D5
:1041C000C9F3A091C20FB0E0AC5FBF4EDC92CFB696
:1041D000F8944093C20FA091B90FB091BA0F4C91CF
:1041E00040624C93CFBE3196CCCF6C9165FF04CD2D
:1041F000A091C30FB0E0AC5FBF4E7C91A091C30F04
:10420000B0E01196AF73BB27A093C30FA091BD0F71
:10421000B091BE0F7C93A091B70FB091B80F9C9155
:10422000937090649C93B091C20FC090C30FBC1167
:1042300007C0A091B90FB091BA0F8C918F7D8C936C
:10424000A091B70FB091B80FD7CC6C9165FFB5CFE7
:10425000A091C30FB0E0AC5FBF4E5C916091C30F03
:1042600070E06F5F7F4F6F7377276093C30FA091EC
:10427000BD0FB091BE0F5C93A091B70FB091B80F76
:104280007C91737070647C93B091C20F9091C30F56
:10429000B91307C0A091B90FB091BA0F8C918F7D5F
:1042A0008C93A091B70FB091B80F87CF7C9175FF19
:1042B00097CC2FB7F894A091BD0FB091BE0FDC92B0
:1042C000A091B70FB091B80F3C91337030643C931C
:1042D0002FBF75CC3C9135FFC6CCA091C30FB0E089
:1042E000AC5FBF4E5C916091C30F70E06F5F7F4F1A
:1042F0006F7377276093C30FA091BD0FB091BE0F6E
:104300005C93A091B70FB091B80F6C91637060642B
:104310006C93B091C20FD090C30FBD1107C0A09194
:10432000B90FB091BA0F7C917F7D7C93A091B70FAC
:10433000B091B80F98CC6C9165FF89CC2FB7F894E9
:10434000A091BD0FB091BE0F4C93A091B70FB0914B
:10435000B80F4C91437040644C932FBF31969ACC68
:104360005C9155FF21C00FB7F894A091BD0FB0919B
:10437000BE0F3C92A091B70FB091B80F9C91937073
:1043800090649C930FBF31963490332009F4B0C1F0
:10439000F092BF0F9091C20F3091C30FA091B70F51
:1043A000B091B80F9317E1F22091C20F30E02F5F68
:1043B0003F4F2F733327D22E03C00FB607FEF8C02E
:1043C0004091C30FD416C9F3A091C20FB0E0AC5F07
:1043D000BF4E3C927FB7F8942093C20FA091B90FC3
:1043E000B091BA0F2C9120622C937FBF3196CCCF25
:1043F000DC90D5FE72CCA091C30FB0E0AC5FBF4E95
:104400004C916091C30F70E06F5F7F4F6F737727A0
:104410006093C30FA091BD0FB091BE0F4C93A091BC
:10442000B70FB091B80F7C91737070647C93B091AA
:10443000C20F6090C30FB61107C0A091B90FB09121
:10444000BA0F0C910F7D0C93A091B70FB091B80FDC
:1044500044CC608165FFF1CCE091C30FF0E0EC5FEC
:10446000FF4E9081E091C30FF0E03196EF73FF278C
:10447000E093C30FE091BD0FF091BE0F9083E091E8
:10448000B70FF091B80F1081137010641083F09182
:10449000C20F2090C30FF21107C0E091B90FF09145
:1044A000BA0F00810F7D0083E091B70FF091B80F34
:1044B000C4CCCC90C5FE05CC2FB7F894A091BD0F0D
:1044C000B091BE0F7C92A091B70FB091B80F1C9124
:1044D000137010641C932FBF16CCEDEFF0E12A305F
:1044E00008F04ECBD490DD2009F44ACBF092BF0FF8
:1044F000C090C20F6091C30FA091B70FB091B80FD9
:10450000C61609F486C04091C20F50E04F5F5F4F5E
:104510004F735527942F03C00FB607FE18C0709134
:10452000C30F9717C9F3A091C20FB0E0AC5FBF4EA5
:10453000DC923FB7F8944093C20FA091B90FB091AD
:10454000BA0F8C9180628C933FBF3196CBCFCC90C9
:10455000C5FEE5CFA091C30FB0E0AC5FBF4E5C914C
:104560006091C30F70E06F5F7F4F6F737727609329
:10457000C30FA091BD0FB091BE0F5C93A091B70F78
:10458000B091B80F6C91637060646C93B091C20F7E
:104590007091C30FB71307C0A091B90FB091BA0FB4
:1045A0003C913F7D3C93A091B70FB091B80FB7CF2E
:1045B0002C9025FE05CFA091C30FB0E0AC5FBF4E9D
:1045C000EC906091C30F70E06F5F7F4F6F73772740
:1045D0006093C30FA091BD0FB091BE0FEC92A0915C
:1045E000B70FB091B80F8C91837080648C93B091A9
:1045F000C20FC090C30FBC1107C0A091B90FB091FA
:10460000BA0F6C916F7D6C93A091B70FB091B80FFA
:10461000D7CE5C9155FF77CF4FB7F894A091BD0FDF
:10462000B091BE0FDC92A091B70FB091B80F9C91E2
:10463000937090649C934FBF319654CF708175FFF7
:10464000F0CB3FB7F894E091BD0FF091BE0F3082F0
:10465000E091B70FF091B80F708173707064708340
:104660003FBFCECB6C9165FF1FCCA091C30FB0E0D4
:10467000AC5FBF4E9C916091C30F70E06F5F7F4F46
:104680006F7377276093C30FA091BD0FB091BE0FDA
:104690009C93A091B70FB091B80F1C911370106448
:1046A0001C93B091C20F2090C30FB21107C0A0910C
:1046B000B90FB091BA0F0C910F7D0C93A091B70F69
:1046C000B091B80FF1CBDC90D5FEE2CB3FB7F894B8
:1046D000A091BD0FB091BE0F4C93A091B70FB091B8
:1046E000B80F7C91737070647C933FBF3196F3CBAD
:1046F0001A3008F065CB3DEF232E30E1332E0AC08F
:1047000087EA9FE00F94B57FFFEF2F1A3F0A892BAE
:1047100009F456CBF10164916111F2CF51CBF9E06C
:10472000FD1508F48AC90DEF10E109C087EA9FE082
:104730000F94B57F0F5F1F4F892B09F47EC9F801D5
:1047400064916111F3CF79C9959587956FC932014D
:1047500095E4690E711CE5E54E0E511C05CB6230E7
:1047600079F59C012B5D3F4F4396F2013396FEA3F2
:10477000EDA344E050E05BA74AA70CEF1FEF18A79A
:104780000FA3F1E0F9A72FC99C012B593F4FCF96FA
:104790008201015011091EA30DA368E070E07BA700
:1047A0006AA7A8EFBFEFB8A7AFA3B1E0B9A71BC92D
:1047B000320139E2630E711C45E3440E511CD4CA28
:1047C00092012F5B3F4FC2018596B2016F5F7F4F11
:1047D0007EA36DA3A6E0B0E0BBA7AAA7EAEFFFEF18
:1047E000F8A7EFA351E059A7FEC8F53009F7320149
:1047F000FBEF6F1AFEEF7F0A2BED421A2EEF520AE3
:10480000B3CAAD960FB6F894DEBF0FBECDBFDF9131
:10481000CF911F910F91FF90EF90DF90CF90BF90BD
:10482000AF909F908F907F906F905F904F903F9050
:104830002F9008956F927F928F929F92AF92BF9226
:10484000CF92DF92EF92FF921F93CF93DF93CDB77A
:10485000DEB7A1970FB6F894DEBF0FBECDBF3B0108
:104860008617970709F49BC07C018AE0882E912C5B
:10487000A12CB12C11E0F70121917F0130E050E033
:1048800040E019A2CE0181966C01CA01B901A501CF
:1048900094010F9420B7605DF60162936F012115BA
:1048A00031054105510589F73097E9F10190002064
:1048B000E9F7AF01F601415051094E175F0799F131
:1048C00091911093BF0F2091C20FD090C30FA09170
:1048D000B70FB091B80F2D1509F4DDC02091C20FAC
:1048E00030E02F5F3F4F2F733327822F03C00FB667
:1048F00007FEA0C06091C30F8617C9F3A091C20F35
:10490000B0E0AC5FBF4E9C937FB7F8942093C20F8A
:10491000A091B90FB091BA0F9C9190629C937FBF08
:104920004E175F0769F6EBEFF0E14491442399F1EC
:104930001093BF0F5091C20F9091C30FA091B70F6A
:10494000B091B80F591709F4EBC02091C20F30E0B5
:104950002F5F3F4F2F733327D22E03C00FB607FEB2
:10496000AEC03091C30FD316C9F3A091C20FB0E00F
:10497000AC5FBF4E4C936FB7F8942093C20FA091D9
:10498000B90FB091BA0F7C9170627C936FBF319672
:1049900044914111CDCF6E147F0409F06CCFA9E78B
:1049A000B2E051E07D905093BF0F8090C20F909085
:1049B000C30FE091B70FF091B80F891409F4F6C056
:1049C0002091C20F30E02F5F3F4F2F733327B22E5D
:1049D00003C00FB607FEB9C0F090C30FBF14C9F3F0
:1049E000E091C20FF0E0EC5FFF4E7082DFB6F8940A
:1049F0002093C20FE091B90FF091BA0F608160620D
:104A00006083DFBEF2E0AB37BF0761F6A1960FB659
:104A1000F894DEBF0FBECDBFDF91CF911F91FF9005
:104A2000EF90DF90CF90BF90AF909F908F907F904E
:104A30006F900895CC90C5FE5DCFA091C30FB0E0FC
:104A4000AC5FBF4EDC906091C30F70E06F5F7F4F33
:104A50006F7377276093C30FA091BD0FB091BE0F06
:104A6000DC92A091B70FB091B80F3C9133703064D5
:104A70003C93B091C20F6091C30FB61307C0A091D1
:104A8000B90FB091BA0F7C917F7D7C93A091B70F45
:104A9000B091B80F2FCF3C9135FF20CF2FB7F894AE
:104AA000A091BD0FB091BE0F9C93A091B70FB09194
:104AB000B80F8C91837080648C932FBFFECE8C9145
:104AC00085FF4FCFA091C30FB0E0AC5FBF4E5C91AC
:104AD0006091C30F70E06F5F7F4F6F7377276093B4
:104AE000C30FA091BD0FB091BE0F5C93A091B70F03
:104AF000B091B80F9C91937090649C93B091C20F49
:104B0000C090C30FBC1107C0A091B90FB091BA0FEC
:104B10003C913F7D3C93A091B70FB091B80F21CF4E
:104B2000CC90C5FE12CF2FB7F894A091BD0FB091D5
:104B3000BE0F4C93A091B70FB091B80F4C9143703A
:104B400040644C932FBF319623CF708175FF44CFC3
:104B5000E091C30FF0E0EC5FFF4E80816091C30FE6
:104B600070E06F5F7F4F6F7377276093C30FE091A3
:104B7000BD0FF091BE0F8083E091B70FF091B80F99
:104B80009081937090649083F091C20FC090C30F96
:104B9000FC1107C0E091B90FF091BA0F30813F7D51
:104BA0003083E091B70FF091B80F16CFA080A5FE2B
:104BB00007CF2FB7F894E091BD0FF091BE0F708230
:104BC000E091B70FF091B80F40814370406440838B
:104BD0002FBF18CF8091C00F2091C10F90E0805C53
:104BE0009F4F821B91098F739927892B19F00F947E
:104BF000AE80F0CF0895CF93DF93EC0181E08093F6
:104C0000010ECE010E94B513D0939602C093950277
:104C1000BE0190E080E00F9486819C019093940205
:104C200080939302249691E0C217D30709F490E091
:104C30009093010EDF91CF910895DF92EF92FF9252
:104C40000F931F93CF93DF938C01EB018091200290
:104C5000882321F01092200210921E1FD090B81EBF
:104C600030910A1F20910A1F8D2D90E0919581951A
:104C70009109832780789927822780930A1F1092B1
:104C8000020ED12CED2CF12CEC16FD0658F4C701C8
:104C9000800F911F0E94239EF701EE5FF14F8183E9
:104CA000D394F0CF1091581F177F1093581FDF91A6
:104CB000CF911F910F91FF90EF90DF900895DC014D
:104CC000FB012481358186819781280F391FE3817B
:104CD000E03110F00F9448B9F0E08827ED58F94D15
:104CE0008F4F0D94AFB7B726CE26DC26EB26FA26DB
:104CF0000827162735275F279E27AC27CA27EB27CB
:104D00001528832692262032314008F021C245EA38
:104D100057E111965C934E9355E012965C9312976F
:104D20006EE046C12035310508F42AC22F3F310517
:104D300011F008F072C28FE89BE011969C938E935D
:104D400012961C921297FFE01396FC93139760E55E
:104D500070E015967C936E93149720EB30E01796D5
:104D60003C932E93169718961C92189715C011967F
:104D70001C921E9212961C92129713961C921397D5
:104D800015961C921E92149717961C921E921697B7
:104D900073E018967C931897CD010895203831055B
:104DA00008F0E6C12FE73DE011963C932E93129652
:104DB0001C92129791E047C02032314008F0C0C1E8
:104DC000EAE7FBE11196FC93EE9335E012963C93F3
:104DD000129762E0EDC02032314008F099C12CEE0C
:104DE00038E111963C932E9375E012967C931297BE
:104DF00063E0DEC02038310508F082C18FE39DE119
:104E000011969C938E9312961C92129794E01BC05D
:104E10002032314008F06CC1EEE5F6E11196FC93CA
:104E2000EE9365E012966C931297C2C0203831055C
:104E300008F03CC147EB5FE111965C934E931296EC
:104E40001C92129796E013969C93139715961C92BA
:104E50001E92149740E850E017965C934E93169775
:104E600018961C921897CD0108952035310508F445
:104E7000C9C1203A310508F405C2203F310508F0C8
:104E800027C227EF35E111963C932E93F3E012965B
:104E9000FC93129757E013965C93139740EA50E007
:104EA00015965C934E931497E0E5F0E01796FC930B
:104EB000EE93169771E018967C9318976DCF203378
:104EC000310508F484C12036310508F4E6C12039E3
:104ED000310508F42FC2203C310508F448C2203FB8
:104EE000310508F461C2203281E0380708F479C244
:104EF000203581E0380708F491C22038314008F0AD
:104F0000AAC2ECEDF1E11196FC93EE9351E01296FA
:104F10005C93129778E013967C93139720E531E029
:104F200015963C932E93149780E390E017969C93EC
:104F30008E93169718965C9318972ECF203C3105C8
:104F400008F0CEC08FEB9CE011969C938E93129646
:104F50001C92129779E00DC0203C310508F08DC0FD
:104F6000E8EFFDE11196FC93EE9312961C921297D6
:104F70007AE013967C93139715961C921E921497C1
:104F800040EC50E017965C934E93169718961C923F
:104F9000189702CF2032314008F055C063E37AE120
:104FA00011967C936E9335E012963C9312976BE0CA
:104FB00013966C93139715961C921E92149780E289
:104FC00091E017969C938E931697F1E01896FC93B8
:104FD0001897CD0108952035310508F4EDC0203A29
:104FE000310508F433C1283B310508F08AC145EB8F
:104FF00051E111965C934E9332E012963C931297D6
:105000005CE013965C93139760EA70E015967C93CE
:105010006E931497E8E1F0E01796FC93EE931697E1
:1050200071E018967C931897B7CE2038310508F0B8
:1050300097C0EFE3FCE01196FC93EE9312961C925E
:1050400012979DE000CF11961C921E9212961C9210
:1050500012973BE013963C93139740E251E015966C
:105060005C934E93149717965C934E93169793E028
:1050700018969C931897CD01089511961C921E9234
:1050800012961C9212975AE013965C93139720EC99
:1050900030E015963C932E93149717963C932E93DD
:1050A000169793E018969C93189776CE11961C92BB
:1050B0001E9212961C92129776E013967C93139789
:1050C00060E870E015967C936E93149717967C9326
:1050D0006E93169753E018965C931897CD01089538
:1050E00011961C921E9212961C92129759E0CCCFE8
:1050F00011961C921E9212961C92129735E0AACF1E
:1051000011961C921E9212961C92129774E0D5CFA3
:1051100011961C921E9212961C92129753E01396AF
:105120005C93139760E271E015967C936E931497ED
:1051300017967C936E93169718965C9318972CCEBF
:1051400011961C921E9212961C92129732E082CFF8
:1051500011961C921E9212961C9212973EE07ACFE4
:1051600011961C921E9212961C9212977DE0A5CF6A
:1051700011961C921E9212961C92129771E09DCF6E
:1051800049E255E111965C934E9353E012965C937D
:1051900012977FE013967C93139715961C921E929C
:1051A0001497E0E5F0E01796FC93EE93169791E0E4
:1051B00018969C931897F0CD84EF93E111969C93E9
:1051C0008E9343E012964C9312977CE0E3CF41EB31
:1051D00053E111965C934E9371E012967C93129773
:1051E00098E013969C93139715961C921E92149711
:1051F000E0E3F0E01796FC93EE93169718967C93F5
:105200001897CACD20E935E111963C932E93F3E02F
:105210001296FC93129777E0BDCF11961C921E92C6
:1052200012961C9212979FE013969C931397E0E0BE
:10523000F1E01596FC93EE9314971796FC93EE937A
:10524000169733E018963C931897A6CD2BE534E1DA
:1052500011963C932E9393E012969C931297FCE048
:105260001396FC93139760E570E015967C936E930C
:10527000149717967C936E93169731E018963C938B
:1052800018978ACD82EC94E111969C938E9393E0CB
:1052900012969C931297F7E0E3CF6EE673E11196B6
:1052A0007C936E93F1E01296FC93129758E013965C
:1052B0005C93139720E330E015963C932E9314975C
:1052C00017963C932E9316971896FC93189764CDD7
:1052D00011961C921E9212961C92129737E013960A
:1052E0003C93139780EF90E015969C938E931497C0
:1052F00017969C938E93169763E018966C93189765
:105300004BCD11961C921E9212961C921297FCE0A5
:105310001396FC93139728EB30E015963C932E934D
:10532000149717963C932E93169783E018968C93B8
:10533000189732CD4BE253E111965C934E9371E096
:1053400012967C93129738E013963C931397E0E6FD
:10535000F0E01596FC93EE93149780E390E0179697
:105360009C938E93169718967C93189715CD88EE7C
:1053700092E111969C938E9351E012965C93129752
:1053800098E013969C93139760E970E015967C93D0
:105390006E93149720E330E017963C932E93169764
:1053A00018965C931897F8CC45EA52E111965C93F5
:1053B0004E9371E012967C931297F8E01396FC934B
:1053C000139720EC30E015963C932E931497E0E36E
:1053D000F0E01796FC93EE93169718967C93189727
:1053E000DBCCE2E6F2E11196FC93EE9351E01296EB
:1053F0005C93129738E013963C93139780EF90E0FC
:1054000015969C938E93149760E370E017967C93A7
:105410006E93169718965C931897BECC4FE152E1A5
:1054200011965C934E93F1E01296FC93129798E0DC
:1054300013969C93139760E271E015967C936E939C
:10544000149720E330E017963C932E931697189606
:10545000FC931897A1CC11961C921E9212961C9246
:105460001297F8E01396FC93139760E871E0159695
:105470007C936E93149717967C936E93169733E0F4
:1054800018963C93189788CCDC01603110F00F948B
:1054900048B9E62FF0E08827EF5AF54D8F4F0D946D
:1054A000AFB79B2AB12ACC2AD72AE22AEC2AF62ABD
:1054B000002B0B2B262B412B4B2B562B612B612AC0
:1054C0007E2A85EA97E111969C938E9325E01296A9
:1054D0002C9312973EE013963C93139715961C92CB
:1054E0001E92149720E231E017963C932E93169764
:1054F00051E018965C931897CD010895E9E2F5E123
:105500001196FC93EE9373E012967C9312979FE0B2
:1055100013969C93139715961C921E92149780E5F0
:1055200090E017969C938E931697F1E01896FC9353
:105530001897CD01089511961C921E9212961C92F6
:10554000129713961C92139715961C921E921497FD
:1055500017961C921E92169733E018963C93189754
:10556000CBCF4FE75DE011965C934E9312961C9261
:10557000129751E013965C93139715961C921E9206
:10558000149760E870E017967C936E9316971896C0
:105590001C921897CD0108958AE79BE111969C9380
:1055A0008E93F5E01296FC93129732E094CFECEED6
:1055B000F8E11196FC93EE9395E012969C93129766
:1055C00033E089CF6FE37DE111967C936E93129661
:1055D0001C92129754E0CECF4EE556E111965C93A3
:1055E0004E9335E012963C93129775CF27EB3FE12F
:1055F00011963C932E9312961C92129756E0BACFB6
:1056000080E995E111969C938E9373E012967C93BA
:10561000129797E07DCF61EB73E111967C936E93C7
:1056200051E012965C93129738E013963C931397CF
:1056300015961C921E921497E0E3F0E01796FC93E7
:10564000EE93169718965C93189756CF2FEB3CE085
:1056500011963C932E9312961C921297F9E0139692
:10566000FC93139715961C921E92149740EC50E0F1
:1056700017965C934E93169718961C921897CD0127
:10568000089588EF9DE111969C938E9312961C923B
:105690001297FAE0E4CFE3E3FAE11196FC93EE937C
:1056A00095E012969C9312973BE015CF64EF73E15F
:1056B00011967C936E9373E012967C9312979CE004
:1056C00027CF4FE35CE011965C934E9312961C92A9
:1056D00012975DE04FCF2F923F924F925F926F9261
:1056E0007F928F929F92AF92BF92CF92DF92EF9272
:1056F000FF920F931F93CF93DF93CDB7DEB7C654BE
:10570000D1090FB6F894DEBF0FBECDBF27968FAF7D
:105710002797682FCE0181960E94442A89A581305F
:1057200009F4BEC408F49DC0823009F0C5C60FA1BB
:1057300018A51982412C512C32010115110509F4CB
:10574000A2C0D801A770BB27109709F44CC0A130A4
:10575000B105E1F1A230B10581F1A330B10521F12C
:10576000A430B105C1F0A530B10561F0169709F07C
:1057700091C6BE016F5F7F4FCE01C6960F945381D5
:1057800001501109BE016F5F7F4FCE01C6960F9485
:10579000538101501109BE016F5F7F4FCE01C69644
:1057A0000F94538101501109BE016F5F7F4FCE01ED
:1057B000C6960F94538101501109BE016F5F7F4F50
:1057C000CE01C6960F94538101501109BE016F5F3F
:1057D0007F4FCE01C6960F9453812B013C0101509F
:1057E000110909F450C0BE016F5F7F4FCE01C6960C
:1057F0000F945381BE016F5F7F4FCE01C6960F9409
:105800005381BE016F5F7F4FCE01C6960F945381C7
:10581000BE016F5F7F4FCE01C6960F945381BE01CC
:105820006F5F7F4FCE01C6960F945381BE016F5FAD
:105830007F4FCE01C6960F945381BE016F5F7F4F9D
:10584000CE01C6960F945381BE016F5F7F4FCE018C
:10585000C6960F9453812B013C010850110919F68B
:1058600012C069A17AA14FA158A58FEF9FEFDC016B
:105870008EAB9FABA8AFB9AF20E0CE01C6960F9418
:10588000753E2B013C01BE016F5D7F4FCE01CA9674
:105890000E945F26FE01FA96DE01919659E0019082
:1058A0000D925A95E1F7B9A5B33009F4A1C0FE01F4
:1058B00031967F01B13009F46DC108F45FC1B23097
:1058C00009F0FAC50FA118A51982412C512C3201FB
:1058D0000115110509F478C0C80187709927009750
:1058E00009F445C081309105C1F18230910571F113
:1058F0008330910521F184309105D1F085309105F7
:1059000081F0069739F0B701CE01C6960F94538106
:1059100001501109B701CE01C6960F945381015071
:105920001109B701CE01C6960F9453810150110998
:10593000B701CE01C6960F94538101501109B701EA
:10594000CE01C6960F94538101501109B701CE01C3
:10595000C6960F94538101501109B701CE01C69626
:105960000F9453812B013C010150110969F1B701DA
:10597000CE01C6960F945381B701CE01C6960F94FF
:105980005381B701CE01C6960F945381B701CE0162
:10599000C6960F945381B701CE01C6960F945381DA
:1059A000B701CE01C6960F945381B701CE01C696BA
:1059B0000F945381B701CE01C6960F9453812B01EA
:1059C0003C010850110999F6BE016F5D7F4FCE0171
:1059D000CA960E945F26FE01FA96DE01919619E0B2
:1059E00001900D921A95E1F7B9A5B33009F062CF95
:1059F0002796EFAD2797F0E0EE0FFF1FE85FFE4E12
:105A000005911491EFA0F8A40E191F091982011530
:105A1000110509F493C02801E1E04E1A5108C801AC
:105A200087709927009709F44CC081309105E1F106
:105A30008230910581F18330910521F18430910507
:105A4000C1F08530910561F0069709F085C4BE016B
:105A50006F5F7F4FCE01C6960F945381015011099D
:105A6000BE016F5F7F4FCE01C6960F9453810150E8
:105A70001109BE016F5F7F4FCE01C6960F9453810F
:105A800001501109BE016F5F7F4FCE01C6960F9482
:105A9000538101501109BE016F5F7F4FCE01C69641
:105AA0000F94538101501109BE016F5F7F4FCE01EA
:105AB000C6960F9453812B013C010150110909F442
:105AC0003DC0BE016F5F7F4FCE01C6960F945381DC
:105AD000BE016F5F7F4FCE01C6960F945381BE010A
