:100000000C94920C0D9477890D944C890D94218950
:100010000D94F6880D94CB880D94A0880D94758866
:100020000D944A880C94C30C0C94C30C0C94C30C10
:100030000C94C30C0C94C30C0C94C30C0D94074C7F
:100040000C94C30C0C942B710C940F6F0C94B8D5BA
:100050000C94C30C0C94C30C0C94C30C0D94D48757
:100060000C94C30C0D94AA3A0D946A3A0C94C30CE8
:100070000C94C30C0C94C30C0C94C30C0C94C30CC4
:100080000D94DA780D9460780D94E6770C94C30C97
:100090000C94C30C0C94C30C0C94C30C0C94C30CA4
:1000A0000C94C30C0C94C30C0D94C0730D946C771A
:1000B0000D94D5720C94C30C0C94C30C0D948176E2
:1000C0000D9496750D94AB740C94C30C0C94C30CE6
:1000D0000C94C30C0C94C30C0D94333A0D94F33967
:1000E0000C94C30C0C94F8CE0C94A2900C94F79042
:1000F0000C940E210C9447940D94E47F0C944E9430
:100100000C9421940C9457910D9475560C946E9404
:100110000C94D2930D94B81C0C94A38D0C940F9155
:100120000D940F1C0C9463940C9421810D94361C37
:100130000C944E930C9436490C942B0F0D94B139BA
:100140000C94C1910C9475840D9474170C946B18D5
:100150000C9446FF0D94F6100D9481310C94BAFB6B
:100160000C94511B0D94E5390C94FA920C94009266
:100170000C946D150D947E710D94E02F0D94B71BAA
:100180000C948D930D94F4380C9464530C946693F2
:100190000D9429680C9475930C94DD910C94B00E19
:1001A0000C9427910C94E9B10C9431520C941513D2
:1001B0000C947B930D9437040C94F2800C9475ADE1
:1001C0000D9402010D9463690D949E1E0D94B25816
:1001D0000D94741E0C94D28F0C9448930C9433930A
:1001E0000D94C3680D94E7390C94471A0C94009150
:1001F0000C940C930C94908B0C9496900C9422A7D6
:100200000C948A900C9440260C9468900D94A93913
:100210000C94C3930D94FA550C9460930C94E59050
:100220000C94D5920C947C250C94C4820D94B9380E
:100230000C942D930C945D910C94AC840C944F977A
:100240000C948A9C0D941B090C94FA900C94B4960F
:100250000C94F1920D94BF3F0C9463910D943E88E1
:100260000C94EEAE0C94DB920C940D830C946F9373
:100270000D94D1390C94D6900C947DDE0D94651EAE
:100280000C9406930D94AE370C94C6440D945710FD
:100290000D94D53F0C9425520C94C2990D946C1E6C
:1002A0000C9480940C94FECD0C9485B20D94A139DD
:1002B0000C9471160D943C880D94B73F0C94C01C9F
:1002C0000C9469910D947B0D0D94C9390C94ECF943
:1002D0000D94D2040C94A5900C943E940C943391FC
:1002E0000C9457940C94A8930C9430910C94B545AD
:1002F0000C94E68B0C9453A30C9418A30C94D292F8
:100300000D9418180C9465900D942D800D94BC7F5D
:100310000C94B1B10C94C4900C9426DE0D94C01CC6
:100320000C940C840C9403910C94B1860C946393FC
:100330000C9436910D94AA560D94971D0C9416D1D9
:100340000C947ADB0C9447AB0C944D880D948BA3E2
:100350000D9448170D94EB390C9417840C94389431
:100360000D94621B0C94538B0D9442880D94F07A7B
:100370000D9431880D94D47F0D94AD1B0C94BB92D9
:100380000C94E2900D94D90C0C94F5830C9446D007
:100390000D942F1C0D9489580D94161C0C94788D77
:1003A0000C9496DA0C9474900C942C0F0C94B190DD
:1003B0000D943A170C94A4A00C9483830C94E9BC7C
:1003C0000D94B6090D9425800D94A87B0C94DD83C3
:1003D0000C9445930D94DC380D940F570C94C18503
:1003E0000D9457170D94B3380C941B910C942A94C8
:1003F0000D9474710C9436930D9406020D94F87A52
:100400000C9400F90C94CF920C94E3930C94C99340
:100410000C946B900D9404320D94A6000C94BB9137
:100420000D94E11C0D94431C0D9462020C9405D4B0
:100430000D94C3890C9454940C949C900D9448880A
:100440000C948C810D944D800C9418910C94629EA8
:100450000C940C910D940B060C945D930C9402DE9D
:100460000C9490930C94C88C0C944B1F0D94CF3F1C
:100470000C942E520C9499900D94F41B0C948A9326
:100480000C945D840D94EA1A0C94E88C0C946C9393
:100490000C94E6B60D948E710C9487900C94188988
:1004A0000D94C53F0C94C08B0C9469160D94FE7A84
:1004B0000D9441800C94B5910D94E2690C94749163
:1004C0000C94FA250C943F930C9443260C9454916D
:1004D0000D94B11C0C94D4910C9463A90D944E1BF3
:1004E0000C94B0910C946F840C9487930D94A13864
:1004F0000C94CA900D94A9060D94227B0D94107B48
:100500000C94EB150C9486DE0C94C7900C94F99126
:100510000C946E8C0C94C50C0C94A1820C94C9D3D1
:100520000C9499930C944B910D9466170D94335839
:100530000C9477940C94D5270C941E930C94719082
:100540000C941A920C9415930C9474940C945493E8
:100550000C94B6870D9457180D9413580C94B588C5
:100560000D9486310D949B380C94D4B10C949F90CB
:100570000D9452000D94AD380D94547F0D94FB38BA
:100580000C9493930C94D38B0D942AA40D948071A6
:100590000D94A5390C9484930C94D98B0D94DC7F25
:1005A0000C944E910D949A680C948EF80C9449B06A
:1005B0000C9489940C94853B0C9441D40D94096956
:1005C0000C94EE920C94EE900C949B820C94BB25B0
:1005D0000D94F47A0C941AFB0C94218A0D94DE1D70
:1005E0000C946C840D94C33F0C94DE920C9482D0D6
:1005F0000C94FD900D94E1390C94DFD90C94D892B1
:100600000D94171E0D94C93F0C94C3810C94913E18
:100610000C94CC920C94F0D70D948C710C94FE93A6
:100620000D94DD390C94001F0C94CD8B0D947671D4
:100630000C94D8930D94B2010C944F510C94BD506E
:100640000D94D33F0D94491C0D9417800C9478841D
:100650000D9445110C942D940D94347B0D94231717
:100660000D9402390C948D900C9451170C94D791E1
:100670000D94BD390C943C930D94287B0C949D8B68
:100680000D94CC7F0C947D940C949F930D94827F59
:100690000C94A7170C94F2BA0C94B6D40C94CF9384
:1006A0000D94771B0C94AF8B0C94BDB20C948E827E
:1006B0000C94CF820C9417920C94F3890D94448877
:1006C0000D94D5380D942E1E0C94BE900D94FE16EC
:1006D0000C94A5930D94BB3F0C9442DF0D94E2382B
:1006E0000C94A8900C94D1910D947C710C9444942A
:1006F0000C94BB900D94C21B0D9478710D94113124
:100700000C94BD930C943F910C9414920C94188A01
:100710000D94EA7A0C9445910C94F7930D945E1E17
:100720000D946C1B0D9439800C949E460C940F9381
:100730000C9422840C948D190C94B68F0C94D9903F
:100740000C94BE910C94BAFA0C943C910D94581BE5
:100750000C94D5930C94C4CE0D9459310C940393FE
:100760000D94AA1C0C945FFB0D94EF160C940DB124
:100770000D9409390D94167B0C9447530C942A91CF
:100780000D94431B0C9494CD0D9444580C949F915C
:100790000C94BE920C9407980C9478830C94C69396
:1007A0000C945F900C94EC8B0C94E9910C94DAC24D
:1007B0000C9484900C9439910C9462900D948271F5
:1007C0000C94748C0C94EB920D94CBA30C94C7CF27
:1007D0000C94A9B60C94688C0C94A28B0C94DE93A8
:1007E0000C9434520C9490900C949E820C9472CF82
:1007F0000D94C1390C9441940C9416130C94B1933C
:100800000C946F910C94ADA50D942E7B0D94271C28
:100810000C9410D90C9409930C942B520C94888747
:100820000C9421930D94D13F0D942E680C94971342
:100830000D9444070C94B4930C94F4920C94A68DEC
:100840000C94CD120D94DFA40D94C7890C943384BD
:100850000C94F4900C94EC150C9428C00C945A93BE
:100860000C94F5DD0C94D0900D94A1580C94F59156
:100870000C94738B0C942E850D9406800D94D939AD
:100880000C94CE910C94E9800C94CD900C945191E1
:100890000C94F7920C9464A90C94CB910C9427932C
:1008A0000C9423920D947A2F0C94AB900D943D1ED2
:1008B0000D94CE380C94198C0D94EE380C94429310
:1008C0000D94E2070D94B93F0D941F0E0C9418D2AD
:1008D0000C94C0930C9409910D9488710C945EB69D
:1008E0000C94E6910D94CB3F0C94791C0C94EDD1B3
:1008F0000D9490710C943B940C947E900D945B80BD
:100900000C94E6930C94F1900D94C0380D94FC1D5A
:100910000D940A7B0D9490560D94930B0C94301209
:100920000C94F2AF0D94C7380D9415A50D94C47FA7
:100930000C94BB8C0D9410390C94AB930D941C7BD0
:100940000C941DD50D94291C0C9481930C9442D1C8
:100950000C9493900C94A4820C94BAA80C94B9D1E2
:100960000C9465840D9456010C94A2930C945D94A0
:100970000D94FC700D94381B0C94D4800D94E838C1
:100980000C9418830D948B310D94650F0C946FB2F9
:100990000C94F2910D943A7B0D94CD3F0C942AB8AF
:1009A0000C9478930C9462A90D945B560C9442912C
:1009B0000C94E3A70D94A6100D946E7F0C94DA911D
:1009C0000C948D910C9410940C9460940C94E615F6
:1009D0000D9440560D9486710C9403920C94EB1F69
:1009E0000C946A940C9435940D94FE370C947DD439
:1009F0000C9424CD0C94B9810D9407100C940A43E7
:100A00000D941E560D94E4110C9438850D94CD1B55
:100A10000C9448910D943C1C0D9484710D947C3180
:100A20000C94BFCD0C9430930C94F7470C9495D351
:100A30000C9451940C947D4D0D94CD890D94408867
:100A40000D94D5390C9496940C94087C0C9471D226
:100A50000D9434120C948C820D94921B0C9430B231
:100A60000C949FB20C94DF900C9424910C9471948C
:100A70000D9481180C9459900C9439930D94A738C7
:100A80000D94C73F0D9423580D94CD1A0C948C38B7
:100A90000D94350C0C94F28B0C942D840C9468D529
:100AA0000C94DC900C9403D30D94CF890D94763084
:100AB0000C94A2FF0C94250D0D94CD390C946091EB
:100AC0000C945A940C9468B40D94B9390C94069112
:100AD0000D94A1300C9418930C94EF910C94E89021
:100AE0000D940A180D94DA950D946FA40C94EFAE42
:100AF0000C94C1920C94DDDA0C9414130C942C9287
:100B00000C9477910D9482170D94237F0C9481900F
:100B10000D94A1170C94AE930D94EF7A0C94981346
:100B20000C94AF0E0D94437F0D94C5390C949C9397
:100B30000C9428520D948A710C94B24C0C941E9112
:100B40000C94AEB10D94BD3F0C9400840D94361EF0
:100B50000D946F1C0C94CC930C945D110C94D39059
:100B60000C9412910C9467100C946E900D94071BCA
:100B70000C9466910C94E8A90C94269E0C94628CBB
:100B80000C9496930C9472930D94CB890D9402312E
:100B90000C94D78C0C9481DA0D94DD300C948B9CE2
:100BA0000D94111E0C944B930C94F7890C94E391C3
:100BB0000C94B7930C94A38C0C94DD500C94EB9094
:100BC0000C9401820D94FF020C94B7190C94F6FF5B
:100BD0000D941F1E0C946C150C94E7D40C948BB6DA
:100BE0000C94A7850C949F3A0C94E8920C947790FF
:100BF0000D94A57F0C942CC90C94C1900C9458A70B
:100C00000C9472840C947A8C0C9412930D94EF399A
:100C10000C9427940C94C5C90C945A8B0C94F3A390
:100C20000D94C13F0C942D910D94D91D0C945C90A2
:100C30000D948A310C94A1140D94C10E0C94AE90B5
:100C40000C9486910C94EC910D94047B0C9400937D
:100C50000C9451930C94F2FE0D9470050C947B90BF
:100C60000C94ACC10C942A930C9457930C94E4927A
:100C70000C9424930C94D7B10D9495110D94EE30EF
:100C80000D94540A0D947D080C9490CE0C94D210BF
:100C90000C94BB0D0C945FCE0C94C7920C94A40FD3
:100CA0000D947A710D94C9890C941B300C9452F8F0
:100CB0000C9415910C947E930C94FD910D9429380D
:100CC0000D94388C0D94271E0C941B930C943F9C10
:100CD0000D94C5890D94C1370D941D1B0C94669419
:100CE0000D9499030C940A530D94CB170D94627FC5
:100CF0000C947A940D94407B0D94B5390C94E0914A
:100D00000C945A910C94FD920D9446880D943618CB
:100D10000C94A2140C9431120D94EF0A0D94767F6A
:100D20000D94AD390C94BA930C9432940C944E1DDE
:100D30000C9400810C942D150D942CA30C94E1922D
:100D40000C9421910C946993526573657420636FC0
:100D50006E74726F6C2069732063757272656E7445
:100D60006C792064697361626C65642E00436F6DF9
:100D70006D732068616C7465642E204E65787420F4
:100D8000627974652077696C6C2072657365742074
:100D90007468652041726475696E6F2E000053702F
:100DA00065656475696E6F20323032352E30312EB4
:100DB0003200737065656475696E6F20323032354C
:100DC000303100000030303200FF0A50616765208A
:100DD000686173206E6F74206265656E20696D7046
:100DE0006C656D656E74656420796574000A426F88
:100DF0006F7374206C6F6F6B7570207461626C65BB
:100E0000000A326E642049676E6974696F6E204D06
:100E10006170000A326E64204675656C204D617009
:100E2000000A50616765203920436667000A5472E2
:100E3000696D2031205461626C65000A5656542059
:100E40004D6170000A426F6F7374204D6170000A2B
:100E50005067203620436F6E666967000A4146522C
:100E6000204D6170000A5067203420436667000AF5
:100E700049676E6974696F6E204D6170000A506732
:100E8000203220436667000A5645204D6170000AF3
:100E90003D3D3D436F6D6D616E642048656C703DF6
:100EA0003D3D0A0A416C6C20636F6D6D616E647329
:100EB000206172652073696E676C6520636861727A
:100EC000616374657220616E642061726520636F76
:100ED0006E636174656E61746564207769746820FF
:100EE000746865697220706172616D657465727392
:100EF000200A776974686F75742073706163657315
:100F00002E53796E7461783A20203C636F6D6D6169
:100F10006E643E2B3C706172616D65746572313E2A
:100F20002B3C706172616D65746572323E2B3C7052
:100F30006172616D657465724E3E0A0A3D3D3D4CBD
:100F4000697374206F6620436F6D6D616E64733DCD
:100F50003D3D0A0A41202D20446973706C6179730C
:100F6000203331206279746573206F662063757257
:100F700072656E745374617475732076616C7565F7
:100F80007320696E2062696E61727920286C6976BF
:100F9000652064617461290A42202D204275726EB9
:100FA0002063757272656E74206D617020616E646D
:100FB00020636F6E666967506167652076616C7546
:100FC000657320746F20656570726F6D0A43202D04
:100FD000205465737420434F4D20706F72742E201F
:100FE00020557365642062792054756E6572737440
:100FF0007564696F20746F20736565207768657408
:1010000068657220616E20454355206973206F6EBC
:10101000206120676976656E2073657269616C2056
:101020000A20202020706F72742E20526574757211
:101030006E7320612062696E617279206E756D62D7
:1010400065722E0A4E202D205072696E74206E65D6
:1010500077206C696E652E0A50202D205365742010
:1010600063757272656E7420706167652E202053FF
:10107000796E7461783A2020502B3C706167654E20
:10108000756D6265723E0A52202D2053616D652098
:101090006173204120636F6D6D616E640A53202D72
:1010A00020446973706C6179207369676E6174752F
:1010B0007265206E756D6265720A51202D20536134
:1010C0006D65206173205320636F6D6D616E640ADE
:1010D00056202D20446973706C6179206D617020F9
:1010E0006F7220636F6E6669675061676520766115
:1010F0006C75657320696E2062696E6172790A573A
:10110000202D20536574206F6E65206279746520F0
:10111000696E206D6170206F7220636F6E66696703
:10112000506167652E202045787065637473206276
:10113000696E61727920706172616D657465727338
:101140002E200A2020202053796E7461783A2020C6
:10115000572B3C6F66667365743E2B3C6E657762F9
:101160007974653E0A74202D205365742063616C88
:101170006962726174696F6E2076616C7565732E39
:101180002020457870656374732062696E6172799E
:1011900020706172616D65746572732E20205461D8
:1011A000626C6520696E6465782069732065697476
:1011B00068657220302C200A20202020312C206FDE
:1011C0007220322E202053796E7461783A20207478
:1011D0002B3C74626C655F6964783E2B3C6E65776E
:1011E00056616C7565313E2B3C6E657756616C754A
:1011F00065323E2B3C6E657756616C75654E3E0AD6
:101200005A202D20446973706C61792063616C6988
:1012100062726174696F6E2076616C7565730A54D1
:10122000202D20446973706C61797320323536202B
:10123000746F6F7468206C6F6720656E7472696577
:101240007320696E2062696E6172790A72202D20A6
:10125000446973706C6179732032353620746F6F16
:101260007468206C6F6720656E74726965730A55C7
:10127000202D205072657061726520666F72206645
:1012800069726D77617265207570646174652E2076
:10129000546865206E657874206279746520726583
:1012A0006365697665642077696C6C20636175732A
:1012B00065207468652041726475696E6F20746F73
:1012C0002072657365742E0A3F202D204469737067
:1012D0006C61797320746869732068656C70207024
:1012E000616765002C2000575545004F3200496E5C
:1012F0006C65742074656D7000436F6F6C616E7403
:1013000000526573657420636F6E74726F6C206930
:10131000732063757272656E746C79206469736191
:10132000626C65642E00436F6D6D732068616C7430
:1013300065642E204E657874206279746520776923
:101340006C6C2072657365742074686520417264EA
:1013500075696E6F2E004552523B20496E636F7265
:101360007265637420454550524F4D2073697A650C
:1013700000303032002000200020002000202020FB
:101380002000537065656475696E6F2032303235A8
:101390002E30312E3200737065656475696E6F2072
:1013A00032303235303100537065656475696E6F67
:1013B0002063737830323031392E380000008000DD
:1013C00020012001800020018000F0008001C00089
:1013D000C0002001C000800020010001040E111691
:1013E0001A1C212A2C2E30323436383A3C3E4042E8
:1013F0004446484C4E505256585A5D5F63686F7968
:101400007D000020002300260029002C002F003240
:10141000000001000003010601090100000A0B029F
:10142000090C0D0E08070304010000000000000075
:1014300000000000000000000000000000000000AC
:101440000000000000000012111000000000000069
:10145000000000000000000000000000000000008C
:101460000000000000963007772C610EEEBA51099B
:101470009919C46D078FF46A7035A563E9A3956463
:101480009E3288DB0EA4B8DC791EE9D5E088D9D27B
:10149000972B4CB609BD7CB17E072DB8E7911DBFD7
:1014A000906410B71DF220B06A4871B9F3DE41BEF6
:1014B000847DD4DA1AEBE4DD6D51B5D4F4C785D35D
:1014C0008356986C13C0A86B647AF962FDECC96509
:1014D0008A4F5C0114D96C0663633D0FFAF50D0861
:1014E0008DC8206E3B5E10694CE44160D572716717
:1014F000A2D1E4033C47D4044BFD850DD26BB50A61
:10150000A5FAA8B5356C98B242D6C9BBDB40F9BC88
:10151000ACE36CD832755CDF45CF0DD6DC593DD1DC
:10152000ABAC30D9263A00DE518051D7C81661D015
:10153000BFB5F4B42123C4B3569995BACF0FA5BD56
:10154000B89EB802280888055FB2D90CC624E90BFA
:10155000B1877C6F2F114C6858AB1D61C13D2D6662
:10156000B69041DC760671DB01BC20D2982A10D5FA
:10157000EF8985B1711FB5B606A5E4BF9F33D4B816
:10158000E8A2C9077834F9000F8EA8099618980EBA
:10159000E1BB0D6A7F2D3D6D08976C6491015C6322
:1015A000E6F4516B6B62616C1CD83065854E00624D
:1015B000F2ED95066C7BA5011BC1F4088257C40FA0
:1015C000F5C6D9B06550E9B712EAB8BE8B7C88B9C8
:1015D000FCDF1DDD62492DDA15F37CD38C654CD41C
:1015E000FB5861B24DCE51B53A7400BCA3E230BB9A
:1015F000D441A5DF4AD795D83D6DC4D1A4FBF4D61C
:10160000D36AE96943FCD96E34468867ADD0B860C7
:10161000DA732D0444E51D03335F4C0AAAC97C0D1F
:10162000DD3C710550AA41022710100BBE86200C2C
:10163000C925B56857B3856F2009D466B99FE461A1
:10164000CE0EF9DE5E98C9D9292298D0B0B4A8D7B9
:10165000C7173DB359810DB42E3B5CBDB7AD6CBA15
:10166000C02083B8EDB6B3BF9A0CE2B6039AD2B1EC
:10167000743947D5EAAF77D29D1526DB048316DC93
:1016800073120B63E3843B64943E6A6D0DA85A6A3F
:101690007A0BCF0EE49DFF099327AE000AB19E0797
:1016A0007D44930FF0D2A3088768F2011EFEC206A4
:1016B000695D5762F7CB67658071366C19E7066B19
:1016C0006E761BD4FEE02BD3895A7ADA10CC4ADD31
:1016D000676FDFB9F9F9EFBE8E43BEB717D58EB08D
:1016E00060E8A3D6D67E93D1A1C4C2D83852F2DF27
:1016F0004FF167BBD16757BCA6DD06B53F4B36B28D
:1017000048DA2B0DD84C1B0AAFF64A0336607A0430
:1017100041C3EF60DF55DF67A8EF8E6E3179BE6998
:10172000468CB361CB1A8366BCA0D26F2536E268C3
:101730005295770CCC03470BBBB91602222F260516
:1017400055BE3BBAC5280BBDB2925AB42B046AB33E
:101750005CA7FFD7C231CFD0B58B9ED92C1DAEDE92
:101760005BB0C2649B26F263EC9CA36A750A936D1E
:1017700002A906099C3F360EEB85670772135700D6
:1017800005824ABF95147AB8E2AE2BB17B381BB6FE
:101790000C9B8ED2920DBED5E5B7EFDC7C21DFDB52
:1017A0000BD4D2D38642E2D4F1F8B3DD686E83DA8B
:1017B0001FCD16BE815B26B9F6E177B06F7747B7CC
:1017C00018E65A0888706A0FFFCA3B06665C0B0170
:1017D00011FF9E658F69AE62F8D3FF6B6145CF6CD8
:1017E0001678E20AA0EED20DD75483044EC2B3039A
:1017F00039612667A7F71660D04D476949DB776ED8
:101800003E4A6AD1AEDC5AD6D9660BDF40F03BD8EF
:101810003753AEBCA9C59EBBDE7FCFB247E9FFB54B
:10182000301CF2BDBD8AC2BACA3093B353A6A3B46A
:10183000240536D0BA9306D7CD2957DE54BF67D9D1
:10184000232E7A66B3B84A61C4021B685D942B6F7D
:101850002A37BE0BB4A18E0CC31BDF055A8DEF02D5
:101860002D00002200250028002B002E003100341E
:101870000002010000050108010B01000021002405
:101880000027002A002D0030003300010100000471
:101890000107010A010505050507050808080802F2
:1018A0000202020A0A0808040404040101010101F9
:1018B0000101010303030303030303040707070CE8
:1018C0000C0C0C0C0C0C0C0202020206060606069E
:1018D0000606060B0B0B0B0B0B0B0B01021020204B
:1018E0000808102040102040800201020108040274
:1018F00001010204081020408080402010080402EA
:101900000180040201804020100804020108040242
:101910000101020408102040800102040810204048
:101920008000600611241FBECFEFD1E2DEBFCDBF25
:1019300000E00CBF12E0A0E0B2E0E0E0F0E703E07E
:101940000BBF02C007900D92A637B107D9F72FE160
:10195000A6E7B2E001C01D92AF3AB207E1F71CE082
:10196000C2E9DCE000E006C021970109802FFE01FA
:101970000F9456B7C139D10780E00807A9F70F9433
:10198000F4900D94FEB70C94000080911F0B909181
:10199000200B2091A81C3091A91CAC014450510986
:1019A0002417350714F080539D4F821B930B97FD2E
:1019B0000196959587950497909398058093970540
:1019C000A0911D08B0911E08BD0164507109261731
:1019D000370714F0A053BD4FA21BB30BB7FD1196F0
:1019E000B595A7951497B0939605A0939505E091AA
:1019F0001B08F0911C08CF0104972817390714F031
:101A0000E053FD4FE21BF30BF7FD3196F595E7959B
:101A10003497F0939405E0939305A0911908B09141
:101A20001A08AD01445051092417350714F0A0538A
:101A3000BD4FA21BB30BB7FD1196B595A795149793
:101A4000B0937805A093770508958F929F92AF92F7
:101A5000BF92CF92DF92EF92FF920F931F93F89471
:101A60004091C10A5091C20A6091C30A7091C40AA0
:101A7000C090FC06D090FD06E090FE06F090FF06B8
:101A80008091FA069091FB06FFB7F8940091800DC3
:101A90001091810D2091820D3091830DE6B5A89BA8
:101AA00006C0EF3F21F00F5F1F4F2F4F3F4FFFBF8B
:101AB0008824902EA12EB22E8E0E911CA11CB11C3A
:101AC000880C991CAA1CBB1C880C991CAA1CBB1C4A
:101AD00080928F0590929005A0929105B092920508
:101AE00078940197880F991F2091A81C3091A91C08
:101AF000820F931F4A01052E000CAA08BB08009113
:101B00008F0510919005209191053091920508194B
:101B100019092A093B0900938B0510938C05209322
:101B20008D0530938E054C195D0957FF02C04F5F3C
:101B30005F4F55954795052E000C660B770B4017A8
:101B400051076207730708F40196803D22E092076F
:101B50006CF0805D92401F910F91FF90EF90DF90AD
:101B6000CF90BF90AF909F908F90089597FFF3CF45
:101B700088599E4FF0CF0F94AE8760937305709392
:101B80007405809375059093760580917305909107
:101B90007405A0917505B09176054091460A509163
:101BA000470A6091480A7091490A841B950BA60B5D
:101BB000B70B80937D0590937E05A0937F05B0932E
:101BC0008005209173053091740540917505509101
:101BD00076052093460A3093470A4093480A50936B
:101BE000490A6091AE1C562F5170A091430AB091E2
:101BF000440AAB2B51F1E091AE06F091AF06908113
:101C00003091AD06932371E049F17517F1F0209101
:101C1000FA063091FB064091430A5091440A241B76
:101C2000B091211EB0FD1EC04091480C407F403451
:101C300051F1403609F451C0403809F45DC020919B
:101C4000211E2E7F2093211E08958091FA069091E7
:101C5000FB069093440A8093430A089570E075133D
:101C6000D6CFF3CF67FF0895F091480CF07FF034A2
:101C7000D1F72F502330B8F780E190E09093FB0626
:101C80008093FA06089591EF920F9330D0F035EFDC
:101C9000320F333008F440C079EF720F733008F41C
:101CA00047C02350233008F04FC082E191E0909369
:101CB000FB068093FA064091211E41604093211E4D
:101CC0000895E0E1F0E0F093FB06E093FA069091CE
:101CD000211E91609093211E08952350233018F601
:101CE000ACE7B0E0B093FB06A093FA06E091211EAA
:101CF000E160E093211E08952650233008F0B3CF11
:101D000068E370E07093FB066093FA065091211E21
:101D100051605093211E0895A6E6B0E0B093FB06F3
:101D2000A093FA065091211E51605093211E0895F0
:101D30002CEB30E03093FB062093FA066091211ED5
:101D400061606093211E0895B091211EBE7FB09303
:101D5000211EF091C91EFF5FF093C91E08950895DA
:101D6000CF92DF92EF92FF92CF93DF93F894C091DE
:101D7000FA06D091FB06C090C10AD090C20AE0904A
:101D8000C30AF090C40A0F94AE8760938F057093D6
:101D9000900580939105909392057894209719F47B
:101DA000C091B71CD0E02091070730910807219718
:101DB000C29FC001C39F900DD29F900D11246091CE
:101DC000AC1C70E00F9480B6E091A81CF091A91CA7
:101DD000E60FF71F20918F053091900540919105F6
:101DE000509192052C193D094E095F0920938B05EE
:101DF00030938C0540938D0550938E05A0918905F5
:101E0000B0918A050F94F6B6DC01CB01905CAF4F20
:101E1000BF4F9D01990F221F331FA12DAA1FB12D66
:101E2000C9018E0F9F1F803D22E092074CF0805D1C
:101E30009240DF91CF91FF90EF90DF90CF90089587
:101E400097FFF7CF88599E4FDF91CF91FF90EF908A
:101E5000DF90CF9008950895CF92DF92EF92FF9296
:101E6000CF93DF938091211E80FD09C090E080E038
:101E7000DF91CF91FF90EF90DF90CF900895F8948D
:101E8000C091FA06D091FB06C090C10AD090C20A58
:101E9000E090C30AF090C40A0F94AE8760938F0558
:101EA0007093900580939105909392057894CC0F50
:101EB000DD1FC454D94FE881F9812091A81C3091CD
:101EC000A91CE20FF31F20918F05309190054091DE
:101ED0009105509192052C193D094E095F092093F7
:101EE0008B0530938C0540938D0550938E05A09102
:101EF0008905B0918A050F94F6B6DC01CB01905CA0
:101F0000AF4FBF4F9D01990F221F331FA12DAA1F55
:101F1000B12DC9018E0F9F1F803D22E092075CF416
:101F200097FFA6CF88599E4FDF91CF91FF90EF90FA
:101F3000DF90CF900895805D9240DF91CF91FF9028
:101F4000EF90DF90CF9008953FB7F8948091800D87
:101F50009091810DA091820DB091830D26B5A89B23
:101F600005C02F3F19F00196A11DB11D3FBF662787
:101F7000782F892F9A2F620F711D811D911D660F79
:101F8000771F881F991F660F771F881F991F6093FF
:101F90007305709374058093750590937605409151
:101FA0007D0550917E0560917F057091800540937D
:101FB000BA065093BB066093BC067093BD06809131
:101FC000730590917405A0917505B09176052091E7
:101FD000460A3091470A4091480A5091490A821BAB
:101FE000930BA40BB50B80937D0590937E05A09376
:101FF0007F05B093800560917305709174058091A1
:102000007505909176056093460A7093470A809310
:10201000480A9093490A5091211E50FD4BC0A0914F
:10202000430AB091440A129709F445C04CED55E0BB
:1020300060E070E04093010750930207609303074C
:10204000709304078091BA069091BB06A091BC06DC
:10205000B091BD06B695A7959795879580936B052A
:1020600090936C05A0936D05B0936E0520917D054E
:1020700030917E0540917F055091800560916B0500
:1020800070916C0580916D0590916E05261737074C
:102090004807590730F4E2E0F0E0F093440AE09397
:1020A000430A8091430A9091440A01969093440A0E
:1020B0008093430A0895A1E0B0E0B093FB06A0939B
:1020C000FA067091211E71607093211EEACF9091E3
:1020D000521E8091B41C8C718C3071F19A30BCF41A
:1020E0001916A4F421E030E0309398052093970569
:1020F00043E050E050939605409395053093940546
:10210000209393055093780540937705089564E0F4
:1021100070E07093980560939705A2E0B0E0B093EB
:102120009605A09395057093940560939305B093DD
:102130007805A093770508959A30DCF4191634F7E2
:10214000E1E0F0E0F0939805E093970583E090E0FC
:10215000909396058093950525E030E030939405A3
:102160002093930547E050E050937805409377051E
:10217000089568E070E07093980560939705A2E079
:10218000B0E0B0939605A0939505E4E0F0E0F093FD
:102190009405E093930586E090E090937805809312
:1021A00077050895EF92FF920F931F93F894E091B3
:1021B000FA06F091FB064091C10A5091C20A609163
:1021C000C30A7091C40A3FB7F8948091800D909132
:1021D000810DA091820DB091830D26B5A89B05C0FD
:1021E0002F3F19F00196A11DB11D3FBFBA2FA92F96
:1021F000982F8827820F911DA11DB11D880F991F4F
:10220000AA1FBB1F880F991FAA1FBB1F80938F0592
:1022100090939005A0939105B09392057894EE0F5A
:10222000FF1FE454F94F0190F081E02DE090A81CCD
:10223000F090A91CEE0DFF1D80918F0590919005E7
:10224000A0919105B09192057C018D01E41AF50AE7
:10225000060B170BA801970120938B0530938C0573
:1022600040938D0550938E05A0918905B0918A0504
:102270000F94F6B6DC01CB01905CAF4FBF4F9D01D0
:10228000990F221F331FA12DAA1FB12DC9018E0F37
:102290009F1F803D02E090073CF0805D92401F91BF
:1022A0000F91FF90EF90089597FFF9CF88599E4FB7
:1022B0001F910F91FF90EF9008953FB7F894809190
:1022C000800D9091810DA091820DB091830D26B566
:1022D000A89B05C02F3F19F00196A11DB11D3FBF5E
:1022E0006627782F892F9A2F620F711D811D911DEE
:1022F000660F771F881F991F660F771F881F991F0A
:1023000060937305709374058093750590937605BB
:102310008091730590917405A0917505B091760533
:102320004091460A5091470A6091480A7091490AC3
:10233000841B950BA60BB70B80937D0590937E05B0
:10234000A0937F05B09380055091711E51FD49C047
:102350007091211E70FF45C040917D0550917E0512
:1023600060917F05709180058091EE069091EF0657
:10237000A091F006B091F106481759076A077B074C
:1023800078F1609173057091740580917505909155
:1023900076056093460A7093470A8093480A9093A3
:1023A000490A20917D0530917E0540917F0550912D
:1023B00080052093BA063093BB064093BC06509329
:1023C000BD06A091430AB091440A1196B093440A05
:1023D000A093430AE091FA06F091FB06319771F061
:1023E00008952CED35E040E050E020930107309354
:1023F00002074093030750930407AECF4091730543
:102400005091740560917505709176058091C10AAF
:102410009091C20AA091C30AB091C40A841795078B
:10242000A607B707E8F68091730590917405A0910F
:102430007505B09176052091C10A3091C20A40918C
:10244000C30A5091C40A821B930BA40BB50B809353
:102450005E0590935F05A0936005B09361050895B4
:1024600008950F931F93CF93DF93F894C091FA06CA
:10247000D091FB060F94AE8760938F057093900503
:1024800080939105909392050091C10A1091C20A20
:102490002091C30A3091C40A601B710B820B930B0D
:1024A00060938B0570938C0580938D0590938E05BA
:1024B0007894E5EDF0E0CE30D10581F0EDE4F1E087
:1024C000C631D10559F080910707909108078C9F7C
:1024D000F0018D9FF00D9C9FF00D1124A0918905B6
:1024E000B0918A0520918B0530918C0540918D0526
:1024F00050918E050F94F6B6DC01CB01905CAF4F86
:10250000BF4F9D01990F221F331FA12DAA1FB12D6F
:10251000C9012091A81C3091A91C2E0F3F1F820FCA
:10252000931F803D22E09207BCF0805D9240A09115
:102530001602B091170260910E0270910F026A1795
:102540007B0734F16817790714F4861B970BDF912A
:10255000CF911F910F91089540911602509117024B
:1025600060910E0270910F026417750764F068178E
:1025700079075CF397FFEBCF88599E4FDF91CF919E
:102580001F910F910895BA01681779079CF7DDCF65
:10259000BD0168177907CCF2DACF0F932091DC0ADE
:1025A0003091DD0A4091DE0A5091DF0A2F3F8FEF14
:1025B00038074105510530F521153105E9F0C9010C
:1025C00096958795B0E0A0E09957AC46BC4FA2170E
:1025D000B30790F400E1880F991FAA1FBB1F18F0E2
:1025E000A217B30718F0A21BB30B81600A9599F7E5
:1025F000803526E4920720F08091221E9091231EC0
:102600000F910895CA01B9019695879577956795B9
:1026100079578C469C4F0F9409B7C901803526E441
:10262000920750F70F91089508950895CF92DF9281
:10263000EF92FF92CF93DF93F894C091FA06D09176
:10264000FB06C090C10AD090C20AE090C30AF09085
:10265000C40A0F94AE8760938F05709390058093A2
:1026600091059093920578948091070790910807BF
:10267000209709F042C03BE0389FF001399FF00DF0
:1026800011244091A81C5091A91CE40FF51F209122
:102690008F053091900540919105509192052C192C
:1026A0003D094E095F0920938B0530938C054093BB
:1026B0008D0550938E05A0918905B0918A050F94E0
:1026C000F6B6DC01CB01905CAF4FBF4F9D01990F77
:1026D000221F331FA12DAA1FB12DC9018E0F9F1FCD
:1026E000803D22E09207C4F0805D9240DF91CF915F
:1026F000FF90EF90DF90CF9008952197C89FF00151
:10270000C99FF00DD89FF00D11242091A81C309185
:10271000A91CE20FF31FBBCF97FFE8CF88599E4F4C
:10272000DF91CF91FF90EF90DF90CF9008950895C3
:102730008091810590918205A0918305B0918405D7
:102740008093BA069093BB06A093BC06B093BD06D7
:102750000F94AE87609385057093860580938705F7
:10276000909388058091850590918605A0918705B5
:10277000B09188054091C10A5091C20A6091C30A84
:102780007091C40A841B950BA60BB70B809381052F
:1027900090938205A0938305B0938405A091FA06D7
:1027A000B091FB061196B093FB06A093FA06209118
:1027B0002F0B206220932F0B6091FA067091FB067D
:1027C0006D30710509F45BC0E091FA06F091FB06EB
:1027D000319709F45DC08091BA069091BB06A09133
:1027E000BC06B091BD06B695A79597958795809341
:1027F0006B0590936C05A0936D05B0936E054091A9
:1028000081055091820560918305709184058091C6
:102810006B0590916C05A0916D05B0916E05481700
:1028200059076A077B0708F12091C10A3091C20A53
:102830004091C30A5091C40A2093FC063093FD06D0
:102840004093FE065093FF066091850570918605C2
:1028500080918705909188056093C10A7093C20AA0
:102860008093C30A9093C40A08951092FB061092B5
:10287000FA067091211E71607093211E08953091A7
:10288000211E30FFA1CF1092FB061092FA06089588
:102890005091211E50FF9FCF4091F6065091F706B0
:1028A0006091F8067091F9064093F2065093F30692
:1028B0006093F4067093F5068091850590918605E6
:1028C000A0918705B09188058093F6069093F7064E
:1028D000A093F806B093F90620918D1E30918E1EBC
:1028E00040918F1E5091901E2F5F3F4F4F4F5F4F73
:1028F00020938D1E30938E1E40938F1E5093901EFA
:102900006091C10A7091C20A8091C30A9091C40A71
:102910006093FC067093FD068093FE069093FF067D
:1029200040918505509186056091870570918805D5
:102930004093C10A5093C20A6093C30A7093C40AB9
:10294000089508958F929F92AF92BF92FF920F9336
:102950001F93CF93DF93F894C091FA06D091FB06B2
:102960008090C10A9090C20AA090C30AB090C40A95
:10297000F090B9060F94AE8760938F057093900521
:1029800080939105909392057894FE013197CD2B19
:1029900011F4ECE2F0E00091070710910807C091F4
:1029A000A81CD091A91C20918F05309190054091D1
:1029B000910550919205281939094A095B0920931C
:1029C0008B0530938C0540938D0550938E05A09117
:1029D0008905B0918A050F94F6B6DC01CB01905CB5
:1029E000AF4FBF4F9D01990F221F331FA12DAA1F6B
:1029F000B12DC9010E9F90010F9F300D1E9F300D0C
:102A00001124820F931F8C0F9D1FFF2011F08859F6
:102A10009E4F803D22E0920764F0805D9240DF91FE
:102A2000CF911F910F91FF90BF90AF909F908F908B
:102A3000089597FFF4CF4091160250911702A0908D
:102A40000E02B0900F02A416B5061CF08A0D9B1D55
:102A5000E6CF5A018A0D9B1DE2CF8091211E80FF97
:102A600020C02091AE1C27FD2CC040918D1E50919E
:102A70008E1E60918F1E7091901E44365105610527
:102A8000710558F46091FA067091FB066D3271057C
:102A900021F01092FB061092FA0691E09093B9068D
:102AA00008951092FB061092FA065091211E516073
:102AB0005093211E73E07093450A91E09093B906FC
:102AC00008951092FB061092FA0633E03093450AFF
:102AD00091E09093B90608950895CF92DF92EF9216
:102AE000FF92CF93DF93F894C091FA06D091FB0642
:102AF000C090C10AD090C20AE090C30AF090C40A04
:102B00000F94AE8760938F05709390058093910525
:102B10009093920578948091FA069091FB06892B08
:102B200009F03CC0E091A81CF091A91CEE58FF4FA1
:102B300020918F053091900540919105509192051B
:102B40002C193D094E095F0920938B0530938C05A4
:102B500040938D0550938E05A0918905B0918A050B
:102B60000F94F6B6DC01CB01905CAF4FBF4F9D01D7
:102B7000990F221F331FA12DAA1FB12DC9018E0F3E
:102B80009F1F803D22E09207B4F0805D9240DF916C
:102B9000CF91FF90EF90DF90CF900895CC0FDD1F85
:102BA000C454D94FE881F9812091A81C3091A91C07
:102BB000E20FF31FBDCF97FFEACF88599E4FDF91F9
:102BC000CF91FF90EF90DF90CF9008951092FB0689
:102BD0001092FA0608950895CF92DF92EF92FF9235
:102BE0000F931F93CF93F8940091FA061091FB0670
:102BF000C090C10AD090C20AE090C30AF090C40A03
:102C0000C091B9060F94AE8760938F0570939005BD
:102C100080939105909392057894E091A81CF0918F
:102C2000A91C0115110571F0000F111FF801E454E2
:102C3000F94F0190F081E02D8091A81C9091A91C82
:102C4000E80FF91F20918F05309190054091910573
:102C5000509192052C193D094E095F0920938B056F
:102C600030938C0540938D0550938E05A091890576
:102C7000B0918A050F94F6B6DC01CB01905CAF4FA2
:102C8000BF4F9D01990F221F331FA12DAA1FB12DE8
:102C9000C9018E0F9F1FCC2311F088599E4F803D94
:102CA00022E0920754F0805D9240CF911F910F91E6
:102CB000FF90EF90DF90CF90089597FFF6CF88595F
:102CC0009E4FCF911F910F91FF90EF90DF90CF908B
:102CD00008951092FB061092FA0681E08093B906DF
:102CE00008958091FA069091FB06499709F4D3C0A4
:102CF0003FB7F8944091800D5091810D6091820D05
:102D00007091830D26B5A89B06C02F3F21F04F5F21
:102D10005F4F6F4F7F4F3FBF962F852F742F6627D2
:102D2000620F711D811D911D660F771F881F991FEE
:102D3000660F771F881F991F60938505709386051E
:102D400080938705909388058091850590918605ED
:102D5000A0918705B09188054091C10A5091C20A9F
:102D60006091C30A7091C40A841B950BA60BB70B24
:102D70008093810590938205A0938305B093840589
:102D8000A091FA06B091FB06AB2BC9F1E091FA06CF
:102D9000F091FB063196F093FB06E093FA06A091C2
:102DA000FA06B091FB06E091FA06F091FB06AA0F35
:102DB000BB1FA454B94FEE0FFF1FE654F94F6D919E
:102DC0007C9120813181621B730B709308076093A3
:102DD0000707B0912F0BB062B0932F0B8091850540
:102DE00090918605A0918705B09188058093C10ACE
:102DF0009093C20AA093C30AB093C40A089581E0D5
:102E000090E09093FB068093FA064091F60650916D
:102E1000F7066091F8067091F9064093F206509318
:102E2000F3066093F4067093F50660918505709142
:102E3000860580918705909188056093F6067093CA
:102E4000F7068093F8069093F9065091B90691E041
:102E500059275093B9067091211E71607093211EFD
:102E600020918D1E30918E1E40918F1E5091901E8C
:102E70002F5F3F4F4F4F5F4F20938D1E30938E1E1D
:102E800040938F1E5093901EAFE0B0E0B0930807C0
:102E9000A09307079ECFF091211EFE7FF093211E85
:102EA00008958091480C807F8034F1F08036D9F409
:102EB0002091B41C2C712C3089F146E050E05093E5
:102EC00098054093970562E070E0709396056093D3
:102ED0009505A4E0B0E0B0939405A093930570939A
:102EE00078056093770508953091B41C3C713C30AF
:102EF000A9F0E4E0F0E0F0939805E093970582E014
:102F000090E09093960580939505F0939405E09357
:102F100093059093780580937705089528E030E035
:102F2000309398052093970542E050E05093960522
:102F30004093950564E070E0709394056093930569
:102F4000A6E0B0E0B0937805A093770508958F923E
:102F50009F92AF92BF92CF92DF92EF92FF920F9328
:102F60001F93CF93DF938091211E80FD0FC090E0CF
:102F700080E0DF91CF911F910F91FF90EF90DF9054
:102F8000CF90BF90AF909F908F900895F894E0916C
:102F9000FA06F091FB064091C10A5091C20A609175
:102FA000C30A7091C40A3FB7F8948091800D909144
:102FB000810DA091820DB091830D26B5A89B05C00F
:102FC0002F3F19F00196A11DB11D3FBF8824982EF7
:102FD000A92EBA2E820E911CA11CB11C880C991C22
:102FE000AA1CBB1C880C991CAA1CBB1C80928F05B8
:102FF00090929005A0929105B09292057894EE0F70
:10300000FF1FE454F94FC081D181A090A81CB0905B
:10301000A91CCA0DDB1D80918F0590919005A09190
:103020009105B09192057C018D01E41AF50A060B19
:10303000170BA801970120938B0530938C054093C3
:103040008D0550938E05F89490902F0B96FE2EC010
:10305000C090C10AD090C20AE090C30AF090C40A9E
:103060008090FC069090FD06A090FE06B090FF06B2
:10307000A0910707B091080778940F94F6B6A701BE
:103080009601281939094A095B090F9409B7C90142
:103090008C0F9D1F803D02E090072CF497FF69CFB5
:1030A00088599E4F66CF805D924063CF7894A091FF
:1030B0008905B0918A050F94F6B6DC01CB01905CCE
:1030C000AF4FBF4F9D01990F221F331FA12DAA1F84
:1030D000B12DC901DDCF8091211E3FB7F8948091B9
:1030E000800D9091810DA091820DB091830D26B538
:1030F000A89B05C02F3F19F00196A11DB11D3FBF30
:103100006627782F892F9A2F620F711D811D911DBF
:10311000660F771F881F991F660F771F881F991FDB
:10312000609373057093740580937505909376058D
:103130008091730590917405A0917505B091760505
:103140004091460A5091470A6091480A7091490A95
:10315000841B950BA60BB70B80937D0590937E0582
:10316000A0937F05B093800520917D0530917E0569
:1031700040917F05509180056091EE067091EF06B9
:103180008091F0069091F1062617370748075907F6
:1031900008F473C08091730590917405A091750532
:1031A000B09176058093460A9093470AA093480A07
:1031B000B093490A50912F0B506250932F0B4091BE
:1031C0007D0550917E0560917F0570918005769513
:1031D0006795579547954093EE065093EF06609399
:1031E000F0067093F1067091211E70FD32C02CED37
:1031F00035E040E050E02093010730930207409310
:103200000307509304076091EE067091EF068091DA
:10321000F0069091F106969587957795679560935E
:10322000EE067093EF068093F0069093F106E0911E
:10323000B106F091B2069081A091B006B091480C11
:10324000B07F9A2301F1B03409F459C0B03609F4C3
:103250004DC06091221E7091231EE091B91EF09125
:10326000BA1E6E177F0750F45091211E50FF05C003
:103270007091480C707F7034A1F008953091AE1CAD
:1032800037FDF2CF0895B03421F78091FA0690917E
:10329000FB060597F1F6F091211EF160F093211ED7
:1032A000D8CF0F94AE878091560590915705A09185
:1032B0005805B0915905E091B106F091B206A08190
:1032C0009091B006A923C9F28091FA069091FB066D
:1032D00088309105E9F0B091211EBE7FB093211E88
:1032E0004091C91E4F5F4093C91E08954091FA0650
:1032F0005091FB064730510509F0ABCFCCCF209160
:10330000FA063091FB062830310509F0A2CFC3CF71
:103310009093FB068093FA0608958091521E8231A5
:103320009CF026E030E0309398052093970541E02B
:1033300050E0509396054093950564E070E07093DB
:103340009405609393050895A7E0B0E0B0939805C5
:10335000A0939705E2E0F0E0F0939605E0939505E1
:1033600085E090E090939405809393050895CF9223
:10337000DF92EF92FF92CF93DF93F894C091FA0619
:10338000D091FB06C090C10AD090C20AE090C30A57
:10339000F090C40A0F94AE8760938F0570939005E8
:1033A00080939105909392057894C330D1050CF0E9
:1033B00049C020910707309108072197C29FA001BB
:1033C000C39F500DD29F500D1124E091A81CF09185
:1033D000A91CBA96E40FF51F20918F053091900536
:1033E00040919105509192052C193D094E095F09B4
:1033F00020938B0530938C0540938D0550938E055B
:10340000A0918905B0918A050F94F6B6DC01CB0135
:10341000905CAF4FBF4F9D01990F221F331FA12D0D
:10342000AA1FB12DC9018E0F9F1F803D22E0920778
:103430001CF1805D9240DF91CF91FF90EF90DF9083
:10344000CF900895E0E7F0E0C330D10509F4C4CF90
:1034500080910707909108072297C89FB001C99FE4
:10346000700DD89F700D1124E091A81CF091A91C3B
:10347000BA96E60FF71FB0CF97FFDDCF88599E4F62
:10348000DF91CF91FF90EF90DF90CF9008958091E2
:103490001F0B9091200B2091A81C3091A91C821B1E
:1034A000930B40910E0250910F0297FD77C0481781
:1034B0005907DCF13091480C32953F703430E9F116
:1034C000353008F44BC0363009F44AC0383009F0C2
:1034D000A2C0BC016B5571096A35710508F482C040
:1034E000DC01A55BB109AA35B10508F4A8C00197B4
:1034F0008E30914008F0BCC0E1E0F0E0F093980518
:10350000E093970582E090E090939605809395056F
:1035100023E030E0309394052093930544E050E09D
:1035200050937805409377050895841B950B30914F
:10353000480C32953F70343019F60197843B910561
:1035400080F162E070E07093980560939705A1E0C8
:10355000B0E0B0939605A09395050895333071F5CA
:10356000BC01695771096837710548F10197803FBF
:10357000910508F451C023E030E030939805209382
:10358000970541E050E0509396054093950562E021
:1035900070E070939405609393050895840F951FD0
:1035A00089CF21E030E0309398052093970542E0E1
:1035B00050E0509396054093950508950895A2E034
:1035C000B0E0B0939805A0939705E3E0F0E0F093A6
:1035D0009605E093950581E090E0909394058093A3
:1035E00093050895E2E0F0E0F0939805E0939705E5
:1035F00083E090E0909396058093950524E030E079
:10360000309394052093930541E050E05093780562
:103610004093770508950895A1E0B0E0B093980530
:10362000A0939705E2E0F0E0F0939605E09395050E
:1036300083E090E09093940580939305089523E0B0
:1036400030E0309398052093970544E050E0509384
:1036500096054093950561E070E070939405609342
:103660009305A2E0B0E0B0937805A09377050895A4
:1036700064E070E07093980560939705A1E0B0E076
:10368000B0939605A0939505E2E0F0E0F0939405E1
:10369000E093930583E090E090937805809377051D
:1036A00008958F929F92AF92BF92CF92DF92EF9246
:1036B000FF92CF93DF93F894C091FA06D091FB0666
:1036C000C090C10AD090C20AE090C30AF090C40A28
:1036D0000F94AE8760938F0570939005809391054A
:1036E0009093920578948091070790910807AE0116
:1036F00041505109489FE001499FD00D589FD00D7E
:1037000011248090A81C9090A91CC80DD91D20914F
:103710008F053091900540919105509192052C199B
:103720003D094E095F0920938B0530938C0540932A
:103730008D0550938E05F89490902F0B96FE43C004
:10374000C090C10AD090C20AE090C30AF090C40AA7
:103750008090FC069090FD06A090FE06B090FF06BB
:10376000A0910707B091080778940F94F6B6A701C7
:103770009601281939094A095B090F9409B7C9014B
:103780008C0F9D1F803D22E092076CF0805D92407F
:10379000DF91CF91FF90EF90DF90CF90BF90AF90EF
:1037A0009F908F90089597FFF3CFA0901602B0904E
:1037B000170240910E0250910F024A155B05C4F0AA
:1037C000840F951FE5CF7894A0918905B0918A0563
:1037D0000F94F6B6DC01CB01905CAF4FBF4F9D015B
:1037E000990F221F331FA12DAA1FB12DC901C8CFC8
:1037F000A501840F951FCCCFCF92DF92EF92FF925D
:10380000CF93462F2091A81C3091A91CFC01E21BEC
:10381000F30BC091680520916605309167055C2F18
:103820005F7121153105A9F52C2FCC0F330B220F19
:10383000232F221F330B8FEF9FEF052E02C0880F1F
:10384000991F0A94E2F780959095BF01770F660B58
:10385000762F862397238E0F9F1F02C095958795FD
:103860005A95E2F782279327821B930B2091B71C6E
:10387000240F3327331F181619069CF5281739070C
:1038800014F4821B930BCF91FF90EF90DF90CF90B9
:103890000895DF010F9477B76C01FF24D7FCF094F3
:1038A000EF2CC601C6FF0EC02C2FCC0F330B220FFE
:1038B000232F221F330BCF0182279327821B930BC9
:1038C0008C0D9D1D02C0959587955A95E2F797FD41
:1038D00001962091B71C240F3327331F18161906A1
:1038E0006CF2820F931FCF91FF90EF90DF90CF90FB
:1038F0000895CF938091B41C8C718C30D1F1C0E0CD
:103900006C2F80911F0B9091200B0E94FC1B9093B9
:103910009805809397056C2F80911D0890911E0843
:103920000E94FC1B90939605809395056C2F8091C7
:103930001B0890911C080E94FC1B90939405809397
:1039400093056C2F8091190890911A080E94FC1B16
:1039500090937805809377056C2F8091070890915C
:1039600008080E94FC1B90936A0580936905CF911B
:1039700008952091AD1CC091B71C21FFC1CFBFCFCE
:103980008F929F92AF92BF92FF920F931F93CF930C
:10399000DF93F894C091FA06D091FB068090C10A9B
:1039A0009090C20AA090C30AB090C40AF090B906E1
:1039B0000F94AE8760938F05709390058093910567
:1039C000909392057894209719F4C091B71CD0E099
:1039D0000091070710910807E091A81CF091A91C1D
:1039E00020918F053091900540919105509192055D
:1039F000281939094A095B0920938B0530938C05F6
:103A000040938D0550938E05A0918905B0918A054C
:103A10000F94F6B6705C8F4F9F4F9C01770F221F5B
:103A2000331F812D881F912DB9012197C09FC0019F
:103A3000C19F900DD09F900D11246E0F7F1F860F98
:103A4000971FFF2021F02091AD1C21FF20C0803D59
:103A500022E0920764F0805D9240DF91CF911F9148
:103A60000F91FF90BF90AF909F908F90089597FF18
:103A7000F4CF4091160250911702A0900E02B09020
:103A80000F02A416B50634F08A0D9B1DE6CF8859A7
:103A90009E4FDDCF5A018A0D9B1DDFCFCF92DF9263
:103AA000EF92FF92CF93DF933FB7F8948091800D10
:103AB0009091810DA091820DB091830D26B5A89BA8
:103AC00005C02F3F19F00196A11DB11D3FBFCC24A9
:103AD000D82EE92EFA2EC20ED11CE11CF11CCC0C02
:103AE000DD1CEE1CFF1CCC0CDD1CEE1CFF1CC09270
:103AF0007305D0927405E0927505F0927605809179
:103B0000730590917405A0917505B091760540916B
:103B1000460A5091470A6091480A7091490A841BED
:103B2000950BA60BB70B80937D0590937E05A09314
:103B30007F05B093800520917D0530917E054091F1
:103B40007F05509180056091EE067091EF0680919F
:103B5000F0069091F106261737074807590708F431
:103B600064C08091730590917405A0917505B09122
:103B700076058093460A9093470AA093480AB0932B
:103B8000490A40917D0550917E0560917F057091B5
:103B900080057695679557954795769567955795DE
:103BA00047954093EE065093EF066093F0067093AE
:103BB000F106D090211ED0FE53C020918D1E309171
:103BC0008E1E40918F1E5091901E8091B31C90E0EC
:103BD000B0E0A0E082179307A407B50708F040C043
:103BE0008091B71C90E0E090FA06F090FB068E15ED
:103BF0009F0591F040918D1E50918E1E60918F1EF9
:103C00007091901E433051056105710528F0509167
:103C1000C91E5F5F5093C91EF090AE1CF7FE58C0DE
:103C20009093FB068093FA0653C0C090DC0AD090B4
:103C3000DD0AE090DE0AF090DF0AF694E794D7946C
:103C4000C794C092EE06D092EF06E092F006F09292
:103C5000F106DF91CF91FF90EF90DF90CF90089524
:103C60000F94AE876093C10A7093C20A8093C30A0F
:103C70009093C40A0F94AE876B017C01C091B71C6E
:103C80002C2F30E050E040E060E87DE88BE590E0EC
:103C90000F9409B7C21AD30AE40AF50AC092FC06C7
:103CA000D092FD06E092FE06F092FF06D0E0D0939F
:103CB000FB06C093FA0610920107109202071092B9
:103CC0000307109204077091211E71607093211EEA
:103CD00091E09093B906DF91CF91FF90EF90DF9044
:103CE000CF900895CF92DF92EF92FF92CF93462F1D
:103CF0002091A81C3091A91CFC01E21BF30BC09180
:103D0000680520916605309167055C2F5F7121156C
:103D1000310509F04CC08C2FCC0F990B880F892FDF
:103D2000881F990B2FEF3FEF052E02C0220F331F84
:103D30000A94E2F720953095BF01770F660B762F36
:103D4000262337232E0F3F1F02C0359527955A95FE
:103D5000E2F728273927281B390B6091B71C6D30F3
:103D600010F02150310970E0842F90E06B01C80EF3
:103D7000D91E121613060CF040C0C216D306D4F199
:103D8000E0900507F0900607E216F30620F46217AC
:103D9000730708F097018E0D9F1D2817390708F447
:103DA000C901CF91FF90EF90DF90CF900895DF0190
:103DB0000F9477B76C01FF24D7FCF094EF2C960199
:103DC000C6FF0EC08C2FCC0F990B880F892F881F30
:103DD000990B9F0128273927281B390B2C0D3D1DD6
:103DE00002C0359527955A95E2F7832F880F211D3C
:103DF000311DB3CF2C193D09C3CF2C0D3D1DC0CFB4
:103E0000CF938091B41C84718430D1F1C0E06C2FC9
:103E100080911F0B9091200B0E94721E9093980529
:103E2000809397056C2F80911D0890911E080E9429
:103E3000721E90939605809395056C2F80911B08B8
:103E400090911C080E94721E909394058093930594
:103E50006C2F8091190890911A080E94721E9093FD
:103E60007805809377056C2F80910708909108085A
:103E70000E94721E90936A0580936905CF91089500
:103E80002091AD1C21FDC2CF3091480CC091B71CD0
:103E900032FFBDCFBBCFCF92DF92EF92FF92F8946B
:103EA0002091FA063091FB069091B906C090C10AA4
:103EB000D090C20AE090C30AF090C40A789440916E
:103EC00007075091080721503109249FF001259FD1
:103ED000F00D349FF00D11246091A81C7091A91C65
:103EE000E60FF71F992321F08091AD1C81FF6CC074
:103EF0003FB7F8944091800D5091810D6091820DF3
:103F00007091830DA6B5A89B06C0AF3F21F04F5F0F
:103F10005F4F6F4F7F4F3FBF2227342F452F562FC4
:103F20002A0F311D411D511D220F331F441F551FE4
:103F3000220F331F441F551F20938F053093900588
:103F400040939105509392052C193D094E095F0944
:103F500020938B0530938C0540938D0550938E05EF
:103F6000A0918905B0918A050F94F6B6DC01CB01CA
:103F7000905CAF4FBF4F9D01990F221F331FA12DA2
:103F8000AA1FB12DC9018E0F9F1F803D22E092070D
:103F90003CF0805D9240FF90EF90DF90CF900895CD
:103FA00097FFF9CFE0901602F090170240910E02B1
:103FB00050910F024E155F0554F0840F951FFF902E
:103FC000EF90DF90CF900895E859FE4F91CFA70171
:103FD000840F951FF4CFCF92DF92EF92FF920F9450
:103FE000AE8760934E0570934F0580935005909374
:103FF000510580914E0590914F05A0915005B091CB
:10400000510540914A0550914B0560914C057091C6
:104010004D05841B950BA60BB70B809379059093E8
:104020007A05A0937B05B0937C05C0904A05D0909B
:104030004B05E0904C05F0904D05CD28CE28CF28BB
:10404000C1F41092790510927A0510927B051092B6
:104050007C0520914E0530914F05409150055091BF
:10406000510520934A0530934B0540934C055093DE
:104070004D054091790550917A0560917B057091CD
:104080007C058091460590914705A0914805B09127
:104090004905481759076A077B0708F4BAC0A09179
:1040A0004405B09145051196B0934505A09344058C
:1040B0006091790570917A0580917B0590917C05DE
:1040C0009695879577956795969587957795679552
:1040D0006093460570934705809348059093490582
:1040E000E0911202F09113021995AC01893621E09A
:1040F00092070CF443C09C0129563140A3E8BDE26D
:104100000F942BB70024880F991F001C880F991F4C
:10411000001C892F902D87709927485651404936A9
:1041200021E052075CF1009719F181309105D1F03F
:1041300082309105A9F08330910581F0843091059A
:1041400059F08530910531F0069711F048565140ED
:1041500048565140485651404856514048565140A3
:104160004856514048565140493681E0580734F08E
:1041700040545B40493681E05807D4F7E090A81CD2
:10418000F090A91C4E195F0930911E1F3370323018
:1041900031F4C090211DD090221D4C195D09E09191
:1041A000241D9A01220F331FF0E0A0E0B1E0AE1B06
:1041B000BF0B0F9477B76B017C01A091E11EB0910A
:1041C000E21E9F010F947FB7C60ED71EE81EF91E90
:1041D000F7FE05C02FEFC20ED11CE11CF11C992780
:1041E000F7FC9A958F2D7E2D6D2D7093E21E6093B6
:1041F000E11E20914E0530914F05409150055091A0
:10420000510520934A0530934B0540934C0550933C
:104210004D05FF90EF90DF90CF900895CF92DF9201
:10422000EF92FF923FB7F8948091800D9091810DAD
:10423000A091820DB091830D26B5A89B05C02F3F9C
:1042400019F00196A11DB11D3FBFCC24D82EE92E37
:10425000FA2EC20ED11CE11CF11CCC0CDD1CEE1C94
:10426000FF1CCC0CDD1CEE1CFF1CC0927305D09211
:104270007405E0927505F092760580917305909132
:104280007405A0917505B09176054091460A50914C
:10429000470A6091480A7091490A841B950BA60B46
:1042A000B70B80937D0590937E05A0937F05B09317
:1042B00080056091460A7091470A8091480A909162
:1042C000490A672B682B692BC1F410927D05109267
:1042D0007E0510927F051092800520917305309124
:1042E000740540917505509176052093460A3093E8
:1042F000470A4093480A5093490AC0907D05D090E0
:104300007E05E0907F05F09080058091EE0690910B
:10431000EF06A091F006B091F106C816D906EA069C
:10432000FB0608F445C05091B01C5F77513009F48A
:1043300044C008F4AAC1523009F439C1543041F5DF
:10434000A091430AB091440A1196B093440AA093F5
:10435000430AE091430AF091440A329709F431C2CA
:10436000C0907D05D0907E05E0907F05F09080059F
:10437000F694E794D794C794F694E794D794C794A7
:10438000C092EE06D092EF06E092F006F092F106AF
:104390004091730550917405609175057091760593
:1043A0004093460A5093470A6093480A7093490A1B
:1043B000FF90EF90DF90CF9008958091460A909102
:1043C000470AA091480AB091490A209162053091AC
:1043D00063054091640550916505821B930BA40B06
:1043E000B50BAC01BD01440F551F661F771F840F2D
:1043F000951FA61FB71FB695A7959795879580938C
:104400006F0590937005A0937105B093720560914C
:10441000460A7091470A8091480A9091490A609330
:104420006205709363058093640590936505C09061
:104430007D05D0907E05E0907F05F090800580910D
:104440006F0590917005A0917105B0917205C81625
:10445000D906EA06FB0638F4A091430AB091440A53
:10446000149708F48CC181E090E09093440A809303
:10447000430A8093B9061092EE061092EF0610924E
:10448000F0061092F106D090181FD5FE81CFE09073
:10449000B906EE2009F47CCFE0911202F0911302EC
:1044A0001995AC01893621E092070CF443C09C01B8
:1044B00029563140A3E8BDE20F942BB70024880FA2
:1044C000991F001C880F991F001C892F902D877041
:1044D000992748565140493621E052075CF1009730
:1044E00019F181309105D1F082309105A9F0833026
:1044F000910581F08430910559F08530910531F0B6
:10450000069711F048565140485651404856514080
:1045100048565140485651404856514048565140DF
:10452000493681E0580734F040545B40493681E019
:104530005807D4F76091A81C7091A91C461B570B13
:1045400090911E1F9370923031F4C090E31DD09073
:10455000E41D4C195D09F090241D9A01220F331FB0
:104560004F2D50E0A0E0B1E0A41BB50B0F9477B73E
:104570006B017C01A091CE1EB091CF1E9A010F94C9
:104580007FB7C60ED71EE81EF91EF7FE05C02FEF37
:10459000C20ED11CE11CF11C9927F7FC9A958F2DB6
:1045A0007E2D6D2D7093CF1E6093CE1EF1CE809127
:1045B0007D0590917E05A0917F05B0918005B6950F
:1045C000A795979587958093EE069093EF06A09315
:1045D000F006B093F106B091181FB5FFD9CEF09157
:1045E000B906FF2309F4D4CEE0911202F091130230
:1045F0001995AC01493681E058070CF49BCF9A011C
:1046000029563140A3E8BDE20F942BB70024880F50
:10461000991F001C880F991F001C892F902D8770EF
:10462000992748565140493621E052070CF482CF71
:10463000009721F181309105D1F082309105A9F0E8
:104640008330910581F08430910559F085309105D2
:1046500031F0069711F0485651404856514048569F
:10466000514048565140485651404856514048568E
:104670005140493681E058070CF45CCF40545B4010
:10468000493681E05807D4F755CF31E03093B90669
:1046900040917D0550917E0560917F057091800568
:1046A00076956795579547954093EE065093EF069C
:1046B0006093F0067093F106A091430AB091440A0A
:1046C0001196B093440AA093430A5091181F55FFC6
:1046D0005FCE7091B906772309F45ACEE0911202A9
:1046E000F09113021995AC01493681E058070CF49A
:1046F00021CF9A0129563140A3E8BDE20F942BB790
:104700000024880F991F001C880F991F001C892FF7
:10471000902D8770992748565140493621E052071D
:104720000CF408CF009721F181309105D1F082304F
:104730009105A9F08330910581F08430910559F0FD
:104740008530910531F0069711F048565140485692
:10475000514048565140485651404856514048569D
:10476000514048565140493621E052070CF4E2CE00
:1047700040545B40493681E05807D4F7DBCE2091A6
:104780007D0530917E0540917F05509180055695BD
:1047900047953795279556954795379527952093B3
:1047A000EE063093EF064093F0065093F106E09149
:1047B000430AF091440A3196F093440AE093430A85
:1047C000E7CD71E07093B906D090181FD5FEC8CD23
:1047D000E090B906EE2009F4C3CDE0911202F09109
:1047E00013021995AC01493681E058070CF443C017
:1047F0009A0129563140A3E8BDE20F942BB700245B
:10480000880F991F001C880F991F001C892F902D5D
:104810008770992748565140493621E052075CF18C
:10482000009719F181309105D1F082309105A9F0FE
:104830008330910581F08430910559F085309105E0
:1048400031F0069711F048565140485651404856AD
:10485000514048565140485651404856514048569C
:104860005140493621E0520734F040545B4049360C
:1048700081E05807D4F76091A81C7091A91C461BD1
:10488000570B90911E1F9370923031F42091E31DCD
:104890003091E41D421B530BF090241D9A01220F0E
:1048A000331F4F2D50E0A0E0B1E0A41BB50B0F94D7
:1048B00077B76B017C01A091CE1EB091CF1E9A01FB
:1048C0000F947FB7C60ED71EE81EF91EF7FE05C06F
:1048D0002FEFC20ED11CE11CF11C9927F7FC9A9511
:1048E0008F2D7E2D6D2D7093CF1E6093CE1E38CDF3
:1048F0000F931F9320916C1E26FD21C00091CC1EAA
:10490000002301F141111BC0E091210CF091220C18
:10491000EE0FFF1FEE0FFF1FE85BFC4F60837183FC
:10492000828393832091210C3091220C2E37310504
:1049300008F453C0B0916C1EB064B0936C1E1F910C
:104940000F9108958091CD1E8823C9F3E091210C29
:10495000F091220CE753FD4F1082E091B106F091E7
:10496000B206A091AE06B091AF06843009F446C0FD
:1049700090811091B006912349F0E091210CF091C3
:10498000220CE753FD4F308131603083E091AB065C
:10499000F091AC06833009F496C05C916091AD064D
:1049A000562349F0A091210CB091220CA753BD4F82
:1049B0007C9172607C93B081F091AA06BF2349F08C
:1049C000E091210CF091220CE753FD4F30813460CF
:1049D0003083442309F44BC041C0A091210CB09115
:1049E000220C1196B093220CA093210CF0916C1E16
:1049F000FF7BF0936C1E1F910F9108955C91609165
:104A0000AD06562349F0A091210CB091220CA7537A
:104A1000BD4F7C9171607C93A091AB06B091AC06C8
:104A2000BC912091AA06B22349F0A091210CB0912B
:104A3000220CA753BD4F0C9102600C93F081809122
:104A4000B006F82349F0E091210CF091220CE753D5
:104A5000FD4F108114601083423049F4E091210C25
:104A6000F091220CE753FD4F4081486040839091C4
:104A7000211E90FF09C0E091210CF091220CE75318
:104A8000FD4F3081306130835091B906E091210CA7
:104A9000F091220CE753FD4F552351F17081706264
:104AA00070830091210C1091220C0F94AE87000F9F
:104AB000111F000F111FF801E85BFC4F6083718329
:104AC000828393832FCF20810091AA06202349F06F
:104AD000E091210CF091220CE753FD4F8081826020
:104AE00080831C919091AD06192309F472CF68CF91
:104AF00060816F7D6083D5CF80912F0B8F7D8093F8
:104B00002F0B20912F0B206220932F0B3091C10788
:104B10003330E1F0323081F0313029F4E091060297
:104B2000F091070219957091CD1E772321F0A09185
:104B30002F0BA5FD15C00895E091AB06F091AC06D2
:104B400040819091AA06492349F3EDCFE091AB064D
:104B5000F091AC0650816091AA065623F9F6E3CF96
:104B60006091790570917A0580917B0590917C0523
:104B700042E00C94782480912F0B8F7D80932F0B33
:104B800020912F0B206220932F0B3091C3073330DD
:104B9000E1F0323081F0313029F4E0910802F091F7
:104BA000090219957091CD1E772321F0A0912F0B4A
:104BB000A5FD15C00895E091AE06F091AF064081C5
:104BC0009091AD06492349F3EDCFE091AE06F09107
:104BD000AF0650816091AD065623F9F6E3CF6091A0
:104BE0007D0570917E0580917F059091800541E063
:104BF0000C94782480912F0B8F7D80932F0B209124
:104C0000BF07233099F12230A1F02130D9F4E0918F
:104C10000402F09105021995A091CC1EAA2321F05F
:104C2000B0912F0BB5FD17C0F091CD1EF11113C03F
:104C30000895E091B106F091B20630819091B006EE
:104C4000392329F36091CC1E662371F370912F0BE9
:104C500075FFEACF0895609181057091820580917A
:104C600083059091840540E00C947824E091B1068E
:104C7000F091B20640815091B006452341F6E2CF53
:104C800090E080E0089590E080E008950F931F93F6
:104C9000CF93DF9390916C1E96FF6CC004E000935D
:104CA000230CC82FD0E0CF3708F058C0A091A80639
:104CB000B091A9068E01000F111F000F111F085B94
:104CC0001C4FF8016081718182819381692F772760
:104CD00088279927ED91FC9111970190F081E02DA3
:104CE000CD011995A091A806B091A906F8012081DF
:104CF000318142815381BA0188279927ED91FC9136
:104D000011970190F081E02DCD011995A091A80691
:104D1000B091A906F8014081518162817381992780
:104D2000872F762F652FED91FC9111970190F081DF
:104D3000E02DCD011995A091A806B091A906F80122
:104D40006081718182819381ED91FC911197019035
:104D5000F081E02DCD0119952196A5CF10916C1E03
:104D60001F7B10936C1E1092230C1092220C109239
:104D7000210C12C0CCEFD1E08091A8069091A90639
:104D8000DC01ED91FC910190F081E02D60E019953E
:104D9000219791F71092230CDF91CF911F910F91E2
:104DA0000895EF92FF920F931F93CF93DF9340915B
:104DB0000002442321F0109200021092831EE09121
:104DC000211E50916D1EE0906D1E2E2F217030E03F
:104DD0003195219531092527207833272E252093D9
:104DE0006D1E1092A40D9B012C55324F7901C4EA1F
:104DF000DDE08C01045A1D40CE15DF0541F0C801ED
:104E00008C0F9D1F0E94239289832196F5CF80915C
:104E10006E1E877F80936E1EDF91CF911F910F9141
:104E2000FF90EF900895CF93C82F8091A80690919E
:104E3000A906DC01ED91FC910480F581E02D199526
:104E4000892B99F38091A8069091A906DC01ED9138
:104E5000FC910190F081E02D6C2FCF911994CF93AC
:104E6000C82F892F0E9413278C2FCF910C941327C2
:104E70008091A8069091A906DC01ED91FC91008437
:104E8000F185E02D19951816190664F48091A8068D
:104E90009091A906DC01ED91FC910284F385E02D4F
:104EA0001995E6CF08950F931F930F94D07D00912D
:104EB000AD021091AE022091AF023091B002601BA2
:104EC000710B820B930B21E06139714081059105D3
:104ED00008F420E0822F1F910F9108950F931F93E4
:104EE000CF93DF938C01EC01C60FD71FC017D107FA
:104EF000F1F00E94532781111AC08091A806909169
:104F0000A906DC01ED91FC910084F185E02D199555
:104F1000892B61F38091A8069091A906DC01ED919F
:104F2000FC910284F385E02D19958A93DFCFDF9100
:104F3000CF911F910F910895CF93DF9300D01F92CF
:104F4000CDB7DEB764E070E0CE0101960E946E2717
:104F50000E945327811105C069817A818B819C81D0
:104F600003C060E070E0CB010F900F900F900F90A6
:104F7000DF91CF910895CF93DF931F921F92CDB70A
:104F8000DEB762E070E0CE0101960E946E270E94BB
:104F90005327811103C089819A8102C090E080E08B
:104FA0000F900F90DF91CF9108953FB7F8948091C3
:104FB000800D9091810DA091820DB091830D26B549
:104FC000A89B05C02F3F19F00196A11DB11D3FBF41
:104FD0006627782F892F9A2F620F711D811D911DD1
:104FE000660F771F881F991F660F771F881F991FED
:104FF0006093850570938605809387059093880557
:105000008091850590918605A0918705B0918805CE
:105010004091C10A5091C20A6091C30A7091C40ABA
:10502000841B950BA60BB70B80938105909382058B
:10503000A0938305B093840520918105309182056A
:10504000409183055091840560910107709102079A
:1050500080910307909104072617370748075907DF
:1050600008F493C050912F0B506250932F0BA091D6
:10507000FA06B091FB061196B093FB06A093FA06D0
:10508000E091FA06F091FB06319709F47FC0809118
:10509000FA069091FB06059709F478C09091211EBD
:1050A00090FF73C0B091711EB1FF13C0F091B41C9A
:1050B000F7FF0FC0A091FA06B091FB06119709F413
:1050C000BBC0E091FA06F091FB06339711F40F9400
:1050D00002014091FA065091FB064130510509F456
:1050E00094C02091FA063091FB062330310509F473
:1050F0008CC06CE670E070930807609307074091DE
:105100008105509182056091830570918405DB01D2
:10511000CA01880F991FAA1FBB1F840F951FA61FC6
:10512000B71FB695A79597958795B695A795979527
:105130008795B695A7959795879580930107909346
:105140000207A0930307B09304072091C10A30918E
:10515000C20A4091C30A5091C40A2093FC063093BE
:10516000FD064093FE065093FF0660918505709101
:10517000860580918705909188056093C10A709398
:10518000C20A8093C30A9093C40A089541E050E094
:105190005093FB064093FA062091F6063091F706ED
:1051A0004091F8065091F9062093F2063093F306E9
:1051B0004093F4065093F50660918505709186053D
:1051C00080918705909188056093F6067093F706A5
:1051D0008093F8069093F9067091211E7160709388
:1051E000211E80918D1E90918E1EA0918F1EB091D8
:1051F000901E0196A11DB11D80938D1E90938E1E51
:10520000A0938F1EB093901E49CF88E490E09093B6
:1052100008078093070740918105509182056091AE
:1052200083057091840540930107509302076093B2
:1052300003077093040789CF0F94B2014ACFCF932D
:10524000C82F843690F469E773E18091A8069091A5
:10525000A9060F94A68BCA3040F467E773E18091EA
:10526000A8069091A9060F94A68B4C2F50E070E0F1
:1052700060E02AE08091A8069091A9060F942B8205
:105280006BE773E18091A8069091A906CF910D94E8
:10529000A68B0F931F93CF93DF93EC018B0180912B
:1052A000A8069091A906C017D10781F0499150E056
:1052B00070E060E02AE00F942B8265E773E1809153
:1052C000A8069091A9060F94A68BE9CFDF91CF9104
:1052D0001F910F910D94D1890F931F93CF93DF935B
:1052E000EC018B01C017D10741F069918091A806AC
:1052F0009091A9060F946C80F5CFDF91CF911F910B
:105300000F910895CF93DF93EC0181E08093230CFC
:10531000CE010E942F27D093AB02C093AA02BE01F8
:1053200090E080E00F94947E9C019093A90280937A
:10533000A802249691E0C217D30709F490E0909355
:10534000230CDF91CF910895CF92DF92EF92FF92DD
:105350000F931F93CF938091530D80739091B41C42
:1053600090FD1EC0803109F469C08032F1F43091A3
:10537000DB1E333009F429C108F4E7C0353009F4E5
:10538000D9C008F437C1363081F4F0905B0D78EC69
:10539000F79ED0011124B093961EA093951E05C0D0
:1053A000803159F0803209F487C0CF911F910F915D
:1053B000FF90EF90DF90CF9008951091DB1E133097
:1053C00009F4E8C008F498C0153009F4E0C008F406
:1053D000A1C0C0915B0D163041F7C090221ED09045
:1053E000231EE090321EF12CEE0CFF1C08E415E1A8
:1053F00028E335E148EF54E168E081EF94E10F9450
:105400008640C89F9001112436952795369527959B
:10541000ABE7B4E10F942BB796958795880F991F4A
:10542000880F991F811522E0920708F458C02FEFCA
:1054300031E03093921E2093911EB7CF3091DB1E46
:10544000333009F4AAC008F44FC0353009F49CC0C9
:1054500008F463C0C0915B0D363009F0A6CFC09050
:10546000221ED090231EE090321EF12CEE0CFF1C69
:1054700008E415E128E335E148EF54E168E081EF05
:1054800094E10F948640C89FA0011124440F551F3A
:10549000440F551F413127E2520710F040E157E217
:1054A0005093961E4093951ECF911F910F91FF90A0
:1054B000EF90DF90CF9008950091DB1E033009F448
:1054C0006FC008F452C0053059F108F49EC0063090
:1054D00009F06BCF80915B0D90E0880F991F90933E
:1054E000921E8093911E61CF313089F0C091570D8B
:1054F000323009F4B4CF59CF113031F0C091570D8B
:10550000123009F46ACF51CFC091560D66CFC091C9
:10551000560DA5CFC091590D60CFC091590D9FCFA9
:1055200080915A0D90E0880F991F9093921E80935E
:10553000911E3BCFF0915A0D98ECF99F80011124F8
:105540001093961E0093951E30CF313099F1323072
:1055500009F02BCFC090570D48ECC49E7001112468
:10556000F092961EE092951E20CF0130C9F10230D4
:1055700009F01BCF8091570D90E0880F991F9093F1
:10558000921E8093911E11CFC0915A0D68CFC09189
:105590005A0D23CFC091580D20CFC091580D5FCF29
:1055A0008091580D90E0880F991F9093921E8093E0
:1055B000911EFBCED090560D58ECD59EB001112413
:1055C0007093961E6093951EF0CE1091580DC8EC06
:1055D0001C9F900111243093961E2093951EE5CEBA
:1055E0008091560D90E0880F991F9093921E8093A2
:1055F000911EDBCEB091590DE8ECBE9FC001112485
:105600009093961E8093951ED0CE8091590D90E078
:10561000880F991F9093921E8093911EC6CE9C0175
:1056200021503240283141E03407C0F12F5F3E4F16
:105630002230310598F1843023E0920709F4F1C358
:10564000A8F58D3022E0920709F4F3C308F05BC09F
:10565000853022E0920709F4D7C308F4EEC0893000
:1056600022E0920709F4BFC308F44DC18B3022E059
:10567000920709F40CC208F43DC27091931E71FFA9
:1056800005C090914308986090934308A091430807
:10569000A3FDD1C00F94071081E008954091221E10
:1056A0005091231E452B39F280E00895833143E069
:1056B000940709F480C308F047C08B3043E0940797
:1056C00009F498C208F4E5C08F3043E0940709F468
:1056D00080C208F42CC1813143E0940709F4FDC174
:1056E00008F471C36091931E61FF05C07091420878
:1056F0007062709342089091420895FD9CC00F948F
:10570000C91381E00895843122E0920709F4AAC305
:1057100008F4A9C0883122E0920709F492C308F482
:105720001AC1823023E0920709F4F8C208F0E5C2FA
:105730008130934009F0B8CFE091931EE1FF7BC028
:105740000F94060281E00895823042E39407F0F45A
:10575000811522E3920708F06EC0863143E094077A
:1057600009F48DC108F40BC1873143E0940709F0B7
:105770005CC1F091931EF1FF5EC00F9483122091E3
:1057800042082F772093420881E00895833049E949
:10579000940709F4D0C108F092C0813049E9940718
:1057A00009F46CC208F051C28115994909F07CCF07
:1057B00080918A0C8370813009F493C3F8948091AE
:1057C000910A87FD8C5F18160CF0A7C3082E000CF9
:1057D000990BFC01EE0FFF1FEE0FFF1FEF57F54F68
:1057E0002081318142815381880F991F880F991F31
:1057F000FC01E358F54F80819181A281B381281B80
:10580000390B4A0B5B0B7894211531054105510585
:1058100091F060E077E883E993E00F9409B7309363
:105820008C0C20938B0C81E00F94AD5530916E1E43
:10583000386030936E1E81E00895813022E0920737
:1058400009F435C208F4E1C0833022E0920709F47C
:1058500043C208F434C27091931E71FFECCF0F94D1
:10586000951181E00895803122E0920709F470C219
:1058700008F497C0823122E0920709F4D5C108F4F8
:10588000C6C1F091931EF1FFD6CF0F94571581E05A
:105890000895873043E0940709F49DC208F49BC043
:1058A000893043E0940709F468C208F459C2609152
:1058B000931E61FFC0CF0E94F6FF81E008958530FE
:1058C00029E9920709F4F4C208F4D9C2863099494B
:1058D00009F0EACE2091D81E3091D91E211531054C
:1058E00009F4A9CFA0E1B7E20F942BB72091221EB3
:1058F0003091231E50E040E00F9409B73093990C8B
:105900002093980C90CF873022E0920709F4DDC0F5
:1059100008F4CAC08091931E81FF8DCF0F94A6100A
:10592000309143083B7F3093430881E008958D30E8
:1059300043E0940709F445C108F432C14091931E35
:1059400041FF79CF0E94F2FE809142088F7E8093C2
:10595000420881E00895863122E0920709F4E3C00D
:1059600008F4D0C09091931E91FF65CF0F947914E5
:10597000A0914308AF77A093430881E00895843154
:1059800043E0940709F066C07091931E71FF53CFF6
:105990000F941913909142089F7B9093420881E0E5
:1059A00008958E3022E0920709F4F8C18F309240BA
:1059B00009F07ACE5091931E51FF05C060914308C3
:1059C0006061609343087091430874FD34CF0F9475
:1059D000361681E00895853043E0940709F4ABC1A1
:1059E0008630934009F060CEE091931EE1FF05C040
:1059F000F0914208F260F09342082091420821FDA4
:105A00001ACF0F94020181E00895811521E09207D9
:105A100009F4AAC08130914009F046CE8091931ECE
:105A200082608093931E81E008958831934009F04D
:105A30003BCEA091931EA1FF05C0B0914208B06873
:105A4000B0934208E0914208E7FDF5CE0F9483122F
:105A500081E008958531934009F026CE3091931E60
:105A600031FF05C050914208506450934208609144
:105A7000420866FDE0CE0F94191381E0089540912D
:105A8000931E41FFD8CE0F94CA1281E00895B091C1
:105A9000931EB1FFD0CE0F940710E0914308E77F2B
:105AA000E093430881E00895F091931EF1FF05C053
:105AB000209143082260209343084091430841FD10
:105AC000BACE0F94451181E008955091931E51FF75
:105AD000B2CE0F94F61081E00895A091931EA1FF1D
