:100000000C94C0100D94BA3D0D948F3D0D94643D39
:100010000D94393D0D940E3D0D94E33C0D94B83C88
:100020000D948D3C0C94F1100C94F1100C94F11083
:100030000C94F1100C94F1100C94F1100D942A31E1
:100040000C94F1100C94FC4D0C94F24B0C9433CCAA
:100050000C94F1100C94F1100C94F1100D94DA5AE8
:100060000C94F1100D944D3F0D940D3F0C94F11034
:100070000C94F1100C94F1100C94F1100C94F110FC
:100080000D94B52E0D943A2E0D94BF2D0C94F110B5
:100090000C94F1100C94F1100C94F1100C94F110DC
:1000A0000C94F1100C94F1100D94DC2A0D94442D55
:1000B0000D94422A0C94F1100C94F1100D94AA2C7A
:1000C0000D94102C0D94762B0C94F1100C94F110CF
:1000D0000C94F1100C94F1100D94D63E0D94963EB4
:1000E0000C94F1100C947EC30C943BC00D94AA495F
:1000F0000C94A9220D94E31A0C9406C30C94DBFE15
:100100000D94DD4A0D94F8490C94E8BB0C941E72D2
:100110000C94F88B0D9490640C9478F70D94A0389F
:100120000C94C7220D9484730D942B3A0C94BD60EB
:100130000C9460760C94ED970D94CF4A0C94D07A81
:100140000C94F1670C9439540D9482380C9430C798
:100150000C94EF610C94839E0D94140E0C94F37622
:100160000D943B3A0C94E2FF0D9461480D94853850
:100170000C94A9E20D9479380C94CE710C9490A94A
:100180000D94D3380C9415A00C94F2E70C94328F94
:100190000C948C5E0C949FC80D946C620D94254B4E
:1001A0000D94D1390C943EFB0D94AF380D94EF387B
:1001B0000C94BBF60D941E060C94DC530D94299000
:1001C0000D949A390D94F3080C94763F0C94C2C7A1
:1001D0000C94A4730D94F2380D9473380D94D638A2
:1001E0000D944D030C94C5FA0C94226A0D94E3739C
:1001F0000C9485F80C949A900C9473940D94673831
:100200000D942B390C940B170C94043B0D9443392B
:100210000D94E71A0C945B810C94B8C10D942308DB
:100220000C945BFD0D941C390C943BBA0C943880F3
:100230000D94413A0D940A390D94FF390D940C3EFA
:100240000C94ECD00D94A3380D9425390C94B2770E
:100250000D94A7470C94B1220D9472490C94B55497
:100260000C9444F40C941B950D944F390D947239F1
:100270000C94A1220D94F31A0C9441760D944B38F2
:100280000C94FE8F0C94FF8F0C94A9390C9469FF89
:100290000C94F4360D943E3A0C947E130D94493927
:1002A0000C947E510C94BEC50C948A220C94657AF1
:1002B0000C9468B90C94D2E70D94EA040D945E395D
:1002C0000C94AA870C94DFA40D94053A0C946A54FC
:1002D0000C944C760D94EF1A0C942F7C0D94573897
:1002E0000D9419390C9443540D94DD460D94803BC4
:1002F0000D94083E0D946D070D946A490D949D3838
:100300000C94D4FD0C944BD00C9455BF0C9421A3A9
:100310000C9400620C94375E0D94D94A0C940F54DF
:100320000D94E51A0D94FC390D9451380D94083A4A
:100330000C94CC960C94FE760C94C7110C94256901
:100340000D942E660C94FC200C9462FE0D94014BCF
:100350000C9496BE0C949A220D941E3A0C945D5106
:100360000C944A500C94E7910C94B0730D94A2072E
:100370000C9420C20D94123A0C94D0920C94C37930
:100380000C9409880C946B980D94AB390C942F54F1
:100390000D941F4B0C94488D0C9432380D94800EA4
:1003A0000D94FB380C94092F0D94800F0C94A566C6
:1003B0000D948E380D94CA380C947B720D94C062E3
:1003C0000D94123E0D9466790D94E11A0C942D5003
:1003D0000D9410390C940D620C9435620C946D1BC5
:1003E0000C9492220C9453E20C9435BD0D94523926
:1003F0000D94323A0C943E950C9455E10D94493E7F
:100400000D94243A0D94153A0C9406230C9426234B
:100410000D9481390C94A9880C948B220D94F11AB7
:100420000C94D9D00D943D390D94D44A0D94543880
:100430000D94103E0C94A0540C941C850C940EBB8F
:100440000D94E94A0C941FCE0C94E7660C94A950C5
:100450000C944FFA0D94BA060D940F3A0C94F9E2ED
:100460000C94C5600D94C1380D9407390D947C3EF1
:100470000C9402210D9461380D94B5040D943A3911
:100480000C94B1710C943FC40D94F5380D94170B76
:100490000C949C770D94D0380D948B380C94C1D16A
:1004A0000C944D670C94647A0C943F510C94F9535E
:1004B0000C94517E0C944C600D948C080C942C96EA
:1004C0000C941B3E0D94CE770D9482030C94966190
:1004D0000D94134B0C94F4220C94A7770C943A6669
:1004E0000D94B60E0C94A8730C94A5800C94DD703A
:1004F0000D94D4390C94217A0D94F71A0C94F5A725
:100500000D940C740D9464390D949A380C9445E84C
:100510000C9479210C94EBB80C942A680D940E3E3F
:100520000C9461500C9484620C94C1F90D94B5380C
:100530000C9498AE0C94A9BA0D945A380D947F3847
:100540000C94819C0C94227A0C944AAE0D94C7387A
:100550000C94D5200D94213A0D9485050D94AF0C83
:100560000D94A9380D9428390C94F1C00D94D93A02
:100570000C941D110D94FB4A0D94B2380D94E34A6E
:100580000C94F4850D94883E0C94877B0C94A18E7A
:100590000D94B6020D94353A0C94E8C90D94CD46ED
:1005A0000C94E9690C948E110D94C83A0D94343969
:1005B0000C9438210D94683E0D94D9480C94EA6748
:1005C0000C94BB1A0C94F8610D9455390D9497470F
:1005D0000C9404180C944DC30C9424540C94657C16
:1005E0000D94DD1A0C947EF40C9472620D94F8381C
:1005F0000C94DA820D94A6380C942BC50D941665D4
:100600000C940F760C94F2690D94E63B0D94CD3862
:100610000D9422390D946F390D94273A0C9474F58A
:100620000C946F500D9404390C946A860C94F1BCB0
:100630000D940D4B0D94C6730C9484BB0C9459937C
:100640000D94E91A0D942F3A0C94587F0C949B50FA
:100650000C94FB220C94E69A0D94DA730D94B8383E
:100660000C9489850C9427720D940D660C94D320FC
:100670000D947C380C94FD8F0C9480210D94C4381B
:100680000C9455690D94194B0D9453060C9406194E
:100690000D94F0010C9461DD0C94BB670D941F392F
:1006A0000C9488210D946D380D94EB1A0C9467CA44
:1006B0000C94749A0C9448220C94345E0D94F9397D
:1006C0000D9411780D9416390D940B0C0C94E8913F
:1006D0000D94383A0C940E710D94960A0C94023FC6
:1006E0000C947B320C94CC200C94342F0D94A07776
:1006F0000C94A4600D94F54A0D940D390D94023AB2
:100700000D94BE380D944E380D945D770C9454FCC6
:100710000C944C870C94CDFC0C94F39C0C940A2103
:100720000D94AD3A0D9494380D940A3E0D945B39B6
:100730000D9411460D94074B0C9443F40D94EF4A1D
:100740000D94CE390D94223C0C94C8500D946478CD
:100750000D9476380C94A1BC0C9441620C94906971
:100760000D944A0E0D94293E0D9413390C945F8913
:100770000C9445F60C9485540C94D8120D94720286
:100780000C9483730C94C96C0C94A9950C94399FA8
:100790000D9477010C94B36C0C9476E10C94BCBF6F
:1007A0000C94AB670C94C0F80C94B8220C94E79AA4
:1007B0000C94197A0D9464380C94F3100D943779D5
:1007C0000D94DF1A0C949FBE0C94C1530D94ED1A36
:1007D0000C949D3E0C94129E0D941C040D9437397C
:1007E0000D94EC380C94C0220C944D540C94B8F534
:1007F0000C9450CF0D9497380D94DA3A0D946A39D1
:100800000C9482E60D9458390C94DE930D945D3867
:100810000C94615F0D942E390C94086A0D94850B2D
:100820000C944EC60C9463690D9488390C94D314BF
:100830000D94F51A0C94829C0C94307B0C9478E8FF
:100840000C94AD600D9491380C94AA540C94C6FB92
:100850000C9404760C94B6670D94EC730C9472218E
:100860000C942D720C9495B80D94E9000D94910997
:100870000D94F4730C94DF860D94120A0D94063EC9
:100880000C94715F0C9498AA0C94BCF70C94DB2028
:100890000C941A950D9488380D94A0650C94589B6F
:1008A0000D9470380D944C390D946A380D945A3E5D
:1008B0000D94E1450C94F2500C94F2880C947E5007
:1008C0000C9435D10D94D91A0C944AF80C94C19912
:1008D0000C9482FB0D94AC380D94FE380C94377D4B
:1008E0000D94743E0C94678A0C9465920C943D951B
:1008F0000C942E690C94D0B90D94FC730C94F9757A
:100900000C94CA710D94F6390D94BB380C94656241
:100910000D9440390C948AFA0D94D54A0D941B3AE3
:100920000C9452C80C94759A0D9470000D94DB1AB7
:100930000C9480AC0C94277A0D9401390C947DF9B9
:100940000D9446390C94E2200C9473C10C9480F6FB
:100950000C943B500C94F0E10C9419540C94B38F0C
:100960000C9443BC0D9461390D94183A0C943EC913
:100970000D940A5C0C9489E70D949F470D949F0F8A
:100980000C94B9F40C94C0200D9431390C941B21B3
:100990000C948D500C9448620C9434720C94BDE10C
:1009A0000C94AF670D948E490D94363C0D94906174
:1009B0000C9431510A5061676520686173206E6F35
:1009C00074206265656E20696D706C656D656E740E
:1009D000656420796574000A326E642049676E6927
:1009E00074696F6E204D6170000A326E6420467526
:1009F000656C204D6170000A5061676520392043A5
:100A00006667000A5472696D2031205461626C651A
:100A1000000A565654204D6170000A426F6F73747D
:100A2000204D6170000A5067203620436F6E666962
:100A300067000A414652204D6170000A5067203419
:100A400020436667000A49676E6974696F6E204DBE
:100A50006170000A5067203220436667000A5645DD
:100A6000204D6170004572723A20556E6B6E6F7743
:100A70006E20636D64000A3D3D3D436F6D6D616E98
:100A8000642048656C703D3D3D0A0A416C6C2063F2
:100A90006F6D6D616E6473206172652073696E673E
:100AA0006C652063686172616374657220616E6455
:100AB0002061726520636F6E636174656E61746539
:100AC0006420776974682074686569722070617247
:100AD000616D6574657273200A776974686F7574E7
:100AE000207370616365732E53796E7461783A2058
:100AF000203C636F6D6D616E643E2B3C7061726172
:100B00006D65746572313E2B3C706172616D657408
:100B10006572323E2B3C706172616D657465724E18
:100B20003E0A0A3D3D3D4C697374206F6620436F59
:100B30006D6D616E64733D3D3D0A0A41202D204478
:100B40006973706C617973203331206279746573D5
:100B5000206F662063757272656E7453746174756C
:100B6000732076616C75657320696E2062696E61B1
:100B7000727920286C6976652064617461290A4263
:100B8000202D204275726E2063757272656E74201E
:100B90006D617020616E6420636F6E66696750617D
:100BA00067652076616C75657320746F206565706C
:100BB000726F6D0A43202D205465737420434F4D8E
:100BC00020706F72742E2020557365642062792026
:100BD00054756E657273747564696F20746F2073D9
:100BE0006565207768657468657220616E2045438D
:100BF00055206973206F6E206120676976656E20CD
:100C000073657269616C200A20202020706F7274F5
:100C10002E2052657475726E7320612062696E6158
:100C20007279206E756D6265722E0A4E202D2050ED
:100C300072696E74206E6577206C696E652E0A503D
:100C4000202D205365742063757272656E74207058
:100C50006167652E202053796E7461783A202050A8
:100C60002B3C706167654E756D6265723E0A52205D
:100C70002D2053616D65206173204120636F6D6D80
:100C8000616E640A53202D20446973706C61792071
:100C90007369676E6174757265206E756D626572D9
:100CA0000A51202D2053616D65206173205320630C
:100CB0006F6D6D616E640A56202D20446973706CEF
:100CC0006179206D6170206F7220636F6E66696755
:100CD000506167652076616C75657320696E20626E
:100CE000696E6172790A57202D20536574206F6EEA
:100CF00065206279746520696E206D6170206F7265
:100D000020636F6E666967506167652E20204578A5
:100D100070656374732062696E61727920706172AC
:100D2000616D65746572732E200A2020202053792E
:100D30006E7461783A2020572B3C6F666673657439
:100D40003E2B3C6E6577627974653E0A74202D20D7
:100D50005365742063616C6962726174696F6E209F
:100D600076616C7565732E202045787065637473A9
:100D70002062696E61727920706172616D6574655F
:100D800072732E20205461626C6520696E646578F0
:100D90002069732065697468657220302C200A20F0
:100DA000202020312C206F7220322E202053796E8B
:100DB0007461783A2020742B3C74626C655F6964BE
:100DC000783E2B3C6E657756616C7565313E2B3CE9
:100DD0006E657756616C7565323E2B3C6E65775655
:100DE000616C75654E3E0A5A202D20446973706C03
:100DF00061792063616C6962726174696F6E2076DB
:100E0000616C7565730A54202D20446973706C61A0
:100E100079732032353620746F6F7468206C6F6779
:100E200020656E747269657320696E2062696E61F7
:100E300072790A72202D20446973706C6179732075
:100E400032353620746F6F7468206C6F6720656E62
:100E500074726965730A55202D2050726570617235
:100E60006520666F72206669726D776172652075A4
:100E700070646174652E20546865206E65787420F6
:100E80006279746520726563656976656420776947
:100E90006C6C2063617573652074686520417264B1
:100EA00075696E6F20746F2072657365742E0A3FCA
:100EB000202D20446973706C6179732074686973A4
:100EC0002068656C702070616765002C20005755A4
:100ED00045004F3200496E6C65742074656D70007A
:100EE000436F6F6C616E7400526573657420636F3D
:100EF0006E74726F6C2069732063757272656E74A4
:100F00006C792064697361626C65642E00436F6D57
:100F10006D732068616C7465642E204E6578742052
:100F2000627974652077696C6C20726573657420D2
:100F30007468652041726475696E6F2E0053706528
:100F4000656475696E6F20323032322E30342D6414
:100F5000657600737065656475696E6F2032303236
:100F60003230342D646576004552523B20496E6321
:100F70006F727265637420454550524F4D207369FE
:100F80007A65003030310020002000200020002051
:100F900020202000526573657420636F6E74726F39
:100FA0006C2069732063757272656E746C7920644D
:100FB000697361626C65642E00436F6D6D732068A8
:100FC000616C7465642E204E657874206279746556
:100FD0002077696C6C207265736574207468652075
:100FE00041726475696E6F2E000000800020012040
:100FF00001800020018000F0008001C000C00020BE
:1010000001C00080002001040E11191B20292B2D86
:101010002F31333537393B3D3F414345474B4D4FEA
:10102000515557595D61666D775370656564756993
:101030006E6F00537065656475696E6F2032303174
:10104000392E30382D73657200537065656475698B
:101050006E6F2063737830323031392E38000000E3
:1010600020002300260029002C002F003200000160
:1010700000000301060109010000210024002700EF
:101080002A002D0030003300010100000401070197
:101090000A0100000000963007772C610EEEBA516D
:1010A000099919C46D078FF46A7035A563E9A39592
:1010B000649E3288DB0EA4B8DC791EE9D5E088D9BD
:1010C000D2972B4CB609BD7CB17E072DB8E7911D98
:1010D000BF906410B71DF220B06A4871B9F3DE41C9
:1010E000BE847DD4DA1AEBE4DD6D51B5D4F4C78546
:1010F000D38356986C13C0A86B647AF962FDECC96F
:10110000658A4F5C0114D96C0663633D0FFAF50DD7
:10111000088DC8206E3B5E10694CE44160D5727149
:1011200067A2D1E4033C47D4044BFD850DD26BB5D7
:101130000AA5FAA8B5356C98B242D6C9BBDB40F90E
:10114000BCACE36CD832755CDF45CF0DD6DC593DC5
:10115000D1ABAC30D9263A00DE518051D7C81661E8
:10116000D0BFB5F4B42123C4B3569995BACF0FA517
:10117000BDB89EB802280888055FB2D90CC624E91C
:101180000BB1877C6F2F114C6858AB1D61C13D2D91
:1011900066B69041DC760671DB01BC20D2982A103D
:1011A000D5EF8985B1711FB5B606A5E4BF9F33D4CD
:1011B000B8E8A2C9077834F9000F8EA809961898E4
:1011C0000EE1BB0D6A7F2D3D6D08976C6491015C4B
:1011D00063E6F4516B6B62616C1CD83065854E0020
:1011E00062F2ED95066C7BA5011BC1F4088257C421
:1011F0000FF5C6D9B06550E9B712EAB8BE8B7C8846
:10120000B9FCDF1DDD62492DDA15F37CD38C654C0A
:10121000D4FB5861B24DCE51B53A7400BCA3E23054
:10122000BBD441A5DF4AD795D83D6DC4D1A4FBF40A
:10123000D6D36AE96943FCD96E34468867ADD0B825
:1012400060DA732D0444E51D03335F4C0AAAC97CA0
:101250000DDD3C710550AA41022710100BBE8620FF
:101260000CC925B56857B3856F2009D466B99FE4CA
:1012700061CE0EF9DE5E98C9D9292298D0B0B4A803
:10128000D7C7173DB359810DB42E3B5CBDB7AD6CCC
:10129000BAC02083B8EDB6B3BF9A0CE2B6039AD2B7
:1012A000B1743947D5EAAF77D29D1526DB04831692
:1012B000DC73120B63E3843B64943E6A6D0DA85AA1
:1012C0006A7A0BCF0EE49DFF099327AE000AB19E08
:1012D000077D44930FF0D2A3088768F2011EFEC277
:1012E00006695D5762F7CB67658071366C19E70652
:1012F0006B6E761BD4FEE02BD3895A7ADA10CC4A77
:10130000DD676FDFB9F9F9EFBE8E43BEB717D58E33
:10131000B060E8A3D6D67E93D1A1C4C2D83852F229
:10132000DF4FF167BBD16757BCA6DD06B53F4B3633
:10133000B248DA2B0DD84C1B0AAFF64A0336607A56
:101340000441C3EF60DF55DF67A8EF8E6E3179BED1
:1013500069468CB361CB1A8366BCA0D26F2536E296
:10136000685295770CCC03470BBBB91602222F2687
:101370000555BE3BBAC5280BBDB2925AB42B046AC0
:10138000B35CA7FFD7C231CFD0B58B9ED92C1DAE91
:10139000DE5BB0C2649B26F263EC9CA36A750A9381
:1013A0006D02A906099C3F360EEB8567077213573D
:1013B0000005824ABF95147AB8E2AE2BB17B381B88
:1013C000B60C9B8ED2920DBED5E5B7EFDC7C21DF4B
:1013D000DB0BD4D2D38642E2D4F1F8B3DD686E835E
:1013E000DA1FCD16BE815B26B9F6E177B06F77477D
:1013F000B718E65A0888706A0FFFCA3B06665C0B8E
:101400000111FF9E658F69AE62F8D3FF6B6145CF16
:101410006C1678E20AA0EED20DD75483044EC2B304
:101420000339612667A7F71660D04D476949DB7716
:101430006E3E4A6AD1AEDC5AD6D9660BDF40F03B2D
:10144000D83753AEBCA9C59EBBDE7FCFB247E9FFFC
:10145000B5301CF2BDBD8AC2BACA3093B353A6A33D
:10146000B4240536D0BA9306D7CD2957DE54BF67CA
:10147000D9232E7A66B3B84A61C4021B685D942BE7
:101480006F2A37BE0BB4A18E0CC31BDF055A8DEF3C
:10149000022D0000000041311B1982623632C35315
:1014A0002D2B04C56C6445F4777D86A75A56C796E4
:1014B000414F088AD9C849BBC2D18AE8EFFACBD9D3
:1014C000F4E30C4FB5AC4D7EAEB58E2D839ECF1C94
:1014D00098875112C24A1023D953D370F47892419D
:1014E000EF6155D7AE2E14E6B537D7B5981C968464
:1014F000830559981B8218A9009BDBFA2DB09ACB63
:1015000036A95D5D77E61C6C6CFFDF3F41D49E0E13
:101510005ACDA2248495E3159F8C2046B2A761770B
:10152000A9BEA6E1E8F1E7D0F3E82483DEC365B203
:10153000C5DAAAAE5D5DEB9F464428CC6B6F69FDB2
:101540007076AE6B3139EF5A2A202C09070B6D38B3
:101550001C12F33646DFB2075DC6715470ED30657C
:101560006BF4F7F32ABBB6C231A275911C8934A083
:101570000790FBBC9F17BA8D840E79DEA92538EF42
:10158000B23CFF79F373BE48E86A7D1BC5413C2A33
:10159000DE58054F79F0447E62E9872D4FC2C61CA4
:1015A00054DB018A159440BB0E8D83E823A6C2D973
:1015B00038BF0DC5A0384CF4BB218FA7960ACE9634
:1015C0008D130900CC5C4831D7458B62FA6ECA5343
:1015D000E177545DBBBA156CA0A3D63F8D88970EFA
:1015E00096915098D7DE11A9CCC7D2FAE1EC93CBF3
:1015F000FAF55CD762721DE6796BDEB554409F84C4
:101600004F5958120E161923150FDA7038249B41C2
:10161000233DA76BFD65E65AE67C2509CB57643868
:10162000D04EA3AE9101E29F8A1821CCA73360FD72
:10163000BC2AAFE124ADEED03FB42D83129F6CB233
:101640000986AB2448C9EA1553D029467EFB687742
:1016500065E2F6793F2FB7482436741B091D352AF9
:101660001204F2BC534BB38D485270DE657931EFF2
:101670007E60FEF3E6E7BFC2FDFE7C91D0D53DA0C3
:10168000CBCCFA368A83BB07919A7854BCB13965C2
:10169000A7A84B98833B0AA99822C9FAB50988CB19
:1016A000AE104F5DEF5F0E6CF446CD3FD96D8C0EE2
:1016B000C27443125AF3022341EAC1706CC18041E3
:1016C00077D847D7369706E62D8EC5B500A5848412
:1016D0001BBC1A8A41715BBB5A6898E87743D9D919
:1016E0006C5A1E4F2D155F7E360C9C2D1B27DD1C62
:1016F000003E120098B9533183A09062AE8BD15353
:10170000B59216C5F4DD57F4EFC494A7C2EFD59691
:10171000D9F6E9BC07AEA88D1CB76BDE319C2AEF69
:101720002A85ED796BCAAC4870D36F1B5DF82E2A01
:1017300046E1E136DE66A007C57F6354E8542265C2
:10174000F34DE5F3B202A4C2A91B6791843026A031
:101750009F29B8AEC5E4F99FDEFD3ACCF3D67BFDF8
:10176000E8CFBC6BA980FD5AB2993E099FB27F3881
:1017700084ABB0241C2CF115073532462A1E737732
:101780003107B4E17048F5D06B513683467A77B2B1
:101790005D634ED7FACB0FE6E1D2CCB5CCF98D84A0
:1017A000D7E04A1296AF0B238DB6C870A09D894131
:1017B000BB84465D2303076C381AC43F1531850E80
:1017C0000E2842984F6703A9547EC0FA795581CB01
:1017D000624C1FC538815EF423989DA70EB3DC963A
:1017E00015AA1B0054E55A314FFC996262D7D853B1
:1017F00079CE174FE149567EFA50952DD77BD41CF0
:10180000CC62138A8D2D52BB963491E8BB1FD0D980
:10181000A006ECF37E5EADC265476E91486C2FA0CA
:101820005375E836123AA90709236A5424082B6530
:101830003F11E479A796A548BC8F661B91A4272A7F
:101840008ABDE0BCCBF2A18DD0EB62DEFDC023EF00
:10185000E6D9BDE1BC14FCD0A70D3F838A267EB239
:10186000913FB924D070F815CB693B46E6427A77B0
:10187000FD5BB56B65DCF45A7EC5370953EE7638EF
:1018800048F7B1AE09B8F09F12A133CC3F8A72FD80
:10189000249300000000376AC2016ED4840359BE4D
:1018A0004602DCA80907EBC2CB06B27C8D04851684
:1018B0004F05B851130E8F3BD10FD685970DE1EF31
:1018C000550C64F91A095393D8080A2D9E0A3D470E
:1018D0005C0B70A3261C47C9E41D1E77A21F291D9F
:1018E000601EAC0B2F1B9B61ED1AC2DFAB18F5B568
:1018F0006919C8F23512FF98F713A626B111914C59
:101900007310145A3C152330FE147A8EB8164DE429
:101910007A17E0464D38D72C8F398E92C93BB9F8EB
:101920000B3A3CEE443F0B84863E523AC03C655035
:10193000023D58175E366F7D9C3736C3DA3501A9F4
:10194000183484BF5731B3D59530EA6BD332DD01FB
:10195000113390E56B24A78FA925FE31EF27C95BD2
:101960002D264C4D62237B27A0222299E62015F3D9
:10197000242128B4782A1FDEBA2B4660FC29710A7C
:101980003E28F41C712DC376B32C9AC8F52EADA257
:10199000372FC08D9A70F7E75871AE591E7399337F
:1019A000DC721C2593772B4F517672F11774459B8F
:1019B000D57578DC897E4FB64B7F16080D7D216288
:1019C000CF7CA4748079931E4278CAA0047AFDCAA1
:1019D000C67BB02EBC6C87447E6DDEFA386FE99012
:1019E000FA6E6C86B56B5BEC776A025231683538FB
:1019F000F369087FAF623F156D6366AB2B6151C120
:101A0000E960D4D7A665E3BD6464BA0322668D6934
:101A1000E06720CBD74817A115494E1F534B797566
:101A2000914AFC63DE4FCB091C4E92B75A4CA5DDA0
:101A3000984D989AC446AFF00647F64E4045C124EB
:101A400082444432CD4173580F402AE649421D8CEE
:101A50008B435068F154670233553EBC755709D625
:101A6000B7568CC0F853BBAA3A52E2147C50D57ECC
:101A7000BE51E839E25ADF53205B86ED6659B187E3
:101A8000A4583491EB5D03FB295C5A456F5E6D2FC2
:101A9000AD5F801B35E1B771F7E0EECFB1E2D9A5BC
:101AA00073E35CB33CE66BD9FEE73267B8E5050D3E
:101AB0007AE4384A26EF0F20E4EE569EA2EC61F459
:101AC00060EDE4E22FE8D388EDE98A36ABEBBD5C4C
:101AD00069EAF0B813FDC7D2D1FC9E6C97FEA90647
:101AE00055FF2C101AFA1B7AD8FB42C49EF975AE2A
:101AF0005CF848E900F37F83C2F2263D84F0115779
:101B000046F1944109F4A32BCBF5FA958DF7CDFF5F
:101B10004FF6605D78D95737BAD80E89FCDA39E3C9
:101B20003EDBBCF571DE8B9FB3DFD221F5DDE54BEB
:101B300037DCD80C6BD7EF66A9D6B6D8EFD481B214
:101B40002DD504A462D033CEA0D16A70E6D35D1A3D
:101B500024D210FE5EC527949CC47E2ADAC6494072
:101B600018C7CC5657C2FB3C95C3A282D3C195E897
:101B700011C0A8AF4DCB9FC58FCAC67BC9C8F11194
:101B80000BC9740744CC436D86CD1AD3C0CF2DB991
:101B900002CE4096AF9177FC6D902E422B92192881
:101BA000E9939C3EA696AB546497F2EA2295C580D1
:101BB000E094F8C7BC9FCFAD7E9E9613389CA17968
:101BC000FA9D246FB598130577994ABB319B7DD157
:101BD000F39A3035898D075F4B8C5EE10D8E698BF2
:101BE000CF8FEC9D808ADBF7428B82490489B52335
:101BF000C68888649A83BF0E5882E6B01E80D1DA08
:101C0000DC8154CC938463A651853A1817870D72F2
:101C1000D586A0D0E2A997BA20A8CE0466AAF96E0C
:101C2000A4AB7C78EBAE4B1229AF12AC6FAD25C6DE
:101C3000ADAC1881F1A72FEB33A6765575A4413FC3
:101C4000B7A5C429F8A0F3433AA1AAFD7CA39D97A8
:101C5000BEA2D073C4B5E71906B4BEA740B689CDFD
:101C600082B70CDBCDB23BB10FB3620F49B1556502
:101C70008BB06822D7BB5F4815BA06F653B8319CC3
:101C800091B9B48ADEBC83E01CBDDA5E5ABFED3484
:101C900098BE000000006567BCB88BC809AAEEAF0B
:101CA000B5125797628F32F0DE37DC5F6B25B9389B
:101CB000D79DEF28B4C58A4F087D64E0BD6F0187CA
:101CC00001D7B8BFD64ADDD86AF23377DFE05610C5
:101CD00063589F571950FA30A5E8149F10FA71F80D
:101CE000AC42C8C07BDFADA7C76743087275266FDB
:101CF000CECD707FAD951518112DFBB7A43F9ED0AA
:101D0000188727E8CF1A428F73A2AC20C6B0C94704
:101D10007A083EAF32A05BC88E18B5673B0AD00088
:101D200087B26938502F0C5FEC97E2F0598587979E
:101D3000E53DD1878665B4E03ADD5A4F8FCF3F2825
:101D400033778610E4EAE37758520DD8ED4068BF48
:101D500051F8A1F82BF0C49F97482A30225A4F57C8
:101D60009EE2F66F497F9308F5C77DA740D518C05E
:101D7000FC6D4ED09F352BB7238DC518969FA07F45
:101D80002A271947FDBA7C204102928FF410F7E808
:101D900048A83D58149B583FA823B6901D31D3F74F
:101DA000A1896ACF76140FA8CAACE1077FBE846010
:101DB000C306D270A05EB7171CE659B8A9F43CDF81
:101DC000154C85E7C2D1E0807E690E2FCB7B6B4836
:101DD00077C3A20F0DCBC768B17329C704614CA0AC
:101DE000B8D9F5986F4490FFD3FC7E5066EE1B3750
:101DF000DA564D27B90E284005B6C6EFB0A4A38821
:101E00000C1C1AB0DB817FD767399178D22BF41F75
:101E10006E9303F7263B66909A83883F2F91ED5887
:101E20009329546044B43107F80CDFA84D1EBACF93
:101E3000F1A6ECDF92FE89B82E4667179B5402701C
:101E400027ECBB48F071DE2F4CC93080F9DB55E739
:101E500045639CA03F6BF9C783D3176836C1720FE7
:101E60008A79CB375DE4AE50E15C40FF544E259853
:101E7000E8F673888BAE16EF3716F84082049D277C
:101E80003EBC241FE92141785599AFD7E08BCAB0F9
:101E90005C333BB659ED5ED1E555B07E5047D51960
:101EA000ECFF6C213B62094687DAE7E932C8828E93
:101EB0008E70D49EED28B1F951905F56E4823A318C
:101EC000583A83098FA7E66E331F08C1860D6DA6A9
:101ED0003AB5A4E140BDC186FC052F2949174A4EF9
:101EE000F5AFF376223296119E8A78BE2B981DD9D3
:101EF00097204BC9F4782EAE48C0C001FDD2A5662C
:101F0000416A1C5E96F779392A4F97969F5DF2F1E8
:101F100023E505196B4D607ED7F58ED162E7EBB6F0
:101F2000DE5F528E09C237E9B57AD9460068BC2116
:101F3000BCD0EA31DF888F56633061F9D622049E27
:101F40006A9ABDA6BD07D8C101BF366EB4AD5309AC
:101F500008159A4E721DFF29CEA511867BB774E134
:101F6000C70FCDD91092A8BEAC2A461119382376D6
:101F7000A5807566C6D810017A60FEAECF729BC987
:101F800073CA22F1A457479618EFA939ADFDCC5E6C
:101F9000114506EE4D766389F1CE8D2644DCE8418D
:101FA000F86451792FF9341E9341DAB12653BFD624
:101FB0009AEBE9C6F9B38CA1450B620EF0190769DB
:101FC0004CA1BE519B3CDB3627843599929650FE3E
:101FD0002E2E99B95426FCDEE89E12715D8C771680
:101FE000E134CE2E36A9AB498A1145E63F03208164
:101FF00083BB7691E0E313F65C5BFD59E949983EBB
:1020000055F12106826C44613ED4AACE8BC6CFA97D
:10201000377E38417FD65D26C36EB389767CD6EE97
:10202000CAC46FD61D590AB1A1E1E41E14F3817927
:10203000A84BD769CB13B20E77AB5CA1C2B939C636
:102040007E0180FEA99CE59915240B36A0366E51C1
:102050001C8EA7166686C271DA3E2CDE6F2C49B93B
:10206000D394F081040995E6B8B17B490DA31E2EE7
:10207000B11B483ED2432D596EFBC3F6DBE9A69156
:1020800067511FA9B0CC7ACE0C749461B966F10681
:1020900005DE00002200250028002B002E00310064
:1020A000340002010000050108010B0105050505CA
:1020B000070508080808020202020A0A08080404C0
:1020C00004040101010101010101030303030303EE
:1020D0000303040707070C0C0C0C0C0C0C0C02027D
:1020E000020206060606060606060B0B0B0B0B0B7A
:1020F0000B0B010210202008081020401020408007
:1021000002010201080402010102040810204080BB
:102110008040201008040201800402018040201049
:102120000804020108040201010204081020408092
:10213000010204081020408000000A0B02090C0D67
:102140000E0807030401000000000000000000006A
:10215000000000000000000000000000000000007F
:10216000000000001211100000000000000000003C
:102170000000000000000000000000000000DE0081
:1021800011241FBECFEFD1E2DEBFCDBF00E00CBFF8
:1021900012E0A0E0B2E0E8E2FCE203E00BBF02C024
:1021A00007900D92AC39B107D9F72FE1ACE9B2E055
:1021B00001C01D92A233B207E1F710E1C0ECD0E1FB
:1021C00000E006C021970109802FFE010F948F9532
:1021D000CF3BD10780E00807A9F70F94245B0D944B
:1021E00012960C9400008091E51D82319CF026E04F
:1021F00030E0309382032093810341E050E050931C
:10220000800340937F0364E070E070937E036093EB
:102210007D030895A7E0B0E0B0938203A09381030B
:10222000E2E0F0E0F0938003E0937F0385E090E04C
:1022300090937E0380937D0308958091B31D88233E
:1022400009F469C02091B41D3091B51D40914D1E17
:1022500050914E1E2417350708F450C08091F504A4
:102260009091F604A091F704B091F804892B8A2B81
:102270008B2B09F450C02091F1043091F20440916D
:10228000F3045091F404232B242B252B09F443C091
:10229000F8948091F5049091F604A091F704B09120
:1022A000F8044091F1045091F2046091F3047091AC
:1022B000F404841B950BA60BB70B8093880A9093AC
:1022C000890AA0938A0AB0938B0A78942091880A8D
:1022D0003091890A40918A0A50918B0A60E077E830
:1022E00083E993E00F940995C901803526E49207AC
:1022F000A0F08091B41D9091B51D08956091211EAC
:102300007091221E8091231E9091241E672B682BB2
:10231000692B09F0A3CF90E080E008958091C50972
:102320009091C60920913A1C30913B1C821B930B63
:102330004091190250911A02841795079CF0841B52
:10234000950B0197843B9105A8F461E070E07093D0
:10235000820360938103A2E0B0E0B0938003A09376
:102360007F03089597FFEDCF840F951F0197843B5E
:10237000910558F3E2E0F0E0F0938203E0938103EB
:1023800081E090E09093800380937F030895CF9243
:10239000DF92EF92FF922091B41D3091B51D809194
:1023A0004D1E90914E1E2817390708F06CC0E09121
:1023B000BB04F091BC04C090211ED090221EE0907E
:1023C000231EF090241E8091451C90E0B0E0A0E018
:1023D000C816D906EA06FB0608F459C0D090B31D0A
:1023E000DD2009F454C04091830A5091840A609121
:1023F000850A7091860A452B462B472B09F447C066
:1024000060917F0A7091800A8091810A9091820A7E
:10241000672B682B692BD9F12091830A3091840AAC
:102420004091850A5091860A80917F0A9091800A96
:10243000A091810AB091820A82179307A407B50779
:1024400030F5F8942091830A3091840A4091850AEE
:102450005091860AC0907F0AD090800AE090810A4D
:10246000F090820A2C193D094E095F09AE2FB0E0A9
:102470000F9451956093880A7093890A80938A0A11
:1024800090938B0A6DC0C090B31DC11033C0C09033
:10249000880AD090890AE0908A0AF0908B0A90E02E
:1024A00080E0CC0CDD1CEE1CFF1CC0921E02D09202
:1024B0001F02E0922002F09221022091BB04309191
:1024C000BC042BE4C21628E9D20625E0E206F1049A
:1024D00060F44BE458E965E070E040931E025093CD
:1024E0001F026093200270932102FF90EF90DF9013
:1024F000CF9008954091F5045091F6046091F7044F
:102500007091F804452B462B472B09F26091F1049A
:102510007091F2048091F3049091F404672B682B7E
:10252000692B09F4B4CFF8948091F5049091F604E6
:10253000A091F704B091F8042091F1043091F204D5
:102540004091F3045091F404821B930BA40BB50B40
:102550008093880A9093890AA0938A0AB0938B0A81
:102560007894C090880AD090890AE0908A0AF09006
:102570008B0AF694E794D794C794C092880AD092B5
:10258000890AE0928A0AF0928B0A60E077E883E990
:1025900093E0A70196010F940995C901803526E4BF
:1025A000920708F47ECF8091B41D9091B51D79CF2C
:1025B0002091491C30E08091461C8C718C3009F4CC
:1025C00096C0E0913A1CF0913B1C60917D0A70919D
:1025D0007E0A8091C5099091C6098E1B9F0B0F94AE
:1025E000C294261737070CF05DC0621B730B709303
:1025F00082036093810360917D0A70917E0A8091CD
:102600009109909192098E1B9F0B0F94C2942617EB
:1026100037070CF065C0621B730B709380036093E7
:102620007F0360917D0A70917E0A80918F0990915D
:1026300090098E1B9F0B0F94C294261737070CF03E
:1026400048C0621B730B70937E0360937D0360919F
:102650007D0A70917E0A80918D0990918E098E1B62
:102660009F0B0F94C294261737076CF5621B730BF0
:1026700070937C0360937B0360917D0A70917E0A66
:1026800080917B0990917C098E1B9F0B0F94C294C3
:102690002617370774F4621B730B70934E03609315
:1026A0004D030895161617060CF4A1CF620F731F81
:1026B0009ECF161617068CF3620F731F70934E038E
:1026C00060934D0308951616170694F2620F731F58
:1026D000CFCF161617060CF4B6CF620F731FB3CF09
:1026E000161617060CF499CF620F731F96CF409100
:1026F0003F1C41FD66CF220F331F63CF0F931F9303
:10270000CF93DF93E091491CF0E08091461C8C71DF
:102710008C3009F43FC1EF0130E020E000913A1C19
:1027200010913B1C60917D0A70917E0A8091C509D1
:102730009091C609801B910B0F94C294615071094E
:10274000C617D7070CF006C16C1B7D0B4091BB046C
:102750005091BC044617570720F4E617F7070CF012
:1027600014C1A091BB04B091BC04A20FB31FA61763
:10277000B70730F46091BB047091BC04620F731F03
:10278000709382036093810360917D0A70917E0A49
:102790008091910990919209801B910B0F94C294A2
:1027A00061507109C617D7070CF0CDC06C1B7D0BAB
:1027B0008091BB049091BC048617970720F4E6171C
:1027C000F7070CF0DDC04091BB045091BC04420FF0
:1027D000531F4617570730F46091BB047091BC0437
:1027E000620F731F7093800360937F0360917D0A73
:1027F00070917E0A80918F0990919009801B910BB6
:102800000F94C29461507109C617D7070CF094C099
:102810006C1B7D0BA091BB04B091BC04A617B7073D
:1028200020F4E617F7070CF0A6C08091BB04909146
:10283000BC04820F931F8617970730F46091BB0486
:102840007091BC04620F731F70937E0360937D03CD
:1028500060917D0A70917E0A80918D0990918E0918
:10286000801B910B0F94C29461507109C617D70752
:102870000CF05BC06C1B7D0B4091BB045091BC0401
:102880004617570720F4E617F7070CF06FC0A09122
:10289000BB04B091BC04A20FB31FA617B70730F456
:1028A0006091BB047091BC04620F731F70937C0332
:1028B00060937B0360917D0A70917E0A80917B0911
:1028C00090917C09801B910B0F94C2946150710907
:1028D000C617D70724F56C1B7D0BC091BB04D091A4
:1028E000BC04C617D70718F4E617F707D4F5E0912C
:1028F000BB04F091BC04E20FF31FE617F70730F4B6
:102900006091BB047091BC04620F731F70934E03FF
:1029100060934D03DF91CF911F910F91089516168B
:102920001706DCF26C0F7D1FD8CF161617060CF4B5
:10293000A3CF6C0F7D1FA0CF161617060CF46ACF1D
:102940006C0F7D1F67CF161617060CF431CF6C0F76
:102950007D1F2ECF161617060CF4F8CE6C0F7D1FB8
:10296000F5CE6091BB047091BC04C1CF6091BB04F3
:102970007091BC048CCF6091BB047091BC0455CFA6
:102980006091BB047091BC041ECF6091BB04709138
:10299000BC04E7CE00913F1C01FDBDCE9F01EF01BD
:1029A000CC0FDD1FBBCECF92DF92EF92FF92E09172
:1029B000D109F091D2091995AC01893621E092072D
:1029C0000CF443C09C0129563140A3E8BDE20F94AA
:1029D00064950024880F991F001C880F991F001C04
:1029E000892F902D8770992748565140493621E00C
:1029F00052075CF1009719F181309105D1F08230D6
:102A00009105A9F08330910581F08430910559F04A
:102A10008530910531F0069711F0485651404856DF
:102A200051404856514048565140485651404856EA
:102A3000514048565140493621E0520734F0405445
:102A40005B40493681E05807D4F780913A1C909159
:102A50003B1C481B590B2091B31E2370223031F4CC
:102A6000C090B31CD090B41C4C195D09E091B61C09
:102A70009A01220F331FF0E0A0E0B1E0AE1BBF0BC4
:102A80000F9497956B017C01A091771EB091781EF1
:102A90009F010F949F95C60ED71EE81EF91ECD2CE0
:102AA000DE2CEF2CFF24E7FCFA94D092781EC09223
:102AB000771EFF90EF90DF90CF900895CF92DF9236
:102AC000EF92FF92CF93DF93EC01AA81BB81E88163
:102AD000F981408151811396FC91139711962D91A4
:102AE0003C91DF2FDF712115310541F1DA010F949F
:102AF00097956C01FF24D7FCF094EF2CC601F6FDEE
:102B00000EC002C095958795DA95E2F797FD01967C
:102B1000DF91CF91FF90EF90DF90CF9008952F2F0E
:102B2000FF0F330B220F232F221F330BCA018227E3
:102B30009327821B930B8C0D9D1DE3CF2F2FFF0F2F
:102B4000330B220F232F221F330B8FEF9FEF0D2EFE
:102B500002C0880F991F0A94E2F780959095BA01F8
:102B6000770F660B762F86239723840F951F02C05D
:102B700095958795DA95E2F782279327821B930B29
:102B8000DF91CF91FF90EF90DF90CF9008958F92DB
:102B90009F92AF92BF92CF92DF92EF92FF920F93EC
:102BA0001F93CF93DF935C018B011092C8071092A3
:102BB000C7071092360A812F0F942B4B802F0F944A
:102BC0002B4B1093D2080093D1080115110509F47D
:102BD000DDC045018FE3E82EF12C6501C00ED11E4A
:102BE000C80183709927009709F459C08130910575
:102BF000C1F10297D9F0E50189914E010F942B4B59
:102C0000A091C707B091C8071196B093C807A093C9
:102C1000C7079091110F8091120F981708F0F4C018
:102C2000891B990B0197892B09F492C0F4018191BA
:102C30004F010F942B4B8091C7079091C8070196C5
:102C40009093C8078093C7079091110F8091120F3E
:102C5000981708F0D2C0891B990B0197892B09F4AA
:102C600077C0E40189914E010F942B4BA091C707C7
:102C7000B091C8071196B093C807A093C707909169
:102C8000110F8091120F981708F059C0891B990BEA
:102C9000019709F45DC0C814D90409F477C0E401B0
:102CA00089910F942B4BE091C707F091C80731969B
:102CB000F093C807E093C7079091110F8091120F0E
:102CC000981708F055C0891B990B0197892B09F4B7
:102CD0003FC088810F942B4B8091C7079091C80704
:102CE00001969093C8078093C7079091110F809128
:102CF000120F981708F043C0891B990B0197892B75
:102D000039F189810F942B4BA091C707B091C80767
:102D10001196B093C807A093C7079091110F8091A7
:102D2000120F981708F062C0891B990B0197892B25
:102D300079F04E01F3E08F0E911C8A8195CF9701B7
:102D4000291B3109820F932F911D892B09F0A3CFE5
:102D500001E00093360ADF91CF911F910F91FF9010
:102D6000EF90DF90CF90BF90AF909F908F9008959D
:102D70009701291B3109820F932F911DA7CF97012E
:102D8000291B3109820F932F911DB9CF8090360AEC
:102D90008110E1CF2FEF3FEFA9012093B81B3093B3
:102DA000B91B4093BA1B5093BB1B21E0A801B5018E
:102DB00088EB9BE10E94C1ECEB01182F892F0F9447
:102DC0002B4B812F0F942B4B8D2F0F942B4B8C2F34
:102DD000DF91CF911F910F91FF90EF90DF90CF90F7
:102DE000BF90AF909F908F900D942B4B9701291B14
:102DF0003109820F932F911D9ACF9701291B310919
:102E0000820F932F911D2ACF9701291B3109820F21
:102E1000932F911D08CF8091B31D0F94B45A6093E6
:102E20007503709376038093770390937803809172
:102E3000750390917603A0917703B0917803409148
:102E4000290A50912A0A60912B0A70912C0A841B3E
:102E5000950BA60BB70B8093710390937203A0930D
:102E60007303B09374032091710330917203409106
:102E70007303509174036091F9047091FA04809186
:102E8000FB049091FC04261737074807590708F4FC
:102E900071C08091750390917603A0917703B091F2
:102EA00078038093290A90932A0AA0932B0AB0935F
:102EB0002C0A51E050936803609171037091720382
:102EC0008091730390917403969587957795679594
:102ED0006093F9047093FA048093FB049093FC04CC
:102EE0003091B31D311132C08CED95E0A0E0B0E01F
:102EF0008093FD049093FE04A093FF04B09300051B
:102F00006091F9047091FA048091FB049091FC04A3
:102F100096958795779567956093F9047093FA0471
:102F20008093FB049093FC04E091B704F091B80403
:102F300090817091B604A091F10BA07F972301F1CD
:102F4000A03409F453C0A03609F448C04091B41D20
:102F50005091B51DE0914D1EF0914E1E4E175F072A
:102F600050F4F091B31DFF2329F05091F10B507FE5
:102F7000503491F00895B091401CB7FDF2CF089500
:102F8000A03421F720916809309169092530310575
:102F9000E9F65093B31DDACF0F94B45A80914F03E2
:102FA00090915003A0915103B0915203E091B70466
:102FB000F091B80430819091B6043923D9F2A091F0
:102FC0006809B0916909A830B105C9F01092B31D24
:102FD00070915E1E7F5F70935E1E089580916809F8
:102FE00090916909079709F0B1CFD3CF6091680933
:102FF000709169096830710509F0A8CFCACFB09304
:103000006909A09368090895CF92DF92EF92FF9229
:10301000CF93DF930F94B45A609375037093760344
:103020008093770390937803809175039091760352
:10303000A0917703B09178034091290A50912A0A10
:1030400060912B0A70912C0A841B950BA60BB70B71
:103050008093710390937203A0937303B0937403EE
:10306000C0907103D0907203E0907303F0907403EA
:103070002091F9043091FA044091FB045091FC0432
:10308000C216D306E406F50608F465C08091750300
:1030900090917603A0917703B09178038093290AE9
:1030A00090932A0AA0932B0AB0932C0A40917103A3
:1030B00050917203609173037091740376956795D4
:1030C0005795479576956795579547954093F90499
:1030D0005093FA046093FB047093FC04D090B31DEA
:1030E000DD2009F453C0C090211ED090221EE09034
:1030F000231EF090241E8091451C90E0B0E0A0E0DB
:103100008C159D05AE05BF0508F040C08091491C97
:1031100090E0E0906809F09069098E159F0591F0A4
:103120002091211E3091221E4091231E5091241E79
:10313000233031054105510528F030915E1E3F5F77
:1031400030935E1EF090401CF7FE56C090936909C4
:103150008093680951C06091880A7091890A8091B2
:103160008A0A90918B0A96958795779567956093D3
:10317000F9047093FA048093FB049093FC04DF91AC
:10318000CF91FF90EF90DF90CF9008950F94B45AB5
:103190006093830A7093840A8093850A9093860AC9
:1031A0000F94B45A6B017C01C091491C2C2F30E064
:1031B00050E040E060E87DE88BE590E00F94D69425
:1031C000C21AD30AE40AF50AC0927F0AD092800A92
:1031D000E092810AF092820AD0E0D0936909C0930C
:1031E00068091092FD041092FE041092FF041092E0
:1031F000000551E05093B31D71E070936703DF91B8
:10320000CF91FF90EF90DF90CF900895CF92DF9213
:10321000EF92FF920F94B45A609375037093760304
:103220008093770390937803809175039091760350
:10323000A0917703B09178034091290A50912A0A0E
:1032400060912B0A70912C0A841B950BA60BB70B6F
:103250008093710390937203A0937303B0937403EC
:10326000C090290AD0902A0AE0902B0AF0902C0AEC
:10327000CD28CE28CF28C1F410927103109272038A
:1032800010927303109274032091750330917603AA
:1032900040917703509178032093290A30932A0AAA
:1032A00040932B0A50932C0A409171035091720362
:1032B00060917303709174038091F9049091FA0402
:1032C000A091FB04B091FC04481759076A077B07DB
:1032D000C0F13091421C3F77313009F4C1C0311147
:1032E00020C051E0509367036091710370917203A5
:1032F0008091730390917403969587957795679560
:103300006093F9047093FA048093FB049093FC0497
:10331000A091260AB091270A1196B093270AA0938C
:10332000260AC0907503D0907603E0907703F09062
:103330007803C092290AD0922A0AE0922B0AF092CE
:103340002C0AD090AD1ED5FE86C0E0906703EE201B
:1033500009F481C0E091D109F091D2091995AC012D
:10336000893621E092070CF442C09C012956314075
:10337000A3E8BDE20F9464950024880F991F001CF8
:10338000880F991F001C892F902D87709927485608
:103390005140493621E0520754F1009711F1813034
:1033A0009105C9F082309105A1F08330910579F043
:1033B0008430910551F08530910529F0069709F088
:1033C000B5C048565140485651404856514048565D
:1033D00051404856514048565140493621E0520725
:1033E00034F040545B40493681E05807D4F72091CF
:1033F0003A1C30913B1C421B530B7091B31E7370EF
:10340000723031F48091751D9091761D481B590BD7
:10341000E091B61C9A01220F331FF0E0A0E0B1E06A
:10342000AE1BBF0B0F9497956B017C01A091631E9F
:10343000B091641E9F010F949F95C60ED71EE81E83
:10344000F91ECD2CDE2CEF2CFF24E7FCFA94D09251
:10345000641EC092631EFF90EF90DF90CF9008959E
:103460008091290A90912A0AA0912B0AB0912C0AE6
:10347000C090ED04D090EE04E090EF04F090F004E2
:103480008C199D09AE09BF09AC01BD01440F551F40
:10349000661F771F840F951FA61FB71FB695A795A8
:1034A0009795879580935B0390935C03A0935D034E
:1034B000B0935E032091290A30912A0A40912B0A89
:1034C00050912C0A2093ED043093EE044093EF04C6
:1034D0005093F00440917103509172036091730313
:1034E0007091740380915B0390915C03A0915D03E4
:1034F000B0915E03481759076A077B0730F4E091E3
:10350000260AF091270A3497A0F081E090E090938A
:10351000270A8093260A809367031092F904109279
:10352000FA041092FB041092FC04FBCE4856514062
:1035300048CF6091710370917203809173039091F1
:103540007403969587957795679596958795779562
:1035500067956093F9047093FA048093FB04909349
:10356000FC04A091260AB091270A1196B093270A6D
:10357000A093260AD6CECF93DF931092680381E002
:1035800080936803209106052330F1F0223091F0FA
:10359000213029F4E0910205F0910305199560911D
:1035A000621E662321F070916803711117C0DF91CC
:1035B000CF910895E091B404F091B50430819091D9
:1035C000B304392339F3EBCFC091B404D091B504DF
:1035D00048815091B3044523E9F6E1CF809171030E
:1035E00090917203A0917303B0917403A091001E97
:1035F000A6FDDDCFB091611EB111D9CFC091520CA3
:10360000D091530CC253DD4F1882E091B704F09172
:10361000B804D081F091B604DF2309F045C0E091F1
:10362000B404F091B50420813091B304232349F010
:10363000C091520CD091530CC253DD4F98819260CF
:103640009883E091520CF091530CE253FD4F40816E
:10365000446040835091B31D552349F0C091520CF2
:10366000D091530CC253DD4F688168606883C0916C
:10367000520CD091530C0F94B45ACC0FDD1FCC0FC9
:10368000DD1FCC5AD34F688379838A839B83A091B3
:10369000520CB091530CAE37B10580F07091001E02
:1036A00070647093001E83CFC091520CD091530C64
:1036B000C253DD4F888181608883B1CF8091520CE5
:1036C0009091530C01969093530C8093520CB091AF
:1036D000001EBF7BB093001E6ACFCF93DF93109282
:1036E000680380910705833009F481C08230B9F006
:1036F0008130F1F4E0910405F09105051995709180
:10370000611E772301F1A0916803A1117BC0B1E094
:10371000D091621ED1111CC0DF91CF910895E0912C
:10372000B704F091B80420819091B604292311F3D5
:103730005091611E552339F060916803662339F377
:10374000DF91CF910895B0E0D091621EDD2321F387
:103750004091690350916A0360916B0370916C030F
:10376000F091001EF6FDD8CFC091520CD091530CB1
:10377000B1116FC0C253DD4F1882E091B704F091D0
:10378000B80480812091B604822309F082C0E091C0
:10379000B404F091B50430815091B304352349F05D
:1037A000C091520CD091530CC253DD4F68816260BE
:1037B00068837091B31D772349F0E091520CF0912A
:1037C000530CE253FD4FA081A860A083C091520C1E
:1037D000D091530C0F94B45ACC0FDD1FCC0FDD1FCA
:1037E000CC5AD34F688379838A839B833CC0C09132
:1037F000B704D091B80438814091B604342309F05D
:1038000079CF96CF2091690330916A0340916B0381
:1038100050916C03B091001EB6FD7ECFE091520C2A
:10382000F091530CEE0FFF1FEE0FFF1FEC5AF34FFA
:1038300020833183428353838091520C9091530CA7
:103840008E379105B8F0D091001ED064D093001E41
:1038500063CFCC0FDD1FCC0FDD1FCC5AD34F488375
:1038600059836A837B834091520C5091530C4E379D
:10387000510548F7A091520CB091530C1196B0939A
:10388000530CA093520CF091001EFF7BF093001E8E
:1038900043CFC091520CD091530CC253DD4F98814D
:1038A0009160988374CF833023E0920709F4F7C2C4
:1038B00058F1813123E0920709F4D9C208F060C0C1
:1038C0008A3023E0920709F4DEC208F0E8C08630AF
:1038D00023E0920709F461C208F44BC2883023E068
:1038E000920709F4B7C108F4F5C35091271E51FFA0
:1038F00006C06091280674E0672760932806A091AF
:103900002806A2FFD9C108958C3022E0920709F45D
:10391000D6C2D8F4853022E0920709F4E0C208F05C
:10392000D2C0813022E0920709F46BC208F4D5C1FD
:10393000833022E0920709F46DC108F4A7C35091C7
:10394000271E51FFE0CF0D941E06833122E092071F
:1039500009F49FC208F46BC0873122E0920709F492
:103960003DC308F0F5C0853122E0920709F41CC17F
:1039700008F4ECC27091271E71FFC5CF0D941E0391
:10398000883123E0920709F4B6C208F46EC0833090
:1039900029E9920709F44BC208F0AFC0813029E948
:1039A000920709F417C108F035C38115994909F048
:1039B000C1C3F8948091E50887FD8C5F18160CF060
:1039C0009FC3082E000C990BFC01EE0FFF1FEE0F9A
:1039D000FF1FEA51F74F2081318142815381880FC7
:1039E000991F880F991FFC01EE51F74F808191813B
:1039F000A281B381281B390B4A0B5B0B78942115EC
:103A000031054105510509F47ECF60E077E883E98F
:103A100093E00F9409953093350C2093340C0F9458
:103A2000B253A0914F1EA860A0934F1E08958F30EF
:103A300022E0920709F4EBC108F45EC1813122E073
:103A4000920709F49FC008F43FC37091271E71FFCD
:103A500006C0A091290690E2A927A0932906B0915B
:103A60002906B5FD50CF0D94B20D843123E09207A5
:103A700009F4A8C208F46EC1863123E0920709F464
:103A80008DC008F447C23091271E31FF3CCF0E9401
:103A900044F4409128064F774093280608958D30CE
:103AA00023E0920709F49BC108F43BC18F3023E067
:103AB000920709F4BFC008F498C19091271E91FFA6
:103AC00022CF0C9439F9883022E0920709F432C2EF
:103AD00008F4F4C08A3022E0920709F475C008F4B3
:103AE00089C29091271E91FF0ECF0F94140EA091C2
:103AF0002906A77FA09329060895853029E9920712
:103B000009F4B4C008F42EC28630994909F011C3F3
:103B100020916D1E30916E1E2115310509F4F3CEF2
:103B2000A0E1B7E20F9464952091B41D3091B51DCA
:103B300050E040E00F9409953093420C2093410CE3
:103B40000F94B25390914F1E986090934F1E08951A
:103B5000813023E0920709F4A9C008F0A3C288319C
:103B6000924009F0E5C2F091271EF1FF05C0809157
:103B700029068058809329062091290627FDC3CE67
:103B80000D94510DE091271EE1FFBDCE0F94B20DB3
:103B9000F0912906FF7DF093290608955091271E84
:103BA00051FFB1CE0C9431F5A091271EA1FF06C0A4
:103BB000B091290690E4B927B0932906E09129062F
:103BC000E6FDA1CE0D94810DB091271EB1FF9BCED5
:103BD0000D944D0320916D1E30916E1E21153105FF
:103BE00009F491CEA0E1B7E20F9464952091B41D41
:103BF0003091B51D50E040E00F9409953093380C9A
:103C00002093370C0F94B253E0914F1EE860E0937D
:103C10004F1E08956091271E61FF06C0709129060E
:103C200091E0792770932906A0912906A0FD6BCE1B
:103C30000D94B60EF091271EF1FF06C08091280664
:103C400020E18227809328063091280634FD5BCE40
:103C50000C944FFAB091271EB1FF55CE0E9480F60A
:103C6000E0912806EB7FE0932806089520916D1ED1
:103C700030916E1E2115310509F445CEA0E1B7E261
:103C80000F9464952091B41D3091B51D50E040E033
:103C90000F9409953093400C20933F0C0F94B2532E
:103CA00020914F1E286020934F1E08955091271E8B
:103CB00051FF29CE0C9482FB0C9480F6863022E0D2
:103CC000920709F46FC18730924009F035C2E09144
:103CD000271EE1FF18CE0D94B504811521E092074F
:103CE00009F4B8C18130914009F025C28091271EA6
:103CF00082608093271E08958D3022E0920709F498
:103D0000DDC18E30924009F011C23091271E31FF83
:103D1000FACD0F94E30D409129064F7E409329067A
:103D200008958B3023E0920709F44DC08C30934006
:103D300009F003C23091271E31FF06C040912806CA
:103D400058E04527409328066091280663FDDBCDA7
:103D50000C947EF4823123E0920709F4C1C18331CF
:103D6000934009F0E4C16091271E61FFCCCD0C9413
:103D700034F7843023E0920701F18530934009F055
:103D8000D4C18091271E81FFBECD0E9485F820916D
:103D900028062D7F2093280608959091271E91FFD5
:103DA00006C0F091280682E0F827F09328062091BB
:103DB000280621FDA8CD0C9485F83091271E31FFEF
:103DC000A2CD0C947DF97091271E71FF9CCD0E94AD
:103DD0007EF4A0912806A77FA0932806089540911D
:103DE000271E41FF90CD0C943EFBB091271EB1FFE2
:103DF0008ACD0E944FFAE0912806EF7EE0932806D4
:103E00000895B091271EB1FF7ECD0D946D0780916E
:103E1000271E81FF06C02091290630E12327209329
:103E200029064091290644FD6ECD0D94E30D2091A5
:103E30006D1E30916E1E2115310509F464CDA0E18F
:103E4000B7E20F9464952091B41D3091B51D50E0F8
:103E500040E00F94099530933C0C20933B0C0F9459
:103E6000B25330914F1E386030934F1E08957091B9
:103E7000271E71FF48CD0E944AF8809128068F7D49
:103E80008093280608955091271E51FF3CCD0C9435
:103E900074F5A091271EA1FF36CD0D948504A09145
:103EA000271EA1FF06C0B0912806E1E0BE27B0930F
:103EB00028069091280690FD26CD0C948AFAB091A0
:103EC000271EB1FF06C0E091290698E0E927E0939C
:103ED0002906F0912906F3FD16CD0D94140E80915C
:103EE000271E81FF10CD0F94800E209129062D7F73
:103EF0002093290608954091271E41FF05C0509147
:103F000028065058509328066091280667FDFBCC80
:103F10000C9444F49091271E91FF06C0F09128065E
:103F200080E4F827F09328062091280626FDEBCCA4
:103F30000C9445F6E091271EE1FFE5CC0F944A0E64
:103F4000F0912906FB7FF093290608955091271ED2
:103F500051FFD9CC0F94810D609129066F7B60933E
:103F60002906089520916D1E30916E1E2115310590
:103F700009F4C9CCA0E1B7E20F9464952091B41D77
:103F80003091B51D50E040E00F94099530933E0C00
:103F900020933D0C0F94B253F0914F1EF860F093B4
:103FA0004F1E0895F091271EF1FF06C0809129064B
:103FB00022E08227809329063091290631FDA3CC87
:103FC0000D94800E6091271E61FF9DCC0E9445F6E6
:103FD000709128067F7B7093280608956091271EB4
:103FE00061FF91CC0F94510D709129067F777093EA
:103FF000290608954091271E41FF06C050912906C9
:1040000064E05627509329067091290672FD7BCCF7
:104010000D944A0E20916D1E30916E1E21153105B2
:1040200009F471CCA0E1B7E20F9464952091B41D1E
:104030003091B51D50E040E00F94099530933A0C53
:104040002093390C0F94B253B0914F1EB860B093C7
:104050004F1E08952091271E2D7F2093271E0E941A
:104060008AFA0E9485F80E9480F60E947EF40E94DF
:104070004FFA0F94B60E0F94800E0F944A0E0F94C1
:10408000140E109229061092280608953091271ECA
:1040900031FF39CC0F94B60E409129064E7F4093E4
:1040A000290608953091271E31FF2DCC0E948AFAEF
:1040B000409128064E7F4093280608955091271E70
:1040C00051FF21CC0D943D076091271E61FF1BCC51
:1040D0000D94EE054091271E41FF15CC0C9478F706
:1040E0007091271E71FF06C0A0912806B0E2AB2791
:1040F000A0932806E0912806E5FD05CC0C944AF82B
:104100002091E6083091E7084091E8085091E908CD
:104110008091F2089091F308A091F408B091F5080D
:10412000281B390B4A0B5B0B69CC08950895089541
:10413000089508950895089508950895CF93DF93FD
:1041400000D01F92CDB7DEB7982F8F3010F00F94AC
:104150000696E82FF0E08827EF54FF4D8F4F0D941F
:104160008F95D320D520DB20E220FC2002210A21DC
:104170001B2138217221792180218821C020CC2067
:104180006038710508F4E9C080E00F900F900F903F
:104190000F90DF91CF910895603281E07807A0F70A
:1041A0008CE996E115C0892FF0CF6038710560F772
:1041B0008DEC9BE035C0603221E0720728F781E783
:1041C0009AE106C0603231E07307F0F683EE97E1C2
:1041D0006F3F710509F008F4EEC06031F1E07F0730
:1041E00008F013C1895F9E4F7727660F771F680F0E
:1041F000791F7A836983A8C06038710528F68AE33D
:104200009CE10EC0603281E0780708F0BDCF85E503
:1042100095E1DECF6038710508F0B6CF8DEA9EE1FA
:10422000680F791FFB0180810F900F900F900F9006
:10423000DF91CF9108956035710508F491C0603A1F
:10424000710508F49BC0603F710508F09DCF605A6E
:1042500071098EEE94E1262F6034710508F4A2C036
:104260006834710508F0D6C0895B9F4F205432C076
:104270006033710508F47AC06036710508F483C0B4
:104280006039710508F4A9C0603C710508F4D1C01B
:10429000603F710508F4D2C06032E1E07E0708F4A7
:1042A000D2C06035F1E07F0708F4D2C0603821E069
:1042B000720708F069CF605571408AE391E1262FBB
:1042C0006432710508F47BC06A32710508F08AC057
:1042D0008B96245230E0220F331F820F931F9A8354
:1042E000898332C0603C710508F04ECF8DE09BE0C1
:1042F00097CF603C710508F047CF83EF9CE190CFEA
:10430000603231E0730708F03FCF8AE299E160CF75
:104310006035710540F1603A710558F1683B7105EF
:1043200008F032CF605A71096031710588F164314B
:10433000710508F073C06051862F90E0880F991FB7
:10434000865D9E4E9A838983A8E7B2E0BC83AB83E7
:10435000CE0101960E945E1518CF8DE89AE060CFDD
:1043600087E894E178CF82E593E175CF8FE093E120
:10437000A6CF6055710989EB93E16DCF6055710946
:1043800080E294E168CF605371098CEC92E197CFA1
:10439000E62FE370EA5FEE0FE61BF0E0ED5EFE4E07
:1043A0008781F3CE2770245E220F261B820F911D7A
:1043B000FC018781EACE262F2F702858F5CF2BEAF3
:1043C000629F412D112446954695342F330F430F9C
:1043D000440F262F241B215FE7CF6056710989E81F
:1043E00092E16DCF8F5B9F4F2A5230E0220F331F37
:1043F000821B930B9A83898360E872E07C836B83D2
:10440000CE0101960E945E15C0CE8B5B9E4F60511F
:10441000262FEBCF8B599F4F2854E7CF6451862F1F
:1044200090E0880F991F919581959109885C9E4E27
:10443000E1CF6059710986E492E141CF605C710976
:1044400083E092E13CCF605F710980EC91E137CF6E
:10445000605271408DE791E132CF8F3010F00F94B0
:104460000696E82FF0E08827E75CFD4D8F4F0D940E
:104470008F958A229A22A122A922B122B822C02293
:10448000C7224822F422FB22062326238B229222D3
:104490006033710508F412C16036710508F41BC160
:1044A0006039710508F44FC1603C710508F492C190
:1044B000603F710508F493C1603281E0780708F429
:1044C00093C16035E1E07E0708F493C16038F1E004
:1044D0007F0700F560557140AAE3B1E1862F643291
:1044E000710508F41CC16A32710508F031C18452AB
:1044F000E82FF0E0EE0FFF1FEA0FFB1F34E6439FAB
:10450000C001112494A783A78FEF9FE713969C9374
:104510008E93129708956038710508F0C7C08DE832
:104520009AE06FC06032E1E07E0708F0BEC0ACE9FF
:10453000B6E173C06038710508F0B6C08DEC9BE041
:1045400060C0603281E0780708F0ADC0A1E7BAE151
:1045500064C06032E1E07E0708F0A4C0A3EEB7E1DA
:104560005CC06038710508F09CC08AE39CE149C0DA
:104570006032F1E07F0708F093C0A5E5B5E14DC0DA
:104580006038710508F08BC08DEA9EE13AC0603555
:10459000710508F490C0603A710508F497C0603F57
:1045A000710508F0B7CF605A7109EEEEF4E1862F7D
:1045B0006034710508F49EC06834710508F0E9C0E4
:1045C0008054A82FB0E0AA0FBB1FAE0FBF1FA95B7E
:1045D000BF4F54E6459F900111242D933C934FEF1C
:1045E0005FE7538342830895603C710508F05FC024
:1045F0008DE09BE006C0603C710508F04FC083EF82
:104600009CE1680F791FFB0140830895603281E0CF
:10461000780708F042C0AAE2B9E16F3F710509F0DE
:1046200008F473C06031E1E07E0708F0A1C0FB012F
:10463000FF27EE0FFF1FEA0FFB1FE95FFE4F74E637
:10464000479FB0011124718360835ECF603571058F
:1046500078F1603A7105A8F1683B710508F05ACF0E
:10466000605A710960317105D8F16431710508F043
:10467000A0C06051E62FF0E0EE0FFF1FE65DFE4E9A
:1046800024E6429FA0011124518340836FEF7FE70E
:104690007093161160931511089508950895089563
:1046A0000895089508950895089508950895089522
:1046B000E2E5F3E17CCFE7E8F4E179CFAFE0B3E105
:1046C0000DCF60557109E9EBF3E171CF60557109C8
:1046D000E0E2F4E16CCF60537109ACECB2E1FECEE4
:1046E000E62FE370EA5FEE0FE61BF0E0ED5EFE4EB4
:1046F0004783CCCFA62FA770A45EAA0FA61BAE0F30
:10470000BF2FB11D17964C936ACFE62FEF70E85874
:10471000EE0FE61BEA0FFB2FF11D4783F5CE8BEA68
:10472000689F812D112486958695982F990F890F62
:10473000880FE62FE81BE15FEE0FE61BEA0FFB2F69
:10474000F11D4783E1CE60567109A9E8B2E1C6CEFA
:104750008A5290E0880F991FFD01E81BF90BEF5B6F
:10476000FF4F842F90E0880F991F91838083CCCED8
:104770006051862F90E0880F991FFD01E81BF90B0F
:10478000EB5BFE4F842F90E0880F991F918380830D
:10479000BBCE885490E0880F991FDF01A81BB90B8E
:1047A000AB59BF4F842F90E0880F991F8D939C9336
:1047B00016CF6451E62FF0E0EE0FFF1FF195E19563
:1047C000F109E85CFE4E842F90E0880F991F9183D9
:1047D00080835CCF60597109A6E4B2E17FCE605C52
:1047E0007109A3E0B2E17ACE605F7109A0ECB1E19A
:1047F00075CE60527140ADE7B1E170CECF92DF92DD
:10480000EF92FF921F93CF93DF937B014091550E60
:104810005091560E6091570E7091580E41155105EA
:104820006105710511F41092151E4F5F5F4F6F4FB8
:104830007F4F4093550E5093560E6093570E7093D2
:10484000580E2091B31D5091011EC090011E30E002
:104850003195219531092527207833272C25209360
:10486000011E1092C907E114F104A1F06C0110E0DF
:1048700090E080E0D0E0C0E08C0D9D1D0F94BB3730
:10488000C753D84F89831F5FC12FD0E0CE01CE150B
:10489000DF0590F380914F1E877F80934F1EDF913D
:1048A000CF911F91FF90EF90DF90CF9008952F92BE
:1048B0003F924F925F926F927F928F929F92AF92B0
:1048C000BF92CF92DF92EF92FF920F931F93CF93FD
:1048D000DF93CDB7DEB7AA970FB6F894DEBF0FBE51
:1048E000CDBF3C016AA3633009F451C708F437C750
:1048F0002AA1243009F427C2253009F05EC79C01A3
:104900002B5B3E4F1C0157EF250E311C099798A7D2
:104910008FA3F1E080E190E0A0EFBFEFBCA3ABA3D9
:1049200040E852E05EA34DA34FA058A442145304A4
:1049300009F425C2B9016E5F7F4F7AA769A72101EB
:10494000480E591E30E020E001E0AAE08A2E912CAA
:10495000A12CB12C11E0DB015E914E91BAA7A9A761
:10496000EF2FEF712115310509F488C5DA010F9495
:1049700097956C01FF24D7FCF094EF2CC601F6FF4D
:104980000EC08F2FFF0F990B880F892F881F990B4F
:1049900048275927481B590BCA018C0D9D1D02C081
:1049A00095958795EA95E2F797FD0196D82EB3E69F
:1049B000EBE8FFE0B81708F092C12D2D30E050E091
:1049C00040E019A2CE0181966C01CA01B901A5018E
:1049D00094010F940995605DD6016E936D012115C8
:1049E00031054105510589F7109709F43EC0FD01D5
:1049F00001900020E9F79F01FD01215031092E1798
:104A00003F0799F1F19000930E0F7091110F4091B3
:104A1000120FA091060FB091070F741709F40CC381
:104A20004091110F50E04F5F5F4F4F735527942F08
:104A300003C00FB607FE9FC25091120F9517C9F31E
:104A4000A091110FB0E0AD5AB04FFC92DFB6F894D0
:104A50004093110FA091080FB091090F8C918062C3
:104A60008C93DFBE2E173F0769F6EDE8FFE0F49068
:104A7000FF2099F100930E0F3091110F2091120F2A
:104A8000A091060FB091070F321709F41AC32091B5
:104A9000110F30E02F5F3F4F2F733327E22E03C0FB
:104AA0000FB607FEDDC28091120FE816C9F3A09180
:104AB000110FB0E0AD5AB04FFC92CFB6F8942093EE
:104AC000110FA091080FB091090F7C9170627C9337
:104AD000CFBE3196F490F110CDCF61014214530452
:104AE00009F49BC0D6012D916D01EBE8FFE024365F
:104AF00008F410C330E050E040E019A2CE018196E6
:104B00007C01CA01B901A50194010F940995605D6A
:104B1000D7016E937D01211531054105510589F7B6
:104B2000109709F43EC0FD0101900020E9F7AF01A4
:104B3000FD01415051094E175F0799F1F190109313
:104B40000E0F2091110F3091120FA091060FB0910E
:104B5000070F231709F473C32091110F30E02F5F63
:104B60003F4F2F733327622F03C00FB607FE06C3D4
:104B70009091120F6917C9F3A091110FB0E0AD5ACF
:104B8000B04FFC92EFB6F8942093110FA091080F4C
:104B9000B091090F8C9180628C93EFBE4E175F0726
:104BA00069F6EDE8FFE04491442399F110930E0F6C
:104BB0005091110FF090120FA091060FB091070FB6
:104BC0005F1509F481C32091110F30E02F5F3F4F33
:104BD0002F733327922F03C00FB607FE44C3709183
:104BE000120F9717C9F3A091110FB0E0AD5AB04F53
:104BF0004C93EFB6F8942093110FA091080FB09149
:104C0000090F8C9180628C93EFBE319644914111D3
:104C1000CDCF4C145D0409F065CFA7E9B2E0DD907B
:104C200000930E0F9091110FE090120FE091060F7C
:104C3000F091070F9E1509F48DC32091110F30E0FC
:104C40002F5F3F4F2F733327322F03C00FB607FE5E
:104C500050C36091120F3617C9F3E091110FF0E0C5
:104C6000ED5AF04FD0825FB7F8942093110FE09186
:104C7000080FF091090F7081706270835FBF69E95E
:104C800072E06A177B0759F6EBA0FCA02E0C3F1CC4
:104C90004E0C5F1C4FA158A54215530509F46FC077
:104CA000ADA1BEA11396FC91139711962D913C9145
:104CB000A9A5BAA551CEFC90F5FE21C0EFB6F89497
:104CC000A0910C0FB0910D0FCC92A091060FB09156
:104CD000070F3C91337030643C93EFBE3196C49023
:104CE000CC2009F4EEC300930E0F9091110FE090C9
:104CF000120FA091060FB091070F9E15E1F22091BF
:104D0000110F30E02F5F3F4F2F733327322F03C037
:104D10000FB607FE60C15091120F3517C9F3A0916D
:104D2000110FB0E0AD5AB04FCC927FB7F8942093FA
:104D3000110FA091080FB091090F2C9120622C93B4
:104D40007FBF3196CCCF9C012B593F4F1C015FE3B5
:104D5000250E311CFC013197F8A7EFA3F0E088E0A5
:104D600090E008EF1FEF1CA30BA36CE772E07EA39B
:104D70006DA34FA058A44214530409F0DBCD0FE8F3
:104D80001FE008C086EF9EE00F94803B0F5F1F4F2F
:104D9000892B21F0F80164916111F4CFBAA1B530EB
:104DA00008F0D1C4B33008F0BEC4B23009F0C3C4B7
:104DB00073018FE1E80EF11C97E1690E711C6E140E
:104DC0007F0409F4B3C011E02AE0822E912CA12CBB
:104DD000B12CF301A191B1913F012CEE31E50F947B
:104DE0009F959C0135952795359527953595279560
:104DF0003595279535952795022F37FD0395EBE8D7
:104E0000FFE0043608F489C3202F30E050E040E092
:104E100019A2CE0181961C01CA01B901A501940114
:104E20000F940995605DD1016E931D012115310527
:104E30004105510589F71097E9F1FD010190002026
:104E4000E9F7AF01415051094A175B0799F13D90CD
:104E500010930E0F5090110FD090120FE091060F8B
:104E6000F091070F5D1409F4EDC32091110F30E0AC
:104E70002F5F3F4F2F733327322F03C00FB607FE2C
:104E800080C36091120F3617C9F3E091110FF0E063
:104E9000ED5AF04F30824FB6F8942093110FE09105
:104EA000080FF091090F2081206220834FBE4A171E
:104EB0005B0769F6EDE8FFE04491442399F1109314
:104EC0000E0F5091110F3090120FA091060FB0915C
:104ED000070F531509F4FBC32091110F30E02F5F2A
:104EE0003F4F2F733327D22E03C00FB607FEBEC32A
:104EF0006091120FD616C9F3A091110FB0E0AD5A10
:104F0000B04F4C934FB6F8942093110FA091080F17
:104F1000B091090F2C9120622C934FBE3196449191
:104F20004111CDCFE614F70409F053CF6DE086EFC1
:104F30009EE00F94803B892B09F456C46AE086EF0B
:104F40009EE0AA960FB6F894DEBF0FBECDBFDF91EC
:104F5000CF911F910F91FF90EF90DF90CF90BF9076
:104F6000AF909F908F907F906F905F904F903F9009
:104F70002F900D94803BEC90E5FE5ECDA091120F3A
:104F8000B0E0AD5AB04FCC90A091120FB0E01196A6
:104F9000AF73BB27A093120FA0910C0FB0910D0F10
:104FA000CC92A091060FB091070F7C917370706442
:104FB0007C93B091110F6091120FB61307C0A091AE
:104FC000080FB091090F5C915F7D5C93A091060F73
:104FD000B091070F31CD8C9185FF9DCEA091120F1E
:104FE000B0E0AD5AB04F4C916091120F70E06F5F1E
:104FF0007F4F6F7377276093120FA0910C0FB091C2
:105000000D0F4C93A091060FB091070F6C91637038
:1050100060646C93B091110F9091120FB91307C097
:10502000A091080FB091090F5C915F7D5C93A091F6
:10503000060FB091070F6FCE6C9165FFF1CC4FB7A3
:10504000F894A0910C0FB0910D0FFC92A091060F57
:10505000B091070F9C91937090649C934FBFCFCCFD
:105060006C9165FF20CDA091120FB0E0AD5AB04F0A
:105070005C916091120F70E06F5F7F4F6F737727C5
:105080006093120FA0910C0FB0910D0F5C93A09143
:10509000060FB091070F4C91437040644C93B09150
:1050A000110F9091120FB91307C0A091080FB09182
:1050B000090F3C913F7D3C93A091060FB091070FE3
:1050C000F2CCDC90D5FEE3CC2FB7F894A0910C0F76
:1050D000B0910D0FFC92A091060FB091070F8C912B
:1050E000837080648C932FBF3196F4CC6C9165FFF4
:1050F00021C05FB7F894A0910C0FB0910D0FFC92F6
:10510000A091060FB091070F3C91337030643C932F
:105110005FBF3196F490FF2009F430C110930E0F59
:10512000E090110F7091120FA091060FB091070F30
:10513000E716E1F24091110F50E04F5F5F4F4F7360
:105140005527542F03C00FB607FE48C09091120F89
:105150005917C9F3A091110FB0E0AD5AB04FFC92AE
:105160003FB7F8944093110FA091080FB091090F29
:105170004C9140624C933FBF3196CCCF3C9135FF70
:10518000F7CCA091120FB0E0AD5AB04F7C91A09136
:10519000120FB0E01196AF73BB27A093120FA0912E
:1051A0000C0FB0910D0F7C93A091060FB091070FDB
:1051B0009C91937090649C93B091110FE090120FAA
:1051C000BE1107C0A091080FB091090F8C918F7D7F
:1051D0008C93A091060FB091070FCACC8C9185FFDC
:1051E000B5CFA091120FB0E0AD5AB04FEC906091E6
:1051F000120F70E06F5F7F4F6F7377276093120F0E
:10520000A0910C0FB0910D0FEC92A091060FB091F0
:10521000070F7C91737070647C93B091110F609153
:10522000120FB61307C0A091080FB091090F9C91FF
:105230009F7D9C93A091060FB091070F87CF7C9123
:1052400075FF8ACC2FB7F894A0910C0FB0910D0F79
:10525000FC92A091060FB091070F6C91637060648F
:105260006C932FBF68CC6C9165FFB9CCA091120FE5
:10527000B0E0AD5AB04F5C916091120F70E06F5F7B
:105280007F4F6F7377276093120FA0910C0FB0912F
:105290000D0F5C93A091060FB091070F3C913370F6
:1052A00030643C93B091110FF090120FBF1107C002
:1052B000A091080FB091090F7C917F7D7C93A09104
:1052C000060FB091070F8BCC3C9135FF7CCC2FB7EC
:1052D000F894A0910C0FB0910D0F4C93A091060F74
:1052E000B091070F4C91437040644C932FBF31969F
:1052F0008DCCF080F5FEADCCE091120FF0E0ED5AD0
:10530000F04F40816091120F70E06F5F7F4F6F73BD
:1053100077276093120FE0910C0FF0910D0F4083EF
:10532000E091060FF091070F908193709064908345
:10533000F091110FC090120FFC1107C0E091080FFF
:10534000F091090F80818F7D8083E091060FF091AD
:10535000070F7FCC808185FF70CC2FB7F894E09148
:105360000C0FF0910D0FD082E091060FF091070F16
:1053700030813370306430832FBF81CCE9E8FFE0A7
:105380002A3008F0B7CBF490FF2009F4B3CB109388
:105390000E0F4091110F8091120FA091060FB09146
:1053A000070F481709F455C04091110F50E04F5FA7
:1053B0005F4F4F735527942F03C00FB607FE18C0D9
:1053C0007091120F9717C9F3A091110FB0E0AD5A69
:1053D000B04FFC926FB7F8944093110FA091080F53
:1053E000B091090F5C9150625C936FBF3196CBCF47
:1053F0003C9135FFE5CFA091120FB0E0AD5AB04F10
:105400008C916091120F70E06F5F7F4F6F73772701
:105410006093120FA0910C0FB0910D0F8C93A0917F
:10542000060FB091070F7C91737070647C93B091FC
:10543000110FE090120FBE1107C0A091080FB0919C
:10544000090F6C916F7D6C93A091060FB091070FBF
:10545000B7CFEC90E5FEA8CF4FB7F894A0910C0F12
:10546000B0910D0FFC92A091060FB091070F9C9187
:10547000937090649C934FBF319685CF2F2FFF0F71
:10548000330B220F232F221F330B8FEF9FEF0E2E94
:1054900002C0880F991F0A94E2F780959095BA018F
:1054A000770F660B762F86239723840F951F02C0F4
:1054B00095958795EA95E2F782279327821B930BB0
:1054C00075CAF9E0FD1508F478CA39E8E32E3FE023
:1054D000F32E0AC086EF9EE00F94803BFFEFEF1A99
:1054E000FF0A892B09F469CAF70164916111F2CFAF
:1054F00064CA5C9155FF21C02FB7F894A0910C0F9E
:10550000B0910D0F3C92A091060FB091070F9C91A6
:10551000937090649C932FBF31963490332009F49C
:10552000EBC010930E0F5090110FD090120FA0915E
:10553000060FB091070F5D14E1F22091110F30E0DA
:105540002F5F3F4F2F733327922F03C00FB607FEF5
:1055500048C07091120F9717C9F3A091110FB0E0D6
:10556000AD5AB04F3C92CFB6F8942093110FA09152
:10557000080FB091090F8C9180628C93CFBE319649
:10558000CCCF908195FF7DCCE091120FF0E0ED5AE9
:10559000F04F0081E091120FF0E03196EF73FF279A
:1055A000E093120FE0910C0FF0910D0F0083E0914A
:1055B000060FF091070F8081837080648083F091E3
:1055C000110FC090120FFC1107C0E091080FF0916D
:1055D000090F70817F7D7083E091060FF091070FB6
:1055E00050CC3C9135FFB5CFA091120FB0E0AD5A31
:1055F000B04F2C906091120F70E06F5F7F4F6F7310
:1056000077276093120FA0910C0FB0910D0F2C9281
:10561000A091060FB091070F6C91637060646C935A
:105620004090110F4091120F441207C0A091080F33
:10563000B091090F5C915F7D5C93A091060FB091D2
:10564000070F87CF708175FF10CC2FB6F894E091CB
:105650000C0FF0910D0F3082E091060FF091070FC3
:1056600030813370306430832FBEEECB9C9195FF38
:105670003FCCA091120FB0E0AD5AB04F0C916091A9
:10568000120F70E06F5F7F4F6F7377276093120F79
:10569000A0910C0FB0910D0F0C93A091060FB0913B
:1056A000070F8C91837080648C93B091110FC09020
:1056B000120FBC1107C0A091080FB091090F7C9187
:1056C0007F7D7C93A091060FB091070F11CC5C9069
:1056D00055FE02CC2FB6F894A0910C0FB0910D0F8F
:1056E0004C93A091060FB091070F3C91337030643A
:1056F0003C932FBE319613CC0A3008F085CB89E855
:10570000C82E8FE0D82E0AC086EF9EE00F94803B13
:10571000FFEFCF1ADF0A892B09F476CBF6016491EB
:105720006111F2CF71CB7301A7E5EA0EF11CB7E46A
:105730006B0E711C44CB730147E3E40EF11C5BE27A
:10574000650E711C3CCBB530B1F77301E9EDEE1A73
:10575000EEEFFE0AF9EF6F1AFEEF7F0A30CB6230F0
:1057600061F59C012B5D3F4F1C0153E1250E311C5F
:10577000039698A78FA3F1E084E090E0ACEFBFEF31
:10578000BCA3ABA340E852E05EA34DA3CDC89C01EF
:105790002B593F4F1C015FE3250E311C019798A741
:1057A0008FA3F1E088E090E0A8EFBFEFBCA3ABA32C
:1057B00040E852E05EA34DA3B7C893012F5B3F4F73
:1057C000130145E2240E311CF3013196F8A7EFA333
:1057D000F1E086E090E00AEF1FEF1CA30BA360E866
:1057E00072E07EA36DA3A0C8AA960FB6F894DEBFA0
:1057F0000FBECDBFDF91CF911F910F91FF90EF9022
:10580000DF90CF90BF90AF909F908F907F906F90E0
:105810005F904F903F902F9008956F927F928F925C
:105820009F92AF92BF92CF92DF92EF92FF921F931F
:10583000CF93DF93CDB7DEB7A1970FB6F894DEBF55
:105840000FBECDBF3B018617970709F49BC07C01B3
:105850008AE0882E912CA12CB12C11E0F701219126
:105860007F0130E050E040E019A2CE0181966C014A
:10587000CA01B901A50194010F940995605DF60173
:1058800062936F01211531054105510589F7309764
:10589000E9F101900020E9F7AF01F601415051090B
:1058A0004E175F0799F1919110930E0F2091110FF0
:1058B000D090120FA091060FB091070F2D1509F48B
:1058C000DDC02091110F30E02F5F3F4F2F73332742
:1058D000822F03C00FB607FEA0C06091120F86177B
:1058E000C9F3A091110FB0E0AD5AB04F9C937FB7B0
:1058F000F8942093110FA091080FB091090F9C917B
:1059000090629C937FBF4E175F0769F6E7E8FFE060
:105910004491442399F110930E0F5091110F9091DF
:10592000120FA091060FB091070F591709F4EBC0A1
:105930002091110F30E02F5F3F4F2F733327D22E6E
:1059400003C00FB607FEAEC03091120FD316C9F3D5
:10595000A091110FB0E0AD5AB04F4C936FB7F894CF
:105960002093110FA091080FB091090F7C917062E4
:105970007C936FBF319644914111CDCF6E147F045B
:1059800009F06CCFA7E9B2E051E07D9050930E0F83
:105990008090110F9090120FE091060FF091070F79
:1059A000891409F4F6C02091110F30E02F5F3F4FAA
:1059B0002F733327B22E03C00FB607FEB9C0F09085
:1059C000120FBF14C9F3E091110FF0E0ED5AF04F40
:1059D0007082DFB6F8942093110FE091080FF091D8
:1059E000090F608160626083DFBEF2E0A939BF0702
:1059F00061F6A1960FB6F894DEBF0FBECDBFDF9162
:105A0000CF911F91FF90EF90DF90CF90BF90AF901C
:105A10009F908F907F906F900895CC90C5FE5DCF42
:105A2000A091120FB0E0AD5AB04FDC906091120F10
:105A300070E06F5F7F4F6F7377276093120FA091B5
:105A40000C0FB0910D0FDC92A091060FB091070FD3
:105A50003C91337030643C93B091110F6091120F00
:105A6000B61307C0A091080FB091090F7C917F7DFC
:105A70007C93A091060FB091070F2FCF3C9135FF7B
:105A800020CF2FB7F894A0910C0FB0910D0F9C93DD
:105A9000A091060FB091070F8C91837080648C9356
:105AA0002FBFFECE8C9185FF4FCFA091120FB0E09B
:105AB000AD5AB04F5C916091120F70E06F5F7F4FF5
:105AC0006F7377276093120FA0910C0FB0910D0F99
:105AD0005C93A091060FB091070F9C919370906416
