:100000000C94C2100D94173F0D94EC3E0D94C13E1C
:100010000D94963E0D946B3E0D94403E0D94153E0E
:100020000D94EA3D0C94F3100C94F3100C94F3101F
:100030000C94F3100C94F3100C94F3100C947BC0FC
:100040000C94F3100C940C500C94024E0D94381A2E
:100050000C94F3100C94F3100C94F3100D944C5C6E
:100060000C94F3100D94AA400D946A400C94F31074
:100070000C94F3100C94F3100C94F3100C94F310F4
:100080000C9406BE0C948BBD0C9410BD0C94F31014
:100090000C94F3100C94F3100C94F3100C94F310D4
:1000A0000C94F3100C94F3100C942DBA0C9495BC92
:1000B0000C9493B90C94F3100C94F3100C94FBBBB8
:1000C0000C9461BB0C94C7BA0C94F3100C94F3100D
:1000D0000C94F3100C94F3100D9433400D94F33FF3
:1000E0000C94F3100C94AF330C945E230C94CBC798
:1000F0000D94F60A0D9457160D9444120D94684C05
:100100000C94F56C0C94D7C70C94BC560D94EA482B
:100110000C94CA210C94CC790D9410480C941AAA12
:100120000C94EDDD0C9424210C9472830C9426F134
:100130000C94C09B0C941AEE0C9433210D94BA4A83
:100140000D941E4C0C947C6B0C94CEE60C941EE427
:100150000D94D93F0C9428640C94D83F0C94B08A29
:100160000C947BCB0C9467C70C9407570C94D3C8A2
:100170000C9403C70C942EC70C94B3870C94915322
:100180000C94EAC80C94A2840C9449C70C94E6C75A
:100190000C94E6840C94A0970D941D1F0C94DF1210
:1001A0000C942EAA0D94A1370C948D520C94AB880C
:1001B0000D94C1300C942AAA0C9425C70C942CAA37
:1001C0000C94D6C80C9426170C94936A0D942A4A62
:1001D0000C941E780C9422C70C943AE20D940A1FDA
:1001E0000C9473850D94F4300C94D4C70D943D6435
:1001F0000C9473210C9486C80C9484CF0D94504CAD
:100200000C944D950C949F560C941CAA0D946F3F22
:100210000C9456E90C9430640C947FC70C945A21CA
:100220000D94F2480C94E9750C94CC690C9440C878
:100230000D94253C0D94EA360C944FC70C9406C7D8
:100240000C941CCA0C94F3EC0C94AE650D94384CD1
:100250000C94DAC70C9418230C9485FA0C94908DA6
:100260000C9478870C94DCC80C94B8890C941E9B71
:100270000C94B0C70C94A9990C9418790C945D9DBA
:100280000D945A0D0C940F640C948CC80D949235F7
:100290000C94FE930C9428C70C94E2220C947E23B9
:1002A0000C9494DC0C94939D0C9405970D94284C1D
:1002B0000C94028D0C94ADE50C94FCE30C946DC988
:1002C0000C94A4C70C9422C80C9461560C94B3D916
:1002D0000C944B110C9410C80C9473C70C9449DF08
:1002E0000D9494660C94DE650C94549E0C943DC75A
:1002F0000C946B560C9479740C9419C70C948C6BF9
:100300000C9434AA0C94D1C70D94433D0C94BA6557
:100310000C9418210C9498D60D94601E0C94D869F6
:100320000C942B210C94796B0D946D750D94D579EB
:100330000C94978E0C941EAA0C9455D70C942838C4
:100340000C9473C90C94F6D60D94467A0C94ADC7F0
:100350000C94D0520C9446C70C94ECC70C94A4CEC9
:100360000C94F3C80C94AF530C94E7C80C942E9CD7
:100370000C9412C70C94D8210C94D5D40C94181A50
:100380000C944C230C94D7560C94C9930D94633F52
:100390000C94F5C70C9447740C94FA6B0C94E4F22B
:1003A0000C94CA920C9482950C942D9A0C9409C7C3
:1003B0000C948BC70C9462EB0D94651D0C9440C794
:1003C0000D94D5070C94AE680C9438AA0C943AC7D7
:1003D0000C94F3890C9452C70C9434C70C9439C80C
:1003E0000C94FBC70C9410650C94C2C70D94A41612
:1003F0000C94B6C70C941CC70C9466390C946DC74A
:100400000C94C16A0C942D610C949DFC0C94718326
:100410000C946E120C9437C70C944FFC0C948765A7
:100420000C9430930C94B1C80D9456470C94181347
:100430000D94234C0C9465C90C943D300C94D1154B
:100440000D94933D0C94C1790C9454E30C94846105
:100450000D940B110C94F0C80C944CC70C94E6DF6F
:100460000C9404C80D944A4C0D94E9630C943478B0
:100470000D945E370C94DF520C9401C80D94324CED
:100480000C944ADF0C94C1520C9464C70D948F7580
:100490000D94BD0F0C943A210C944B560C9455E9D5
:1004A0000C94E4910D94653F0C945EC70C9444DB6E
:1004B0000C9468D40C94E0C70C94F6C80C94A02259
:1004C0000C94D0C80C9470C70C9462210D94D13F49
:1004D0000D945C4C0C94F8C70C94EDC80C94BCC7FC
:1004E0000D9476750C94898C0C94F5D70D94431764
:1004F0000C94D7790D94ED170C9495560C9428AA6A
:100500000C944F3F0C9463EB0C94606B0D9425108E
:100510000C94B1C90C94AE850D94780F0D944008DD
:100520000C94C7C80C9415C70C9423790C94BAC8C2
:100530000D94444C0D94624C0C9427C80C947D8906
:100540000C94346A0D94ED090C9413C80C9431C7C3
:100550000D94A60A0C94B3520C940DE50C946965A5
:100560000C94B3C70D943A0B0D9459300C949C52D3
:100570000C94B9C70C94108F0C94D1210C942BC7F8
:100580000D94661F0C94FEC70C94E9C70C94135687
:100590000C9471780C94F2560C94D4EB0D94531483
:1005A0000D94CE780C9439EA0C94B36B0C9483536D
:1005B0000C9434E10C94FC560D9430130C94815639
:1005C0000D9411790C94B1170C9468300C94BDC83B
:1005D0000C94C1650C94CF140D94480A0C944E747D
:1005E0000D94564C0D940E660C94AC830C94D05321
:1005F0000C94C0740C942A610D94AD310C94EA22D1
:100600000C9428990C9454210C94C8750C945BC7D5
:100610000C94E3C80C9433E10C94F9C80C94445343
:100620000C9472650D94632C0C9430AA0C946EC9D2
:100630000C947EDE0C948E6A0D94AE080C94DFC888
:100640000C9410230D9417750C9418640C9483CC9F
:100650000C944BDF0D9483110D94C53F0C949DF8C1
:100660000D94785D0C94D3CA0C9424AA0C94ABD846
:100670000C9453230C9440D50D946E4C0C940AC8E2
:100680000C9485780C948AE40C949DCD0C94359E42
:100690000C94D9C80C94856B0C94C0C80C9458C7A2
:1006A0000C94FFDE0D940B370C94C8C70D94A13643
:1006B0000D943F790D94C10D0C9476C70C94C99D8F
:1006C0000D949F750C942BD60C94EF880C94A2E893
:1006D0000D94744C0C948EC70C9490210D94C24AC6
:1006E0000D9482790C9420AA0D949B0C0C941E916D
:1006F0000C94EB650C9452C80C94E3220C94B763F1
:100700000D947A300D940E200C9429140D94877555
:100710000C94AAC70D94FA480C94A4620C942498E3
:100720000C9476560C94866A0C946C8A0C940CC7C4
:100730000C9416C80C94F0680C94BF2E0C9422AA4A
:100740000D949E7A0C946AC70C9443680C94EFC77E
:100750000C9417900C94383C0D94A40C0C945A40B3
:100760000C94E9850C94FD650D94DD3C0C946A694C
:100770000C947CCA0C9482C70D94AC670C941CC872
:100780000C9419C80C94B0C90D94A63F0C947CC766
:100790000C942AC80C94A7C70C949E8F0C947F527B
:1007A0000C94A7D00C94ED520D9452110C94FF9D13
:1007B0000D94400E0C94DDC70C94F2220C941D96FF
:1007C0000C94AEC80C94DD3A0D9413090D943B477C
:1007D0000C94F2C70D94BF900C9455C70C94F1CFB4
:1007E0000C94098E0D9448630C94FB8B0C94CEC72B
:1007F0000C9444120C942E560C94A0910C942D2120
:100800000C9426D20C941FE40C94E0210C94012348
:100810000C94D1730C941F230D94B73F0D947F3D1E
:100820000D94484B0D94673F0C948B560C9463C801
:100830000C941A530C94B7C80D9435150C94E78397
:100840000C94A6860D94244C0C9432AA0C94D36973
:100850000C9427740C94EA860C94A76F0D947F7502
:100860000C941FC70C94CDC80D94E53F0C9466788A
:100870000C94FBE30D942C1C0D9459750C94C8E951
:100880000D94C7150C94F48A0C9443C70D942C4C0A
:100890000D94FA4A0C9407C80C9488C70D946B3FCA
:1008A0000C94FAF50C94F5100C9409230D94B349AB
:1008B0000D949A060C94FC6C0C9482630C947F94B7
:1008C0000C94F9220C94E3C70C94C8690C9436AAD2
:1008D0000D940A3C0C94C5C70D946D3F0C94828B0B
:1008E0000C940DC80D943E4C0C944CE70D94863F2F
:1008F0000C94BFC70C94B1E10D94DE4A0D945731AE
:100900000D941E670C9466190C94B1CB0C94A590B1
:100910000D94FD310C940FC70C94166D0D9489093C
:100920000C94BD6F0D94F60E0C94C16B0D946C1865
:100930000C94076A0D94693F0D9433480C943E74EF
:100940000C9495F70C943ED80C9461C70D94F00666
:100950000D94373C0C94CAC80C9429780C9485C724
:100960000D94C3130C9433410C9479C70D946D0707
:100970000C94BFE20C94B4C80C94EE870C9495923E
:100980000C9464ED0C9489C80D948B670C94FB5205
:100990000C94C7E90D94363C0C947A650C949462DF
:1009A0000C94D0960C94A5980C94BF400C94B6D59A
:1009B0000C94949A0C9426AA0A5061676520686189
:1009C00073206E6F74206265656E20696D706C6552
:1009D0006D656E74656420796574000A326E6420FA
:1009E00049676E6974696F6E204D6170000A326EDE
:1009F00064204675656C204D6170000A5061676522
:100A0000203920436667000A5472696D20312054F2
:100A100061626C65000A565654204D6170000A42AE
:100A20006F6F7374204D6170000A50672036204349
:100A30006F6E666967000A414652204D6170000A78
:100A40005067203420436667000A49676E697469FD
:100A50006F6E204D6170000A506720322043666738
:100A6000000A5645204D6170004572723A20556E5D
:100A70006B6E6F776E20636D64000A3D3D3D436F82
:100A80006D6D616E642048656C703D3D3D0A0A41A4
:100A90006C6C20636F6D6D616E6473206172652094
:100AA00073696E676C6520636861726163746572F7
:100AB00020616E642061726520636F6E636174658E
:100AC0006E61746564207769746820746865697202
:100AD00020706172616D6574657273200A77697444
:100AE000686F7574207370616365732E53796E74CB
:100AF00061783A20203C636F6D6D616E643E2B3CE3
:100B0000706172616D65746572313E2B3C7061720B
:100B1000616D65746572323E2B3C706172616D650A
:100B20007465724E3E0A0A3D3D3D4C697374206FF8
:100B30006620436F6D6D616E64733D3D3D0A0A41F1
:100B4000202D20446973706C6179732033312062E9
:100B500079746573206F662063757272656E745365
:100B600074617475732076616C75657320696E208D
:100B700062696E61727920286C697665206461749F
:100B800061290A42202D204275726E2063757272AF
:100B9000656E74206D617020616E6420636F6E6697
:100BA0006967506167652076616C75657320746F45
:100BB00020656570726F6D0A43202D205465737433
:100BC00020434F4D20706F72742E20205573656442
:100BD0002062792054756E657273747564696F2034
:100BE000746F20736565207768657468657220612D
:100BF0006E20454355206973206F6E206120676920
:100C000076656E2073657269616C200A2020202051
:100C1000706F72742E2052657475726E732061202D
:100C200062696E617279206E756D6265722E0A4E10
:100C3000202D205072696E74206E6577206C696E6D
:100C4000652E0A50202D20536574206375727265DD
:100C50006E7420706167652E202053796E74617800
:100C60003A2020502B3C706167654E756D6265724D
:100C70003E0A52202D2053616D6520617320412072
:100C8000636F6D6D616E640A53202D20446973702B
:100C90006C6179207369676E6174757265206E7519
:100CA0006D6265720A51202D2053616D652061735C
:100CB000205320636F6D6D616E640A56202D2044B1
:100CC0006973706C6179206D6170206F7220636F41
:100CD0006E666967506167652076616C7565732023
:100CE000696E2062696E6172790A57202D20536502
:100CF00074206F6E65206279746520696E206D6165
:100D000070206F7220636F6E666967506167652E31
:100D10002020457870656374732062696E61727912
:100D200020706172616D65746572732E200A2020D7
:100D3000202053796E7461783A2020572B3C6F66DF
:100D4000667365743E2B3C6E6577627974653E0A06
:100D500074202D205365742063616C696272617424
:100D6000696F6E2076616C7565732E2020457870F2
:100D7000656374732062696E61727920706172615B
:100D80006D65746572732E20205461626C652069F4
:100D90006E646578206973206569746865722030B7
:100DA0002C200A20202020312C206F7220322E206F
:100DB0002053796E7461783A2020742B3C74626CF5
:100DC000655F6964783E2B3C6E657756616C75652E
:100DD000313E2B3C6E657756616C7565323E2B3C1F
:100DE0006E657756616C75654E3E0A5A202D20441B
:100DF0006973706C61792063616C69627261746996
:100E00006F6E2076616C7565730A54202D204469DD
:100E100073706C6179732032353620746F6F74682B
:100E2000206C6F6720656E747269657320696E202F
:100E300062696E6172790A72202D20446973706C48
:100E40006179732032353620746F6F7468206C6F4F
:100E50006720656E74726965730A55202D20507283
:100E6000657061726520666F72206669726D776168
:100E70007265207570646174652E20546865206EFB
:100E8000657874206279746520726563656976653A
:100E9000642077696C6C2063617573652074686584
:100EA0002041726475696E6F20746F20726573657E
:100EB000742E0A3F202D20446973706C6179732071
:100EC000746869732068656C702070616765002CB8
:100ED0002000575545004F3200496E6C65742074F0
:100EE000656D7000436F6F6C616E74005265736561
:100EF0007420636F6E74726F6C20697320637572F7
:100F000072656E746C792064697361626C65642EBD
:100F100000436F6D6D732068616C7465642E204EA4
:100F200065787420627974652077696C6C207265CD
:100F3000736574207468652041726475696E6F2EE4
:100F400000537065656475696E6F20323032322EE1
:100F500030342D64657600737065656475696E6FF5
:100F6000203230323230342D646576004552523BA7
:100F700020496E636F727265637420454550524F0D
:100F80004D2073697A650030303100200020002048
:100F90000020002020202000526573657420636FBC
:100FA0006E74726F6C2069732063757272656E74F3
:100FB0006C792064697361626C65642E00436F6DA7
:100FC0006D732068616C7465642E204E65787420A2
:100FD000627974652077696C6C2072657365742022
:100FE0007468652041726475696E6F2E0000008020
:100FF0000020012001800020018000F0008001C05D
:1010000000C0002001C00080002001040E11191B47
:1010100020292B2D2F31333537393B3D3F41434577
:10102000474B4D4F515557595D61666D775370650C
:10103000656475696E6F00537065656475696E6F80
:1010400020323031392E30382D736572005370657F
:10105000656475696E6F2063737830323031392E74
:101060003800000020002300260029002C002F005B
:101070003200000100000301060109010000210007
:10108000240027002A002D00300033000101000059
:10109000040107010A0100000000963007772C6167
:1010A0000EEEBA51099919C46D078FF46A7035A50F
:1010B00063E9A395649E3288DB0EA4B8DC791EE94F
:1010C000D5E088D9D2972B4CB609BD7CB17E072DCF
:1010D000B8E7911DBF906410B71DF220B06A487147
:1010E000B9F3DE41BE847DD4DA1AEBE4DD6D51B58F
:1010F000D4F4C785D38356986C13C0A86B647AF96F
:1011000062FDECC9658A4F5C0114D96C0663633DCE
:101110000FFAF50D088DC8206E3B5E10694CE44156
:1011200060D5727167A2D1E4033C47D4044BFD85BE
:101130000DD26BB50AA5FAA8B5356C98B242D6C9DE
:10114000BBDB40F9BCACE36CD832755CDF45CF0D3E
:10115000D6DC593DD1ABAC30D9263A00DE518051B6
:10116000D7C81661D0BFB5F4B42123C4B35699953E
:10117000BACF0FA5BDB89EB802280888055FB2D9BE
:101180000CC624E90BB1877C6F2F114C6858AB1D3E
:1011900061C13D2D66B69041DC760671DB01BC2055
:1011A000D2982A10D5EF8985B1711FB5B606A5E48E
:1011B000BF9F33D4B8E8A2C9077834F9000F8EA8CE
:1011C000099618980EE1BB0D6A7F2D3D6D08976C4E
:1011D0006491015C63E6F4516B6B62616C1CD83006
:1011E00065854E0062F2ED95066C7BA5011BC1F48E
:1011F000088257C40FF5C6D9B06550E9B712EAB8EE
:10120000BE8B7C88B9FCDF1DDD62492DDA15F37CCD
:10121000D38C654CD4FB5861B24DCE51B53A7400B5
:10122000BCA3E230BBD441A5DF4AD795D83D6DC4FD
:10123000D1A4FBF4D6D36AE96943FCD96E3446885D
:1012400067ADD0B860DA732D0444E51D03335F4CFD
:101250000AAAC97C0DDD3C710550AA410227101075
:101260000BBE86200CC925B56857B3856F2009D4FD
:1012700066B99FE461CE0EF9DE5E98C9D92922983D
:10128000D0B0B4A8D7C7173DB359810DB42E3B5C7D
:10129000BDB7AD6CBAC02083B8EDB6B3BF9A0CE24F
:1012A000B6039AD2B1743947D5EAAF77D29D1526E5
:1012B000DB048316DC73120B63E3843B64943E6AA5
:1012C0006D0DA85A6A7A0BCF0EE49DFF099327AEE5
:1012D000000AB19E077D44930FF0D2A3088768F2FD
:1012E000011EFEC206695D5762F7CB6765807136E5
:1012F0006C19E7066B6E761BD4FEE02BD3895A7A05
:10130000DA10CC4ADD676FDFB9F9F9EFBE8E43BE64
:10131000B717D58EB060E8A3D6D67E93D1A1C4C24C
:10132000D83852F2DF4FF167BBD16757BCA6DD0654
:10133000B53F4B36B248DA2B0DD84C1B0AAFF64AF4
:101340000336607A0441C3EF60DF55DF67A8EF8E94
:101350006E3179BE69468CB361CB1A8366BCA0D26C
:101360006F2536E2685295770CCC03470BBBB91654
:1013700002222F260555BE3BBAC5280BBDB2925A94
:10138000B42B046AB35CA7FFD7C231CFD0B58B9E14
:10139000D92C1DAEDE5BB0C2649B26F263EC9CA32D
:1013A0006A750A936D02A906099C3F360EEB8567A4
:1013B000077213570005824ABF95147AB8E2AE2B24
:1013C000B17B381BB60C9B8ED2920DBED5E5B7EF24
:1013D000DC7C21DFDB0BD4D2D38642E2D4F1F8B33C
:1013E000DD686E83DA1FCD16BE815B26B9F6E17724
:1013F000B06F7747B718E65A0888706A0FFFCA3B84
:1014000006665C0B0111FF9E658F69AE62F8D3FF23
:101410006B6145CF6C1678E20AA0EED20DD75483EB
:10142000044EC2B30339612667A7F71660D04D4753
:101430006949DB776E3E4A6AD1AEDC5AD6D9660B73
:10144000DF40F03BD83753AEBCA9C59EBBDE7FCF93
:10145000B247E9FFB5301CF2BDBD8AC2BACA3093AB
:10146000B353A6A3B4240536D0BA9306D7CD2957D3
:10147000DE54BF67D9232E7A66B3B84A61C4021B13
:10148000685D942B6F2A37BE0BB4A18E0CC31BDF93
:10149000055A8DEF022D0000000041311B198262B8
:1014A0003632C3532D2B04C56C6445F4777D86A773
:1014B0005A56C796414F088AD9C849BBC2D18AE853
:1014C000EFFACBD9F4E30C4FB5AC4D7EAEB58E2D13
:1014D000839ECF1C98875112C24A1023D953D370D0
:1014E000F4789241EF6155D7AE2E14E6B537D7B5F3
:1014F000981C9684830559981B8218A9009BDBFAD7
:101500002DB09ACB36A95D5D77E61C6C6CFFDF3F92
:1015100041D49E0E5ACDA2248495E3159F8C20467B
:10152000B2A76177A9BEA6E1E8F1E7D0F3E824838A
:10153000DEC365B2C5DAAAAE5D5DEB9F464428CC3A
:101540006B6F69FD7076AE6B3139EF5A2A202C092A
:10155000070B6D381C12F33646DFB2075DC67154B7
:1015600070ED30656BF4F7F32ABBB6C231A275910A
:101570001C8934A00790FBBC9F17BA8D840E79DEBE
:10158000A92538EFB23CFF79F373BE48E86A7D1BAA
:10159000C5413C2ADE58054F79F0447E62E9872D2B
:1015A0004FC2C61C54DB018A159440BB0E8D83E8E4
:1015B00023A6C2D938BF0DC5A0384CF4BB218FA7D4
:1015C000960ACE968D130900CC5C4831D7458B62C4
:1015D000FA6ECA53E177545DBBBA156CA0A3D63F2F
:1015E0008D88970E96915098D7DE11A9CCC7D2FA64
:1015F000E1EC93CBFAF55CD762721DE6796BDEB550
:1016000054409F844F5958120E161923150FDA7043
:1016100038249B41233DA76BFD65E65AE67C2509EE
:10162000CB576438D04EA3AE9101E29F8A1821CCEB
:10163000A73360FDBC2AAFE124ADEED03FB42D83CB
:10164000129F6CB20986AB2448C9EA1553D02946CB
:101650007EFB687765E2F6793F2FB7482436741B26
:10166000091D352A1204F2BC534BB38D485270DE6B
:10167000657931EF7E60FEF3E6E7BFC2FDFE7C9147
:10168000D0D53DA0CBCCFA368A83BB07919A78544B
:10169000BCB13965A7A84B98833B0AA99822C9FA1F
:1016A000B50988CBAE104F5DEF5F0E6CF446CD3FB1
:1016B000D96D8C0EC27443125AF3022341EAC170F1
:1016C0006CC1804177D847D7369706E62D8EC5B5D1
:1016D00000A584841BBC1A8A41715BBB5A6898E8D8
:1016E0007743D9D96C5A1E4F2D155F7E360C9C2D31
:1016F0001B27DD1C003E120098B9533183A0906275
:10170000AE8BD153B59216C5F4DD57F4EFC494A750
:10171000C2EFD596D9F6E9BC07AEA88D1CB76BDE33
:10172000319C2AEF2A85ED796BCAAC4870D36F1BC8
:101730005DF82E2A46E1E136DE66A007C57F6354D8
:10174000E8542265F34DE5F3B202A4C2A91B6791E8
:10175000843026A09F29B8AEC5E4F99FDEFD3ACCBF
:10176000F3D67BFDE8CFBC6BA980FD5AB2993E0948
:101770009FB27F3884ABB0241C2CF115073532465C
:101780002A1E73773107B4E17048F5D06B51368368
:10179000467A77B25D634ED7FACB0FE6E1D2CCB58D
:1017A000CCF98D84D7E04A1296AF0B238DB6C87062
:1017B000A09D8941BB84465D2303076C381AC43F52
:1017C0001531850E0E2842984F6703A9547EC0FA42
:1017D000795581CB624C1FC538815EF423989DA753
:1017E0000EB3DC9615AA1B0054E55A314FFC9962E2
:1017F00062D7D85379CE174FE149567EFA50952DCE
:10180000D77BD41CCC62138A8D2D52BB963491E8C1
:10181000BB1FD0D9A006ECF37E5EADC265476E91CA
:10182000486C2FA05375E836123AA90709236A5469
:1018300024082B653F11E479A796A548BC8F661B49
:1018400091A4272A8ABDE0BCCBF2A18DD0EB62DE49
:10185000FDC023EFE6D9BDE1BC14FCD0A70D3F834A
:101860008A267EB2913FB924D070F815CB693B46E9
:10187000E6427A77FD5BB56B65DCF45A7EC53709C5
:1018800053EE763848F7B1AE09B8F09F12A133CCC9
:101890003F8A72FD249300000000376AC2016ED4B3
:1018A000840359BE4602DCA80907EBC2CB06B27C12
:1018B0008D0485164F05B851130E8F3BD10FD68579
:1018C000970DE1EF550C64F91A095393D8080A2DC6
:1018D0009E0A3D475C0B70A3261C47C9E41D1E777A
:1018E000A21F291D601EAC0B2F1B9B61ED1AC2DFCE
:1018F000AB18F5B56919C8F23512FF98F713A6268B
:10190000B111914C7310145A3C152330FE147A8E89
:10191000B8164DE47A17E0464D38D72C8F398E92A1
:10192000C93BB9F80B3A3CEE443F0B84863E523A31
:10193000C03C6550023D58175E366F7D9C3736C3FC
:10194000DA3501A9183484BF5731B3D59530EA6B25
:10195000D332DD01113390E56B24A78FA925FE3129
:10196000EF27C95B2D264C4D62237B27A0222299AD
:10197000E62015F3242128B4782A1FDEBA2B46600E
:10198000FC29710A3E28F41C712DC376B32C9AC829
:10199000F52EADA2372FC08D9A70F7E75871AE596A
:1019A0001E739933DC721C2593772B4F517672F19D
:1019B0001774459BD57578DC897E4FB64B7F16082A
:1019C0000D7D2162CF7CA4748079931E4278CAA0D9
:1019D000047AFDCAC67BB02EBC6C87447E6DDEFAED
:1019E000386FE990FA6E6C86B56B5BEC776A0252E1
:1019F00031683538F369087FAF623F156D6366ABB8
:101A00002B6151C1E960D4D7A665E3BD6464BA0314
:101A100022668D69E06720CBD74817A115494E1F74
:101A2000534B7975914AFC63DE4FCB091C4E92B73C
:101A30005A4CA5DD984D989AC446AFF00647F64E2D
:101A40004045C12482444432CD4173580F402AE6B8
:101A500049421D8C8B435068F154670233553EBC9C
:101A6000755709D6B7568CC0F853BBAA3A52E21440
:101A70007C50D57EBE51E839E25ADF53205B86EDBB
:101A80006659B187A4583491EB5D03FB295C5A4534
:101A90006F5E6D2FAD5F801B35E1B771F7E0EECF64
:101AA000B1E2D9A573E35CB33CE66BD9FEE73267DC
:101AB000B8E5050D7AE4384A26EF0F20E4EE569E8D
:101AC000A2EC61F460EDE4E22FE8D388EDE98A3618
:101AD000ABEBBD5C69EAF0B813FDC7D2D1FC9E6CDC
:101AE00097FEA90655FF2C101AFA1B7AD8FB42C4A0
:101AF0009EF975AE5CF848E900F37F83C2F2263D9B
:101B000084F0115746F1944109F4A32BCBF5FA95D3
:101B10008DF7CDFF4FF6605D78D95737BAD80E896B
:101B2000FCDA39E33EDBBCF571DE8B9FB3DFD221FB
:101B3000F5DDE54B37DCD80C6BD7EF66A9D6B6D808
:101B4000EFD481B22DD504A462D033CEA0D16A7077
:101B5000E6D35D1A24D210FE5EC527949CC47E2A6B
:101B6000DAC6494018C7CC5657C2FB3C95C3A2827F
:101B7000D3C195E811C0A8AF4DCB9FC58FCAC67B16
:101B8000C9C8F1110BC9740744CC436D86CD1AD373
:101B9000C0CF2DB902CE4096AF9177FC6D902E420A
:101BA0002B921928E9939C3EA696AB546497F2EACF
:101BB0002295C580E094F8C7BC9FCFAD7E9E96135A
:101BC000389CA179FA9D246FB598130577994ABB83
:101BD000319B7DD1F39A3035898D075F4B8C5EE167
:101BE0000D8E698BCF8FEC9D808ADBF7428B82490B
:101BF0000489B523C68888649A83BF0E5882E6B0EC
:101C00001E80D1DADC8154CC938463A651853A18C6
:101C100017870D72D586A0D0E2A997BA20A8CE0466
:101C200066AAF96EA4AB7C78EBAE4B1229AF12AC6E
:101C30006FAD25C6ADAC1881F1A72FEB33A6765555
:101C400075A4413FB7A5C429F8A0F3433AA1AAFD62
:101C50007CA39D97BEA2D073C4B5E71906B4BEA7F6
:101C600040B689CD82B70CDBCDB23BB10FB3620F6A
:101C700049B155658BB06822D7BB5F4815BA06F6E7
:101C800053B8319C91B9B48ADEBC83E01CBDDA5EE6
:101C90005ABFED3498BE000000006567BCB88BC821
:101CA00009AAEEAFB5125797628F32F0DE37DC5FCC
:101CB0006B25B938D79DEF28B4C58A4F087D64E0FD
:101CC000BD6F018701D7B8BFD64ADDD86AF2337736
:101CD000DFE0561063589F571950FA30A5E8149F5B
:101CE00010FA71F8AC42C8C07BDFADA7C7674308E4
:101CF0007275266FCECD707FAD951518112DFBB77F
:101D0000A43F9ED0188727E8CF1A428F73A2AC2039
:101D1000C6B0C9477A083EAF32A05BC88E18B56717
:101D20003B0AD00087B26938502F0C5FEC97E2F085
:101D300059858797E53DD1878665B4E03ADD5A4FEE
:101D40008FCF3F2833778610E4EAE37758520DD8D7
:101D5000ED4068BF51F8A1F82BF0C49F97482A3096
:101D6000225A4F579EE2F66F497F9308F5C77DA729
:101D700040D518C0FC6D4ED09F352BB7238DC518AC
:101D8000969FA07F2A271947FDBA7C204102928F97
:101D9000F410F7E848A83D58149B583FA823B69084
:101DA0001D31D3F7A1896ACF76140FA8CAACE10719
:101DB0007FBE8460C306D270A05EB7171CE659B818
:101DC000A9F43CDF154C85E7C2D1E0807E690E2F77
:101DD000CB7B6B4877C3A20F0DCBC768B17329C704
:101DE00004614CA0B8D9F5986F4490FFD3FC7E50A5
:101DF00066EE1B37DA564D27B90E284005B6C6EFFA
:101E0000B0A4A3880C1C1AB0DB817FD76739917806
:101E1000D22BF41F6E9303F7263B66909A83883F7C
:101E20002F91ED589329546044B43107F80CDFA882
:101E30004D1EBACFF1A6ECDF92FE89B82E46671789
:101E40009B54027027ECBB48F071DE2F4CC93080E8
:101E5000F9DB55E745639CA03F6BF9C783D317684F
:101E600036C1720F8A79CB375DE4AE50E15C40FF3A
:101E7000544E2598E8F673888BAE16EF3716F84067
:101E800082049D273EBC241FE92141785599AFD794
:101E9000E08BCAB05C333BB659ED5ED1E555B07E00
:101EA0005047D519ECFF6C213B62094687DAE7E918
:101EB00032C8828E8E70D49EED28B1F951905F5653
:101EC000E4823A31583A83098FA7E66E331F08C17E
:101ED000860D6DA63AB5A4E140BDC186FC052F294B
:101EE00049174A4EF5AFF376223296119E8A78BE94
:101EF0002B981DD997204BC9F4782EAE48C0C0014D
:101F0000FDD2A566416A1C5E96F779392A4F9796ED
:101F10009F5DF2F123E505196B4D607ED7F58ED1FB
:101F200062E7EBB6DE5F528E09C237E9B57AD94671
:101F30000068BC21BCD0EA31DF888F56633061F97C
:101F4000D622049E6A9ABDA6BD07D8C101BF366ECF
:101F5000B4AD530908159A4E721DFF29CEA51186FE
:101F60007BB774E1C70FCDD91092A8BEAC2A461139
:101F700019382376A5807566C6D810017A60FEAE42
:101F8000CF729BC973CA22F1A457479618EFA9399B
:101F9000ADFDCC5E114506EE4D766389F1CE8D2602
:101FA00044DCE841F86451792FF9341E9341DAB1E9
:101FB0002653BFD69AEBE9C6F9B38CA1450B620E46
:101FC000F01907694CA1BE519B3CDB36278435993B
:101FD000929650FE2E2E99B95426FCDEE89E127180
:101FE0005D8C7716E134CE2E36A9AB498A1145E6D1
:101FF0003F03208183BB7691E0E313F65C5BFD59E0
:10200000E949983E55F12106826C44613ED4AACE3E
:102010008BC6CFA9377E38417FD65D26C36EB38984
:10202000767CD6EECAC46FD61D590AB1A1E1E41E72
:1020300014F38179A84BD769CB13B20E77AB5CA1AF
:10204000C2B939C67E0180FEA99CE59915240B36DC
:10205000A0366E511C8EA7166686C271DA3E2CDE43
:102060006F2C49B9D394F081040995E6B8B17B4946
:102070000DA31E2EB11B483ED2432D596EFBC3F655
:10208000DBE9A69167511FA9B0CC7ACE0C7494619C
:10209000B966F10605DE00002200250028002B00AD
:1020A0002E003100340002010000050108010B017F
:1020B00005050505070508080808020202020A0AC4
:1020C00008080404040401010101010101010303E2
:1020D000030303030303040707070C0C0C0C0C0C8D
:1020E0000C0C0202020206060606060606060B0B8A
:1020F0000B0B0B0B0B0B01021020200808102040CB
:1021000010204080020102010804020101020408BB
:102110001020408080402010080402018004020149
:102120008040201008040201080402010102040892
:1021300010204080010204081020408000000A0B9B
:1021400002090C0D0E080703040100000000000046
:10215000000000000000000000000000000000007F
:10216000000000000000000012111000000000003C
:10217000000000000000000000000000000000005F
:102180000000EA0311241FBECFEFD1E2DEBFCDBFB6
:1021900000E00CBF12E0A0E0B2E0E4EEFCE203E0FD
:1021A0000BBF02C007900D92A83AB107D9F72FE1F3
:1021B000A8EAB2E001C01D92A634B207E1F710E12F
:1021C000C2ECD0E100E006C021970109802FFE019A
:1021D0000F94FC95C13CD10780E00807A9F70F9444
:1021E000965C0D9470960C9400008091110C807F89
:1021F0008034F1F08036D9F42091561C2C712C30AB
:1022000089F146E050E050933A044093390462E08B
:1022100070E07093380460933704A4E0B0E0B093AA
:102220003604A09335047093340460933304089506
:102230003091561C3C713C30A9F0E4E0F0E0F093A2
:102240003A04E093390482E090E09093380480935C
:102250003704F0933604E09335049093340480936C
:102260003304089528E030E030933A042093390491
:1022700042E050E0509338044093370464E070E04B
:102280007093360460933504A6E0B0E0B093340454
:10229000A093330408958091C31D0F94265C60932E
:1022A0002D0470932E0480932F049093300480911A
:1022B0002D0490912E04A0912F04B09130044091F0
:1022C000490A50914A0A60914B0A70914C0A841B4A
:1022D000950BA60BB70B8093290490932A04A09327
:1022E0002B04B0932C042091290430912A044091AE
:1022F0002B0450912C046091B1057091B20580912E
:10230000B3059091B405261737074807590708F415
:1023100071C080912D0490912E04A0912F04B09152
:1023200030048093490A90934A0AA0934B0AB093D1
:102330004C0A51E0509320046091290470912A04C2
:1023400080912B0490912C049695879577956795AD
:102350006093B1057093B2058093B3059093B40573
:102360003091C31D311132C08CED95E0A0E0B0E09A
:102370008093B5059093B605A093B705B093B805C3
:102380006091B1057091B2058091B3059091B4054B
:1023900096958795779567956093B1057093B2058B
:1023A0008093B3059093B405E0916F05F0917005AB
:1023B000908170916E05A091110CA07F972301F17F
:1023C000A03409F453C0A03609F448C04091C41D9C
:1023D0005091C51DE0915D1EF0915E1E4E175F0786
:1023E00050F4F091C31DFF2329F05091110C507F40
:1023F000503491F00895B091501CB7FDF2CF08957C
:10240000A03421F7209174093091750925303105E8
:10241000E9F65093C31DDACF0F94265C80915B03DD
:1024200090915C03A0915D03B0915E03E0916F0514
:10243000F0917005308190916E053923D9F2A09109
:102440007409B0917509A830B105C9F01092C31D87
:1024500070916E1E7F5F70936E1E08958091740957
:1024600090917509079709F0B1CFD3CF60917409A6
:10247000709175096830710509F0A8CFCACFB09383
:102480007509A093740908958091F51D82319CF01F
:1024900026E030E030933A042093390441E050E0E4
:1024A000509338044093370464E070E0709336042E
:1024B000609335040895A7E0B0E0B0933A04A09388
:1024C0003904E2E0F0E0F0933804E093370485E06B
:1024D00090E0909336048093350408958091C31D55
:1024E000882309F469C02091C41D3091C51D409115
:1024F0005D1E50915E1E2417350708F450C0809170
:10250000AD059091AE05A091AF05B091B005892BB6
:102510008A2B8B2B09F450C02091A9053091AA0574
:102520004091AB055091AC05232B242B252B09F4AE
:1025300043C0F8948091AD059091AE05A091AF0590
:10254000B091B0054091A9055091AA056091AB05E5
:102550007091AC05841B950BA60BB70B8093A80A52
:102560009093A90AA093AA0AB093AB0A78942091F9
:10257000A80A3091A90A4091AA0A5091AB0A60E0DA
:1025800077E883E993E00F947695C901803526E4D6
:102590009207A0F08091C41D9091C51D089560918F
:1025A000311E7091321E8091331E9091341E672B24
:1025B000682B692B09F0A3CF90E080E0089580910B
:1025C000E1099091E20920914A1C30914B1C821B39
:1025D000930B4091190250911A02841795079CF0B1
:1025E000841B950B0197843B9105A8F461E070E092
:1025F00070933A0460933904A2E0B0E0B0933804D9
:10260000A0933704089597FFEDCF840F951F01978E
:10261000843B910558F3E2E0F0E0F0933A04E09354
:10262000390481E090E09093380480933704089552
:10263000CF92DF92EF92FF922091C41D3091C51D81
:1026400080915D1E90915E1E2817390708F06CC0BE
:10265000E0917305F0917405C090311ED090321E48
:10266000E090331EF090341E8091551C90E0B0E055
:10267000A0E0C816D906EA06FB0608F459C0D090B7
:10268000C31DDD2009F454C04091A30A5091A40A4F
:102690006091A50A7091A60A452B462B472B09F499
:1026A00047C060919F0A7091A00A8091A10A909101
:1026B000A20A672B682B692BD9F12091A30A3091CC
:1026C000A40A4091A50A5091A60A80919F0A909170
:1026D000A00AA091A10AB091A20A82179307A407A9
:1026E000B50730F5F8942091A30A3091A40A4091DF
:1026F000A50A5091A60AC0909F0AD090A00AE09027
:10270000A10AF090A20A2C193D094E095F09AE2FCB
:10271000B0E00F94BE956093A80A7093A90A8093C5
:10272000AA0A9093AB0A6DC0C090C31DC11033C0FC
:10273000C090A80AD090A90AE090AA0AF090AB0A2B
:1027400090E080E0CC0CDD1CEE1CFF1CC0921E0251
:10275000D0921F02E0922002F09221022091730594
:10276000309174052BE4C21628E9D20625E0E20672
:10277000F10460F44BE458E965E070E040931E0218
:1027800050931F026093200270932102FF90EF90FC
:10279000DF90CF9008954091AD055091AE056091C6
:1027A000AF057091B005452B462B472B09F2609180
:1027B000A9057091AA058091AB059091AC05672B96
:1027C000682B692B09F4B4CFF8948091AD059091F2
:1027D000AE05A091AF05B091B0052091A90530914B
:1027E000AA054091AB055091AC05821B930BA40B3D
:1027F000B50B8093A80A9093A90AA093AA0AB09354
:10280000AB0A7894C090A80AD090A90AE090AA0ACE
:10281000F090AB0AF694E794D794C794C092A80AB4
:10282000D092A90AE092AA0AF092AB0A60E077E897
:1028300083E993E0A70196010F947695C90180354D
:1028400026E4920708F47ECF8091C41D9091C51DA7
:1028500079CF2091591C30E08091561C8C718C30BE
:1028600009F496C0E0914A1CF0914B1C60919D0ABE
:1028700070919E0A8091E1099091E2098E1B9F0B55
:102880000F942F95261737070CF05DC0621B730B52
:1028900070933A046093390460919D0A70919E0A86
:1028A00080919D0990919E098E1B9F0B0F942F95EF
:1028B000261737070CF065C0621B730B7093380442
:1028C0006093370460919D0A70919E0A80919B09E4
:1028D00090919C098E1B9F0B0F942F9526173707FD
:1028E0000CF048C0621B730B709336046093350480
:1028F00060919D0A70919E0A8091990990919A0920
:102900008E1B9F0B0F942F95261737076CF5621BB4
:10291000730B709334046093330460919D0A70913B
:102920009E0A80918709909188098E1B9F0B0F94B6
:102930002F952617370774F4621B730B70935A0395
:10294000609359030895161617060CF4A1CF620F71
:10295000731F9ECF161617068CF3620F731F7093AA
:102960005A036093590308951616170694F2620FDE
:10297000731FCFCF161617060CF4B6CF620F731F56
:10298000B3CF161617060CF499CF620F731F96CFAC
:1029900040914F1C41FD66CF220F331F63CFCF9272
:1029A000DF92EF92FF92CF93DF930F94265C6093B8
:1029B0002D0470932E0480932F0490933004809103
:1029C0002D0490912E04A0912F04B09130044091D9
:1029D000490A50914A0A60914B0A70914C0A841B33
:1029E000950BA60BB70B8093290490932A04A09310
:1029F0002B04B0932C04C0902904D0902A04E090BA
:102A00002B04F0902C042091B1053091B205409137
:102A1000B3055091B405C216D306E406F50608F4D2
:102A200065C080912D0490912E04A0912F04B09147
:102A300030048093490A90934A0AA0934B0AB093BA
:102A40004C0A4091290450912A0460912B04709102
:102A50002C04769567955795479576956795579584
:102A600047954093B1055093B2056093B3057093B9
:102A7000B405D090C31DDD2009F453C0C090311EB1
:102A8000D090321EE090331EF090341E8091551C81
:102A900090E0B0E0A0E08C159D05AE05BF0508F004
:102AA00040C08091591C90E0E0907409F090750945
:102AB0008E159F0591F02091311E3091321E40916C
:102AC000331E5091341E233031054105510528F045
:102AD00030916E1E3F5F30936E1EF090501CF7FEDB
:102AE00056C0909375098093740951C06091A80AEB
:102AF0007091A90A8091AA0A9091AB0A9695879540
:102B0000779567956093B1057093B2058093B3058F
:102B10009093B405DF91CF91FF90EF90DF90CF902D
:102B200008950F94265C6093A30A7093A40A80937F
:102B3000A50A9093A60A0F94265C6B017C01C091B4
:102B4000591C2C2F30E050E040E060E87DE88BE538
:102B500090E00F944395C21AD30AE40AF50AC09292
:102B60009F0AD092A00AE092A10AF092A20AD0E0B5
:102B7000D0937509C09374091092B5051092B605EB
:102B80001092B7051092B80551E05093C31D71E043
:102B900070931F04DF91CF91FF90EF90DF90CF9063
:102BA00008950F931F93CF93DF93E091591CF0E0AA
:102BB0008091561C8C718C3009F43FC1EF0130E0DC
:102BC00020E000914A1C10914B1C60919D0A70916D
:102BD0009E0A8091E1099091E209801B910B0F946C
:102BE0002F9561507109C617D7070CF006C16C1BF1
:102BF0007D0B40917305509174054617570720F4DB
:102C0000E617F7070CF014C1A0917305B091740595
:102C1000A20FB31FA617B70730F460917305709128
:102C20007405620F731F70933A04609339046091C6
:102C30009D0A70919E0A80919D0990919E09801B2A
:102C4000910B0F942F9561507109C617D7070CF09F
:102C5000CDC06C1B7D0B8091730590917405861718
:102C6000970720F4E617F7070CF0DDC040917305D5
:102C700050917405420F531F4617570730F4609167
:102C8000730570917405620F731F7093380460931D
:102C9000370460919D0A70919E0A80919B099091E2
:102CA0009C09801B910B0F942F9561507109C617D9
:102CB000D7070CF094C06C1B7D0BA0917305B091ED
:102CC0007405A617B70720F4E617F7070CF0A6C09F
:102CD0008091730590917405820F931F8617970753
:102CE00030F46091730570917405620F731F7093D7
:102CF00036046093350460919D0A70919E0A80911C
:102D0000990990919A09801B910B0F942F9561500E
:102D10007109C617D7070CF05BC06C1B7D0B409187
:102D20007305509174054617570720F4E617F70707
:102D30000CF06FC0A0917305B0917405A20FB31F82
:102D4000A617B70730F46091730570917405620F90
:102D5000731F709334046093330460919D0A7091E3
:102D60009E0A8091870990918809801B910B0F948E
:102D70002F9561507109C617D70724F56C1B7D0B81
:102D8000C0917305D0917405C617D70718F4E617DC
:102D9000F707D4F5E0917305F0917405E20FF31F86
:102DA000E617F70730F46091730570917405620FB0
:102DB000731F70935A0360935903DF91CF911F9152
:102DC0000F91089516161706DCF26C0F7D1FD8CFF1
:102DD000161617060CF4A3CF6C0F7D1FA0CF161686
:102DE00017060CF46ACF6C0F7D1F67CF16161706F7
:102DF0000CF431CF6C0F7D1F2ECF161617060CF476
:102E0000F8CE6C0F7D1FF5CE60917305709174053F
:102E1000C1CF60917305709174058CCF609173057B
:102E20007091740555CF60917305709174051ECF34
:102E30006091730570917405E7CE00914F1C01FD00
:102E4000BDCE9F01EF01CC0FDD1FBBCECF92DF9235
:102E5000EF92FF92E091ED09F091EE091995AC0126
:102E6000893621E092070CF443C09C012956314079
:102E7000A3E8BDE20F94D1950024880F991F001C90
:102E8000880F991F001C892F902D8770992748560D
:102E90005140493621E052075CF1009719F1813029
:102EA0009105D1F082309105A9F08330910581F030
:102EB0008430910559F08530910531F0069711F075
:102EC0004856514048565140485651404856514046
:102ED000485651404856514048565140493621E0E5
:102EE000520734F040545B40493681E05807D4F72C
:102EF00080914A1C90914B1C481B590B2091C31E7A
:102F00002370223031F4C090C31CD090C41C4C19E3
:102F10005D09E091C61C9A01220F331FF0E0A0E08A
:102F2000B1E0AE1BBF0B0F9404966B017C01A09126
:102F3000871EB091881E9F010F940C96C60ED71E57
:102F4000E81EF91ECD2CDE2CEF2CFF24E7FCFA94B2
:102F5000D092881EC092871EFF90EF90DF90CF9096
:102F60000895CF92DF92EF92FF920F94265C6093C8
:102F70002D0470932E0480932F049093300480913D
:102F80002D0490912E04A0912F04B0913004409113
:102F9000490A50914A0A60914B0A70914C0A841B6D
:102FA000950BA60BB70B8093290490932A04A0934A
:102FB0002B04B0932C04C090490AD0904A0AE090A8
:102FC0004B0AF0904C0ACD28CE28CF28C1F410929D
:102FD000290410922A0410922B0410922C042091A0
:102FE0002D0430912E0440912F04509130042093F1
:102FF000490A30934A0A40934B0A50934C0A409135
:10300000290450912A0460912B0470912C04809122
:10301000B1059091B205A091B305B091B4054817E0
:1030200059076A077B07C0F13091521C3F77313056
:1030300009F4C1C0311120C051E050931F046091C8
:10304000290470912A0480912B0490912C04969568
:103050008795779567956093B1057093B2058093D6
:10306000B3059093B405A091460AB091470A119612
:10307000B093470AA093460AC0902D04D0902E0426
:10308000E0902F04F0903004C092490AD0924A0A8E
:10309000E0924B0AF0924C0AD090BD1ED5FE86C03D
:1030A000E0901F04EE2009F481C0E091ED09F09159
:1030B000EE091995AC01893621E092070CF442C063
:1030C0009C0129563140A3E8BDE20F94D19500241C
:1030D000880F991F001C880F991F001C892F902DA5
:1030E0008770992748565140493621E0520754F1DC
:1030F000009711F181309105C9F082309105A1F05E
:103100008330910579F08430910551F08530910537
:1031100029F0069709F0B5C048565140485651402D
:1031200048565140485651404856514048565140E3
:10313000493621E0520734F040545B40493681E083
:103140005807D4F720914A1C30914B1C421B530B5B
:103150007091C31E7370723031F48091851D90910F
:10316000861D481B590BE091C61C9A01220F331F84
:10317000F0E0A0E0B1E0AE1BBF0B0F9404966B0132
:103180007C01A091731EB091741E9F010F940C9648
:10319000C60ED71EE81EF91ECD2CDE2CEF2CFF2408
:1031A000E7FCFA94D092741EC092731EFF90EF90C9
:1031B000DF90CF9008958091490A90914A0AA0919A
:1031C0004B0AB0914C0AC090A505D090A605E0909E
:1031D000A705F090A8058C199D09AE09BF09AC019F
:1031E000BD01440F551F661F771F840F951FA61F33
:1031F000B71FB695A79597958795809313049093DD
:103200001404A0931504B09316042091490A309138
:103210004A0A40914B0A50914C0A2093A5053093DD
:10322000A6054093A7055093A80540912904509105
:103230002A0460912B0470912C04809113049091C6
:103240001404A0911504B0911604481759076A0791
:103250007B0730F4E091460AF091470A3497A0F0DA
:1032600081E090E09093470A8093460A80931F0480
:103270001092B1051092B2051092B3051092B405E8
:10328000FBCE4856514048CF6091290470912A04E2
:1032900080912B0490912C0496958795779567954E
:1032A00096958795779567956093B1057093B2056C
:1032B0008093B3059093B405A091460AB091470A54
:1032C0001196B093470AA093460AD6CECF93DF93C8
:1032D0001092200481E0809320042091BE052330C9
:1032E000F1F0223091F0213029F4E091BA05F0910B
:1032F000BB0519956091721E662321F07091200420
:10330000711117C0DF91CF910895E0916C05F09194
:103310006D05308190916B05392339F3EBCFC09166
:103320006C05D0916D05488150916B054523E9F6F8
:10333000E1CF8091290490912A04A0912B04B091AF
:103340002C04A091101EA6FDDDCFB091711EB1110D
:10335000D9CFC091710CD091720CC652DD4F18823A
:10336000E0916F05F0917005D081F0916E05DF233B
:1033700009F045C0E0916C05F0916D052081309118
:103380006B05232349F0C091710CD091720CC65289
:10339000DD4F988192609883E091710CF091720CEE
:1033A000E652FD4F4081446040835091C31D552338
:1033B00049F0C091710CD091720CC652DD4F6881FA
:1033C00068606883C091710CD091720C0F94265C78
:1033D000CC0FDD1FCC0FDD1FCD58D34F6883798311
:1033E0008A839B83A091710CB091720CAE37B105AA
:1033F00080F07091101E70647093101E83CFC09186
:10340000710CD091720CC652DD4F88818160888327
:10341000B1CF8091710C9091720C01969093720CC7
:103420008093710CB091101EBF7BB093101E6ACFB9
:10343000CF93DF93109220048091BF05833009F46D
:1034400081C08230B9F08130F1F4E091BC05F09197
:10345000BD0519957091711E772301F1A09120048B
:10346000A1117BC0B1E0D091721ED1111CC0DF91BF
:10347000CF910895E0916F05F091700520819091B2
:103480006E05292311F35091711E552339F0609177
:103490002004662339F3DF91CF910895B0E0D091F5
:1034A000721EDD2321F3409121045091220460918A
:1034B000230470912404F091101EF6FDD8CFC09122
:1034C000710CD091720CB1116FC0C652DD4F1882D1
:1034D000E0916F05F0917005808120916E05822347
:1034E00009F082C0E0916C05F0916D05308150913A
:1034F0006B05352349F0C091710CD091720CC65206
:10350000DD4F6881626068837091C31D772349F045
:10351000E091710CF091720CE652FD4FA081A86011
:10352000A083C091710CD091720C0F94265CCC0FCB
:10353000DD1FCC0FDD1FCD58D34F688379838A837D
:103540009B833CC0C0916F05D0917005388140913C
:103550006E05342309F079CF96CF20912104309164
:1035600022044091230450912404B091101EB6FD12
:103570007ECFE091710CF091720CEE0FFF1FEE0FF9
:10358000FF1FED58F34F2083318342835383809193
:10359000710C9091720C8E379105B8F0D091101E7D
:1035A000D064D093101E63CFCC0FDD1FCC0FDD1F76
:1035B000CD58D34F488359836A837B834091710CE4
:1035C0005091720C4E37510548F7A091710CB09193
:1035D000720C1196B093720CA093710CF091101EA6
:1035E000FF7BF093101E43CFC091710CD091720CF1
:1035F000C652DD4F98819160988374CFCF92DF924D
:10360000EF92FF92CF93DF93EC01AA81BB81E88117
:10361000F981408151811396FC91139711962D9158
:103620003C91DF2FDF712115310541F1DA010F9453
:1036300004966C01FF24D7FCF094EF2CC601F6FD34
:103640000EC002C095958795DA95E2F797FD019631
:10365000DF91CF91FF90EF90DF90CF9008952F2FC3
:10366000FF0F330B220F232F221F330BCA01822798
:103670009327821B930B8C0D9D1DE3CF2F2FFF0FE4
:10368000330B220F232F221F330B8FEF9FEF0D2EB3
:1036900002C0880F991F0A94E2F780959095BA01AD
:1036A000770F660B762F86239723840F951F02C012
:1036B00095958795DA95E2F782279327821B930BDE
:1036C000DF91CF91FF90EF90DF90CF9008958F9290
:1036D0009F92AF92BF92CF92DF92EF92FF920F93A1
:1036E0001F93CF93DF935C018B011092D40710924C
:1036F000D3071092560A812F0F947A4C802F0F9483
:103700007A4C1093DE080093DD080115110509F4C9
:10371000DDC045018FE3E82EF12C6501C00ED11EFE
:10372000C80183709927009709F459C08130910529
:10373000C1F10297D9F0E50189914E010F947A4CBD
:10374000A091D307B091D4071196B093D407A0935A
:10375000D3079091300F8091310F981708F0F4C083
:10376000891B990B0197892B09F492C0F40181916F
:103770004F010F947A4C8091D3079091D407019612
:103780009093D4078093D3079091300F8091310F9D
:10379000981708F0D2C0891B990B0197892B09F45F
:1037A00077C0E40189914E010F947A4CA091D30720
:1037B000B091D4071196B093D407A093D3079091FA
:1037C000300F8091310F981708F059C0891B990B61
:1037D000019709F45DC0C814D90409F477C0E40165
:1037E00089910F947A4CE091D307F091D4073196E8
:1037F000F093D407E093D3079091300F8091310F6D
:10380000981708F055C0891B990B0197892B09F46B
:103810003FC088810F947A4C8091D3079091D40750
:1038200001969093D4078093D3079091300F8091A5
:10383000310F981708F043C0891B990B0197892B0A
:1038400039F189810F947A4CA091D307B091D407B4
:103850001196B093D407A093D3079091300F809125
:10386000310F981708F062C0891B990B0197892BBB
:1038700079F04E01F3E08F0E911C8A8195CF97016C
:10388000291B3109820F932F911D892B09F0A3CF9A
:1038900001E00093560ADF91CF911F910F91FF90A5
:1038A000EF90DF90CF90BF90AF909F908F90089552
:1038B0009701291B3109820F932F911DA7CF9701E3
:1038C000291B3109820F932F911DB9CF8090560A81
:1038D0008110E1CF2FEF3FEFA90120933D1F3093DF
:1038E0003E1F40933F1F5093401F21E0A801B501A8
:1038F0008DE39FE10E94EF7BEB01182F892F0F943E
:103900007A4C812F0F947A4C8D2F0F947A4C8C2FF8
:10391000DF91CF911F910F91FF90EF90DF90CF90AB
:10392000BF90AF909F908F900D947A4C9701291B78
:103930003109820F932F911D9ACF9701291B3109CD
:10394000820F932F911D2ACF9701291B3109820FD6
:10395000932F911D08CF833023E0920709F4F7C21B
:1039600058F1813123E0920709F4D9C208F060C010
:103970008A3023E0920709F4DEC208F0E8C08630FE
:1039800023E0920709F461C208F44BC2883023E0B7
:10399000920709F4B7C108F4F5C35091371E51FFDF
:1039A00006C06091CC0374E067276093CC03A091BC
:1039B000CC03A2FFD9C108958C3022E0920709F40C
:1039C000D6C2D8F4853022E0920709F4E0C208F0AC
:1039D000D2C0813022E0920709F46BC208F4D5C14D
:1039E000833022E0920709F46DC108F4A7C3509117
:1039F000371E51FFE0CF0C944D95833122E09207A2
:103A000009F49FC208F46BC0873122E0920709F4E1
:103A10003DC308F0F5C0853122E0920709F41CC1CE
:103A200008F4ECC27091371E71FFC5CF0C946692FA
:103A3000883123E0920709F4B6C208F46EC08330DF
:103A400029E9920709F44BC208F0AFC0813029E997
:103A5000920709F417C108F035C38115994909F097
:103A6000C1C3F8948091F10887FD8C5F18160CF0A3
:103A70009FC3082E000C990BFC01EE0FFF1FEE0FE9
:103A8000FF1FEE50F74F2081318142815381880F13
:103A9000991F880F991FFC01E251F74F8081918196
:103AA000A281B381281B390B4A0B5B0B789421153B
:103AB00031054105510509F47ECF60E077E883E9DF
:103AC00093E00F9476953093550C2093540C0F94FB
:103AD0000155A0915F1EA860A0935F1E08958F30CE
:103AE00022E0920709F4EBC108F45EC1813122E0C3
:103AF000920709F49FC008F43FC37091371E71FF0D
:103B000006C0A091CD0390E2A927A093CD03B09168
:103B1000CD03B5FD50CF0C94FB9C843123E092077C
:103B200009F4A8C208F46EC1863123E0920709F4B3
:103B30008DC008F447C23091371E31FF3CCF0E9440
:103B400072834091CC034F774093CC0308958D301E
:103B500023E0920709F49BC108F43BC18F3023E0B6
:103B6000920709F4BFC008F498C19091371E91FFE5
:103B700022CF0C946788883022E0920709F432C281
:103B800008F4F4C08A3022E0920709F475C008F402
:103B900089C29091371E91FF0ECF0E945D9DA0912A
:103BA000CD03A77FA093CD030895853029E992071F
:103BB00009F4B4C008F42EC28630994909F011C343
:103BC00020917D1E30917E1E2115310509F4F3CE22
:103BD000A0E1B7E20F94D1952091C41D3091C51D8D
:103BE00050E040E00F9476953093620C2093610C86
:103BF0000F94015590915F1E986090935F1E0895F9
:103C0000813023E0920709F4A9C008F0A3C28831EB
:103C1000924009F0E5C2F091371EF1FF05C0809196
:103C2000CD0380588093CD032091CD0327FDC3CED3
:103C30000C949A9CE091371EE1FFBDCE0E94FB9C44
:103C4000F091CD03FF7DF093CD0308955091371E81
:103C500051FFB1CE0C945F84A091371EA1FF06C026
:103C6000B091CD0390E4B927B093CD03E091CD039B
:103C7000E6FDA1CE0C94CA9CB091371EB1FF9BCE3D
:103C80000C94959220917D1E30917E1E2115310558
:103C900009F491CEA0E1B7E20F94D1952091C41D13
:103CA0003091C51D50E040E00F9476953093580C4C
:103CB0002093570C0F940155E0915F1EE860E0934C
:103CC0005F1E08956091371E61FF06C07091CD039D
:103CD00091E079277093CD03A091CD03A0FD6BCE29
:103CE0000C94FF9DF091371EF1FF06C08091CC032C
:103CF00020E182278093CC033091CC0334FD5BCE4E
:103D00000C947D89B091371EB1FF55CE0E94AE85CF
:103D1000E091CC03EB7FE093CC03089520917D1ECE
:103D200030917E1E2115310509F445CEA0E1B7E2A0
:103D30000F94D1952091C41D3091C51D50E040E0F5
:103D40000F9476953093600C20935F0C0F9401557F
:103D500020915F1E286020935F1E08955091371EAA
:103D600051FF29CE0C94B08A0C94AE85863022E0A7
:103D7000920709F46FC18730924009F035C2E09193
:103D8000371EE1FF18CE0C94C993811521E09207EC
:103D900009F4B8C18130914009F025C28091371EE5
:103DA00082608093371E08958D3022E0920709F4D7
:103DB000DDC18E30924009F011C23091371E31FFC3
:103DC000FACD0E942C9D4091CD034F7E4093CD03B0
:103DD00008958B3023E0920709F44DC08C30934056
:103DE00009F003C23091371E31FF06C04091CC0369
:103DF00058E045274093CC036091CC0363FDDBCDB5
:103E00000C94AC83823123E0920709F4C1C1833161
:103E1000934009F0E4C16091371E61FFCCCD0C9452
:103E20006286843023E0920701F18530934009F0E7
:103E3000D4C18091371E81FFBECD0E94B3872091EF
:103E4000CC032D7F2093CC0308959091371E91FFD2
:103E500006C0F091CC0382E0F827F093CC032091C8
:103E6000CC0321FDA8CD0C94B3873091371E31FFD0
:103E7000A2CD0C94AB887091371E71FF9CCD0E942F
:103E8000AC83A091CC03A77FA093CC03089540916D
:103E9000371E41FF90CD0C946C8AB091371EB1FF54
:103EA0008ACD0E947D89E091CC03EF7EE093CC0324
:103EB0000895B091371EB1FF7ECD0C94D0968091BD
:103EC000371E81FF06C02091CD0330E123272093C8
:103ED000CD034091CD0344FD6ECD0C942C9D2091DB
:103EE0007D1E30917E1E2115310509F464CDA0E1BF
:103EF000B7E20F94D1952091C41D3091C51D50E0BB
:103F000040E00F94769530935C0C20935B0C0F94FB
:103F1000015530915F1E386030935F1E0895709197
:103F2000371E71FF48CD0E9478878091CC038F7D2A
:103F30008093CC0308955091371E51FF3CCD0C94D3
:103F4000A284A091371EA1FF36CD0C949993A09125
:103F5000371EA1FF06C0B091CC03E1E0BE27B093AD
:103F6000CC039091CC0390FD26CD0C94B889B091F0
:103F7000371EB1FF06C0E091CD0398E0E927E0933A
:103F8000CD03F091CD03F3FD16CD0C945D9D809192
:103F9000371E81FF10CD0E94C99D2091CD032D7F3A
:103FA0002093CD0308954091371E41FF05C05091E5
:103FB000CC0350585093CC036091CC0367FDFBCCED
:103FC0000C9472839091371E91FF06C0F091CC0340
:103FD00080E4F827F093CC032091CC0326FDEBCCB2
:103FE0000C947385E091371EE1FFE5CC0E94939D10
:103FF000F091CD03FB7FF093CD0308955091371ED0
:1040000051FFD9CC0E94CA9C6091CD036F7B609315
:10401000CD03089520917D1E30917E1E211531051E
:1040200009F4C9CCA0E1B7E20F94D1952091C41D49
:104030003091C51D50E040E00F94769530935E0CB2
:1040400020935D0C0F940155F0915F1EF860F09382
:104050005F1E0895F091371EF1FF06C08091CD03D9
:1040600022E082278093CD033091CD0331FDA3CC94
:104070000C94C99D6091371E61FF9DCC0E94738591
:104080007091CC037F7B7093CC0308956091371EB1
:1040900061FF91CC0E949A9C7091CD037F777093C1
:1040A000CD0308954091371E41FF06C05091CD03C6
:1040B00064E056275093CD037091CD0372FD7BCC05
:1040C0000C94939D20917D1E30917E1E211531050B
:1040D00009F471CCA0E1B7E20F94D1952091C41DF1
:1040E0003091C51D50E040E00F94769530935A0C06
:1040F0002093590C0F940155B0915F1EB860B09396
:104100005F1E08952091371E2D7F2093371E0E9439
:10411000B8890E94B3870E94AE850E94AC830E943A
:104120007D890E94FF9D0E94C99D0E94939D0E94CF
:104130005D9D1092CD031092CC0308953091371EEF
:1041400031FF39CC0E94FF9D4091CD034E7F4093BB
:10415000CD0308953091371E31FF2DCC0E94B889D0
:104160004091CC034E7F4093CC0308955091371E6D
:1041700051FF21CC0C94A0966091371E61FF1BCC9F
:104180000C941D954091371E41FF15CC0C94A686CA
:104190007091371E71FF06C0A091CC03B0E2AB272F
:1041A000A093CC03E091CC03E5FD05CC0C9478877B
:1041B0002091F2083091F3084091F4085091F508ED
:1041C0008091FE089091FF08A0910009B09101092B
:1041D000281B390B4A0B5B0B69CC08950895089591
:1041E000089508950895089508950895CF93DF934D
:1041F00000D01F92CDB7DEB7982F8F3010F00F94FC
:104200006496E82FF0E08827E75FFE4D8F4F0D940E
:10421000FC952B212D2133213A2154215A21622151
:1042200073219021CA21D121D821E02118212421F4
:104230006038710508F4E9C080E00F900F900F908E
:104240000F90DF91CF910895603281E07807A0F759
:104250008CEA96E115C0892FF0CF6038710560F7C0
:104260008DEE9BE035C0603221E0720728F781E8CF
:104270009AE106C0603231E07307F0F683EF97E110
:104280006F3F710509F008F4EEC06031F1E07F077F
:1042900008F013C1895F9E4F7727660F771F680F5D
:1042A000791F7A836983A8C06038710528F68AE48B
:1042B0009CE10EC0603281E0780708F0BDCF85E652
:1042C00095E1DECF6038710508F0B6CF8DEB9EE149
:1042D000680F791FFB0180810F900F900F900F9056
:1042E000DF91CF9108956035710508F491C0603A6F
:1042F000710508F49BC0603F710508F09DCF605ABE
:1043000071098EEF94E1262F6034710508F4A2C084
:104310006834710508F0D6C0895B9F4F205432C0C5
:104320006033710508F47AC06036710508F483C003
:104330006039710508F4A9C0603C710508F4D1C06A
:10434000603F710508F4D2C06032E1E07E0708F4F6
:10435000D2C06035F1E07F0708F4D2C0603821E0B8
:10436000720708F069CF605571408AE491E1262F09
:104370006432710508F47BC06A32710508F08AC0A6
:104380008B96245230E0220F331F820F931F9A83A3
:10439000898332C0603C710508F04ECF8DE29BE00E
:1043A00097CF603C710508F047CF83E09DE190CF47
:1043B000603231E0730708F03FCF8AE399E160CFC4
:1043C0006035710540F1603A710558F1683B71053F
:1043D00008F032CF605A71096031710588F164319B
:1043E000710508F073C06051862F90E0880F991F07
:1043F000865C9E4E9A838983AEE7B2E0BC83AB8332
:10440000CE0101960E94FE1A18CF8DEA9AE060CF85
:1044100087E994E178CF82E693E175CF8FE193E16C
:10442000A6CF6055710989EC93E16DCF6055710994
:1044300080E394E168CF605371098CED92E197CFEE
:10444000E62FE370EA5FEE0FE61BF0E0ED5DFE4E57
:104450008781F3CE2770245E220F261B820F911DC9
:10446000FC018781EACE262F2F702858F5CF2BEA42
:10447000629F412D112446954695342F330F430FEB
:10448000440F262F241B215FE7CF6056710989E96D
:1044900092E16DCF8F5B9F4F2A5230E0220F331F86
:1044A000821B930B9A8389836BE872E07C836B8316
:1044B000CE0101960E94FE1AC0CE8B5B9E4F6051CA
:1044C000262FEBCF8B599F4F2854E7CF6451862F6F
:1044D00090E0880F991F919581959109885B9E4E78
:1044E000E1CF6059710986E592E141CF605C7109C5
:1044F00083E192E13CCF605F710980ED91E137CFBC
:10450000605271408DE891E132CF8F3010F00F94FE
:104510006496E82FF0E08827EF56FD4D8F4F0D94FD
:10452000FC95E222F222F922012309231023182309
:104530001F23A0224C2353235E237E23E322EA225F
:104540006033710508F412C16036710508F41BC1AF
:104550006039710508F44FC1603C710508F492C1DF
:10456000603F710508F493C1603281E0780708F478
:1045700093C16035E1E07E0708F493C16038F1E053
:104580007F0700F560557140AAE4B1E1862F6432DF
:10459000710508F41CC16A32710508F031C18452FA
:1045A000E82FF0E0EE0FFF1FEA0FFB1F34E6439FFA
:1045B000C001112494A783A78FEF9FE713969C93C4
:1045C0008E93129708956038710508F0C7C08DEA80
:1045D0009AE06FC06032E1E07E0708F0BEC0ACEA4E
:1045E000B6E173C06038710508F0B6C08DEE9BE08F
:1045F00060C0603281E0780708F0ADC0A1E8BAE1A0
:1046000064C06032E1E07E0708F0A4C0A3EFB7E128
:104610005CC06038710508F09CC08AE49CE149C028
:104620006032F1E07F0708F093C0A5E6B5E14DC028
:104630006038710508F08BC08DEB9EE13AC06035A3
:10464000710508F490C0603A710508F497C0603FA6
:10465000710508F0B7CF605A7109EEEFF4E1862FCB
:104660006034710508F49EC06834710508F0E9C033
:104670008054A82FB0E0AA0FBB1FAE0FBF1FA95BCD
:10468000BF4F54E6459F900111242D933C934FEF6B
:104690005FE7538342830895603C710508F05FC073
:1046A0008DE29BE006C0603C710508F04FC083E0DE
:1046B0009DE1680F791FFB0140830895603281E01E
:1046C000780708F042C0AAE3B9E16F3F710509F02D
:1046D00008F473C06031E1E07E0708F0A1C0FB017F
:1046E000FF27EE0FFF1FEA0FFB1FE95FFE4F74E687
:1046F000479FB0011124718360835ECF60357105DF
:1047000078F1603A7105A8F1683B710508F05ACF5D
:10471000605A710960317105D8F16431710508F092
:10472000A0C06051E62FF0E0EE0FFF1FE65CFE4EEA
:1047300024E6429FA0011124518340836FEF7FE75D
:104740007093261160932511089508950895089592
:104750000895089508950895089508950895089571
:10476000E2E6F3E17CCFE7E9F4E179CFAFE1B3E151
:104770000DCF60557109E9ECF3E171CF6055710916
:10478000E0E3F4E16CCF60537109ACEDB2E1FECE31
:10479000E62FE370EA5FEE0FE61BF0E0ED5DFE4E04
:1047A0004783CCCFA62FA770A45EAA0FA61BAE0F7F
:1047B000BF2FB11D17964C936ACFE62FEF70E858C4
:1047C000EE0FE61BEA0FFB2FF11D4783F5CE8BEAB8
:1047D000689F812D112486958695982F990F890FB2
:1047E000880FE62FE81BE15FEE0FE61BEA0FFB2FB9
:1047F000F11D4783E1CE60567109A9E9B2E1C6CE49
:104800008A5290E0880F991FFD01E81BF90BEF5BBE
:10481000FF4F842F90E0880F991F91838083CCCE27
:104820006051862F90E0880F991FFD01E81BF90B5E
:10483000EB5BFE4F842F90E0880F991F918380835C
:10484000BBCE885490E0880F991FDF01A81BB90BDD
:10485000AB59BF4F842F90E0880F991F8D939C9385
:1048600016CF6451E62FF0E0EE0FFF1FF195E195B2
:10487000F109E85BFE4E842F90E0880F991F918329
:1048800080835CCF60597109A6E5B2E17FCE605CA0
:104890007109A3E1B2E17ACE605F7109A0EDB1E1E7
:1048A00075CE60527140ADE8B1E170CECF92DF922B
:1048B000EF92FF921F93CF93DF937B014091740E91
:1048C0005091750E6091760E7091770E41155105DD
:1048D0006105710511F41092251E4F5F5F4F6F4FF8
:1048E0007F4F4093740E5093750E6093760E7093C5
:1048F000770E2091C31D5091111EC090111E30E003
:104900003195219531092527207833272C252093AF
:10491000111E1092D507E114F104A1F06C0110E012
:1049200090E080E0D0E0C0E08C0D9D1D0E9473C639
:10493000CB52D84F89831F5FC12FD0E0CE01CE1557
:10494000DF0590F380915F1E877F80935F1EDF916C
:10495000CF911F91FF90EF90DF90CF9008952F920D
:104960003F924F925F926F927F928F929F92AF92FF
:10497000BF92CF92DF92EF92FF920F931F93CF934C
:10498000DF93CDB7DEB7AA970FB6F894DEBF0FBEA0
:10499000CDBF3C016AA3633009F451C708F437C79F
:1049A0002AA1243009F427C2253009F05EC79C01F2
:1049B0002B5B3E4F1C0157EF250E311C099798A722
:1049C0008FA3F1E080E190E0A0EFBFEFBCA3ABA329
:1049D0004BE852E05EA34DA34FA058A442145304E9
:1049E00009F425C2B9016E5F7F4F7AA769A721013B
:1049F000480E591E30E020E001E0AAE08A2E912CFA
:104A0000A12CB12C11E0DB015E914E91BAA7A9A7B0
:104A1000EF2FEF712115310509F488C5DA010F94E4
:104A200004966C01FF24D7FCF094EF2CC601F6FF2E
:104A30000EC08F2FFF0F990B880F892F881F990B9E
:104A400048275927481B590BCA018C0D9D1D02C0D0
:104A500095958795EA95E2F797FD0196D82EB3E6EE
:104A6000EFE8FFE0B81708F092C12D2D30E050E0DC
:104A700040E019A2CE0181966C01CA01B901A501DD
:104A800094010F947695605DD6016E936D012115AA
:104A900031054105510589F7109709F43EC0FD0124
:104AA00001900020E9F79F01FD01215031092E17E7
:104AB0003F0799F1F19000932D0F7091300F4091C5
:104AC000310FA091250FB091260F741709F40CC374
:104AD0004091300F50E04F5F5F4F4F735527942F39
:104AE00003C00FB607FE9FC25091310F9517C9F34F
:104AF000A091300FB0E0AE58B04FFC92DFB6F89402
:104B00004093300FA091270FB091280F8C918062B5
:104B10008C93DFBE2E173F0769F6E1E9FFE0F490C2
:104B2000FF2099F100932D0F3091300F2091310F1C
:104B3000A091250FB091260F321709F41AC32091C6
:104B4000300F30E02F5F3F4F2F733327E22E03C02B
:104B50000FB607FEDDC28091310FE816C9F3A091B0
:104B6000300FB0E0AE58B04FFC92CFB6F89420931F
:104B7000300FA091270FB091280F7C9170627C9329
:104B8000CFBE3196F490F110CDCF610142145304A1
:104B900009F49BC0D6012D916D01EFE8FFE02436AA
:104BA00008F410C330E050E040E019A2CE01819635
:104BB0007C01CA01B901A50194010F947695605D4D
:104BC000D7016E937D01211531054105510589F706
:104BD000109709F43EC0FD0101900020E9F7AF01F4
:104BE000FD01415051094E175F0799F1F190109363
:104BF0002D0F2091300F3091310FA091250FB091E2
:104C0000260F231709F473C32091300F30E02F5F74
:104C10003F4F2F733327622F03C00FB607FE06C323
:104C20009091310F6917C9F3A091300FB0E0AE58E1
:104C3000B04FFC92EFB6F8942093300FA091270F5D
:104C4000B091280F8C9180628C93EFBE4E175F0756
:104C500069F6E1E9FFE04491442399F110932D0FA7
:104C60005091300FF090310FA091250FB091260F89
:104C70005F1509F481C32091300F30E02F5F3F4F63
:104C80002F733327922F03C00FB607FE44C37091D2
:104C9000310F9717C9F3A091300FB0E0AE58B04F65
:104CA0004C93EFB6F8942093300FA091270FB0915A
:104CB000280F8C9180628C93EFBE31964491411104
:104CC000CDCF4C145D0409F065CFA2EAB2E0DD90CF
:104CD00000932D0F9091300FE090310FE091250F50
:104CE000F091260F9E1509F48DC32091300F30E00E
:104CF0002F5F3F4F2F733327322F03C00FB607FEAE
:104D000050C36091310F3617C9F3E091300FF0E0D6
:104D1000EE58F04FD0825FB7F8942093300FE091B7
:104D2000270FF091280F7081706270835FBF64EA73
:104D300072E06A177B0759F6EBA0FCA02E0C3F1C13
:104D40004E0C5F1C4FA158A54215530509F46FC0C6
:104D5000ADA1BEA11396FC91139711962D913C9194
:104D6000A9A5BAA551CEFC90F5FE21C0EFB6F894E6
:104D7000A0912B0FB0912C0FCC92A091250FB09148
:104D8000260F3C91337030643C93EFBE3196C49053
:104D9000CC2009F4EEC300932D0F9091300FE090DA
:104DA000310FA091250FB091260F9E15E1F22091B1
:104DB000300F30E02F5F3F4F2F733327322F03C068
:104DC0000FB607FE60C15091310F3517C9F3A0919E
:104DD000300FB0E0AE58B04FCC927FB7F89420932C
:104DE000300FA091270FB091280F2C9120622C93A7
:104DF0007FBF3196CCCF9C012B593F4F1C015FE305
:104E0000250E311CFC013197F8A7EFA3F0E088E0F4
:104E100090E008EF1FEF1CA30BA367E872E07EA3EE
:104E20006DA34FA058A44214530409F0DBCD03E94D
:104E30001FE008C085E19FE00F94DD3C0F5F1F4F2E
:104E4000892B21F0F80164916111F4CFBAA1B5303A
:104E500008F0D1C4B33008F0BEC4B23009F0C3C406
:104E600073018FE1E80EF11C97E1690E711C6E145D
:104E70007F0409F4B3C011E02AE0822E912CA12C0A
:104E8000B12CF301A191B1913F012CEE31E50F94CA
:104E90000C969C0135952795359527953595279541
:104EA0003595279535952795022F37FD0395EFE822
:104EB000FFE0043608F489C3202F30E050E040E0E2
:104EC00019A2CE0181961C01CA01B901A501940164
:104ED0000F947695605DD1016E931D01211531050A
:104EE0004105510589F71097E9F1FD010190002076
:104EF000E9F7AF01415051094A175B0799F13D901D
:104F000010932D0F5090300FD090310FE091250F5E
:104F1000F091260F5D1409F4EDC32091300F30E0BD
:104F20002F5F3F4F2F733327322F03C00FB607FE7B
:104F300080C36091310F3617C9F3E091300FF0E074
:104F4000EE58F04F30824FB6F8942093300FE09136
:104F5000270FF091280F2081206220834FBE4A172F
:104F60005B0769F6E1E9FFE04491442399F110936E
:104F70002D0F5091300F3090310FA091250FB0912F
:104F8000260F531509F4FBC32091300F30E02F5F3B
:104F90003F4F2F733327D22E03C00FB607FEBEC379
:104FA0006091310FD616C9F3A091300FB0E0AE5822
:104FB000B04F4C934FB6F8942093300FA091270F29
:104FC000B091280F2C9120622C934FBE31964491C2
:104FD0004111CDCFE614F70409F053CF6DE085E120
:104FE0009FE00F94DD3C892B09F456C46AE085E10B
:104FF0009FE0AA960FB6F894DEBF0FBECDBFDF913B
:10500000CF911F910F91FF90EF90DF90CF90BF90C5
:10501000AF909F908F907F906F905F904F903F9058
:105020002F900D94DD3CEC90E5FE5ECDA091310F0C
:10503000B0E0AE58B04FCC90A091310FB0E01196D7
:10504000AF73BB27A093310FA0912B0FB0912C0F02
:10505000CC92A091250FB091260F7C917370706453
:105060007C93B091300F6091310FB61307C0A091BF
:10507000270FB091280F5C915F7D5C93A091250F65
:10508000B091260F31CD8C9185FF9DCEA091310F2F
:10509000B0E0AE58B04F4C916091310F70E06F5F4F
:1050A0007F4F6F7377276093310FA0912B0FB091D3
:1050B0002C0F4C93A091250FB091260F6C9163702B
:1050C00060646C93B091300F9091310FB91307C0A9
:1050D000A091270FB091280F5C915F7D5C93A09108
:1050E000250FB091260F6FCE6C9165FFF1CC4FB7B5
:1050F000F894A0912B0FB0912C0FFC92A091250F4A
:10510000B091260F9C91937090649C934FBFCFCC2D
:105110006C9165FF20CDA091310FB0E0AE58B04F3B
:105120005C916091310F70E06F5F7F4F6F737727F5
:105130006093310FA0912B0FB0912C0F5C93A09135
:10514000250FB091260F4C91437040644C93B09161
:10515000300F9091310FB91307C0A091270FB09174
:10516000280F3C913F7D3C93A091250FB091260FD5
:10517000F2CCDC90D5FEE3CC2FB7F894A0912B0FA6
:10518000B0912C0FFC92A091250FB091260F8C911D
:10519000837080648C932FBF3196F4CC6C9165FF43
:1051A00021C05FB7F894A0912B0FB0912C0FFC9207
:1051B000A091250FB091260F3C91337030643C9341
:1051C0005FBF3196F490FF2009F430C110932D0F8A
:1051D000E090300F7091310FA091250FB091260F04
:1051E000E716E1F24091300F50E04F5F5F4F4F7391
:1051F0005527542F03C00FB607FE48C09091310FBA
:105200005917C9F3A091300FB0E0AE58B04FFC92DF
:105210003FB7F8944093300FA091270FB091280F1B
:105220004C9140624C933FBF3196CCCF3C9135FFBF
:10523000F7CCA091310FB0E0AE58B04F7C91A09167
:10524000310FB0E01196AF73BB27A093310FA0913F
:105250002B0FB0912C0F7C93A091250FB091260FAE
:105260009C91937090649C93B091300FE090310FBB
:10527000BE1107C0A091270FB091280F8C918F7D90
:105280008C93A091250FB091260FCACC8C9185FFED
:10529000B5CFA091310FB0E0AE58B04FEC90609117
:1052A000310F70E06F5F7F4F6F7377276093310F1F
:1052B000A0912B0FB0912C0FEC92A091250FB091E3
:1052C000260F7C91737070647C93B091300F609165
:1052D000310FB61307C0A091270FB091280F9C91F2
:1052E0009F7D9C93A091250FB091260F87CF7C9135
:1052F00075FF8ACC2FB7F894A0912B0FB0912C0F8B
:10530000FC92A091250FB091260F6C9163706064A0
:105310006C932FBF68CC6C9165FFB9CCA091310F15
:10532000B0E0AE58B04F5C916091310F70E06F5FAC
:105330007F4F6F7377276093310FA0912B0FB09140
:105340002C0F5C93A091250FB091260F3C913370E8
:1053500030643C93B091300FF090310FBF1107C013
:10536000A091270FB091280F7C917F7D7C93A09115
:10537000250FB091260F8BCC3C9135FF7CCC2FB7FD
:10538000F894A0912B0FB0912C0F4C93A091250F66
:10539000B091260F4C91437040644C932FBF3196CF
:1053A0008DCCF080F5FEADCCE091310FF0E0EE5801
:1053B000F04F40816091310F70E06F5F7F4F6F73EE
:1053C00077276093310FE0912B0FF0912C0F4083E2
:1053D000E091250FF091260F908193709064908357
:1053E000F091300FC090310FFC1107C0E091270FF2
:1053F000F091280F80818F7D8083E091250FF091BF
:10540000260F7FCC808185FF70CC2FB7F894E09178
:105410002B0FF0912C0FD082E091250FF091260FE9
:1054200030813370306430832FBF81CCEDE8FFE0F2
:105430002A3008F0B7CBF490FF2009F4B3CB1093D7
:105440002D0F4091300F8091310FA091250FB09119
:10545000260F481709F455C04091300F50E04F5FB8
:105460005F4F4F735527942F03C00FB607FE18C028
:105470007091310F9717C9F3A091300FB0E0AE587B
:10548000B04FFC926FB7F8944093300FA091270F64
:10549000B091280F5C9150625C936FBF3196CBCF77
:1054A0003C9135FFE5CFA091310FB0E0AE58B04F41
:1054B0008C916091310F70E06F5F7F4F6F73772732
:1054C0006093310FA0912B0FB0912C0F8C93A09172
:1054D000250FB091260F7C91737070647C93B0910E
:1054E000300FE090310FBE1107C0A091270FB0918F
:1054F000280F6C916F7D6C93A091250FB091260FB2
:10550000B7CFEC90E5FEA8CF4FB7F894A0912B0F42
:10551000B0912C0FFC92A091250FB091260F9C9179
:10552000937090649C934FBF319685CF2F2FFF0FC0
:10553000330B220F232F221F330B8FEF9FEF0E2EE3
:1055400002C0880F991F0A94E2F780959095BA01DE
:10555000770F660B762F86239723840F951F02C043
:1055600095958795EA95E2F782279327821B930BFF
:1055700075CAF9E0FD1508F478CA3DE8E32E3FE06E
:10558000F32E0AC085E19FE00F94DD3CFFEFEF1A98
:10559000FF0A892B09F469CAF70164916111F2CFFE
:1055A00064CA5C9155FF21C02FB7F894A0912B0FCE
:1055B000B0912C0F3C92A091250FB091260F9C9199
:1055C000937090649C932FBF31963490332009F4EC
:1055D000EBC010932D0F5090300FD090310FA09151
:1055E000250FB091260F5D14E1F22091300F30E0CD
:1055F0002F5F3F4F2F733327922F03C00FB607FE45
:1056000048C07091310F9717C9F3A091300FB0E0E7
:10561000AE58B04F3C92CFB6F8942093300FA09183
:10562000270FB091280F8C9180628C93CFBE31965A
:10563000CCCF908195FF7DCCE091310FF0E0EE581A
:10564000F04F0081E091310FF0E03196EF73FF27CA
:10565000E093310FE0912B0FF0912C0F0083E0913C
:10566000250FF091260F8081837080648083F091F4
:10567000300FC090310FFC1107C0E091270FF0915F
:10568000280F70817F7D7083E091250FF091260FA8
:1056900050CC3C9135FFB5CFA091310FB0E0AE5862
:1056A000B04F2C906091310F70E06F5F7F4F6F7340
:1056B00077276093310FA0912B0FB0912C0F2C9274
:1056C000A091250FB091260F6C91637060646C936C
:1056D0004090300F4091310F441207C0A091270F26
:1056E000B091280F5C915F7D5C93A091250FB091E4
:1056F000260F87CF708175FF10CC2FB6F894E091FC
:105700002B0FF0912C0F3082E091250FF091260F96
:1057100030813370306430832FBEEECB9C9195FF87
:105720003FCCA091310FB0E0AE58B04F0C916091DA
:10573000310F70E06F5F7F4F6F7377276093310F8A
:10574000A0912B0FB0912C0F0C93A091250FB0912D
:10575000260F8C91837080648C93B091300FC09031
:10576000310FBC1107C0A091270FB091280F7C9179
:105770007F7D7C93A091250FB091260F11CC5C907A
:1057800055FE02CC2FB6F894A0912B0FB0912C0FA0
:105790004C93A091250FB091260F3C91337030644B
:1057A0003C932FBE319613CC0A3008F085CB8DE8A0
:1057B000C82E8FE0D82E0AC085E19FE00F94DD3C13
:1057C000FFEFCF1ADF0A892B09F476CBF60164913B
:1057D0006111F2CF71CB7301A7E5EA0EF11CB7E4BA
:1057E0006B0E711C44CB730147E3E40EF11C5BE2CA
:1057F000650E711C3CCBB530B1F77301E9EDEE1AC3
:10580000EEEFFE0AF9EF6F1AFEEF7F0A30CB62303F
:1058100061F59C012B5D3F4F1C0153E1250E311CAE
:10582000039698A78FA3F1E084E090E0ACEFBFEF80
:10583000BCA3ABA34BE852E05EA34DA3CDC89C0133
:105840002B593F4F1C015FE3250E311C019798A790
:105850008FA3F1E088E090E0A8EFBFEFBCA3ABA37B
:105860004BE852E05EA34DA3B7C893012F5B3F4FB7
:10587000130145E2240E311CF3013196F8A7EFA382
:10588000F1E086E090E00AEF1FEF1CA30BA36BE8AA
:1058900072E07EA36DA3A0C8AA960FB6F894DEBFEF
:1058A0000FBECDBFDF91CF911F910F91FF90EF9071
:1058B000DF90CF90BF90AF909F908F907F906F9030
:1058C0005F904F903F902F9008956F927F928F92AC
:1058D0009F92AF92BF92CF92DF92EF92FF921F936F
:1058E000CF93DF93CDB7DEB7A1970FB6F894DEBFA5
:1058F0000FBECDBF3B018617970709F49BC07C0103
:105900008AE0882E912CA12CB12C11E0F701219175
:105910007F0130E050E040E019A2CE0181966C0199
:10592000CA01B901A50194010F947695605DF60155
:1059300062936F01211531054105510589F73097B3
:10594000E9F101900020E9F7AF01F601415051095A
:105950004E175F0799F1919110932D0F2091300F01
:10596000D090310FA091250FB091260F2D1509F47D
:10597000DDC02091300F30E02F5F3F4F2F73332772
:10598000822F03C00FB607FEA0C06091310F8617AB
:10599000C9F3A091300FB0E0AE58B04F9C937FB7E1
:1059A000F8942093300FA091270FB091280F9C916D
:1059B00090629C937FBF4E175F0769F6EBE8FFE0AC
:1059C0004491442399F110932D0F5091300F9091F1
:1059D000310FA091250FB091260F591709F4EBC094
:1059E0002091300F30E02F5F3F4F2F733327D22E9F
:1059F00003C00FB607FEAEC03091310FD316C9F306
:105A0000A091300FB0E0AE58B04F4C936FB7F89400
:105A10002093300FA091270FB091280F7C917062D6
:105A20007C936FBF319644914111CDCF6E147F04AA
:105A300009F06CCFA2EAB2E051E07D9050932D0FB7
:105A40008090300F9090310FE091250FF091260F4C
:105A5000891409F4F6C02091300F30E02F5F3F4FDA
:105A60002F733327B22E03C00FB607FEB9C0F090D4
:105A7000310FBF14C9F3E091300FF0E0EE58F04F52
:105A80007082DFB6F8942093300FE091270FF091E9
:105A9000280F608160626083DFBEF2E0A43ABF0736
:105AA00061F6A1960FB6F894DEBF0FBECDBFDF91B1
:105AB000CF911F91FF90EF90DF90CF90BF90AF906C
:105AC0009F908F907F906F900895CC90C5FE5DCF92
:105AD000A091310FB0E0AE58B04FDC906091310F23
