:100000000C948C120D94DB9F0D94B09F0D94859FE2
:100010000D945A9F0D942F9F0D94049F0D94D99E7B
:100020000D94AE9E0C94BD120C94BD120C94BD1296
:100030000C94BD120C94BD120C94BD120D94D83DBD
:100040000C94BD120C94C4780C94A8760C94ACD487
:100050000C94BD120C94BD120C94BD120D94369DDF
:100060000C94BD120D94ECA00D94ACA00C94BD1298
:100070000C94BD120C94BD120C94BD120C94BD12C4
:100080000D94118C0D948F8B0D940D8B0C94BD12CF
:100090000C94BD120C94BD120C94BD120C94BD12A4
:1000A0000C94BD120C94BD120D94C3860D948B8AD2
:1000B0000D94D1850C94BD120C94BD120D949989A8
:1000C0000D94A7880D94B5870C94BD120C94BD12A5
:1000D0000C94BD120C94BD120D9475A00D9435A016
:1000E0000C94BD120D9438030C94CC380D94E01090
:1000F0000C9476B90C94DC810C94C87F0D94E6299D
:100100000D94C4090C940F7F0D943A4F0C946C48D5
:100110000C94D6960C9473810D9476A40C94428121
:100120000D94E8490D94710E0C94F7440C9485CE0F
:100130000C94907E0D9418BA0D94212A0D946110A0
:100140000D940F0D0C94D3800C94337F0D94781084
:100150000D94E09D0C94757F0C9454BC0C94EF6E40
:100160000C94FBC50C94ABC20C9495700C949481C8
:100170000C942E7E0D94D49D0C94CA6E0C94037F27
:100180000C947A7E0C945A500C94B5820C94AB7EED
:100190000C9479EF0D94C98D0D94179A0C941AA0B4
:1001A0000D94850E0D946D8D0C940D3E0C94708104
:1001B0000C9448420C94DC7E0C94F4800D947E4B9D
:1001C0000C943C7F0D94E0290C9435B40D9461009F
:1001D0000C94DF800C94F3690C94AC8C0C9499D93A
:1001E0000C94E8F20C94F4990D94E7430D943109C2
:1001F0000C9439ED0C94AA7F0D94C2300C94868235
:100200000C9448810C9422A30C9424830C948EC4E7
:100210000D94B18D0D94CA300C94157F0C9495EE0D
:100220000C9420BB0D941B2A0C9403BA0D94959D3D
:100230000C94BD6E0C949E820C94C3800D9433A0DC
:100240000C94FF7F0C94A2EC0C945F7E0C9436818E
:100250000C9438F20C94BA7E0C94136A0C94D17FEF
:100260000D94998D0C946E240D942A9E0D94D40DAA
:100270000C9406810C941C900C946EA20D940F0E9D
:100280000D94FA0E0C9453EC0C94437E0D94EF0DE8
:100290000C94867E0C94866A0C94E2800D94A809D6
:1002A0000C9420BD0C94FD800D94780A0C949C183D
:1002B0000C94B86E0D94627C0C94C1810D94D8207E
:1002C0000C94877F0C9492820D94A89A0C94FAC98E
:1002D0000C94E7690C9454C70D94BA300D94B23065
:1002E0000C9471430D944D4B0C94CE7F0C94D6809E
:1002F0000D94C74D0D94E84E0C94E57E0D94F429B1
:100300000C9496FC0C94657E0D94F30E0D94CA8D9E
:100310000D947A0D0C94B5810C9431830C94567E17
:100320000C94076A0C94A68E0C944DF80C9497814B
:100330000C946F700C94DED80C94E9EB0C94CA8189
:100340000D94E89D0C9426980C94E0CC0C94247F9A
:100350000C94947F0D9440090D94E4430C947C7D9F
:100360000D94E37C0D94CE300D94157C0D94878D07
:100370000C94C99E0C94217F0C947C820C94407E3A
:100380000C942F240C9438690D947C090C94E5B9D5
:100390000C94007F0C94F97F0C944B990D9499095F
:1003A0000C94577F0C9428430C94AF810C94997E45
:1003B0000C9446C10C942D7F0D94A2300D944902EB
:1003C0000C94856F0D94DD250C94B97F0C94CB7F34
:1003D0000C94317E0C94E2380D9431A00C94B480CE
:1003E0000C949C7E0C949B820D94D7200D94A2BCFF
:1003F0000C94E5800D94040E0C9464820D94B10E5F
:100400000D94850D0D94ED290C94EE800C94693DAE
:100410000D94D6300D94489E0C941E810D9462A4C8
:100420000D94C30A0C94DD370C94A3810C94127FB5
:100430000C947C810C9484D90D94DA290D94D520E8
:100440000C949F430C94BD800C94717E0C94BE88D8
:100450000C94058B0C94BD7E0C94A9810C9405E63C
:100460000C94F3240D94A0100C9421A30C94A57E5D
:100470000C9495820C9481DA0C94E4F10C9415811F
:100480000D945A0A0D94C38D0C9418810D94728D9D
:100490000C94153E0C9418450C94D61C0D940D0A22
:1004A0000C94963D0D94F7670C94AE6F0C941E7FE0
:1004B0000C9427810C94FC810C94C3A30C948F8220
:1004C0000D943D2A0C9426DD0C942CB90C9424FA3E
:1004D0000C9491810C941B7F0C9407D80C94D681BA
:1004E0000C94796F0D94F49D0C949C380D94D90F55
:1004F0000D94022A0C941A800C942A7F0D94A2B9B0
:100500000C9400460C9498F30C946D820C940E821B
:100510000C9457A40D94094F0C94EE7E0C9411B9D1
:100520000C945DFB0C94CE140D9459100D944C0A50
:100530000C94C9800C944B7F0C94B17E0C94AC82CB
:100540000D94FB290C946D6F0C94D0810C94DC807D
:100550000D9478440C947B6A0C945C980D94818D76
:100560000C94E8800C94C37E0D949D9E0C94B67FF1
:100570000D942BA00C94A7540C94ED690C94FBCE15
:100580000C94F47E0D9496BB0C9448F40C94736F09
:100590000C9414F70C94508B0C942AAE0D947AA4FE
:1005A0000D948F9E0D94654B0C9434F10C94AF8296
:1005B0000C94DF7F0C9402450C948B810C94008189
:1005C0000C9494F20D9490450D94AE300C94A0814F
:1005D0000C94BC7F0C94C13D0D94BD8D0C94F84BD4
:1005E0000C94B2820C9467820C94E6EC0D949A0DF4
:1005F0000D94BC8E0D94289E0C94D0800C94777E24
:100600000C94467E0C9489820C947D7E0C94C07E62
:100610000D941A7D0C948C430C9447B10C94026F8A
:100620000D946F9E0C94D9370C942D810D946B0E04
:100630000C945E920C9481380C948E860D94964C9A
:100640000C94427F0C9431FD0C94F8FB0D94AF4C4C
:100650000D94EC0E0C94B7360C94E1810C94687EEA
:100660000D946CA40D94AA300C94F67F0C944ADD82
:100670000C9466420D94A6300C945C7E0C94B2816E
:100680000C9442820C94D2DB0C9449B60C9438F052
:100690000C94086F0C9403810D94839E0C948F9D91
:1006A0000C9403EF0C94E87E0D94B59D0C94627E3F
:1006B0000D94152A0D94EC300C943ACD0C94F77EE1
:1006C0000D94BE300D941E8D0C94C4A30C941A3955
:1006D0000C940D450C9445950C9482810C941E3716
:1006E0000D94B90D0D9424BC0C94E3190C94AD2415
:1006F0000C9421810C9433810C945C7F0C9444F312
:100700000D94BC440D9426040D94990A0C9417B9C9
:100710000D94E3090C9436140C94785A0C94977F3A
:100720000C94EB800D941B100D94FA4E0C94EBCBB3
:100730000C941FCC0C9461810D94580E0C94B47ED3
:100740000D94780E0C9424810C943F7F0C94F54505
:100750000D943E100C943C810D94C8290C94277F75
:100760000D94D4290C94FC7F0C94E08F0D94D02030
:100770000C94C2A30D94808E0D94A40D0C94F7805C
:100780000C94BE810C949B460C94A1590C945E373A
:100790000D9472A40C94DBF50C94F3990C94A3388B
:1007A0000C9430810C9439810C9481690C94D34061
:1007B0000D94F0300C94A6460C94B2F70D94AE1044
:1007C0000C94A6820C9429530D94738D0D9470A4EF
:1007D0000D94B1A40C94DF7E0C9427CB0D948B0E5A
:1007E0000C9447450C94197E0C94D7370D94837D57
:1007F0000D9474A40C94A5400C94537E0D94C69D46
:100800000C94B07F0D9487030D9453100D94AE0D8E
:100810000C94E0D90D94778D0C94AB6E0C944581BB
:100820000C9452450C94CBB90C941F820C94BBDDF4
:100830000C94BA800C94A0380C949A810C94A27EEB
:100840000C94E26F0C94CC5A0C940E6F0C94196AB1
:100850000D94159B0C9476820C944C7E0C94FA7E2D
:100860000C94F5810D94B6100C9479820C94C08090
:100870000D94B78D0D94A7100C94579C0C94C73D04
:100880000C94941A0C9412810C94A87E0D94C6308A
:100890000C94507E0D94E6300D94249E0C948B168F
:1008A0000D94354A0C94CD9B0C9407B30D946509B7
:1008B0000C94B7E50C94B37F0C94E27E0C94FA8010
:1008C0000C9499380C94F6240C94CC800D949F8D44
:1008D0000C9498590C94377E0C9479810D94514462
:1008E0000D94A58D0C94B9690C948C820C94517F55
:1008F0000C94A1DD0D94269E0C94DDEF0D94201038
:100900000D94092A0D94510E0C94A4F40C94C27FFA
:100910000D94900D0C949E1B0D94BEBA0C943A7ECF
:100920000C94DA400C949D810C94AE9C0C94067F40
:100930000D94B6090C943A430C941F6A0C94274703
:100940000C94BF120D946EA40C942E9E0C940888E7
:100950000C94917F0C942AEE0C94C66F0C9413C2E5
:100960000C94967E0D948A090C94BB810C943343AD
:100970000D9466A40C945A9F0D94229E0C94B6403C
:100980000C9402130C94F4D10D94679E0C94D5FD35
:100990000C949F510D94B5B40C94B8810C94D47FF1
:1009A0000C94CE690C946E870C948E6E0C94B78068
:1009B0000C942A810D94B6300C94AD400D94209E79
:1009C0000C94CACF0C9429B90C94187F0C94E27F34
:1009D0000D945D260D9400210D942F2A0D94360E52
:1009E0000C9479F60C949F7E0C94D87F0C94EBF8C1
:1009F0000C947F6F0C94EF150D94E2300C941BFF58
:100A00000D94DE300C9441F50C94FD120D947F1082
:100A10000C9403130C947C9A0C9461C50C9493BDB4
:100A20000C94A9820C9449CC0C94FDC80C94D980E8
:100A30000C94A5430C94FD7E0D94174E0D94CE2975
:100A40000C9498CA0C94AF800D947B9E0C94BABB06
:100A50000C94BC1F0C94D36F0D94938C0C94097F51
:100A60000C9466450C946A820D947A9A0D9429A090
:100A70000C94F7C30C94AD7F0C94B9190C94689442
:100A80000C948E810D945CA40C94CC9B0C94BF7F31
:100A90000C94C57F0C94C4820C949E590D94159EA1
:100AA0000C9432390D942DA00D94690E0D940D8D7A
:100AB0000D945F0D0C94A3940C94807E0C94D381C0
:100AC0000C947E380D94A7010D94E4B90C94CD815B
:100AD0000D94F4300D9460A40D94E8300C9467816B
:100AE0000C946E7E0D945EA40C94B77E0C946E6E86
:100AF0000C94FFAB0C94C6800D94599E0C94BFFAD5
:100B00000C946A810C94AE7E0C944DB80D94E19ACD
:100B10000C94367F0C94756E0C94F17E0C9434CE4C
:100B20000D94DD200C94F56E0D942FA00C94B882DA
:100B30000C9477FE0D94967C0D9468A40C946E7FB3
:100B40000C9409810D94D7030C947F820C946B7ED6
:100B50000D9499020C94AC810C9475430D94230F61
:100B60000C9499C60C941B810D9403010D9427A03D
:100B70000C94A2820C943D7E0D94490D0C94CA9E57
:100B80000C94747E0C944EC80C945F7F0D94AB8DC6
:100B90000D9464A40D9469100C94E4810C94C481A8
:100BA0000C9470820D942C0D0C94DC7F0C94858138
:100BB0000C94C7810C94EB7E0C94DFD60D948D8D34
:100BC0000C94FC120C9464810C941ED10D94020FB1
:100BD0000C947F810C94597E0C94711F0C945E814F
:100BE0000C942FB90C9414B90C94347E0C940C7F93
:100BF0000D94D64E0C941D1D0C94E96E0D94124567
:100C00000C94C01D0C9485850C945EA10C94987076
:100C10000D94124A0D9478A40D94939A0C94C2EDFD
:100C20000C940B130D94E8020C94BC3D0C947E4381
:100C30000C9465170C94C9A10D9470100C949F6AC4
:100C40000C94ADCD0C9496F00C9476210C94BDFFD1
:100C50000D94A59A0C9408DD0C94A78E0C942D9EEF
:100C60000C9401990C945E200C94D97E0C940C8108
:100C70000C944E7F0C94F36F0C94236F0C94BB1761
:100C80000D946AA40D946C9A0C9429A90C946D810E
:100C90000D94B07D0C94457F0C94AF5A0C944AA7E8
:100CA0000D947B8D0D94D2300C94487F0C94DC6EA7
:100CB0000C94B63D0C94F4F30C9476810C947382EE
:100CC0000C94A07F0D94DA300C9488F10C949B590D
:100CD0000C940F810C94497E0D942C9E0C94B5B904
:100CE0000D947E0E0C9498820C943F810C94888114
:100CF0000D94A78C0C94F1800D94282A0D94938D5B
:100D00000C94A6810C94937E0D94F90D0D940F2AEA
:100D10000C94F5990C94397F0D94362A0C94837EAB
:100D20000C94307F0C9486F90D9476040D94CC20AD
:100D3000526573657420636F6E74726F6C20697393
:100D40002063757272656E746C7920646973616278
:100D50006C65642E00436F6D6D732068616C746503
:100D6000642E204E65787420627974652077696CF2
:100D70006C207265736574207468652041726475B7
:100D8000696E6F2E0000537065656475696E6F2023
:100D9000323032332E31312D6465760073706565E3
:100DA0006475696E6F203230323331312D6465766F
:100DB00000000030303200FF0A5061676520686132
:100DC00073206E6F74206265656E20696D706C654E
:100DD0006D656E74656420796574000A426F6F7387
:100DE00074206C6F6F6B7570207461626C65000AA3
:100DF000326E642049676E6974696F6E204D617050
:100E0000000A326E64204675656C204D6170000AE0
:100E100050616765203920436667000A5472696D26
:100E20002031205461626C65000A565654204D6191
:100E300070000A426F6F7374204D6170000A506732
:100E4000203620436F6E666967000A414652204D86
:100E50006170000A5067203420436667000A4967C2
:100E60006E6974696F6E204D6170000A50672032A0
:100E700020436667000A5645204D6170000A3D3DDB
:100E80003D436F6D6D616E642048656C703D3D3D06
:100E90000A0A416C6C20636F6D6D616E6473206132
:100EA00072652073696E676C652063686172616347
:100EB00074657220616E642061726520636F6E6379
:100EC0006174656E61746564207769746820746804
:100ED00065697220706172616D6574657273200A54
:100EE000776974686F7574207370616365732E53CE
:100EF000796E7461783A20203C636F6D6D616E6429
:100F00003E2B3C706172616D65746572313E2B3CA5
:100F1000706172616D65746572323E2B3C706172F6
:100F2000616D657465724E3E0A0A3D3D3D4C6973C4
:100F300074206F6620436F6D6D616E64733D3D3D3F
:100F40000A0A41202D20446973706C617973203343
:100F500031206279746573206F66206375727265E3
:100F60006E745374617475732076616C756573204B
:100F7000696E2062696E61727920286C69766520DD
:100F800064617461290A42202D204275726E2063CB
:100F9000757272656E74206D617020616E6420637D
:100FA0006F6E666967506167652076616C75657301
:100FB00020746F20656570726F6D0A43202D205478
:100FC00065737420434F4D20706F72742E2020552E
:100FD0007365642062792054756E657273747564EC
:100FE000696F20746F207365652077686574686524
:100FF0007220616E20454355206973206F6E206119
:1010000020676976656E2073657269616C200A20BD
:10101000202020706F72742E2052657475726E736A
:1010200020612062696E617279206E756D626572F1
:101030002E0A4E202D205072696E74206E65772026
:101040006C696E652E0A50202D20536574206375DF
:101050007272656E7420706167652E202053796E00
:101060007461783A2020502B3C706167654E756D35
:101070006265723E0A52202D2053616D65206173B6
:10108000204120636F6D6D616E640A53202D2044F2
:101090006973706C6179207369676E6174757265CC
:1010A000206E756D6265720A51202D2053616D6549
:1010B000206173205320636F6D6D616E640A56204A
:1010C0002D20446973706C6179206D6170206F729E
:1010D00020636F6E666967506167652076616C7525
:1010E000657320696E2062696E6172790A57202DDE
:1010F00020536574206F6E65206279746520696E77
:10110000206D6170206F7220636F6E666967506139
:1011100067652E2020457870656374732062696E60
:1011200061727920706172616D65746572732E20D1
:101130000A2020202053796E7461783A2020572BA2
:101140003C6F66667365743E2B3C6E65776279749E
:10115000653E0A74202D205365742063616C6962BA
:10116000726174696F6E2076616C7565732E2020D4
:10117000457870656374732062696E61727920705E
:101180006172616D65746572732E20205461626CAA
:101190006520696E64657820697320656974686587
:1011A0007220302C200A20202020312C206F722029
:1011B000322E202053796E7461783A2020742B3CB3
:1011C00074626C655F6964783E2B3C6E657756612E
:1011D0006C7565313E2B3C6E657756616C7565327A
:1011E0003E2B3C6E657756616C75654E3E0A5A2003
:1011F0002D20446973706C61792063616C6962723F
:101200006174696F6E2076616C7565730A54202D68
:1012100020446973706C6179732032353620746FA5
:101220006F7468206C6F6720656E747269657320D7
:10123000696E2062696E6172790A72202D2044699C
:1012400073706C6179732032353620746F6F7468F7
:10125000206C6F6720656E74726965730A55202D66
:10126000205072657061726520666F7220666972C7
:101270006D77617265207570646174652E205468A5
:1012800065206E6578742062797465207265636587
:10129000697665642077696C6C206361757365207D
:1012A0007468652041726475696E6F20746F207276
:1012B000657365742E0A3F202D20446973706C613C
:1012C000797320746869732068656C702070616739
:1012D00065002C2000575545004F3200496E6C6563
:1012E000742074656D7000436F6F6C616E74005292
:1012F0006573657420636F6E74726F6C2069732000
:1013000063757272656E746C792064697361626C66
:1013100065642E00436F6D6D732068616C74656445
:101320002E204E65787420627974652077696C6C24
:1013300020726573657420746865204172647569F4
:101340006E6F2E004552523B20496E636F7272657C
:10135000637420454550524F4D2073697A650030C3
:10136000303200200020002000200020202020001B
:10137000537065656475696E6F20637378303230C1
:1013800031392E380000008000200120018000202B
:10139000018000F0008001C000C0002001C000807A
:1013A0000020010001040E11161A1C212A2C2E30D7
:1013B000323436383A3C3E40424446484C4E505215
:1013C00056585A5D5F63686F797D000020002300E6
:1013D000260029002C002F0032000001000003012C
:1013E0000601090100000A0B02090C0D0E08070393
:1013F00004010000000000000000000000000000E8
:1014000000000000000000000000000000000000DC
:101410001211100000000000000000000000000099
:101420000000000000000000000053706565647556
:10143000696E6F20323032332E31312D6465760083
:10144000737065656475696E6F2032303233313187
:101450002D6465760000000000963007772C610E41
:10146000EEBA51099919C46D078FF46A7035A563F6
:10147000E9A395649E3288DB0EA4B8DC791EE9D519
:10148000E088D9D2972B4CB609BD7CB17E072DB828
:10149000E7911DBF906410B71DF220B06A4871B982
:1014A000F3DE41BE847DD4DA1AEBE4DD6D51B5D4B0
:1014B000F4C785D38356986C13C0A86B647AF9621D
:1014C000FDECC9658A4F5C0114D96C0663633D0F5E
:1014D000FAF50D088DC8206E3B5E10694CE4416042
:1014E000D5727167A2D1E4033C47D4044BFD850D4E
:1014F000D26BB50AA5FAA8B5356C98B242D6C9BB6D
:10150000DB40F9BCACE36CD832755CDF45CF0DD65F
:10151000DC593DD1ABAC30D9263A00DE518051D7F1
:10152000C81661D0BFB5F4B42123C4B3569995BA97
:10153000CF0FA5BDB89EB802280888055FB2D90CA8
:10154000C624E90BB1877C6F2F114C6858AB1D6125
:10155000C13D2D66B69041DC760671DB01BC20D220
:10156000982A10D5EF8985B1711FB5B606A5E4BFDD
:101570009F33D4B8E8A2C9077834F9000F8EA809C0
:101580009618980EE1BB0D6A7F2D3D6D08976C642F
:1015900091015C63E6F4516B6B62616C1CD8306541
:1015A000854E0062F2ED95066C7BA5011BC1F40827
:1015B0008257C40FF5C6D9B06550E9B712EAB8BE74
:1015C0008B7C88B9FCDF1DDD62492DDA15F37CD3F5
:1015D0008C654CD4FB5861B24DCE51B53A7400BC09
:1015E000A3E230BBD441A5DF4AD795D83D6DC4D125
:1015F000A4FBF4D6D36AE96943FCD96E3446886704
:10160000ADD0B860DA732D0444E51D03335F4C0A96
:10161000AAC97C0DDD3C710550AA41022710100BB0
:10162000BE86200CC925B56857B3856F2009D466DE
:10163000B99FE461CE0EF9DE5E98C9D9292298D00F
:10164000B0B4A8D7C7173DB359810DB42E3B5CBDCC
:10165000B7AD6CBAC02083B8EDB6B3BF9A0CE2B692
:10166000039AD2B1743947D5EAAF77D29D1526DBFC
:10167000048316DC73120B63E3843B64943E6A6D4F
:101680000DA85A6A7A0BCF0EE49DFF099327AE008E
:101690000AB19E077D44930FF0D2A3088768F20138
:1016A0001EFEC206695D5762F7CB67658071366CB6
:1016B00019E7066B6E761BD4FEE02BD3895A7ADAD3
:1016C00010CC4ADD676FDFB9F9F9EFBE8E43BEB7C4
:1016D00017D58EB060E8A3D6D67E93D1A1C4C2D868
:1016E0003852F2DF4FF167BBD16757BCA6DD06B5B4
:1016F0003F4B36B248DA2B0DD84C1B0AAFF64A03E3
:1017000036607A0441C3EF60DF55DF67A8EF8E6E65
:101710003179BE69468CB361CB1A8366BCA0D26FA7
:101720002536E2685295770CCC03470BBBB91602FD
:10173000222F260555BE3BBAC5280BBDB2925AB41E
:101740002B046AB35CA7FFD7C231CFD0B58B9ED92B
:101750002C1DAEDE5BB0C2649B26F263EC9CA36AD8
:10176000750A936D02A906099C3F360EEB85670743
:101770007213570005824ABF95147AB8E2AE2BB1B6
:101780007B381BB60C9B8ED2920DBED5E5B7EFDC35
:101790007C21DFDB0BD4D2D38642E2D4F1F8B3DD77
:1017A000686E83DA1FCD16BE815B26B9F6E177B08D
:1017B0006F7747B718E65A0888706A0FFFCA3B066A
:1017C000665C0B0111FF9E658F69AE62F8D3FF6BFB
:1017D0006145CF6C1678E20AA0EED20DD75483048F
:1017E0004EC2B30339612667A7F71660D04D47692B
:1017F00049DB776E3E4A6AD1AEDC5AD6D9660BDF3A
:1018000040F03BD83753AEBCA9C59EBBDE7FCFB2FC
:1018100047E9FFB5301CF2BDBD8AC2BACA3093B3E6
:1018200053A6A3B4240536D0BA9306D7CD2957DEE4
:1018300054BF67D9232E7A66B3B84A61C4021B68C5
:101840005D942B6F2A37BE0BB4A18E0CC31BDF0532
:101850005A8DEF022D0000000041311B19826236C3
:1018600032C3532D2B04C56C6445F4777D86A75A8B
:1018700056C796414F088AD9C849BBC2D18AE8EFFA
:10188000FACBD9F4E30C4FB5AC4D7EAEB58E2D83BB
:101890009ECF1C98875112C24A1023D953D370F49B
:1018A000789241EF6155D7AE2E14E6B537D7B5988B
:1018B0001C9684830559981B8218A9009BDBFA2D7E
:1018C000B09ACB36A95D5D77E61C6C6CFFDF3F41BB
:1018D000D49E0E5ACDA2248495E3159F8C2046B247
:1018E000A76177A9BEA6E1E8F1E7D0F3E82483DE9B
:1018F000C365B2C5DAAAAE5D5DEB9F464428CC6BEA
:101900006F69FD7076AE6B3139EF5A2A202C0907CA
:101910000B6D381C12F33646DFB2075DC67154708A
:10192000ED30656BF4F7F32ABBB6C231A275911C9A
:101930008934A00790FBBC9F17BA8D840E79DEA96D
:101940002538EFB23CFF79F373BE48E86A7D1BC5CA
:10195000413C2ADE58054F79F0447E62E9872D4FDD
:10196000C2C61C54DB018A159440BB0E8D83E8234C
:10197000A6C2D938BF0DC5A0384CF4BB218FA7969D
:101980000ACE968D130900CC5C4831D7458B62FA9C
:101990006ECA53E177545DBBBA156CA0A3D63F8DD8
:1019A00088970E96915098D7DE11A9CCC7D2FAE14C
:1019B000EC93CBFAF55CD762721DE6796BDEB55419
:1019C000409F844F5958120E161923150FDA70389C
:1019D000249B41233DA76BFD65E65AE67C2509CB98
:1019E000576438D04EA3AE9101E29F8A1821CCA74C
:1019F0003360FDBC2AAFE124ADEED03FB42D83129D
:101A00009F6CB20986AB2448C9EA1553D029467E9B
:101A1000FB687765E2F6793F2FB7482436741B09D7
:101A20001D352A1204F2BC534BB38D485270DE654B
:101A30007931EF7E60FEF3E6E7BFC2FDFE7C91D018
:101A4000D53DA0CBCCFA368A83BB07919A7854BC9B
:101A5000B13965A7A84B98833B0AA99822C9FAB562
:101A60000988CBAE104F5DEF5F0E6CF446CD3FD9C9
:101A70006D8C0EC27443125AF3022341EAC1706C9A
:101A8000C1804177D847D7369706E62D8EC5B50079
:101A9000A584841BBC1A8A41715BBB5A6898E8779D
:101AA00043D9D96C5A1E4F2D155F7E360C9C2D1BC9
:101AB00027DD1C003E120098B9533183A09062AE1E
:101AC0008BD153B59216C5F4DD57F4EFC494A7C279
:101AD000EFD596D9F6E9BC07AEA88D1CB76BDE3101
:101AE0009C2AEF2A85ED796BCAAC4870D36F1B5DD9
:101AF000F82E2A46E1E136DE66A007C57F6354E88A
:101B0000542265F34DE5F3B202A4C2A91B67918488
:101B10003026A09F29B8AEC5E4F99FDEFD3ACCF38C
:101B2000D67BFDE8CFBC6BA980FD5AB2993E099FD8
:101B3000B27F3884ABB0241C2CF115073532462A0D
:101B40001E73773107B4E17048F5D06B5136834688
:101B50007A77B25D634ED7FACB0FE6E1D2CCB5CC43
:101B6000F98D84D7E04A1296AF0B238DB6C870A0CA
:101B70009D8941BB84465D2303076C381AC43F1519
:101B800031850E0E2842984F6703A9547EC0FA791A
:101B90005581CB624C1FC538815EF423989DA70EFA
:101BA000B3DC9615AA1B0054E55A314FFC996262CA
:101BB000D7D85379CE174FE149567EFA50952DD795
:101BC0007BD41CCC62138A8D2D52BB963491E8BB1A
:101BD0001FD0D9A006ECF37E5EADC265476E91487A
:101BE0006C2FA05375E836123AA90709236A5424CA
:101BF000082B653F11E479A796A548BC8F661B9119
:101C0000A4272A8ABDE0BCCBF2A18DD0EB62DEFD19
:101C1000C023EFE6D9BDE1BC14FCD0A70D3F838AF9
:101C2000267EB2913FB924D070F815CB693B46E6C9
:101C3000427A77FD5BB56B65DCF45A7EC537095394
:101C4000EE763848F7B1AE09B8F09F12A133CC3F19
:101C50008A72FD249300000000376AC2016ED484AA
:101C60000359BE4602DCA80907EBC2CB06B27C8D45
:101C70000485164F05B851130E8F3BD10FD68597AB
:101C80000DE1EF550C64F91A095393D8080A2D9EFB
:101C90000A3D475C0B70A3261C47C9E41D1E77A2B2
:101CA0001F291D601EAC0B2F1B9B61ED1AC2DFAB01
:101CB00018F5B56919C8F23512FF98F713A626B1C1
:101CC00011914C7310145A3C152330FE147A8EB8BF
:101CD000164DE47A17E0464D38D72C8F398E92C9CD
:101CE0003BB9F80B3A3CEE443F0B84863E523AC077
:101CF0003C6550023D58175E366F7D9C3736C3DA1F
:101D00003501A9183484BF5731B3D59530EA6BD368
:101D100032DD01113390E56B24A78FA925FE31EF49
:101D200027C95B2D264C4D62237B27A0222299E6F2
:101D30002015F3242128B4782A1FDEBA2B4660FC34
:101D400029710A3E28F41C712DC376B32C9AC8F56C
:101D50002EADA2372FC08D9A70F7E75871AE591E7D
:101D6000739933DC721C2593772B4F517672F117E0
:101D700074459BD57578DC897E4FB64B7F16080D70
:101D80007D2162CF7CA4748079931E4278CAA0041E
:101D90007AFDCAC67BB02EBC6C87447E6DDEFA38F5
:101DA0006FE990FA6E6C86B56B5BEC776A02523124
:101DB000683538F369087FAF623F156D6366AB2BFA
:101DC0006151C1E960D4D7A665E3BD6464BA03225A
:101DD000668D69E06720CBD74817A115494E1F5380
:101DE0004B7975914AFC63DE4FCB091C4E92B75A72
:101DF0004CA5DD984D989AC446AFF00647F64E4084
:101E000045C12482444432CD4173580F402AE649EB
:101E1000421D8C8B435068F154670233553EBC75AC
:101E20005709D6B7568CC0F853BBAA3A52E2147C75
:101E300050D57EBE51E839E25ADF53205B86ED660D
:101E400059B187A4583491EB5D03FB295C5A456F67
:101E50005E6D2FAD5F801B35E1B771F7E0EECFB15E
:101E6000E2D9A573E35CB33CE66BD9FEE73267B811
:101E7000E5050D7AE4384A26EF0F20E4EE569EA2DF
:101E8000EC61F460EDE4E22FE8D388EDE98A36AB4B
:101E9000EBBD5C69EAF0B813FDC7D2D1FC9E6C972C
:101EA000FEA90655FF2C101AFA1B7AD8FB42C49ED5
:101EB000F975AE5CF848E900F37F83C2F2263D84F1
:101EC000F0115746F1944109F4A32BCBF5FA958D07
:101ED000F7CDFF4FF6605D78D95737BAD80E89FC39
:101EE000DA39E33EDBBCF571DE8B9FB3DFD221F53F
:101EF000DDE54B37DCD80C6BD7EF66A9D6B6D8EF4B
:101F0000D481B22DD504A462D033CEA0D16A70E6BC
:101F1000D35D1A24D210FE5EC527949CC47E2ADAB3
:101F2000C6494018C7CC5657C2FB3C95C3A282D3C2
:101F3000C195E811C0A8AF4DCB9FC58FCAC67BC95C
:101F4000C8F1110BC9740744CC436D86CD1AD3C0B8
:101F5000CF2DB902CE4096AF9177FC6D902E422BDB
:101F6000921928E9939C3EA696AB546497F2EA2214
:101F700095C580E094F8C7BC9FCFAD7E9E96133880
:101F80009CA179FA9D246FB598130577994ABB31C6
:101F90009B7DD1F39A3035898D075F4B8C5EE10DC7
:101FA0008E698BCF8FEC9D808ADBF7428B82490450
:101FB00089B523C68888649A83BF0E5882E6B01E0E
:101FC00080D1DADC8154CC938463A651853A18170A
:101FD000870D72D586A0D0E2A997BA20A8CE046654
:101FE000AAF96EA4AB7C78EBAE4B1229AF12AC6FA2
:101FF000AD25C6ADAC1881F1A72FEB33A67655758C
:10200000A4413FB7A5C429F8A0F3433AA1AAFD7C97
:10201000A39D97BEA2D073C4B5E71906B4BEA7406E
:10202000B689CD82B70CDBCDB23BB10FB3620F499D
:10203000B155658BB06822D7BB5F4815BA06F65319
:10204000B8319C91B9B48ADEBC83E01CBDDA5E5A1B
:10205000BFED3498BE000000006567BCB88BC809AE
:10206000AAEEAFB5125797628F32F0DE37DC5F6BA6
:1020700025B938D79DEF28B4C58A4F087D64E0BDE7
:102080006F018701D7B8BFD64ADDD86AF23377DF50
:10209000E0561063589F571950FA30A5E8149F1066
:1020A000FA71F8AC42C8C07BDFADA7C767430872BE
:1020B00075266FCECD707FAD951518112DFBB7A489
:1020C0003F9ED0188727E8CF1A428F73A2AC20C654
:1020D000B0C9477A083EAF32A05BC88E18B5673BDF
:1020E0000AD00087B26938502F0C5FEC97E2F059A4
:1020F000858797E53DD1878665B4E03ADD5A4F8FF5
:10210000CF3F2833778610E4EAE37758520DD8EDB5
:102110004068BF51F8A1F82BF0C49F97482A30229D
:102120005A4F579EE2F66F497F9308F5C77DA74047
:10213000D518C0FC6D4ED09F352BB7238DC5189692
:102140009FA07F2A271947FDBA7C204102928FF475
:1021500010F7E848A83D58149B583FA823B6901D97
:1021600031D3F7A1896ACF76140FA8CAACE1077FF3
:10217000BE8460C306D270A05EB7171CE659B8A92A
:10218000F43CDF154C85E7C2D1E0807E690E2FCB91
:102190007B6B4877C3A20F0DCBC768B17329C70407
:1021A000614CA0B8D9F5986F4490FFD3FC7E50667F
:1021B000EE1B37DA564D27B90E284005B6C6EFB0EC
:1021C000A4A3880C1C1AB0DB817FD767399178D221
:1021D0002BF41F6E9303F7263B66909A83883F2F5C
:1021E00091ED589329546044B43107F80CDFA84DA1
:1021F0001EBACFF1A6ECDF92FE89B82E4667179B78
:1022000054027027ECBB48F071DE2F4CC93080F9C6
:10221000DB55E745639CA03F6BF9C783D31768364E
:10222000C1720F8A79CB375DE4AE50E15C40FF5458
:102230004E2598E8F673888BAE16EF3716F8408275
:10224000049D273EBC241FE92141785599AFD7E072
:102250008BCAB05C333BB659ED5ED1E555B07E50CC
:1022600047D519ECFF6C213B62094687DAE7E93272
:10227000C8828E8E70D49EED28B1F951905F56E4DD
:10228000823A31583A83098FA7E66E331F08C18618
:102290000D6DA63AB5A4E140BDC186FC052F2949C4
:1022A000174A4EF5AFF376223296119E8A78BE2BEE
:1022B000981DD997204BC9F4782EAE48C0C001FDB7
:1022C000D2A566416A1C5E96F779392A4F97969F88
:1022D0005DF2F123E505196B4D607ED7F58ED16275
:1022E000E7EBB6DE5F528E09C237E9B57AD9460010
:1022F00068BC21BCD0EA31DF888F56633061F9D6E3
:1023000022049E6A9ABDA6BD07D8C101BF366EB42D
:10231000AD530908159A4E721DFF29CEA511867B73
:10232000B774E1C70FCDD91092A8BEAC2A461119D7
:10233000382376A5807566C6D810017A60FEAECFC8
:10234000729BC973CA22F1A457479618EFA939ADF9
:10235000FDCC5E114506EE4D766389F1CE8D2644A7
:10236000DCE841F86451792FF9341E9341DAB12643
:1023700053BFD69AEBE9C6F9B38CA1450B620EF0B8
:102380001907694CA1BE519B3CDB362784359992D5
:102390009650FE2E2E99B95426FCDEE89E12715DF1
:1023A0008C7716E134CE2E36A9AB498A1145E63F2B
:1023B00003208183BB7691E0E313F65C5BFD59E972
:1023C00049983E55F12106826C44613ED4AACE8BD9
:1023D000C6CFA9377E38417FD65D26C36EB38976D6
:1023E0007CD6EECAC46FD61D590AB1A1E1E41E1411
:1023F000F38179A84BD769CB13B20E77AB5CA1C23E
:10240000B939C67E0180FEA99CE59915240B36A03A
:10241000366E511C8EA7166686C271DA3E2CDE6FB0
:102420002C49B9D394F081040995E6B8B17B490DE4
:10243000A31E2EB11B483ED2432D596EFBC3F6DBC3
:10244000E9A69167511FA9B0CC7ACE0C749461B9FA
:1024500066F10605DE00002200250028002B002E74
:10246000003100340002010000050108010B0100E9
:10247000002100240027002A002D00300033000135
:10248000010000040107010A01050505050705080B
:10249000080808020202020A0A08080404040401E7
:1024A0000101010101010103030303030303030409
:1024B0000707070C0C0C0C0C0C0C0C020202020699
:1024C000060606060606060B0B0B0B0B0B0B0B0189
:1024D0000210202008081020401020408002010235
:1024E00001080402010102040810204080804020FD
:1024F0001008040201800402018040201008040238
:1025000001080402010102040810204080010204B5
:10251000081020408000E80311241FBECFEFD1E255
:10252000DEBFCDBF00E00CBF12E0A0E0B2E0EEE500
:10253000F8E803E00BBF02C007900D92A837B1077F
:10254000D9F72FE1A8E7B2E001C01D92A03DB20784
:10255000E1F712E1CCE8D2E100E006C021970109E1
:10256000802FFE010F9476C2CB38D10780E0080798
:10257000A9F70F946DA90D942DC40C9400008091BF
:10258000361E882301F12091C31C27FD2AC04091EB
:10259000A81E5091A91E6091AA1E7091AB1E4436D0
:1025A00051056105710558F460919105709192058E
:1025B0006D32710521F0109292051092910591E013
:1025C00090938C050895109292051092910551E018
:1025D0005093361E73E07093F10691E090938C0552
:1025E0000895109292051092910533E03093F10610
:1025F00091E090938C0508950895109292051092A1
:10260000910508950895109292051092910581E028
:1026100080938C0508950F94109D60935C057093D2
:102620005D0580935E0590935F0580915C059091B8
:102630005D05A0915E05B0915F0540914205509106
:1026400043056091440570914505841B950BA60BCD
:10265000B70B8093640590936505A0936605B093CE
:10266000670520916405309165054091660550919C
:1026700067056091CE077091CF078091D007909148
:10268000D107621773078407950768F08091A81E29
:102690009091A91EA091AA1EB091AB1E892B8A2BE6
:1026A0008B2B09F0B8C03091F1063F5F3093F106F3
:1026B0005091361E552309F49EC07091F106733077
:1026C00008F4A9C09091BD0790629093BD07409116
:1026D0005C0550915D0560915E0570915F054093CA
:1026E000420550934305609344057093450510924D
:1026F000F106A0919105B09192051196B0939205C3
:10270000A0939105E0919105F0919205319741F0E8
:1027100020919105309192052E32310508F440C088
:1027200061E070E070939205609391058091CF0510
:102730009091D005A091D105B091D20580938D05DF
:1027400090938E05A0938F05B093900540915C0502
:1027500050915D0560915E0570915F054093CF05D6
:102760005093D0056093D1057093D205B0918C053C
:10277000F1E0BF27B0938C052091A81E3091A91ECF
:102780004091AA1E5091AB1E2F5F3F4F4F4F5F4F9E
:102790002093A81E3093A91E4093AA1E5093AB1EEF
:1027A00040916405509165056091660570916705DB
:1027B0003091C91C307639F03032D1F1303409F41F
:1027C00048C0303649F11092CE071092CF071092D0
:1027D000D0071092D1076091BF077091C007809118
:1027E000C1079091C20760939305709394058093FD
:1027F00095059093960580915C0590915D05A0915B
:102800005E05B0915F058093BF079093C007A093CA
:10281000C107B093C2070895DB01CA01880F991F51
:10282000AA1FBB1F840F951FA61FB71FAC01BD01B8
:1028300076956795579547957695679557954795FA
:102840004093CE075093CF076093D0077093D10782
:10285000C2CF76956795579547954093CE0750938D
:10286000CF076093D0077093D107B5CFCF92DF9297
:10287000EF92FF92CF93DF93F894C0919105D0919E
:102880009205C090BF07D090C007E090C107F090BC
:10289000C2070F94109D6093520570935305809367
:1028A00054059093550578948091910590919205E7
:1028B000892B09F05CC0E091BD1CF091BE1CEE5864
:1028C000FF4F20915205309153054091540550918E
:1028D00055052C193D094E095F09A091E206B091FA
:1028E000E3060F9416C2DC01CB01905CAF4FBF4FE3
:1028F0002FE0B695A795979587952A95D1F78E0FD6
:102900009F1F803D22E09207CCF0805D9240609155
:10291000260270912702E0902402F0902502E6162C
:10292000F706BCF1E816F90614F48E199F09DF9139
:10293000CF91FF90EF90DF90CF90089540912402C7
:1029400050912502E0902602F0902702E416F50649
:10295000DCF0E816F9064CF397FFE9CF88599E4F53
:10296000DF91CF91FF90EF90DF90CF900895CC0F43
:10297000DD1FC356DA4FE881F9812091BD1C3091EB
:10298000BE1CE20FF31F9DCF7A01E816F90624F76B
:10299000CCCF7B01E816F90644F2C9CF80919105AE
:1029A000909192050D9709F4A9C00F94109D609322
:1029B0005C0570935D0580935E0590935F05809143
:1029C0005C0590915D05A0915E05B0915F05409119
:1029D000BF075091C0076091C1077091C207841B67
:1029E000950BA60BB70B8093640590936505A09398
:1029F0006605B093670520916405309165054091A7
:102A00006605509167056091CE077091CF07809160
:102A1000D0079091D107261737074807590708F4C0
:102A20006CC0A0919105B0919205AB2B09F469C0DF
:102A3000E0919105F09192053196F0939205E09323
:102A40009105A0919105B0919205E0919105F091C9
:102A50009205AA0FBB1FA356BA4FEE0FFF1FE556F4
:102A6000FA4F8D919C9140815181841B950B9093DD
:102A70009A05809399054091640550916505609190
:102A80006605709167059091C91C907649F0903267
:102A900009F487C0903409F495C0903609F475C0E4
:102AA0001092CE071092CF071092D0071092D10744
:102AB0005091BD0750625093BD072091BF073091E0
:102AC000C0074091C1075091C207209393053093EE
:102AD0009405409395055093960560915C0570911F
:102AE0005D0580915E0590915F056093BF077093CF
:102AF000C0078093C1079093C20708951092361EB5
:102B0000089521E030E03093920520939105609183
:102B1000CF057091D0058091D1059091D205609339
:102B20008D0570938E0580938F059093900580910D
:102B30005C0590915D05A0915E05B0915F05809365
:102B4000CF059093D005A093D105B093D20531E085
:102B50003093361E4091A81E5091A91E6091AA1E66
:102B60007091AB1E4F5F5F4F6F4F7F4F4093A81E1A
:102B70005093A91E6093AA1E7093AB1EACE3B0E005
:102B8000B0939A05A093990576CFDB01CA01880F0F
:102B9000991FAA1FBB1F840F951FA61FB71FAC014B
:102BA000BD017695679557954795769567955795A5
:102BB00047954093CE075093CF076093D00770930B
:102BC000D10776CF76956795579547954093CE0771
:102BD0005093CF076093D0077093D10769CFCF92FE
:102BE000DF92EF92FF920F931F93CF93F89400918F
:102BF000910510919205C090BF07D090C007E0905A
:102C0000C107F090C207C0918C050F94109D60938E
:102C1000520570935305809354059093550578940D
:102C2000E091BD1CF091BE1C0115110571F0000F63
:102C3000111FF801E356FA4F0190F081E02D8091C9
:102C4000BD1C9091BE1CE80FF91F209152053091D8
:102C5000530540915405509155052C193D094E09D5
:102C60005F09A091E206B091E3060F9416C2DC0161
:102C7000CB01905CAF4FBF4F2FE0B695A7959795CE
:102C800087952A95D1F78E0F9F1FCC2311F0885975
:102C90009E4F803D22E09207D4F0805D9240E0900C
:102CA0002402F090250220912602309127022E1551
:102CB0003F0564F12817390714F4821B930BCF9159
:102CC0001F910F91FF90EF90DF90CF90089540916A
:102CD00024025091250220912602309127022417C8
:102CE00035077CF02817390744F397FFE8CF885958
:102CF0009E4FCF911F910F91FF90EF90DF90CF905B
:102D000008959A012817390784F7D7CF9701281714
:102D100039079CF2D4CF8091910590919205499703
:102D200009F4D0C03FB7F8944091300B5091310B6B
:102D30006091320B7091330B26B5A89B06C02F3FD4
:102D400021F04F5F5F4F6F4F7F4F3FBF962F852F13
:102D5000742F6627620F711D811D911D660F771FED
:102D6000881F991F660F771F881F991F60935C0546
:102D700070935D0580935E0590935F0580915C057F
:102D800090915D05A0915E05B0915F054091BF07F0
:102D90005091C0076091C1077091C207841B950BC9
:102DA000A60BB70B8093640590936505A093660509
:102DB000B0936705A0919105B0919205AB2BC9F135
:102DC000E0919105F09192053196F0939205E09390
:102DD0009105A0919105B0919205E0919105F09136
:102DE0009205AA0FBB1FA356BA4FEE0FFF1FE55661
:102DF000FA4F6D917C9120813181621B730B70932E
:102E00009A05609399057091BD0770627093BD0734
:102E100080915C0590915D05A0915E05B0915F0584
:102E20008093BF079093C007A093C107B093C207D8
:102E3000089581E090E090939205809391054091F0
:102E4000CF055091D0056091D1057091D205409386
:102E50008D0550938E0560938F057093900560915A
:102E60005C0570915D0580915E0590915F056093B2
:102E7000CF057093D0058093D1059093D2055091E2
:102E80008C0591E0592750938C059093361E209124
:102E9000A81E3091A91E4091AA1E5091AB1E2F5F13
:102EA0003F4F4F4F5F4F2093A81E3093A91E409372
:102EB000AA1E5093AB1EAFE0B0E0B0939A05A0936A
:102EC0009905A1CF1092361E089580915D0E807FE6
:102ED0008034F1F08036D9F42091C91C2C712C304B
:102EE00089F146E050E0509377054093760562E023
:102EF00070E07093750560937405A4E0B0E0B09342
:102F00007305A09372057093710560937005089521
:102F10003091C91C3C713C30A9F0E4E0F0E0F09342
:102F20007705E093760582E090E0909375058093B5
:102F30007405F0937305E093720590937105809387
:102F40007005089528E030E03093770520937605EA
:102F500042E050E0509375054093740564E070E0E2
:102F60007093730560937205A6E0B0E0B0937105AD
:102F7000A093700508958F929F92AF92BF92CF92C7
:102F8000DF92EF92FF920F931F93CF93DF93809185
:102F9000361E81110FC090E080E0DF91CF911F912C
:102FA0000F91FF90EF90DF90CF90BF90AF909F90E8
:102FB0008F900895F894E0919105F09192054091D9
:102FC000BF075091C0076091C1077091C2073FB71A
:102FD000F8948091300B9091310BA091320BB0910D
:102FE000330B26B5A89B05C02F3F19F00196A11DF4
:102FF000B11D3FBF8824982EA92EBA2E820E911C97
:10300000A11CB11C880C991CAA1CBB1C880C991C07
:10301000AA1CBB1C8092520590925305A0925405A5
:10302000B09255057894EE0FFF1FE356FA4FC0811A
:10303000D181A090BD1CB090BE1CCA0DDB1D80913B
:10304000520590915305A0915405B09155057C010E
:103050008D01E41AF50A060B170BA8019701F894E5
:103060009090BD0796FC2EC07894A091E206B09196
:10307000E3060F9416C2DC01CB01905CAF4FBF4F4B
:103080002FE0B695A795979587952A95D1F78C0F40
:103090009D1F803D02E09007DCF1805D9240009131
:1030A000240210912502E0902602F0902702E016FB
:1030B000F1060CF47801E816F9060CF06ECF8E19C3
:1030C0009F096BCFC090BF07D090C007E090C107A9
:1030D000F090C2078090930590909405A09095057C
:1030E000B0909605A0919905B0919A0578940F94A7
:1030F00016C2A7019601281939094A095B090F94DC
:1031000029C2C9018C0F9D1F803D02E090072CF65B
:10311000C0902402D0902502E0902602F090270271
:10312000EC14FD040CF47601E816F90644F297FF5E
:1031300034CF88599E4F31CF8091361E3FB7F894D7
:103140008091300B9091310BA091320BB091330BE9
:1031500026B5A89B05C02F3F19F00196A11DB11DF2
:103160003FBF6627782F892F9A2F620F711D811D0F
:10317000911D660F771F881F991F660F771F881F85
:10318000991F60936C0570936D0580936E05909305
:103190006F0580916C0590916D05A0916E05B091C1
:1031A0006F054091F2065091F3066091F40670911C
:1031B000F506841B950BA60BB70B809368059093BF
:1031C0006905A0936A05B0936B052091680530915D
:1031D000690540916A0550916B0560919B0570915E
:1031E0009C0580919D0590919E05261737074807FD
:1031F000590708F473C080916C0590916D05A091FA
:103200006E05B0916F058093F2069093F306A0933C
:10321000F406B093F5065091BD0750625093BD0778
:10322000409168055091690560916A0570916B0540
:10323000769567955795479540939B0550939C05C8
:1032400060939D0570939E057091361E711132C07A
:103250002CED35E040E050E02093CE073093CF07CF
:103260004093D0075093D10760919B0570919C05C6
:1032700080919D0590919E05969587957795679588
:1032800060939B0570939C0580939D0590939E058C
:10329000E0917F05F09180059081A0917E05B0912D
:1032A0005D0EB07F9A2301F1B03409F454C0B036FA
:1032B00009F448C06091371E7091381EE091D41E09
:1032C000F091D51E6E177F0750F45091361E55238E
:1032D00029F070915D0E707F703491F008953091F7
:1032E000C31C37FDF2CF0895B03421F780919105CA
:1032F000909192050597F1F6F1E0F093361EDACF42
:103300000F94109D80913E0590913F05A09140053E
:10331000B0914105E0917F05F0918005A0819091E9
:103320007E05A923D9F2809191059091920588306C
:103330009105D1F01092361EB091E51EBF5FB0939B
:10334000E51E089540919105509192054730510531
:1033500009F0B0CFD1CF209191053091920528305E
:10336000310509F0A7CFC8CF9093920580939105BE
:10337000089580916D1E82319CF026E030E03093FC
:1033800077052093760541E050E050937505409312
:10339000740564E070E0709373056093720508959E
:1033A000A7E0B0E0B0937705A0937605E2E0F0E007
:1033B000F0937505E093740585E090E090937305B4
:1033C000809372050895CF92DF92EF92FF92CF9390
:1033D000DF93F894C0919105D0919205C090BF07FA
:1033E000D090C007E090C107F090C2070F94109DE5
:1033F000609352057093530580935405909355053F
:103400007894C330D1050CF06AC0209199053091B1
:103410009A052197C29FA001C39F500DD29F500DC6
:103420001124E091BD1CF091BE1CBA96E40FF51F6B
:103430002091520530915305409154055091550506
:103440002C193D094E095F09A091E206B091E306EF
:103450000F9416C2DC01CB01905CAF4FBF4F2FE041
:10346000B695A795979587952A95D1F78E0F9F1FAB
:10347000803D22E09207D4F0805D9240C091260208
:10348000D0912702A0912402B0912502AC17BD076C
:103490000CF444C0A817B90714F48A1B9B0BDF91E6
:1034A000CF91FF90EF90DF90CF900895E0902402AD
:1034B000F0902502A0912602B0912702AE15BF051B
:1034C00044F1A817B9074CF397FFE9CF88599E4FED
:1034D000DF91CF91FF90EF90DF90CF900895E0E7DC
:1034E000F0E0C330D10509F4A3CF80919905909104
:1034F0009A052297C89FB001C99F700DD89F700D83
:103500001124E091BD1CF091BE1CBA96E60FF71F86
:103510008FCFD701A817B907BCF6BFCFDE01A81718
:10352000B9070CF4BACFBBCF8091B5079091B6071D
:103530002091BD1C3091BE1C821B930B4091260232
:103540005091270297FD77C048175907DCF1309159
:103550005D0E32953F703430E9F1353008F44BC0E0
:10356000363009F44AC0383009F0A2C0BC016B55AE
:1035700071096A35710508F482C0DC01A55BB109E7
:10358000AA35B10508F4A8C001978E30914008F023
:10359000BCC0E1E0F0E0F0937705E093760582E0CF
:1035A00090E0909375058093740523E030E03093AC
:1035B00073052093720544E050E0509371054093E9
:1035C00070050895841B950B30915D0E32953F7008
:1035D000343019F60197843B910580F162E070E088
:1035E0007093770560937605A1E0B0E0B093750520
:1035F000A09374050895333071F5BC0169577109C2
:103600006837710548F10197803F910508F451C072
:1036100023E030E0309377052093760541E050E0D9
:10362000509375054093740562E070E070937305E4
:10363000609372050895840F951F89CF21E030E0D3
:10364000309377052093760542E050E0509375055E
:103650004093740508950895A2E0B0E0B093770513
:10366000A0937605E3E0F0E0F0937505E093740530
:1036700081E090E090937305809372050895E2E0F5
:10368000F0E0F0937705E093760583E090E0909387
:1036900075058093740524E030E030937305209322
:1036A000720541E050E05093710540937005089514
:1036B0000895A1E0B0E0B0937705A0937605E2E02D
:1036C000F0E0F0937505E093740583E090E090934B
:1036D000730580937205089523E030E030937705F9
:1036E0002093760544E050E05093750540937405AF
:1036F00061E070E07093730560937205A2E0B0E042
:10370000B0937105A0937005089564E070E0709324
:10371000770560937605A1E0B0E0B0937505A093BE
:103720007405E2E0F0E0F0937305E093720583E046
:1037300090E0909371058093700508958F929F9209
:10374000AF92BF92CF92DF92EF92FF92CF93DF932F
:10375000F894C0919105D0919205C090BF07D09088
:10376000C007E090C107F090C2070F94109D6093CE
:1037700052057093530580935405909355057894A2
:103780008091990590919A05AE0141505109489F49
:10379000E001499FD00D589FD00D11248090BD1C91
:1037A0009090BE1CC80DD91D209152053091530533
:1037B00040915405509155052C193D094E095F095A
:1037C000F8949090BD0796FC53C07894A091E206BF
:1037D000B091E3060F9416C2DC01CB01905CAF4FB1
:1037E000BF4F2FE0B695A795979587952A95D1F766
:1037F0008C0F9D1F803D22E09207ECF0805D92408F
:10380000E0902602F09027022091240230912502B8
:103810002E153F0544F12817390714F4821B930B2A
:10382000DF91CF91FF90EF90DF90CF90BF90AF905E
:103830009F908F900895A0902402B090250220912F
:103840002602309127022A153B0544F02817390734
:103850002CF397FFE5CF820F931FE2CF9501281736
:103860003907BCF7DBCF970128173907BCF2D8CF4F
:10387000C090BF07D090C007E090C107F090C2078A
:103880008090930590909405A0909505B090960532
:10389000A0919905B0919A0578940F9416C2A7014A
:1038A0009601281939094A095B090F9429C2C901EF
:1038B0009FCFCF92DF92EF92FF92CF93462F20912E
:1038C000BD1C3091BE1CFC01E21BF30BC0918B05AB
:1038D0002091890530918A055C2F5F712115310592
:1038E000A9F52C2FCC0F330B220F232F221F330BC4
:1038F0008FEF9FEF052E02C0880F991F0A94E2F701
:1039000080959095BF01770F660B762F86239723BE
:103910008E0F9F1F02C0959587955A95E2F78227D3
:103920009327821B930B2091CC1C240F3327331F2A
:10393000181619069CF52817390714F4821B930BE7
:10394000CF91FF90EF90DF90CF900895DF010F941B
:1039500097C26C01FF24D7FCF094EF2CC601C6FF80
:103960000EC02C2FCC0F330B220F232F221F330B13
:10397000CF0182279327821B930B8C0D9D1D02C0C4
:10398000959587955A95E2F797FD01962091CC1C65
:10399000240F3327331F181619066CF2820F931F5A
:1039A000CF91FF90EF90DF90CF900895CF938091CB
:1039B000C91C8C718C30D1F1C0E06C2F8091B5079F
:1039C0009091B6070E94591C9093770580937605D5
:1039D0006C2F8091B3079091B4070E94591C90936B
:1039E0007505809374056C2F8091B1079091B20793
:1039F0000E94591C90937305809372056C2F8091DF
:103A0000AF079091B0070E94591C90937105809365
:103A100070056C2F8091AD079091AE070E94591CE4
:103A20009093570580935605CF9108952091C21C1D
:103A3000C091CC1C21FFC1CFBFCFCF92DF92EF92BC
:103A4000FF921F93CF93DF93F894C0919105D0918B
:103A50009205C090BF07D090C007E090C107F090DA
:103A6000C20710918C050F94109D609352057093BE
:103A7000530580935405909355057894209719F435
:103A8000C091CC1CD0E0E0919905F0919A0520916D
:103A900052053091530540915405509155052C190C
:103AA0003D094E095F09A091E206B091E3060F942B
:103AB00016C2DC01CB01905CAF4FBF4F2FE0B69533
:103AC000A795979587952A95D1F72091BD1C3091A0
:103AD000BE1C820F931F2197CE9FB001CF9F700D08
:103AE000DE9F700D1124860F971F112321F0D090B7
:103AF000C21CD1FE42C0803D22E09207D4F0805D1E
:103B00009240A0912402B0912502E0902602F0900C
:103B10002702EA16FB0664F1E816F90614F48E197A
:103B20009F09DF91CF911F91FF90EF90DF90CF9091
:103B300008954091240250912502E0902602F090D1
:103B40002702E416F5067CF0E816F90644F397FF21
:103B5000E8CF8E0D9F1DDF91CF911F91FF90EF90C9
:103B6000DF90CF9008957A01E816F90684F7D7CF51
:103B70007D01E816F9069CF2D4CF88599E4FBBCF41
:103B8000CF92DF92EF92FF92CF93DF933FB7F894FB
:103B90008091300B9091310BA091320BB091330B8F
:103BA00026B5A89B05C02F3F19F00196A11DB11D98
:103BB0003FBFCC24D82EE92EFA2EC20ED11CE11C18
:103BC000F11CCC0CDD1CEE1CFF1CCC0CDD1CEE1C17
:103BD000FF1CC0926C05D0926D05E0926E05F092CC
:103BE0006F0580916C0590916D05A0916E05B09167
:103BF0006F054091F2065091F3066091F4067091C2
:103C0000F506841B950BA60BB70B80936805909364
:103C10006905A0936A05B0936B0520916805309102
:103C2000690540916A0550916B0560919B05709103
:103C30009C0580919D0590919E05261737074807A2
:103C4000590708F465C080916C0590916D05A091AD
:103C50006E05B0916F058093F2069093F306A093E2
:103C6000F406B093F506409168055091690560919E
:103C70006A0570916B05769567955795479576958A
:103C800067955795479540939B0550939C05609386
:103C90009D0570939E05D090361EDD2009F453C01B
:103CA0002091A81E3091A91E4091AA1E5091AB1ED2
:103CB0008091C81C90E0B0E0A0E082179307A407B1
:103CC000B50708F040C08091CC1C90E0E0909105D1
:103CD000F09092058E159F0591F04091A81E50918D
:103CE000A91E6091AA1E7091AB1E4330510561055B
:103CF000710528F05091E51E5F5F5093E51EF0902E
:103D0000C31CF7FE56C0909392058093910551C055
:103D1000C090E706D090E806E090E906F090EA0649
:103D2000F694E794D794C794C0929B05D0929C05D3
:103D3000E0929D05F0929E05DF91CF91FF90EF906C
:103D4000DF90CF9008950F94109D6093BF077093FC
:103D5000C0078093C1079093C2070F94109D6B0119
:103D60007C01C091CC1C2C2F30E050E040E060E89A
:103D70007DE88BE590E00F9429C2C21AD30AE40AC9
:103D8000F50AC0929305D0929405E0929505F092C1
:103D90009605D0E0D0939205C09391051092CE077E
:103DA0001092CF071092D0071092D10771E0709354
:103DB000361E91E090938C05DF91CF91FF90EF90AC
:103DC000DF90CF900895CF92DF92EF92FF92CF9342
:103DD000462F2091BD1C3091BE1CFC01E21BF30B51
:103DE000C0918B052091890530918A055C2F5F7108
:103DF0002115310509F04CC08C2FCC0F990B880F81
:103E0000892F881F990B2FEF3FEF052E02C0220F3D
:103E1000331F0A94E2F720953095BF01770F660BA8
:103E2000762F262337232E0F3F1F02C03595279567
:103E30005A95E2F728273927281B390B6091CC1CAB
:103E40006D3010F02150310970E0842F90E06B014B
:103E5000C80ED91E121613060CF040C0C216D306A7
:103E6000D4F1E0909705F0909805E216F30620F45F
:103E70006217730708F097018E0D9F1D28173907E9
:103E800008F4C901CF91FF90EF90DF90CF90089593
:103E9000DF010F9497C26C01FF24D7FCF094EF2C44
:103EA0009601C6FF0EC08C2FCC0F990B880F892F5F
:103EB000881F990B9F0128273927281B390B2C0DA8
:103EC0003D1D02C0359527955A95E2F7832F880F3F
:103ED000211D311DB3CF2C193D09C3CF2C0D3D1D24
:103EE000C0CFCF938091C91C8C718C30D1F1C0E0D0
:103EF0006C2F8091B5079091B6070E94E31E9093B6
:103F00007705809376056C2F8091B3079091B40765
:103F10000E94E31E90937505809374056C2F809129
:103F2000B1079091B2070E94E31E909373058093AE
:103F300072056C2F8091AF079091B0070E94E31E2D
:103F400090937105809370056C2F8091AD079091CF
:103F5000AE070E94E31E9093570580935605CF91BC
:103F600008952091C21C21FDC2CF30915D0EC091F9
:103F7000CC1C32FFBDCFBBCFCF92DF92EF92FF922E
:103F8000F894209191053091920590918C05C09004
:103F9000BF07D090C007E090C107F090C2077894A7
:103FA0004091990550919A0521503109249FF001C3
:103FB000259FF00D349FF00D11246091BD1C709170
:103FC000BE1CE60FF71F992321F08091C21C81FFD0
:103FD00066C03FB7F8944091300B5091310B60911F
:103FE000320B7091330BA6B5A89B06C0AF3F21F0F2
:103FF0004F5F5F4F6F4F7F4F3FBF2227342F452FBB
:10400000562F2A0F311D411D511D220F331F441FF2
:10401000551F220F331F441F551F20935205309305
:10402000530540935405509355052C193D094E09ED
:104030005F09A091E206B091E3060F9416C2DC017D
:10404000CB01905CAF4FBF4F7FE0B695A79597959A
:1040500087957A95D1F78E0F9F1F803D22E09207BA
:104060003CF0805D9240FF90EF90DF90CF900895FC
:10407000E0902402F0902502409126025091270200
:104080004E155F05B4F04817590764F097FFEBCF62
:10409000840F951FFF90EF90DF90CF900895E8591F
:1040A000FE4F97CF841B950BFF90EF90DF90CF9042
:1040B0000895A701481759074CF7F4CFCF92DF9224
:1040C000EF92FF920F94109D60933A0570933B0519
:1040D00080933C0590933D0580913A0590913B0576
:1040E000A0913C05B0913D054091360550913705B2
:1040F0006091380570913905841B950BA60BB70BA1
:104100008093320590933305A0933405B093350521
:10411000C0903605D0903705E0903805F09039050D
:10412000CD28CE28CF28C1F4109232051092330545
:10413000109234051092350520913A0530913B05D7
:1041400040913C0550913D0520933605309337054D
:10415000409338055093390540913205509133050D
:10416000609134057091350580912E0590912F0551
:10417000A0913005B0913105481759076A077B07B0
:1041800008F4AFC0A0918105B09182051196B0935B
:104190008205A0938105609132057091330580916D
:1041A0003405909135059695879577956795609339
:1041B0002E0570932F058093300590933105E09183
:1041C0000802F09109021995AC01893621E09207A5
:1041D0000CF443C09C0129563140A3E8BDE20F9482
:1041E0004BC20024880F991F001C880F991F001CC8
:1041F000892F902D8770992748565140493621E0E4
:1042000052075CF1009719F181309105D1F08230AD
:104210009105A9F08330910581F08430910559F022
:104220008530910531F0069711F0485651404856B7
:1042300051404856514048565140485651404856C2
:10424000514048565140493621E0520734F040541D
:104250005B40493681E05807D4F7E090BD1CF090F0
:10426000BE1C4E195F0930913B1F3370323031F460
:10427000C090361DD090371D4C195D09E091391D55
:104280009A01220F331FF0E0A0E0B1E0AE1BBF0B9C
:104290000F9497C26B017C01A091FE1EB091FF1E8E
:1042A0009F010F949FC2C60ED71EE81EF91ECD2C8B
:1042B000DE2CEF2CFF24E7FCFA94D092FF1EC09274
:1042C000FE1E20913A0530913B0540913C055091EE
:1042D0003D052093360530933705409338055093BC
:1042E0003905FF90EF90DF90CF900895CF92DF9245
:1042F000EF92FF920F94109D60936C0570936D0583
:1043000080936E0590936F0580916C0590916D057B
:10431000A0916E05B0916F054091F2065091F306A1
:104320006091F4067091F506841B950BA60BB70BF4
:104330008093680590936905A0936A05B0936B0517
:10434000C090F206D090F306E090F406F090F506E7
:10435000CD28CE28CF28C1F41092680510926905A7
:1043600010926A0510926B0520916C0530916D05D5
:1043700040916E0550916F052093F2063093F3063D
:104380004093F4065093F5064091680550916905F5
:1043900060916A0570916B0580919B0590919C05D9
:1043A000A0919D05B0919E05481759076A077B07A4
:1043B000C0F13091C51C3F77313009F4C1C03111D3
:1043C00020C051E050938C0560916805709169059B
:1043D00080916A0590916B0596958795779567957D
:1043E00060939B0570939C0580939D0590939E051B
:1043F000A091EF06B091F0061196B093F006A0934D
:10440000EF06C0906C05D0906D05E0906E05F090C1
:104410006F05C092F206D092F306E092F406F09295
:10442000F506D090351FD5FE86C0E0908C05EE20B5
:1044300009F481C0E0910802F09109021995AC01DC
:10444000893621E092070CF442C09C012956314084
:10445000A3E8BDE20F944BC20024880F991F001CF3
:10446000880F991F001C892F902D87709927485617
:104470005140493621E0520754F1009711F1813043
:104480009105C9F082309105A1F08330910579F052
:104490008430910551F08530910529F0069709F097
:1044A000B5C048565140485651404856514048566C
:1044B00051404856514048565140493621E0520734
:1044C00034F040545B40493681E05807D4F72091DE
:1044D000BD1C3091BE1C421B530B70913B1F73706F
:1044E000723031F48091F81D9091F91D481B590BE1
:1044F000E091391D9A01220F331FF0E0A0E0B1E0F6
:10450000AE1BBF0B0F9497C26B017C01A091EA1EFA
:10451000B091EB1E9F010F949FC2C60ED71EE81EDE
:10452000F91ECD2CDE2CEF2CFF24E7FCFA94D09260
:10453000EB1EC092EA1EFF90EF90DF90CF9008959F
:104540008091F2069091F306A091F406B091F506E1
:10455000C0908505D0908605E0908705F09088058D
:104560008C199D09AE09BF09AC01BD01440F551F4F
:10457000661F771F840F951FA61FB71FB695A795B7
:10458000979587958093600590936105A093620548
:10459000B09363052091F2063091F3064091F40642
:1045A0005091F50620938505309386054093870545
:1045B00050938805409168055091690560916A059E
:1045C00070916B058091600590916105A0916205E5
:1045D000B0916305481759076A077B0730F4E091EB
:1045E000EF06F091F0063497A0F081E090E0909310
:1045F000F0068093EF0680938C0510929B05109235
:104600009C0510929D0510929E05FBCE4856514088
:1046100048CF609168057091690580916A05909115
:104620006B05969587957795679596958795779578
:10463000679560939B0570939C0580939D0590936F
:104640009E05A091EF06B091F0061196B093F0068A
:10465000A093EF06D6CE0F931F932091871E26FDC1
:1046600021C00091E81E002301F141111BC0E0911F
:10467000C307F091C407EE0FFF1FEE0FFF1FEE5CA4
:10468000FC4F60837183828393832091C3073091B1
:10469000C4072E37310508F453C0B091871EB064AB
:1046A000B093871E1F910F9108958091E91E882372
:1046B000C9F3E091C307F091C407ED54FD4F108298
:1046C000E0917F05F0918005A0917C05B0917D057A
:1046D000843009F446C0908110917E05912349F001
:1046E000E091C307F091C407ED54FD4F3081316074
:1046F0003083E0917905F0917A05833009F496C012
:104700005C9160917B05562349F0A091C307B0915D
:10471000C407AD54BD4F7C9172607C93B081F09121
:104720007805BF2349F0E091C307F091C407ED5429
:10473000FD4F308134603083442309F44BC041C0C5
:10474000A091C307B091C4071196B093C407A0937A
:10475000C307F091871EFF7BF093871E1F910F9177
:1047600008955C9160917B05562349F0A091C307A1
:10477000B091C407AD54BD4F7C9171607C93A09102
:104780007905B0917A05BC9120917805B22349F062
:10479000A091C307B091C407AD54BD4F0C91026006
:1047A0000C93F08180917E05F82349F0E091C307D6
:1047B000F091C407ED54FD4F108114601083423016
:1047C00049F4E091C307F091C407ED54FD4F4081D7
:1047D000486040839091361E992349F0E091C307C9
:1047E000F091C407ED54FD4F30813061308350911A
:1047F0008C05E091C307F091C407ED54FD4F55239C
:1048000051F17081706270830091C3071091C407E9
:104810000F94109D000F111F000F111FF801EE5C87
:10482000FC4F60837183828393832FCF208100911B
:104830007805202349F0E091C307F091C407ED54B7
:10484000FD4F8081826080831C9190917B051923AC
:1048500009F472CF68CF60816F7D6083D5CF80917E
:10486000BD078F7D8093BD072091BD0720622093F7
:10487000BD07309170063330E1F0323081F03130D5
:1048800029F4E0910402F091050219957091E91E56
:10489000772321F0A091BD07A5FD15C00895E091F3
:1048A0007905F0917A05408190917805492349F383
:1048B000EDCFE0917905F0917A055081609178050E
:1048C0005623F9F6E3CF609132057091330580915C
:1048D00034059091350542E00C942B238091BD075F
:1048E0008F7D8093BD072091BD0720622093BD0777
:1048F000309172063330E1F0323081F0313029F4FA
:10490000E0910602F091070219957091E91E772354
:1049100021F0A091BD07A5FD15C00895E0917C058B
:10492000F0917D05408190917B05492349F3EDCFBE
:10493000E0917C05F0917D05508160917B055623C7
:10494000F9F6E3CF609168057091690580916A0579
:1049500090916B0541E00C942B238091BD078F7DD6
:104960008093BD0720916E06233099F12230A1F08B
:104970002130D9F4E0910202F09103021995A0913F
:10498000E81EAA2321F0B091BD07B5FD17C0F09134
:10499000E91EF11113C00895E0917F05F0918005A3
:1049A000308190917E05392329F36091E81E6623BA
:1049B00071F37091BD0775FFEACF089560916405AA
:1049C00070916505809166059091670540E00C94B3
:1049D0002B23E0917F05F0918005408150917E0569
:1049E000452341F6E2CF90E080E0089590E080E03A
:1049F0000895EF92FF920F931F93CF93DF939091BF
:104A0000871E96FF16C154E05093FA06C82FD0E0D7
:104A1000CF37D1050CF0FBC0DE01A095B095A37097
:104A2000BB27109709F456C0A130B10549F1129780
:104A300009F081C18E01000F111F000F111F0E5CC4
:104A40001C4FF80180819181A281B3818B2F0F943B
:104A50008692F80160817181828193810F948692A0
:104A6000F80180819181A281B381892F0F94869270
:104A7000F80180819181A281B3810F948692219661
:104A80008E01000F111F000F111F0E5C1C4FF8014B
:104A900080819181A281B3818B2F0F948692F8013E
:104AA00060817181828193810F948692F801808167
:104AB0009181A281B381892F0F948692F801808120
:104AC0009181A281B3810F9486922196CF37D1052F
:104AD00009F49DC08E01000F111F000F111F0E5C05
:104AE0001C4FF80180819181A281B3818B2F0F949B
:104AF0008692F80160817181828193810F94869200
:104B0000F80180819181A281B381892F0F948692CF
:104B1000F80180819181A281B3810F9486927E01F8
:104B2000FFEFEF1AFF0A8701000F111F000F111F7F
:104B30000E5C1C4FF80180819181A281B3818B2F83
:104B40000F948692F80160817181828193810F9424
:104B50008692F80180819181A281B381892F0F947F
:104B60008692F80180819181A281B3810F9486920F
:104B70008701000F111F000F111F0A5C1C4FF80165
:104B800080819181A281B3818B2F0F948692F8014D
:104B900060817181828193810F948692F801808176
:104BA0009181A281B381892F0F948692F80180812F
:104BB0009181A281B3810F9486928E01000F111F03
:104BC000000F111F025C1C4FF80180819181A281AE
:104BD000B3818B2F0F948692F8016081718182815D
:104BE00093810F948692F80180819181A281B38193
:104BF000892F0F948692F80180819181A281B381DF
:104C00000F9486922496CF37D10509F063CF409157
:104C1000871E4F7B4093871E1092FA061092C4079E
:104C20001092C307DF91CF911F910F91FF90EF90EA
:104C300008954CEF51E061E060936E0FE090710FCA
:104C40008091720FE091660FF091670FE81609F4FA
:104C50005EC02091710F30E02F5F3F4F2F733327DD
:104C6000022F03C00FB607FE22C01091720F01176A
:104C7000C9F3E091710FF0E0ED54F04F10823FB7AF
:104C8000F8942093710FE091680FF091690F2081E3
:104C9000206220833FBF4150510971F61092FA06FD
:104CA000DF91CF911F910F91FF90EF900895708148
:104CB00075FFDBCFE091720FF0E0ED54F04FA08173
:104CC000E091720FF0E03196EF73FF27E093720FDF
:104CD000C0916C0FD0916D0FA883E091660FF09199
:104CE000670FB081B370B064B083D091710FF09151
:104CF000720FDF1307C0C091680FD091690F9881C0
:104D00009F7D9883E091660FF091670FAECFF080A2
:104D1000F5FE9FCFEFB6F894C0916C0FD0916D0F58
:104D20001882E091660FF091670F80818370806434
:104D30008083EFBEB0CF8E01000F111F000F111F37
:104D40000E5C1C4FF80180819181A281B3818B2F71
:104D50000F948692F80160817181828193810F9412
:104D60008692F80180819181A281B381892F0F946D
:104D70008692F80180819181A281B3810F948692FD
:104D8000219658CEDF92EF92FF920F931F93CF930D
:104D9000DF938C01EB0180912902882321F010928E
:104DA000290210929C1ED090361E3091881E2091B0
:104DB000881E8D2D90E091958195910983278078AB
:104DC000992782278093881E10923D0BD12CED2CC1
:104DD000F12CEC16FD0658F4C701800F911F0E94BC
:104DE0001A80F701E35CF44F8183D394F0CF1091E4
:104DF000D61E177F1093D61EDF91CF911F910F9172
:104E0000FF90EF90DF900895CF93C82F0F940193F8
:104E1000892BE1F38C2FCF910D948692CF93C82FDD
:104E2000892F0E9404278C2FCF910C940427809106
:104E30006F0F2091700F90E0805C9F4F821B910953
:104E40008F739927892B19F00F946E92F0CF0895E4
:104E50000F931F930F94239200919D0210919E0235
:104E600020919F023091A002601B710B820B930B6B
:104E700021E0693B7B408105910508F420E0822F09
:104E80001F910F910895CF92DF92EF92FF920F93AF
:104E90001F93CF938091120E80739091C91C90FD47
:104EA0001EC0803109F469C08032F1F43091F71EE0
:104EB000333009F429C108F4E7C0353009F4D9C00A
:104EC00008F437C1363081F4F0901A0E78ECF79E72
:104ED000D0011124B093B11EA093B01E05C0803143
:104EE00059F0803209F487C0CF911F910F91FF9044
:104EF000EF90DF90CF9008951091F71E133009F4D2
:104F0000E8C008F498C0153009F4E0C008F4A1C066
:104F1000C0911A0E163041F7C090371ED090381E3F
:104F2000E0904B1EF12CEE0CFF1C01E615E121E593
:104F300035E141E155E168E08AE095E10F94763191
:104F4000C89F900111243695279536952795ABE794
:104F5000B4E10F944BC296958795880F991F880FDF
:104F6000991F811522E0920708F458C02FEF31E015
:104F70003093AD1E2093AC1EB7CF3091F71E333067
:104F800009F4AAC008F44FC0353009F49CC008F4F5
:104F900063C0C0911A0E363009F0A6CFC090371EFC
:104FA000D090381EE0904B1EF12CEE0CFF1C01E659
:104FB00015E121E535E141E155E168E08AE095E15F
:104FC0000F947631C89FA0011124440F551F440F40
:104FD000551F413127E2520710F040E157E250934C
:104FE000B11E4093B01ECF911F910F91FF90EF9093
:104FF000DF90CF9008950091F71E033009F46FC041
:1050000008F452C0053059F108F49EC0063009F08A
:105010006BCF80911A0E90E0880F991F9093AD1E70
:105020008093AC1E61CF313089F0C091160E3230C2
:1050300009F4B4CF59CF113031F0C091160E1230AF
:1050400009F46ACF51CFC091150E66CFC091150EED
:10505000A5CFC091180E60CFC091180E9FCF809140
:10506000190E90E0880F991F9093AD1E8093AC1E8F
:105070003BCFF091190E98ECF99F80011124109309
:10508000B11E0093B01E30CF313099F1323009F0AB
:105090002BCFC090160E48ECC49E70011124F092E4
:1050A000B11EE092B01E20CF0130C9F1023009F0EC
:1050B0001BCF8091160E90E0880F991F9093AD1E24
:1050C0008093AC1E11CFC091190E68CFC091190EFC
:1050D00023CFC091170E20CFC091170E5FCF8091C4
:1050E000170E90E0880F991F9093AD1E8093AC1E11
:1050F000FBCED090150E58ECD59EB00111247093C4
:10510000B11E6093B01EF0CE1091170EC8EC1C9F1C
:10511000900111243093B11E2093B01EE5CE8091F2
:10512000150E90E0880F991F9093AD1E8093AC1ED2
:10513000DBCEB091180EE8ECBE9FC0011124909315
:10514000B11E8093B01ED0CE8091180E90E0880FD3
:10515000991F9093AD1E8093AC1EC6CE2F923F92A6
:105160004F925F926F927F928F929F92AF92BF9277
:10517000CF92DF92EF92FF920F931F93CF93DF9323
:10518000CDB7DEB7AE970FB6F894DEBF0FBECDBF7A
:105190002C016CA3633009F4F2C608F4DBC664305A
:1051A00009F4AEC2653009F009C7AC014B5B5E4F34
:1051B00089509F4FB201695071097EA36DA320E110
:1051C00030E03AA729A700EF1FEF18A70FA311E0BF
:1051D0006817790709F4A0C1112309F4A6C6113094
:1051E00009F400C764EF71E07EA76DA79BA38AA3B3
:1051F0004E5F5F4F5CA74BA731E7232E32E0332E83
:1052000001E04AE0842E912CA12CB12C11E0EBA5F9
:10521000FCA592918291FCA7EBA7EDA5FEA519959F
:10522000D82EF3E6F81708F0D3C52D2D30E050E066
:1052300040E019A2CE0181966C01CA01B901A50115
:1052400094010F9429C2605DF60162936F012115EC
:1052500031054105510589F73097E9F101900020AA
:10526000E9F7AF01F601415051094E175F0799F177
:10527000719000936E0FE090710FF090720FA091FB
:10528000660FB091670FEF1409F47DC22091710F82
:1052900030E02F5F3F4F2F733327622F03C00FB6CD
:1052A00007FE41C29091720F6917C9F3A091710F67
:1052B000B0E0AD54B04F7C923FB7F8942093710F9B
:1052C000A091680FB091690F2C9120622C933FBF81
:1052D0004E175F0769F6E9E6F3E14491442399F13B
:1052E00000936E0F5091710F7090720FA091660F26
:1052F000B091670F571509F48BC22091710F30E000
:105300002F5F3F4F2F733327922F03C00FB607FE37
:105310004EC23091720F9317C9F3A091710FB0E094
:10532000AD54B04F4C93DFB6F8942093710FA09119
:10533000680FB091690F2C9120622C93DFBE3196DB
:1053400044914111CDCF6AA07BA029A53AA5620E58
:10535000731E8AA19BA17C018615970509F499C04B
:10536000F70121917F01E7E6F3E1243608F479C2E1
:1053700030E050E040E019A2CE0181966C01CA01F4
:10538000B901A50194010F9429C2605DF6016293F1
:105390006F01211531054105510589F73097E9F174
:1053A00001900020E9F7AF01F601415051094E1775
:1053B0005F0799F1D19010936E0F2091710F30918A
:1053C000720FA091660FB091670F231709F4DEC228
:1053D0002091710F30E02F5F3F4F2F733327922FB3
:1053E00003C00FB607FE71C27091720F9717C9F311
:1053F000A091710FB0E0AD54B04FDC92CFB6F894ED
:105400002093710FA091680FB091690F8C91806209
:105410008C93CFBE4E175F0769F6E9E6F3E144913E
:10542000442399F110936E0F5091710FD090720F29
:10543000A091660FB091670F5D1509F4ECC2209141
:10544000710F30E02F5F3F4F2F733327C22E03C001
:105450000FB607FEAFC26091720FC616C9F3A091D6
:10546000710FB0E0AD54B04F4C937FB7F8942093D8
:10547000710FA091680FB091690F8C9180628C932D
:105480007FBF319644914111CDCF6E147F0409F056
:1054900067CFAFE6B2E07D9000936E0FF090710F92
:1054A000C090720FE091660FF091670FFC1409F441
:1054B00070C32091710F30E02F5F3F4F2F73332760
:1054C000922F03C00FB607FE03C38091720F981787
:1054D000C9F3E091710FF0E0ED54F04F70825FB7C7
:1054E000F8942093710FE091680FF091690F30816B
:1054F000306230835FBF2A163B0669F6EAA0FBA044
:10550000CFA0D8A4EC0CFD1CFBA2EAA28DA19EA109
:105510008E159F0509F07BCE0BE613E108C086E5EA
:105520009FE00F94A78C0F5F1F4F892B21F0F8018C
:1055300064916111F4CFBCA1B53008F033C5B3302C
:1055400008F0F8C4B23009F0FDC472017DE1E70E45
:10555000F11C85E1480E511CE414F50409F4ABC0BC
:1055600032E0E30EF11C62E0460E511C11E09AE0BD
:10557000892E912CA12CB12CF701929182917F015F
:105580000F94DD20082FE7E6F3E1843608F46CC2BF
:10559000202F30E050E040E019A2BE016F5D7F4F48
:1055A0001B01CA01B901A50194010F9429C2605DD4
:1055B000F10162931F01211531054105510589F75C
:1055C0003097E9F101900020E9F7AF01D101415096
:1055D00051094A175B0799F13D9010936E0F709037
:1055E000710FD090720FE091660FF091670F7D14EC
:1055F00009F494C32091710F30E02F5F3F4F2F7358
:105600003327922F03C00FB607FE93C28091720F0B
:105610009817C9F3E091710FF0E0ED54F04F30822C
:10562000CFB6F8942093710FE091680FF091690F55
:10563000208120622083CFBE4A175B0769F6E9E626
:10564000F3E14491442399F110936E0F5091710F3F
:105650003090720FA091660FB091670F531509F447
:10566000A2C32091710F30E02F5F3F4F2F7333277C
:10567000D22E03C00FB607FE65C38091720FD816F5
:10568000C9F3A091710FB0E0AD54B04F4C93CFB6B9
:10569000F8942093710FA091680FB091690F2C912D
:1056A00020622C93CFBE319644914111CDCF4E1440
:1056B0005F0409F061CF6DE086E59FE00F94A78C51
:1056C000892B09F492C46AE086E59FE0AE960FB696
:1056D000F894DEBF0FBECDBFDF91CF911F910F9128
:1056E000FF90EF90DF90CF90BF90AF909F908F9002
:1056F0007F906F905F904F903F902F900D94A78C6C
:10570000AC014B595F4FCF96B201615071097EA336
:105710006DA3A8E0B0E0BAA7A9A7E8EFFFEFF8A74C
:10572000EFA312E055CDDC90D5FEBCCDA091720F59
:10573000B0E0AD54B04F6C90A091720FB0E01196F4
:10574000AF73BB27A093720FA0916C0FB0916D0F38
:105750006C92A091660FB091670F8C9183708064FA
:105760008C93B091710FC090720FBC1107C0A091C3
:10577000680FB091690F7C917F7D7C93A091660F3B
:10578000B091670F8FCD7C9175FF80CDEFB6F89407
:10579000A0916C0FB0916D0F7C92A091660FB091AB
:1057A000670F6C91637060646C93EFBE5ECD6C901C
:1057B00065FEAFCDA091720FB0E0AD54B04F8C91AB
:1057C0006091720F70E06F5F7F4F6F737727609308
:1057D000720FA0916C0FB0916D0F8C93A091660F1A
:1057E000B091670F7C91737070647C93B091710F6E
:1057F000C090720FBC1107C0A091680FB091690FE3
:105800006C916F7D6C93A091660FB091670F81CD05
:10581000FC90F5FE72CDEFB6F894A0916C0FB091AC
:105820006D0F4C93A091660FB091670F4C91437030
:1058300040644C93EFBE319683CDDC90D5FE21C001
:10584000CFB6F894A0916C0FB0916D0F3C93A091DE
:10585000660FB091670F3C91337030643C93CFBEBC
:1058600031963491332309F4A8C110936E0F5091EF
:10587000710F9091720FA091660FB091670F591739
:10588000E1F24091710F50E04F5F5F4F4F7355272A
:10589000C42E03C00FB607FE48C07091720FC71622
:1058A000C9F3A091710FB0E0AD54B04F3C936FB706
:1058B000F8944093710FA091680FB091690F4C91CB
:1058C00040624C936FBF3196CCCF3C9135FF8CCD6D
:1058D000A091720FB0E0AD54B04F6C91A091720FD7
:1058E000B0E01196AF73BB27A093720FA0916C0F1D
:1058F000B0916D0F6C93A091660FB091670F7C9182
:10590000737070647C93B091710FC090720FBC1172
:1059100007C0A091680FB091690F8C918F7D8C9317
:10592000A091660FB091670F5FCD8C9185FFB5CFC9
:10593000A091720FB0E0AD54B04F5C916091720FC6
:1059400070E06F5F7F4F6F7377276093720FA09146
:105950006C0FB0916D0F5C93A091660FB091670FC3
:105960009C91937090649C93B091710FD090720F42
:10597000BD1107C0A091680FB091690F7C917F7D28
:105980007C93A091660FB091670F87CF6C9165FFF4
:105990001FCD2FB7F894A0916C0FB0916D0FDC92D2
:1059A000A091660FB091670F9C91937090649C9347
:1059B0002FBFFDCC9C9195FF4ECDA091720FB0E012
:1059C000AD54B04F5C916091720F70E06F5F7F4F8C
:1059D0006F7377276093720FA0916C0FB0916D0F6A
:1059E0005C93A091660FB091670F3C913370306467
:1059F0003C93B091710FD090720FBD1107C0A09170
:105A0000680FB091690F6C916F7D6C93A091660FD8
:105A1000B091670F20CD3C9135FF11CD2FB7F89491
:105A2000A0916C0FB0916D0F4C93A091660FB09147
:105A3000670F4C91437040644C932FBF319622CD39
:105A40003C9135FF21C02FB7F894A0916C0FB09115
:105A50006D0F3C92A091660FB091670F3C9133702F
:105A600030643C932FBF31963490332009F446C202
:105A700010936E0F7090710F5091720FA091660F7E
:105A8000B091670F7516E1F22091710F30E02F5F32
:105A90003F4F2F733327D22E03C00FB607FEF8C037
:105AA0004091720FD416C9F3A091710FB0E0AD54BC
:105AB000B04F3C926FB7F8942093710FA091680F8C
:105AC000B091690F7C9170627C936FBF3196CCCF9F
:105AD000D080D5FEFACCE091720FF0E0ED54F04F9B
