:100000000C94D4100D949A440D946F440D94444470
:100010000D9419440D94EE430D94C3430D949843ED
:100020000D946D430C9405110C9405110C9405115D
:100030000C9405110C9405110C9405110D94953B2D
:100040000C9405110C944F550C9445530C945ED1AF
:100050000C9405110C9405110C9405110D949760E6
:100060000C9405110D942D460D94ED450C9405113D
:100070000C9405110C9405110C9405110C940511A8
:100080000D9420390D94A5380D942A380C9405113F
:100090000C9405110C9405110C9405110C94051188
:1000A0000C9405110C9405110D9447350D94AF3740
:1000B0000D94AD340C9405110C9405110D94153765
:1000C0000D947B360D94E1350C9405110C940511BB
:1000D0000C9405110C9405110D94B6450D947645BC
:1000E0000C9405110C94C2570D948D4F0C94CFC1F4
:1000F0000D9405500C9487650C9435C10D94D1086E
:100100000C94AF950C9498150D9426520C94DF57CF
:100110000D9486090D9490500C94B5760C94B7C14B
:100120000C94EAA00C9496C10C9438D60D94FC78EB
:100130000C94E2AE0C94A3C20C94EE1C0C9465AA31
:100140000D940E520C94F2140D9420520C941C40F9
:100150000C94C8C00C941C680C9473C20D94B04FDE
:100160000C94997F0D94F34E0C94F9FB0D94294552
:100170000D94684E0C9467980C9479C20C94BCB0A2
:100180000D9416430D941F250C948AC10C947ED3B4
:100190000C9487C10C94CCC40C9440CD0D94C642F1
:1001A0000D948A7A0C9497C70C9421C40C946826F9
:1001B0000D9470030C94E3C10C94A07F0C949A6886
:1001C0000C94C49F0C9446750C94CE460C9415BFA9
:1001D0000D9406090D945C450C946DAB0D94740759
:1001E0000C941D260C94F77D0C940E910C947EC1FA
:1001F0000C942CFD0C94E1450D941D250C94B1C17B
:100200000C94A5270C9461260C9442C20C94A51F53
:100210000C9416D70D9415250C9422280C948D7FE0
:100220000C94AA760C94FD740C949FC10D94024F0B
:100230000D94CB7D0D947C6C0C9487580C94EAC083
:100240000C946F990D9421250C9466980C945A2661
:100250000D946E010D9427250C9444C10C9432BD6D
:100260000C94C5C00D946A150C9432C10C9486C2CE
:100270000C9409110C943EC10C94379B0D945D11A4
:100280000C94C6580C94673D0C9405C10D94E8512C
:100290000D94437E0C9462E70C94B9BA0D94DE0D74
:1002A0000D94F2440C9413750C94A8C10D94D615BA
:1002B0000C9463C10C941AC10C94EAC60C94F258C5
:1002C0000C9492C20D94E6000D94F0510C94B91167
:1002D0000C94201A0C94E5850C94E7700C94C4825D
:1002E0000C94565B0C9463ED0D9448450C94F7FF09
:1002F0000C94A45B0C94C0C10C94FDF90C940711F0
:100300000D94E6440C9419970C942C680C94F87591
:100310000D944A4E0C9401130C9469880C94BD7F83
:100320000C9461680D9432000C94A9C20D94400C99
:100330000C9499C80C94F3C00C940EC10D9445799B
:100340000C94A39B0C9418970D943B7E0C94CB8437
:100350000C9496270C946AC20C948E5B0C94B6E7AE
:100360000D94BA410C94A7D40C94FC870C945E9223
:100370000C94C5BE0C94C28D0C94667F0C9433C54E
:100380000D94337E0D94F5120C94C3830C94A42524
:100390000C94ABC10C949E660C94E7C00C943E5830
:1003A0000C9408C10C948CC20C94AEC10C9423D64E
:1003B0000C94EB250C94837C0C94DBC00C94C32729
:1003C0000C94597F0C9445C20C949BC20D94F51566
:1003D0000C9474450C9433FE0C94A8BD0C94F72730
:1003E0000D94E7510C94C69C0C94737C0C9468C8D3
:1003F0000C94F0270C94B4C10C9471700C94E42507
:100400000D94537E0D9413250C9478A00D94F60151
:100410000C9434EE0D946D120C949FC20C94E79DD5
:100420000C9472C10C9429C10C945ECC0C94CE5BDC
:100430000C9483C20C94C0250C9472FB0C94F0C0F5
:100440000C94FF5B0C947BC10C9477A00C94D85B4C
:100450000C94B5CD0C94B4270D94E7110D94EE6B6C
:100460000C949D130C944C460C9486270D947306A3
:100470000C94F9830C9403760C94D5C00D947D13E1
:100480000D942A010C94DC7F0C9434CF0D943A45E2
:100490000C947C110C948EEE0D9417250C94617DB8
:1004A0000C94A3120D9419250C94369B0C9408758A
:1004B0000D94A0150C940FBB0C94476C0D94024343
:1004C0000C949C690C9402280D94FB060C9471AE5C
:1004D0000C94F5C10C946DC20C948FC20C9467E31C
:1004E0000C9434FC0C9451750C9411C10C9478C18B
:1004F0000C94CAA80C9493C10C947CC20C94D8C0E0
:100500000D94F7020C9467BE0C943F1B0D94747904
:100510000C9408110C9401660C94DEC10C94F4BB8D
:100520000C945D580C94FA990C949CC10C94F01D99
:100530000C9413590C94AA250C942FC10C94CFED54
:100540000D9423250C94C45B0D9434150C94F6A3E0
:100550000C94355C0C94FFC00C94EE380D94D710BD
:100560000C9481C10C946A660C946CC10D94FA05CC
:100570000D94F9040C941B830D94594E0C94BFE810
:100580000D94B9410C9402C10D9433100C94BFC06A
:100590000C94D2C10C94DE700C9463660C9447C129
:1005A0000C94FF670C94F51B0D9425250C9418688A
:1005B0000C94A5C10D942C520C94F5250D94D90CD6
:1005C0000C940C7B0C94CD960C941FC20D940F25AB
:1005D0000C94B95B0C945FBC0C94D1C00D942A515F
:1005E0000C94208E0C9417C10C9404580D946845FB
:1005F0000C949E8A0C9498C20C9455AF0C947E7205
:100600000C94C3C10C942EFB0C9476C20C94097B01
:100610000C94E4C00C9445650C9460C10C94DA64AD
:100620000C9423C10C9495C20C947F8E0D94EB1303
:100630000C942CC10C9484C10C94967D0D940E0DD9
:100640000C9431120D946F020D9469680C9481869C
:100650000C947D8F0D94E2510C94389B0C941A5C91
:100660000C94E6980C94B8250D94E57A0C9473FAE2
:100670000D94F0440D94C80E0C94E6C10C94648261
:100680000C9457200D94F10A0D94EE440C94ACEDAB
:100690000C94EDC00D945B6C0C94D8C10C94BA1101
:1006A0000C9420C10C9429C90C945F660C946FFCC7
:1006B0000C94CB660C94A8C90D94750D0C946071C4
:1006C0000C9460670C94E4CA0D94A8960D9414528F
:1006D0000D9432520C94715B0C946FC10D94A8412F
:1006E0000C9477410C94D6130C942C120C9438C1B2
:1006F0000C9425680C940A110D94F8030D941B2595
:100700000C94BDC10C94DE250C94CBC00D941A52F0
:100710000C94B5C20D94490F0C94D9350D941B510E
:100720000C94E1C00C94A7470C944A5C0C9432677B
:100730000C9419190C948DC10C9426C10C940EC202
:100740000D94EA440C94C6C10D9471040D94550A9D
:100750000C94D4580C9470FD0C94E6850C94517F45
:100760000C9422580D948D410D94186B0C941F8994
:100770000D9411250C94C2C00D94EC440D946D00A1
:100780000C943BCA0C946EB00C94558D0C94AFC273
:100790000D94F6070C9465750C9414C10D940945DD
:1007A0000D9429250C94E25B0C942FC70D94F651FF
:1007B0000C948E270D942A7E0C94AB120D94CC0FC2
:1007C0000C944AC10C942BFF0D94217E0C94135869
:1007D0000C9483E70C94A53E0C9495690C94C77017
:1007E0000C945D6C0D948A0A0C944AC30C94256792
:1007F0000D94234D0C941DC10C94BC270D940852EC
:100800000C9444340D94AE4D0C94D5C10C94CA7F15
:100810000D9438520C94F9C00C9489D50C94872708
:100820000C949F760D94BD680C94CDBC0C94659E81
:100830000C94B2C50D94A40B0C9440960D94BD4D30
:100840000C946F660C940F7E0C94B6690C948CBB60
:100850000C94E08C0C9489C20C94DD8E0C9453683B
:100860000C94A6C20C946FFF0C94077E0C94B79363
:100870000C9430580C94487F0C94D0570C94B125AC
:100880000C9428AE0C940CBE0C9444270C94ED16DA
:100890000C9406E90D940D7E0C942B130C94179771
:1008A0000C94C9C10C94CCC10C9468C60C9470C251
:1008B0000C945D720C94CEC00D94C3610D9454459C
:1008C0000C9433470C94F6570D9472050C9455AD67
:1008D0000C94B2C20C94269C0C94F9810C943BC1EC
:1008E0000D94EC510C9409450C9404360C94197138
:1008F0000C9448C20C94EF7E0D9420420D949E6B94
:100900000D943A080C94BAC10C94637B0C941C8728
:100910000C9470260C9469C10C945CE80C94FCC097
:100920000C942CCB0C9438FA0C94DEC00C94FCC1C3
:100930000C94EE7D0C9459BF0C940BC10C94EE708A
:100940000D945F0E0C94AE5B0C94ACC20C9466C11B
:100950000C94BA250C940B330C943F5C0D94E84432
:100960000C94A2C10C94A2CE0D94BD790C94B4A5A4
:100970000D94D90B0C941BEE0C946EFE0D942B254C
:100980000C94F6C00C9435C80D94BC090D940D253B
:100990000C948F9A0C9475C10C94F8FD0D94FC5135
:1009A0000C94AD270D9402520C942D670C9453C3F4
:1009B0000C9481D60C9479CB0C9441C10C94FEF923
:1009C0000D94C2670C9493440C940CE80C949D27EE
:1009D0000D94177A0C9490C10C9499C1526573656B
:1009E0007420636F6E74726F6C206973206375720C
:1009F00072656E746C792064697361626C65642ED3
:100A000000436F6D6D732068616C7465642E204EB9
:100A100065787420627974652077696C6C207265E2
:100A2000736574207468652041726475696E6F2EF9
:100A3000000A5061676520686173206E6F742062E0
:100A400065656E20696D706C656D656E746564209A
:100A5000796574000A326E642049676E6974696F43
:100A60006E204D6170000A326E64204675656C2000
:100A70004D6170000A506167652039204366670048
:100A80000A5472696D2031205461626C65000A5607
:100A90005654204D6170000A426F6F7374204D618F
:100AA00070000A5067203620436F6E666967000A3F
:100AB000414652204D6170000A5067203420436641
:100AC00067000A49676E6974696F6E204D61700036
:100AD0000A5067203220436667000A5645204D6160
:100AE00070004572723A20556E6B6E6F776E2063A0
:100AF0006D64000A3D3D3D436F6D6D616E6420483D
:100B0000656C703D3D3D0A0A416C6C20636F6D6DF4
:100B1000616E6473206172652073696E676C652015
:100B200063686172616374657220616E64206172D2
:100B30006520636F6E636174656E617465642077B0
:100B400069746820746865697220706172616D658E
:100B500074657273200A776974686F757420737096
:100B6000616365732E53796E7461783A20203C631B
:100B70006F6D6D616E643E2B3C706172616D65746A
:100B80006572313E2B3C706172616D6574657232C5
:100B90003E2B3C706172616D657465724E3E0A0A4F
:100BA0003D3D3D4C697374206F6620436F6D6D61F0
:100BB0006E64733D3D3D0A0A41202D2044697370E7
:100BC0006C617973203331206279746573206F66AC
:100BD0002063757272656E745374617475732076D8
:100BE000616C75657320696E2062696E617279202F
:100BF000286C6976652064617461290A42202D2081
:100C00004275726E2063757272656E74206D6170CC
:100C100020616E6420636F6E66696750616765204E
:100C200076616C75657320746F20656570726F6D89
:100C30000A43202D205465737420434F4D20706F5C
:100C400072742E2020557365642062792054756E6D
:100C5000657273747564696F20746F2073656520A5
:100C60007768657468657220616E20454355206918
:100C700073206F6E206120676976656E20736572E0
:100C800069616C200A20202020706F72742E20521F
:100C9000657475726E7320612062696E617279206D
:100CA0006E756D6265722E0A4E202D205072696E2F
:100CB00074206E6577206C696E652E0A50202D2099
:100CC0005365742063757272656E74207061676518
:100CD0002E202053796E7461783A2020502B3C707E
:100CE0006167654E756D6265723E0A52202D205314
:100CF000616D65206173204120636F6D6D616E646D
:100D00000A53202D20446973706C617920736967E0
:100D10006E6174757265206E756D6265720A512020
:100D20002D2053616D65206173205320636F6D6DBD
:100D3000616E640A56202D20446973706C617920BD
:100D40006D6170206F7220636F6E666967506167B6
:100D5000652076616C75657320696E2062696E61CD
:100D600072790A57202D20536574206F6E652062BA
:100D700079746520696E206D6170206F7220636FD9
:100D80006E666967506167652E20204578706563DF
:100D900074732062696E61727920706172616D6531
:100DA000746572732E200A2020202053796E74619E
:100DB000783A2020572B3C6F66667365743E2B3C57
:100DC0006E6577627974653E0A74202D20536574D0
:100DD0002063616C6962726174696F6E2076616C08
:100DE0007565732E20204578706563747320626981
:100DF0006E61727920706172616D65746572732EB7
:100E000020205461626C6520696E64657820697386
:100E10002065697468657220302C200A202020200B
:100E2000312C206F7220322E202053796E7461781D
:100E30003A2020742B3C74626C655F6964783E2BA9
:100E40003C6E657756616C7565313E2B3C6E6577FF
:100E500056616C7565323E2B3C6E657756616C75DC
:100E6000654E3E0A5A202D20446973706C617920CA
:100E700063616C6962726174696F6E2076616C7512
:100E800065730A54202D20446973706C6179732056
:100E900032353620746F6F7468206C6F6720656E12
:100EA000747269657320696E2062696E6172790A75
:100EB00072202D20446973706C617973203235364D
:100EC00020746F6F7468206C6F6720656E74726930
:100ED00065730A55202D2050726570617265206619
:100EE0006F72206669726D776172652075706461DA
:100EF00074652E20546865206E657874206279745C
:100F0000652072656365697665642077696C6C201D
:100F10006361757365207468652041726475696EDC
:100F20006F20746F2072657365742E0A3F202D2028
:100F3000446973706C6179732074686973206865A3
:100F40006C702070616765002C2000575545004F7C
:100F50003200496E6C65742074656D7000436F6F6C
:100F60006C616E7400526573657420636F6E747289
:100F70006F6C2069732063757272656E746C792072
:100F800064697361626C65642E00436F6D6D7320DC
:100F900068616C7465642E204E6578742062797483
:100FA000652077696C6C2072657365742074686560
:100FB0002041726475696E6F2E00537065656475AB
:100FC000696E6F20323032322E30342D64657600F7
:100FD000737065656475696E6F20323032323034FB
:100FE0002D646576004552523B20496E636F7272E4
:100FF00065637420454550524F4D2073697A6500F2
:10100000303031002000200020002000202020204F
:10101000000000800020012001800020018000F0FD
:10102000008001C000C0002001C000800020010439
:101030000E11191B20292B2D2F31333537393B3D0C
:101040003F414345474B4D4F515557595D61666D83
:1010500077537065656475696E6F0053706565647C
:1010600075696E6F20323031392E30382D736572CC
:1010700000537065656475696E6F206373783032F4
:101080003031392E380000002000230026002900CE
:101090002C002F00320000010000030106010901AD
:1010A00000002100240027002A002D00300033001A
:1010B00001010000040107010A01000022002500CF
:1010C00028002B002E003100340002010000050131
:1010D00008010B01050505050705080808080202B7
:1010E00002020A0A080804040404010101010101C2
:1010F00001010303030303030303040707070C0CA5
:101100000C0C0C0C0C0C020202020606060606066B
:1011100006060B0B0B0B0B0B0B0B01021020200810
:101120000810204010204080020102010804020142
:1011300001020408102040808040201008040201B1
:10114000800402018040201008040201080402010A
:101150000102040810204080010204081020408091
:1011600000000A0B02090C0D0E0807030401000021
:10117000000000000000000000000000000000006F
:10118000000000000000000000000000121110002C
:10119000000000000000000000000000000000004F
:1011A00000000000000000000000963007772C616E
:1011B0000EEEBA51099919C46D078FF46A7035A5FE
:1011C00063E9A395649E3288DB0EA4B8DC791EE93E
:1011D000D5E088D9D2972B4CB609BD7CB17E072DBE
:1011E000B8E7911DBF906410B71DF220B06A487136
:1011F000B9F3DE41BE847DD4DA1AEBE4DD6D51B57E
:10120000D4F4C785D38356986C13C0A86B647AF95D
:1012100062FDECC9658A4F5C0114D96C0663633DBD
:101220000FFAF50D088DC8206E3B5E10694CE44145
:1012300060D5727167A2D1E4033C47D4044BFD85AD
:101240000DD26BB50AA5FAA8B5356C98B242D6C9CD
:10125000BBDB40F9BCACE36CD832755CDF45CF0D2D
:10126000D6DC593DD1ABAC30D9263A00DE518051A5
:10127000D7C81661D0BFB5F4B42123C4B35699952D
:10128000BACF0FA5BDB89EB802280888055FB2D9AD
:101290000CC624E90BB1877C6F2F114C6858AB1D2D
:1012A00061C13D2D66B69041DC760671DB01BC2044
:1012B000D2982A10D5EF8985B1711FB5B606A5E47D
:1012C000BF9F33D4B8E8A2C9077834F9000F8EA8BD
:1012D000099618980EE1BB0D6A7F2D3D6D08976C3D
:1012E0006491015C63E6F4516B6B62616C1CD830F5
:1012F00065854E0062F2ED95066C7BA5011BC1F47D
:10130000088257C40FF5C6D9B06550E9B712EAB8DC
:10131000BE8B7C88B9FCDF1DDD62492DDA15F37CBC
:10132000D38C654CD4FB5861B24DCE51B53A7400A4
:10133000BCA3E230BBD441A5DF4AD795D83D6DC4EC
:10134000D1A4FBF4D6D36AE96943FCD96E3446884C
:1013500067ADD0B860DA732D0444E51D03335F4CEC
:101360000AAAC97C0DDD3C710550AA410227101064
:101370000BBE86200CC925B56857B3856F2009D4EC
:1013800066B99FE461CE0EF9DE5E98C9D92922982C
:10139000D0B0B4A8D7C7173DB359810DB42E3B5C6C
:1013A000BDB7AD6CBAC02083B8EDB6B3BF9A0CE23E
:1013B000B6039AD2B1743947D5EAAF77D29D1526D4
:1013C000DB048316DC73120B63E3843B64943E6A94
:1013D0006D0DA85A6A7A0BCF0EE49DFF099327AED4
:1013E000000AB19E077D44930FF0D2A3088768F2EC
:1013F000011EFEC206695D5762F7CB6765807136D4
:101400006C19E7066B6E761BD4FEE02BD3895A7AF3
:10141000DA10CC4ADD676FDFB9F9F9EFBE8E43BE53
:10142000B717D58EB060E8A3D6D67E93D1A1C4C23B
:10143000D83852F2DF4FF167BBD16757BCA6DD0643
:10144000B53F4B36B248DA2B0DD84C1B0AAFF64AE3
:101450000336607A0441C3EF60DF55DF67A8EF8E83
:101460006E3179BE69468CB361CB1A8366BCA0D25B
:101470006F2536E2685295770CCC03470BBBB91643
:1014800002222F260555BE3BBAC5280BBDB2925A83
:10149000B42B046AB35CA7FFD7C231CFD0B58B9E03
:1014A000D92C1DAEDE5BB0C2649B26F263EC9CA31C
:1014B0006A750A936D02A906099C3F360EEB856793
:1014C000077213570005824ABF95147AB8E2AE2B13
:1014D000B17B381BB60C9B8ED2920DBED5E5B7EF13
:1014E000DC7C21DFDB0BD4D2D38642E2D4F1F8B32B
:1014F000DD686E83DA1FCD16BE815B26B9F6E17713
:10150000B06F7747B718E65A0888706A0FFFCA3B72
:1015100006665C0B0111FF9E658F69AE62F8D3FF12
:101520006B6145CF6C1678E20AA0EED20DD75483DA
:10153000044EC2B30339612667A7F71660D04D4742
:101540006949DB776E3E4A6AD1AEDC5AD6D9660B62
:10155000DF40F03BD83753AEBCA9C59EBBDE7FCF82
:10156000B247E9FFB5301CF2BDBD8AC2BACA30939A
:10157000B353A6A3B4240536D0BA9306D7CD2957C2
:10158000DE54BF67D9232E7A66B3B84A61C4021B02
:10159000685D942B6F2A37BE0BB4A18E0CC31BDF82
:1015A000055A8DEF022D0000000041311B198262A7
:1015B0003632C3532D2B04C56C6445F4777D86A762
:1015C0005A56C796414F088AD9C849BBC2D18AE842
:1015D000EFFACBD9F4E30C4FB5AC4D7EAEB58E2D02
:1015E000839ECF1C98875112C24A1023D953D370BF
:1015F000F4789241EF6155D7AE2E14E6B537D7B5E2
:10160000981C9684830559981B8218A9009BDBFAC5
:101610002DB09ACB36A95D5D77E61C6C6CFFDF3F81
:1016200041D49E0E5ACDA2248495E3159F8C20466A
:10163000B2A76177A9BEA6E1E8F1E7D0F3E8248379
:10164000DEC365B2C5DAAAAE5D5DEB9F464428CC29
:101650006B6F69FD7076AE6B3139EF5A2A202C0919
:10166000070B6D381C12F33646DFB2075DC67154A6
:1016700070ED30656BF4F7F32ABBB6C231A27591F9
:101680001C8934A00790FBBC9F17BA8D840E79DEAD
:10169000A92538EFB23CFF79F373BE48E86A7D1B99
:1016A000C5413C2ADE58054F79F0447E62E9872D1A
:1016B0004FC2C61C54DB018A159440BB0E8D83E8D3
:1016C00023A6C2D938BF0DC5A0384CF4BB218FA7C3
:1016D000960ACE968D130900CC5C4831D7458B62B3
:1016E000FA6ECA53E177545DBBBA156CA0A3D63F1E
:1016F0008D88970E96915098D7DE11A9CCC7D2FA53
:10170000E1EC93CBFAF55CD762721DE6796BDEB53E
:1017100054409F844F5958120E161923150FDA7032
:1017200038249B41233DA76BFD65E65AE67C2509DD
:10173000CB576438D04EA3AE9101E29F8A1821CCDA
:10174000A73360FDBC2AAFE124ADEED03FB42D83BA
:10175000129F6CB20986AB2448C9EA1553D02946BA
:101760007EFB687765E2F6793F2FB7482436741B15
:10177000091D352A1204F2BC534BB38D485270DE5A
:10178000657931EF7E60FEF3E6E7BFC2FDFE7C9136
:10179000D0D53DA0CBCCFA368A83BB07919A78543A
:1017A000BCB13965A7A84B98833B0AA99822C9FA0E
:1017B000B50988CBAE104F5DEF5F0E6CF446CD3FA0
:1017C000D96D8C0EC27443125AF3022341EAC170E0
:1017D0006CC1804177D847D7369706E62D8EC5B5C0
:1017E00000A584841BBC1A8A41715BBB5A6898E8C7
:1017F0007743D9D96C5A1E4F2D155F7E360C9C2D20
:101800001B27DD1C003E120098B9533183A0906263
:10181000AE8BD153B59216C5F4DD57F4EFC494A73F
:10182000C2EFD596D9F6E9BC07AEA88D1CB76BDE22
:10183000319C2AEF2A85ED796BCAAC4870D36F1BB7
:101840005DF82E2A46E1E136DE66A007C57F6354C7
:10185000E8542265F34DE5F3B202A4C2A91B6791D7
:10186000843026A09F29B8AEC5E4F99FDEFD3ACCAE
:10187000F3D67BFDE8CFBC6BA980FD5AB2993E0937
:101880009FB27F3884ABB0241C2CF115073532464B
:101890002A1E73773107B4E17048F5D06B51368357
:1018A000467A77B25D634ED7FACB0FE6E1D2CCB57C
:1018B000CCF98D84D7E04A1296AF0B238DB6C87051
:1018C000A09D8941BB84465D2303076C381AC43F41
:1018D0001531850E0E2842984F6703A9547EC0FA31
:1018E000795581CB624C1FC538815EF423989DA742
:1018F0000EB3DC9615AA1B0054E55A314FFC9962D1
:1019000062D7D85379CE174FE149567EFA50952DBC
:10191000D77BD41CCC62138A8D2D52BB963491E8B0
:10192000BB1FD0D9A006ECF37E5EADC265476E91B9
:10193000486C2FA05375E836123AA90709236A5458
:1019400024082B653F11E479A796A548BC8F661B38
:1019500091A4272A8ABDE0BCCBF2A18DD0EB62DE38
:10196000FDC023EFE6D9BDE1BC14FCD0A70D3F8339
:101970008A267EB2913FB924D070F815CB693B46D8
:10198000E6427A77FD5BB56B65DCF45A7EC53709B4
:1019900053EE763848F7B1AE09B8F09F12A133CCB8
:1019A0003F8A72FD249300000000376AC2016ED4A2
:1019B000840359BE4602DCA80907EBC2CB06B27C01
:1019C0008D0485164F05B851130E8F3BD10FD68568
:1019D000970DE1EF550C64F91A095393D8080A2DB5
:1019E0009E0A3D475C0B70A3261C47C9E41D1E7769
:1019F000A21F291D601EAC0B2F1B9B61ED1AC2DFBD
:101A0000AB18F5B56919C8F23512FF98F713A62679
:101A1000B111914C7310145A3C152330FE147A8E78
:101A2000B8164DE47A17E0464D38D72C8F398E9290
:101A3000C93BB9F80B3A3CEE443F0B84863E523A20
:101A4000C03C6550023D58175E366F7D9C3736C3EB
:101A5000DA3501A9183484BF5731B3D59530EA6B14
:101A6000D332DD01113390E56B24A78FA925FE3118
:101A7000EF27C95B2D264C4D62237B27A02222999C
:101A8000E62015F3242128B4782A1FDEBA2B4660FD
:101A9000FC29710A3E28F41C712DC376B32C9AC818
:101AA000F52EADA2372FC08D9A70F7E75871AE5959
:101AB0001E739933DC721C2593772B4F517672F18C
:101AC0001774459BD57578DC897E4FB64B7F160819
:101AD0000D7D2162CF7CA4748079931E4278CAA0C8
:101AE000047AFDCAC67BB02EBC6C87447E6DDEFADC
:101AF000386FE990FA6E6C86B56B5BEC776A0252D0
:101B000031683538F369087FAF623F156D6366ABA6
:101B10002B6151C1E960D4D7A665E3BD6464BA0303
:101B200022668D69E06720CBD74817A115494E1F63
:101B3000534B7975914AFC63DE4FCB091C4E92B72B
:101B40005A4CA5DD984D989AC446AFF00647F64E1C
:101B50004045C12482444432CD4173580F402AE6A7
:101B600049421D8C8B435068F154670233553EBC8B
:101B7000755709D6B7568CC0F853BBAA3A52E2142F
:101B80007C50D57EBE51E839E25ADF53205B86EDAA
:101B90006659B187A4583491EB5D03FB295C5A4523
:101BA0006F5E6D2FAD5F801B35E1B771F7E0EECF53
:101BB000B1E2D9A573E35CB33CE66BD9FEE73267CB
:101BC000B8E5050D7AE4384A26EF0F20E4EE569E7C
:101BD000A2EC61F460EDE4E22FE8D388EDE98A3607
:101BE000ABEBBD5C69EAF0B813FDC7D2D1FC9E6CCB
:101BF00097FEA90655FF2C101AFA1B7AD8FB42C48F
:101C00009EF975AE5CF848E900F37F83C2F2263D89
:101C100084F0115746F1944109F4A32BCBF5FA95C2
:101C20008DF7CDFF4FF6605D78D95737BAD80E895A
:101C3000FCDA39E33EDBBCF571DE8B9FB3DFD221EA
:101C4000F5DDE54B37DCD80C6BD7EF66A9D6B6D8F7
:101C5000EFD481B22DD504A462D033CEA0D16A7066
:101C6000E6D35D1A24D210FE5EC527949CC47E2A5A
:101C7000DAC6494018C7CC5657C2FB3C95C3A2826E
:101C8000D3C195E811C0A8AF4DCB9FC58FCAC67B05
:101C9000C9C8F1110BC9740744CC436D86CD1AD362
:101CA000C0CF2DB902CE4096AF9177FC6D902E42F9
:101CB0002B921928E9939C3EA696AB546497F2EABE
:101CC0002295C580E094F8C7BC9FCFAD7E9E961349
:101CD000389CA179FA9D246FB598130577994ABB72
:101CE000319B7DD1F39A3035898D075F4B8C5EE156
:101CF0000D8E698BCF8FEC9D808ADBF7428B8249FA
:101D00000489B523C68888649A83BF0E5882E6B0DA
:101D10001E80D1DADC8154CC938463A651853A18B5
:101D200017870D72D586A0D0E2A997BA20A8CE0455
:101D300066AAF96EA4AB7C78EBAE4B1229AF12AC5D
:101D40006FAD25C6ADAC1881F1A72FEB33A6765544
:101D500075A4413FB7A5C429F8A0F3433AA1AAFD51
:101D60007CA39D97BEA2D073C4B5E71906B4BEA7E5
:101D700040B689CD82B70CDBCDB23BB10FB3620F59
:101D800049B155658BB06822D7BB5F4815BA06F6D6
:101D900053B8319C91B9B48ADEBC83E01CBDDA5ED5
:101DA0005ABFED3498BE000000006567BCB88BC810
:101DB00009AAEEAFB5125797628F32F0DE37DC5FBB
:101DC0006B25B938D79DEF28B4C58A4F087D64E0EC
:101DD000BD6F018701D7B8BFD64ADDD86AF2337725
:101DE000DFE0561063589F571950FA30A5E8149F4A
:101DF00010FA71F8AC42C8C07BDFADA7C7674308D3
:101E00007275266FCECD707FAD951518112DFBB76D
:101E1000A43F9ED0188727E8CF1A428F73A2AC2028
:101E2000C6B0C9477A083EAF32A05BC88E18B56706
:101E30003B0AD00087B26938502F0C5FEC97E2F074
:101E400059858797E53DD1878665B4E03ADD5A4FDD
:101E50008FCF3F2833778610E4EAE37758520DD8C6
:101E6000ED4068BF51F8A1F82BF0C49F97482A3085
:101E7000225A4F579EE2F66F497F9308F5C77DA718
:101E800040D518C0FC6D4ED09F352BB7238DC5189B
:101E9000969FA07F2A271947FDBA7C204102928F86
:101EA000F410F7E848A83D58149B583FA823B69073
:101EB0001D31D3F7A1896ACF76140FA8CAACE10708
:101EC0007FBE8460C306D270A05EB7171CE659B807
:101ED000A9F43CDF154C85E7C2D1E0807E690E2F66
:101EE000CB7B6B4877C3A20F0DCBC768B17329C7F3
:101EF00004614CA0B8D9F5986F4490FFD3FC7E5094
:101F000066EE1B37DA564D27B90E284005B6C6EFE8
:101F1000B0A4A3880C1C1AB0DB817FD767399178F5
:101F2000D22BF41F6E9303F7263B66909A83883F6B
:101F30002F91ED589329546044B43107F80CDFA871
:101F40004D1EBACFF1A6ECDF92FE89B82E46671778
:101F50009B54027027ECBB48F071DE2F4CC93080D7
:101F6000F9DB55E745639CA03F6BF9C783D317683E
:101F700036C1720F8A79CB375DE4AE50E15C40FF29
:101F8000544E2598E8F673888BAE16EF3716F84056
:101F900082049D273EBC241FE92141785599AFD783
:101FA000E08BCAB05C333BB659ED5ED1E555B07EEF
:101FB0005047D519ECFF6C213B62094687DAE7E907
:101FC00032C8828E8E70D49EED28B1F951905F5642
:101FD000E4823A31583A83098FA7E66E331F08C16D
:101FE000860D6DA63AB5A4E140BDC186FC052F293A
:101FF00049174A4EF5AFF376223296119E8A78BE83
:102000002B981DD997204BC9F4782EAE48C0C0013B
:10201000FDD2A566416A1C5E96F779392A4F9796DC
:102020009F5DF2F123E505196B4D607ED7F58ED1EA
:1020300062E7EBB6DE5F528E09C237E9B57AD94660
:102040000068BC21BCD0EA31DF888F56633061F96B
:10205000D622049E6A9ABDA6BD07D8C101BF366EBE
:10206000B4AD530908159A4E721DFF29CEA51186ED
:102070007BB774E1C70FCDD91092A8BEAC2A461128
:1020800019382376A5807566C6D810017A60FEAE31
:10209000CF729BC973CA22F1A457479618EFA9398A
:1020A000ADFDCC5E114506EE4D766389F1CE8D26F1
:1020B00044DCE841F86451792FF9341E9341DAB1D8
:1020C0002653BFD69AEBE9C6F9B38CA1450B620E35
:1020D000F01907694CA1BE519B3CDB36278435992A
:1020E000929650FE2E2E99B95426FCDEE89E12716F
:1020F0005D8C7716E134CE2E36A9AB498A1145E6C0
:102100003F03208183BB7691E0E313F65C5BFD59CE
:10211000E949983E55F12106826C44613ED4AACE2D
:102120008BC6CFA9377E38417FD65D26C36EB38973
:10213000767CD6EECAC46FD61D590AB1A1E1E41E61
:1021400014F38179A84BD769CB13B20E77AB5CA19E
:10215000C2B939C67E0180FEA99CE59915240B36CB
:10216000A0366E511C8EA7166686C271DA3E2CDE32
:102170006F2C49B9D394F081040995E6B8B17B4935
:102180000DA31E2EB11B483ED2432D596EFBC3F644
:10219000DBE9A69167511FA9B0CC7ACE0C7494618B
:1021A000B966F10605DE640311241FBECFEFD1E24C
:1021B000DEBFCDBF00E00CBF12E0A0E0B2E0EAE07D
:1021C000FBE303E00BBF02C007900D92A83AB107F2
:1021D000D9F72FE1A8EAB2E001C01D92A533B207FA
:1021E000E1F710E1C4EDD0E100E006C0219701095C
:1021F000802FFE010F94E59BC33DD10780E00807C7
:10220000A9F70F94E1600D94839D0C94000008954C
:10221000089508958091B31D811104C020914E1E30
:1022200024FF67C04091B41D5091B51D60914C1EB4
:1022300070914D1E4617570768F48091201E9091AB
:10224000211EA091221EB091231E892B8A2B8B2B3D
:1022500009F44FC02091BF043091C0044091C104E3
:102260005091C204232B242B252B09F442C040910A
:10227000BB045091BC046091BD047091BE04452B19
:10228000462B472BB1F1F8948091BF049091C00484
:10229000A091C104B091C2042091BB043091BC0450
:1022A0004091BD045091BE04821B930BA40BB50B4F
:1022B0008093980C9093990CA0939A0CB0939B0CDC
:1022C00078942091980C3091990C40919A0C5091EF
:1022D0009B0C60E077E883E993E00F945F9BC90172
:1022E000803526E4920738F08091B41D9091B51D99
:1022F000089590E080E008958091B31D882301F156
:102300002091401C27FD2AC04091201E5091211E83
:102310006091221E7091231E44365105610571059E
:1023200058F46091570B7091580B6D32710521F084
:102330001092580B1092570B91E0909366030895FA
:102340001092580B1092570B51E05093B31D73E04D
:102350007093390C91E09093660308951092580B96
:102360001092570B33E03093390C91E09093660351
:10237000089508958091B31D811104C020914E1ECF
:1023800024FF67C04091B41D5091B51D60914C1E53
:1023900070914D1E4617570768F48091201E90914A
:1023A000211EA091221EB091231E892B8A2B8B2BDC
:1023B00009F44FC02091BF043091C0044091C10482
:1023C0005091C204232B242B252B09F442C04091A9
:1023D000BB045091BC046091BD047091BE04452BB8
:1023E000462B472BB1F1F8948091BF049091C00423
:1023F000A091C104B091C2042091BB043091BC04EF
:102400004091BD045091BE04821B930BA40BB50BED
:102410008093980C9093990CA0939A0CB0939B0C7A
:1024200078942091980C3091990C40919A0C50918D
:102430009B0C60E077E883E993E00F945F9BC90110
:10244000803526E4920738F08091B41D9091B51D37
:10245000089590E080E008951092580B1092570B69
:1024600008958091B31D811104C020914E1E24FF58
:1024700067C04091B41D5091B51D60914C1E709184
:102480004D1E4617570768F48091201E9091211E1B
:10249000A091221EB091231E892B8A2B8B2B09F42D
:1024A0004FC02091BF043091C0044091C1045091AD
:1024B000C204232B242B252B09F442C04091BB04DA
:1024C0005091BC046091BD047091BE04452B462B15
:1024D000472BB1F1F8948091BF049091C004A09172
:1024E000C104B091C2042091BB043091BC0440915E
:1024F000BD045091BE04821B930BA40BB50B8093BB
:10250000980C9093990CA0939A0CB0939B0C789490
:102510002091980C3091990C40919A0C50919B0C01
:1025200060E077E883E993E00F945F9BC901803511
:1025300026E4920738F08091B41D9091B51D08955E
:1025400090E080E008951092580B1092570B81E0B4
:1025500080936603089580910C0E807F8034F1F0A3
:102560008036D9F42091461C2C712C3089F146E03C
:1025700050E0509372034093710362E070E07093F7
:10258000700360936F03A4E0B0E0B0936E03A09378
:102590006D0370936C0360936B0308953091461C38
:1025A0003C713C30A9F0E4E0F0E0F0937203E0937A
:1025B000710382E090E09093700380936F03F09337
:1025C0006E03E0936D0390936C0380936B03089507
:1025D00028E030E0309372032093710342E050E032
:1025E0005093700340936F0364E070E070936E0348
:1025F00060936D03A6E0B0E0B0936C03A0936B030F
:1026000008958091E51D82319CF026E030E0309302
:1026100072032093710341E050E0509370034093A4
:102620006F0364E070E070936E0360936D03089530
:10263000A7E0B0E0B0937203A0937103E2E0F0E092
:10264000F0937003E0936F0385E090E090936E0346
:1026500080936D0308958091B31D811104C0209172
:102660004E1E24FF67C04091B41D5091B51D60916E
:102670004C1E70914D1E4617570768F48091201E1E
:102680009091211EA091221EB091231E892B8A2B8E
:102690008B2B09F44FC02091BF043091C0044091AE
:1026A000C1045091C204232B242B252B09F442C0D2
:1026B0004091BB045091BC046091BD047091BE0474
:1026C000452B462B472BB1F1F8948091BF04909194
:1026D000C004A091C104B091C2042091BB04309108
:1026E000BC044091BD045091BE04821B930BA40B0B
:1026F000B50B8093980C9093990CA0939A0CB0937F
:102700009B0C78942091980C3091990C40919A0CE4
:1027100050919B0C60E077E883E993E00F945F9B16
:10272000C901803526E4920738F08091B41D90915C
:10273000B51D089590E080E008958091BF0B9091C1
:10274000C00B20913A1C30913B1C821B930B409193
:10275000190250911A02841795079CF0841B950B5F
:102760000197843B9105A8F461E070E070937203D7
:1027700060937103A2E0B0E0B0937003A0936F0385
:10278000089597FFEDCF840F951F0197843B910526
:1027900058F3E2E0F0E0F0937203E093710381E01C
:1027A00090E09093700380936F030895CF92DF922F
:1027B000EF92FF922091B41D3091B51D80914C1E77
:1027C00090914D1E2817390708F0A4C0E091B50478
:1027D000F091B604C090201ED090211EE090221EE1
:1027E000F090231E8091451C90E0B0E0A0E0C81658
:1027F000D906EA06FB0608F459C0E090B31DEE20A6
:1028000009F450C04091930C5091940C6091950C38
:102810007091960C452B462B472B09F447C06091CD
:102820008F0C7091900C8091910C9091920C672B71
:10283000682B692BD9F12091930C3091940C409125
:10284000950C5091960C80918F0C9091900CA091CA
:10285000910CB091920C82179307A407B50730F53D
:10286000F8942091930C3091940C4091950C5091D8
:10287000960CC0908F0CD090900CE090910CF09042
:10288000920C2C193D094E095F09AE2FB0E00F9450
:10289000A79B6093980C7093990C80939A0C9093DB
:1028A0009B0C74C0F0904E1EF4FCACCFC090980C02
:1028B000D090990CE0909A0CF0909B0C30E020E0C6
:1028C000CC0CDD1CEE1CFF1CC0921E02D0921F021D
:1028D000E0922002F09221028091B5049091B6041A
:1028E0008BE4C81688E9D80685E0E806F10460F4B0
:1028F0004BE458E965E070E040931E0250931F02DC
:102900006093200270932102C901FF90EF90DF9045
:10291000CF900895C090B31DCC2009F45EC04091C3
:10292000BF045091C0046091C1047091C204452B52
:10293000462B472B09F4BACF6091BB047091BC04BD
:102940008091BD049091BE04672B682B692B09F41C
:10295000ADCFF8948091BF049091C004A091C104C0
:10296000B091C2042091BB043091BC044091BD04DD
:102970005091BE04821B930BA40BB50B8093980C53
:102980009093990CA0939A0CB0939B0C7894C09060
:10299000980CD090990CE0909A0CF0909B0CF694C7
:1029A000E794D794C794C092980CD092990CE09277
:1029B0009A0CF0929B0C60E077E883E993E0A70122
:1029C00096010F945F9B203586E4380708F478CF92
:1029D0002091B41D3091B51D73CFD0904E1ED4FC04
:1029E0009ECF64CF2091491C30E08091461C8C71B1
:1029F0008C3009F496C0E0913A1CF0913B1C609138
:102A00008D0C70918E0C8091BF0B9091C00B8E1B22
:102A10009F0B0F94189B261737070CF05DC0621BA5
:102A2000730B709372036093710360918D0C7091BE
:102A30008E0C8091800B9091810B8E1B9F0B0F94BD
:102A4000189B261737070CF065C0621B730B709339
:102A5000700360936F0360918D0C70918E0C809168
:102A60007E0B90917F0B8E1B9F0B0F94189B26174C
:102A700037070CF048C0621B730B70936E036093B2
:102A80006D0360918D0C70918E0C80917C0B9091F8
:102A90007D0B8E1B9F0B0F94189B261737076CF529
:102AA000621B730B70936C0360936B0360918D0CCE
:102AB00070918E0C80916A0B90916B0B8E1B9F0B0B
:102AC0000F94189B2617370774F4621B730B7093CF
:102AD0005503609354030895161617060CF4A1CFFE
:102AE000620F731F9ECF161617068CF3620F731FAB
:102AF000709355036093540308951616170694F2C5
:102B0000620F731FCFCF161617060CF4B6CF620FE5
:102B1000731FB3CF161617060CF499CF620F731FED
:102B200096CF40913F1C41FD66CF220F331F63CFEC
:102B30000F931F93CF93DF93E091491CF0E08091B6
:102B4000461C8C718C3009F43FC1EF0130E020E06D
:102B500000913A1C10913B1C60918D0C70918E0C71
:102B60008091BF0B9091C00B801B910B0F94189B11
:102B700061507109C617D7070CF006C16C1B7D0B9D
:102B80004091B5045091B6044617570720F4E61754
:102B9000F7070CF014C1A091B504B091B604A20FD0
:102BA000B31FA617B70730F46091B5047091B6044F
:102BB000620F731F709372036093710360918D0CA9
:102BC00070918E0C8091800B9091810B801B910BEA
:102BD0000F94189B61507109C617D7070CF0CDC030
:102BE0006C1B7D0B8091B5049091B60486179707F6
:102BF00020F4E617F7070CF0DDC04091B5045091C2
:102C0000B604420F531F4617570730F46091B504BE
:102C10007091B604620F731F7093700360936F031B
:102C200060918D0C70918E0C80917E0B90917F0B3A
:102C3000801B910B0F94189B61507109C617D70721
:102C40000CF094C06C1B7D0BA091B504B091B60440
:102C5000A617B70720F4E617F7070CF0A6C0809177
:102C6000B5049091B604820F931F8617970730F42E
:102C70006091B5047091B604620F731F70936E0378
:102C800060936D0360918D0C70918E0C80917C0B24
:102C900090917D0B801B910B0F94189B61507109D3
:102CA000C617D7070CF05BC06C1B7D0B4091B504B9
:102CB0005091B6044617570720F4E617F7070CF0B3
:102CC0006FC0A091B504B091B604A20FB31FA617B0
:102CD000B70730F46091B5047091B604620F731FAA
:102CE00070936C0360936B0360918D0C70918E0CEC
:102CF00080916A0B90916B0B801B910B0F94189B2A
:102D000061507109C617D70724F56C1B7D0BC09164
:102D1000B504D091B604C617D70718F4E617F7071D
:102D2000D4F5E091B504F091B604E20FF31FE61775
:102D3000F70730F46091B5047091B604620F731F09
:102D40007093550360935403DF91CF911F910F91BE
:102D5000089516161706DCF26C0F7D1FD8CF1616D5
:102D600017060CF4A3CF6C0F7D1FA0CF1616170605
:102D70000CF46ACF6C0F7D1F67CF161617060CF484
:102D800031CF6C0F7D1F2ECF161617060CF4F8CE20
:102D90006C0F7D1FF5CE6091B5047091B604C1CF64
:102DA0006091B5047091B6048CCF6091B5047091B8
:102DB000B60455CF6091B5047091B6041ECF6091F2
:102DC000B5047091B604E7CE00913F1C01FDBDCE65
:102DD0009F01EF01CC0FDD1FBBCECF92DF92EF92B0
:102DE000FF92E091CB0BF091CC0B1995AC01893699
:102DF00021E092070CF443C09C0129563140A3E81E
:102E0000BDE20F94BA9B0024880F991F001C880F05
:102E1000991F001C892F902D877099274856514083
:102E2000493621E052075CF1009719F18130910594
:102E3000D1F082309105A9F08330910581F0843082
:102E4000910559F08530910531F0069711F04856FB
:102E500051404856514048565140485651404856B6
:102E600051404856514048565140493621E052079A
:102E700034F040545B40493681E05807D4F78091E4
:102E80003A1C90913B1C481B590B2091B21E237099
:102E9000223031F4C090B31CD090B41C4C195D09A1
:102EA000E091B61C9A01220F331FF0E0A0E0B1E0E0
:102EB000AE1BBF0B0F94ED9B6B017C01A091761EA6
:102EC000B091771E9F010F94F59BC60ED71EE81E8A
:102ED000F91ECD2CDE2CEF2CFF24E7FCFA94D092C7
:102EE000771EC092761EFF90EF90DF90CF900895EE
:102EF000CF92DF92EF92FF92AB01DC011396FC912F
:102F0000139711962D913C91EF2FEF7121153105FB
:102F100039F52F2FFF0F330B220F232F221F330BD7
:102F20008FEF9FEF0E2E02C0880F991F0A94E2F7D1
:102F300080959095BA01770F660B762F862397239D
:102F4000840F951F02C095958795EA95E2F7822731
:102F50009327821B930BFF90EF90DF90CF90089503
:102F6000DB010F94ED9B6C01FF24D7FCF094EF2C58
:102F7000C601F6FF0EC02F2FFF0F330B220F232F9A
:102F8000221F330BCA0182279327821B930B8C0DC0
:102F90009D1D02C095958795EA95E2F797FD0196EC
:102FA000FF90EF90DF90CF9008958F929F92AF9215
:102FB000BF92CF92DF92EF92FF920F931F93CF9326
:102FC000DF935C018B011092BC071092BB0710923B
:102FD000440C812F0F943E52802F0F943E52109339
:102FE000C6080093C5080115110509F4DDC04501A7
:102FF0008FE3E82EF12C6501C00ED11EC80183704D
:103000009927009709F459C081309105C1F10297C1
:10301000D9F0E50189914E010F943E52A091BB0772
:10302000B091BC071196B093BC07A093BB079091D9
:10303000200F8091210F981708F0F4C0891B990B7D
:103040000197892B09F492C0F40181914F010F94EB
:103050003E528091BB079091BC0701969093BC07AC
:103060008093BB079091200F8091210F981708F053
:10307000D2C0891B990B0197892B09F477C0E40111
:1030800089914E010F943E52A091BB07B091BC07AD
:103090001196B093BC07A093BB079091200F80912D
:1030A000210F981708F059C0891B990B019709F453
:1030B0005DC0C814D90409F477C0E40189910F9464
:1030C0003E52E091BB07F091BC073196F093BC07EC
:1030D000E093BB079091200F8091210F981708F083
:1030E00055C0891B990B0197892B09F43FC0888132
:1030F0000F943E528091BB079091BC07019690932C
:10310000BC078093BB079091200F8091210F9817E7
:1031100008F043C0891B990B0197892B39F18981EC
:103120000F943E52A091BB07B091BC071196B0938B
:10313000BC07A093BB079091200F8091210F981797
:1031400008F062C0891B990B0197892B79F04E0119
:10315000F3E08F0E911C8A8195CF9701291B3109CD
:10316000820F932F911D892B09F0A3CF01E00093CB
:10317000440CDF91CF911F910F91FF90EF90DF9062
:10318000CF90BF90AF909F908F9008959701291B8B
:103190003109820F932F911DA7CF9701291B310968
:1031A000820F932F911DB9CF8090440C8110E1CFF5
:1031B0002FEF3FEFA90120932C1F30932D1F409339
:1031C0002E1F50932F1F21E0A801B5018CE29FE133
:1031D0000E94F3F2EB01182F892F0F943E52812F9A
:1031E0000F943E528D2F0F943E528C2FDF91CF9132
:1031F0001F910F91FF90EF90DF90CF90BF90AF9015
:103200009F908F900D943E529701291B3109820F98
:10321000932F911D9ACF9701291B3109820F932F6C
:10322000911D2ACF9701291B3109820F932F911DE0
:1032300008CF8091770390917803A0917903B091A2
:103240007A038093730390937403A0937503B093F0
:1032500076030F94716060937F0370938003809373
:1032600081039093820380917F0390918003A091CA
:103270008103B09182034091930C5091940C609122
:10328000950C7091960C841B950BA60BB70B809335
:10329000770390937803A0937903B0937A03A09176
:1032A000570BB091580B1196B093580BA093570B36
:1032B00021E02093F3046091570B7091580B6D300F
:1032C000710509F459C0E091570BF091580B3197F3
:1032D00009F45CC08091730390917403A09175030D
:1032E000B0917603B695A7959795879580935E03E1
:1032F00090935F03A0936003B093610340917703C1
:10330000509178036091790370917A0380915E0304
:1033100090915F03A0916003B09161034817590732
:103320006A077B0708F12091930C3091940C40912F
:10333000950C5091960C20938F0C3093900C4093E9
:10334000910C5093920C60917F0370918003809157
:103350008103909182036093930C7093940C8093FB
:10336000950C9093960C08951092580B1092570B51
:1033700071E07093B31D08953091B31D332309F4A8
:10338000A2CF1092580B1092570B08955091B31D75
:10339000552309F49FCF4091BF045091C004609120
:1033A000C1047091C2044093BB045093BC04609369
:1033B000BD047093BE0480917F0390918003A0911F
:1033C0008103B09182038093BF049093C004A093C3
:1033D000C104B093C2042091201E3091211E40915F
:1033E000221E5091231E2F5F3F4F4F4F5F4F209360
:1033F000201E3093211E4093221E5093231E609165
:10340000930C7091940C8091950C9091960C609314
:103410008F0C7093900C8093910C9093920C409130
:103420007F035091800360918103709182034093E8
:10343000930C5093940C6093950C7093960C089594
:103440008091570B9091580B0D9709F4A7C00F94DA
:10345000716060937F0370938003809381039093E6
:10346000820380917F0390918003A0918103B091AA
:1034700082034091930C5091940C6091950C709143
:10348000960C841B950BA60BB70B80937703909338
:103490007803A0937903B0937A0320917703309156
:1034A00078034091790350917A036091F804709108
:1034B000F9048091FA049091FB0426173707480716
:1034C000590708F46AC0A091570BB091580BAB2B69
:1034D00009F467C0E091570BF091580B3196F093C7
:1034E000580BE093570BA091570BB091580BE091FC
:1034F000570BF091580BAA0FBB1FAF53BB4FEE0FEA
:10350000FF1FE154FB4F8D919C9140815181841BA1
:10351000950B90938E0C80938D0C40917703509176
:1035200078036091790370917A039091461C9076AC
:1035300049F0903209F485C0903409F493C0903674
:1035400009F473C01092F8041092F9041092FA046E
:103550001092FB0451E05093F3042091930C3091AE
:10356000940C4091950C5091960C20938F0C3093B5
:10357000900C4093910C5093920C60917F0370914A
:10358000800380918103909182036093930C7093E8
:10359000940C8093950C9093960C08951092B31D03
:1035A000089521E030E03093580B2093570B609141
:1035B000BF047091C0048091C1049091C2046093D3
:1035C000BB047093BC048093BD049093BE048091AF
:1035D0007F0390918003A0918103B0918203809337
:1035E000BF049093C004A093C104B093C20431E01F
:1035F0003093B31D4091201E5091211E6091221ED8
:103600007091231E4F5F5F4F6F4F7F4F4093201E7F
:103610005093211E6093221E7093231EACE3B0E0F2
:10362000B0938E0CA0938D0C78CFDB01CA01880F6C
:10363000991FAA1FBB1F840F951FA61FB71FAC01A0
:10364000BD017695679557954795769567955795FA
:1036500047954093F8045093F9046093FA047093EB
:10366000FB0478CF76956795579547954093F80476
:103670005093F9046093FA047093FB046BCF80912C
:10368000570B9091580B499709F4ACC00F94716097
:1036900060937F03709380038093810390938203F0
:1036A00080917F0390918003A0918103B091820368
:1036B0004091930C5091940C6091950C7091960CE4
:1036C000841B950BA60BB70B80937703909378031D
:1036D000A0937903B0937A03A091570BB091580B44
:1036E000AB2BB9F1E091570BF091580B3196F09359
:1036F000580BE093570BA091570BB091580BE091EA
:10370000570BF091580BAA0FBB1FAF53BB4FEE0FD7
:10371000FF1FE154FB4F6D917C9120813181621B31
:10372000730B70938E0C60938D0C51E05093F304E7
:1037300080917F0390918003A0918103B0918203D7
:103740008093930C9093940CA093950CB093960C4B
:10375000089581E090E09093580B8093570B40912F
:10376000BF045091C0046091C1047091C2044093A1
:10377000BB045093BC046093BD047093BE0460917D
:103780007F03709180038091810390918203609305
:10379000BF047093C0048093C1049093C20430911D
:1037A000660391E03927309366039093B31D20910F
:1037B000201E3091211E4091221E5091231E2F5F0A
:1037C0003F4F4F4F5F4F2093201E3093211E409359
:1037D000221E5093231EAFE0B0E0B0938E0CA09356
:1037E0008D0CA3CF1092B31D08958091B31D0F943B
:1037F000716060936703709368038093690390938B
:103800006A038091670390916803A0916903B09166
:103810006A0340913A0C50913B0C60913C0C7091C2
:103820003D0C841B950BA60BB70B80937B039093E9
:103830007C03A0937D03B0937E0320917B033091A2
:103840007C0340917D0350917E036091F40470915C
:10385000F5048091F6049091F7042617370748077E
:10386000590708F471C08091670390916803A09193
:103870006903B0916A0380933A0C90933B0CA09338
:103880003C0CB0933D0C51E05093F30460917B03EA
:1038900070917C0380917D0390917E03969587952E
:1038A000779567956093F4047093F5048093F6041C
:1038B0009093F7043091B31D311132C08CED95E037
:1038C000A0E0B0E08093F8049093F904A093FA0488
:1038D000B093FB046091F4047091F5048091F604B8
:1038E0009091F70496958795779567956093F40482
:1038F0007093F5048093F6049093F704E091B1047B
:10390000F091B20490817091B004A0910C0EA07F50
:10391000972301F1A03409F453C0A03609F448C03C
:103920004091B41D5091B51DE0914C1EF0914D1E7B
:103930004E175F0750F4F091B31DFF2329F050910B
:103940000C0E507F503491F00895B091401CB7FD9B
:10395000F2CF0895A03421F72091570B3091580BE6
:1039600025303105E9F65093B31DDACF0F9471601D
:103970008091560390915703A0915803B091590339
:10398000E091B104F091B20430819091B0043923F8
:10399000D9F2A091570BB091580BA830B105C9F0DE
:1039A0001092B31D70915D1E7F5F70935D1E089530
:1039B0008091570B9091580B079709F0B1CFD3CF57
:1039C0006091570B7091580B6830710509F0A8CFC2
:1039D000CACFB093580BA093570B0895CF92DF92A4
:1039E000EF92FF92CF93DF930F9471606093670320
:1039F000709368038093690390936A0380916703CF
:103A000090916803A0916903B0916A0340913A0CC8
:103A100050913B0C60913C0C70913D0C841B950BBC
:103A2000A60BB70B80937B0390937C03A0937D033D
:103A3000B0937E03C0907B03D0907C03E0907D0325
:103A4000F0907E032091F4043091F5044091F60447
:103A50005091F704C216D306E406F50608F465C0D3
:103A60008091670390916803A0916903B0916A0304
:103A700080933A0C90933B0CA0933C0CB0933D0C7C
:103A800040917B0350917C0360917D0370917E0394
:103A90007695679557954795769567955795479588
:103AA0004093F4045093F5046093F6047093F70484
:103AB000D090B31DDD2009F453C0C090201ED090DB
:103AC000211EE090221EF090231E8091451C90E064
:103AD000B0E0A0E08C159D05AE05BF0508F040C024
:103AE0008091491C90E0E090570BF090580B8E1598
:103AF0009F0591F02091201E3091211E4091221EA1
:103B00005091231E233031054105510528F0309195
:103B10005D1E3F5F30935D1EF090401CF7FE56C067
:103B20009093580B8093570B51C06091980C7091F3
:103B3000990C80919A0C90919B0C9695879577950E
:103B400067956093F4047093F5048093F604909362
:103B5000F704DF91CF91FF90EF90DF90CF90089521
:103B60000F9471606093930C7093940C8093950CF8
:103B70009093960C0F9471606B017C01C091491C6D
:103B80002C2F30E050E040E060E87DE88BE590E0ED
:103B90000F942C9BC21AD30AE40AF50AC0928F0C28
:103BA000D092900CE092910CF092920CD0E0D093D5
:103BB000580BC093570B1092F8041092F90410920E
:103BC000FA041092FB0451E05093B31D71E070931E
:103BD0006603DF91CF91FF90EF90DF90CF90089533
:103BE000CF92DF92EF92FF920F9471606093670320
:103BF000709368038093690390936A0380916703CD
:103C000090916803A0916903B0916A0340913A0CC6
:103C100050913B0C60913C0C70913D0C841B950BBA
:103C2000A60BB70B80937B0390937C03A0937D033B
:103C3000B0937E03C0903A0CD0903B0CE0903C0CCB
:103C4000F0903D0CCD28CE28CF28C1F410927B03F4
:103C500010927C0310927D0310927E0320916703E3
:103C6000309168034091690350916A0320933A0CA4
:103C700030933B0C40933C0C50933D0C40917B03A4
:103C800050917C0360917D0370917E038091F404D8
:103C90009091F504A091F604B091F70448175907E4
:103CA0006A077B07C0F13091421C3F77313009F43D
:103CB000C1C0311120C051E05093660360917B0375
:103CC00070917C0380917D0390917E0396958795FA
:103CD000779567956093F4047093F5048093F604E8
:103CE0009093F704A091370CB091380C1196B093D3
:103CF000380CA093370CC0906703D0906803E09015
:103D00006903F0906A03C0923A0CD0923B0CE092A7
:103D10003C0CF0923D0CD090AC1ED5FE86C0E090DD
:103D20006603EE2009F481C0E091CB0BF091CC0B3F
:103D30001995AC01893621E092070CF442C09C0130
:103D400029563140A3E8BDE20F94BA9B0024880FA6
:103D5000991F001C880F991F001C892F902D8770B8
:103D6000992748565140493621E0520754F10097AF
:103D700011F181309105C9F082309105A1F08330B5
:103D8000910579F08430910551F08530910529F045
:103D9000069709F0B5C0485651404856514048561C
:103DA0005140485651404856514048565140493676
:103DB00021E0520734F040545B40493681E0580717
:103DC000D4F720913A1C30913B1C421B530B70914D
:103DD000B21E7370723031F48091751D9091761D12
:103DE000481B590BE091B61C9A01220F331FF0E0DB
:103DF000A0E0B1E0AE1BBF0B0F94ED9B6B017C010B
:103E0000A091621EB091631E9F010F94F59BC60E98
:103E1000D71EE81EF91ECD2CDE2CEF2CFF24E7FC6C
:103E2000FA94D092631EC092621EFF90EF90DF90D2
:103E3000CF90089580913A0C90913B0CA0913C0C4E
:103E4000B0913D0CC090B704D090B804E090B90494
:103E5000F090BA048C199D09AE09BF09AC01BD01EF
:103E6000440F551F661F771F840F951FA61FB71F8E
:103E7000B695A79597958795809362039093630372
:103E8000A0936403B093650320913A0C30913B0CEE
:103E900040913C0C50913D0C2093B7043093B804F2
:103EA0004093B9045093BA0440917B0350917C0332
:103EB00060917D0370917E03809162039091630312
:103EC000A0916403B0916503481759076A077B07FF
:103ED00030F4E091370CF091380C3497A0F081E089
:103EE00090E09093380C8093370C80936603109287
:103EF000F4041092F5041092F6041092F704FBCE2D
:103F00004856514048CF60917B0370917C0380916B
:103F10007D0390917E039695879577956795969505
:103F20008795779567956093F4047093F504809373
:103F3000F6049093F704A091370CB091380C1196C9
:103F4000B093380CA093370CD6CECF93DF9310925A
:103F5000F30481E08093F304209101052330F1F014
:103F6000223091F0213029F4E091FD04F091FE041B
:103F700019956091611E662321F07091F30471110F
:103F800017C0DF91CF910895E091AE04F091AF0496
:103F900030819091AD04392339F3EBCFC091AE0459
:103FA000D091AF0448815091AD044523E9F6E1CFAB
:103FB00080917B0390917C03A0917D03B0917E035F
:103FC000A091FF1DA6FDDDCFB091601EB111D9CF2C
:103FD000C0910A0CD0910B0CCB52DD4F1882E091AE
:103FE000B104F091B204D081F091B004DF2309F064
:103FF00045C0E091AE04F091AF0420813091AD0452
:10400000232349F0C0910A0CD0910B0CCB52DD4F09
:10401000988192609883E0910A0CF0910B0CEB521E
:10402000FD4F4081446040835091B31D552349F0BA
:10403000C0910A0CD0910B0CCB52DD4F68816860A7
:104040006883C0910A0CD0910B0C0F947160CC0F57
:10405000DD1FCC0FDD1FC55AD64F688379838A8355
:104060009B83A0910A0CB0910B0CAE37B10580F088
:104070007091FF1D70647093FF1D83CFC0910A0C77
:10408000D0910B0CCB52DD4F888181608883B1CFFA
:1040900080910A0C90910B0C019690930B0C8093DD
:1040A0000A0CB091FF1DBF7BB093FF1D6ACFCF9369
:1040B000DF931092F30480910205833009F481C0EC
:1040C0008230B9F08130F1F4E091FF04F091000505
:1040D00019957091601E772301F1A091F304A1114D
:1040E0007BC0B1E0D091611ED1111CC0DF91CF9196
:1040F0000895E091B104F091B20420819091B00450
:10410000292311F35091601E552339F06091F30477
:10411000662339F3DF91CF910895B0E0D091611E0D
:10412000DD2321F340917703509178036091790367
:1041300070917A03F091FF1DF6FDD8CFC0910A0C63
:10414000D0910B0CB1116FC0CB52DD4F1882E091B2
:10415000B104F091B20480812091B004822309F06F
:1041600082C0E091AE04F091AF0430815091AD0473
:10417000352349F0C0910A0CD0910B0CCB52DD4F86
:104180006881626068837091B31D772349F0E09184
:104190000A0CF0910B0CEB52FD4FA081A860A0839C
:1041A000C0910A0CD0910B0C0F947160CC0FDD1FE5
:1041B000CC0FDD1FC55AD64F688379838A839B83D2
:1041C0003CC0C091B104D091B20438814091B00498
:1041D000342309F079CF96CF20917703309178037B
:1041E0004091790350917A03B091FF1DB6FD7ECFC7
:1041F000E0910A0CF0910B0CEE0FFF1FEE0FFF1F6A
:10420000E55AF64F208331834283538380910A0C11
:1042100090910B0C8E379105B8F0D091FF1DD064B2
:10422000D093FF1D63CFCC0FDD1FCC0FDD1FC55A10
:10423000D64F488359836A837B8340910A0C5091FF
:104240000B0C4E37510548F7A0910A0CB0910B0C9E
:104250001196B0930B0CA0930A0CF091FF1DFF7BFD
:10426000F093FF1D43CFC0910A0CD0910B0CCB52A1
:10427000DD4F98819160988374CF833023E092075B
:1042800009F4F7C258F1813123E0920709F4D9C249
:1042900008F060C08A3023E0920709F4DEC208F01B
:1042A000E8C0863023E0920709F461C208F44BC2EB
:1042B000883023E0920709F4B7C108F4F5C35091A0
:1042C000261E51FF06C06091040674E067276093C4
:1042D0000406A0910406A2FFD9C108958C3022E003
:1042E000920709F4D6C2D8F4853022E0920709F487
:1042F000E0C208F0D2C0813022E0920709F46BC21C
:1043000008F4D5C1833022E0920709F46DC108F4A6
:10431000A7C35091261E51FFE0CF0D94A40B83310B
:1043200022E0920709F49FC208F46BC0873122E0B3
:10433000920709F43DC308F0F5C0853122E09207E9
:1043400009F41CC108F4ECC27091261E71FFC5CFA0
:104350000D94A208883123E0920709F4B6C208F44C
:104360006EC0833029E9920709F44BC208F0AFC050
:10437000813029E9920709F417C108F035C3811586
:10438000994909F0C1C3F8948091D80887FD8C5FE2
:1043900018160CF09FC3082E000C990BFC01EE0FB1
:1043A000FF1FEE0FFF1FE752F74F2081318142813F
:1043B0005381880F991F880F991FFC01EB52F74F0B
:1043C00080819181A281B381281B390B4A0B5B0B41
:1043D0007894211531054105510509F47ECF60E03F
:1043E00077E883E993E00F945F9B3093500E20931E
:1043F0004F0E0F94CE54A0914E1EA860A0934E1E57
:1044000008958F3022E0920709F4EBC108F45EC1F1
:10441000813122E0920709F49FC008F43FC37091F4
:10442000261E71FF06C0A091050690E2A927A09361
:104430000506B0910506B5FD50CF0D94D214843118
:1044400023E0920709F4A8C208F46EC1863123E084
:10445000920709F48DC008F447C23091261E31FF3F
:104460003CCF0E94FEF9409104064F77409304062A
:1044700008958D3023E0920709F49BC108F43BC1F5
:104480008F3023E0920709F4BFC008F498C19091DF
:10449000261E91FF22CF0C94E7FE883022E092077F
:1044A00009F432C208F4F4C08A3022E0920709F419
:1044B00075C008F489C29091261E91FF0ECF0F940B
:1044C0003415A0910506A77FA093050608958530B1
:1044D00029E9920709F4B4C008F42EC2863099493C
:1044E00009F011C320916C1E30916D1E211531050C
:1044F00009F4F3CEA0E1B7E20F94BA9B2091B41D6A
:104500003091B51D50E040E00F945F9B30935D0EFD
:1045100020935C0E0F94CE5490914E1E9860909311
:104520004E1E0895813023E0920709F4A9C008F0D7
:10453000A3C28831924009F0E5C2F091261EF1FF36
:1045400005C08091050680588093050620910506D8
:1045500027FDC3CE0D947114E091261EE1FFBDCE60
:104560000F94D214F0910506FF7DF093050608958F
:104570005091261E51FFB1CE0C94EBFAA091261E4D
:10458000A1FF06C0B091050690E4B927B0930506D7
:10459000E0910506E6FDA1CE0D94A114B091261E72
:1045A000B1FF9BCE0D94D10820916C1E30916D1EF1
:1045B0002115310509F491CEA0E1B7E20F94BA9B21
:1045C0002091B41D3091B51D50E040E00F945F9BE9
:1045D0003093530E2093520E0F94CE54E0914E1E02
:1045E000E860E0934E1E08956091261E61FF06C0AC
:1045F0007091050691E0792770930506A091050654
:10460000A0FD6BCE0D94A015F091261EF1FF06C003
:104610008091040620E182278093040630910406ED
:1046200034FD5BCE0C94F7FFB091261EB1FF55CE42
:104630000E9434FCE0910406EB7FE09304060895A9
:1046400020916C1E30916D1E2115310509F445CE67
:10465000A0E1B7E20F94BA9B2091B41D3091B51D33
:1046600050E040E00F945F9B30935B0E20935A0E16
:104670000F94CE5420914E1E286020934E1E089514
:104680005091261E51FF29CE0D942A010C9434FC22
:10469000863022E0920709F46FC18730924009F01A
:1046A00035C2E091261EE1FF18CE0D94550A811502
:1046B00021E0920709F4B8C18130914009F025C288
:1046C0008091261E82608093261E08958D3022E000
:1046D000920709F4DDC18E30924009F011C2309189
:1046E000261E31FFFACD0F940315409105064F7E2B
:1046F0004093050608958B3023E0920709F44DC0DE
:104700008C30934009F003C23091261E31FF06C061
:104710004091040658E04527409304066091040642
:1047200063FDDBCD0C9438FA823123E0920709F463
:10473000C1C18331934009F0E4C16091261E61FF3D
:10474000CCCD0C94E8FC843023E0920701F1853055
:10475000934009F0D4C18091261E81FFBECD0E94F6
:1047600033FE209104062D7F209304060895909136
:10477000261E91FF06C0F091040682E0F827F09310
:1047800004062091040621FDA8CD0C9433FE30913F
:10479000261E31FFA2CD0C942BFF7091261E71FFB7
:1047A0009CCD0E9438FAA0910406A77FA09304062E
:1047B00008954091261E41FF90CD0D94E600B091E2
:1047C000261EB1FF8ACD0E94F7FFE0910406EF7E1E
:1047D000E09304060895B091261EB1FF7ECD0D949E
:1047E000D90C8091261E81FF06C02091050630E17C
:1047F0002327209305064091050644FD6ECD0D94B8
:10480000031520916C1E30916D1E2115310509F4A0
:1048100064CDA0E1B7E20F94BA9B2091B41D309112
:10482000B51D50E040E00F945F9B3093570E2093EE
:10483000560E0F94CE5430914E1E386030934E1E5B
:1048400008957091261E71FF48CD0E94F8FD809159
:1048500004068F7D8093040608955091261E51FF13
:104860003CCD0C942EFBA091261EA1FF36CD0D94BD
:10487000250AA091261EA1FF06C0B0910406E1E022
:10488000BE27B09304069091040690FD26CD0D94AA
:104890003200B091261EB1FF06C0E091050698E0F7
:1048A000E927E0930506F0910506F3FD16CD0D947A
:1048B00034158091261E81FF10CD0F946A1520912A
:1048C00005062D7F2093050608954091261E41FF81
:1048D00005C0509104065058509304066091040698
:1048E00067FDFBCC0C94FEF99091261E91FF06C04B
:1048F000F091040680E4F827F09304062091040662
:1049000026FDEBCC0C94F9FBE091261EE1FFE5CCF3
:104910000F948609F0910506FB7FF0930506089534
:104920005091261E51FFD9CC0F94A1146091050619
:104930006F7B60930506089520916C1E30916D1E6B
:104940002115310509F4C9CCA0E1B7E20F94BA9B57
:104950002091B41D3091B51D50E040E00F945F9B55
:104960003093590E2093580E0F94CE54F0914E1E52
:10497000F860F0934E1E0895F091261EF1FF06C0D8
:104980008091050622E08227809305063091050676
:1049900031FDA3CC0D946A156091261E61FF9DCC5C
:1049A0000E94F9FB709104067F7B709304060895C2
:1049B0006091261E61FF91CC0F94711470910506D1
:1049C0007F777093050608954091261E41FF06C02B
:1049D0005091050664E05627509305067091050630
:1049E00072FD7BCC0D94860920916C1E30916D1E5A
:1049F0002115310509F471CCA0E1B7E20F94BA9BFF
:104A00002091B41D3091B51D50E040E00F945F9BA4
:104A10003093550E2093540E0F94CE54B0914E1EE9
:104A2000B860B0934E1E08952091261E2D7F2093CE
:104A3000261E0F9432000E9433FE0E9434FC0E9416
:104A400038FA0E94F7FF0F94A0150F946A150F947F
:104A500086090F94341510920506109204060895E5
:104A60003091261E31FF39CC0F94A01540910506D8
:104A70004E7F4093050608953091261E31FF2DCCC0
:104A80000F943200409104064E7F4093040608952F
:104A90005091261E51FF21CC0D94A90C6091261E29
:104AA00061FF1BCC0D94740B4091261E41FF15CC69
:104AB0000C942CFD7091261E71FF06C0A091040677
:104AC000B0E2AB27A0930406E0910406E5FD05CC17
:104AD0000C94F8FD2091D9083091DA084091DB0858
:104AE0005091DC088091E5089091E608A091E708D4
:104AF000B091E808281B390B4A0B5B0B69CC089571
:104B000008950895089508950895089508950895BD
:104B1000982F8F3010F00F94779DE82FF0E08827C2
:104B2000EB56FA4D8F4F0D94E59BB825BA25AA2573
:104B3000C025DE25E425EB25F5251D265A26612610
:104B400068267026A425B1256038710540F488EAEE
:104B50009CE046C0603221E0720708F4E1C080E0CA
:104B60000895603281E07807D0F78CE996E10EC0B5
:104B7000892F08956038710590F788EE9DE030C068
:104B8000603231E0730758F783EE97E16F3F7105AC
:104B900009F008F4F3C06031F1E07F0708F019C1B3
:104BA0007727660F771F680F791FFB01E95FFE4FBC
:104BB0006081718186E892E00C9478176038710505
:104BC00070F68AE39CE10CC0603281E0780738F629
:104BD00085E595E1DBCF6038710508F68CEA9EE14A
:104BE000680F791FFB01808108956035710508F415
:104BF0009AC0603A710508F4A4C0603F710508F0DE
:104C0000AECF605A7109AEEEB4E1262F6034710563
:104C100008F4ABC06834710508F0EAC02054E22FF4
:104C2000F0E0EE0FFF1FEA0FFB1FE95BFF4F608113
:104C3000718186E892E00C9478176033710508F46E
:104C400078C06036710508F481C06039710508F4D8
:104C5000ADC0603C710508F4E8C0603F710508F420
:104C6000E9C06032E1E07E0708F4E9C06035F1E0B8
:104C70007F0708F4E9C0603821E0720708F06FCFC1
:104C800060557140AAE3B1E1262F6432710508F442
:104C90007FC06A32710508F08EC0245230E0220FC6
:104CA000331FA20FB31FFD0163A574A586E892E030
:104CB0000C947817603C710508F051CF88E29DE0B4
:104CC0008FCF603C710508F04ACF83EF9CE188CF1D
:104CD000603231E0730708F042CF8AE299E156CFA3
:104CE0006035710518F1603A710530F1683B710566
:104CF00008F035CF605A71096031710560F1643197
:104D0000710508F083C06051E62FF0E0EE0FFF1F41
:104D1000E65DFE4E6081718186E892E00C94781722
:104D200081E79AE133CFA7E8B4E16FCFA2E5B3E121
:104D30006CCFAFE0B3E1A8CF60557109A9EBB3E147
:104D400064CF60557109A0E2B4E15FCF605371098F
:104D5000ACECB2E199CFE62FE370EA5FEE0FE61B11
:104D6000F0E0ED5EFE4E878108952770245E220FED
:104D7000261BA20FB11DFD0187810895562F5F707C
:104D80005858550F561B850F911DFC0187810895BA
:104D90002BEA629F412D112446954695342F330FFF
:104DA000430F440F262F241B215FE1CF605671096A
:104DB000A9E8B2E169CF2A5230E0220F331FA21BCB
:104DC000B30BFD01EF5BFF4F808191819595879536
:104DD00008956051262F30E0220F331F821B930B62
:104DE000FC01EB5BFE4F808191819595879508953D
:104DF000285430E0220F331FA21BB30BFD01EB59E7
:104E0000FF4F808191819595879508956451E62F94
:104E1000F0E0EE0FFF1FF195E195F109E85CFE4E21
:104E20008081918195958795089560597109A6E4CF
:104E3000B2E12ACF605C7109A3E0B2E125CF605FE7
:104E40007109A0ECB1E120CF60527140ADE7B1E152
:104E50001BCF8F3010F00F94779DE82FF0E088275C
:104E6000EB5CF84D8F4F0D94E59B862796279D2789
:104E7000A527AD27B427BC27C3274427F027F7274A
:104E80000228222887278E276033710508F412C173
:104E90006036710508F41BC16039710508F44FC113
:104EA000603C710508F492C1603F710508F493C13C
:104EB000603281E0780708F493C16035E1E07E0755
:104EC00008F493C16038F1E07F0700F56055714048
:104ED000AAE3B1E1862F6432710508F41CC16A327D
:104EE000710508F031C18452E82FF0E0EE0FFF1F8A
:104EF000EA0FFB1F34E6439FC001112494A783A748
:104F00008FEF9FE713969C938E93129708956038C6
:104F1000710508F0C7C088EA9CE06FC06032E1E02C
:104F20007E0708F0BEC0ACE9B6E173C06038710519
:104F300008F0B6C088EE9DE060C0603281E078077E
:104F400008F0ADC0A1E7BAE164C06032E1E07E07DD
:104F500008F0A4C0A3EEB7E15CC06038710508F0AA
:104F60009CC08AE39CE149C06032F1E07F0708F011
:104F700093C0A5E5B5E14DC06038710508F08BC060
:104F80008CEA9EE13AC06035710508F490C0603A41
:104F9000710508F497C0603F710508F0B7CF605AFB
:104FA0007109EEEEF4E1862F6034710508F49EC0BD
:104FB0006834710508F0E9C08054A82FB0E0AA0F4A
:104FC000BB1FAE0FBF1FA95BBF4F54E6459F9001AB
:104FD00011242D933C934FEF5FE753834283089551
:104FE000603C710508F05FC088E29DE006C0603C4F
:104FF000710508F04FC083EF9CE1680F791FFB013A
:1050000040830895603281E0780708F042C0AAE248
:10501000B9E16F3F710509F008F473C06031E1E058
:105020007E0708F0A1C0FB01FF27EE0FFF1FEA0F6C
:10503000FB1FE95FFE4F74E6479FB00111247183A7
:1050400060835ECF6035710578F1603A7105A8F133
:10505000683B710508F05ACF605A710960317105DB
:10506000D8F16431710508F0A0C06051E62FF0E07E
:10507000EE0FFF1FE65DFE4E24E6429FA0011124C5
:10508000518340836FEF7FE7709316116093151182
:105090000895089508950895089508950895089528
:1050A0000895089508950895E2E5F3E17CCFE7E8D7
:1050B000F4E179CFAFE0B3E10DCF60557109E9EBD1
:1050C000F3E171CF60557109E0E2F4E16CCF605318
:1050D0007109ACECB2E1FECEE62FE370EA5FEE0FB1
:1050E000E61BF0E0ED5EFE4E4783CCCFA62FA77007
:1050F000A45EAA0FA61BAE0FBF2FB11D17964C932F
:105100006ACFE62FEF70E858EE0FE61BEA0FFB2F91
:10511000F11D4783F5CE8BEA689F812D112486957A
:105120008695982F990F890F880FE62FE81BE15F6E
:10513000EE0FE61BEA0FFB2FF11D4783E1CE605611
:105140007109A9E8B2E1C6CE8A5290E0880F991F92
:10515000FD01E81BF90BEF5BFF4F842F90E0880FF8
:10516000991F91838083CCCE6051862F90E0880F69
:10517000991FFD01E81BF90BEB5BFE4F842F90E0BC
:10518000880F991F91838083BBCE885490E0880F4D
:10519000991FDF01A81BB90BAB59BF4F842F90E0BB
:1051A000880F991F8D939C9316CF6451E62FF0E0E2
:1051B000EE0FFF1FF195E195F109E85CFE4E842F9B
:1051C00090E0880F991F918380835CCF60597109AB
:1051D000A6E4B2E17FCE605C7109A3E0B2E17ACED1
:1051E000605F7109A0ECB1E175CE60527140ADE72E
:1051F000B1E170CE2F923F924F925F926F927F9269
:105200008F929F92AF92BF92CF92DF92EF92FF92D6
:105210000F931F93CF93DF93CDB7DEB7AD970FB644
:10522000F894DEBF0FBECDBF2C016CA3633009F430
:10523000E8C608F4D1C62CA1243009F4FAC22530FE
:1052400009F0FBC69C012B5B3E4F89509F4FA2018A
:10525000495051095EA34DA300E110E01BA70AA726
:1052600060EF7FEF78A76FA311E019A72DA03EA0F4
:105270002816390609F499C19BA38AA32E5F3F4FD4
:105280003DA72CA774EA272E72E0372E01E0EAE052
:105290008E2E912CA12CB12C11E0ECA5FDA59291A4
:1052A0008291FDA7ECA739A5313009F48AC6D82E22
:1052B00093E6E8E0F0E19D1508F087C22D2D30E07F
:1052C00050E040E019A2CE0181966C01CA01B901FB
:1052D000A50194010F945F9B605DF60162936F01DD
:1052E000211531054105510589F73097E9F1019004
:1052F0000020E9F7AF01F601415051094E175F0751
:1053000099F1D19000931D0F7090200FE090210F24
:10531000A091150FB091160F7E1409F4FEC22091D2
:10532000200F30E02F5F3F4F2F733327322F03C002
:105330000FB607FE91C27091210F3717C9F3A091E4
:10534000200FB0E0AE59B04FDC926FB7F8942093C5
:10535000200FA091170FB091180F9C9190629C9311
:105360006FBF4E175F0769F6EAE0F0E1449144230E
:1053700099F100931D0F5091200FD090210FA09113
:10538000150FB091160F5D1509F40CC32091200F75
:1053900030E02F5F3F4F2F733327E22E03C00FB64D
:1053A00007FECFC2F090210FEF14C9F3A091200F98
:1053B000B0E0AE59B04F4C939FB7F8942093200FB4
:1053C000A091170FB091180F8C9180628C939FBFA2
:1053D000319644914111CDCF6AA07BA0EAA4FBA4F1
:1053E0006E0C7F1C8AA19BA17C018615970509F490
:1053F00099C0F70121917F01E8E0F0E1243608F43B
:10540000FAC230E050E040E019A2CE0181966C0172
:10541000CA01B901A50194010F945F9B605DF6017B
:1054200062936F01211531054105510589F73097C8
:10543000E9F101900020E9F7AF01F601415051096F
:105440004E175F0799F1D19010931D0F2091200FF7
:105450003091210FA091150FB091160F231709F469
:105460005FC32091200F30E02F5F3F4F2F73332712
:10547000922F03C00FB607FEF2C27091210F97174B
:10548000C9F3A091200FB0E0AE59B04FDC92CFB677
:10549000F8942093200FA091170FB091180F8C91C2
:1054A00080628C93CFBE4E175F0769F6EAE0F0E1A9
:1054B0004491442399F110931D0F5091200FD090E7
:1054C000210FA091150FB091160F5D1509F46DC352
:1054D0002091200F30E02F5F3F4F2F733327C22ED4
:1054E00003C00FB607FE30C36091210FC616C9F383
:1054F000A091200FB0E0AE59B04F4C937FB7F89415
:105500002093200FA091170FB091180F8C918062FB
:105510008C937FBF319644914111CDCF6E147F049F
:1055200009F067CFA2EAB2E07D9000931D0FF090E2
:10553000200FC090210FE091150FF091160FFC1471
:1055400009F4F1C32091200F30E02F5F3F4F2F73FC
:105550003327922F03C00FB607FE84C38091210F1B
:105560009817C9F3E091200FF0E0EE59F04F7082E8
:105570005FB7F8942093200FE091170FF091180F68
:105580003081306230835FBF2A163B0669F6EAA09D
:10559000FBA0CFA0D8A4EC0CFD1CFBA2EAA28DA11D
:1055A0009EA18E159F0509F078CE0CE010E108C091
:1055B00085E09FE00F94BA410F5F1F4F892B21F0C8
:1055C000F80164916111F4CFBCA1B53008F04AC56F
:1055D000B33008F0F9C4B23009F027C572015FE1B9
:1055E000E50EF11C87E1480E511C4E145F0409F4CE
:1055F000B3C011E05AE0852E912CA12CB12CF20100
:10560000A191B1912F012CEE31E50F94F59B9C01F6
:105610003595279535952795359527953595279572
:1056200035952795022F37FD0395E8E0F0E1043624
:1056300008F4E4C2202F30E050E040E019A2CE018F
:1056400081961C01CA01B901A50194010F945F9BC9
:10565000605DF10162931F0121153105410551057E
:1056600089F73097E9F101900020E9F7AF01D10106
:1056700041505109A417B50799F13D9010931D0FA2
:105680007090200FD090210FE091150FF091160F20
:105690007D1409F40DC42091200F30E02F5F3F4F9F
:1056A0002F733327922F03C00FB607FE0CC37091E0
:1056B000210F9717C9F3E091200FF0E0EE59F04F5A
:1056C0003082CFB6F8942093200FE091170FF0911D
:1056D000180F208120622083CFBEA417B50769F67A
:1056E000EAE0F0E14491442399F110931D0F5091A9
:1056F000200F3090210FA091150FB091160F531568
:1057000009F41BC42091200F30E02F5F3F4F2F730F
:105710003327D22E03C00FB607FEDEC37091210FD0
:10572000D716C9F3A091200FB0E0AE59B04F4C93FB
:10573000CFB6F8942093200FA091170FB091180FB7
:105740002C9120622C93CFBE319644914111CDCF44
:10575000E414F50409F053CF6DE085E09FE00F9469
:10576000BA41892B09F48AC46AE085E09FE0AD96CE
:105770000FB6F894DEBF0FBECDBFDF91CF911F9162
:105780000F91FF90EF90DF90CF90BF90AF909F90E0
:105790008F907F906F905F904F903F902F900D94DF
:1057A000BA41EC90E5FE21C02FB7F894A0911B0FF1
:1057B000B0911C0F6C92A091150FB091160F4C91E7
:1057C000437040644C932FBF31966490662009F477
:1057D000E0C300931D0F7090200FC090210FA09187
:1057E000150FB091160F7C14E1F22091200F30E0DC
:1057F0002F5F3F4F2F733327F22E03C00FB607FEE4
:105800005BC05091210FF516C9F3A091200FB0E0B5
:10581000AE59B04F6C924FB7F8942093200FA091DF
:10582000170FB091180F8C9180628C934FBF3196F7
:10583000CCCF9C012B593F4FCF96D2011197BEA3DD
:10584000ADA3E8E0F0E0FBA7EAA748EF5FEF58A7B9
:105850004FA372E079A70ACD6C9065FE6CCDA09144
:10586000210FB0E0AE59B04F8C91A091210FB0E064
:105870001196AF73BB27A093210FA0911B0FB0917E
:105880001C0F8C93A091150FB091160F7C91737023
:1058900070647C93B091200FC090210FBC1107C0A1
:1058A000A091170FB091180F6C916F7D6C93A09120
:1058B000150FB091160F3FCD7C9175FFA2CFA0912F
:1058C000210FB0E0AE59B04F3C916091210F70E0D4
:1058D0006F5F7F4F6F7377276093210FA0911B0F2E
:1058E000B0911C0F3C93A091150FB091160F6C91C5
:1058F000637060646C93B091200F9091210FB91385
:1059000007C0A091170FB091180F5C915F7D5C9359
:10591000A091150FB091160F74CFFC90F5FEFFCC3F
:105920002FB7F894A0911B0FB0911C0FDC92A0919F
:10593000150FB091160F3C91337030643C932FBF1C
:10594000DDCC6C9065FE2ECDA091210FB0E0AE595C
:10595000B04FCC906091210F70E06F5F7F4F6F73FD
:1059600077276093210FA0911B0FB0911C0FCC9251
:10597000A091150FB091160F7C91737070647C9399
:10598000B091200F6091210FB61307C0A091170F9F
:10599000B091180F3C913F7D3C93A091150FB091B1
:1059A000160F00CD7C9075FEF1CC2FB7F894A09126
:1059B0001B0FB0911C0F4C93A091150FB091160FB7
:1059C0004C91437040644C932FBF319602CDCC90E4
:1059D000C5FE21C03FB7F894A0911B0FB0911C0FDA
:1059E000DC92A091150FB091160F6C9163706064FA
:1059F0006C933FBF3196D490DD2009F4A8C1109379
:105A00001D0F5091200F9091210FA091150FB09173
:105A1000160F5917E1F24091200F50E04F5F5F4F92
:105A20004F735527342F03C00FB607FE48C070913F
:105A3000210F3717C9F3A091200FB0E0AE59B04F36
:105A4000DC926FB7F8944093200FA091170FB0919C
:105A5000180F4C9140624C936FBF3196CCCF3C9164
:105A600035FF0BCDA091210FB0E0AE59B04F6C9136
:105A7000A091210FB0E01196AF73BB27A093210F27
:105A8000A0911B0FB0911C0F6C93A091150FB091BA
:105A9000160F7C91737070647C93B091200FC0904E
:105AA000210FBC1107C0A091170FB091180F8C9156
:105AB0008F7D8C93A091150FB091160FDECC8C9139
:105AC00085FFB5CFA091210FB0E0AE59B04F5C91EA
:105AD0006091210F70E06F5F7F4F6F737727609346
